{
  "contractName": "CitadelUnlockFoundFund",
  "abi": [
    {
      "inputs": [
        {
          "internalType": "uint256",
          "name": "budget",
          "type": "uint256"
        },
        {
          "internalType": "address",
          "name": "_tokenAddress",
          "type": "address"
        },
        {
          "internalType": "address[]",
          "name": "multisig",
          "type": "address[]"
        },
        {
          "internalType": "uint256",
          "name": "threshold",
          "type": "uint256"
        },
        {
          "internalType": "uint256",
          "name": "_test_date",
          "type": "uint256"
        }
      ],
      "stateMutability": "nonpayable",
      "type": "constructor"
    },
    {
      "anonymous": false,
      "inputs": [
        {
          "indexed": false,
          "internalType": "address",
          "name": "who",
          "type": "address"
        }
      ],
      "name": "AddMultisigAddress",
      "type": "event"
    },
    {
      "anonymous": false,
      "inputs": [
        {
          "indexed": true,
          "internalType": "address",
          "name": "previousOwner",
          "type": "address"
        },
        {
          "indexed": true,
          "internalType": "address",
          "name": "newOwner",
          "type": "address"
        }
      ],
      "name": "OwnershipTransferred",
      "type": "event"
    },
    {
      "anonymous": false,
      "inputs": [
        {
          "indexed": false,
          "internalType": "address",
          "name": "who",
          "type": "address"
        }
      ],
      "name": "RemoveMultisigAddress",
      "type": "event"
    },
    {
      "anonymous": false,
      "inputs": [
        {
          "indexed": false,
          "internalType": "uint256",
          "name": "num",
          "type": "uint256"
        }
      ],
      "name": "SetThreshold",
      "type": "event"
    },
    {
      "anonymous": false,
      "inputs": [
        {
          "indexed": true,
          "internalType": "uint256",
          "name": "id",
          "type": "uint256"
        },
        {
          "indexed": false,
          "internalType": "address",
          "name": "from",
          "type": "address"
        },
        {
          "indexed": false,
          "internalType": "address",
          "name": "to",
          "type": "address"
        },
        {
          "indexed": false,
          "internalType": "uint256",
          "name": "amount",
          "type": "uint256"
        }
      ],
      "name": "TransferVote",
      "type": "event"
    },
    {
      "inputs": [
        {
          "internalType": "address",
          "name": "",
          "type": "address"
        }
      ],
      "name": "_whitelist",
      "outputs": [
        {
          "internalType": "bool",
          "name": "",
          "type": "bool"
        }
      ],
      "stateMutability": "view",
      "type": "function"
    },
    {
      "inputs": [],
      "name": "getThreshold",
      "outputs": [
        {
          "internalType": "uint256",
          "name": "",
          "type": "uint256"
        }
      ],
      "stateMutability": "view",
      "type": "function"
    },
    {
      "inputs": [],
      "name": "multisigWhitelist",
      "outputs": [
        {
          "internalType": "address[]",
          "name": "",
          "type": "address[]"
        }
      ],
      "stateMutability": "view",
      "type": "function"
    },
    {
      "inputs": [
        {
          "internalType": "address",
          "name": "account",
          "type": "address"
        }
      ],
      "name": "multisigWhitelistAdd",
      "outputs": [],
      "stateMutability": "nonpayable",
      "type": "function"
    },
    {
      "inputs": [
        {
          "internalType": "address",
          "name": "account",
          "type": "address"
        }
      ],
      "name": "multisigWhitelistRemove",
      "outputs": [],
      "stateMutability": "nonpayable",
      "type": "function"
    },
    {
      "inputs": [],
      "name": "owner",
      "outputs": [
        {
          "internalType": "address",
          "name": "",
          "type": "address"
        }
      ],
      "stateMutability": "view",
      "type": "function"
    },
    {
      "inputs": [],
      "name": "renounceOwnership",
      "outputs": [],
      "stateMutability": "nonpayable",
      "type": "function"
    },
    {
      "inputs": [
        {
          "internalType": "uint256",
          "name": "num",
          "type": "uint256"
        }
      ],
      "name": "setThreshold",
      "outputs": [],
      "stateMutability": "nonpayable",
      "type": "function"
    },
    {
      "inputs": [],
      "name": "test_date",
      "outputs": [
        {
          "internalType": "uint256",
          "name": "",
          "type": "uint256"
        }
      ],
      "stateMutability": "view",
      "type": "function"
    },
    {
      "inputs": [],
      "name": "token",
      "outputs": [
        {
          "internalType": "contract ICitadelToken",
          "name": "",
          "type": "address"
        }
      ],
      "stateMutability": "view",
      "type": "function"
    },
    {
      "inputs": [],
      "name": "token_deployed",
      "outputs": [
        {
          "internalType": "uint256",
          "name": "",
          "type": "uint256"
        }
      ],
      "stateMutability": "view",
      "type": "function"
    },
    {
      "inputs": [],
      "name": "total",
      "outputs": [
        {
          "internalType": "uint256",
          "name": "",
          "type": "uint256"
        }
      ],
      "stateMutability": "view",
      "type": "function"
    },
    {
      "inputs": [
        {
          "internalType": "address",
          "name": "newOwner",
          "type": "address"
        }
      ],
      "name": "transferOwnership",
      "outputs": [],
      "stateMutability": "nonpayable",
      "type": "function"
    },
    {
      "inputs": [],
      "name": "used",
      "outputs": [
        {
          "internalType": "uint256",
          "name": "",
          "type": "uint256"
        }
      ],
      "stateMutability": "view",
      "type": "function"
    },
    {
      "inputs": [],
      "name": "getTokenAddress",
      "outputs": [
        {
          "internalType": "address",
          "name": "",
          "type": "address"
        }
      ],
      "stateMutability": "view",
      "type": "function"
    },
    {
      "inputs": [],
      "name": "getBudget",
      "outputs": [
        {
          "internalType": "uint256",
          "name": "totalAmount",
          "type": "uint256"
        },
        {
          "internalType": "uint256",
          "name": "usedAmount",
          "type": "uint256"
        },
        {
          "internalType": "uint256",
          "name": "pending",
          "type": "uint256"
        }
      ],
      "stateMutability": "view",
      "type": "function"
    },
    {
      "inputs": [
        {
          "internalType": "uint256",
          "name": "_testdate",
          "type": "uint256"
        }
      ],
      "name": "calcUnlockTest",
      "outputs": [
        {
          "internalType": "uint256",
          "name": "",
          "type": "uint256"
        }
      ],
      "stateMutability": "view",
      "type": "function"
    },
    {
      "inputs": [],
      "name": "calcUnlock",
      "outputs": [
        {
          "internalType": "uint256",
          "name": "",
          "type": "uint256"
        }
      ],
      "stateMutability": "view",
      "type": "function"
    },
    {
      "inputs": [
        {
          "internalType": "address",
          "name": "to",
          "type": "address"
        },
        {
          "internalType": "uint256",
          "name": "amount",
          "type": "uint256"
        }
      ],
      "name": "transfer",
      "outputs": [
        {
          "internalType": "bool",
          "name": "",
          "type": "bool"
        }
      ],
      "stateMutability": "nonpayable",
      "type": "function"
    },
    {
      "inputs": [
        {
          "internalType": "int256",
          "name": "period",
          "type": "int256"
        }
      ],
      "name": "_calcUnlockAmount",
      "outputs": [
        {
          "internalType": "uint256",
          "name": "",
          "type": "uint256"
        }
      ],
      "stateMutability": "view",
      "type": "function"
    }
  ],
  "bytecode": "0x60806040523480156200001157600080fd5b50604051620019a6380380620019a683398101604081905262000034916200035a565b6000620000496001600160e01b036200018616565b600580546001600160a01b0319166001600160a01b038316908117909155604051919250906000907f8be0079c531659141344cd1fd0a4f28419497f9722a3daafe3b4186f6b6457e0908290a35060008511620000c35760405162461bcd60e51b8152600401620000ba90620004d0565b60405180910390fd5b6006859055600880546001600160a01b0319166001600160a01b03868116919091179182905560408051637c82e0ad60e11b81529051929091169163f905c15a91600480820192602092909190829003018186803b1580156200012557600080fd5b505afa1580156200013a573d6000803e3d6000fd5b505050506040513d601f19601f8201168201806040525062000160919081019062000341565b6009556200017883836001600160e01b036200018a16565b600a55506200053792505050565b3390565b60025415620001ad5760405162461bcd60e51b8152600401620000ba9062000454565b81518111158015620001bf5750600181115b620001de5760405162461bcd60e51b8152600401620000ba906200049b565b60028190556040517f46e8115bf463f9c29a9424fe152addef1bfaf2b43180d19bb7c2c78cc0ff1ebf906200021590839062000507565b60405180910390a160005b82518110156200031e5760016000808584815181106200023c57fe5b60200260200101516001600160a01b03166001600160a01b0316815260200190815260200160002060006101000a81548160ff02191690831515021790555060038382815181106200028a57fe5b60209081029190910181015182546001810184556000938452919092200180546001600160a01b0319166001600160a01b0390921691909117905582517f1ead7aae0c0f997bd574bd2e78f654421a1e582f39ed4276dcaeb23c5ab3b00090849083908110620002f657fe5b60200260200101516040516200030d919062000440565b60405180910390a160010162000220565b505050565b80516001600160a01b03811681146200033b57600080fd5b92915050565b60006020828403121562000353578081fd5b5051919050565b600080600080600060a0868803121562000372578081fd5b855194506020620003868882890162000323565b60408801519095506001600160401b0380821115620003a3578384fd5b8189018a601f820112620003b5578485fd5b8051925081831115620003c6578485fd5b8383029150620003d884830162000510565b8381528481019082860184840187018e1015620003f3578788fd5b8794505b8585101562000421576200040c8e8262000323565b835260019490940193918601918601620003f7565b5060608c01516080909c01519a9d999c509a9998975050505050505050565b6001600160a01b0391909116815260200190565b60208082526027908201527f4d756c74697369673a2077686974656c69737420616c726561647920696e69746040820152661a585b1a5e995960ca1b606082015260800190565b6020808252818101527f4d756c74697369673a20696e76616c696420696e6974207468726573686f6c64604082015260600190565b60208082526014908201527f4275646765742063616e2774206265207a65726f000000000000000000000000604082015260600190565b90815260200190565b6040518181016001600160401b03811182821017156200052f57600080fd5b604052919050565b61145f80620005476000396000f3fe608060405234801561001057600080fd5b506004361061012c5760003560e01c80638720de72116100ad578063b65fb6ff11610071578063b65fb6ff14610239578063cfdb63ac14610241578063e75235b814610254578063f2fde38b1461025c578063fc0c546a1461026f5761012c565b80638720de72146101ee5780638da5cb5b146101f6578063960bfe04146101fe578063a9059cbb14610211578063ac77be30146102315761012c565b8063384a5609116100f4578063384a5609146101a35780635f29c369146101b857806363898e2b146101cb578063715018a6146101d35780637408fa14146101db5761012c565b806310fe9ae814610131578063127714c71461014f578063184c62a914610166578063298f811c146101865780632ddbd13a1461019b575b600080fd5b610139610277565b604051610146919061118d565b60405180910390f35b610157610287565b60405161014693929190611413565b610179610174366004611165565b6102b5565b604051610146919061140a565b6101996101943660046110f9565b6102cc565b005b61017961040e565b6101ab610414565b60405161014691906111de565b6101996101c63660046110f9565b610476565b61017961067a565b610199610680565b6101796101e9366004611165565b6106ff565b610179610749565b61013961074f565b61019961020c366004611165565b61075e565b61022461021f36600461111b565b610808565b604051610146919061122b565b6101796109a7565b6101796109ad565b61022461024f3660046110f9565b6109ca565b6101796109df565b61019961026a3660046110f9565b6109e5565b610139610a9c565b6008546001600160a01b03165b90565b600654600754600954600a546000916102ae916102a457426102a8565b600a545b036106ff565b9050909192565b60006102c460095483036106ff565b90505b919050565b3360009081526020819052604090205460ff166103045760405162461bcd60e51b81526004016102fb90611399565b60405180910390fd5b600061030e610aab565b5090508061031c575061040b565b600354600254141561036a5760028054600101908190556040517f46e8115bf463f9c29a9424fe152addef1bfaf2b43180d19bb7c2c78cc0ff1ebf916103619161140a565b60405180910390a15b6001600160a01b038216600081815260208190526040808220805460ff191660019081179091556003805491820181559092527fc2575a0e9e593c00f959f8c92f12db2869c3395a3b0502d05e2516446f71f85b90910180546001600160a01b031916909217909155517f1ead7aae0c0f997bd574bd2e78f654421a1e582f39ed4276dcaeb23c5ab3b0009061040190849061118d565b60405180910390a1505b50565b60065481565b6060600380548060200260200160405190810160405280929190818152602001828054801561046c57602002820191906000526020600020905b81546001600160a01b0316815260019091019060200180831161044e575b5050505050905090565b3360009081526020819052604090205460ff166104a55760405162461bcd60e51b81526004016102fb90611399565b6003546002106104c75760405162461bcd60e51b81526004016102fb90611356565b60006104d1610d5c565b509050806104df575061040b565b600354600254141561052e576002805460001901908190556040517f46e8115bf463f9c29a9424fe152addef1bfaf2b43180d19bb7c2c78cc0ff1ebf916105259161140a565b60405180910390a15b6060600160038054905003604051908082528060200260200182016040528015610562578160200160208202803883390190505b5090506000805b60035481101561060857846001600160a01b03166003828154811061058a57fe5b6000918252602090912001546001600160a01b031614156105aa57610600565b600381815481106105b757fe5b9060005260206000200160009054906101000a90046001600160a01b03168383815181106105e157fe5b6001600160a01b03909216602092830291909101909101526001909101905b600101610569565b506001600160a01b038416600090815260208181526040909120805460ff19169055825161063c9160039190850190611021565b507f1f7245751f91a3735fa2bd56a6ae2b6023b2096be605463fb5519d67d099369c8460405161066c919061118d565b60405180910390a150505050565b60075481565b61068861101d565b6005546001600160a01b039081169116146106b55760405162461bcd60e51b81526004016102fb906112b3565b6005546040516000916001600160a01b0316907f8be0079c531659141344cd1fd0a4f28419497f9722a3daafe3b4186f6b6457e0908390a3600580546001600160a01b0319169055565b60006276a7008213610713575060006102c7565b630784ce006276a6ff1983018181111561072a5750805b60008282600654028161073957fe5b6007549190040395945050505050565b600a5481565b6005546001600160a01b031690565b3360009081526020819052604090205460ff1661078d5760405162461bcd60e51b81526004016102fb90611399565b60018111801561079f57506003548111155b6107bb5760405162461bcd60e51b81526004016102fb906112e8565b60006107c5610aab565b509050806107d3575061040b565b60028290556040517f46e8115bf463f9c29a9424fe152addef1bfaf2b43180d19bb7c2c78cc0ff1ebf9061040190849061140a565b3360009081526020819052604081205460ff166108375760405162461bcd60e51b81526004016102fb90611399565b600080610842610aab565b91509150807f1f67d733bebd99d9f0067b97214f23002303872ef6658ec47e68b5cd2827e4d033878760405161087a939291906111a1565b60405180910390a281610892576000925050506109a1565b600754600654116108b55760405162461bcd60e51b81526004016102fb906113e1565b600084116108d55760405162461bcd60e51b81526004016102fb9061127c565b60006108ed6009546000600a54116102a457426102a8565b90508085111561090f5760405162461bcd60e51b81526004016102fb90611315565b600780548601905560085460405163a9059cbb60e01b81526001600160a01b039091169063a9059cbb9061094990899089906004016111c5565b602060405180830381600087803b15801561096357600080fd5b505af1158015610977573d6000803e3d6000fd5b505050506040513d601f19601f8201168201806040525061099b9190810190611145565b93505050505b92915050565b60095481565b60006109c56009546000600a54116102a457426102a8565b905090565b60006020819052908152604090205460ff1681565b60025490565b6109ed61101d565b6005546001600160a01b03908116911614610a1a5760405162461bcd60e51b81526004016102fb906112b3565b6001600160a01b038116610a405760405162461bcd60e51b81526004016102fb90611236565b6005546040516001600160a01b038084169216907f8be0079c531659141344cd1fd0a4f28419497f9722a3daafe3b4186f6b6457e090600090a3600580546001600160a01b0319166001600160a01b0392909216919091179055565b6008546001600160a01b031681565b600080600080356001600160e01b031916905060008036604051610ad092919061117d565b60408051918290039091206001600160e01b0319841660009081526004602052919091206002015490915015610c82576001600160e01b03198216600090815260046020526040902060010154811415610c005760005b6001600160e01b03198316600090815260046020526040902060030154811015610bbe576001600160e01b031983166000908152600460205260409020600301805433919083908110610b7657fe5b6000918252602090912001546001600160a01b03161415610bb65750506001600160e01b0319166000908152600460205260408120549092509050610d58565b600101610b27565b506001600160e01b0319821660009081526004602090815260408220600301805460018101825590835291200180546001600160a01b03191633179055610c7d565b6001805481018082556001600160e01b031984166000908152600460205260408120918255918101839055426002820155610c4091600390910190611086565b6001600160e01b0319821660009081526004602090815260408220600301805460018101825590835291200180546001600160a01b031916331790555b610cd6565b6001805481018082556001600160e01b03198416600090815260046020908152604082209283558284018590554260028401556003909201805493840181558152200180546001600160a01b031916331790555b6001600160e01b0319821660009081526004602052604090208054600254600390920154909111610d4a576001600160e01b031983166000908152600460205260408120818155600181018290556002810182905590610d396003830182611086565b505060018194509450505050610d58565b600094509250610d58915050565b9091565b6002546003546000918291811415610d7357600019015b600080356001600160e01b031916905060008036604051610d9592919061117d565b60408051918290039091206001600160e01b0319841660009081526004602052919091206002015490915015610f49576001600160e01b03198216600090815260046020526040902060010154811415610ec75760005b6001600160e01b03198316600090815260046020526040902060030154811015610e85576001600160e01b031983166000908152600460205260409020600301805433919083908110610e3b57fe5b6000918252602090912001546001600160a01b03161415610e7d5750506001600160e01b0319166000908152600460205260408120549093509150610d589050565b600101610dec565b506001600160e01b0319821660009081526004602090815260408220600301805460018101825590835291200180546001600160a01b03191633179055610f44565b6001805481018082556001600160e01b031984166000908152600460205260408120918255918101839055426002820155610f0791600390910190611086565b6001600160e01b0319821660009081526004602090815260408220600301805460018101825590835291200180546001600160a01b031916331790555b610f9d565b6001805481018082556001600160e01b03198416600090815260046020908152604082209283558284018590554260028401556003909201805493840181558152200180546001600160a01b031916331790555b6001600160e01b0319821660009081526004602052604090208054600390910154841161100e576001600160e01b031983166000908152600460205260408120818155600181018290556002810182905590610ffc6003830182611086565b50506001819550955050505050610d58565b600095509350610d5892505050565b3390565b828054828255906000526020600020908101928215611076579160200282015b8281111561107657825182546001600160a01b0319166001600160a01b03909116178255602090920191600190910190611041565b506110829291506110a4565b5090565b508054600082559060005260206000209081019061040b91906110c8565b61028491905b808211156110825780546001600160a01b03191681556001016110aa565b61028491905b8082111561108257600081556001016110ce565b80356001600160a01b03811681146109a157600080fd5b60006020828403121561110a578081fd5b61111483836110e2565b9392505050565b6000806040838503121561112d578081fd5b61113784846110e2565b946020939093013593505050565b600060208284031215611156578081fd5b81518015158114611114578182fd5b600060208284031215611176578081fd5b5035919050565b6000828483379101908152919050565b6001600160a01b0391909116815260200190565b6001600160a01b039384168152919092166020820152604081019190915260600190565b6001600160a01b03929092168252602082015260400190565b6020808252825182820181905260009190848201906040850190845b8181101561121f5783516001600160a01b0316835292840192918401916001016111fa565b50909695505050505050565b901515815260200190565b60208082526026908201527f4f776e61626c653a206e6577206f776e657220697320746865207a65726f206160408201526564647265737360d01b606082015260800190565b6020808252601c908201527f416d6f756e74206d75737420626520726174686572207468616e203000000000604082015260600190565b6020808252818101527f4f776e61626c653a2063616c6c6572206973206e6f7420746865206f776e6572604082015260600190565b602080825260139082015272125b98dbdc9c9958dd081d1a1c995cda1bdb19606a1b604082015260600190565b60208082526021908201527f446f6e2774206861766520656e6f75676820756e6c6f636b656420746f6b656e6040820152607360f81b606082015260800190565b60208082526023908201527f4d756c74697369673a20616c7265616479206d696e696d756d2061646472657360408201526273657360e81b606082015260800190565b60208082526028908201527f4d756c74697369673a20596f752063616e6e6f742065786563757465207468696040820152671cc81b595d1a1bd960c21b606082015260800190565b6020808252600f908201526e109d5919d95d081a5cc81cdc195b9d608a1b604082015260600190565b90815260200190565b928352602083019190915260408201526060019056fea2646970667358221220153c7676ebab3a2a3acd6f99d15d07b0ddc705c04d4a24587bc6e01d73520e3764736f6c63430006020033",
  "source": "// SPDX-License-Identifier: GPL-3.0\npragma solidity 0.6.2;\npragma experimental ABIEncoderV2;\n\nimport \"../node_modules/openzeppelin-solidity/contracts/access/Ownable.sol\";\nimport \"./MultisigSingle.sol\";\nimport \"./ICitadelToken.sol\";\n\ncontract CitadelUnlockFoundFund is MultisigSingle, Ownable {\n\n    uint constant PCTDEC = 1e10;\n    uint public total;\n    uint public used;\n    ICitadelToken public token;\n    uint public token_deployed;\n    uint public test_date;\n\n    event TransferVote (uint indexed id, address from, address to, uint amount);\n\n    constructor (\n        uint budget,\n        address _tokenAddress,\n        address[] memory multisig,\n        uint threshold,\n        uint _test_date\n    ) public {\n        require(budget > 0, \"Budget can't be zero\");\n        total = budget;\n        token = ICitadelToken(_tokenAddress);\n        token_deployed = token.deployed();\n        _initMultisigWhitelist(multisig, threshold);\n        test_date = _test_date;\n    }\n\n    function getTokenAddress () external view returns (address) {\n        return address(token);\n    }\n\n    function getBudget () external view \n    returns (uint totalAmount, uint usedAmount, uint pending) {\n        totalAmount = total;\n        usedAmount = used;\n        pending = _calcUnlockAmount(int(test_date > 0 ? test_date : block.timestamp) - int(token_deployed));\n    }\n\n    function calcUnlockTest (uint _testdate) external view returns (uint) {\n        return _calcUnlockAmount(int(_testdate) - int(token_deployed));\n    }\n\n    function calcUnlock () external view returns (uint) {\n        return _calcUnlockAmount(int(test_date > 0 ? test_date : block.timestamp) - int(token_deployed));\n    }\n\n    function transfer (address to, uint amount) external multisig() returns (bool) {\n        (bool isReady, uint id) = _isMultisigReady();\n        emit TransferVote(id, msg.sender, to, amount);\n        if (!isReady) return false;\n        require(total > used, \"Budget is spent\");\n        require(amount > 0, \"Amount must be rather than 0\");\n        uint available = _calcUnlockAmount(int(test_date > 0 ? test_date : block.timestamp) - int(token_deployed));\n        require(amount <= available, \"Don't have enough unlocked tokens\");\n        used += amount;\n        return token.transfer(to, amount);\n    }\n\n    function _calcUnlockAmount (int period) public view returns (uint) {\n        if (period <= 90 days) return 0;\n\n        uint full_period = 365 days * 4;\n        uint act_period = uint(period) - 90 days;\n\n        if (act_period > full_period) act_period = full_period;\n\n        uint sum = total * act_period / full_period;\n\n        return sum - used;\n    }\n\n}",
  "sourcePath": "/home/pirat/Desktop/DAO_update/DAO/contracts/CitadelUnlockFoundFund.sol",
  "compiler": {
    "name": "solc",
    "version": "0.6.2+commit.bacdbe57.Emscripten.clang"
  },
  "schemaVersion": "3.2.5",
  "updatedAt": "2021-08-16T15:52:52.894Z",
  "devdoc": {
    "methods": {
      "owner()": {
        "details": "Returns the address of the current owner."
      },
      "renounceOwnership()": {
        "details": "Leaves the contract without owner. It will not be possible to call `onlyOwner` functions anymore. Can only be called by the current owner.     * NOTE: Renouncing ownership will leave the contract without an owner, thereby removing any functionality that is only available to the owner."
      },
      "transferOwnership(address)": {
        "details": "Transfers ownership of the contract to a new account (`newOwner`). Can only be called by the current owner."
      }
    }
  },
  "userdoc": {
    "methods": {}
  }
}