{
  "contractName": "CitadelRewardsTest",
  "abi": [
    {
      "inputs": [
        {
          "internalType": "address",
          "name": "addressOfToken",
          "type": "address"
        }
      ],
      "stateMutability": "nonpayable",
      "type": "constructor"
    },
    {
      "anonymous": false,
      "inputs": [
        {
          "indexed": false,
          "internalType": "address",
          "name": "recipient",
          "type": "address"
        },
        {
          "indexed": false,
          "internalType": "uint256",
          "name": "amount",
          "type": "uint256"
        }
      ],
      "name": "Claim",
      "type": "event"
    },
    {
      "anonymous": false,
      "inputs": [
        {
          "indexed": true,
          "internalType": "address",
          "name": "previousOwner",
          "type": "address"
        },
        {
          "indexed": true,
          "internalType": "address",
          "name": "newOwner",
          "type": "address"
        }
      ],
      "name": "OwnershipTransferred",
      "type": "event"
    },
    {
      "inputs": [],
      "name": "claim",
      "outputs": [
        {
          "internalType": "uint256",
          "name": "amount",
          "type": "uint256"
        }
      ],
      "stateMutability": "nonpayable",
      "type": "function"
    },
    {
      "inputs": [
        {
          "internalType": "address",
          "name": "account",
          "type": "address"
        }
      ],
      "name": "claimFor",
      "outputs": [
        {
          "internalType": "uint256",
          "name": "amount",
          "type": "uint256"
        }
      ],
      "stateMutability": "nonpayable",
      "type": "function"
    },
    {
      "inputs": [
        {
          "internalType": "address",
          "name": "account",
          "type": "address"
        }
      ],
      "name": "claimable",
      "outputs": [
        {
          "internalType": "uint256",
          "name": "",
          "type": "uint256"
        }
      ],
      "stateMutability": "view",
      "type": "function"
    },
    {
      "inputs": [],
      "name": "getRewardRate",
      "outputs": [
        {
          "internalType": "uint256",
          "name": "",
          "type": "uint256"
        }
      ],
      "stateMutability": "view",
      "type": "function"
    },
    {
      "inputs": [],
      "name": "getRewardsCoef",
      "outputs": [
        {
          "internalType": "uint256",
          "name": "",
          "type": "uint256"
        }
      ],
      "stateMutability": "view",
      "type": "function"
    },
    {
      "inputs": [
        {
          "internalType": "address",
          "name": "account",
          "type": "address"
        }
      ],
      "name": "getUserSnapshot",
      "outputs": [
        {
          "components": [
            {
              "internalType": "uint256",
              "name": "rewardPerToken",
              "type": "uint256"
            },
            {
              "internalType": "uint256",
              "name": "frozen",
              "type": "uint256"
            },
            {
              "internalType": "uint256",
              "name": "vested",
              "type": "uint256"
            },
            {
              "internalType": "uint256",
              "name": "claimed",
              "type": "uint256"
            }
          ],
          "internalType": "struct CitadelRewards.UserSnapshot",
          "name": "",
          "type": "tuple"
        }
      ],
      "stateMutability": "view",
      "type": "function"
    },
    {
      "inputs": [],
      "name": "get_lastUpdateTime",
      "outputs": [
        {
          "internalType": "uint256",
          "name": "",
          "type": "uint256"
        }
      ],
      "stateMutability": "view",
      "type": "function"
    },
    {
      "inputs": [],
      "name": "owner",
      "outputs": [
        {
          "internalType": "address",
          "name": "",
          "type": "address"
        }
      ],
      "stateMutability": "view",
      "type": "function"
    },
    {
      "inputs": [],
      "name": "renounceOwnership",
      "outputs": [],
      "stateMutability": "nonpayable",
      "type": "function"
    },
    {
      "inputs": [
        {
          "internalType": "uint256",
          "name": "time",
          "type": "uint256"
        }
      ],
      "name": "rewardPerToken",
      "outputs": [
        {
          "internalType": "uint256",
          "name": "",
          "type": "uint256"
        }
      ],
      "stateMutability": "view",
      "type": "function"
    },
    {
      "inputs": [
        {
          "internalType": "address",
          "name": "account",
          "type": "address"
        }
      ],
      "name": "totalClaimedOf",
      "outputs": [
        {
          "internalType": "uint256",
          "name": "",
          "type": "uint256"
        }
      ],
      "stateMutability": "view",
      "type": "function"
    },
    {
      "inputs": [
        {
          "internalType": "address",
          "name": "account",
          "type": "address"
        }
      ],
      "name": "totalVestedOf",
      "outputs": [
        {
          "internalType": "uint256",
          "name": "",
          "type": "uint256"
        }
      ],
      "stateMutability": "view",
      "type": "function"
    },
    {
      "inputs": [
        {
          "internalType": "address",
          "name": "newOwner",
          "type": "address"
        }
      ],
      "name": "transferOwnership",
      "outputs": [],
      "stateMutability": "nonpayable",
      "type": "function"
    },
    {
      "inputs": [
        {
          "internalType": "address",
          "name": "account",
          "type": "address"
        }
      ],
      "name": "updateSnapshot",
      "outputs": [],
      "stateMutability": "nonpayable",
      "type": "function"
    },
    {
      "inputs": [],
      "name": "version",
      "outputs": [
        {
          "internalType": "uint256",
          "name": "",
          "type": "uint256"
        }
      ],
      "stateMutability": "pure",
      "type": "function"
    },
    {
      "inputs": [
        {
          "internalType": "uint256",
          "name": "date",
          "type": "uint256"
        }
      ],
      "name": "setTimestamp",
      "outputs": [],
      "stateMutability": "nonpayable",
      "type": "function"
    }
  ],
  "bytecode": "0x60806040523480156200001157600080fd5b50604051620017e4380380620017e483398101604081905262000034916200013f565b8060006200004a6001600160e01b036200013b16565b600080546001600160a01b0319166001600160a01b0383169081178255604051929350917f8be0079c531659141344cd1fd0a4f28419497f9722a3daafe3b4186f6b6457e0908290a350600180546001600160a01b0319166001600160a01b038381169190911791829055604080516326079c6160e11b815290519290911691634c0f38c291600480820192602092909190829003018186803b158015620000f157600080fd5b505afa15801562000106573d6000803e3d6000fd5b505050506040513d601f19601f820116820180604052506200012c91908101906200016f565b60025550504260095562000188565b3390565b60006020828403121562000151578081fd5b81516001600160a01b038116811462000168578182fd5b9392505050565b60006020828403121562000181578081fd5b5051919050565b61164c80620001986000396000f3fe608060405234801561001057600080fd5b50600436106101005760003560e01c80638da5cb5b11610097578063d6d789b711610066578063d6d789b7146101d9578063ddeae033146101ec578063f2fde38b146101ff578063f794ebb91461021257610100565b80638da5cb5b1461017e578063913f9d9114610193578063a0a2b573146101a6578063b68d0a09146101b957610100565b8063715018a6116100d3578063715018a6146101535780637244a3eb1461015b5780637e1a378614610163578063874c120b1461016b57610100565b80633d9eba7014610105578063402914f51461011a5780634e71d92d1461014357806354fd4d501461014b575b600080fd5b61011861011336600461137f565b61021a565b005b61012d61012836600461137f565b6103d3565b60405161013a919061160d565b60405180910390f35b61012d610410565b61012d61060a565b610118610610565b61012d61068f565b61012d610695565b61012d610179366004611411565b61069b565b6101866106fc565b60405161013a9190611441565b61012d6101a136600461137f565b61070b565b6101186101b4366004611411565b610716565b6101cc6101c736600461137f565b610750565b60405161013a91906115e2565b61012d6101e736600461137f565b6107a3565b61012d6101fa36600461137f565b6107c2565b61011861020d36600461137f565b6108fc565b61012d6109b2565b6001546001600160a01b0316331461023157600080fd5b8061023a6112f0565b6102426109b8565b90508060a001511561026c5780516007556060810151600655608081015160055560408101516008555b6000610276610fe0565b90506102818161069b565b6007556006819055610294836001610fe6565b6001600160a01b038085166000908152600360209081526040918290206002810194909455600754909355600154815163ca5c7b9160e01b8152915192169263ca5c7b9192600480840193829003018186803b1580156102f357600080fd5b505afa158015610307573d6000803e3d6000fd5b505050506040513d601f19601f8201168201806040525061032b9190810190611429565b6004908155600154604051632c9aab9b60e11b81526001600160a01b039091169163593557369161035e91889101611441565b60206040518083038186803b15801561037657600080fd5b505afa15801561038a573d6000803e3d6000fd5b505050506040513d601f19601f820116820180604052506103ae9190810190611429565b6001600160a01b03909416600090815260036020526040902060010193909355505050565b6001600160a01b038116600090815260036020819052604082200154610408906103fc84611192565b9063ffffffff61119f16565b90505b919050565b60015460408051633492021360e11b815290516000926001600160a01b0316916369240426916004808301928692919082900301818387803b15801561045557600080fd5b505af1158015610469573d6000803e3d6000fd5b50505050336104766112f0565b61047e6109b8565b90508060a00151156104a85780516007556060810151600655608081015160055560408101516008555b60006104b2610fe0565b90506104bd8161069b565b60075560068190556104d0836001610fe6565b6001600160a01b03841660009081526003602081905260408083206002808201959095556007549055338084529220908101549201549091610518919063ffffffff61119f16565b9450600085116105435760405162461bcd60e51b815260040161053a9061153e565b60405180910390fd5b6001600160a01b0381166000908152600360208190526040918290206002810154910155517f47cee97cb7acd717b3c0aa1435d004cd5b3c8c57d70dbceb4e4458bbd60e39d4906105979083908890611455565b60405180910390a160015460405163f3fef3a360e01b81526001600160a01b039091169063f3fef3a3906105d19084908990600401611455565b600060405180830381600087803b1580156105eb57600080fd5b505af11580156105ff573d6000803e3d6000fd5b505050505050505090565b60015b90565b6106186111e8565b6000546001600160a01b039081169116146106455760405162461bcd60e51b815260040161053a906115ad565b600080546040516001600160a01b03909116907f8be0079c531659141344cd1fd0a4f28419497f9722a3daafe3b4186f6b6457e0908390a3600080546001600160a01b0319169055565b60075490565b60085490565b6000600454600014156106b1575060075461040b565b6104086007546106f06004546106e46106d56006548861119f90919063ffffffff16565b6008549063ffffffff6111ec16565b9063ffffffff61122616565b9063ffffffff61126816565b6000546001600160a01b031690565b600061040882611192565b61071e6111e8565b6000546001600160a01b0390811691161461074b5760405162461bcd60e51b815260040161053a906115ad565b600955565b610758611328565b506001600160a01b0316600090815260036020818152604092839020835160808101855281548152600182015492810192909252600281015493820193909352910154606082015290565b6001600160a01b03166000908152600360208190526040909120015490565b6001546000906001600160a01b031633146107dc57600080fd5b816107e56112f0565b6107ed6109b8565b90508060a00151156108175780516007556060810151600655608081015160055560408101516008555b6000610821610fe0565b905061082c8161069b565b600755600681905561083f836001610fe6565b6001600160a01b0380851660009081526003602081905260408083206002808201969096556007549055928916825291902090810154910154039350836108985760405162461bcd60e51b815260040161053a9061153e565b6001600160a01b0385166000908152600360208190526040918290206002810154910155517f47cee97cb7acd717b3c0aa1435d004cd5b3c8c57d70dbceb4e4458bbd60e39d4906108ec9087908790611455565b60405180910390a1505050919050565b6109046111e8565b6000546001600160a01b039081169116146109315760405162461bcd60e51b815260040161053a906115ad565b6001600160a01b0381166109575760405162461bcd60e51b815260040161053a906114c1565b600080546040516001600160a01b03808516939216917f8be0079c531659141344cd1fd0a4f28419497f9722a3daafe3b4186f6b6457e091a3600080546001600160a01b0319166001600160a01b0392909216919091179055565b60065490565b6109c06112f0565b60006005541180156109d25750600854155b156109dc5761060d565b6005546080820152600154604080516325a2d50960e11b815290516000926001600160a01b031691634b45aa12916004808301926020929190829003018186803b158015610a2957600080fd5b505afa158015610a3d573d6000803e3d6000fd5b505050506040513d601f19601f82011682018060405250610a619190810190611429565b90506000610a6d610fe0565b90506000600160009054906101000a90046001600160a01b03166001600160a01b0316631d0a67e16040518163ffffffff1660e01b815260040160206040518083038186803b158015610abf57600080fd5b505afa158015610ad3573d6000803e3d6000fd5b505050506040513d601f19601f82011682018060405250610af79190810190611429565b905060008460800151841115610ced57610b0f611350565b6007548652600654606087015260085460408701525b8486608001511015610ce4576001546080870151604051631e28e97b60e31b81526001600160a01b039092169163f1474bd891610b649160040161160d565b60a06040518083038186803b158015610b7c57600080fd5b505afa158015610b90573d6000803e3d6000fd5b505050506040513d601f19601f82011682018060405250610bb491908101906113a6565b90508381608001511115610bcd575061060d9350505050565b60008660400151118015610be5575060008660600151115b8015610bf357506000600454115b15610c3857610c3586600001516106f06004546106e4610c248b60600151876080015161119f90919063ffffffff16565b60408c01519063ffffffff6111ec16565b86525b805160c81115610c7b57610c7460646106e48360200151610c68856060015160025461119f90919063ffffffff16565b9063ffffffff6111ec16565b9150610ca6565b602081015181516060830151610ca392620f4240926106e492610c689163ffffffff6111ec16565b91505b610cc66301e133806106e484670de0b6b3a764000063ffffffff6111ec16565b60408701526080808201516060880152860180516001019052610b25565b50600160a08601525b60045415610fd9576000610d0b836301e1338063ffffffff61126816565b905083811015610fd7578560a00151610d3b57600160a08701526007548652600654606087015260085460408701525b610d43611350565b6001546080880151604051631e28e97b60e31b81526001600160a01b039092169163f1474bd891610d7d916000199091019060040161160d565b60a06040518083038186803b158015610d9557600080fd5b505afa158015610da9573d6000803e3d6000fd5b505050506040513d601f19601f82011682018060405250610dcd91908101906113a6565b9050610e1581604001516106f06127106106e46301e133806106e4610dff88608001518a61119f90919063ffffffff16565b885160608a0151610c689163ffffffff6111ec16565b606080830191909152870151600090610e3590849063ffffffff61119f16565b90505b85831015610fbb57875160045460408a0151610e6392916106f0916106e4908663ffffffff6111ec16565b88526301e13380811015610e7857506301e133805b815160c81015610eaa578151610e9590603263ffffffff61119f16565b80835260c81115610ea55760c882525b610eec565b815160c81415610eec576060820151600254600091610edb916106e49061271090610c68908463ffffffff61119f16565b905060c8811015610eea578083525b505b602082015182516060840151610f1492620f4240926106e492610c689163ffffffff6111ec16565b9350600254610f3085846060015161126890919063ffffffff16565b10610f4f576060820151600254610f4c9163ffffffff61119f16565b93505b6060820151610f64908563ffffffff61126816565b6060830152610f896301e133806106e486670de0b6b3a764000063ffffffff6111ec16565b6040890152610fa2836301e1338063ffffffff61126816565b925060c882600001511015610fb657610fbb565b610e38565b610fcf836301e1338063ffffffff61119f16565b606089015250505b505b5050505090565b60095490565b6001600160a01b03821660009081526003602052604081206001015461102857506001600160a01b03821660009081526003602052604090206002015461118c565b6000611032610fe0565b90508261111d576110416112f0565b6110496109b8565b90508060a001511561111b57600080600454116110675781516110a0565b6110a082600001516106f06004546106e461108f87606001518961119f90919063ffffffff16565b60408801519063ffffffff6111ec16565b6001600160a01b038716600090815260036020526040902060028101549054919250611111916106f090670de0b6b3a7640000906106e4906110e990879063ffffffff61119f16565b6001600160a01b038c166000908152600360205260409020600101549063ffffffff6111ec16565b935050505061118c565b505b6001600160a01b03841660009081526003602052604090206002810154905461118891906106f090670de0b6b3a7640000906106e490611160906103fc8861069b565b6001600160a01b038a166000908152600360205260409020600101549063ffffffff6111ec16565b9150505b92915050565b6000610408826000610fe6565b60006111e183836040518060400160405280601e81526020017f536166654d6174683a207375627472616374696f6e206f766572666c6f77000081525061128d565b9392505050565b3390565b6000826111fb5750600061118c565b8282028284828161120857fe5b04146111e15760405162461bcd60e51b815260040161053a9061156c565b60006111e183836040518060400160405280601a81526020017f536166654d6174683a206469766973696f6e206279207a65726f0000000000008152506112b9565b6000828201838110156111e15760405162461bcd60e51b815260040161053a90611507565b600081848411156112b15760405162461bcd60e51b815260040161053a919061146e565b505050900390565b600081836112da5760405162461bcd60e51b815260040161053a919061146e565b5060008385816112e657fe5b0495945050505050565b6040518060c0016040528060008152602001600081526020016000815260200160008152602001600081526020016000151581525090565b6040518060800160405280600081526020016000815260200160008152602001600081525090565b6040518060a0016040528060008152602001600081526020016000815260200160008152602001600081525090565b600060208284031215611390578081fd5b81356001600160a01b03811681146111e1578182fd5b600060a082840312156113b7578081fd5b60405160a0810181811067ffffffffffffffff821117156113d6578283fd5b806040525082518152602083015160208201526040830151604082015260608301516060820152608083015160808201528091505092915050565b600060208284031215611422578081fd5b5035919050565b60006020828403121561143a578081fd5b5051919050565b6001600160a01b0391909116815260200190565b6001600160a01b03929092168252602082015260400190565b6000602080835283518082850152825b8181101561149a5785810183015185820160400152820161147e565b818111156114ab5783604083870101525b50601f01601f1916929092016040019392505050565b60208082526026908201527f4f776e61626c653a206e6577206f776e657220697320746865207a65726f206160408201526564647265737360d01b606082015260800190565b6020808252601b908201527f536166654d6174683a206164646974696f6e206f766572666c6f770000000000604082015260600190565b6020808252601490820152735a65726f20616d6f756e7420746f20636c61696d60601b604082015260600190565b60208082526021908201527f536166654d6174683a206d756c7469706c69636174696f6e206f766572666c6f6040820152607760f81b606082015260800190565b6020808252818101527f4f776e61626c653a2063616c6c6572206973206e6f7420746865206f776e6572604082015260600190565b8151815260208083015190820152604080830151908201526060918201519181019190915260800190565b9081526020019056fea2646970667358221220edddb66ff996949e458e1350e9812ae7e08f0ab43164fe2765db5e2b5a73f50464736f6c63430006020033",
  "source": "// SPDX-License-Identifier: GPL-3.0\npragma solidity 0.6.2;\npragma experimental ABIEncoderV2;\n\nimport \"./CitadelRewards.sol\";\n\n\ncontract CitadelRewardsTest is CitadelRewards {\n\n    uint private _fakeTime;\n\n    constructor (\n        address addressOfToken\n    )\n    CitadelRewards(\n        addressOfToken\n    )\n    public {\n        _fakeTime = block.timestamp;\n    }\n\n    function setTimestamp(uint date) external onlyOwner {\n        _fakeTime = date;\n    }\n\n    function _timestamp() internal override view returns (uint) {\n        return _fakeTime;\n    }\n}",
  "sourcePath": "/home/pirat/Desktop/DAO_update/DAO/contracts/CitadelRewardsTest.sol",
  "compiler": {
    "name": "solc",
    "version": "0.6.2+commit.bacdbe57.Emscripten.clang"
  },
  "schemaVersion": "3.2.5",
  "updatedAt": "2021-08-16T15:52:52.872Z",
  "devdoc": {
    "methods": {
      "owner()": {
        "details": "Returns the address of the current owner."
      },
      "renounceOwnership()": {
        "details": "Leaves the contract without owner. It will not be possible to call `onlyOwner` functions anymore. Can only be called by the current owner.     * NOTE: Renouncing ownership will leave the contract without an owner, thereby removing any functionality that is only available to the owner."
      },
      "transferOwnership(address)": {
        "details": "Transfers ownership of the contract to a new account (`newOwner`). Can only be called by the current owner."
      }
    }
  },
  "userdoc": {
    "methods": {
      "claimFor(address)": {
        "notice": "EXTERNAL WRITE "
      },
      "rewardPerToken(uint256)": {
        "notice": "PUBLIC "
      },
      "version()": {
        "notice": "EXTERNAL READ "
      }
    }
  }
}