{
  "contractName": "Citadel",
  "abi": [
    {
      "inputs": [],
      "stateMutability": "nonpayable",
      "type": "constructor"
    },
    {
      "anonymous": false,
      "inputs": [
        {
          "indexed": true,
          "internalType": "address",
          "name": "owner",
          "type": "address"
        },
        {
          "indexed": true,
          "internalType": "address",
          "name": "spender",
          "type": "address"
        },
        {
          "indexed": false,
          "internalType": "uint256",
          "name": "value",
          "type": "uint256"
        }
      ],
      "name": "Approval",
      "type": "event"
    },
    {
      "anonymous": false,
      "inputs": [
        {
          "indexed": true,
          "internalType": "uint256",
          "name": "issueId",
          "type": "uint256"
        },
        {
          "indexed": false,
          "internalType": "uint256",
          "name": "pct",
          "type": "uint256"
        }
      ],
      "name": "ChangeInflation",
      "type": "event"
    },
    {
      "anonymous": false,
      "inputs": [
        {
          "indexed": true,
          "internalType": "uint256",
          "name": "issueId",
          "type": "uint256"
        },
        {
          "indexed": false,
          "internalType": "uint256",
          "name": "pct",
          "type": "uint256"
        }
      ],
      "name": "ChangeVesting",
      "type": "event"
    },
    {
      "anonymous": false,
      "inputs": [
        {
          "indexed": false,
          "internalType": "uint256",
          "name": "index",
          "type": "uint256"
        }
      ],
      "name": "InflationUpdated",
      "type": "event"
    },
    {
      "anonymous": false,
      "inputs": [
        {
          "indexed": false,
          "internalType": "address",
          "name": "addr",
          "type": "address"
        }
      ],
      "name": "NewDaoTransport",
      "type": "event"
    },
    {
      "anonymous": false,
      "inputs": [
        {
          "indexed": false,
          "internalType": "address",
          "name": "addr",
          "type": "address"
        }
      ],
      "name": "NewVestingTransport",
      "type": "event"
    },
    {
      "anonymous": false,
      "inputs": [
        {
          "indexed": true,
          "internalType": "address",
          "name": "previousOwner",
          "type": "address"
        },
        {
          "indexed": true,
          "internalType": "address",
          "name": "newOwner",
          "type": "address"
        }
      ],
      "name": "OwnershipTransferred",
      "type": "event"
    },
    {
      "anonymous": false,
      "inputs": [
        {
          "indexed": false,
          "internalType": "address",
          "name": "account",
          "type": "address"
        }
      ],
      "name": "Paused",
      "type": "event"
    },
    {
      "anonymous": false,
      "inputs": [
        {
          "indexed": false,
          "internalType": "uint256",
          "name": "date",
          "type": "uint256"
        }
      ],
      "name": "SetInflationStart",
      "type": "event"
    },
    {
      "anonymous": false,
      "inputs": [
        {
          "indexed": true,
          "internalType": "address",
          "name": "from",
          "type": "address"
        },
        {
          "indexed": true,
          "internalType": "address",
          "name": "to",
          "type": "address"
        },
        {
          "indexed": false,
          "internalType": "uint256",
          "name": "value",
          "type": "uint256"
        }
      ],
      "name": "Transfer",
      "type": "event"
    },
    {
      "anonymous": false,
      "inputs": [
        {
          "indexed": false,
          "internalType": "address",
          "name": "account",
          "type": "address"
        }
      ],
      "name": "Unpaused",
      "type": "event"
    },
    {
      "inputs": [
        {
          "internalType": "address",
          "name": "owner",
          "type": "address"
        },
        {
          "internalType": "address",
          "name": "spender",
          "type": "address"
        }
      ],
      "name": "allowance",
      "outputs": [
        {
          "internalType": "uint256",
          "name": "",
          "type": "uint256"
        }
      ],
      "stateMutability": "view",
      "type": "function"
    },
    {
      "inputs": [
        {
          "internalType": "address",
          "name": "spender",
          "type": "address"
        },
        {
          "internalType": "uint256",
          "name": "amount",
          "type": "uint256"
        }
      ],
      "name": "approve",
      "outputs": [
        {
          "internalType": "bool",
          "name": "",
          "type": "bool"
        }
      ],
      "stateMutability": "nonpayable",
      "type": "function"
    },
    {
      "inputs": [
        {
          "internalType": "address",
          "name": "account",
          "type": "address"
        }
      ],
      "name": "balanceOf",
      "outputs": [
        {
          "internalType": "uint256",
          "name": "",
          "type": "uint256"
        }
      ],
      "stateMutability": "view",
      "type": "function"
    },
    {
      "inputs": [
        {
          "internalType": "uint256",
          "name": "amount",
          "type": "uint256"
        }
      ],
      "name": "burn",
      "outputs": [],
      "stateMutability": "nonpayable",
      "type": "function"
    },
    {
      "inputs": [],
      "name": "countInflationPoints",
      "outputs": [
        {
          "internalType": "uint256",
          "name": "",
          "type": "uint256"
        }
      ],
      "stateMutability": "view",
      "type": "function"
    },
    {
      "inputs": [],
      "name": "decimals",
      "outputs": [
        {
          "internalType": "uint8",
          "name": "",
          "type": "uint8"
        }
      ],
      "stateMutability": "view",
      "type": "function"
    },
    {
      "inputs": [
        {
          "internalType": "address",
          "name": "spender",
          "type": "address"
        },
        {
          "internalType": "uint256",
          "name": "subtractedValue",
          "type": "uint256"
        }
      ],
      "name": "decreaseAllowance",
      "outputs": [
        {
          "internalType": "bool",
          "name": "",
          "type": "bool"
        }
      ],
      "stateMutability": "nonpayable",
      "type": "function"
    },
    {
      "inputs": [
        {
          "internalType": "address",
          "name": "from",
          "type": "address"
        },
        {
          "internalType": "uint256",
          "name": "amount",
          "type": "uint256"
        }
      ],
      "name": "delegateToDAO",
      "outputs": [],
      "stateMutability": "nonpayable",
      "type": "function"
    },
    {
      "inputs": [],
      "name": "deployDate",
      "outputs": [
        {
          "internalType": "uint256",
          "name": "",
          "type": "uint256"
        }
      ],
      "stateMutability": "view",
      "type": "function"
    },
    {
      "inputs": [],
      "name": "deployed",
      "outputs": [
        {
          "internalType": "uint256",
          "name": "",
          "type": "uint256"
        }
      ],
      "stateMutability": "view",
      "type": "function"
    },
    {
      "inputs": [],
      "name": "getDaoAddress",
      "outputs": [
        {
          "internalType": "address",
          "name": "",
          "type": "address"
        }
      ],
      "stateMutability": "view",
      "type": "function"
    },
    {
      "inputs": [],
      "name": "getInflationStartDate",
      "outputs": [
        {
          "internalType": "uint256",
          "name": "",
          "type": "uint256"
        }
      ],
      "stateMutability": "view",
      "type": "function"
    },
    {
      "inputs": [],
      "name": "getMaxSupply",
      "outputs": [
        {
          "internalType": "uint256",
          "name": "",
          "type": "uint256"
        }
      ],
      "stateMutability": "view",
      "type": "function"
    },
    {
      "inputs": [],
      "name": "getSavedInflationYear",
      "outputs": [
        {
          "internalType": "uint256",
          "name": "",
          "type": "uint256"
        }
      ],
      "stateMutability": "view",
      "type": "function"
    },
    {
      "inputs": [],
      "name": "getVestingAddress",
      "outputs": [
        {
          "internalType": "address",
          "name": "",
          "type": "address"
        }
      ],
      "stateMutability": "view",
      "type": "function"
    },
    {
      "inputs": [
        {
          "internalType": "address",
          "name": "spender",
          "type": "address"
        },
        {
          "internalType": "uint256",
          "name": "addedValue",
          "type": "uint256"
        }
      ],
      "name": "increaseAllowance",
      "outputs": [
        {
          "internalType": "bool",
          "name": "",
          "type": "bool"
        }
      ],
      "stateMutability": "nonpayable",
      "type": "function"
    },
    {
      "inputs": [
        {
          "internalType": "uint256",
          "name": "index",
          "type": "uint256"
        }
      ],
      "name": "inflationPoint",
      "outputs": [
        {
          "components": [
            {
              "internalType": "uint256",
              "name": "inflationPct",
              "type": "uint256"
            },
            {
              "internalType": "uint256",
              "name": "stakingPct",
              "type": "uint256"
            },
            {
              "internalType": "uint256",
              "name": "currentSupply",
              "type": "uint256"
            },
            {
              "internalType": "uint256",
              "name": "yearlySupply",
              "type": "uint256"
            },
            {
              "internalType": "uint256",
              "name": "date",
              "type": "uint256"
            }
          ],
          "internalType": "struct CitadelInflation.InflationValues",
          "name": "",
          "type": "tuple"
        }
      ],
      "stateMutability": "view",
      "type": "function"
    },
    {
      "inputs": [
        {
          "internalType": "address",
          "name": "daoAddress",
          "type": "address"
        }
      ],
      "name": "initDaoTransport",
      "outputs": [],
      "stateMutability": "nonpayable",
      "type": "function"
    },
    {
      "inputs": [
        {
          "internalType": "address",
          "name": "vestAddress",
          "type": "address"
        }
      ],
      "name": "initVestingTransport",
      "outputs": [],
      "stateMutability": "nonpayable",
      "type": "function"
    },
    {
      "inputs": [
        {
          "internalType": "address",
          "name": "addr",
          "type": "address"
        },
        {
          "internalType": "uint256",
          "name": "index",
          "type": "uint256"
        }
      ],
      "name": "lockHistory",
      "outputs": [
        {
          "internalType": "uint256",
          "name": "value",
          "type": "uint256"
        },
        {
          "internalType": "uint256",
          "name": "date",
          "type": "uint256"
        }
      ],
      "stateMutability": "view",
      "type": "function"
    },
    {
      "inputs": [
        {
          "internalType": "address",
          "name": "addr",
          "type": "address"
        }
      ],
      "name": "lockHistoryCount",
      "outputs": [
        {
          "internalType": "uint256",
          "name": "",
          "type": "uint256"
        }
      ],
      "stateMutability": "view",
      "type": "function"
    },
    {
      "inputs": [
        {
          "internalType": "address",
          "name": "account",
          "type": "address"
        }
      ],
      "name": "lockedBalanceOf",
      "outputs": [
        {
          "internalType": "uint256",
          "name": "",
          "type": "uint256"
        }
      ],
      "stateMutability": "view",
      "type": "function"
    },
    {
      "inputs": [
        {
          "internalType": "address",
          "name": "",
          "type": "address"
        }
      ],
      "name": "lockedCoins",
      "outputs": [
        {
          "internalType": "uint256",
          "name": "",
          "type": "uint256"
        }
      ],
      "stateMutability": "view",
      "type": "function"
    },
    {
      "inputs": [],
      "name": "lockedSupply",
      "outputs": [
        {
          "internalType": "uint256",
          "name": "",
          "type": "uint256"
        }
      ],
      "stateMutability": "view",
      "type": "function"
    },
    {
      "inputs": [],
      "name": "name",
      "outputs": [
        {
          "internalType": "string",
          "name": "",
          "type": "string"
        }
      ],
      "stateMutability": "view",
      "type": "function"
    },
    {
      "inputs": [],
      "name": "owner",
      "outputs": [
        {
          "internalType": "address",
          "name": "",
          "type": "address"
        }
      ],
      "stateMutability": "view",
      "type": "function"
    },
    {
      "inputs": [],
      "name": "paused",
      "outputs": [
        {
          "internalType": "bool",
          "name": "",
          "type": "bool"
        }
      ],
      "stateMutability": "view",
      "type": "function"
    },
    {
      "inputs": [
        {
          "internalType": "address",
          "name": "to",
          "type": "address"
        },
        {
          "internalType": "uint256",
          "name": "amount",
          "type": "uint256"
        }
      ],
      "name": "redeemFromDAO",
      "outputs": [],
      "stateMutability": "nonpayable",
      "type": "function"
    },
    {
      "inputs": [],
      "name": "renounceOwnership",
      "outputs": [],
      "stateMutability": "nonpayable",
      "type": "function"
    },
    {
      "inputs": [],
      "name": "restake",
      "outputs": [],
      "stateMutability": "nonpayable",
      "type": "function"
    },
    {
      "inputs": [
        {
          "internalType": "uint256",
          "name": "amount",
          "type": "uint256"
        }
      ],
      "name": "stake",
      "outputs": [],
      "stateMutability": "nonpayable",
      "type": "function"
    },
    {
      "inputs": [],
      "name": "startInflation",
      "outputs": [],
      "stateMutability": "nonpayable",
      "type": "function"
    },
    {
      "inputs": [
        {
          "internalType": "uint256",
          "name": "date",
          "type": "uint256"
        }
      ],
      "name": "startInflationTo",
      "outputs": [],
      "stateMutability": "nonpayable",
      "type": "function"
    },
    {
      "inputs": [],
      "name": "symbol",
      "outputs": [
        {
          "internalType": "string",
          "name": "",
          "type": "string"
        }
      ],
      "stateMutability": "view",
      "type": "function"
    },
    {
      "inputs": [],
      "name": "totalSupply",
      "outputs": [
        {
          "internalType": "uint256",
          "name": "",
          "type": "uint256"
        }
      ],
      "stateMutability": "view",
      "type": "function"
    },
    {
      "inputs": [
        {
          "internalType": "uint256",
          "name": "index",
          "type": "uint256"
        }
      ],
      "name": "totalSupplyHistory",
      "outputs": [
        {
          "internalType": "uint256",
          "name": "value",
          "type": "uint256"
        },
        {
          "internalType": "uint256",
          "name": "date",
          "type": "uint256"
        }
      ],
      "stateMutability": "view",
      "type": "function"
    },
    {
      "inputs": [],
      "name": "totalSupplyHistoryCount",
      "outputs": [
        {
          "internalType": "uint256",
          "name": "",
          "type": "uint256"
        }
      ],
      "stateMutability": "view",
      "type": "function"
    },
    {
      "inputs": [
        {
          "internalType": "address",
          "name": "recipient",
          "type": "address"
        },
        {
          "internalType": "uint256",
          "name": "amount",
          "type": "uint256"
        }
      ],
      "name": "transfer",
      "outputs": [
        {
          "internalType": "bool",
          "name": "",
          "type": "bool"
        }
      ],
      "stateMutability": "nonpayable",
      "type": "function"
    },
    {
      "inputs": [
        {
          "internalType": "address",
          "name": "sender",
          "type": "address"
        },
        {
          "internalType": "address",
          "name": "recipient",
          "type": "address"
        },
        {
          "internalType": "uint256",
          "name": "amount",
          "type": "uint256"
        }
      ],
      "name": "transferFrom",
      "outputs": [
        {
          "internalType": "bool",
          "name": "",
          "type": "bool"
        }
      ],
      "stateMutability": "nonpayable",
      "type": "function"
    },
    {
      "inputs": [
        {
          "internalType": "address",
          "name": "newOwner",
          "type": "address"
        }
      ],
      "name": "transferOwnership",
      "outputs": [],
      "stateMutability": "nonpayable",
      "type": "function"
    },
    {
      "inputs": [
        {
          "internalType": "uint256",
          "name": "amount",
          "type": "uint256"
        }
      ],
      "name": "unstake",
      "outputs": [],
      "stateMutability": "nonpayable",
      "type": "function"
    },
    {
      "inputs": [
        {
          "internalType": "uint256",
          "name": "issueId",
          "type": "uint256"
        },
        {
          "internalType": "uint256",
          "name": "pct",
          "type": "uint256"
        }
      ],
      "name": "updateInflation",
      "outputs": [],
      "stateMutability": "nonpayable",
      "type": "function"
    },
    {
      "inputs": [],
      "name": "updateSnapshot",
      "outputs": [],
      "stateMutability": "nonpayable",
      "type": "function"
    },
    {
      "inputs": [
        {
          "internalType": "uint256",
          "name": "issueId",
          "type": "uint256"
        },
        {
          "internalType": "uint256",
          "name": "pct",
          "type": "uint256"
        }
      ],
      "name": "updateVesting",
      "outputs": [],
      "stateMutability": "nonpayable",
      "type": "function"
    },
    {
      "inputs": [
        {
          "internalType": "address",
          "name": "to",
          "type": "address"
        },
        {
          "internalType": "uint256",
          "name": "amount",
          "type": "uint256"
        }
      ],
      "name": "withdraw",
      "outputs": [],
      "stateMutability": "nonpayable",
      "type": "function"
    },
    {
      "inputs": [
        {
          "internalType": "address",
          "name": "to",
          "type": "address"
        },
        {
          "internalType": "uint256",
          "name": "amount",
          "type": "uint256"
        }
      ],
      "name": "delegateTokens",
      "outputs": [],
      "stateMutability": "nonpayable",
      "type": "function"
    }
  ],
  "bytecode": "0x60806040523480156200001157600080fd5b506040518060400160405280600b81526020016a4369746164656c2e6f6e6560a81b815250604051806040016040528060038152602001621610d560ea1b81525081600390805190602001906200006a92919062000515565b5080516200008090600490602084019062000515565b50506005805460ff19166012179055506000620000a56001600160e01b03620001c816565b60058054610100600160a81b0319166101006001600160a01b03841690810291909117909155604051919250906000907f8be0079c531659141344cd1fd0a4f28419497f9722a3daafe3b4186f6b6457e0908290a3506005805460ff60a81b1916905542600690815562000122906001600160e01b03620001cd16565b600062000145620f4240631dcd6500620001e360201b6200287c1790919060201c565b90506200015d6001826001600160e01b036200023516565b62000177818061032060286001600160e01b036200032116565b6200018c60026001600160e01b036200042216565b620001c130620001b2620f4240631dcd6500620001e360201b6200287c1790919060201c565b6001600160e01b036200023516565b50620006f0565b335b90565b6005805460ff191660ff92909216919091179055565b600082620001f4575060006200022f565b828202828482816200020257fe5b04146200022c5760405162461bcd60e51b81526004016200022390620005ee565b60405180910390fd5b90505b92915050565b6001600160a01b0382166200025e5760405162461bcd60e51b8152600401620002239062000666565b62000275600083836001600160e01b036200046516565b6200029181600254620004d960201b62001c601790919060201c565b6002556001600160a01b03821660009081526020818152604090912054620002c491839062001c60620004d9821b17901c565b6001600160a01b0383166000818152602081905260408082209390935591519091907fddf252ad1be2c89b69c2b068fc378daa952ba7f163c4a11628f55a4df523b3ef9062000315908590620006e7565b60405180910390a35050565b600a5460ff16156200033257600080fd5b600a805460ff19166001179055838301600b55600c849055600e8490556040805160a0810182528381526020810183905290810185905260608101859052600f90608081016200038a6001600160e01b036200050116565b9052815460018181018455600093845260209384902083516005909302019182559282015192810192909255604080820151600284015560608201516003840155608090910151600490920191909155600f5490517fedc524a2d3f6ca20c1a24894433e36a31d7a2e9c37b78d9ab1c758bf83072d049162000414916000199190910190620006e7565b60405180910390a150505050565b60115460ff16156200043357600080fd5b601180546001600160a01b0390921661010002610100600160a81b031960ff1990931660011792909216919091179055565b6200047d838383620004d460201b620020a81760201c565b6103e83311620004a15760405162461bcd60e51b815260040162000223906200062f565b620004b46001600160e01b036200050516565b15620004d45760405162461bcd60e51b815260040162000223906200069d565b505050565b6000828201838110156200022c5760405162461bcd60e51b81526004016200022390620005b7565b4290565b600554600160a81b900460ff1690565b828054600181600116156101000203166002900490600052602060002090601f016020900481019282601f106200055857805160ff191683800117855562000588565b8280016001018555821562000588579182015b82811115620005885782518255916020019190600101906200056b565b50620005969291506200059a565b5090565b620001ca91905b80821115620005965760008155600101620005a1565b6020808252601b908201527f536166654d6174683a206164646974696f6e206f766572666c6f770000000000604082015260600190565b60208082526021908201527f536166654d6174683a206d756c7469706c69636174696f6e206f766572666c6f6040820152607760f81b606082015260800190565b60208082526019908201527f4369746164656c546f6b656e3a2066616b652073656e64657200000000000000604082015260600190565b6020808252601f908201527f45524332303a206d696e7420746f20746865207a65726f206164647265737300604082015260600190565b6020808252602a908201527f45524332305061757361626c653a20746f6b656e207472616e736665722077686040820152691a5b19481c185d5cd95960b21b606082015260800190565b90815260200190565b6129bb80620007006000396000f3fe608060405234801561001057600080fd5b506004361061028a5760003560e01c806369668fe91161015c578063bf17282a116100ce578063f1474bd811610087578063f1474bd814610526578063f2fde38b14610546578063f3fef3a314610559578063f905c15a1461056c578063f9b7ce0214610574578063ff1764a41461057c5761028a565b8063bf17282a146104bf578063c108a402146104d2578063c2ad5b74146104e5578063c686781d146104f8578063ca5c7b911461050b578063dd62ed3e146105135761028a565b80638da5cb5b116101205780638da5cb5b1461046357806395d89b411461046b578063a457c2d714610473578063a694fc3a14610486578063a9059cbb14610499578063ac3cd7c6146104ac5761028a565b806369668fe91461041a57806370a0823114610422578063715018a6146104355780637fa7faf81461043d57806389bb6081146104505761028a565b806344263fcb116102005780634f91440d116101b95780634f91440d146103d457806355b28b37146103dc57806359355736146103e45780635c975abb146103f75780636641d9a0146103ff57806369240426146104125761028a565b806344263fcb1461037557806344c40464146103885780634ab68e141461039b5780634b45aa12146103a35780634c0f38c2146103ab5780634cf54195146103b35761028a565b806323b872dd1161025257806323b872dd146102ff5780632e17de7814610312578063313ce56714610327578063395093511461033c5780633ba71a151461034f57806342966c68146103625761028a565b806306fdde031461028f578063095ea7b3146102ad57806318160ddd146102cd5780631d0a67e1146102e25780631d68702d146102ea575b600080fd5b610297610584565b6040516102a49190612239565b60405180910390f35b6102c06102bb36600461219f565b61061a565b6040516102a4919061222e565b6102d5610638565b6040516102a49190612842565b6102d561063e565b6102f2610644565b6040516102a4919061221a565b6102c061030d36600461215f565b610653565b6103256103203660046121c9565b6106e0565b005b61032f61083a565b6040516102a49190612859565b6102c061034a36600461219f565b610843565b61032561035d36600461219f565b610897565b6103256103703660046121c9565b6108be565b610325610383366004612110565b610911565b61032561039636600461219f565b6109a1565b6102d56109c4565b6102d56109ca565b6102d56109d0565b6103c66103c136600461219f565b6109d6565b6040516102a492919061284b565b610325610a92565b6102d5610bc9565b6102d56103f2366004612110565b610bcf565b6102c0610bea565b6103c661040d3660046121c9565b610bfa565b610325610c67565b6102d5610c9d565b6102d5610430366004612110565b610ca3565b610325610cbe565b61032561044b366004612110565b610d48565b6102d561045e366004612110565b610dcd565b6102f2610de8565b610297610dfc565b6102c061048136600461219f565b610e5d565b6103256104943660046121c9565b610ecb565b6102c06104a736600461219f565b610f27565b6103256104ba3660046121f9565b610f3b565b6102d56104cd366004612110565b61106b565b6103256104e03660046121f9565b61107d565b6103256104f336600461219f565b6111a0565b6103256105063660046121c9565b6111e5565b6102d56112d8565b6102d561052136600461212b565b6112e7565b6105396105343660046121c9565b611312565b6040516102a49190612808565b610325610554366004612110565b61139a565b61032561056736600461219f565b611461565b6102d56114a1565b6103256114a7565b6102f2611570565b60038054604080516020601f60026000196101006001881615020190951694909404938401819004810282018101909252828152606093909290918301828280156106105780601f106105e557610100808354040283529160200191610610565b820191906000526020600020905b8154815290600101906020018083116105f357829003601f168201915b5050505050905090565b600061062e61062761157f565b8484611583565b5060015b92915050565b60025490565b600d5490565b6008546001600160a01b031690565b6000610660848484611637565b6106d68461066c61157f565b6106d185604051806060016040528060288152602001612939602891396001600160a01b038a166000908152600160205260408120906106aa61157f565b6001600160a01b03168152602081019190915260400160002054919063ffffffff61175816565b611583565b5060019392505050565b60006009541180156106fb57506106f5611784565b60095411155b6107205760405162461bcd60e51b81526004016107179061255b565b60405180910390fd5b3360009081526010602052604090205481111561073c57600080fd5b610744611788565b6011546107609061010090046001600160a01b03163383611637565b33600090815260106020526040902054610780908263ffffffff611b1116565b3360009081526010602052604090819020919091558051808201909152601290806107a9611b5a565b81526020016107b6611784565b905281546001818101845560009384526020808520845160029094020192835592830151910155338252601381526040808320815180830183526010845291909320548152908101610806611784565b9052815460018181018455600093845260209384902083516002909302019182559290910151910155610837611b77565b50565b60055460ff1690565b600061062e61085061157f565b846106d1856001600061086161157f565b6001600160a01b03908116825260208083019390935260409182016000908120918c16815292529020549063ffffffff611c6016565b6008546001600160a01b031633146108ae57600080fd5b6108ba600a8383611637565b5050565b6103e833116108df5760405162461bcd60e51b8152600401610717906125c7565b806108e933610ca3565b10156109075760405162461bcd60e51b81526004016107179061238f565b6108373382611c85565b61091961157f565b60055461010090046001600160a01b0390811691161461094b5760405162461bcd60e51b815260040161071790612592565b600880546001600160a01b0319166001600160a01b0383161790556040517f9e006baa245780a8a3d4098c11dd27a97c8d0c2e25b998fa057c6ab8eb0791919061099690839061221a565b60405180910390a150565b6008546001600160a01b031633146109b857600080fd5b6108ba82600a83611637565b60125490565b600f5490565b600b5490565b6001600160a01b03821660009081526013602052604081205481908310610a0f5760405162461bcd60e51b8152600401610717906124d2565b6001600160a01b0384166000908152601360205260409020805484908110610a3357fe5b906000526020600020906002020160000154915060136000856001600160a01b03166001600160a01b031681526020019081526020016000208381548110610a7757fe5b90600052602060002090600202016001015490509250929050565b6000600954118015610aad5750610aa7611784565b60095411155b610ac95760405162461bcd60e51b81526004016107179061255b565b6007546001600160a01b0316610af15760405162461bcd60e51b81526004016107179061228c565b60075460405163ddeae03360e01b81526000916001600160a01b03169063ddeae03390610b2290339060040161221a565b602060405180830381600087803b158015610b3c57600080fd5b505af1158015610b50573d6000803e3d6000fd5b505050506040513d601f19601f82011682018060405250610b7491908101906121e1565b905060008111610b8357600080fd5b610b8b611788565b601154610ba99060019061010090046001600160a01b031683611637565b33600090815260106020526040902054610780908263ffffffff611c6016565b60095490565b6001600160a01b031660009081526010602052604090205490565b600554600160a81b900460ff1690565b60125460009081908310610c205760405162461bcd60e51b8152600401610717906124d2565b60128381548110610c2d57fe5b906000526020600020906002020160000154915060128381548110610c4e57fe5b9060005260206000209060020201600101549050915091565b6007546001600160a01b0316331480610c8a57506008546001600160a01b031633145b610c9357600080fd5b610c9b611788565b565b60065481565b6001600160a01b031660009081526020819052604090205490565b610cc661157f565b60055461010090046001600160a01b03908116911614610cf85760405162461bcd60e51b815260040161071790612592565b60055460405160009161010090046001600160a01b0316907f8be0079c531659141344cd1fd0a4f28419497f9722a3daafe3b4186f6b6457e0908390a360058054610100600160a81b0319169055565b610d5061157f565b60055461010090046001600160a01b03908116911614610d825760405162461bcd60e51b815260040161071790612592565b600780546001600160a01b0319166001600160a01b0383161790556040517f68e937a920bca55a7c599d782170d8606e7d5fe31c1c9cdc4c1fd7c74ca1de1c9061099690839061221a565b6001600160a01b031660009081526013602052604090205490565b60055461010090046001600160a01b031690565b60048054604080516020601f60026000196101006001881615020190951694909404938401819004810282018101909252828152606093909290918301828280156106105780601f106105e557610100808354040283529160200191610610565b600061062e610e6a61157f565b846106d1856040518060600160405280602581526020016129616025913960016000610e9461157f565b6001600160a01b03908116825260208083019390935260409182016000908120918d1681529252902054919063ffffffff61175816565b6000600954118015610ee65750610ee0611784565b60095411155b610f025760405162461bcd60e51b81526004016107179061255b565b610f0a611788565b601154610ba990339061010090046001600160a01b031683611637565b600061062e610f3461157f565b8484611637565b6008546001600160a01b03163314610f5257600080fd5b600a8110158015610f645750605a8111155b610f805760405162461bcd60e51b81526004016107179061272c565b610f886120ca565b600f80546000198101908110610f9a57fe5b90600052602060002090600502016040518060a001604052908160008201548152602001600182015481526020016002820154815260200160038201548152602001600482015481525050905060008160800151610ff6611784565b03905062278d0081101561101c5760405162461bcd60e51b815260040161071790612772565b611024611788565b61102d83611d73565b837f96a647810411309169e354743b6a4e9d05e3c777f5fae278e65f6168fe7279ba8460405161105d9190612842565b60405180910390a250505050565b60106020526000908152604090205481565b6008546001600160a01b0316331461109457600080fd5b60c881101580156110a75750610bb88111155b6110c35760405162461bcd60e51b815260040161071790612516565b6110cb6120ca565b600f805460001981019081106110dd57fe5b90600052602060002090600502016040518060a001604052908160008201548152602001600182015481526020016002820154815260200160038201548152602001600482015481525050905060008160800151611139611784565b03905062278d0081101561115f5760405162461bcd60e51b815260040161071790612772565b611167611788565b61117083611f1c565b837f8f4db2ceeda2c579bf7d6f7036f9f300565d76719308713e3c85d3484b4ebb308460405161105d9190612842565b6111a861157f565b60055461010090046001600160a01b039081169116146111da5760405162461bcd60e51b815260040161071790612592565b6108ba308383611637565b6111ed61157f565b60055461010090046001600160a01b0390811691161461121f5760405162461bcd60e51b815260040161071790612592565b60095415806112365750611231611784565b600954115b6112525760405162461bcd60e51b815260040161071790612684565b61125a611784565b81116112785760405162461bcd60e51b81526004016107179061231d565b6009819055600d819055600f805482919060009061129257fe5b9060005260206000209060050201600401819055507f9fc22fadaf2a60d0fc0b55f067aab3d342cd367b0ab3ffb49d3a4f8420768a3c6009546040516109969190612842565b60006112e2611b5a565b905090565b6001600160a01b03918216600090815260016020908152604080832093909416825291909152205490565b61131a6120ca565b600f54821061133b5760405162461bcd60e51b815260040161071790612490565b600f828154811061134857fe5b90600052602060002090600502016040518060a0016040529081600082015481526020016001820154815260200160028201548152602001600382015481526020016004820154815250509050919050565b6113a261157f565b60055461010090046001600160a01b039081169116146113d45760405162461bcd60e51b815260040161071790612592565b6001600160a01b0381166113fa5760405162461bcd60e51b8152600401610717906123d1565b6005546040516001600160a01b0380841692610100900416907f8be0079c531659141344cd1fd0a4f28419497f9722a3daafe3b4186f6b6457e090600090a3600580546001600160a01b0390921661010002610100600160a81b0319909216919091179055565b6007546001600160a01b031633148061148457506008546001600160a01b031633145b61148d57600080fd5b611495611788565b6108ba60018383611637565b60065490565b6114af61157f565b60055461010090046001600160a01b039081169116146114e15760405162461bcd60e51b815260040161071790612592565b600954156115015760405162461bcd60e51b815260040161071790612684565b611509611784565b6009819055600d819055600f805460009061152057fe5b9060005260206000209060050201600401819055507f9fc22fadaf2a60d0fc0b55f067aab3d342cd367b0ab3ffb49d3a4f8420768a3c6009546040516115669190612842565b60405180910390a1565b6007546001600160a01b031690565b3390565b6001600160a01b0383166115a95760405162461bcd60e51b8152600401610717906126bb565b6001600160a01b0382166115cf5760405162461bcd60e51b815260040161071790612417565b6001600160a01b0380841660008181526001602090815260408083209487168084529490915290819020849055517f8c5be1e5ebec7d5bd14f71427d1e84f3dd0314c0f7b2291e5b200ac8c7c3b9259061162a908590612842565b60405180910390a3505050565b6001600160a01b03831661165d5760405162461bcd60e51b81526004016107179061263f565b6001600160a01b0382166116835760405162461bcd60e51b8152600401610717906122da565b61168e838383612057565b6116d181604051806060016040528060268152602001612913602691396001600160a01b038616600090815260208190526040902054919063ffffffff61175816565b6001600160a01b038085166000908152602081905260408082209390935590841681522054611706908263ffffffff611c6016565b6001600160a01b0380841660008181526020819052604090819020939093559151908516907fddf252ad1be2c89b69c2b068fc378daa952ba7f163c4a11628f55a4df523b3ef9061162a908590612842565b6000818484111561177c5760405162461bcd60e51b81526004016107179190612239565b505050900390565b4290565b600c54600b541161179857610c9b565b6000600d546117a5611784565b0390506301e133808110156117ba5750610c9b565b6117c26120ca565b600f805460001981019081106117d457fe5b600091825260208083206040805160a0810182526005909402909101805480855260018201549385019390935260028101549184019190915260038101546060840152600401546080830152909250905b6301e133808404811015611b05576301e13380600d6000828254019250508190555060006127106301e133808560800151600d540385600e5402028161186757fe5b048161186f57fe5b049050600d54846080018181525050600b54600c548201101580611893575060c883105b1561196757600b54600c81905550600f6040518060a001604052806118b66120ad565b815260208781015181830152600c546040808401829052606080850192909252600d54608094850152855460018181018855600097885296849020865160059092020190815592850151958301959095558385015160028301558301516003820155910151600490910155600f5490517fedc524a2d3f6ca20c1a24894433e36a31d7a2e9c37b78d9ab1c758bf83072d0491611959916000199190910190612842565b60405180910390a150611b05565b600c80548201905560c88311156119915760328303925060c883101561198c5760c892505b6119b5565b8260c814156119b55760006119a46120ad565b905060c88110156119b3578093505b505b6040805160a081018252848152602086810151908201908152600c5482840181815260608401918252600d5460808501908152600f8054600181018255600082905295517f8d1108e10bcb7c27dddfc02ed9d693a074039d026cf4ea4240b40f7d581ac80260059097029687015593517f8d1108e10bcb7c27dddfc02ed9d693a074039d026cf4ea4240b40f7d581ac80386015590517f8d1108e10bcb7c27dddfc02ed9d693a074039d026cf4ea4240b40f7d581ac80485015590517f8d1108e10bcb7c27dddfc02ed9d693a074039d026cf4ea4240b40f7d581ac805840155517f8d1108e10bcb7c27dddfc02ed9d693a074039d026cf4ea4240b40f7d581ac806909201919091555490517fedc524a2d3f6ca20c1a24894433e36a31d7a2e9c37b78d9ab1c758bf83072d0491611af4916000199190910190612842565b60405180910390a150600101611825565b5050600c54600e555050565b6000611b5383836040518060400160405280601e81526020017f536166654d6174683a207375627472616374696f6e206f766572666c6f770000815250611758565b9392505050565b6011546000906112e29061010090046001600160a01b0316610ca3565b6008546001600160a01b031615611beb5760085460405163070c88f360e41b81526001600160a01b03909116906370c88f3090611bb890339060040161221a565b600060405180830381600087803b158015611bd257600080fd5b505af1158015611be6573d6000803e3d6000fd5b505050505b6007546001600160a01b031615610c9b576007546040516303d9eba760e41b81526001600160a01b0390911690633d9eba7090611c2c90339060040161221a565b600060405180830381600087803b158015611c4657600080fd5b505af1158015611c5a573d6000803e3d6000fd5b50505050565b600082820183811015611b535760405162461bcd60e51b815260040161071790612459565b6001600160a01b038216611cab5760405162461bcd60e51b8152600401610717906125fe565b611cb782600083612057565b611cfa816040518060600160405280602281526020016128f1602291396001600160a01b038516600090815260208190526040902054919063ffffffff61175816565b6001600160a01b038316600090815260208190526040902055600254611d26908263ffffffff611b1116565b6002556040516000906001600160a01b038416907fddf252ad1be2c89b69c2b068fc378daa952ba7f163c4a11628f55a4df523b3ef90611d67908590612842565b60405180910390a35050565b600c54600b541415611d8457600080fd5b611d8c6120ca565b600f80546000198101908110611d9e57fe5b90600052602060002090600502016040518060a001604052908160008201548152602001600182015481526020016002820154815260200160038201548152602001600482015481525050905060008160800151611dfa611784565b0390506127106301e13380828460000151600e54020281611e1757fe5b0481611e1f57fe5b04600c60008282540192505081905550600b54600c5410611e525760405162461bcd60e51b815260040161071790612360565b600f6040518060a0016040528084600001518152602001858152602001600c548152602001600e548152602001611e87611784565b9052815460018181018455600093845260209384902083516005909302019182559282015192810192909255604080820151600284015560608201516003840155608090910151600490920191909155600f5490517fedc524a2d3f6ca20c1a24894433e36a31d7a2e9c37b78d9ab1c758bf83072d0491611f0f916000199190910190612842565b60405180910390a1505050565b600c54600b541415611f2d57600080fd5b611f356120ca565b600f80546000198101908110611f4757fe5b90600052602060002090600502016040518060a001604052908160008201548152602001600182015481526020016002820154815260200160038201548152602001600482015481525050905060008160800151611fa3611784565b0390506127106301e13380828460000151600e54020281611fc057fe5b0481611fc857fe5b04600c60008282540192505081905550600b54600c5410611ffb5760405162461bcd60e51b815260040161071790612360565b6120036120ad565b8311156120225760405162461bcd60e51b8152600401610717906126ff565b600f6040518060a0016040528085815260200184602001518152602001600c548152602001600e548152602001611e87611784565b6120628383836120a8565b6103e833116120835760405162461bcd60e51b8152600401610717906125c7565b61208b610bea565b156120a85760405162461bcd60e51b8152600401610717906127be565b505050565b6000600c54600c54600b540361271002816120c457fe5b04905090565b6040518060a0016040528060008152602001600081526020016000815260200160008152602001600081525090565b80356001600160a01b038116811461063257600080fd5b600060208284031215612121578081fd5b611b5383836120f9565b6000806040838503121561213d578081fd5b61214784846120f9565b915061215684602085016120f9565b90509250929050565b600080600060608486031215612173578081fd5b833561217e81612867565b9250602084013561218e81612867565b929592945050506040919091013590565b600080604083850312156121b1578182fd5b6121bb84846120f9565b946020939093013593505050565b6000602082840312156121da578081fd5b5035919050565b6000602082840312156121f2578081fd5b5051919050565b6000806040838503121561220b578182fd5b50508035926020909101359150565b6001600160a01b0391909116815260200190565b901515815260200190565b6000602080835283518082850152825b8181101561226557858101830151858201604001528201612249565b818111156122765783604083870101525b50601f01601f1916929092016040019392505050565b6020808252602e908201527f4369746164656c546f6b656e4c6f636b65723a2076657374696e6720636f6e7460408201526d1c9858dd081d5b9919599a5b995960921b606082015260800190565b60208082526023908201527f45524332303a207472616e7366657220746f20746865207a65726f206164647260408201526265737360e81b606082015260800190565b60208082526023908201527f5374617274696e672064617465206d75737420626520696e207468652066757460408201526275726560e81b606082015260800190565b60208082526015908201527413585e081cdd5c1c1b1e481a5cc81c995858da1959605a1b604082015260600190565b60208082526022908201527f4369746164656c546f6b656e3a20696e73756666696369656e742062616c616e604082015261636560f01b606082015260800190565b60208082526026908201527f4f776e61626c653a206e6577206f776e657220697320746865207a65726f206160408201526564647265737360d01b606082015260800190565b60208082526022908201527f45524332303a20617070726f766520746f20746865207a65726f206164647265604082015261737360f01b606082015260800190565b6020808252601b908201527f536166654d6174683a206164646974696f6e206f766572666c6f770000000000604082015260600190565b60208082526022908201527f4369746164656c496e666c6174696f6e3a20756e657870656374656420696e646040820152610caf60f31b606082015260800190565b60208082526024908201527f4369746164656c546f6b656e4c6f636b65723a20756e657870656374656420696040820152630dcc8caf60e31b606082015260800190565b60208082526025908201527f50657263656e74616765206d757374206265206265747765656e20322520616e604082015264642033302560d81b606082015260800190565b6020808252601d908201527f4369746164656c496e666c6174696f6e3a20636f6d696e6720736f6f6e000000604082015260600190565b6020808252818101527f4f776e61626c653a2063616c6c6572206973206e6f7420746865206f776e6572604082015260600190565b60208082526019908201527f4369746164656c546f6b656e3a2066616b652073656e64657200000000000000604082015260600190565b60208082526021908201527f45524332303a206275726e2066726f6d20746865207a65726f206164647265736040820152607360f81b606082015260800190565b60208082526025908201527f45524332303a207472616e736665722066726f6d20746865207a65726f206164604082015264647265737360d81b606082015260800190565b6020808252601c908201527f496e666c6174696f6e20697320616c7265616479207374617274656400000000604082015260600190565b60208082526024908201527f45524332303a20617070726f76652066726f6d20746865207a65726f206164646040820152637265737360e01b606082015260800190565b602080825260139082015272546f6f20686967682070657263656e7461676560681b604082015260600190565b60208082526026908201527f50657263656e74616765206d757374206265206265747765656e2031302520616040820152656e642039302560d01b606082015260800190565b6020808252602c908201527f596f75206861766520746f20776169742033302064617973206166746572206c60408201526b617374206368616e67696e6760a01b606082015260800190565b6020808252602a908201527f45524332305061757361626c653a20746f6b656e207472616e736665722077686040820152691a5b19481c185d5cd95960b21b606082015260800190565b600060a082019050825182526020830151602083015260408301516040830152606083015160608301526080830151608083015292915050565b90815260200190565b918252602082015260400190565b60ff91909116815260200190565b6001600160a01b038116811461083757600080fd5b60008261288b57506000610632565b8282028284828161289857fe5b0414611b535760405162461bcd60e51b815260206004820152602160248201527f536166654d6174683a206d756c7469706c69636174696f6e206f766572666c6f6044820152607760f81b606482015260840161071756fe45524332303a206275726e20616d6f756e7420657863656564732062616c616e636545524332303a207472616e7366657220616d6f756e7420657863656564732062616c616e636545524332303a207472616e7366657220616d6f756e74206578636565647320616c6c6f77616e636545524332303a2064656372656173656420616c6c6f77616e63652062656c6f77207a65726fa26469706673582212205c2567bf31fb5bf7ebadf050e6530a63e702d6509330b48e425741f4695cf10864736f6c63430006020033",
  "source": "// SPDX-License-Identifier: GPL-3.0\npragma solidity 0.6.2;\npragma experimental ABIEncoderV2;\n\n\nimport \"./Token/CitadelTokenLocker.sol\";\n\n\ncontract Citadel is CitadelTokenLocker {\n\n    constructor ()\n    public {\n        // mint inflation\n        uint inflation = uint(500000000).mul(1e6);\n        _mint(address(1), inflation);\n\n        _initInflation(inflation, inflation, 800, 40);\n\n        _initCitadelTokenLocker(address(2));\n\n        _mint(address(this), uint(500000000).mul(1e6));\n    }\n\n    function delegateTokens (address to, uint amount) external onlyOwner {\n        _transfer(address(this), to, amount);\n    }\n\n}\n",
  "sourcePath": "/home/pirat/Desktop/DAO_update/DAO/contracts/Citadel.sol",
  "compiler": {
    "name": "solc",
    "version": "0.6.2+commit.bacdbe57.Emscripten.clang"
  },
  "schemaVersion": "3.2.5",
  "updatedAt": "2021-08-16T15:52:52.393Z",
  "devdoc": {
    "methods": {
      "allowance(address,address)": {
        "details": "See {IERC20-allowance}."
      },
      "approve(address,uint256)": {
        "details": "See {IERC20-approve}.     * Requirements:     * - `spender` cannot be the zero address."
      },
      "balanceOf(address)": {
        "details": "See {IERC20-balanceOf}."
      },
      "decimals()": {
        "details": "Returns the number of decimals used to get its user representation. For example, if `decimals` equals `2`, a balance of `505` tokens should be displayed to a user as `5,05` (`505 / 10 ** 2`).     * Tokens usually opt for a value of 18, imitating the relationship between Ether and Wei. This is the value {ERC20} uses, unless {_setupDecimals} is called.     * NOTE: This information is only used for _display_ purposes: it in no way affects any of the arithmetic of the contract, including {IERC20-balanceOf} and {IERC20-transfer}."
      },
      "decreaseAllowance(address,uint256)": {
        "details": "Atomically decreases the allowance granted to `spender` by the caller.     * This is an alternative to {approve} that can be used as a mitigation for problems described in {IERC20-approve}.     * Emits an {Approval} event indicating the updated allowance.     * Requirements:     * - `spender` cannot be the zero address. - `spender` must have allowance for the caller of at least `subtractedValue`."
      },
      "increaseAllowance(address,uint256)": {
        "details": "Atomically increases the allowance granted to `spender` by the caller.     * This is an alternative to {approve} that can be used as a mitigation for problems described in {IERC20-approve}.     * Emits an {Approval} event indicating the updated allowance.     * Requirements:     * - `spender` cannot be the zero address."
      },
      "name()": {
        "details": "Returns the name of the token."
      },
      "owner()": {
        "details": "Returns the address of the current owner."
      },
      "paused()": {
        "details": "Returns true if the contract is paused, and false otherwise."
      },
      "renounceOwnership()": {
        "details": "Leaves the contract without owner. It will not be possible to call `onlyOwner` functions anymore. Can only be called by the current owner.     * NOTE: Renouncing ownership will leave the contract without an owner, thereby removing any functionality that is only available to the owner."
      },
      "symbol()": {
        "details": "Returns the symbol of the token, usually a shorter version of the name."
      },
      "totalSupply()": {
        "details": "See {IERC20-totalSupply}."
      },
      "transfer(address,uint256)": {
        "details": "See {IERC20-transfer}.     * Requirements:     * - `recipient` cannot be the zero address. - the caller must have a balance of at least `amount`."
      },
      "transferFrom(address,address,uint256)": {
        "details": "See {IERC20-transferFrom}.     * Emits an {Approval} event indicating the updated allowance. This is not required by the EIP. See the note at the beginning of {ERC20};     * Requirements: - `sender` and `recipient` cannot be the zero address. - `sender` must have a balance of at least `amount`. - the caller must have allowance for ``sender``'s tokens of at least `amount`."
      },
      "transferOwnership(address)": {
        "details": "Transfers ownership of the contract to a new account (`newOwner`). Can only be called by the current owner."
      }
    }
  },
  "userdoc": {
    "methods": {}
  }
}