{
  "contractName": "CitadelDaoTest",
  "abi": [
    {
      "inputs": [
        {
          "internalType": "address",
          "name": "addressOfToken",
          "type": "address"
        }
      ],
      "stateMutability": "nonpayable",
      "type": "constructor"
    },
    {
      "anonymous": false,
      "inputs": [
        {
          "indexed": true,
          "internalType": "address",
          "name": "recipient",
          "type": "address"
        },
        {
          "indexed": false,
          "internalType": "uint256",
          "name": "amount",
          "type": "uint256"
        }
      ],
      "name": "ClaimStakingReward",
      "type": "event"
    },
    {
      "anonymous": false,
      "inputs": [
        {
          "indexed": true,
          "internalType": "uint256",
          "name": "issueId",
          "type": "uint256"
        },
        {
          "indexed": true,
          "internalType": "address",
          "name": "initialized",
          "type": "address"
        }
      ],
      "name": "ExecProposal",
      "type": "event"
    },
    {
      "anonymous": false,
      "inputs": [
        {
          "indexed": true,
          "internalType": "uint256",
          "name": "issueId",
          "type": "uint256"
        },
        {
          "indexed": true,
          "internalType": "address",
          "name": "creator",
          "type": "address"
        },
        {
          "indexed": true,
          "internalType": "enum Voting.ProposalType",
          "name": "votingType",
          "type": "uint8"
        },
        {
          "indexed": false,
          "internalType": "enum Voting.ProposalUpdater",
          "name": "votingUpdater",
          "type": "uint8"
        }
      ],
      "name": "NewProposal",
      "type": "event"
    },
    {
      "anonymous": false,
      "inputs": [
        {
          "indexed": true,
          "internalType": "uint256",
          "name": "issueId",
          "type": "uint256"
        },
        {
          "indexed": true,
          "internalType": "address",
          "name": "from",
          "type": "address"
        },
        {
          "indexed": true,
          "internalType": "uint256",
          "name": "option",
          "type": "uint256"
        },
        {
          "indexed": false,
          "internalType": "uint256",
          "name": "weight",
          "type": "uint256"
        }
      ],
      "name": "OnVote",
      "type": "event"
    },
    {
      "anonymous": false,
      "inputs": [
        {
          "indexed": true,
          "internalType": "address",
          "name": "previousOwner",
          "type": "address"
        },
        {
          "indexed": true,
          "internalType": "address",
          "name": "newOwner",
          "type": "address"
        }
      ],
      "name": "OwnershipTransferred",
      "type": "event"
    },
    {
      "anonymous": false,
      "inputs": [
        {
          "indexed": true,
          "internalType": "bytes32",
          "name": "role",
          "type": "bytes32"
        },
        {
          "indexed": true,
          "internalType": "bytes32",
          "name": "previousAdminRole",
          "type": "bytes32"
        },
        {
          "indexed": true,
          "internalType": "bytes32",
          "name": "newAdminRole",
          "type": "bytes32"
        }
      ],
      "name": "RoleAdminChanged",
      "type": "event"
    },
    {
      "anonymous": false,
      "inputs": [
        {
          "indexed": true,
          "internalType": "bytes32",
          "name": "role",
          "type": "bytes32"
        },
        {
          "indexed": true,
          "internalType": "address",
          "name": "account",
          "type": "address"
        },
        {
          "indexed": true,
          "internalType": "address",
          "name": "sender",
          "type": "address"
        }
      ],
      "name": "RoleGranted",
      "type": "event"
    },
    {
      "anonymous": false,
      "inputs": [
        {
          "indexed": true,
          "internalType": "bytes32",
          "name": "role",
          "type": "bytes32"
        },
        {
          "indexed": true,
          "internalType": "address",
          "name": "account",
          "type": "address"
        },
        {
          "indexed": true,
          "internalType": "address",
          "name": "sender",
          "type": "address"
        }
      ],
      "name": "RoleRevoked",
      "type": "event"
    },
    {
      "anonymous": false,
      "inputs": [
        {
          "indexed": true,
          "internalType": "enum Voting.ProposalUpdater",
          "name": "updater",
          "type": "uint8"
        },
        {
          "indexed": false,
          "internalType": "uint256",
          "name": "quorumPct",
          "type": "uint256"
        },
        {
          "indexed": false,
          "internalType": "uint256",
          "name": "supportPct",
          "type": "uint256"
        }
      ],
      "name": "UpdatedProposalConfig",
      "type": "event"
    },
    {
      "inputs": [],
      "name": "ADMIN_ROLE",
      "outputs": [
        {
          "internalType": "bytes32",
          "name": "",
          "type": "bytes32"
        }
      ],
      "stateMutability": "view",
      "type": "function"
    },
    {
      "inputs": [],
      "name": "DEFAULT_ADMIN_ROLE",
      "outputs": [
        {
          "internalType": "bytes32",
          "name": "",
          "type": "bytes32"
        }
      ],
      "stateMutability": "view",
      "type": "function"
    },
    {
      "inputs": [],
      "name": "VOTING_ROLE",
      "outputs": [
        {
          "internalType": "bytes32",
          "name": "",
          "type": "bytes32"
        }
      ],
      "stateMutability": "view",
      "type": "function"
    },
    {
      "inputs": [
        {
          "internalType": "address",
          "name": "account",
          "type": "address"
        }
      ],
      "name": "addAdmin",
      "outputs": [],
      "stateMutability": "nonpayable",
      "type": "function"
    },
    {
      "inputs": [
        {
          "internalType": "address",
          "name": "account",
          "type": "address"
        }
      ],
      "name": "availableToCreateProposals",
      "outputs": [
        {
          "internalType": "bool",
          "name": "",
          "type": "bool"
        }
      ],
      "stateMutability": "view",
      "type": "function"
    },
    {
      "inputs": [
        {
          "internalType": "uint256",
          "name": "issueId",
          "type": "uint256"
        },
        {
          "internalType": "address",
          "name": "addr",
          "type": "address"
        }
      ],
      "name": "ballotOf",
      "outputs": [
        {
          "internalType": "uint256",
          "name": "",
          "type": "uint256"
        }
      ],
      "stateMutability": "view",
      "type": "function"
    },
    {
      "inputs": [
        {
          "internalType": "uint256",
          "name": "reward",
          "type": "uint256"
        },
        {
          "internalType": "uint256",
          "name": "nonceId",
          "type": "uint256"
        },
        {
          "internalType": "bytes32",
          "name": "hash",
          "type": "bytes32"
        },
        {
          "internalType": "bytes",
          "name": "signature",
          "type": "bytes"
        }
      ],
      "name": "claimReward",
      "outputs": [
        {
          "internalType": "bool",
          "name": "",
          "type": "bool"
        }
      ],
      "stateMutability": "nonpayable",
      "type": "function"
    },
    {
      "inputs": [
        {
          "internalType": "uint256",
          "name": "issueId",
          "type": "uint256"
        }
      ],
      "name": "countOptions",
      "outputs": [
        {
          "internalType": "uint256",
          "name": "",
          "type": "uint256"
        }
      ],
      "stateMutability": "view",
      "type": "function"
    },
    {
      "inputs": [],
      "name": "countProposals",
      "outputs": [
        {
          "internalType": "uint256",
          "name": "",
          "type": "uint256"
        }
      ],
      "stateMutability": "view",
      "type": "function"
    },
    {
      "inputs": [
        {
          "internalType": "bool",
          "name": "isAvailable",
          "type": "bool"
        },
        {
          "internalType": "uint256",
          "name": "minStaked",
          "type": "uint256"
        }
      ],
      "name": "createProposalAvailability",
      "outputs": [],
      "stateMutability": "nonpayable",
      "type": "function"
    },
    {
      "inputs": [
        {
          "internalType": "address",
          "name": "creator",
          "type": "address"
        },
        {
          "internalType": "uint256",
          "name": "issueId",
          "type": "uint256"
        }
      ],
      "name": "depositedForProposal",
      "outputs": [
        {
          "internalType": "uint256",
          "name": "",
          "type": "uint256"
        }
      ],
      "stateMutability": "view",
      "type": "function"
    },
    {
      "inputs": [
        {
          "internalType": "uint256",
          "name": "issueId",
          "type": "uint256"
        }
      ],
      "name": "execProposal",
      "outputs": [],
      "stateMutability": "nonpayable",
      "type": "function"
    },
    {
      "inputs": [],
      "name": "getNewestProposal",
      "outputs": [
        {
          "internalType": "uint256",
          "name": "issueId",
          "type": "uint256"
        },
        {
          "internalType": "string",
          "name": "title",
          "type": "string"
        },
        {
          "internalType": "enum Voting.ProposalType",
          "name": "votingType",
          "type": "uint8"
        },
        {
          "internalType": "enum Voting.ProposalUpdater",
          "name": "votingUpdater",
          "type": "uint8"
        }
      ],
      "stateMutability": "view",
      "type": "function"
    },
    {
      "inputs": [
        {
          "internalType": "bytes32",
          "name": "role",
          "type": "bytes32"
        }
      ],
      "name": "getRoleAdmin",
      "outputs": [
        {
          "internalType": "bytes32",
          "name": "",
          "type": "bytes32"
        }
      ],
      "stateMutability": "view",
      "type": "function"
    },
    {
      "inputs": [
        {
          "internalType": "bytes32",
          "name": "role",
          "type": "bytes32"
        },
        {
          "internalType": "uint256",
          "name": "index",
          "type": "uint256"
        }
      ],
      "name": "getRoleMember",
      "outputs": [
        {
          "internalType": "address",
          "name": "",
          "type": "address"
        }
      ],
      "stateMutability": "view",
      "type": "function"
    },
    {
      "inputs": [
        {
          "internalType": "bytes32",
          "name": "role",
          "type": "bytes32"
        }
      ],
      "name": "getRoleMemberCount",
      "outputs": [
        {
          "internalType": "uint256",
          "name": "",
          "type": "uint256"
        }
      ],
      "stateMutability": "view",
      "type": "function"
    },
    {
      "inputs": [
        {
          "internalType": "bytes32",
          "name": "role",
          "type": "bytes32"
        },
        {
          "internalType": "address",
          "name": "account",
          "type": "address"
        }
      ],
      "name": "grantRole",
      "outputs": [],
      "stateMutability": "nonpayable",
      "type": "function"
    },
    {
      "inputs": [
        {
          "internalType": "bytes32",
          "name": "role",
          "type": "bytes32"
        },
        {
          "internalType": "address",
          "name": "account",
          "type": "address"
        }
      ],
      "name": "hasRole",
      "outputs": [
        {
          "internalType": "bool",
          "name": "",
          "type": "bool"
        }
      ],
      "stateMutability": "view",
      "type": "function"
    },
    {
      "inputs": [],
      "name": "isOpenProposals",
      "outputs": [
        {
          "internalType": "bool",
          "name": "",
          "type": "bool"
        }
      ],
      "stateMutability": "view",
      "type": "function"
    },
    {
      "inputs": [
        {
          "internalType": "uint256",
          "name": "issueId",
          "type": "uint256"
        }
      ],
      "name": "issueDescription",
      "outputs": [
        {
          "internalType": "string",
          "name": "",
          "type": "string"
        }
      ],
      "stateMutability": "view",
      "type": "function"
    },
    {
      "inputs": [],
      "name": "minAmountToCreate",
      "outputs": [
        {
          "internalType": "uint256",
          "name": "",
          "type": "uint256"
        }
      ],
      "stateMutability": "view",
      "type": "function"
    },
    {
      "inputs": [
        {
          "internalType": "string",
          "name": "title",
          "type": "string"
        },
        {
          "internalType": "string",
          "name": "description",
          "type": "string"
        },
        {
          "internalType": "uint256",
          "name": "expiryTime",
          "type": "uint256"
        },
        {
          "internalType": "string[]",
          "name": "options",
          "type": "string[]"
        },
        {
          "internalType": "enum Voting.ProposalUpdater",
          "name": "votingUpdater",
          "type": "uint8"
        }
      ],
      "name": "newMultiProposal",
      "outputs": [],
      "stateMutability": "nonpayable",
      "type": "function"
    },
    {
      "inputs": [
        {
          "internalType": "string",
          "name": "title",
          "type": "string"
        },
        {
          "internalType": "string",
          "name": "description",
          "type": "string"
        },
        {
          "internalType": "uint256",
          "name": "expiryTime",
          "type": "uint256"
        },
        {
          "internalType": "string",
          "name": "updateData",
          "type": "string"
        },
        {
          "internalType": "enum Voting.ProposalUpdater",
          "name": "votingUpdater",
          "type": "uint8"
        }
      ],
      "name": "newProposal",
      "outputs": [],
      "stateMutability": "nonpayable",
      "type": "function"
    },
    {
      "inputs": [
        {
          "internalType": "uint256",
          "name": "issueId",
          "type": "uint256"
        },
        {
          "internalType": "uint256",
          "name": "option",
          "type": "uint256"
        }
      ],
      "name": "optionInfo",
      "outputs": [
        {
          "internalType": "string",
          "name": "name",
          "type": "string"
        },
        {
          "internalType": "uint256",
          "name": "count",
          "type": "uint256"
        },
        {
          "internalType": "uint256",
          "name": "weight",
          "type": "uint256"
        }
      ],
      "stateMutability": "view",
      "type": "function"
    },
    {
      "inputs": [
        {
          "internalType": "uint256",
          "name": "issueId",
          "type": "uint256"
        },
        {
          "internalType": "uint256",
          "name": "option",
          "type": "uint256"
        }
      ],
      "name": "optionName",
      "outputs": [
        {
          "internalType": "string",
          "name": "",
          "type": "string"
        }
      ],
      "stateMutability": "view",
      "type": "function"
    },
    {
      "inputs": [],
      "name": "owner",
      "outputs": [
        {
          "internalType": "address",
          "name": "",
          "type": "address"
        }
      ],
      "stateMutability": "view",
      "type": "function"
    },
    {
      "inputs": [
        {
          "internalType": "string",
          "name": "_value",
          "type": "string"
        }
      ],
      "name": "parseInt",
      "outputs": [
        {
          "internalType": "uint256",
          "name": "_ret",
          "type": "uint256"
        }
      ],
      "stateMutability": "pure",
      "type": "function"
    },
    {
      "inputs": [
        {
          "internalType": "uint256",
          "name": "issueId",
          "type": "uint256"
        }
      ],
      "name": "proposalConfig",
      "outputs": [
        {
          "internalType": "address",
          "name": "creator",
          "type": "address"
        },
        {
          "internalType": "uint256",
          "name": "quorumPct",
          "type": "uint256"
        },
        {
          "internalType": "uint256",
          "name": "supportPct",
          "type": "uint256"
        },
        {
          "internalType": "uint256",
          "name": "voters",
          "type": "uint256"
        },
        {
          "internalType": "string",
          "name": "updateData",
          "type": "string"
        },
        {
          "internalType": "bool",
          "name": "executed",
          "type": "bool"
        }
      ],
      "stateMutability": "view",
      "type": "function"
    },
    {
      "inputs": [
        {
          "internalType": "enum Voting.ProposalUpdater",
          "name": "conf",
          "type": "uint8"
        }
      ],
      "name": "proposalConfigRates",
      "outputs": [
        {
          "internalType": "uint256",
          "name": "quorumPct",
          "type": "uint256"
        },
        {
          "internalType": "uint256",
          "name": "supportPct",
          "type": "uint256"
        }
      ],
      "stateMutability": "view",
      "type": "function"
    },
    {
      "inputs": [
        {
          "internalType": "uint256",
          "name": "issueId",
          "type": "uint256"
        }
      ],
      "name": "proposalInfo",
      "outputs": [
        {
          "internalType": "string",
          "name": "title",
          "type": "string"
        },
        {
          "internalType": "enum Voting.ProposalType",
          "name": "votingType",
          "type": "uint8"
        },
        {
          "internalType": "enum Voting.ProposalUpdater",
          "name": "votingUpdater",
          "type": "uint8"
        },
        {
          "internalType": "uint256",
          "name": "nay",
          "type": "uint256"
        },
        {
          "internalType": "uint256",
          "name": "yea",
          "type": "uint256"
        },
        {
          "internalType": "bool",
          "name": "hasQuorum",
          "type": "bool"
        },
        {
          "internalType": "bool",
          "name": "accepted",
          "type": "bool"
        },
        {
          "internalType": "uint256",
          "name": "expiryTime",
          "type": "uint256"
        }
      ],
      "stateMutability": "view",
      "type": "function"
    },
    {
      "inputs": [
        {
          "internalType": "uint256",
          "name": "issueId",
          "type": "uint256"
        }
      ],
      "name": "redeemDepositFromProposal",
      "outputs": [],
      "stateMutability": "nonpayable",
      "type": "function"
    },
    {
      "inputs": [],
      "name": "renounceOwnership",
      "outputs": [],
      "stateMutability": "nonpayable",
      "type": "function"
    },
    {
      "inputs": [
        {
          "internalType": "bytes32",
          "name": "role",
          "type": "bytes32"
        },
        {
          "internalType": "address",
          "name": "account",
          "type": "address"
        }
      ],
      "name": "renounceRole",
      "outputs": [],
      "stateMutability": "nonpayable",
      "type": "function"
    },
    {
      "inputs": [
        {
          "internalType": "bytes32",
          "name": "role",
          "type": "bytes32"
        },
        {
          "internalType": "address",
          "name": "account",
          "type": "address"
        }
      ],
      "name": "revokeRole",
      "outputs": [],
      "stateMutability": "nonpayable",
      "type": "function"
    },
    {
      "inputs": [
        {
          "internalType": "address",
          "name": "rewardAddress",
          "type": "address"
        }
      ],
      "name": "setRewardAddress",
      "outputs": [],
      "stateMutability": "nonpayable",
      "type": "function"
    },
    {
      "inputs": [
        {
          "internalType": "address",
          "name": "newOwner",
          "type": "address"
        }
      ],
      "name": "transferOwnership",
      "outputs": [],
      "stateMutability": "nonpayable",
      "type": "function"
    },
    {
      "inputs": [
        {
          "internalType": "address",
          "name": "holder",
          "type": "address"
        }
      ],
      "name": "updatedStake",
      "outputs": [],
      "stateMutability": "nonpayable",
      "type": "function"
    },
    {
      "inputs": [
        {
          "internalType": "enum Voting.ProposalUpdater",
          "name": "votingUpdater",
          "type": "uint8"
        },
        {
          "internalType": "string",
          "name": "updateData",
          "type": "string"
        }
      ],
      "name": "updaterValidateData",
      "outputs": [
        {
          "internalType": "bool",
          "name": "",
          "type": "bool"
        }
      ],
      "stateMutability": "pure",
      "type": "function"
    },
    {
      "inputs": [],
      "name": "version",
      "outputs": [
        {
          "internalType": "string",
          "name": "",
          "type": "string"
        }
      ],
      "stateMutability": "pure",
      "type": "function"
    },
    {
      "inputs": [
        {
          "internalType": "uint256",
          "name": "issueId",
          "type": "uint256"
        },
        {
          "internalType": "bytes4",
          "name": "option",
          "type": "bytes4"
        }
      ],
      "name": "vote",
      "outputs": [
        {
          "internalType": "bool",
          "name": "",
          "type": "bool"
        }
      ],
      "stateMutability": "nonpayable",
      "type": "function"
    },
    {
      "inputs": [
        {
          "internalType": "uint256",
          "name": "issueId",
          "type": "uint256"
        },
        {
          "internalType": "uint256",
          "name": "option",
          "type": "uint256"
        }
      ],
      "name": "vote",
      "outputs": [
        {
          "internalType": "bool",
          "name": "",
          "type": "bool"
        }
      ],
      "stateMutability": "nonpayable",
      "type": "function"
    },
    {
      "inputs": [
        {
          "internalType": "uint256",
          "name": "issueId",
          "type": "uint256"
        },
        {
          "internalType": "address",
          "name": "addr",
          "type": "address"
        }
      ],
      "name": "weightOf",
      "outputs": [
        {
          "internalType": "uint256",
          "name": "",
          "type": "uint256"
        }
      ],
      "stateMutability": "view",
      "type": "function"
    },
    {
      "inputs": [
        {
          "internalType": "uint256",
          "name": "issueId",
          "type": "uint256"
        },
        {
          "internalType": "uint256",
          "name": "option",
          "type": "uint256"
        }
      ],
      "name": "weightedVoteCountsOf",
      "outputs": [
        {
          "internalType": "uint256",
          "name": "",
          "type": "uint256"
        }
      ],
      "stateMutability": "view",
      "type": "function"
    },
    {
      "inputs": [
        {
          "internalType": "uint256",
          "name": "date",
          "type": "uint256"
        }
      ],
      "name": "setTimestamp",
      "outputs": [],
      "stateMutability": "nonpayable",
      "type": "function"
    }
  ],
  "bytecode": "0x60806040526402540be4006003553480156200001a57600080fd5b5060405162005d9c38038062005d9c8339810160408190526200003d9162000453565b806000620000536001600160e01b03620003fd16565b600080546001600160a01b0319166001600160a01b0383169081178255604051929350917f8be0079c531659141344cd1fd0a4f28419497f9722a3daafe3b4186f6b6457e0908290a350620000dd604051620000af906200049a565b6040518091039020604051620000c5906200049a565b6040519081900390206001600160e01b036200040116565b620000ef604051620000af9062000483565b604080518082018252614e2080825261c35160208084018281526000808052600490925293517f17ef568e3e12ab5b9c7254a8d58478811de00f9e6eb34345acd53bf8fd09d3ec5592517f17ef568e3e12ab5b9c7254a8d58478811de00f9e6eb34345acd53bf8fd09d3ed5592519092919060008051602062005d7c83398151915290620001819085908590620004b0565b60405180910390a2604080518082018252838152602080820184815260016000819052600490925291517fabd6e7cb50984ff9c2f3e18a2660c3353dadf4e3291deeb275dae2cd1e44fe055590517fabd6e7cb50984ff9c2f3e18a2660c3353dadf4e3291deeb275dae2cd1e44fe0655905160008051602062005d7c83398151915290620002139085908590620004b0565b60405180910390a2604080518082018252838152602080820184815260026000819052600490925291517f91da3fd0782e51c6b3986e9e672fd566868e71f3dbc2d6c2cd6fbb3e361af2a75590517f91da3fd0782e51c6b3986e9e672fd566868e71f3dbc2d6c2cd6fbb3e361af2a855905160008051602062005d7c83398151915290620002a59085908590620004b0565b60405180910390a2604080518082018252838152602080820184815260036000819052600490925291517f2e174c10e159ea99b867ce3205125c24a42d128804e4070ed6fcc8cc98166aa05590517f2e174c10e159ea99b867ce3205125c24a42d128804e4070ed6fcc8cc98166aa155905160008051602062005d7c83398151915290620003379085908590620004b0565b60405180910390a26040805180820182528381526020808201848152600460008190529182905291517f1a1e6821cde7d0159c0d293177871e09677b4e42307c7db3ba94f8648a5a050f5590517f1a1e6821cde7d0159c0d293177871e09677b4e42307c7db3ba94f8648a5a051055905160008051602062005d7c83398151915290620003c89085908590620004b0565b60405180910390a25050600280546001600160a01b0319166001600160a01b03929092169190911790555042600c55620004be565b3390565b600082815260016020526040808220600201549051839285917fbd79b86ffe0ab8e8776151514217cd7cacd52c909f66475c3af44e129f0b00ff9190a460009182526001602052604090912060020155565b60006020828403121562000465578081fd5b81516001600160a01b03811681146200047c578182fd5b9392505050565b6a564f54494e475f524f4c4560a81b8152600b0190565b6941444d494e5f524f4c4560b01b8152600a0190565b918252602082015260400190565b6158ae80620004ce6000396000f3fe608060405234801561001057600080fd5b50600436106102735760003560e01c806375b238fc11610151578063a217fddf116100c3578063e0136a7911610087578063e0136a7914610566578063eaac697a1461057e578063f0464a2b14610591578063f2fde38b146105a4578063f3da049e146105b7578063f6621dc3146105bf57610273565b8063a217fddf146104fe578063ae092e8914610506578063b384abef1461052d578063ca15c87314610540578063d547741f1461055357610273565b80639010d07c116101155780639010d07c1461048c57806391d148541461049f578063933c1306146104b25780639d91cf9a146104c5578063a0a2b573146104d8578063a1629f92146104eb57610273565b806375b238fc14610441578063761bbd8a146104495780638935ced5146104515780638da5cb5b146104645780638e0a13721461047957610273565b80634ba241d8116101ea5780635e00e679116101ae5780635e00e679146103da5780636e6a1dc3146103ed5780636f963fa114610400578063704802751461041357806370c88f3014610426578063715018a61461043957610273565b80634ba241d8146103775780634c461f5a1461039957806350381451146103ac57806353c2d479146103bf57806354fd4d50146103d257610273565b806331aab8881161023c57806331aab888146102fe57806332ec991c1461032357806336568abe1461033657806342346c5e1461034957806346c6211e1461035c5780634883a6a81461036457610273565b8062fe1bff1461027857806312a70f0b146102a15780631e01a172146102b6578063248a9ca3146102d65780632f2ff15d146102e9575b600080fd5b61028b610286366004614bce565b6105e0565b6040516102989190614fcf565b60405180910390f35b6102a961086f565b6040516102989190614fda565b6102c96102c4366004614b40565b610886565b6040516102989190615015565b6102a96102e4366004614b40565b610964565b6102fc6102f7366004614b58565b61097c565b005b61031161030c366004614b40565b6109c4565b60405161029896959493929190614f87565b6102a9610331366004614dfd565b610a10565b6102fc610344366004614b58565b610a6f565b6102a9610357366004614daa565b610ab1565b6102a9610b40565b61028b610372366004614e29565b610b47565b61038a610385366004614b92565b610c33565b6040516102989392919061508a565b6102fc6103a7366004614b1f565b610d6b565b6102fc6103ba366004614cf7565b610ddb565b6102fc6103cd366004614c1c565b611475565b6102c9611bc3565b6102fc6103e8366004614ada565b611be2565b6102a96103fb366004614b92565b611c39565b61028b61040e366004614ada565b611ca2565b6102fc610421366004614ada565b611d95565b6102fc610434366004614ada565b611dea565b6102fc6121c6565b6102a9612245565b6102a9612251565b6102a961045f366004614dfd565b612257565b61046c6122b2565b6040516102989190614f5a565b61028b610487366004614e59565b6122c1565b61046c61049a366004614b92565b612414565b61028b6104ad366004614b58565b612439565b6102fc6104c0366004614b40565b612457565b6102a96104d3366004614af5565b612abd565b6102fc6104e6366004614b40565b612ae5565b6102fc6104f9366004614b40565b612b1f565b6102a9612c47565b610519610514366004614b40565b612c4c565b604051610298989796959493929190615028565b61028b61053b366004614b92565b612cb0565b6102a961054e366004614b40565b6130be565b6102fc610561366004614b58565b6130d5565b61056e61310f565b6040516102989493929190615807565b6102c961058c366004614b92565b6131dc565b6102a961059f366004614b40565b6132fb565b6102fc6105b2366004614ada565b613343565b61028b6133f9565b6105d26105cd366004614bb3565b613409565b604051610298929190615849565b6000808360048111156105ef57fe5b14156105fd57506001610869565b600183600481111561060b57fe5b141561063857600061061c83610ab1565b905060c881101580156106305750610bb881105b915050610869565b600283600481111561064657fe5b141561067057600061065783610ab1565b9050600a81101580156106305750605a10159050610869565b600383600481111561067e57fe5b141561069a57600061068f83610ab1565b151591506108699050565b60048360048111156106a857fe5b14156108655781518290600d146106be57600080fd5b604080516001808252818301909252606091602082018180388339505060408051600680825281830190925292935060609291506020820181803883395050604080516006808252818301909252929350606092915060208201818038833901905050905060005b84518110156107ee576001811015610779578460008151811061074557fe5b602001015160f81c60f81b8460008151811061075d57fe5b60200101906001600160f81b031916908160001a9053506107e6565b60078110156107a85784818151811061078e57fe5b602001015160f81c60f81b83600183038151811061075d57fe5b8481815181106107b457fe5b602001015160f81c60f81b8260078303815181106107ce57fe5b60200101906001600160f81b031916908160001a9053505b600101610726565b5060006107fa83610ab1565b9050600061080783610ab1565b90506000808311801561081d5750620186a08311155b905080801561082c5750600082115b801561083b5750620186a08211155b90508080156108565750600461085087610ab1565b60ff1611155b97506108699650505050505050565b5060005b92915050565b60405161087b90614f2d565b604051809103902081565b60608160008111801561089b57506009548111155b6108c05760405162461bcd60e51b81526004016108b7906152ee565b60405180910390fd5b6000838152600560209081526040918290206002908101805484516001821615610100026000190190911692909204601f8101849004840283018401909452838252909290918301828280156109575780601f1061092c57610100808354040283529160200191610957565b820191906000526020600020905b81548152906001019060200180831161093a57829003601f168201915b5050505050915050919050565b6000818152600160205260409020600201545b919050565b60008281526001602052604090206002015461099a906104ad613465565b6109b65760405162461bcd60e51b81526004016108b790615128565b6109c08282613469565b5050565b600080600080606060006109d6614762565b6109df886134d8565b8051602082015160408301516060840151608085015160a090950151939d929c50909a509850919650945092505050565b600082600081118015610a2557506009548111155b610a415760405162461bcd60e51b81526004016108b7906152ee565b6001600160a01b038316600090815260076020908152604080832087845290915290205491505b5092915050565b610a77613465565b6001600160a01b0316816001600160a01b031614610aa75760405162461bcd60e51b81526004016108b790615777565b6109c0828261390f565b80516000908290600190600019015b8251811015610b38576030838281518110610ad757fe5b016020015160f81c10801590610b0157506039838281518110610af657fe5b016020015160f81c11155b610b0757fe5b816030848381518110610b1657fe5b016020015160f81c0360ff16029390930192600a919091029060001901610ac0565b505050919050565b6003545b90565b600082600081118015610b5c57506009548111155b610b785760405162461bcd60e51b81526004016108b7906152ee565b6279656160e81b626e617960e81b6001600160e01b03198516821480610baa57506001600160e01b0319858116908216145b610bc65760405162461bcd60e51b81526004016108b7906157c6565b60008681526005602052604081206003015460ff166001811115610be657fe5b14610c035760405162461bcd60e51b81526004016108b790615399565b60006001600160e01b03198681169084161415610c1e575060015b610c28878261397e565b979650505050505050565b606060008084600081118015610c4b57506009548111155b610c675760405162461bcd60e51b81526004016108b7906152ee565b6000868152600560205260409020600801548510610c975760405162461bcd60e51b81526004016108b790615513565b6000868152600560205260408120600801805487908110610cb457fe5b60009182526020918290206003919091020180546040805160026001841615610100026000190190931692909204601f810185900485028301850190915280825291935091839190830182828015610d4d5780601f10610d2257610100808354040283529160200191610d4d565b820191906000526020600020905b815481529060010190602001808311610d3057829003601f168201915b50505050509450806001015493508060020154925050509250925092565b610d88604051610d7a90614f2d565b604051809103902033612439565b80610d9d5750610d9d604051610d7a90614f44565b610db95760405162461bcd60e51b81526004016108b7906156c1565b60028054921515600160a01b0260ff60a01b1990931692909217909155600355565b610dea604051610d7a90614f2d565b80610dff5750610dff604051610d7a90614f44565b156110db5786610e215760405162461bcd60e51b81526004016108b790615703565b610e29613ca5565b8411610e475760405162461bcd60e51b81526004016108b7906151e5565b6009805460010190819055610e5b90613cab565b6009546000908152600560205260409020610e746147a3565b60046000846004811115610e8457fe5b60ff16815260208082019290925260409081016000208151808301909252805482526001908101549282019290925283546001600160a01b031916331784559150610ed29083018b8b6147bd565b50610ee16002830189896147bd565b5080516005830155602081015160078301556009820186905560038201805460ff198116825584919061ffff1916610100836004811115610f1e57fe5b02179055506000836004811115610f3157fe5b14610fa257610f768386868080601f0160208091040260200160405190810160405280939291908181526020018383808284376000920191909152506105e092505050565b610f925760405162461bcd60e51b81526004016108b79061549a565b610fa06004830186866147bd565b505b6040805160a081018252600360608201818152626e617960e81b608084015282526000602080840182905293830181905260088601805460018101825590825290849020835180519495929093020192610fff928492019061483b565b50602082810151600180840191909155604093840151600290930192909255825160a0810184526003606082018181526279656160e81b608084015282526000828401819052948201859052600887018054948501815585529382902081518051929594909402019261107692849291019061483b565b506020820151600182015560409091015160029091015560005b336001600160a01b03166009547f22910aa3d36b7721f45dfd4a366dd228fb8e9f8b0752b5cf6557acba94d2edd9866040516110cc9190615001565b60405180910390a4505061146b565b600254600160a01b900460ff1615611453576002546040516370a0823160e01b81526000916001600160a01b0316906370a082319061111e903390600401614f5a565b60206040518083038186803b15801561113657600080fd5b505afa15801561114a573d6000803e3d6000fd5b505050506040513d601f19601f8201168201806040525061116e9190810190614de5565b9050600354811061145157876111965760405162461bcd60e51b81526004016108b790615703565b61119e613ca5565b85116111bc5760405162461bcd60e51b81526004016108b7906151e5565b60098054600101908190556111d090613cab565b60095460009081526005602052604090206111e96147a3565b600460008560048111156111f957fe5b60ff16815260208082019290925260409081016000208151808301909252805482526001908101549282019290925283546001600160a01b0319163317845591506112479083018c8c6147bd565b50611256600283018a8a6147bd565b5080516005830155602081015160078301556009820187905560038201805460ff198116825585919061ffff191661010083600481111561129357fe5b021790555060008460048111156112a657fe5b14611317576112eb8487878080601f0160208091040260200160405190810160405280939291908181526020018383808284376000920191909152506105e092505050565b6113075760405162461bcd60e51b81526004016108b79061549a565b6113156004830187876147bd565b505b6040805160a081018252600360608201818152626e617960e81b608084015282526000602080840182905293830181905260088601805460018101825590825290849020835180519495929093020192611374928492019061483b565b50602082810151600180840191909155604093840151600290930192909255825160a0810184526003606082018181526279656160e81b60808401528252600082840181905294820185905260088701805494850181558552938290208151805192959490940201926113eb92849291019061483b565b506020820151600182015560409091015160029091015560005b336001600160a01b03166009547f22910aa3d36b7721f45dfd4a366dd228fb8e9f8b0752b5cf6557acba94d2edd9876040516114419190615001565b60405180910390a450505061146b565b505b60405162461bcd60e51b81526004016108b7906156c1565b5050505050505050565b611484604051610d7a90614f2d565b806114995750611499604051610d7a90614f44565b1561182457866114bb5760405162461bcd60e51b81526004016108b790615703565b6114c3613ca5565b84116114e15760405162461bcd60e51b81526004016108b7906151e5565b600182116115015760405162461bcd60e51b81526004016108b7906152aa565b600980546001019081905561151590613cab565b600954600090815260056020526040902061152e6147a3565b6004600084600481111561153e57fe5b60ff16815260208082019290925260409081016000208151808301909252805482526001908101549282019290925283546001600160a01b03191633178455915061158c9083018b8b6147bd565b5061159b6002830189896147bd565b5080516005830155602081015160078301556009820186905560038201805460ff191660011780825584919061ff0019166101008360048111156115db57fe5b02179055506040805160a081018252600460608201908152630536b69760e41b608083015281526000602080830182905292820181905260088501805460018101825590825290839020825180519394600390930290910192611641928492019061483b565b506020820151600182015560409091015160029091015560005b8481101561181c57600084600481111561167157fe5b146117275761170b8487878481811061168657fe5b602002820190508035601e19368490030181126116a257600080fd5b9091016020810191503567ffffffffffffffff8111156116c157600080fd5b368190038213156116d157600080fd5b8080601f0160208091040260200160405190810160405280939291908181526020018383808284376000920191909152506105e092505050565b6117275760405162461bcd60e51b81526004016108b79061549a565b82600801604051806060016040528088888581811061174257fe5b602002820190508035601e193684900301811261175e57600080fd5b9091016020810191503567ffffffffffffffff81111561177d57600080fd5b3681900382131561178d57600080fd5b8080601f0160208091040260200160405190810160405280939291908181526020018383808284376000920182905250938552505050602080830182905260409092018190528354600181018555938152819020825180519394600302909101926117fb928492019061483b565b5060208201516001808301919091556040909201516002909101550161165b565b506001611090565b600254600160a01b900460ff1615611453576002546040516370a0823160e01b81526000916001600160a01b0316906370a0823190611867903390600401614f5a565b60206040518083038186803b15801561187f57600080fd5b505afa158015611893573d6000803e3d6000fd5b505050506040513d601f19601f820116820180604052506118b79190810190614de5565b9050600354811061145157876118df5760405162461bcd60e51b81526004016108b790615703565b6118e7613ca5565b85116119055760405162461bcd60e51b81526004016108b7906151e5565b600183116119255760405162461bcd60e51b81526004016108b7906152aa565b600980546001019081905561193990613cab565b60095460009081526005602052604090206119526147a3565b6004600085600481111561196257fe5b60ff16815260208082019290925260409081016000208151808301909252805482526001908101549282019290925283546001600160a01b0319163317845591506119b09083018c8c6147bd565b506119bf600283018a8a6147bd565b5080516005830155602081015160078301556009820187905560038201805460ff191660011780825585919061ff0019166101008360048111156119ff57fe5b02179055506040805160a081018252600460608201908152630536b69760e41b608083015281526000602080830182905292820181905260088501805460018101825590825290839020825180519394600390930290910192611a65928492019061483b565b506020820151600182015560409091015160029091015560005b85811015611bbb576000856004811115611a9557fe5b14611ac657611aaa8588888481811061168657fe5b611ac65760405162461bcd60e51b81526004016108b79061549a565b826008016040518060600160405280898985818110611ae157fe5b602002820190508035601e1936849003018112611afd57600080fd5b9091016020810191503567ffffffffffffffff811115611b1c57600080fd5b36819003821315611b2c57600080fd5b8080601f016020809104026020016040519081016040528093929190818152602001838380828437600092018290525093855250505060208083018290526040909201819052835460018101855593815281902082518051939460030290910192611b9a928492019061483b565b50602082015160018083019190915560409092015160029091015501611a7f565b506001611405565b6040805180820190915260058152640312e302e360dc1b602082015290565b611bea613465565b6000546001600160a01b03908116911614611c175760405162461bcd60e51b81526004016108b79061560c565b600a80546001600160a01b0319166001600160a01b0392909216919091179055565b600082600081118015611c4e57506009548111155b611c6a5760405162461bcd60e51b81526004016108b7906152ee565b6000848152600560205260409020600801805484908110611c8757fe5b90600052602060002090600302016001015491505092915050565b6000611cc1604051611cb390614f2d565b604051809103902083612439565b80611cd65750611cd6604051611cb390614f44565b15611ce357506001610977565b600254600160a01b900460ff1615611d8d57600254604051632c9aab9b60e11b81526000916001600160a01b031690635935573690611d26908690600401614f5a565b60206040518083038186803b158015611d3e57600080fd5b505afa158015611d52573d6000803e3d6000fd5b505050506040513d601f19601f82011682018060405250611d769190810190614de5565b90506003548110611d8b576001915050610977565b505b506000919050565b611d9d613465565b6000546001600160a01b03908116911614611dca5760405162461bcd60e51b81526004016108b79061560c565b611de7604051611dd990614f44565b6040518091039020826109b6565b50565b6002546001600160a01b03163314611e0157600080fd5b6001600160a01b038116600090815260086020908152604091829020805483518184028101840190945280845260609392830182828015611e6157602002820191906000526020600020905b815481526020019060010190808311611e4d575b50505050509050805160001415611e785750611de7565b6002546040805163ca5c7b9160e01b815290516000926001600160a01b03169163ca5c7b91916004808301926020929190829003018186803b158015611ebd57600080fd5b505afa158015611ed1573d6000803e3d6000fd5b505050506040513d601f19601f82011682018060405250611ef59190810190614de5565b600254604051632c9aab9b60e11b81529192506000916001600160a01b0390911690635935573690611f2b908790600401614f5a565b60206040518083038186803b158015611f4357600080fd5b505afa158015611f57573d6000803e3d6000fd5b505050506040513d601f19601f82011682018060405250611f7b9190810190614de5565b905060606000805b8551811015612193576000868281518110611f9a57fe5b602002602001015190506000600560008381526020019081526020016000209050611fc3613ca5565b81600901541015611fd557505061218b565b6001600160a01b03891660009081526007602090815260408083208584529091529020866120b657600b82018054600019019055600181018054600a84018054919091039055548154600884018054909190811061202f57fe5b9060005260206000209060030201600201600082825403925050819055508160080181600001548154811061206057fe5b6000918252602082206001600390920201810180546000190190558201556005820154600a8301548990620186a0028161209657fe5b6006909401805460ff1916919094049190911015179091555061218b9050565b86816001015411156120fc5786816001015403826008018260000154815481106120dc57fe5b600091825260209091206002600390920201018054919091039055612131565b806001015487038260080182600001548154811061211657fe5b60009182526020909120600260039092020101805490910190555b600181018790556005820154600a8301548990620186a0028161215057fe5b60068501805460ff19169290910492909210151790558551839087908790811061217657fe5b60209081029190910101525050600190920191505b600101611f83565b506001600160a01b038616600090815260086020908152604090912083516121bd928501906148a9565b50505050505050565b6121ce613465565b6000546001600160a01b039081169116146121fb5760405162461bcd60e51b81526004016108b79061560c565b600080546040516001600160a01b03909116907f8be0079c531659141344cd1fd0a4f28419497f9722a3daafe3b4186f6b6457e0908390a3600080546001600160a01b0319169055565b60405161087b90614f44565b60095490565b60008260008111801561226c57506009548111155b6122885760405162461bcd60e51b81526004016108b7906152ee565b50506001600160a01b03166000908152600760209081526040808320938352929052206001015490565b6000546001600160a01b031690565b336000908152600b602052604081205485146122ef5760405162461bcd60e51b81526004016108b790615177565b61233186868686868080601f016020809104026020016040519081016040528093929190818152602001838380828437600092019190915250613d6092505050565b61234d5760405162461bcd60e51b81526004016108b790615418565b336000818152600b60205260409081902080546001019055600254905163f3fef3a360e01b81526001600160a01b039091169163f3fef3a39161239591908a90600401614f6e565b600060405180830381600087803b1580156123af57600080fd5b505af11580156123c3573d6000803e3d6000fd5b50505050336001600160a01b03167fb52d0e0c45bba15833f7d429ccdcc4c2bfa8eea764774706120027b76734a44f876040516124009190614fda565b60405180910390a250600195945050505050565b6000828152600160205260408120612432908363ffffffff613dd916565b9392505050565b6000828152600160205260408120612432908363ffffffff613de516565b61245f6148e3565b61246882613dfa565b9050612472614762565b61247b836134d8565b80519091506001600160a01b03163314806124a057506124a0604051610d7a90614f2d565b806124b557506124b5604051610d7a90614f44565b6124d15760405162461bcd60e51b81526004016108b7906156c1565b6000826040015160048111156124e357fe5b14156125015760405162461bcd60e51b81526004016108b790615730565b612509613ca5565b8260e001511061252b5760405162461bcd60e51b81526004016108b790615641565b60008260200151600181111561253d57fe5b1415612564578160c001516125645760405162461bcd60e51b81526004016108b790615354565b8060a00151156125865760405162461bcd60e51b81526004016108b790615593565b606060018360200151600181111561259a57fe5b14156127c95760008080805b6000888152600560205260409020600801548110156126df576125c761492d565b60008981526005602052604090206008018054839081106125e457fe5b600091825260209182902060408051600393909302909101805460026001821615610100026000190190911604601f81018590049094028301608090810190925260608301848152929390928492909184918401828280156126875780601f1061265c57610100808354040283529160200191612687565b820191906000526020600020905b81548152906001019060200180831161266a57829003601f168201915b5050505050815260200160018201548152602001600282015481525050905083816040015111156126c55781945080604001519350600092506126d6565b83816040015114156126d657600192505b506001016125a6565b50801580156126ee5750600083115b61270a5760405162461bcd60e51b81526004016108b790615273565b600087815260056020526040902060080180548490811061272757fe5b6000918252602091829020600390910201805460408051601f60026000196101006001871615020190941693909304928301859004850281018501909152818152928301828280156127ba5780601f1061278f576101008083540402835291602001916127ba565b820191906000526020600020905b81548152906001019060200180831161279d57829003601f168201915b505050505093505050506127d0565b5060808101515b6001836040015160048111156127e257fe5b1415612857576002546001600160a01b031663c108a4028561280384610ab1565b6040518363ffffffff1660e01b8152600401612820929190615849565b600060405180830381600087803b15801561283a57600080fd5b505af115801561284e573d6000803e3d6000fd5b50505050612a71565b60028360400151600481111561286957fe5b141561288a576002546001600160a01b031663ac3cd7c68561280384610ab1565b60038360400151600481111561289c57fe5b14156128b3576128ab81610ab1565b600355612a71565b6004836040015160048111156128c557fe5b1415612a715760408051600180825281830190925282916060919060208201818038833950506040805160068082528183019092529293506060929150602082018180388339505060408051600680825281830190925292935060609291506020820181803883390190505090508351600d1461294157600080fd5b60005b8451811015612a0c576001811015612997578460008151811061296357fe5b602001015160f81c60f81b8460008151811061297b57fe5b60200101906001600160f81b031916908160001a905350612a04565b60078110156129c6578481815181106129ac57fe5b602001015160f81c60f81b83600183038151811061297b57fe5b8481815181106129d257fe5b602001015160f81c60f81b8260078303815181106129ec57fe5b60200101906001600160f81b031916908160001a9053505b600101612944565b506000612a1883610ab1565b90506000612a2583610ab1565b905060405180604001604052808381526020018281525060046000612a4988610ab1565b60ff168152602080820192909252604001600020825181559101516001909101555050505050505b600084815260056020526040808220600c01805460ff1916600117905551339186917f3776071a1b606e078d8aec141249d4c30abe813f5e6752afe84d0c6a25f1388b9190a350505050565b6001600160a01b03919091166000908152600660209081526040808320938352929052205490565b612aed613465565b6000546001600160a01b03908116911614612b1a5760405162461bcd60e51b81526004016108b79061560c565b600c55565b80600081118015612b3257506009548111155b612b4e5760405162461bcd60e51b81526004016108b7906152ee565b612b566148e3565b612b5f83613dfa565b9050612b69614762565b612b72846134d8565b80519091506001600160a01b03163314612b9e5760405162461bcd60e51b81526004016108b7906156c1565b612ba6613ca5565b8260e0015110612bc85760405162461bcd60e51b81526004016108b790615641565b600082602001516001811115612bda57fe5b1415612c01578160c00151612c015760405162461bcd60e51b81526004016108b790615354565b336000908152600660209081526040808320878452909152902054612c385760405162461bcd60e51b81526004016108b790615325565b612c41846143c4565b50505050565b600081565b60606000806000806000806000612c616148e3565b612c6a8a613dfa565b905080600001519850806020015197508060400151965080606001519550806080015194508060a0015193508060c0015192508060e00151915050919395975091939597565b600082600081118015612cc557506009548111155b612ce15760405162461bcd60e51b81526004016108b7906152ee565b612ce961494e565b60008581526005602090815260409182902082516101c08101845281546001600160a01b03168152600180830180548651600261010094831615949094026000190190911692909204601f8101869004860283018601909652858252919492938581019391929190830182828015612da25780601f10612d7757610100808354040283529160200191612da2565b820191906000526020600020905b815481529060010190602001808311612d8557829003601f168201915b5050509183525050600282810180546040805160206001841615610100026000190190931694909404601f81018390048302850183019091528084529381019390830182828015612e345780601f10612e0957610100808354040283529160200191612e34565b820191906000526020600020905b815481529060010190602001808311612e1757829003601f168201915b5050509183525050600382015460209091019060ff166001811115612e5557fe5b6001811115612e6057fe5b81526020016003820160019054906101000a900460ff166004811115612e8257fe5b6004811115612e8d57fe5b815260048201805460408051602060026001851615610100026000190190941693909304601f8101849004840282018401909252818152938201939291830182828015612f1b5780601f10612ef057610100808354040283529160200191612f1b565b820191906000526020600020905b815481529060010190602001808311612efe57829003601f168201915b50505050508152602001600582015481526020016006820160009054906101000a900460ff161515151581526020016007820154815260200160088201805480602002602001604051908101604052809291908181526020016000905b8282101561304d5760008481526020908190206040805160038602909201805460026001821615610100026000190190911604601f81018590049094028301608090810190925260608301848152929390928492909184918401828280156130215780601f10612ff657610100808354040283529160200191613021565b820191906000526020600020905b81548152906001019060200180831161300457829003601f168201915b505050505081526020016001820154815260200160028201548152505081526020019060010190612f78565b5050509082525060098201546020820152600a8201546040820152600b8201546060820152600c9091015460ff1615156080909101526101208101515190915084106130ab5760405162461bcd60e51b81526004016108b790615513565b6130b5858561397e565b95945050505050565b60008181526001602052604081206108699061448e565b6000828152600160205260409020600201546130f3906104ad613465565b610aa75760405162461bcd60e51b81526004016108b790615543565b6009546000818152600560209081526040808320600190810180548351600293821615610100026000190190911692909204601f8101859004850283018501909352828252606094938493908301828280156131ac5780601f10613181576101008083540402835291602001916131ac565b820191906000526020600020905b81548152906001019060200180831161318f57829003601f168201915b5050506000878152600560205260409020600301549697929660ff80821697506101009091041694509192505050565b6060826000811180156131f157506009548111155b61320d5760405162461bcd60e51b81526004016108b7906152ee565b600084815260056020526040902060080154831061323d5760405162461bcd60e51b81526004016108b790615513565b600084815260056020526040902060080180548490811061325a57fe5b6000918252602091829020600390910201805460408051601f60026000196101006001871615020190941693909304928301859004850281018501909152818152928301828280156132ed5780601f106132c2576101008083540402835291602001916132ed565b820191906000526020600020905b8154815290600101906020018083116132d057829003601f168201915b505050505091505092915050565b60008160008111801561331057506009548111155b61332c5760405162461bcd60e51b81526004016108b7906152ee565b505060009081526005602052604090206008015490565b61334b613465565b6000546001600160a01b039081169116146133785760405162461bcd60e51b81526004016108b79061560c565b6001600160a01b03811661339e5760405162461bcd60e51b81526004016108b79061522d565b600080546040516001600160a01b03808516939216917f8be0079c531659141344cd1fd0a4f28419497f9722a3daafe3b4186f6b6457e091a3600080546001600160a01b0319166001600160a01b0392909216919091179055565b600254600160a01b900460ff1690565b6000806004600084600481111561341c57fe5b60ff1660ff1681526020019081526020016000206000015491506004600084600481111561344657fe5b60ff1660ff168152602001908152602001600020600101549050915091565b3390565b6000828152600160205260409020613487908263ffffffff61449916565b156109c057613494613465565b6001600160a01b0316816001600160a01b0316837f2f8788117e7eff1d82e926ec794901d17c78024a50270940304540a733656f0d60405160405180910390a45050565b6134e0614762565b816000811180156134f357506009548111155b61350f5760405162461bcd60e51b81526004016108b7906152ee565b61351761494e565b60008481526005602090815260409182902082516101c08101845281546001600160a01b03168152600180830180548651600261010094831615949094026000190190911692909204601f81018690048602830186019096528582529194929385810193919291908301828280156135d05780601f106135a5576101008083540402835291602001916135d0565b820191906000526020600020905b8154815290600101906020018083116135b357829003601f168201915b5050509183525050600282810180546040805160206001841615610100026000190190931694909404601f810183900483028501830190915280845293810193908301828280156136625780601f1061363757610100808354040283529160200191613662565b820191906000526020600020905b81548152906001019060200180831161364557829003601f168201915b5050509183525050600382015460209091019060ff16600181111561368357fe5b600181111561368e57fe5b81526020016003820160019054906101000a900460ff1660048111156136b057fe5b60048111156136bb57fe5b815260048201805460408051602060026001851615610100026000190190941693909304601f81018490048402820184019092528181529382019392918301828280156137495780601f1061371e57610100808354040283529160200191613749565b820191906000526020600020905b81548152906001019060200180831161372c57829003601f168201915b50505050508152602001600582015481526020016006820160009054906101000a900460ff161515151581526020016007820154815260200160088201805480602002602001604051908101604052809291908181526020016000905b8282101561387b5760008481526020908190206040805160038602909201805460026001821615610100026000190190911604601f810185900490940283016080908101909252606083018481529293909284929091849184018282801561384f5780601f106138245761010080835404028352916020019161384f565b820191906000526020600020905b81548152906001019060200180831161383257829003601f168201915b5050505050815260200160018201548152602001600282015481525050815260200190600101906137a6565b505050908252506009820154602080830191909152600a830154604080840191909152600b840154606080850191909152600c9094015460ff16151560809384015284516001600160a01b0316885260c085015191880191909152610100840151908701526101808301519186019190915260a080830151918601919091526101a090910151151590840152509092915050565b600082815260016020526040902061392d908263ffffffff6144ae16565b156109c05761393a613465565b6001600160a01b0316816001600160a01b0316837ff6391f5c32d9c69d2a47ea670b442974b53935d1edc7fd64eb21e047a839171b60405160405180910390a45050565b60008260008111801561399357506009548111155b6139af5760405162461bcd60e51b81526004016108b7906152ee565b60008481526005602052604090206139c5613ca5565b816009015410156139da576000925050610a68565b600254604051632c9aab9b60e11b815233916000916001600160a01b0390911690635935573690613a0f908590600401614f5a565b60206040518083038186803b158015613a2757600080fd5b505afa158015613a3b573d6000803e3d6000fd5b505050506040513d601f19601f82011682018060405250613a5f9190810190614de5565b905060008111613a815760405162461bcd60e51b81526004016108b79061544f565b6001600160a01b03821660009081526007602090815260408083208a845290915290206001015415613ac55760405162461bcd60e51b81526004016108b7906153e1565b60408051808201825287815260208082018481526001600160a01b0386166000908152600783528481208c8252909252929020905181559051600191820155600b840180549091019055600a830180548201905560088301805487908110613b2957fe5b90600052602060002090600302016001016000815480929190600101919050555080836008018781548110613b5a57fe5b6000918252602090912060026003909202010180549091019055600683015460ff16613c2e576002546040805163ca5c7b9160e01b815290516000926001600160a01b03169163ca5c7b91916004808301926020929190829003018186803b158015613bc557600080fd5b505afa158015613bd9573d6000803e3d6000fd5b505050506040513d601f19601f82011682018060405250613bfd9190810190614de5565b84600a0154620186a00281613c0e57fe5b04905083600501548110613c2c5760068401805460ff191660011790555b505b336000908152600860209081526040808320805460018101825590845291909220018890555186906001600160a01b0384169089907f8eea3a81425aea5e440ed6b6289a8aea0db8025c75fdeb1434bd81650177034090613c90908690614fda565b60405180910390a45060019695505050505050565b600c5490565b613cba604051610d7a90614f2d565b80613ccf5750613ccf604051610d7a90614f44565b15613cd957611de7565b600354336000818152600660209081526040808320868452909152908190208390556002549051631131011960e21b81526001600160a01b03909116926344c4046492613d2b92909190600401614f6e565b600060405180830381600087803b158015613d4557600080fd5b505af1158015613d59573d6000803e3d6000fd5b5050505050565b600080338686604051602001613d7893929190614f03565b604051602081830303815290604052805190602001209050808414613daf5760405162461bcd60e51b81526004016108b79061568a565b600a546001600160a01b0316613dc585856144c3565b6001600160a01b0316149695505050505050565b600061243283836145f1565b6000612432836001600160a01b038416614636565b613e026148e3565b81600081118015613e1557506009548111155b613e315760405162461bcd60e51b81526004016108b7906152ee565b613e3961494e565b60008481526005602090815260409182902082516101c08101845281546001600160a01b03168152600180830180548651600261010094831615949094026000190190911692909204601f8101869004860283018601909652858252919492938581019391929190830182828015613ef25780601f10613ec757610100808354040283529160200191613ef2565b820191906000526020600020905b815481529060010190602001808311613ed557829003601f168201915b5050509183525050600282810180546040805160206001841615610100026000190190931694909404601f81018390048302850183019091528084529381019390830182828015613f845780601f10613f5957610100808354040283529160200191613f84565b820191906000526020600020905b815481529060010190602001808311613f6757829003601f168201915b5050509183525050600382015460209091019060ff166001811115613fa557fe5b6001811115613fb057fe5b81526020016003820160019054906101000a900460ff166004811115613fd257fe5b6004811115613fdd57fe5b815260048201805460408051602060026001851615610100026000190190941693909304601f810184900484028201840190925281815293820193929183018282801561406b5780601f106140405761010080835404028352916020019161406b565b820191906000526020600020905b81548152906001019060200180831161404e57829003601f168201915b50505050508152602001600582015481526020016006820160009054906101000a900460ff161515151581526020016007820154815260200160088201805480602002602001604051908101604052809291908181526020016000905b8282101561419d5760008481526020908190206040805160038602909201805460026001821615610100026000190190911604601f81018590049094028301608090810190925260608301848152929390928492909184918401828280156141715780601f1061414657610100808354040283529160200191614171565b820191906000526020600020905b81548152906001019060200180831161415457829003601f168201915b5050505050815260200160018201548152602001600282015481525050815260200190600101906140c8565b505050908252506009820154602080830191909152600a8301546040830152600b830154606080840191909152600c9093015460ff1615156080909201919091528281015186529082015191925084019060018111156141f957fe5b9081600181111561420657fe5b90525060808101516040840190600481111561421e57fe5b9081600481111561422b57fe5b90525061014081015160e080850191909152810151151560a084015260008360200151600181111561425957fe5b14156143065780610120015160008151811061427157fe5b60200260200101516040015183606001818152505080610120015160018151811061429857fe5b6020026020010151604001518360800181815250506142b5613ca5565b8360e001511080156142c857508260a001515b156142f9578061016001518360800151620186a002816142e457fe5b610100830151919004101560c0840152614301565b600060c08401525b6143bd565b61430e613ca5565b8360e0015110801561432157508260a001515b156143b55760008080805b846101200151518110156143965761434261492d565b856101200151828151811061435357fe5b60200260200101519050838160400151111561437c57819450806040015193506000925061438d565b838160400151141561438d57600192505b5060010161432c565b50801580156143a55750600083115b151560c0870152506143bd915050565b600060c08401525b5050919050565b6143d3604051610d7a90614f2d565b806143e857506143e8604051610d7a90614f44565b156143f257611de7565b60025433600081815260066020908152604080832086845290915290819020549051633ba71a1560e01b81526001600160a01b0390931692633ba71a159261443e929091600401614f6e565b600060405180830381600087803b15801561445857600080fd5b505af115801561446c573d6000803e3d6000fd5b5050336000908152600660209081526040808320868452909152812055505050565b60006108698261464e565b6000612432836001600160a01b038416614652565b6000612432836001600160a01b03841661469c565b600081516041146144e65760405162461bcd60e51b81526004016108b7906151ae565b60208201516040830151606084015160001a7f7fffffffffffffffffffffffffffffff5d576e7357a4501ddfe92f46681b20a08211156145385760405162461bcd60e51b81526004016108b7906154d1565b8060ff16601b1415801561455057508060ff16601c14155b1561456d5760405162461bcd60e51b81526004016108b7906155ca565b6000600187838686604051600081526020016040526040516145929493929190614fe3565b6020604051602081039080840390855afa1580156145b4573d6000803e3d6000fd5b5050604051601f1901519150506001600160a01b0381166145e75760405162461bcd60e51b81526004016108b7906150af565b9695505050505050565b815460009082106146145760405162461bcd60e51b81526004016108b7906150e6565b82600001828154811061462357fe5b9060005260206000200154905092915050565b60009081526001919091016020526040902054151590565b5490565b600061465e8383614636565b61469457508154600181810184556000848152602080822090930184905584548482528286019093526040902091909155610869565b506000610869565b6000818152600183016020526040812054801561475857835460001980830191908101906000908790839081106146cf57fe5b90600052602060002001549050808760000184815481106146ec57fe5b60009182526020808320909101929092558281526001898101909252604090209084019055865487908061471c57fe5b60019003818190600052602060002001600090559055866001016000878152602001908152602001600020600090556001945050505050610869565b6000915050610869565b6040518060c0016040528060006001600160a01b03168152602001600081526020016000815260200160008152602001606081526020016000151581525090565b604051806040016040528060008152602001600081525090565b828054600181600116156101000203166002900490600052602060002090601f016020900481019282601f106147fe5782800160ff1982351617855561482b565b8280016001018555821561482b579182015b8281111561482b578235825591602001919060010190614810565b506148379291506149d5565b5090565b828054600181600116156101000203166002900490600052602060002090601f016020900481019282601f1061487c57805160ff191683800117855561482b565b8280016001018555821561482b579182015b8281111561482b57825182559160200191906001019061488e565b82805482825590600052602060002090810192821561482b579160200282018281111561482b57825182559160200191906001019061488e565b604080516101008101909152606081526020810160008152602001600081526020016000815260200160008152602001600015158152602001600015158152602001600081525090565b60405180606001604052806060815260200160008152602001600081525090565b604051806101c0016040528060006001600160a01b0316815260200160608152602001606081526020016000600181111561498557fe5b815260200160008152602001606081526020016000815260200160001515815260200160008152602001606081526020016000815260200160008152602001600081526020016000151581525090565b610b4491905b8082111561483757600081556001016149db565b80356001600160a01b038116811461086957600080fd5b60008083601f840112614a17578182fd5b50813567ffffffffffffffff811115614a2e578182fd5b602083019150836020828501011115614a4657600080fd5b9250929050565b80356005811061086957600080fd5b600082601f830112614a6c578081fd5b813567ffffffffffffffff80821115614a83578283fd5b604051601f8301601f191681016020018281118282101715614aa3578485fd5b604052828152925082848301602001861015614abe57600080fd5b8260208601602083013760006020848301015250505092915050565b600060208284031215614aeb578081fd5b61243283836149ef565b60008060408385031215614b07578081fd5b614b1184846149ef565b946020939093013593505050565b60008060408385031215614b31578182fd5b82358015158114614b11578283fd5b600060208284031215614b51578081fd5b5035919050565b60008060408385031215614b6a578182fd5b8235915060208301356001600160a01b0381168114614b87578182fd5b809150509250929050565b60008060408385031215614ba4578182fd5b50508035926020909101359150565b600060208284031215614bc4578081fd5b6124328383614a4d565b60008060408385031215614be0578182fd5b8235614beb8161586b565b9150602083013567ffffffffffffffff811115614c06578182fd5b614c1285828601614a5c565b9150509250929050565b60008060008060008060008060a0898b031215614c37578384fd5b883567ffffffffffffffff80821115614c4e578586fd5b614c5a8c838d01614a06565b909a50985060208b0135915080821115614c72578586fd5b614c7e8c838d01614a06565b909850965060408b0135955060608b0135915080821115614c9d578485fd5b818b018c601f820112614cae578586fd5b8035925081831115614cbe578586fd5b8c60208085028301011115614cd1578586fd5b6020019450909250614ce890508a60808b01614a4d565b90509295985092959890939650565b60008060008060008060008060a0898b031215614d12578384fd5b883567ffffffffffffffff80821115614d29578586fd5b614d358c838d01614a06565b909a50985060208b0135915080821115614d4d578586fd5b614d598c838d01614a06565b909850965060408b0135955060608b0135915080821115614d78578485fd5b50614d858b828c01614a06565b9094509250506080890135614d998161586b565b809150509295985092959890939650565b600060208284031215614dbb578081fd5b813567ffffffffffffffff811115614dd1578182fd5b614ddd84828501614a5c565b949350505050565b600060208284031215614df6578081fd5b5051919050565b60008060408385031215614e0f578182fd5b82359150614e2084602085016149ef565b90509250929050565b60008060408385031215614e3b578182fd5b8235915060208301356001600160e01b031981168114614b87578182fd5b600080600080600060808688031215614e70578283fd5b853594506020860135935060408601359250606086013567ffffffffffffffff811115614e9b578182fd5b614ea788828901614a06565b969995985093965092949392505050565b60008151808452815b81811015614edd57602081850181015186830182015201614ec1565b81811115614eee5782602083870101525b50601f01601f19169290920160200192915050565b60609390931b6bffffffffffffffffffffffff191683526014830191909152603482015260540190565b6a564f54494e475f524f4c4560a81b8152600b0190565b6941444d494e5f524f4c4560b01b8152600a0190565b6001600160a01b0391909116815260200190565b6001600160a01b03929092168252602082015260400190565b600060018060a01b038816825286602083015285604083015284606083015260c06080830152614fba60c0830185614eb8565b905082151560a0830152979650505050505050565b901515815260200190565b90815260200190565b93845260ff9290921660208401526040830152606082015260800190565b602081016005831061500f57fe5b91905290565b6000602082526124326020830184614eb8565b600061010080835261503c8184018c614eb8565b91505061504889615857565b88602083015261505788615861565b60408201979097526060810195909552608085019390935290151560a0840152151560c083015260e09091015292915050565b60006060825261509d6060830186614eb8565b60208301949094525060400152919050565b60208082526018908201527f45434453413a20696e76616c6964207369676e61747572650000000000000000604082015260600190565b60208082526022908201527f456e756d657261626c655365743a20696e646578206f7574206f6620626f756e604082015261647360f01b606082015260800190565b6020808252602f908201527f416363657373436f6e74726f6c3a2073656e646572206d75737420626520616e60408201526e0818591b5a5b881d1bc819dc985b9d608a1b606082015260800190565b6020808252601c908201527f526577617264696e673a20696e636f7272656374206e6f6e6365496400000000604082015260600190565b6020808252601f908201527f45434453413a20696e76616c6964207369676e6174757265206c656e67746800604082015260600190565b60208082526028908201527f566f74696e673a2074696d65206d75737420626520626967676572207468616e6040820152670818dd5c9c995b9d60c21b606082015260800190565b60208082526026908201527f4f776e61626c653a206e6577206f776e657220697320746865207a65726f206160408201526564647265737360d01b606082015260800190565b60208082526019908201527f566f74696e673a206e6f206c656164696e67206f7074696f6e00000000000000604082015260600190565b60208082526024908201527f566f74696e673a206d757374206265206174206c656173742074776f206f7074604082015263696f6e7360e01b606082015260800190565b6020808252601f908201527f566f74696e673a2070726f706f73616c20646f6573206e6f7420657869737400604082015260600190565b602080825260159082015274159bdd1a5b99ce88195b5c1d1e4819195c1bdcda5d605a1b604082015260600190565b60208082526025908201527f566f74696e673a20746869732070726f706f73616c206974206e6f7420616363604082015264195c1d195960da1b606082015260800190565b60208082526028908201527f566f74696e673a20706c656173652063686f6f736520616e206f7074696f6e206040820152670c4f240d2dcc8caf60c31b606082015260800190565b6020808252601e908201527f566f74696e673a20796f75206861766520616c726561647920766f7465640000604082015260600190565b6020808252601e908201527f526577617264696e673a20696e636f7272656374207369676e61747572650000604082015260600190565b6020808252602b908201527f566f74696e673a20796f75206861766520746f206c6f636b20796f757220746f60408201526a6b656e73206265666f726560a81b606082015260800190565b6020808252601f908201527f566f74696e673a20696e636f7272656374207570646174696e67206461746100604082015260600190565b60208082526022908201527f45434453413a20696e76616c6964207369676e6174757265202773272076616c604082015261756560f01b606082015260800190565b602080825260169082015275566f74696e673a206f7574206f6620696e646578657360501b604082015260600190565b60208082526030908201527f416363657373436f6e74726f6c3a2073656e646572206d75737420626520616e60408201526f2061646d696e20746f207265766f6b6560801b606082015260800190565b60208082526018908201527f566f74696e673a20616c72656164792065786563757465640000000000000000604082015260600190565b60208082526022908201527f45434453413a20696e76616c6964207369676e6174757265202776272076616c604082015261756560f01b606082015260800190565b6020808252818101527f4f776e61626c653a2063616c6c6572206973206e6f7420746865206f776e6572604082015260600190565b60208082526029908201527f566f74696e673a20766f74696e6720706572696f64206973206e6f742066696e6040820152681a5cda1959081e595d60ba1b606082015260800190565b60208082526019908201527f526577617264696e673a20696e636f7272656374206861736800000000000000604082015260600190565b60208082526022908201527f566f74696e673a20796f7520646f206e6f742068617665207065726d6973736960408201526137b760f11b606082015260800190565b602080825260139082015272566f74696e673a20656d707479207469746c6560681b604082015260600190565b60208082526027908201527f566f74696e673a20746869732070726f706f73616c206973206e6f742065786560408201526663757461626c6560c81b606082015260800190565b6020808252602f908201527f416363657373436f6e74726f6c3a2063616e206f6e6c792072656e6f756e636560408201526e103937b632b9903337b91039b2b63360891b606082015260800190565b60208082526021908201527f566f74696e673a20796f752073686f756c642073617920796561206f72206e616040820152607960f81b606082015260800190565b6000858252608060208301526158206080830186614eb8565b905061582b84615857565b83604083015261583a83615861565b82606083015295945050505050565b918252602082015260400190565b60028110611de757fe5b60058110611de757fe5b60058110611de757600080fdfea264697066735822122084ed5843e6d90a574d6164da507aa6fcf45a15143a17014c616ed1ebc8f6ed8964736f6c63430006020033a8a1fd55aad9bd98e45291d680690c619e60f7931ecaeb384ba0bfb225cd25fe",
  "source": "// SPDX-License-Identifier: GPL-3.0\npragma solidity 0.6.2;\npragma experimental ABIEncoderV2;\n\nimport \"./CitadelDao.sol\";\n\n\ncontract CitadelDaoTest is CitadelDao {\n\n    uint private _fakeTime;\n\n    constructor (\n        address addressOfToken\n    )\n    CitadelDao(\n        addressOfToken\n    )\n    public {\n        _fakeTime = block.timestamp;\n    }\n\n    function setTimestamp(uint date) external onlyOwner {\n        _fakeTime = date;\n    }\n\n    function _timestamp() internal override view returns (uint) {\n        return _fakeTime;\n    }\n}",
  "sourcePath": "/home/pirat/Desktop/DAO/contracts/CitadelDaoTest.sol",
  "compiler": {
    "name": "solc",
    "version": "0.6.2+commit.bacdbe57.Emscripten.clang"
  },
  "schemaVersion": "3.2.5",
  "updatedAt": "2021-06-17T16:12:27.000Z",
  "devdoc": {
    "methods": {
      "getRoleAdmin(bytes32)": {
        "details": "Returns the admin role that controls `role`. See {grantRole} and {revokeRole}.     * To change a role's admin, use {_setRoleAdmin}."
      },
      "getRoleMember(bytes32,uint256)": {
        "details": "Returns one of the accounts that have `role`. `index` must be a value between 0 and {getRoleMemberCount}, non-inclusive.     * Role bearers are not sorted in any particular way, and their ordering may change at any point.     * WARNING: When using {getRoleMember} and {getRoleMemberCount}, make sure you perform all queries on the same block. See the following https://forum.openzeppelin.com/t/iterating-over-elements-on-enumerableset-in-openzeppelin-contracts/2296[forum post] for more information."
      },
      "getRoleMemberCount(bytes32)": {
        "details": "Returns the number of accounts that have `role`. Can be used together with {getRoleMember} to enumerate all bearers of a role."
      },
      "grantRole(bytes32,address)": {
        "details": "Grants `role` to `account`.     * If `account` had not been already granted `role`, emits a {RoleGranted} event.     * Requirements:     * - the caller must have ``role``'s admin role."
      },
      "hasRole(bytes32,address)": {
        "details": "Returns `true` if `account` has been granted `role`."
      },
      "owner()": {
        "details": "Returns the address of the current owner."
      },
      "renounceOwnership()": {
        "details": "Leaves the contract without owner. It will not be possible to call `onlyOwner` functions anymore. Can only be called by the current owner.     * NOTE: Renouncing ownership will leave the contract without an owner, thereby removing any functionality that is only available to the owner."
      },
      "renounceRole(bytes32,address)": {
        "details": "Revokes `role` from the calling account.     * Roles are often managed via {grantRole} and {revokeRole}: this function's purpose is to provide a mechanism for accounts to lose their privileges if they are compromised (such as when a trusted device is misplaced).     * If the calling account had been granted `role`, emits a {RoleRevoked} event.     * Requirements:     * - the caller must be `account`."
      },
      "revokeRole(bytes32,address)": {
        "details": "Revokes `role` from `account`.     * If `account` had been granted `role`, emits a {RoleRevoked} event.     * Requirements:     * - the caller must have ``role``'s admin role."
      },
      "transferOwnership(address)": {
        "details": "Transfers ownership of the contract to a new account (`newOwner`). Can only be called by the current owner."
      }
    }
  },
  "userdoc": {
    "methods": {}
  }
}