{
  "contractName": "CitadelUnlockTeam",
  "abi": [
    {
      "inputs": [
        {
          "internalType": "address",
          "name": "_tokenAddress",
          "type": "address"
        },
        {
          "internalType": "address[]",
          "name": "accounts",
          "type": "address[]"
        },
        {
          "internalType": "uint256[]",
          "name": "amounts",
          "type": "uint256[]"
        },
        {
          "internalType": "uint256",
          "name": "_test_date",
          "type": "uint256"
        }
      ],
      "stateMutability": "nonpayable",
      "type": "constructor"
    },
    {
      "anonymous": false,
      "inputs": [
        {
          "indexed": true,
          "internalType": "address",
          "name": "previousOwner",
          "type": "address"
        },
        {
          "indexed": true,
          "internalType": "address",
          "name": "newOwner",
          "type": "address"
        }
      ],
      "name": "OwnershipTransferred",
      "type": "event"
    },
    {
      "inputs": [
        {
          "internalType": "address",
          "name": "",
          "type": "address"
        }
      ],
      "name": "list",
      "outputs": [
        {
          "internalType": "uint256",
          "name": "total",
          "type": "uint256"
        },
        {
          "internalType": "uint256",
          "name": "used",
          "type": "uint256"
        }
      ],
      "stateMutability": "view",
      "type": "function"
    },
    {
      "inputs": [],
      "name": "owner",
      "outputs": [
        {
          "internalType": "address",
          "name": "",
          "type": "address"
        }
      ],
      "stateMutability": "view",
      "type": "function"
    },
    {
      "inputs": [],
      "name": "renounceOwnership",
      "outputs": [],
      "stateMutability": "nonpayable",
      "type": "function"
    },
    {
      "inputs": [],
      "name": "test_date",
      "outputs": [
        {
          "internalType": "uint256",
          "name": "",
          "type": "uint256"
        }
      ],
      "stateMutability": "view",
      "type": "function"
    },
    {
      "inputs": [],
      "name": "token",
      "outputs": [
        {
          "internalType": "contract ICitadelToken",
          "name": "",
          "type": "address"
        }
      ],
      "stateMutability": "view",
      "type": "function"
    },
    {
      "inputs": [],
      "name": "token_deployed",
      "outputs": [
        {
          "internalType": "uint256",
          "name": "",
          "type": "uint256"
        }
      ],
      "stateMutability": "view",
      "type": "function"
    },
    {
      "inputs": [],
      "name": "total",
      "outputs": [
        {
          "internalType": "uint256",
          "name": "total",
          "type": "uint256"
        },
        {
          "internalType": "uint256",
          "name": "used",
          "type": "uint256"
        }
      ],
      "stateMutability": "view",
      "type": "function"
    },
    {
      "inputs": [
        {
          "internalType": "address",
          "name": "newOwner",
          "type": "address"
        }
      ],
      "name": "transferOwnership",
      "outputs": [],
      "stateMutability": "nonpayable",
      "type": "function"
    },
    {
      "inputs": [],
      "name": "getTokenAddress",
      "outputs": [
        {
          "internalType": "address",
          "name": "",
          "type": "address"
        }
      ],
      "stateMutability": "view",
      "type": "function"
    },
    {
      "inputs": [
        {
          "internalType": "address",
          "name": "_address",
          "type": "address"
        },
        {
          "internalType": "uint256",
          "name": "_testdate",
          "type": "uint256"
        }
      ],
      "name": "calcUnlockOfTest",
      "outputs": [
        {
          "internalType": "uint256",
          "name": "",
          "type": "uint256"
        }
      ],
      "stateMutability": "view",
      "type": "function"
    },
    {
      "inputs": [
        {
          "internalType": "address",
          "name": "_address",
          "type": "address"
        }
      ],
      "name": "calcUnlockOf",
      "outputs": [
        {
          "internalType": "uint256",
          "name": "",
          "type": "uint256"
        }
      ],
      "stateMutability": "view",
      "type": "function"
    },
    {
      "inputs": [],
      "name": "claim",
      "outputs": [
        {
          "internalType": "bool",
          "name": "",
          "type": "bool"
        }
      ],
      "stateMutability": "nonpayable",
      "type": "function"
    },
    {
      "inputs": [
        {
          "internalType": "address",
          "name": "_address",
          "type": "address"
        },
        {
          "internalType": "int256",
          "name": "period",
          "type": "int256"
        }
      ],
      "name": "_calcUnlockAmount",
      "outputs": [
        {
          "internalType": "uint256",
          "name": "",
          "type": "uint256"
        }
      ],
      "stateMutability": "view",
      "type": "function"
    }
  ],
  "bytecode": "0x60806040523480156200001157600080fd5b5060405162000c3c38038062000c3c8339810160408190526200003491620002d0565b6000620000496001600160e01b036200023816565b600080546001600160a01b0319166001600160a01b0383169081178255604051929350917f8be0079c531659141344cd1fd0a4f28419497f9722a3daafe3b4186f6b6457e0908290a3506000835111620000c05760405162461bcd60e51b8152600401620000b790620003d5565b60405180910390fd5b8151835114620000e45760405162461bcd60e51b8152600401620000b7906200040c565b60005b8351811015620001935760405180604001604052808483815181106200010957fe5b602002602001015181526020016000815250600360008684815181106200012c57fe5b60200260200101516001600160a01b03166001600160a01b0316815260200190815260200160002060008201518160000155602082015181600101559050508281815181106200017857fe5b602090810291909101015160018054909101815501620000e7565b50600480546001600160a01b0319166001600160a01b038681169190911780835560408051637c82e0ad60e11b81529051919092169263f905c15a92808201926020929091829003018186803b158015620001ed57600080fd5b505afa15801562000202573d6000803e3d6000fd5b505050506040513d601f19601f82011682018060405250620002289190810190620003bc565b600555600655506200048a915050565b3390565b80516001600160a01b03811681146200025457600080fd5b92915050565b600082601f8301126200026b578081fd5b8151620002826200027c826200046a565b62000443565b818152915060208083019084810181840286018201871015620002a457600080fd5b60005b84811015620002c557815184529282019290820190600101620002a7565b505050505092915050565b60008060008060808587031215620002e6578384fd5b620002f286866200023c565b602086810151919550906001600160401b038082111562000311578586fd5b81880189601f82011262000323578687fd5b80519250620003366200027c846200046a565b83815284810190828601868602840187018d10156200035357898afd5b8993505b8584101562000381576200036c8d826200023c565b83526001939093019291860191860162000357565b5060408b015190985094505050808311156200039b578485fd5b5050620003ab878288016200025a565b606096909601519497939650505050565b600060208284031215620003ce578081fd5b5051919050565b60208082526017908201527f456d707479206c697374206f6620616464726573736573000000000000000000604082015260600190565b6020808252601b908201527f496e636f7272656374206e756d626572206f6620616d6f756e74730000000000604082015260600190565b6040518181016001600160401b03811182821017156200046257600080fd5b604052919050565b60006001600160401b0382111562000480578081fd5b5060209081020190565b6107a2806200049a6000396000f3fe608060405234801561001057600080fd5b50600436106100cf5760003560e01c8063a213286e1161008c578063d553032311610066578063d553032314610172578063da4ab66e14610185578063f2fde38b14610198578063fc0c546a146101ab576100cf565b8063a213286e14610144578063ac77be3014610157578063bb032a661461015f576100cf565b806310fe9ae8146100d45780632ddbd13a146100f25780634e71d92d14610108578063715018a61461011d5780638720de72146101275780638da5cb5b1461013c575b600080fd5b6100dc6101b3565b6040516100e991906106a2565b60405180910390f35b6100fa6101c3565b6040516100e992919061075e565b6101106101cc565b6040516100e991906106cf565b6101256102d8565b005b61012f610360565b6040516100e99190610755565b6100dc610366565b61012f610152366004610669565b610375565b61012f61038e565b6100fa61016d366004610624565b610394565b61012f610180366004610624565b6103ad565b61012f61019336600461063f565b6103c6565b6101256101a6366004610624565b6104f2565b6100dc6105a8565b6004546001600160a01b03165b90565b60015460025482565b3360009081526003602052604081205415806101fb575033600090815260036020526040902060018101549054145b15610208575060006101c0565b600061022b336005546000600654116102215742610225565b6006545b036103c6565b3360008181526003602052604090819020600101805484019055600280548401905560048054915163a9059cbb60e01b81529394506001600160a01b039091169263a9059cbb926102809290918691016106b6565b602060405180830381600087803b15801561029a57600080fd5b505af11580156102ae573d6000803e3d6000fd5b505050506040513d601f19601f820116820180604052506102d2919081019061067b565b91505090565b6102e06105b7565b6000546001600160a01b039081169116146103165760405162461bcd60e51b815260040161030d90610720565b60405180910390fd5b600080546040516001600160a01b03909116907f8be0079c531659141344cd1fd0a4f28419497f9722a3daafe3b4186f6b6457e0908390a3600080546001600160a01b0319169055565b60065481565b6000546001600160a01b031690565b60006103858360055484036103c6565b90505b92915050565b60055481565b6003602052600090815260409020805460019091015482565b6000610388826005546000600654116102215742610225565b60008082136103d757506000610388565b6103df6105f3565b6001600160a01b0384161561040b576001600160a01b038416600090815260036020526040902061040e565b60015b604080518082019091528154808252600190920154602082015291506301e133809060009061045090610448906064629896805b046105bb565b8684036105c5565b016000828603131561047f57825161047d9061047290606463017d7840610442565b8684600202036105c5565b015b600082600202860313156104b05782516104ae906104a39060646301c9c380610442565b8684600302036105c5565b015b600082600302860313156104e15782516104df906104d49060646302160ec0610442565b8684600402036105c5565b015b602090920151909103949350505050565b6104fa6105b7565b6000546001600160a01b039081169116146105275760405162461bcd60e51b815260040161030d90610720565b6001600160a01b03811661054d5760405162461bcd60e51b815260040161030d906106da565b600080546040516001600160a01b03808516939216917f8be0079c531659141344cd1fd0a4f28419497f9722a3daafe3b4186f6b6457e091a3600080546001600160a01b0319166001600160a01b0392909216919091179055565b6004546001600160a01b031681565b3390565b620f424091020490565b6000808213156105ec576105e5836301e13380848103620f424002610442565b9050610388565b5081610388565b604051806040016040528060008152602001600081525090565b80356001600160a01b038116811461038857600080fd5b600060208284031215610635578081fd5b610385838361060d565b60008060408385031215610651578081fd5b61065b848461060d565b946020939093013593505050565b60008060408385031215610651578182fd5b60006020828403121561068c578081fd5b8151801515811461069b578182fd5b9392505050565b6001600160a01b0391909116815260200190565b6001600160a01b03929092168252602082015260400190565b901515815260200190565b60208082526026908201527f4f776e61626c653a206e6577206f776e657220697320746865207a65726f206160408201526564647265737360d01b606082015260800190565b6020808252818101527f4f776e61626c653a2063616c6c6572206973206e6f7420746865206f776e6572604082015260600190565b90815260200190565b91825260208201526040019056fea2646970667358221220ac434a57e66597c9b94adc2ccb3b2d2d21cd3d9e7ac7a7a1380543263ae65acc64736f6c63430006020033",
  "source": "// SPDX-License-Identifier: GPL-3.0\npragma solidity 0.6.2;\npragma experimental ABIEncoderV2;\n\nimport \"../node_modules/openzeppelin-solidity/contracts/access/Ownable.sol\";\nimport \"./ICitadelToken.sol\";\n\ncontract CitadelUnlockTeam is Ownable {\n\n    struct Amount {\n        uint total;\n        uint used;\n    }\n\n    uint constant PCTDEC = 1000000;\n    Amount public total;\n    mapping (address => Amount) public list;\n    ICitadelToken public token;\n    uint public token_deployed;\n    uint public test_date;\n\n    constructor (\n        address _tokenAddress,\n        address[] memory accounts,\n        uint[] memory amounts,\n        uint _test_date\n    ) public {\n        require(accounts.length > 0, \"Empty list of addresses\");\n        require(accounts.length == amounts.length, \"Incorrect number of amounts\");\n        \n        for (uint i; i < accounts.length; i++) {\n            list[accounts[i]] = Amount(amounts[i], 0);\n            total.total += amounts[i];\n        }\n\n        token = ICitadelToken(_tokenAddress);\n        token_deployed = token.deployed();\n        test_date = _test_date;\n    }\n\n    function getTokenAddress () external view returns (address) {\n        return address(token);\n    }\n\n    function calcUnlockOfTest (address _address, uint _testdate) external view returns (uint) {\n        return _calcUnlockAmount(_address, int(_testdate) - int(token_deployed));\n    }\n\n    function calcUnlockOf (address _address) external view returns (uint) {\n        return _calcUnlockAmount(_address, int(test_date > 0 ? test_date : block.timestamp) - int(token_deployed));\n    }\n\n    function claim () external returns (bool) {\n        if (list[msg.sender].total == 0 || list[msg.sender].total == list[msg.sender].used) return false;\n        uint amount = _calcUnlockAmount(msg.sender, int(test_date > 0 ? test_date : block.timestamp) - int(token_deployed));\n        list[msg.sender].used += amount;\n        total.used += amount;\n        return token.transfer(msg.sender, amount);\n    }\n\n    function _calcUnlockAmount (address _address, int period) public view returns (uint) {\n        if (period <= 0) return 0;\n        Amount memory store = _address == address(0) ? total : list[_address];\n\n        int yr = int(365 days);\n\n        uint sum = 0;\n\n        sum += _getPart(_getPercent(store.total, 10 * PCTDEC / 100), yr - period);\n\n        if (period - yr > 0) {\n            sum += _getPart(_getPercent(store.total, 25 * PCTDEC / 100), yr * 2 - period);\n        }\n\n        if (period - yr * 2 > 0) {\n            sum += _getPart(_getPercent(store.total, 30 * PCTDEC / 100), yr * 3 - period);\n        }\n\n        if (period - yr * 3 > 0) {\n            sum += _getPart(_getPercent(store.total, 35 * PCTDEC / 100), yr * 4 - period);\n        }\n\n        return sum - store.used;\n    }\n\n    function _getPart(uint amount, int time) private pure returns (uint) {\n        if (time > 0) {\n            return _getPercent(amount, (365 days - uint(time)) * PCTDEC / 365 days);\n        } else {\n            return amount;\n        }\n    }\n\n    function _getPercent(uint amount, uint pct) private pure returns (uint) {\n        return amount * pct / PCTDEC;\n    }\n\n}",
  "sourcePath": "/home/pirat/Desktop/DAO/contracts/CitadelUnlockTeam.sol",
  "compiler": {
    "name": "solc",
    "version": "0.6.2+commit.bacdbe57.Emscripten.clang"
  },
  "schemaVersion": "3.2.5",
  "updatedAt": "2021-06-01T14:38:46.590Z",
  "networkType": "ethereum",
  "devdoc": {
    "methods": {
      "owner()": {
        "details": "Returns the address of the current owner."
      },
      "renounceOwnership()": {
        "details": "Leaves the contract without owner. It will not be possible to call `onlyOwner` functions anymore. Can only be called by the current owner.     * NOTE: Renouncing ownership will leave the contract without an owner, thereby removing any functionality that is only available to the owner."
      },
      "transferOwnership(address)": {
        "details": "Transfers ownership of the contract to a new account (`newOwner`). Can only be called by the current owner."
      }
    }
  },
  "userdoc": {
    "methods": {}
  }
}