{
  "contractName": "CitadelDao",
  "abi": [
    {
      "inputs": [
        {
          "internalType": "address",
          "name": "token",
          "type": "address"
        }
      ],
      "stateMutability": "nonpayable",
      "type": "constructor"
    },
    {
      "anonymous": false,
      "inputs": [
        {
          "indexed": true,
          "internalType": "address",
          "name": "recipient",
          "type": "address"
        },
        {
          "indexed": false,
          "internalType": "uint256",
          "name": "amount",
          "type": "uint256"
        }
      ],
      "name": "ClaimStakingReward",
      "type": "event"
    },
    {
      "anonymous": false,
      "inputs": [
        {
          "indexed": true,
          "internalType": "uint256",
          "name": "issueId",
          "type": "uint256"
        },
        {
          "indexed": true,
          "internalType": "address",
          "name": "initialized",
          "type": "address"
        }
      ],
      "name": "ExecProposal",
      "type": "event"
    },
    {
      "anonymous": false,
      "inputs": [
        {
          "indexed": true,
          "internalType": "uint256",
          "name": "issueId",
          "type": "uint256"
        },
        {
          "indexed": true,
          "internalType": "address",
          "name": "creator",
          "type": "address"
        },
        {
          "indexed": false,
          "internalType": "string",
          "name": "title",
          "type": "string"
        },
        {
          "indexed": true,
          "internalType": "enum Voting.ProposalType",
          "name": "votingType",
          "type": "uint8"
        },
        {
          "indexed": false,
          "internalType": "enum Voting.ProposalUpdater",
          "name": "votingUpdater",
          "type": "uint8"
        },
        {
          "indexed": false,
          "internalType": "uint256",
          "name": "quorumPct",
          "type": "uint256"
        },
        {
          "indexed": false,
          "internalType": "uint256",
          "name": "supportPct",
          "type": "uint256"
        },
        {
          "indexed": false,
          "internalType": "uint256",
          "name": "expiryTime",
          "type": "uint256"
        }
      ],
      "name": "NewProposal",
      "type": "event"
    },
    {
      "anonymous": false,
      "inputs": [
        {
          "indexed": true,
          "internalType": "uint256",
          "name": "issueId",
          "type": "uint256"
        },
        {
          "indexed": true,
          "internalType": "address",
          "name": "from",
          "type": "address"
        },
        {
          "indexed": true,
          "internalType": "uint256",
          "name": "option",
          "type": "uint256"
        },
        {
          "indexed": false,
          "internalType": "uint256",
          "name": "weight",
          "type": "uint256"
        }
      ],
      "name": "OnVote",
      "type": "event"
    },
    {
      "anonymous": false,
      "inputs": [
        {
          "indexed": true,
          "internalType": "address",
          "name": "previousOwner",
          "type": "address"
        },
        {
          "indexed": true,
          "internalType": "address",
          "name": "newOwner",
          "type": "address"
        }
      ],
      "name": "OwnershipTransferred",
      "type": "event"
    },
    {
      "anonymous": false,
      "inputs": [
        {
          "indexed": true,
          "internalType": "bytes32",
          "name": "role",
          "type": "bytes32"
        },
        {
          "indexed": true,
          "internalType": "bytes32",
          "name": "previousAdminRole",
          "type": "bytes32"
        },
        {
          "indexed": true,
          "internalType": "bytes32",
          "name": "newAdminRole",
          "type": "bytes32"
        }
      ],
      "name": "RoleAdminChanged",
      "type": "event"
    },
    {
      "anonymous": false,
      "inputs": [
        {
          "indexed": true,
          "internalType": "bytes32",
          "name": "role",
          "type": "bytes32"
        },
        {
          "indexed": true,
          "internalType": "address",
          "name": "account",
          "type": "address"
        },
        {
          "indexed": true,
          "internalType": "address",
          "name": "sender",
          "type": "address"
        }
      ],
      "name": "RoleGranted",
      "type": "event"
    },
    {
      "anonymous": false,
      "inputs": [
        {
          "indexed": true,
          "internalType": "bytes32",
          "name": "role",
          "type": "bytes32"
        },
        {
          "indexed": true,
          "internalType": "address",
          "name": "account",
          "type": "address"
        },
        {
          "indexed": true,
          "internalType": "address",
          "name": "sender",
          "type": "address"
        }
      ],
      "name": "RoleRevoked",
      "type": "event"
    },
    {
      "anonymous": false,
      "inputs": [
        {
          "indexed": true,
          "internalType": "enum Voting.ProposalUpdater",
          "name": "updater",
          "type": "uint8"
        },
        {
          "indexed": false,
          "internalType": "uint256",
          "name": "quorumPct",
          "type": "uint256"
        },
        {
          "indexed": false,
          "internalType": "uint256",
          "name": "supportPct",
          "type": "uint256"
        }
      ],
      "name": "UpdatedProposalConfig",
      "type": "event"
    },
    {
      "inputs": [],
      "name": "ADMIN_ROLE",
      "outputs": [
        {
          "internalType": "bytes32",
          "name": "",
          "type": "bytes32"
        }
      ],
      "stateMutability": "view",
      "type": "function",
      "constant": true
    },
    {
      "inputs": [],
      "name": "DEFAULT_ADMIN_ROLE",
      "outputs": [
        {
          "internalType": "bytes32",
          "name": "",
          "type": "bytes32"
        }
      ],
      "stateMutability": "view",
      "type": "function",
      "constant": true
    },
    {
      "inputs": [],
      "name": "VOTING_ROLE",
      "outputs": [
        {
          "internalType": "bytes32",
          "name": "",
          "type": "bytes32"
        }
      ],
      "stateMutability": "view",
      "type": "function",
      "constant": true
    },
    {
      "inputs": [
        {
          "internalType": "address",
          "name": "account",
          "type": "address"
        }
      ],
      "name": "addAdmin",
      "outputs": [],
      "stateMutability": "nonpayable",
      "type": "function"
    },
    {
      "inputs": [],
      "name": "availableToCreateProposals",
      "outputs": [
        {
          "internalType": "bool",
          "name": "",
          "type": "bool"
        }
      ],
      "stateMutability": "view",
      "type": "function",
      "constant": true
    },
    {
      "inputs": [
        {
          "internalType": "uint256",
          "name": "issueId",
          "type": "uint256"
        },
        {
          "internalType": "address",
          "name": "addr",
          "type": "address"
        }
      ],
      "name": "ballotOf",
      "outputs": [
        {
          "internalType": "uint256",
          "name": "",
          "type": "uint256"
        }
      ],
      "stateMutability": "view",
      "type": "function",
      "constant": true
    },
    {
      "inputs": [
        {
          "internalType": "uint256",
          "name": "reward",
          "type": "uint256"
        },
        {
          "internalType": "uint256",
          "name": "timestamp",
          "type": "uint256"
        },
        {
          "internalType": "bytes32",
          "name": "hash",
          "type": "bytes32"
        },
        {
          "internalType": "bytes",
          "name": "signature",
          "type": "bytes"
        }
      ],
      "name": "claimReward",
      "outputs": [
        {
          "internalType": "bool",
          "name": "",
          "type": "bool"
        }
      ],
      "stateMutability": "nonpayable",
      "type": "function"
    },
    {
      "inputs": [
        {
          "internalType": "uint256",
          "name": "issueId",
          "type": "uint256"
        }
      ],
      "name": "countOptions",
      "outputs": [
        {
          "internalType": "uint256",
          "name": "",
          "type": "uint256"
        }
      ],
      "stateMutability": "view",
      "type": "function",
      "constant": true
    },
    {
      "inputs": [],
      "name": "countProposals",
      "outputs": [
        {
          "internalType": "uint256",
          "name": "",
          "type": "uint256"
        }
      ],
      "stateMutability": "view",
      "type": "function",
      "constant": true
    },
    {
      "inputs": [
        {
          "internalType": "bool",
          "name": "isAvailable",
          "type": "bool"
        },
        {
          "internalType": "uint256",
          "name": "minStaked",
          "type": "uint256"
        }
      ],
      "name": "createProposalAvailability",
      "outputs": [],
      "stateMutability": "nonpayable",
      "type": "function"
    },
    {
      "inputs": [
        {
          "internalType": "uint256",
          "name": "issueId",
          "type": "uint256"
        }
      ],
      "name": "execProposal",
      "outputs": [],
      "stateMutability": "nonpayable",
      "type": "function"
    },
    {
      "inputs": [],
      "name": "getNewestProposal",
      "outputs": [
        {
          "internalType": "uint256",
          "name": "issueId",
          "type": "uint256"
        },
        {
          "internalType": "string",
          "name": "title",
          "type": "string"
        },
        {
          "internalType": "enum Voting.ProposalType",
          "name": "votingType",
          "type": "uint8"
        },
        {
          "internalType": "enum Voting.ProposalUpdater",
          "name": "votingUpdater",
          "type": "uint8"
        }
      ],
      "stateMutability": "view",
      "type": "function",
      "constant": true
    },
    {
      "inputs": [
        {
          "internalType": "bytes32",
          "name": "role",
          "type": "bytes32"
        }
      ],
      "name": "getRoleAdmin",
      "outputs": [
        {
          "internalType": "bytes32",
          "name": "",
          "type": "bytes32"
        }
      ],
      "stateMutability": "view",
      "type": "function",
      "constant": true
    },
    {
      "inputs": [
        {
          "internalType": "bytes32",
          "name": "role",
          "type": "bytes32"
        },
        {
          "internalType": "uint256",
          "name": "index",
          "type": "uint256"
        }
      ],
      "name": "getRoleMember",
      "outputs": [
        {
          "internalType": "address",
          "name": "",
          "type": "address"
        }
      ],
      "stateMutability": "view",
      "type": "function",
      "constant": true
    },
    {
      "inputs": [
        {
          "internalType": "bytes32",
          "name": "role",
          "type": "bytes32"
        }
      ],
      "name": "getRoleMemberCount",
      "outputs": [
        {
          "internalType": "uint256",
          "name": "",
          "type": "uint256"
        }
      ],
      "stateMutability": "view",
      "type": "function",
      "constant": true
    },
    {
      "inputs": [
        {
          "internalType": "bytes32",
          "name": "role",
          "type": "bytes32"
        },
        {
          "internalType": "address",
          "name": "account",
          "type": "address"
        }
      ],
      "name": "grantRole",
      "outputs": [],
      "stateMutability": "nonpayable",
      "type": "function"
    },
    {
      "inputs": [
        {
          "internalType": "bytes32",
          "name": "role",
          "type": "bytes32"
        },
        {
          "internalType": "address",
          "name": "account",
          "type": "address"
        }
      ],
      "name": "hasRole",
      "outputs": [
        {
          "internalType": "bool",
          "name": "",
          "type": "bool"
        }
      ],
      "stateMutability": "view",
      "type": "function",
      "constant": true
    },
    {
      "inputs": [
        {
          "internalType": "uint256",
          "name": "issueId",
          "type": "uint256"
        }
      ],
      "name": "issueDescription",
      "outputs": [
        {
          "internalType": "string",
          "name": "",
          "type": "string"
        }
      ],
      "stateMutability": "view",
      "type": "function",
      "constant": true
    },
    {
      "inputs": [],
      "name": "minAmountToCreate",
      "outputs": [
        {
          "internalType": "uint256",
          "name": "",
          "type": "uint256"
        }
      ],
      "stateMutability": "view",
      "type": "function",
      "constant": true
    },
    {
      "inputs": [
        {
          "internalType": "string",
          "name": "title",
          "type": "string"
        },
        {
          "internalType": "string",
          "name": "description",
          "type": "string"
        },
        {
          "internalType": "uint256",
          "name": "expiryTime",
          "type": "uint256"
        },
        {
          "internalType": "string[]",
          "name": "options",
          "type": "string[]"
        },
        {
          "internalType": "enum Voting.ProposalUpdater",
          "name": "votingUpdater",
          "type": "uint8"
        }
      ],
      "name": "newMultiProposal",
      "outputs": [],
      "stateMutability": "nonpayable",
      "type": "function"
    },
    {
      "inputs": [
        {
          "internalType": "string",
          "name": "title",
          "type": "string"
        },
        {
          "internalType": "string",
          "name": "description",
          "type": "string"
        },
        {
          "internalType": "uint256",
          "name": "expiryTime",
          "type": "uint256"
        },
        {
          "internalType": "enum Voting.ProposalUpdater",
          "name": "votingUpdater",
          "type": "uint8"
        },
        {
          "internalType": "string",
          "name": "updateData",
          "type": "string"
        }
      ],
      "name": "newProposal",
      "outputs": [],
      "stateMutability": "nonpayable",
      "type": "function"
    },
    {
      "inputs": [
        {
          "internalType": "uint256",
          "name": "issueId",
          "type": "uint256"
        },
        {
          "internalType": "uint256",
          "name": "option",
          "type": "uint256"
        }
      ],
      "name": "optionInfo",
      "outputs": [
        {
          "internalType": "string",
          "name": "name",
          "type": "string"
        },
        {
          "internalType": "uint256",
          "name": "count",
          "type": "uint256"
        },
        {
          "internalType": "uint256",
          "name": "weight",
          "type": "uint256"
        }
      ],
      "stateMutability": "view",
      "type": "function",
      "constant": true
    },
    {
      "inputs": [
        {
          "internalType": "uint256",
          "name": "issueId",
          "type": "uint256"
        },
        {
          "internalType": "uint256",
          "name": "option",
          "type": "uint256"
        }
      ],
      "name": "optionName",
      "outputs": [
        {
          "internalType": "string",
          "name": "",
          "type": "string"
        }
      ],
      "stateMutability": "view",
      "type": "function",
      "constant": true
    },
    {
      "inputs": [],
      "name": "owner",
      "outputs": [
        {
          "internalType": "address",
          "name": "",
          "type": "address"
        }
      ],
      "stateMutability": "view",
      "type": "function",
      "constant": true
    },
    {
      "inputs": [
        {
          "internalType": "string",
          "name": "_value",
          "type": "string"
        }
      ],
      "name": "parseInt",
      "outputs": [
        {
          "internalType": "uint256",
          "name": "_ret",
          "type": "uint256"
        }
      ],
      "stateMutability": "pure",
      "type": "function",
      "constant": true
    },
    {
      "inputs": [
        {
          "internalType": "uint256",
          "name": "issueId",
          "type": "uint256"
        }
      ],
      "name": "proposalConfig",
      "outputs": [
        {
          "internalType": "address",
          "name": "creator",
          "type": "address"
        },
        {
          "internalType": "uint256",
          "name": "quorumPct",
          "type": "uint256"
        },
        {
          "internalType": "uint256",
          "name": "supportPct",
          "type": "uint256"
        },
        {
          "internalType": "uint256",
          "name": "voters",
          "type": "uint256"
        },
        {
          "internalType": "string",
          "name": "updateData",
          "type": "string"
        }
      ],
      "stateMutability": "view",
      "type": "function",
      "constant": true
    },
    {
      "inputs": [
        {
          "internalType": "enum Voting.ProposalUpdater",
          "name": "conf",
          "type": "uint8"
        }
      ],
      "name": "proposalConfigRates",
      "outputs": [
        {
          "internalType": "uint256",
          "name": "quorumPct",
          "type": "uint256"
        },
        {
          "internalType": "uint256",
          "name": "supportPct",
          "type": "uint256"
        }
      ],
      "stateMutability": "view",
      "type": "function",
      "constant": true
    },
    {
      "inputs": [
        {
          "internalType": "uint256",
          "name": "issueId",
          "type": "uint256"
        }
      ],
      "name": "proposalInfo",
      "outputs": [
        {
          "internalType": "string",
          "name": "title",
          "type": "string"
        },
        {
          "internalType": "enum Voting.ProposalType",
          "name": "votingType",
          "type": "uint8"
        },
        {
          "internalType": "enum Voting.ProposalUpdater",
          "name": "votingUpdater",
          "type": "uint8"
        },
        {
          "internalType": "uint256",
          "name": "nay",
          "type": "uint256"
        },
        {
          "internalType": "uint256",
          "name": "yea",
          "type": "uint256"
        },
        {
          "internalType": "bool",
          "name": "hasQuorum",
          "type": "bool"
        },
        {
          "internalType": "bool",
          "name": "accepted",
          "type": "bool"
        },
        {
          "internalType": "uint256",
          "name": "expiryTime",
          "type": "uint256"
        }
      ],
      "stateMutability": "view",
      "type": "function",
      "constant": true
    },
    {
      "inputs": [],
      "name": "renounceOwnership",
      "outputs": [],
      "stateMutability": "nonpayable",
      "type": "function"
    },
    {
      "inputs": [
        {
          "internalType": "bytes32",
          "name": "role",
          "type": "bytes32"
        },
        {
          "internalType": "address",
          "name": "account",
          "type": "address"
        }
      ],
      "name": "renounceRole",
      "outputs": [],
      "stateMutability": "nonpayable",
      "type": "function"
    },
    {
      "inputs": [
        {
          "internalType": "bytes32",
          "name": "role",
          "type": "bytes32"
        },
        {
          "internalType": "address",
          "name": "account",
          "type": "address"
        }
      ],
      "name": "revokeRole",
      "outputs": [],
      "stateMutability": "nonpayable",
      "type": "function"
    },
    {
      "inputs": [
        {
          "internalType": "address",
          "name": "rewardAddress",
          "type": "address"
        }
      ],
      "name": "setRewardAddress",
      "outputs": [],
      "stateMutability": "nonpayable",
      "type": "function"
    },
    {
      "inputs": [
        {
          "internalType": "address",
          "name": "newOwner",
          "type": "address"
        }
      ],
      "name": "transferOwnership",
      "outputs": [],
      "stateMutability": "nonpayable",
      "type": "function"
    },
    {
      "inputs": [
        {
          "internalType": "uint256",
          "name": "issueId",
          "type": "uint256"
        },
        {
          "internalType": "bytes4",
          "name": "option",
          "type": "bytes4"
        }
      ],
      "name": "vote",
      "outputs": [
        {
          "internalType": "bool",
          "name": "",
          "type": "bool"
        }
      ],
      "stateMutability": "nonpayable",
      "type": "function"
    },
    {
      "inputs": [
        {
          "internalType": "uint256",
          "name": "issueId",
          "type": "uint256"
        },
        {
          "internalType": "uint256",
          "name": "option",
          "type": "uint256"
        }
      ],
      "name": "vote",
      "outputs": [
        {
          "internalType": "bool",
          "name": "",
          "type": "bool"
        }
      ],
      "stateMutability": "nonpayable",
      "type": "function"
    },
    {
      "inputs": [
        {
          "internalType": "uint256",
          "name": "issueId",
          "type": "uint256"
        },
        {
          "internalType": "address",
          "name": "addr",
          "type": "address"
        }
      ],
      "name": "weightOf",
      "outputs": [
        {
          "internalType": "uint256",
          "name": "",
          "type": "uint256"
        }
      ],
      "stateMutability": "view",
      "type": "function",
      "constant": true
    },
    {
      "inputs": [
        {
          "internalType": "uint256",
          "name": "issueId",
          "type": "uint256"
        },
        {
          "internalType": "uint256",
          "name": "option",
          "type": "uint256"
        }
      ],
      "name": "weightedVoteCountsOf",
      "outputs": [
        {
          "internalType": "uint256",
          "name": "",
          "type": "uint256"
        }
      ],
      "stateMutability": "view",
      "type": "function",
      "constant": true
    },
    {
      "inputs": [],
      "name": "version",
      "outputs": [
        {
          "internalType": "string",
          "name": "",
          "type": "string"
        }
      ],
      "stateMutability": "pure",
      "type": "function",
      "constant": true
    }
  ],
  "bytecode": "0x60806040523480156200001157600080fd5b50604051620050c1380380620050c1833981016040819052620000349162000271565b6000620000496001600160e01b036200021b16565b600080546001600160a01b0319166001600160a01b0383169081178255604051929350917f8be0079c531659141344cd1fd0a4f28419497f9722a3daafe3b4186f6b6457e0908290a350620000d3604051620000a590620002b8565b6040518091039020604051620000bb90620002b8565b6040519081900390206001600160e01b036200021f16565b620000e5604051620000a590620002a1565b60408051808201825261c350808252614e2060208084018281526000808052600890925293517f5eff886ea0ce6ca488a3d6e336d6c0f75f46d19b42c06ce5ee98e42c96d256c75592517f5eff886ea0ce6ca488a3d6e336d6c0f75f46d19b42c06ce5ee98e42c96d256c8559251909291907fa8a1fd55aad9bd98e45291d680690c619e60f7931ecaeb384ba0bfb225cd25fe90620001889085908590620002ce565b60405180910390a260408051808201909152918252602080830191825260016000526008905290517fad67d757c34507f157cacfa2e3153e9f260a2244f30428821be7be64587ac55f55517fad67d757c34507f157cacfa2e3153e9f260a2244f30428821be7be64587ac56055600280546001600160a01b0319166001600160a01b0392909216919091179055620002dc565b3390565b600082815260016020526040808220600201549051839285917fbd79b86ffe0ab8e8776151514217cd7cacd52c909f66475c3af44e129f0b00ff9190a460009182526001602052604090912060020155565b60006020828403121562000283578081fd5b81516001600160a01b03811681146200029a578182fd5b9392505050565b6a564f54494e475f524f4c4560a81b8152600b0190565b6941444d494e5f524f4c4560b01b8152600a0190565b918252602082015260400190565b614dd580620002ec6000396000f3fe608060405234801561001057600080fd5b50600436106102325760003560e01c806375b238fc11610130578063ae092e89116100b8578063e0136a791161007c578063e0136a79146104ba578063eaac697a146104d2578063f0464a2b146104e5578063f2fde38b146104f8578063f6621dc31461050b57610232565b8063ae092e8914610452578063b384abef14610479578063ca15c8731461048c578063d547741f1461049f578063d7eefea1146104b257610232565b80638e0a1372116100ff5780638e0a1372146103fe5780639010d07c1461041157806391d1485414610424578063933c130614610437578063a217fddf1461044a57610232565b806375b238fc146103c6578063761bbd8a146103ce5780638935ced5146103d65780638da5cb5b146103e957610232565b80634883a6a8116101be5780635e00e679116101825780635e00e67914610372578063637a2e36146103855780636e6a1dc31461039857806370480275146103ab578063715018a6146103be57610232565b80634883a6a8146103025780634ba241d8146103225780634c461f5a1461034457806353c2d4791461035757806354fd4d501461036a57610232565b806331aab8881161020557806331aab8881461029d57806332ec991c146102c157806336568abe146102d457806342346c5e146102e757806346c6211e146102fa57610232565b806312a70f0b146102375780631e01a17214610255578063248a9ca3146102755780632f2ff15d14610288575b600080fd5b61023f61052c565b60405161024c91906144a6565b60405180910390f35b610268610263366004614015565b610543565b60405161024c9190614522565b61023f610283366004614015565b610621565b61029b61029636600461402d565b610639565b005b6102b06102ab366004614015565b610681565b60405161024c959493929190614468565b61023f6102cf3660046142de565b6106c3565b61029b6102e236600461402d565b610722565b61023f6102f5366004614235565b610764565b61023f6107f3565b61031561031036600461430a565b6107fa565b60405161024c919061449b565b610335610330366004614067565b6108e6565b60405161024c93929190614594565b61029b610352366004613fe6565b610a1e565b61029b6103653660046140a3565b610a83565b61026861116b565b61029b610380366004613fcb565b61118a565b61029b61039336600461417e565b6111e1565b61023f6103a6366004614067565b61180f565b61029b6103b9366004613fcb565b611878565b61029b6118cd565b61023f61194c565b61023f611958565b61023f6103e43660046142de565b61195e565b6103f16119b9565b60405161024c919061443b565b61031561040c36600461433a565b6119c8565b6103f161041f366004614067565b611b5e565b61031561043236600461402d565b611b85565b61029b610445366004614015565b611ba3565b61023f61219e565b610465610460366004614015565b6121a3565b60405161024c989796959493929190614535565b610315610487366004614067565b612207565b61023f61049a366004614015565b612604565b61029b6104ad36600461402d565b61261b565b610315612655565b6104c2612731565b60405161024c9493929190614d0f565b6102686104e0366004614067565b6127ff565b61023f6104f3366004614015565b61291e565b61029b610506366004613fcb565b612966565b61051e610519366004614088565b612a1c565b60405161024c929190614d4f565b6040516105389061440e565b604051809103902081565b60608160008111801561055857506004548111155b61057d5760405162461bcd60e51b8152600401610574906147f8565b60405180910390fd5b6000838152600360209081526040918290206002908101805484516001821615610100026000190190911692909204601f8101849004840283018401909452838252909290918301828280156106145780601f106105e957610100808354040283529160200191610614565b820191906000526020600020905b8154815290600101906020018083116105f757829003601f168201915b5050505050915050919050565b6000818152600160205260409020600201545b919050565b60008281526001602052604090206002015461065790610432612a78565b6106735760405162461bcd60e51b815260040161057490614632565b61067d8282612a7c565b5050565b6000806000806060610691613d1d565b61069a87612aeb565b8051602082015160408301516060840151608090940151929b919a509850919650945092505050565b6000826000811180156106d857506004548111155b6106f45760405162461bcd60e51b8152600401610574906147f8565b6001600160a01b038316600090815260076020908152604080832087845290915290205491505b5092915050565b61072a612a78565b6001600160a01b0316816001600160a01b03161461075a5760405162461bcd60e51b815260040161057490614c7f565b61067d8282612efb565b80516000908290600190600019015b82518110156107eb57603083828151811061078a57fe5b016020015160f81c108015906107b4575060398382815181106107a957fe5b016020015160f81c11155b6107ba57fe5b8160308483815181106107c957fe5b016020015160f81c0360ff16029390930192600a919091029060001901610773565b505050919050565b6006545b90565b60008260008111801561080f57506004548111155b61082b5760405162461bcd60e51b8152600401610574906147f8565b6279656160e81b626e617960e81b6001600160e01b0319851682148061085d57506001600160e01b0319858116908216145b6108795760405162461bcd60e51b815260040161057490614cce565b60008681526003602081905260408220015460ff16600181111561089957fe5b146108b65760405162461bcd60e51b8152600401610574906148a1565b60006001600160e01b031986811690841614156108d1575060015b6108db8782612f6a565b979650505050505050565b6060600080846000811180156108fe57506004548111155b61091a5760405162461bcd60e51b8152600401610574906147f8565b600086815260036020526040902060080154851061094a5760405162461bcd60e51b815260040161057490614a1b565b600086815260036020526040812060080180548790811061096757fe5b60009182526020918290206003919091020180546040805160026001841615610100026000190190931692909204601f810185900485028301850190915280825291935091839190830182828015610a005780601f106109d557610100808354040283529160200191610a00565b820191906000526020600020905b8154815290600101906020018083116109e357829003601f168201915b50505050509450806001015493508060020154925050509250925092565b610a3b604051610a2d9061440e565b604051809103902033611b85565b80610a505750610a50604051610a2d90614425565b610a6c5760405162461bcd60e51b815260040161057490614bc9565b6005805460ff191692151592909217909155600655565b610a92604051610a2d9061440e565b80610aa75750610aa7604051610a2d90614425565b15610df05786610ac95760405162461bcd60e51b815260040161057490614c0b565b428411610ae85760405162461bcd60e51b8152600401610574906146b8565b60018211610b085760405162461bcd60e51b8152600401610574906147b4565b60048054600101908190556000908152600360205260409020610b29613d55565b60086000846003811115610b3957fe5b60ff16815260208082019290925260409081016000208151808301909252805482526001908101549282019290925283546001600160a01b031916331784559150610b879083018b8b613d6f565b50610b96600283018989613d6f565b508051600583015560208101516007830155600982018690556003808301805460ff1916600117808255859261ff001990911690610100908490811115610bd957fe5b021790555060005b84811015610da2576000846003811115610bf757fe5b14610cad57610c9184878784818110610c0c57fe5b602002820190508035601e1936849003018112610c2857600080fd5b9091016020810191503567ffffffffffffffff811115610c4757600080fd5b36819003821315610c5757600080fd5b8080601f01602080910402602001604051908101604052809392919081815260200183838082843760009201919091525061326c92505050565b610cad5760405162461bcd60e51b8152600401610574906149a2565b826008016040518060600160405280888885818110610cc857fe5b602002820190508035601e1936849003018112610ce457600080fd5b9091016020810191503567ffffffffffffffff811115610d0357600080fd5b36819003821315610d1357600080fd5b8080601f016020809104026020016040519081016040528093929190818152602001838380828437600092018290525093855250505060208083018290526040909201819052835460018101855593815281902082518051939460030290910192610d819284920190613ded565b50602082015160018083019190915560409092015160029091015501610be1565b506001336001600160a01b0316600454600080516020614d808339815191528d8d88876000015188602001518e604051610de1969594939291906144cd565b60405180910390a45050611161565b60055460ff161561114957600254604051632c9aab9b60e11b81526000916001600160a01b031690635935573690610e2c90339060040161443b565b60206040518083038186803b158015610e4457600080fd5b505afa158015610e58573d6000803e3d6000fd5b505050506040513d601f19601f82011682018060405250610e7c91908101906142c6565b905060065481106111475787610ea45760405162461bcd60e51b815260040161057490614c0b565b428511610ec35760405162461bcd60e51b8152600401610574906146b8565b60018311610ee35760405162461bcd60e51b8152600401610574906147b4565b60048054600101908190556000908152600360205260409020610f04613d55565b60086000856003811115610f1457fe5b60ff16815260208082019290925260409081016000208151808301909252805482526001908101549282019290925283546001600160a01b031916331784559150610f629083018c8c613d6f565b50610f71600283018a8a613d6f565b508051600583015560208101516007830155600982018790556003808301805460ff1916600117808255869261ff001990911690610100908490811115610fb457fe5b021790555060005b858110156110f8576000856003811115610fd257fe5b1461100357610fe785888884818110610c0c57fe5b6110035760405162461bcd60e51b8152600401610574906149a2565b82600801604051806060016040528089898581811061101e57fe5b602002820190508035601e193684900301811261103a57600080fd5b9091016020810191503567ffffffffffffffff81111561105957600080fd5b3681900382131561106957600080fd5b8080601f0160208091040260200160405190810160405280939291908181526020018383808284376000920182905250938552505050602080830182905260409092018190528354600181018555938152819020825180519394600302909101926110d79284920190613ded565b50602082015160018083019190915560409092015160029091015501610fbc565b506001336001600160a01b0316600454600080516020614d808339815191528e8e89876000015188602001518f604051611137969594939291906144cd565b60405180910390a4505050611161565b505b60405162461bcd60e51b815260040161057490614bc9565b5050505050505050565b6040805180820190915260058152640302e312e360dc1b602082015290565b611192612a78565b6000546001600160a01b039081169116146111bf5760405162461bcd60e51b815260040161057490614add565b600980546001600160a01b0319166001600160a01b0392909216919091179055565b6111f0604051610a2d9061440e565b806112055750611205604051610a2d90614425565b156114c157866112275760405162461bcd60e51b815260040161057490614c0b565b4284116112465760405162461bcd60e51b8152600401610574906146b8565b60048054600101908190556000908152600360205260409020611267613d55565b6008600086600381111561127757fe5b60ff16815260208082019290925260409081016000208151808301909252805482526001908101549282019290925283546001600160a01b0319163317845591506112c59083018b8b613d6f565b506112d4600283018989613d6f565b508051600583015560208101516007830155600982018690556003808301805460ff1981168255879261ffff199091169061010090849081111561131457fe5b0217905550600085600381111561132757fe5b146113985761136c8585858080601f01602080910402602001604051908101604052809392919081815260200183838082843760009201919091525061326c92505050565b6113885760405162461bcd60e51b8152600401610574906149a2565b611396600483018585613d6f565b505b6040805160a081018252600360608201818152626e617960e81b6080840152825260006020808401829052938301819052600886018054600181018255908252908490208351805194959290930201926113f59284920190613ded565b50602082810151600180840191909155604093840151600290930192909255825160a0810184526003606082018181526279656160e81b608084015282526000828401819052948201859052600887018054948501815585529382902081518051929594909402019261146c928492910190613ded565b50602082015160018201556040909101516002909101556000336001600160a01b0316600454600080516020614d808339815191528d8d8a876000015188602001518e604051610de1969594939291906144cd565b60055460ff161561114957600254604051632c9aab9b60e11b81526000916001600160a01b0316906359355736906114fd90339060040161443b565b60206040518083038186803b15801561151557600080fd5b505afa158015611529573d6000803e3d6000fd5b505050506040513d601f19601f8201168201806040525061154d91908101906142c6565b9050600654811061114757876115755760405162461bcd60e51b815260040161057490614c0b565b4285116115945760405162461bcd60e51b8152600401610574906146b8565b600480546001019081905560009081526003602052604090206115b5613d55565b600860008760038111156115c557fe5b60ff16815260208082019290925260409081016000208151808301909252805482526001908101549282019290925283546001600160a01b0319163317845591506116139083018c8c613d6f565b50611622600283018a8a613d6f565b508051600583015560208101516007830155600982018790556003808301805460ff1981168255889261ffff199091169061010090849081111561166257fe5b0217905550600086600381111561167557fe5b146116e6576116ba8686868080601f01602080910402602001604051908101604052809392919081815260200183838082843760009201919091525061326c92505050565b6116d65760405162461bcd60e51b8152600401610574906149a2565b6116e4600483018686613d6f565b505b6040805160a081018252600360608201818152626e617960e81b6080840152825260006020808401829052938301819052600886018054600181018255908252908490208351805194959290930201926117439284920190613ded565b50602082810151600180840191909155604093840151600290930192909255825160a0810184526003606082018181526279656160e81b60808401528252600082840181905294820185905260088701805494850181558552938290208151805192959490940201926117ba928492910190613ded565b50602082015160018201556040909101516002909101556000336001600160a01b0316600454600080516020614d808339815191528e8e8b876000015188602001518f604051611137969594939291906144cd565b60008260008111801561182457506004548111155b6118405760405162461bcd60e51b8152600401610574906147f8565b600084815260036020526040902060080180548490811061185d57fe5b90600052602060002090600302016001015491505092915050565b611880612a78565b6000546001600160a01b039081169116146118ad5760405162461bcd60e51b815260040161057490614add565b6118ca6040516118bc90614425565b604051809103902082610673565b50565b6118d5612a78565b6000546001600160a01b039081169116146119025760405162461bcd60e51b815260040161057490614add565b600080546040516001600160a01b03909116907f8be0079c531659141344cd1fd0a4f28419497f9722a3daafe3b4186f6b6457e0908390a3600080546001600160a01b0319169055565b60405161053890614425565b60045490565b60008260008111801561197357506004548111155b61198f5760405162461bcd60e51b8152600401610574906147f8565b50506001600160a01b03166000908152600760209081526040808320938352929052206001015490565b6000546001600160a01b031690565b6000605a4286106119eb5760405162461bcd60e51b815260040161057490614b12565b8086420310611a0c5760405162461bcd60e51b815260040161057490614874565b336000908152600a602052604090205442038110611a3c5760405162461bcd60e51b815260040161057490614700565b611a7e87878787878080601f0160208091040260200160405190810160405280939291908181526020018383808284376000920191909152506134bf92505050565b611a9a5760405162461bcd60e51b815260040161057490614920565b336000818152600a6020526040908190204290556002549051637cc5857960e01b81526001600160a01b0390911691637cc5857991611ade91908b9060040161444f565b600060405180830381600087803b158015611af857600080fd5b505af1158015611b0c573d6000803e3d6000fd5b50505050336001600160a01b03167fb52d0e0c45bba15833f7d429ccdcc4c2bfa8eea764774706120027b76734a44f88604051611b4991906144a6565b60405180910390a25060019695505050505050565b6000828152600160205260408120611b7c908363ffffffff61353816565b90505b92915050565b6000828152600160205260408120611b7c908363ffffffff61354416565b611bab613e5b565b611bb482613559565b9050611bbe613d1d565b611bc783612aeb565b80519091506001600160a01b0316331480611bec5750611bec604051610a2d9061440e565b80611c015750611c01604051610a2d90614425565b611c1d5760405162461bcd60e51b815260040161057490614bc9565b600082604001516003811115611c2f57fe5b1415611c4d5760405162461bcd60e51b815260040161057490614c38565b428260e0015110611c705760405162461bcd60e51b815260040161057490614b49565b600082602001516001811115611c8257fe5b1415611ca9578160c00151611ca95760405162461bcd60e51b81526004016105749061482f565b6060600183602001516001811115611cbd57fe5b1415611ee05760008080805b600088815260036020526040902060080154811015611e0257611cea613ea5565b6000898152600360205260409020600801805483908110611d0757fe5b600091825260209182902060408051600393909302909101805460026001821615610100026000190190911604601f8101859004909402830160809081019092526060830184815292939092849290918491840182828015611daa5780601f10611d7f57610100808354040283529160200191611daa565b820191906000526020600020905b815481529060010190602001808311611d8d57829003601f168201915b505050505081526020016001820154815260200160028201548152505090508381604001511115611de8578194508060400151935060009250611df9565b8381604001511415611df957600192505b50600101611cc9565b508015611e215760405162461bcd60e51b81526004016105749061477d565b6000878152600360205260409020600801805484908110611e3e57fe5b6000918252602091829020600390910201805460408051601f6002600019610100600187161502019094169390930492830185900485028101850190915281815292830182828015611ed15780601f10611ea657610100808354040283529160200191611ed1565b820191906000526020600020905b815481529060010190602001808311611eb457829003601f168201915b50505050509350505050611ee7565b5060808101515b600183604001516003811115611ef957fe5b1415611f84576000611f0a82610764565b60025460405163aa6b3f1160e01b81529192506103e8808404929083028403916001600160a01b03169063aa6b3f1190611f4a9085908590600401614d4f565b600060405180830381600087803b158015611f6457600080fd5b505af1158015611f78573d6000803e3d6000fd5b5050505050505061216b565b600283604001516003811115611f9657fe5b1415611fad57611fa581610764565b60065561216b565b600383604001516003811115611fbf57fe5b141561216b5760408051600180825281830190925282916060919060208201818038833950506040805160068082528183019092529293506060929150602082018180388339505060408051600680825281830190925292935060609291506020820181803883390190505090508351600d1461203b57600080fd5b60005b8451811015612106576001811015612091578460008151811061205d57fe5b602001015160f81c60f81b8460008151811061207557fe5b60200101906001600160f81b031916908160001a9053506120fe565b60078110156120c0578481815181106120a657fe5b602001015160f81c60f81b83600183038151811061207557fe5b8481815181106120cc57fe5b602001015160f81c60f81b8260078303815181106120e657fe5b60200101906001600160f81b031916908160001a9053505b60010161203e565b50600061211283610764565b9050600061211f83610764565b90506040518060400160405280838152602001828152506008600061214388610764565b60ff168152602080820192909252604001600020825181559101516001909101555050505050505b604051339085907f3776071a1b606e078d8aec141249d4c30abe813f5e6752afe84d0c6a25f1388b90600090a350505050565b600081565b606060008060008060008060006121b8613e5b565b6121c18a613559565b905080600001519850806020015197508060400151965080606001519550806080015194508060a0015193508060c0015192508060e00151915050919395975091939597565b60008260008111801561221c57506004548111155b6122385760405162461bcd60e51b8152600401610574906147f8565b612240613ec6565b60008581526003602090815260409182902082516101a08101845281546001600160a01b03168152600180830180548651600261010094831615949094026000190190911692909204601f81018690048602830186019096528582529194929385810193919291908301828280156122f95780601f106122ce576101008083540402835291602001916122f9565b820191906000526020600020905b8154815290600101906020018083116122dc57829003601f168201915b5050509183525050600282810180546040805160206001841615610100026000190190931694909404601f8101839004830285018301909152808452938101939083018282801561238b5780601f106123605761010080835404028352916020019161238b565b820191906000526020600020905b81548152906001019060200180831161236e57829003601f168201915b5050509183525050600382015460209091019060ff1660018111156123ac57fe5b60018111156123b757fe5b81526020016003820160019054906101000a900460ff1660038111156123d957fe5b60038111156123e457fe5b815260048201805460408051602060026001851615610100026000190190941693909304601f81018490048402820184019092528181529382019392918301828280156124725780601f1061244757610100808354040283529160200191612472565b820191906000526020600020905b81548152906001019060200180831161245557829003601f168201915b50505050508152602001600582015481526020016006820160009054906101000a900460ff161515151581526020016007820154815260200160088201805480602002602001604051908101604052809291908181526020016000905b828210156125a45760008481526020908190206040805160038602909201805460026001821615610100026000190190911604601f81018590049094028301608090810190925260608301848152929390928492909184918401828280156125785780601f1061254d57610100808354040283529160200191612578565b820191906000526020600020905b81548152906001019060200180831161255b57829003601f168201915b5050505050815260200160018201548152602001600282015481525050815260200190600101906124cf565b50505050815260200160098201548152602001600a8201548152602001600b8201548152505090508381610120015151116125f15760405162461bcd60e51b815260040161057490614a1b565b6125fb8585612f6a565b95945050505050565b6000818152600160205260408120611b7f90613a49565b60008281526001602052604090206002015461263990610432612a78565b61075a5760405162461bcd60e51b815260040161057490614a4b565b6000612666604051610a2d9061440e565b8061267b575061267b604051610a2d90614425565b15612688575060016107f7565b60055460ff161561272b57600254604051632c9aab9b60e11b81526000916001600160a01b0316906359355736906126c490339060040161443b565b60206040518083038186803b1580156126dc57600080fd5b505afa1580156126f0573d6000803e3d6000fd5b505050506040513d601f19601f8201168201806040525061271491908101906142c6565b905060065481106127295760019150506107f7565b505b50600090565b6004546000818152600360209081526040808320600190810180548351600293821615610100026000190190911692909204601f8101859004850283018501909352828252606094938493908301828280156127ce5780601f106127a3576101008083540402835291602001916127ce565b820191906000526020600020905b8154815290600101906020018083116127b157829003601f168201915b505050600087815260036020819052604090912001549697929660ff80821697506101009091041694509192505050565b60608260008111801561281457506004548111155b6128305760405162461bcd60e51b8152600401610574906147f8565b60008481526003602052604090206008015483106128605760405162461bcd60e51b815260040161057490614a1b565b600084815260036020526040902060080180548490811061287d57fe5b6000918252602091829020600390910201805460408051601f60026000196101006001871615020190941693909304928301859004850281018501909152818152928301828280156129105780601f106128e557610100808354040283529160200191612910565b820191906000526020600020905b8154815290600101906020018083116128f357829003601f168201915b505050505091505092915050565b60008160008111801561293357506004548111155b61294f5760405162461bcd60e51b8152600401610574906147f8565b505060009081526003602052604090206008015490565b61296e612a78565b6000546001600160a01b0390811691161461299b5760405162461bcd60e51b815260040161057490614add565b6001600160a01b0381166129c15760405162461bcd60e51b815260040161057490614737565b600080546040516001600160a01b03808516939216917f8be0079c531659141344cd1fd0a4f28419497f9722a3daafe3b4186f6b6457e091a3600080546001600160a01b0319166001600160a01b0392909216919091179055565b60008060086000846003811115612a2f57fe5b60ff1660ff16815260200190815260200160002060000154915060086000846003811115612a5957fe5b60ff1660ff168152602001908152602001600020600101549050915091565b3390565b6000828152600160205260409020612a9a908263ffffffff613a5416565b1561067d57612aa7612a78565b6001600160a01b0316816001600160a01b0316837f2f8788117e7eff1d82e926ec794901d17c78024a50270940304540a733656f0d60405160405180910390a45050565b612af3613d1d565b81600081118015612b0657506004548111155b612b225760405162461bcd60e51b8152600401610574906147f8565b612b2a613ec6565b60008481526003602090815260409182902082516101a08101845281546001600160a01b03168152600180830180548651600261010094831615949094026000190190911692909204601f8101869004860283018601909652858252919492938581019391929190830182828015612be35780601f10612bb857610100808354040283529160200191612be3565b820191906000526020600020905b815481529060010190602001808311612bc657829003601f168201915b5050509183525050600282810180546040805160206001841615610100026000190190931694909404601f81018390048302850183019091528084529381019390830182828015612c755780601f10612c4a57610100808354040283529160200191612c75565b820191906000526020600020905b815481529060010190602001808311612c5857829003601f168201915b5050509183525050600382015460209091019060ff166001811115612c9657fe5b6001811115612ca157fe5b81526020016003820160019054906101000a900460ff166003811115612cc357fe5b6003811115612cce57fe5b815260048201805460408051602060026001851615610100026000190190941693909304601f8101849004840282018401909252818152938201939291830182828015612d5c5780601f10612d3157610100808354040283529160200191612d5c565b820191906000526020600020905b815481529060010190602001808311612d3f57829003601f168201915b50505050508152602001600582015481526020016006820160009054906101000a900460ff161515151581526020016007820154815260200160088201805480602002602001604051908101604052809291908181526020016000905b82821015612e8e5760008481526020908190206040805160038602909201805460026001821615610100026000190190911604601f8101859004909402830160809081019092526060830184815292939092849290918491840182828015612e625780601f10612e3757610100808354040283529160200191612e62565b820191906000526020600020905b815481529060010190602001808311612e4557829003601f168201915b505050505081526020016001820154815260200160028201548152505081526020019060010190612db9565b505050908252506009820154602080830191909152600a830154604080840191909152600b9093015460609283015283516001600160a01b0316875260c084015190870152610100830151918601919091526101808201519085015260a001516080840152509092915050565b6000828152600160205260409020612f19908263ffffffff613a6916565b1561067d57612f26612a78565b6001600160a01b0316816001600160a01b0316837ff6391f5c32d9c69d2a47ea670b442974b53935d1edc7fd64eb21e047a839171b60405160405180910390a45050565b600082600081118015612f7f57506004548111155b612f9b5760405162461bcd60e51b8152600401610574906147f8565b60008481526003602052604090206009810154421115612fbf57600092505061071b565b600254604051632c9aab9b60e11b815233916000916001600160a01b0390911690635935573690612ff490859060040161443b565b60206040518083038186803b15801561300c57600080fd5b505afa158015613020573d6000803e3d6000fd5b505050506040513d601f19601f8201168201806040525061304491908101906142c6565b9050600081116130665760405162461bcd60e51b815260040161057490614957565b6001600160a01b03821660009081526007602090815260408083208a8452909152902060010154156130aa5760405162461bcd60e51b8152600401610574906148e9565b60408051808201825287815260208082018481526001600160a01b0386166000908152600783528481208c8252909252929020905181559051600191820155600b840180549091019055600a83018054820190556008830180548790811061310e57fe5b9060005260206000209060030201600101600081548092919060010191905055508083600801878154811061313f57fe5b6000918252602090912060026003909202010180549091019055600683015460ff1661321c576002546040805163ca5c7b9160e01b815290516000926001600160a01b03169163ca5c7b91916004808301926020929190829003018186803b1580156131aa57600080fd5b505afa1580156131be573d6000803e3d6000fd5b505050506040513d601f19601f820116820180604052506131e291908101906142c6565b600a850154909150620186a00260008282816131fa57fe5b049050856005015481106132185760068601805460ff191660011790555b5050505b85826001600160a01b0316887f8eea3a81425aea5e440ed6b6289a8aea0db8025c75fdeb1434bd8165017703408460405161325791906144a6565b60405180910390a45060019695505050505050565b60008083600381111561327b57fe5b141561328957506001611b7f565b600183600381111561329757fe5b14156132c15760006132a883610764565b6103e8808204908102909103016064149150611b7f9050565b60028360038111156132cf57fe5b14156132eb5760006132e083610764565b15159150611b7f9050565b60038360038111156132f957fe5b14156134b65781518290600d1461330f57600080fd5b604080516001808252818301909252606091602082018180388339505060408051600680825281830190925292935060609291506020820181803883395050604080516006808252818301909252929350606092915060208201818038833901905050905060005b845181101561343f5760018110156133ca578460008151811061339657fe5b602001015160f81c60f81b846000815181106133ae57fe5b60200101906001600160f81b031916908160001a905350613437565b60078110156133f9578481815181106133df57fe5b602001015160f81c60f81b8360018303815181106133ae57fe5b84818151811061340557fe5b602001015160f81c60f81b82600783038151811061341f57fe5b60200101906001600160f81b031916908160001a9053505b600101613377565b50600061344b83610764565b9050600061345883610764565b90506000808311801561346e5750620186a08311155b905080801561347d5750600082115b801561348c5750620186a08211155b90508080156134a7575060036134a187610764565b60ff1611155b9750611b7f9650505050505050565b50600092915050565b6000803386866040516020016134d7939291906143e4565b60405160208183030381529060405280519060200120905080841461350e5760405162461bcd60e51b815260040161057490614b92565b6009546001600160a01b03166135248585613a7e565b6001600160a01b0316149695505050505050565b6000611b7c8383613bac565b6000611b7c836001600160a01b038416613bf1565b613561613e5b565b8160008111801561357457506004548111155b6135905760405162461bcd60e51b8152600401610574906147f8565b613598613ec6565b60008481526003602090815260409182902082516101a08101845281546001600160a01b03168152600180830180548651600261010094831615949094026000190190911692909204601f81018690048602830186019096528582529194929385810193919291908301828280156136515780601f1061362657610100808354040283529160200191613651565b820191906000526020600020905b81548152906001019060200180831161363457829003601f168201915b5050509183525050600282810180546040805160206001841615610100026000190190931694909404601f810183900483028501830190915280845293810193908301828280156136e35780601f106136b8576101008083540402835291602001916136e3565b820191906000526020600020905b8154815290600101906020018083116136c657829003601f168201915b5050509183525050600382015460209091019060ff16600181111561370457fe5b600181111561370f57fe5b81526020016003820160019054906101000a900460ff16600381111561373157fe5b600381111561373c57fe5b815260048201805460408051602060026001851615610100026000190190941693909304601f81018490048402820184019092528181529382019392918301828280156137ca5780601f1061379f576101008083540402835291602001916137ca565b820191906000526020600020905b8154815290600101906020018083116137ad57829003601f168201915b50505050508152602001600582015481526020016006820160009054906101000a900460ff161515151581526020016007820154815260200160088201805480602002602001604051908101604052809291908181526020016000905b828210156138fc5760008481526020908190206040805160038602909201805460026001821615610100026000190190911604601f81018590049094028301608090810190925260608301848152929390928492909184918401828280156138d05780601f106138a5576101008083540402835291602001916138d0565b820191906000526020600020905b8154815290600101906020018083116138b357829003601f168201915b505050505081526020016001820154815260200160028201548152505081526020019060010190613827565b505050908252506009820154602080830191909152600a8301546040830152600b90920154606091820152828201518652820151919250840190600181111561394157fe5b9081600181111561394e57fe5b90525060808101516040840190600381111561396657fe5b9081600381111561397357fe5b90525061014081015160e080850191909152810151151560a08401526000836020015160018111156139a157fe5b1415613a42578061012001516000815181106139b957fe5b6020026020010151604001518360600181815250508061012001516001815181106139e057fe5b602002602001015160400151836080018181525050428360e00151108015613a0957508260a001515b15613a3a578061016001518360800151620186a00281613a2557fe5b610100830151919004101560c0840152613a42565b600060c08401525b5050919050565b6000611b7f82613c09565b6000611b7c836001600160a01b038416613c0d565b6000611b7c836001600160a01b038416613c57565b60008151604114613aa15760405162461bcd60e51b815260040161057490614681565b60208201516040830151606084015160001a7f7fffffffffffffffffffffffffffffff5d576e7357a4501ddfe92f46681b20a0821115613af35760405162461bcd60e51b8152600401610574906149d9565b8060ff16601b14158015613b0b57508060ff16601c14155b15613b285760405162461bcd60e51b815260040161057490614a9b565b600060018783868660405160008152602001604052604051613b4d94939291906144af565b6020604051602081039080840390855afa158015613b6f573d6000803e3d6000fd5b5050604051601f1901519150506001600160a01b038116613ba25760405162461bcd60e51b8152600401610574906145b9565b9695505050505050565b81546000908210613bcf5760405162461bcd60e51b8152600401610574906145f0565b826000018281548110613bde57fe5b9060005260206000200154905092915050565b60009081526001919091016020526040902054151590565b5490565b6000613c198383613bf1565b613c4f57508154600181810184556000848152602080822090930184905584548482528286019093526040902091909155611b7f565b506000611b7f565b60008181526001830160205260408120548015613d135783546000198083019190810190600090879083908110613c8a57fe5b9060005260206000200154905080876000018481548110613ca757fe5b600091825260208083209091019290925582815260018981019092526040902090840190558654879080613cd757fe5b60019003818190600052602060002001600090559055866001016000878152602001908152602001600020600090556001945050505050611b7f565b6000915050611b7f565b6040518060a0016040528060006001600160a01b03168152602001600081526020016000815260200160008152602001606081525090565b604051806040016040528060008152602001600081525090565b828054600181600116156101000203166002900490600052602060002090601f016020900481019282601f10613db05782800160ff19823516178555613ddd565b82800160010185558215613ddd579182015b82811115613ddd578235825591602001919060010190613dc2565b50613de9929150613f44565b5090565b828054600181600116156101000203166002900490600052602060002090601f016020900481019282601f10613e2e57805160ff1916838001178555613ddd565b82800160010185558215613ddd579182015b82811115613ddd578251825591602001919060010190613e40565b604080516101008101909152606081526020810160008152602001600081526020016000815260200160008152602001600015158152602001600015158152602001600081525090565b60405180606001604052806060815260200160008152602001600081525090565b604051806101a0016040528060006001600160a01b03168152602001606081526020016060815260200160006001811115613efd57fe5b815260200160008152602001606081526020016000815260200160001515815260200160008152602001606081526020016000815260200160008152602001600081525090565b6107f791905b80821115613de95760008155600101613f4a565b80356001600160a01b0381168114611b7f57600080fd5b60008083601f840112613f86578182fd5b50813567ffffffffffffffff811115613f9d578182fd5b602083019150836020828501011115613fb557600080fd5b9250929050565b803560048110611b7f57600080fd5b600060208284031215613fdc578081fd5b611b7c8383613f5e565b60008060408385031215613ff8578081fd5b82358015158114614007578182fd5b946020939093013593505050565b600060208284031215614026578081fd5b5035919050565b6000806040838503121561403f578182fd5b8235915060208301356001600160a01b038116811461405c578182fd5b809150509250929050565b60008060408385031215614079578182fd5b50508035926020909101359150565b600060208284031215614099578081fd5b611b7c8383613fbc565b60008060008060008060008060a0898b0312156140be578384fd5b883567ffffffffffffffff808211156140d5578586fd5b6140e18c838d01613f75565b909a50985060208b01359150808211156140f9578586fd5b6141058c838d01613f75565b909850965060408b0135955060608b0135915080821115614124578485fd5b818b018c601f820112614135578586fd5b8035925081831115614145578586fd5b8c60208085028301011115614158578586fd5b602001945090925061416f90508a60808b01613fbc565b90509295985092959890939650565b60008060008060008060008060a0898b031215614199578384fd5b883567ffffffffffffffff808211156141b0578586fd5b6141bc8c838d01613f75565b909a50985060208b01359150808211156141d4578586fd5b6141e08c838d01613f75565b909850965060408b0135955060608b01359150600482106141ff578485fd5b90935060808a01359080821115614214578384fd5b506142218b828c01613f75565b999c989b5096995094979396929594505050565b600060208284031215614246578081fd5b813567ffffffffffffffff8082111561425d578283fd5b81840185601f82011261426e578384fd5b803592508183111561427e578384fd5b604051601f8401601f19168101602001838111828210171561429e578586fd5b6040528381528184016020018710156142b5578485fd5b613ba2846020830160208501614d73565b6000602082840312156142d7578081fd5b5051919050565b600080604083850312156142f0578182fd5b823591506143018460208501613f5e565b90509250929050565b6000806040838503121561431c578182fd5b8235915060208301356001600160e01b03198116811461405c578182fd5b600080600080600060808688031215614351578283fd5b853594506020860135935060408601359250606086013567ffffffffffffffff81111561437c578182fd5b61438888828901613f75565b969995985093965092949392505050565b60008151808452815b818110156143be576020818501810151868301820152016143a2565b818111156143cf5782602083870101525b50601f01601f19169290920160200192915050565b60609390931b6bffffffffffffffffffffffff191683526014830191909152603482015260540190565b6a564f54494e475f524f4c4560a81b8152600b0190565b6941444d494e5f524f4c4560b01b8152600a0190565b6001600160a01b0391909116815260200190565b6001600160a01b03929092168252602082015260400190565b600060018060a01b038716825285602083015284604083015283606083015260a060808301526108db60a0830184614399565b901515815260200190565b90815260200190565b93845260ff9290921660208401526040830152606082015260800190565b600060a082528660a0830152868860c08401378060c0888401015260c0601f19601f890116830101905061450086614d68565b6020830152846040830152836060830152826080830152979650505050505050565b600060208252611b7c6020830184614399565b60006101008083526145498184018c614399565b91505061455589614d5d565b602083015261456388614d68565b60408301526060820196909652608081019490945291151560a0840152151560c083015260e0909101529392505050565b6000606082526145a76060830186614399565b60208301949094525060400152919050565b60208082526018908201527f45434453413a20696e76616c6964207369676e61747572650000000000000000604082015260600190565b60208082526022908201527f456e756d657261626c655365743a20696e646578206f7574206f6620626f756e604082015261647360f01b606082015260800190565b6020808252602f908201527f416363657373436f6e74726f6c3a2073656e646572206d75737420626520616e60408201526e0818591b5a5b881d1bc819dc985b9d608a1b606082015260800190565b6020808252601f908201527f45434453413a20696e76616c6964207369676e6174757265206c656e67746800604082015260600190565b60208082526028908201527f566f74696e673a2074696d65206d75737420626520626967676572207468616e6040820152670818dd5c9c995b9d60c21b606082015260800190565b60208082526018908201527f526577617264696e673a20667265657a6520706572696f640000000000000000604082015260600190565b60208082526026908201527f4f776e61626c653a206e6577206f776e657220697320746865207a65726f206160408201526564647265737360d01b606082015260800190565b60208082526019908201527f566f74696e673a206e6f206c656164696e67206f7074696f6e00000000000000604082015260600190565b60208082526024908201527f566f74696e673a206d757374206265206174206c656173742074776f206f7074604082015263696f6e7360e01b606082015260800190565b6020808252601f908201527f566f74696e673a2070726f706f73616c20646f6573206e6f7420657869737400604082015260600190565b60208082526025908201527f566f74696e673a20746869732070726f706f73616c206974206e6f7420616363604082015264195c1d195960da1b606082015260800190565b60208082526013908201527214995dd85c991a5b99ce88195e1c1a5c9a5959606a1b604082015260600190565b60208082526028908201527f566f74696e673a20706c656173652063686f6f736520616e206f7074696f6e206040820152670c4f240d2dcc8caf60c31b606082015260800190565b6020808252601e908201527f566f74696e673a20796f75206861766520616c726561647920766f7465640000604082015260600190565b6020808252601e908201527f526577617264696e673a20696e636f7272656374207369676e61747572650000604082015260600190565b6020808252602b908201527f566f74696e673a20796f75206861766520746f206c6f636b20796f757220746f60408201526a6b656e73206265666f726560a81b606082015260800190565b6020808252601f908201527f566f74696e673a20696e636f7272656374207570646174696e67206461746100604082015260600190565b60208082526022908201527f45434453413a20696e76616c6964207369676e6174757265202773272076616c604082015261756560f01b606082015260800190565b602080825260169082015275566f74696e673a206f7574206f6620696e646578657360501b604082015260600190565b60208082526030908201527f416363657373436f6e74726f6c3a2073656e646572206d75737420626520616e60408201526f2061646d696e20746f207265766f6b6560801b606082015260800190565b60208082526022908201527f45434453413a20696e76616c6964207369676e6174757265202776272076616c604082015261756560f01b606082015260800190565b6020808252818101527f4f776e61626c653a2063616c6c6572206973206e6f7420746865206f776e6572604082015260600190565b6020808252601e908201527f526577617264696e673a20696e636f72726563742074696d657374616d700000604082015260600190565b60208082526029908201527f566f74696e673a20766f74696e6720706572696f64206973206e6f742066696e6040820152681a5cda1959081e595d60ba1b606082015260800190565b60208082526019908201527f526577617264696e673a20696e636f7272656374206861736800000000000000604082015260600190565b60208082526022908201527f566f74696e673a20796f7520646f206e6f742068617665207065726d6973736960408201526137b760f11b606082015260800190565b602080825260139082015272566f74696e673a20656d707479207469746c6560681b604082015260600190565b60208082526027908201527f566f74696e673a20746869732070726f706f73616c206973206e6f742065786560408201526663757461626c6560c81b606082015260800190565b6020808252602f908201527f416363657373436f6e74726f6c3a2063616e206f6e6c792072656e6f756e636560408201526e103937b632b9903337b91039b2b63360891b606082015260800190565b60208082526021908201527f566f74696e673a20796f752073686f756c642073617920796561206f72206e616040820152607960f81b606082015260800190565b600085825260806020830152614d286080830186614399565b9050614d3384614d5d565b6040830152614d4183614d68565b606083015295945050505050565b918252602082015260400190565b806002811061063457fe5b806004811061063457fe5b8281833750600091015256fea58917be9e97f10d8f5ce9fb9644dc60d5e17d8279c0f60c764344720d2fde7ea264697066735822122031247291edbc9b70658f26fec01fc8e562e9fc4574f2b36834805986591f1c4764736f6c63430006020033",
  "source": "// SPDX-License-Identifier: GPL-3.0\npragma solidity 0.6.2;\npragma experimental ABIEncoderV2;\n\n\nimport \"./ICitadelDaoTransport.sol\";\nimport \"./DAO/Rewarding.sol\";\n\n\n// version 1\ncontract CitadelDao is Rewarding {\n\n    constructor (address token) public {\n        _Token = ICitadelDaoTransport(token);\n    }\n\n    function version() external pure returns (string memory) {\n        return '0.1.0';\n    }\n\n}\n",
  "sourcePath": "/home/pirat/Desktop/DAO/contracts/CitadelDao.sol",
  "compiler": {
    "name": "solc",
    "version": "0.6.2+commit.bacdbe57.Emscripten.clang"
  },
  "schemaVersion": "3.2.5",
  "updatedAt": "2021-06-01T14:38:46.629Z",
  "networkType": "ethereum",
  "devdoc": {
    "methods": {
      "getRoleAdmin(bytes32)": {
        "details": "Returns the admin role that controls `role`. See {grantRole} and {revokeRole}.     * To change a role's admin, use {_setRoleAdmin}."
      },
      "getRoleMember(bytes32,uint256)": {
        "details": "Returns one of the accounts that have `role`. `index` must be a value between 0 and {getRoleMemberCount}, non-inclusive.     * Role bearers are not sorted in any particular way, and their ordering may change at any point.     * WARNING: When using {getRoleMember} and {getRoleMemberCount}, make sure you perform all queries on the same block. See the following https://forum.openzeppelin.com/t/iterating-over-elements-on-enumerableset-in-openzeppelin-contracts/2296[forum post] for more information."
      },
      "getRoleMemberCount(bytes32)": {
        "details": "Returns the number of accounts that have `role`. Can be used together with {getRoleMember} to enumerate all bearers of a role."
      },
      "grantRole(bytes32,address)": {
        "details": "Grants `role` to `account`.     * If `account` had not been already granted `role`, emits a {RoleGranted} event.     * Requirements:     * - the caller must have ``role``'s admin role."
      },
      "hasRole(bytes32,address)": {
        "details": "Returns `true` if `account` has been granted `role`."
      },
      "owner()": {
        "details": "Returns the address of the current owner."
      },
      "renounceOwnership()": {
        "details": "Leaves the contract without owner. It will not be possible to call `onlyOwner` functions anymore. Can only be called by the current owner.     * NOTE: Renouncing ownership will leave the contract without an owner, thereby removing any functionality that is only available to the owner."
      },
      "renounceRole(bytes32,address)": {
        "details": "Revokes `role` from the calling account.     * Roles are often managed via {grantRole} and {revokeRole}: this function's purpose is to provide a mechanism for accounts to lose their privileges if they are compromised (such as when a trusted device is misplaced).     * If the calling account had been granted `role`, emits a {RoleRevoked} event.     * Requirements:     * - the caller must be `account`."
      },
      "revokeRole(bytes32,address)": {
        "details": "Revokes `role` from `account`.     * If `account` had been granted `role`, emits a {RoleRevoked} event.     * Requirements:     * - the caller must have ``role``'s admin role."
      },
      "transferOwnership(address)": {
        "details": "Transfers ownership of the contract to a new account (`newOwner`). Can only be called by the current owner."
      }
    }
  },
  "userdoc": {
    "methods": {}
  }
}