{
  "contractName": "CitadelTest",
  "abi": [
    {
      "inputs": [],
      "stateMutability": "nonpayable",
      "type": "constructor"
    },
    {
      "anonymous": false,
      "inputs": [
        {
          "indexed": true,
          "internalType": "address",
          "name": "owner",
          "type": "address"
        },
        {
          "indexed": true,
          "internalType": "address",
          "name": "spender",
          "type": "address"
        },
        {
          "indexed": false,
          "internalType": "uint256",
          "name": "value",
          "type": "uint256"
        }
      ],
      "name": "Approval",
      "type": "event"
    },
    {
      "anonymous": false,
      "inputs": [
        {
          "indexed": true,
          "internalType": "uint256",
          "name": "issueId",
          "type": "uint256"
        },
        {
          "indexed": false,
          "internalType": "uint256",
          "name": "pct",
          "type": "uint256"
        }
      ],
      "name": "ChangeInflation",
      "type": "event"
    },
    {
      "anonymous": false,
      "inputs": [
        {
          "indexed": true,
          "internalType": "uint256",
          "name": "issueId",
          "type": "uint256"
        },
        {
          "indexed": false,
          "internalType": "uint256",
          "name": "pct",
          "type": "uint256"
        }
      ],
      "name": "ChangeVesting",
      "type": "event"
    },
    {
      "anonymous": false,
      "inputs": [
        {
          "indexed": false,
          "internalType": "uint256",
          "name": "index",
          "type": "uint256"
        }
      ],
      "name": "InflationUpdated",
      "type": "event"
    },
    {
      "anonymous": false,
      "inputs": [
        {
          "indexed": false,
          "internalType": "address",
          "name": "addr",
          "type": "address"
        }
      ],
      "name": "NewDaoTransport",
      "type": "event"
    },
    {
      "anonymous": false,
      "inputs": [
        {
          "indexed": false,
          "internalType": "address",
          "name": "addr",
          "type": "address"
        }
      ],
      "name": "NewVestingTransport",
      "type": "event"
    },
    {
      "anonymous": false,
      "inputs": [
        {
          "indexed": true,
          "internalType": "address",
          "name": "previousOwner",
          "type": "address"
        },
        {
          "indexed": true,
          "internalType": "address",
          "name": "newOwner",
          "type": "address"
        }
      ],
      "name": "OwnershipTransferred",
      "type": "event"
    },
    {
      "anonymous": false,
      "inputs": [
        {
          "indexed": false,
          "internalType": "address",
          "name": "account",
          "type": "address"
        }
      ],
      "name": "Paused",
      "type": "event"
    },
    {
      "anonymous": false,
      "inputs": [
        {
          "indexed": false,
          "internalType": "uint256",
          "name": "date",
          "type": "uint256"
        }
      ],
      "name": "SetInflationStart",
      "type": "event"
    },
    {
      "anonymous": false,
      "inputs": [
        {
          "indexed": true,
          "internalType": "address",
          "name": "from",
          "type": "address"
        },
        {
          "indexed": true,
          "internalType": "address",
          "name": "to",
          "type": "address"
        },
        {
          "indexed": false,
          "internalType": "uint256",
          "name": "value",
          "type": "uint256"
        }
      ],
      "name": "Transfer",
      "type": "event"
    },
    {
      "anonymous": false,
      "inputs": [
        {
          "indexed": false,
          "internalType": "address",
          "name": "account",
          "type": "address"
        }
      ],
      "name": "Unpaused",
      "type": "event"
    },
    {
      "inputs": [
        {
          "internalType": "address",
          "name": "owner",
          "type": "address"
        },
        {
          "internalType": "address",
          "name": "spender",
          "type": "address"
        }
      ],
      "name": "allowance",
      "outputs": [
        {
          "internalType": "uint256",
          "name": "",
          "type": "uint256"
        }
      ],
      "stateMutability": "view",
      "type": "function"
    },
    {
      "inputs": [
        {
          "internalType": "address",
          "name": "spender",
          "type": "address"
        },
        {
          "internalType": "uint256",
          "name": "amount",
          "type": "uint256"
        }
      ],
      "name": "approve",
      "outputs": [
        {
          "internalType": "bool",
          "name": "",
          "type": "bool"
        }
      ],
      "stateMutability": "nonpayable",
      "type": "function"
    },
    {
      "inputs": [
        {
          "internalType": "address",
          "name": "account",
          "type": "address"
        }
      ],
      "name": "balanceOf",
      "outputs": [
        {
          "internalType": "uint256",
          "name": "",
          "type": "uint256"
        }
      ],
      "stateMutability": "view",
      "type": "function"
    },
    {
      "inputs": [
        {
          "internalType": "uint256",
          "name": "amount",
          "type": "uint256"
        }
      ],
      "name": "burn",
      "outputs": [],
      "stateMutability": "nonpayable",
      "type": "function"
    },
    {
      "inputs": [],
      "name": "countInflationPoints",
      "outputs": [
        {
          "internalType": "uint256",
          "name": "",
          "type": "uint256"
        }
      ],
      "stateMutability": "view",
      "type": "function"
    },
    {
      "inputs": [],
      "name": "decimals",
      "outputs": [
        {
          "internalType": "uint8",
          "name": "",
          "type": "uint8"
        }
      ],
      "stateMutability": "view",
      "type": "function"
    },
    {
      "inputs": [
        {
          "internalType": "address",
          "name": "spender",
          "type": "address"
        },
        {
          "internalType": "uint256",
          "name": "subtractedValue",
          "type": "uint256"
        }
      ],
      "name": "decreaseAllowance",
      "outputs": [
        {
          "internalType": "bool",
          "name": "",
          "type": "bool"
        }
      ],
      "stateMutability": "nonpayable",
      "type": "function"
    },
    {
      "inputs": [
        {
          "internalType": "address",
          "name": "from",
          "type": "address"
        },
        {
          "internalType": "uint256",
          "name": "amount",
          "type": "uint256"
        }
      ],
      "name": "delegateToDAO",
      "outputs": [],
      "stateMutability": "nonpayable",
      "type": "function"
    },
    {
      "inputs": [
        {
          "internalType": "address",
          "name": "to",
          "type": "address"
        },
        {
          "internalType": "uint256",
          "name": "amount",
          "type": "uint256"
        }
      ],
      "name": "delegateTokens",
      "outputs": [],
      "stateMutability": "nonpayable",
      "type": "function"
    },
    {
      "inputs": [],
      "name": "deployDate",
      "outputs": [
        {
          "internalType": "uint256",
          "name": "",
          "type": "uint256"
        }
      ],
      "stateMutability": "view",
      "type": "function"
    },
    {
      "inputs": [],
      "name": "deployed",
      "outputs": [
        {
          "internalType": "uint256",
          "name": "",
          "type": "uint256"
        }
      ],
      "stateMutability": "view",
      "type": "function"
    },
    {
      "inputs": [],
      "name": "getDaoAddress",
      "outputs": [
        {
          "internalType": "address",
          "name": "",
          "type": "address"
        }
      ],
      "stateMutability": "view",
      "type": "function"
    },
    {
      "inputs": [],
      "name": "getInflationStartDate",
      "outputs": [
        {
          "internalType": "uint256",
          "name": "",
          "type": "uint256"
        }
      ],
      "stateMutability": "view",
      "type": "function"
    },
    {
      "inputs": [],
      "name": "getMaxSupply",
      "outputs": [
        {
          "internalType": "uint256",
          "name": "",
          "type": "uint256"
        }
      ],
      "stateMutability": "view",
      "type": "function"
    },
    {
      "inputs": [],
      "name": "getSavedInflationYear",
      "outputs": [
        {
          "internalType": "uint256",
          "name": "",
          "type": "uint256"
        }
      ],
      "stateMutability": "view",
      "type": "function"
    },
    {
      "inputs": [],
      "name": "getVestingAddress",
      "outputs": [
        {
          "internalType": "address",
          "name": "",
          "type": "address"
        }
      ],
      "stateMutability": "view",
      "type": "function"
    },
    {
      "inputs": [
        {
          "internalType": "address",
          "name": "spender",
          "type": "address"
        },
        {
          "internalType": "uint256",
          "name": "addedValue",
          "type": "uint256"
        }
      ],
      "name": "increaseAllowance",
      "outputs": [
        {
          "internalType": "bool",
          "name": "",
          "type": "bool"
        }
      ],
      "stateMutability": "nonpayable",
      "type": "function"
    },
    {
      "inputs": [
        {
          "internalType": "uint256",
          "name": "index",
          "type": "uint256"
        }
      ],
      "name": "inflationPoint",
      "outputs": [
        {
          "components": [
            {
              "internalType": "uint256",
              "name": "inflationPct",
              "type": "uint256"
            },
            {
              "internalType": "uint256",
              "name": "stakingPct",
              "type": "uint256"
            },
            {
              "internalType": "uint256",
              "name": "currentSupply",
              "type": "uint256"
            },
            {
              "internalType": "uint256",
              "name": "yearlySupply",
              "type": "uint256"
            },
            {
              "internalType": "uint256",
              "name": "date",
              "type": "uint256"
            }
          ],
          "internalType": "struct CitadelInflation.InflationValues",
          "name": "",
          "type": "tuple"
        }
      ],
      "stateMutability": "view",
      "type": "function"
    },
    {
      "inputs": [
        {
          "internalType": "address",
          "name": "daoAddress",
          "type": "address"
        }
      ],
      "name": "initDaoTransport",
      "outputs": [],
      "stateMutability": "nonpayable",
      "type": "function"
    },
    {
      "inputs": [
        {
          "internalType": "address",
          "name": "vestAddress",
          "type": "address"
        }
      ],
      "name": "initVestingTransport",
      "outputs": [],
      "stateMutability": "nonpayable",
      "type": "function"
    },
    {
      "inputs": [
        {
          "internalType": "address",
          "name": "addr",
          "type": "address"
        },
        {
          "internalType": "uint256",
          "name": "index",
          "type": "uint256"
        }
      ],
      "name": "lockHistory",
      "outputs": [
        {
          "internalType": "uint256",
          "name": "value",
          "type": "uint256"
        },
        {
          "internalType": "uint256",
          "name": "date",
          "type": "uint256"
        }
      ],
      "stateMutability": "view",
      "type": "function"
    },
    {
      "inputs": [
        {
          "internalType": "address",
          "name": "addr",
          "type": "address"
        }
      ],
      "name": "lockHistoryCount",
      "outputs": [
        {
          "internalType": "uint256",
          "name": "",
          "type": "uint256"
        }
      ],
      "stateMutability": "view",
      "type": "function"
    },
    {
      "inputs": [
        {
          "internalType": "address",
          "name": "account",
          "type": "address"
        }
      ],
      "name": "lockedBalanceOf",
      "outputs": [
        {
          "internalType": "uint256",
          "name": "",
          "type": "uint256"
        }
      ],
      "stateMutability": "view",
      "type": "function"
    },
    {
      "inputs": [
        {
          "internalType": "address",
          "name": "",
          "type": "address"
        }
      ],
      "name": "lockedCoins",
      "outputs": [
        {
          "internalType": "uint256",
          "name": "",
          "type": "uint256"
        }
      ],
      "stateMutability": "view",
      "type": "function"
    },
    {
      "inputs": [],
      "name": "lockedSupply",
      "outputs": [
        {
          "internalType": "uint256",
          "name": "",
          "type": "uint256"
        }
      ],
      "stateMutability": "view",
      "type": "function"
    },
    {
      "inputs": [],
      "name": "name",
      "outputs": [
        {
          "internalType": "string",
          "name": "",
          "type": "string"
        }
      ],
      "stateMutability": "view",
      "type": "function"
    },
    {
      "inputs": [],
      "name": "owner",
      "outputs": [
        {
          "internalType": "address",
          "name": "",
          "type": "address"
        }
      ],
      "stateMutability": "view",
      "type": "function"
    },
    {
      "inputs": [],
      "name": "paused",
      "outputs": [
        {
          "internalType": "bool",
          "name": "",
          "type": "bool"
        }
      ],
      "stateMutability": "view",
      "type": "function"
    },
    {
      "inputs": [
        {
          "internalType": "address",
          "name": "to",
          "type": "address"
        },
        {
          "internalType": "uint256",
          "name": "amount",
          "type": "uint256"
        }
      ],
      "name": "redeemFromDAO",
      "outputs": [],
      "stateMutability": "nonpayable",
      "type": "function"
    },
    {
      "inputs": [],
      "name": "renounceOwnership",
      "outputs": [],
      "stateMutability": "nonpayable",
      "type": "function"
    },
    {
      "inputs": [],
      "name": "restake",
      "outputs": [],
      "stateMutability": "nonpayable",
      "type": "function"
    },
    {
      "inputs": [
        {
          "internalType": "uint256",
          "name": "amount",
          "type": "uint256"
        }
      ],
      "name": "stake",
      "outputs": [],
      "stateMutability": "nonpayable",
      "type": "function"
    },
    {
      "inputs": [],
      "name": "startInflation",
      "outputs": [],
      "stateMutability": "nonpayable",
      "type": "function"
    },
    {
      "inputs": [
        {
          "internalType": "uint256",
          "name": "date",
          "type": "uint256"
        }
      ],
      "name": "startInflationTo",
      "outputs": [],
      "stateMutability": "nonpayable",
      "type": "function"
    },
    {
      "inputs": [],
      "name": "symbol",
      "outputs": [
        {
          "internalType": "string",
          "name": "",
          "type": "string"
        }
      ],
      "stateMutability": "view",
      "type": "function"
    },
    {
      "inputs": [],
      "name": "totalSupply",
      "outputs": [
        {
          "internalType": "uint256",
          "name": "",
          "type": "uint256"
        }
      ],
      "stateMutability": "view",
      "type": "function"
    },
    {
      "inputs": [
        {
          "internalType": "uint256",
          "name": "index",
          "type": "uint256"
        }
      ],
      "name": "totalSupplyHistory",
      "outputs": [
        {
          "internalType": "uint256",
          "name": "value",
          "type": "uint256"
        },
        {
          "internalType": "uint256",
          "name": "date",
          "type": "uint256"
        }
      ],
      "stateMutability": "view",
      "type": "function"
    },
    {
      "inputs": [],
      "name": "totalSupplyHistoryCount",
      "outputs": [
        {
          "internalType": "uint256",
          "name": "",
          "type": "uint256"
        }
      ],
      "stateMutability": "view",
      "type": "function"
    },
    {
      "inputs": [
        {
          "internalType": "address",
          "name": "recipient",
          "type": "address"
        },
        {
          "internalType": "uint256",
          "name": "amount",
          "type": "uint256"
        }
      ],
      "name": "transfer",
      "outputs": [
        {
          "internalType": "bool",
          "name": "",
          "type": "bool"
        }
      ],
      "stateMutability": "nonpayable",
      "type": "function"
    },
    {
      "inputs": [
        {
          "internalType": "address",
          "name": "sender",
          "type": "address"
        },
        {
          "internalType": "address",
          "name": "recipient",
          "type": "address"
        },
        {
          "internalType": "uint256",
          "name": "amount",
          "type": "uint256"
        }
      ],
      "name": "transferFrom",
      "outputs": [
        {
          "internalType": "bool",
          "name": "",
          "type": "bool"
        }
      ],
      "stateMutability": "nonpayable",
      "type": "function"
    },
    {
      "inputs": [
        {
          "internalType": "address",
          "name": "newOwner",
          "type": "address"
        }
      ],
      "name": "transferOwnership",
      "outputs": [],
      "stateMutability": "nonpayable",
      "type": "function"
    },
    {
      "inputs": [
        {
          "internalType": "uint256",
          "name": "amount",
          "type": "uint256"
        }
      ],
      "name": "unstake",
      "outputs": [],
      "stateMutability": "nonpayable",
      "type": "function"
    },
    {
      "inputs": [
        {
          "internalType": "uint256",
          "name": "issueId",
          "type": "uint256"
        },
        {
          "internalType": "uint256",
          "name": "pct",
          "type": "uint256"
        }
      ],
      "name": "updateInflation",
      "outputs": [],
      "stateMutability": "nonpayable",
      "type": "function"
    },
    {
      "inputs": [],
      "name": "updateSnapshot",
      "outputs": [],
      "stateMutability": "nonpayable",
      "type": "function"
    },
    {
      "inputs": [
        {
          "internalType": "uint256",
          "name": "issueId",
          "type": "uint256"
        },
        {
          "internalType": "uint256",
          "name": "pct",
          "type": "uint256"
        }
      ],
      "name": "updateVesting",
      "outputs": [],
      "stateMutability": "nonpayable",
      "type": "function"
    },
    {
      "inputs": [
        {
          "internalType": "address",
          "name": "to",
          "type": "address"
        },
        {
          "internalType": "uint256",
          "name": "amount",
          "type": "uint256"
        }
      ],
      "name": "withdraw",
      "outputs": [],
      "stateMutability": "nonpayable",
      "type": "function"
    },
    {
      "inputs": [
        {
          "internalType": "uint256",
          "name": "date",
          "type": "uint256"
        }
      ],
      "name": "setTimestamp",
      "outputs": [],
      "stateMutability": "nonpayable",
      "type": "function"
    },
    {
      "inputs": [
        {
          "internalType": "uint256",
          "name": "pct",
          "type": "uint256"
        }
      ],
      "name": "setInflation",
      "outputs": [],
      "stateMutability": "nonpayable",
      "type": "function"
    }
  ],
  "bytecode": "0x60806040523480156200001157600080fd5b506040518060400160405280600b81526020016a4369746164656c2e6f6e6560a81b815250604051806040016040528060038152602001621610d560ea1b81525081600390805190602001906200006a9291906200051b565b508051620000809060049060208401906200051b565b50506005805460ff19166012179055506000620000a56001600160e01b03620001cc16565b60058054610100600160a81b0319166101006001600160a01b03841690810291909117909155604051919250906000907f8be0079c531659141344cd1fd0a4f28419497f9722a3daafe3b4186f6b6457e0908290a3506005805460ff60a81b1916905542600690815562000122906001600160e01b03620001d116565b600062000145620f4240631dcd6500620001e760201b620029731790919060201c565b90506200015d6001826001600160e01b036200023916565b62000177818061032060286001600160e01b036200032516565b6200018c60026001600160e01b036200042616565b620001c130620001b2620f4240631dcd6500620001e760201b620029731790919060201c565b6001600160e01b036200023916565b5042601455620006f6565b335b90565b6005805460ff191660ff92909216919091179055565b600082620001f85750600062000233565b828202828482816200020657fe5b0414620002305760405162461bcd60e51b81526004016200022790620005f4565b60405180910390fd5b90505b92915050565b6001600160a01b038216620002625760405162461bcd60e51b815260040162000227906200066c565b62000279600083836001600160e01b036200046916565b6200029581600254620004dd60201b62001d571790919060201c565b6002556001600160a01b03821660009081526020818152604090912054620002c891839062001d57620004dd821b17901c565b6001600160a01b0383166000818152602081905260408082209390935591519091907fddf252ad1be2c89b69c2b068fc378daa952ba7f163c4a11628f55a4df523b3ef9062000319908590620006ed565b60405180910390a35050565b600a5460ff16156200033657600080fd5b600a805460ff19166001179055838301600b55600c849055600e8490556040805160a0810182528381526020810183905290810185905260608101859052600f90608081016200038e6001600160e01b036200050516565b9052815460018181018455600093845260209384902083516005909302019182559282015192810192909255604080820151600284015560608201516003840155608090910151600490920191909155600f5490517fedc524a2d3f6ca20c1a24894433e36a31d7a2e9c37b78d9ab1c758bf83072d049162000418916000199190910190620006ed565b60405180910390a150505050565b60115460ff16156200043757600080fd5b601180546001600160a01b0390921661010002610100600160a81b031960ff1990931660011792909216919091179055565b62000481838383620004d860201b6200219f1760201c565b6103e83311620004a55760405162461bcd60e51b8152600401620002279062000635565b620004b86001600160e01b036200050b16565b15620004d85760405162461bcd60e51b81526004016200022790620006a3565b505050565b600082820183811015620002305760405162461bcd60e51b81526004016200022790620005bd565b60145490565b600554600160a81b900460ff1690565b828054600181600116156101000203166002900490600052602060002090601f016020900481019282601f106200055e57805160ff19168380011785556200058e565b828001600101855582156200058e579182015b828111156200058e57825182559160200191906001019062000571565b506200059c929150620005a0565b5090565b620001ce91905b808211156200059c5760008155600101620005a7565b6020808252601b908201527f536166654d6174683a206164646974696f6e206f766572666c6f770000000000604082015260600190565b60208082526021908201527f536166654d6174683a206d756c7469706c69636174696f6e206f766572666c6f6040820152607760f81b606082015260800190565b60208082526019908201527f4369746164656c546f6b656e3a2066616b652073656e64657200000000000000604082015260600190565b6020808252601f908201527f45524332303a206d696e7420746f20746865207a65726f206164647265737300604082015260600190565b6020808252602a908201527f45524332305061757361626c653a20746f6b656e207472616e736665722077686040820152691a5b19481c185d5cd95960b21b606082015260800190565b90815260200190565b612ab280620007066000396000f3fe608060405234801561001057600080fd5b50600436106102a05760003560e01c806370a0823111610167578063c108a402116100ce578063f1474bd811610087578063f1474bd814610562578063f2fde38b14610582578063f3fef3a314610595578063f905c15a146105a8578063f9b7ce02146105b0578063ff1764a4146105b8576102a0565b8063c108a402146104fb578063c2ad5b741461050e578063c686781d14610521578063ca5c7b9114610534578063dd62ed3e1461053c578063e0a8ed521461054f576102a0565b8063a0a2b57311610120578063a0a2b57314610489578063a457c2d71461049c578063a694fc3a146104af578063a9059cbb146104c2578063ac3cd7c6146104d5578063bf17282a146104e8576102a0565b806370a0823114610438578063715018a61461044b5780637fa7faf81461045357806389bb6081146104665780638da5cb5b1461047957806395d89b4114610481576102a0565b806344c404641161020b57806355b28b37116101c457806355b28b37146103f257806359355736146103fa5780635c975abb1461040d5780636641d9a014610415578063692404261461042857806369668fe914610430576102a0565b806344c404641461039e5780634ab68e14146103b15780634b45aa12146103b95780634c0f38c2146103c15780634cf54195146103c95780634f91440d146103ea576102a0565b80632e17de781161025d5780632e17de7814610328578063313ce5671461033d57806339509351146103525780633ba71a151461036557806342966c681461037857806344263fcb1461038b576102a0565b806306fdde03146102a5578063095ea7b3146102c357806318160ddd146102e35780631d0a67e1146102f85780631d68702d1461030057806323b872dd14610315575b600080fd5b6102ad6105c0565b6040516102ba9190612330565b60405180910390f35b6102d66102d1366004612296565b610656565b6040516102ba9190612325565b6102eb610674565b6040516102ba9190612939565b6102eb61067a565b610308610680565b6040516102ba9190612311565b6102d6610323366004612256565b61068f565b61033b6103363660046122c0565b61071c565b005b610345610876565b6040516102ba9190612950565b6102d6610360366004612296565b61087f565b61033b610373366004612296565b6108d3565b61033b6103863660046122c0565b6108fa565b61033b610399366004612207565b61094d565b61033b6103ac366004612296565b6109dd565b6102eb610a00565b6102eb610a06565b6102eb610a0c565b6103dc6103d7366004612296565b610a12565b6040516102ba929190612942565b61033b610ace565b6102eb610c05565b6102eb610408366004612207565b610c0b565b6102d6610c26565b6103dc6104233660046122c0565b610c36565b61033b610ca3565b6102eb610cd9565b6102eb610446366004612207565b610cdf565b61033b610cfa565b61033b610461366004612207565b610d84565b6102eb610474366004612207565b610e09565b610308610e24565b6102ad610e38565b61033b6104973660046122c0565b610e99565b6102d66104aa366004612296565b610ed8565b61033b6104bd3660046122c0565b610f46565b6102d66104d0366004612296565b610fa2565b61033b6104e33660046122f0565b610fb6565b6102eb6104f6366004612207565b6110e6565b61033b6105093660046122f0565b6110f8565b61033b61051c366004612296565b61121b565b61033b61052f3660046122c0565b611260565b6102eb611353565b6102eb61054a366004612222565b611362565b61033b61055d3660046122c0565b61138d565b6105756105703660046122c0565b611407565b6040516102ba91906128ff565b61033b610590366004612207565b61148f565b61033b6105a3366004612296565b611556565b6102eb611596565b61033b61159c565b610308611665565b60038054604080516020601f600260001961010060018816150201909516949094049384018190048102820181019092528281526060939092909183018282801561064c5780601f106106215761010080835404028352916020019161064c565b820191906000526020600020905b81548152906001019060200180831161062f57829003601f168201915b5050505050905090565b600061066a610663611674565b8484611678565b5060015b92915050565b60025490565b600d5490565b6008546001600160a01b031690565b600061069c84848461172c565b610712846106a8611674565b61070d85604051806060016040528060288152602001612a30602891396001600160a01b038a166000908152600160205260408120906106e6611674565b6001600160a01b03168152602081019190915260400160002054919063ffffffff61184d16565b611678565b5060019392505050565b60006009541180156107375750610731611879565b60095411155b61075c5760405162461bcd60e51b815260040161075390612652565b60405180910390fd5b3360009081526010602052604090205481111561077857600080fd5b61078061187f565b60115461079c9061010090046001600160a01b0316338361172c565b336000908152601060205260409020546107bc908263ffffffff611c0816565b3360009081526010602052604090819020919091558051808201909152601290806107e5611c51565b81526020016107f2611879565b905281546001818101845560009384526020808520845160029094020192835592830151910155338252601381526040808320815180830183526010845291909320548152908101610842611879565b9052815460018181018455600093845260209384902083516002909302019182559290910151910155610873611c6e565b50565b60055460ff1690565b600061066a61088c611674565b8461070d856001600061089d611674565b6001600160a01b03908116825260208083019390935260409182016000908120918c16815292529020549063ffffffff611d5716565b6008546001600160a01b031633146108ea57600080fd5b6108f6600a838361172c565b5050565b6103e8331161091b5760405162461bcd60e51b8152600401610753906126be565b8061092533610cdf565b10156109435760405162461bcd60e51b815260040161075390612486565b6108733382611d7c565b610955611674565b60055461010090046001600160a01b039081169116146109875760405162461bcd60e51b815260040161075390612689565b600880546001600160a01b0319166001600160a01b0383161790556040517f9e006baa245780a8a3d4098c11dd27a97c8d0c2e25b998fa057c6ab8eb079191906109d2908390612311565b60405180910390a150565b6008546001600160a01b031633146109f457600080fd5b6108f682600a8361172c565b60125490565b600f5490565b600b5490565b6001600160a01b03821660009081526013602052604081205481908310610a4b5760405162461bcd60e51b8152600401610753906125c9565b6001600160a01b0384166000908152601360205260409020805484908110610a6f57fe5b906000526020600020906002020160000154915060136000856001600160a01b03166001600160a01b031681526020019081526020016000208381548110610ab357fe5b90600052602060002090600202016001015490509250929050565b6000600954118015610ae95750610ae3611879565b60095411155b610b055760405162461bcd60e51b815260040161075390612652565b6007546001600160a01b0316610b2d5760405162461bcd60e51b815260040161075390612383565b60075460405163ddeae03360e01b81526000916001600160a01b03169063ddeae03390610b5e903390600401612311565b602060405180830381600087803b158015610b7857600080fd5b505af1158015610b8c573d6000803e3d6000fd5b505050506040513d601f19601f82011682018060405250610bb091908101906122d8565b905060008111610bbf57600080fd5b610bc761187f565b601154610be59060019061010090046001600160a01b03168361172c565b336000908152601060205260409020546107bc908263ffffffff611d5716565b60095490565b6001600160a01b031660009081526010602052604090205490565b600554600160a81b900460ff1690565b60125460009081908310610c5c5760405162461bcd60e51b8152600401610753906125c9565b60128381548110610c6957fe5b906000526020600020906002020160000154915060128381548110610c8a57fe5b9060005260206000209060020201600101549050915091565b6007546001600160a01b0316331480610cc657506008546001600160a01b031633145b610ccf57600080fd5b610cd761187f565b565b60065481565b6001600160a01b031660009081526020819052604090205490565b610d02611674565b60055461010090046001600160a01b03908116911614610d345760405162461bcd60e51b815260040161075390612689565b60055460405160009161010090046001600160a01b0316907f8be0079c531659141344cd1fd0a4f28419497f9722a3daafe3b4186f6b6457e0908390a360058054610100600160a81b0319169055565b610d8c611674565b60055461010090046001600160a01b03908116911614610dbe5760405162461bcd60e51b815260040161075390612689565b600780546001600160a01b0319166001600160a01b0383161790556040517f68e937a920bca55a7c599d782170d8606e7d5fe31c1c9cdc4c1fd7c74ca1de1c906109d2908390612311565b6001600160a01b031660009081526013602052604090205490565b60055461010090046001600160a01b031690565b60048054604080516020601f600260001961010060018816150201909516949094049384018190048102820181019092528281526060939092909183018282801561064c5780601f106106215761010080835404028352916020019161064c565b610ea1611674565b60055461010090046001600160a01b03908116911614610ed35760405162461bcd60e51b815260040161075390612689565b601455565b600061066a610ee5611674565b8461070d85604051806060016040528060258152602001612a586025913960016000610f0f611674565b6001600160a01b03908116825260208083019390935260409182016000908120918d1681529252902054919063ffffffff61184d16565b6000600954118015610f615750610f5b611879565b60095411155b610f7d5760405162461bcd60e51b815260040161075390612652565b610f8561187f565b601154610be590339061010090046001600160a01b03168361172c565b600061066a610faf611674565b848461172c565b6008546001600160a01b03163314610fcd57600080fd5b600a8110158015610fdf5750605a8111155b610ffb5760405162461bcd60e51b815260040161075390612823565b6110036121c1565b600f8054600019810190811061101557fe5b90600052602060002090600502016040518060a001604052908160008201548152602001600182015481526020016002820154815260200160038201548152602001600482015481525050905060008160800151611071611879565b03905062278d008110156110975760405162461bcd60e51b815260040161075390612869565b61109f61187f565b6110a883611e6a565b837f96a647810411309169e354743b6a4e9d05e3c777f5fae278e65f6168fe7279ba846040516110d89190612939565b60405180910390a250505050565b60106020526000908152604090205481565b6008546001600160a01b0316331461110f57600080fd5b60c881101580156111225750610bb88111155b61113e5760405162461bcd60e51b81526004016107539061260d565b6111466121c1565b600f8054600019810190811061115857fe5b90600052602060002090600502016040518060a0016040529081600082015481526020016001820154815260200160028201548152602001600382015481526020016004820154815250509050600081608001516111b4611879565b03905062278d008110156111da5760405162461bcd60e51b815260040161075390612869565b6111e261187f565b6111eb83612013565b837f8f4db2ceeda2c579bf7d6f7036f9f300565d76719308713e3c85d3484b4ebb30846040516110d89190612939565b611223611674565b60055461010090046001600160a01b039081169116146112555760405162461bcd60e51b815260040161075390612689565b6108f630838361172c565b611268611674565b60055461010090046001600160a01b0390811691161461129a5760405162461bcd60e51b815260040161075390612689565b60095415806112b157506112ac611879565b600954115b6112cd5760405162461bcd60e51b81526004016107539061277b565b6112d5611879565b81116112f35760405162461bcd60e51b815260040161075390612414565b6009819055600d819055600f805482919060009061130d57fe5b9060005260206000209060050201600401819055507f9fc22fadaf2a60d0fc0b55f067aab3d342cd367b0ab3ffb49d3a4f8420768a3c6009546040516109d29190612939565b600061135d611c51565b905090565b6001600160a01b03918216600090815260016020908152604080832093909416825291909152205490565b611395611674565b60055461010090046001600160a01b039081169116146113c75760405162461bcd60e51b815260040161075390612689565b60c881101580156113da5750610bb88111155b6113f65760405162461bcd60e51b81526004016107539061260d565b6113fe61187f565b61087381612013565b61140f6121c1565b600f5482106114305760405162461bcd60e51b815260040161075390612587565b600f828154811061143d57fe5b90600052602060002090600502016040518060a0016040529081600082015481526020016001820154815260200160028201548152602001600382015481526020016004820154815250509050919050565b611497611674565b60055461010090046001600160a01b039081169116146114c95760405162461bcd60e51b815260040161075390612689565b6001600160a01b0381166114ef5760405162461bcd60e51b8152600401610753906124c8565b6005546040516001600160a01b0380841692610100900416907f8be0079c531659141344cd1fd0a4f28419497f9722a3daafe3b4186f6b6457e090600090a3600580546001600160a01b0390921661010002610100600160a81b0319909216919091179055565b6007546001600160a01b031633148061157957506008546001600160a01b031633145b61158257600080fd5b61158a61187f565b6108f66001838361172c565b60065490565b6115a4611674565b60055461010090046001600160a01b039081169116146115d65760405162461bcd60e51b815260040161075390612689565b600954156115f65760405162461bcd60e51b81526004016107539061277b565b6115fe611879565b6009819055600d819055600f805460009061161557fe5b9060005260206000209060050201600401819055507f9fc22fadaf2a60d0fc0b55f067aab3d342cd367b0ab3ffb49d3a4f8420768a3c60095460405161165b9190612939565b60405180910390a1565b6007546001600160a01b031690565b3390565b6001600160a01b03831661169e5760405162461bcd60e51b8152600401610753906127b2565b6001600160a01b0382166116c45760405162461bcd60e51b81526004016107539061250e565b6001600160a01b0380841660008181526001602090815260408083209487168084529490915290819020849055517f8c5be1e5ebec7d5bd14f71427d1e84f3dd0314c0f7b2291e5b200ac8c7c3b9259061171f908590612939565b60405180910390a3505050565b6001600160a01b0383166117525760405162461bcd60e51b815260040161075390612736565b6001600160a01b0382166117785760405162461bcd60e51b8152600401610753906123d1565b61178383838361214e565b6117c681604051806060016040528060268152602001612a0a602691396001600160a01b038616600090815260208190526040902054919063ffffffff61184d16565b6001600160a01b0380851660009081526020819052604080822093909355908416815220546117fb908263ffffffff611d5716565b6001600160a01b0380841660008181526020819052604090819020939093559151908516907fddf252ad1be2c89b69c2b068fc378daa952ba7f163c4a11628f55a4df523b3ef9061171f908590612939565b600081848411156118715760405162461bcd60e51b81526004016107539190612330565b505050900390565b60145490565b600c54600b541161188f57610cd7565b6000600d5461189c611879565b0390506301e133808110156118b15750610cd7565b6118b96121c1565b600f805460001981019081106118cb57fe5b600091825260208083206040805160a0810182526005909402909101805480855260018201549385019390935260028101549184019190915260038101546060840152600401546080830152909250905b6301e133808404811015611bfc576301e13380600d6000828254019250508190555060006127106301e133808560800151600d540385600e5402028161195e57fe5b048161196657fe5b049050600d54846080018181525050600b54600c54820110158061198a575060c883105b15611a5e57600b54600c81905550600f6040518060a001604052806119ad6121a4565b815260208781015181830152600c546040808401829052606080850192909252600d54608094850152855460018181018855600097885296849020865160059092020190815592850151958301959095558385015160028301558301516003820155910151600490910155600f5490517fedc524a2d3f6ca20c1a24894433e36a31d7a2e9c37b78d9ab1c758bf83072d0491611a50916000199190910190612939565b60405180910390a150611bfc565b600c80548201905560c8831115611a885760328303925060c8831015611a835760c892505b611aac565b8260c81415611aac576000611a9b6121a4565b905060c8811015611aaa578093505b505b6040805160a081018252848152602086810151908201908152600c5482840181815260608401918252600d5460808501908152600f8054600181018255600082905295517f8d1108e10bcb7c27dddfc02ed9d693a074039d026cf4ea4240b40f7d581ac80260059097029687015593517f8d1108e10bcb7c27dddfc02ed9d693a074039d026cf4ea4240b40f7d581ac80386015590517f8d1108e10bcb7c27dddfc02ed9d693a074039d026cf4ea4240b40f7d581ac80485015590517f8d1108e10bcb7c27dddfc02ed9d693a074039d026cf4ea4240b40f7d581ac805840155517f8d1108e10bcb7c27dddfc02ed9d693a074039d026cf4ea4240b40f7d581ac806909201919091555490517fedc524a2d3f6ca20c1a24894433e36a31d7a2e9c37b78d9ab1c758bf83072d0491611beb916000199190910190612939565b60405180910390a15060010161191c565b5050600c54600e555050565b6000611c4a83836040518060400160405280601e81526020017f536166654d6174683a207375627472616374696f6e206f766572666c6f77000081525061184d565b9392505050565b60115460009061135d9061010090046001600160a01b0316610cdf565b6008546001600160a01b031615611ce25760085460405163070c88f360e41b81526001600160a01b03909116906370c88f3090611caf903390600401612311565b600060405180830381600087803b158015611cc957600080fd5b505af1158015611cdd573d6000803e3d6000fd5b505050505b6007546001600160a01b031615610cd7576007546040516303d9eba760e41b81526001600160a01b0390911690633d9eba7090611d23903390600401612311565b600060405180830381600087803b158015611d3d57600080fd5b505af1158015611d51573d6000803e3d6000fd5b50505050565b600082820183811015611c4a5760405162461bcd60e51b815260040161075390612550565b6001600160a01b038216611da25760405162461bcd60e51b8152600401610753906126f5565b611dae8260008361214e565b611df1816040518060600160405280602281526020016129e8602291396001600160a01b038516600090815260208190526040902054919063ffffffff61184d16565b6001600160a01b038316600090815260208190526040902055600254611e1d908263ffffffff611c0816565b6002556040516000906001600160a01b038416907fddf252ad1be2c89b69c2b068fc378daa952ba7f163c4a11628f55a4df523b3ef90611e5e908590612939565b60405180910390a35050565b600c54600b541415611e7b57600080fd5b611e836121c1565b600f80546000198101908110611e9557fe5b90600052602060002090600502016040518060a001604052908160008201548152602001600182015481526020016002820154815260200160038201548152602001600482015481525050905060008160800151611ef1611879565b0390506127106301e13380828460000151600e54020281611f0e57fe5b0481611f1657fe5b04600c60008282540192505081905550600b54600c5410611f495760405162461bcd60e51b815260040161075390612457565b600f6040518060a0016040528084600001518152602001858152602001600c548152602001600e548152602001611f7e611879565b9052815460018181018455600093845260209384902083516005909302019182559282015192810192909255604080820151600284015560608201516003840155608090910151600490920191909155600f5490517fedc524a2d3f6ca20c1a24894433e36a31d7a2e9c37b78d9ab1c758bf83072d0491612006916000199190910190612939565b60405180910390a1505050565b600c54600b54141561202457600080fd5b61202c6121c1565b600f8054600019810190811061203e57fe5b90600052602060002090600502016040518060a00160405290816000820154815260200160018201548152602001600282015481526020016003820154815260200160048201548152505090506000816080015161209a611879565b0390506127106301e13380828460000151600e540202816120b757fe5b04816120bf57fe5b04600c60008282540192505081905550600b54600c54106120f25760405162461bcd60e51b815260040161075390612457565b6120fa6121a4565b8311156121195760405162461bcd60e51b8152600401610753906127f6565b600f6040518060a0016040528085815260200184602001518152602001600c548152602001600e548152602001611f7e611879565b61215983838361219f565b6103e8331161217a5760405162461bcd60e51b8152600401610753906126be565b612182610c26565b1561219f5760405162461bcd60e51b8152600401610753906128b5565b505050565b6000600c54600c54600b540361271002816121bb57fe5b04905090565b6040518060a0016040528060008152602001600081526020016000815260200160008152602001600081525090565b80356001600160a01b038116811461066e57600080fd5b600060208284031215612218578081fd5b611c4a83836121f0565b60008060408385031215612234578081fd5b61223e84846121f0565b915061224d84602085016121f0565b90509250929050565b60008060006060848603121561226a578081fd5b83356122758161295e565b925060208401356122858161295e565b929592945050506040919091013590565b600080604083850312156122a8578182fd5b6122b284846121f0565b946020939093013593505050565b6000602082840312156122d1578081fd5b5035919050565b6000602082840312156122e9578081fd5b5051919050565b60008060408385031215612302578182fd5b50508035926020909101359150565b6001600160a01b0391909116815260200190565b901515815260200190565b6000602080835283518082850152825b8181101561235c57858101830151858201604001528201612340565b8181111561236d5783604083870101525b50601f01601f1916929092016040019392505050565b6020808252602e908201527f4369746164656c546f6b656e4c6f636b65723a2076657374696e6720636f6e7460408201526d1c9858dd081d5b9919599a5b995960921b606082015260800190565b60208082526023908201527f45524332303a207472616e7366657220746f20746865207a65726f206164647260408201526265737360e81b606082015260800190565b60208082526023908201527f5374617274696e672064617465206d75737420626520696e207468652066757460408201526275726560e81b606082015260800190565b60208082526015908201527413585e081cdd5c1c1b1e481a5cc81c995858da1959605a1b604082015260600190565b60208082526022908201527f4369746164656c546f6b656e3a20696e73756666696369656e742062616c616e604082015261636560f01b606082015260800190565b60208082526026908201527f4f776e61626c653a206e6577206f776e657220697320746865207a65726f206160408201526564647265737360d01b606082015260800190565b60208082526022908201527f45524332303a20617070726f766520746f20746865207a65726f206164647265604082015261737360f01b606082015260800190565b6020808252601b908201527f536166654d6174683a206164646974696f6e206f766572666c6f770000000000604082015260600190565b60208082526022908201527f4369746164656c496e666c6174696f6e3a20756e657870656374656420696e646040820152610caf60f31b606082015260800190565b60208082526024908201527f4369746164656c546f6b656e4c6f636b65723a20756e657870656374656420696040820152630dcc8caf60e31b606082015260800190565b60208082526025908201527f50657263656e74616765206d757374206265206265747765656e20322520616e604082015264642033302560d81b606082015260800190565b6020808252601d908201527f4369746164656c496e666c6174696f6e3a20636f6d696e6720736f6f6e000000604082015260600190565b6020808252818101527f4f776e61626c653a2063616c6c6572206973206e6f7420746865206f776e6572604082015260600190565b60208082526019908201527f4369746164656c546f6b656e3a2066616b652073656e64657200000000000000604082015260600190565b60208082526021908201527f45524332303a206275726e2066726f6d20746865207a65726f206164647265736040820152607360f81b606082015260800190565b60208082526025908201527f45524332303a207472616e736665722066726f6d20746865207a65726f206164604082015264647265737360d81b606082015260800190565b6020808252601c908201527f496e666c6174696f6e20697320616c7265616479207374617274656400000000604082015260600190565b60208082526024908201527f45524332303a20617070726f76652066726f6d20746865207a65726f206164646040820152637265737360e01b606082015260800190565b602080825260139082015272546f6f20686967682070657263656e7461676560681b604082015260600190565b60208082526026908201527f50657263656e74616765206d757374206265206265747765656e2031302520616040820152656e642039302560d01b606082015260800190565b6020808252602c908201527f596f75206861766520746f20776169742033302064617973206166746572206c60408201526b617374206368616e67696e6760a01b606082015260800190565b6020808252602a908201527f45524332305061757361626c653a20746f6b656e207472616e736665722077686040820152691a5b19481c185d5cd95960b21b606082015260800190565b600060a082019050825182526020830151602083015260408301516040830152606083015160608301526080830151608083015292915050565b90815260200190565b918252602082015260400190565b60ff91909116815260200190565b6001600160a01b038116811461087357600080fd5b6000826129825750600061066e565b8282028284828161298f57fe5b0414611c4a5760405162461bcd60e51b815260206004820152602160248201527f536166654d6174683a206d756c7469706c69636174696f6e206f766572666c6f6044820152607760f81b606482015260840161075356fe45524332303a206275726e20616d6f756e7420657863656564732062616c616e636545524332303a207472616e7366657220616d6f756e7420657863656564732062616c616e636545524332303a207472616e7366657220616d6f756e74206578636565647320616c6c6f77616e636545524332303a2064656372656173656420616c6c6f77616e63652062656c6f77207a65726fa26469706673582212200e16a688d9852f74ead7d182985b4f22533ebb9bd53b3ff0f43853765e0fc39464736f6c63430006020033",
  "source": "// SPDX-License-Identifier: GPL-3.0\npragma solidity 0.6.2;\npragma experimental ABIEncoderV2;\n\n\nimport \"./Citadel.sol\";\n\n\ncontract CitadelTest is Citadel() {\n\n    uint private _fakeTime;\n\n    constructor ()\n    public {\n        _fakeTime = block.timestamp;\n    }\n\n    function setTimestamp(uint date) external onlyOwner {\n        _fakeTime = date;\n    }\n\n    function _timestamp() internal override view returns (uint) {\n        return _fakeTime;\n    }\n\n    function setInflation(uint pct) external onlyOwner {\n        require(pct >= 200 && pct <= 3000, \"Percentage must be between 2% and 30%\");\n        _makeInflationSnapshot();\n        _updateInflation(pct);\n    }\n\n}\n",
  "sourcePath": "/home/pirat/Desktop/DAO_update/DAO/contracts/CitadelTest.sol",
  "compiler": {
    "name": "solc",
    "version": "0.6.2+commit.bacdbe57.Emscripten.clang"
  },
  "schemaVersion": "3.2.5",
  "updatedAt": "2021-08-16T15:52:52.414Z",
  "devdoc": {
    "methods": {
      "allowance(address,address)": {
        "details": "See {IERC20-allowance}."
      },
      "approve(address,uint256)": {
        "details": "See {IERC20-approve}.     * Requirements:     * - `spender` cannot be the zero address."
      },
      "balanceOf(address)": {
        "details": "See {IERC20-balanceOf}."
      },
      "decimals()": {
        "details": "Returns the number of decimals used to get its user representation. For example, if `decimals` equals `2`, a balance of `505` tokens should be displayed to a user as `5,05` (`505 / 10 ** 2`).     * Tokens usually opt for a value of 18, imitating the relationship between Ether and Wei. This is the value {ERC20} uses, unless {_setupDecimals} is called.     * NOTE: This information is only used for _display_ purposes: it in no way affects any of the arithmetic of the contract, including {IERC20-balanceOf} and {IERC20-transfer}."
      },
      "decreaseAllowance(address,uint256)": {
        "details": "Atomically decreases the allowance granted to `spender` by the caller.     * This is an alternative to {approve} that can be used as a mitigation for problems described in {IERC20-approve}.     * Emits an {Approval} event indicating the updated allowance.     * Requirements:     * - `spender` cannot be the zero address. - `spender` must have allowance for the caller of at least `subtractedValue`."
      },
      "increaseAllowance(address,uint256)": {
        "details": "Atomically increases the allowance granted to `spender` by the caller.     * This is an alternative to {approve} that can be used as a mitigation for problems described in {IERC20-approve}.     * Emits an {Approval} event indicating the updated allowance.     * Requirements:     * - `spender` cannot be the zero address."
      },
      "name()": {
        "details": "Returns the name of the token."
      },
      "owner()": {
        "details": "Returns the address of the current owner."
      },
      "paused()": {
        "details": "Returns true if the contract is paused, and false otherwise."
      },
      "renounceOwnership()": {
        "details": "Leaves the contract without owner. It will not be possible to call `onlyOwner` functions anymore. Can only be called by the current owner.     * NOTE: Renouncing ownership will leave the contract without an owner, thereby removing any functionality that is only available to the owner."
      },
      "symbol()": {
        "details": "Returns the symbol of the token, usually a shorter version of the name."
      },
      "totalSupply()": {
        "details": "See {IERC20-totalSupply}."
      },
      "transfer(address,uint256)": {
        "details": "See {IERC20-transfer}.     * Requirements:     * - `recipient` cannot be the zero address. - the caller must have a balance of at least `amount`."
      },
      "transferFrom(address,address,uint256)": {
        "details": "See {IERC20-transferFrom}.     * Emits an {Approval} event indicating the updated allowance. This is not required by the EIP. See the note at the beginning of {ERC20};     * Requirements: - `sender` and `recipient` cannot be the zero address. - `sender` must have a balance of at least `amount`. - the caller must have allowance for ``sender``'s tokens of at least `amount`."
      },
      "transferOwnership(address)": {
        "details": "Transfers ownership of the contract to a new account (`newOwner`). Can only be called by the current owner."
      }
    }
  },
  "userdoc": {
    "methods": {}
  }
}