{
  "contractName": "CitadelTokenLocker",
  "abi": [
    {
      "anonymous": false,
      "inputs": [
        {
          "indexed": true,
          "internalType": "address",
          "name": "owner",
          "type": "address"
        },
        {
          "indexed": true,
          "internalType": "address",
          "name": "spender",
          "type": "address"
        },
        {
          "indexed": false,
          "internalType": "uint256",
          "name": "value",
          "type": "uint256"
        }
      ],
      "name": "Approval",
      "type": "event"
    },
    {
      "anonymous": false,
      "inputs": [
        {
          "indexed": true,
          "internalType": "uint256",
          "name": "issueId",
          "type": "uint256"
        },
        {
          "indexed": false,
          "internalType": "uint256",
          "name": "pct",
          "type": "uint256"
        }
      ],
      "name": "ChangeInflation",
      "type": "event"
    },
    {
      "anonymous": false,
      "inputs": [
        {
          "indexed": true,
          "internalType": "uint256",
          "name": "issueId",
          "type": "uint256"
        },
        {
          "indexed": false,
          "internalType": "uint256",
          "name": "pct",
          "type": "uint256"
        }
      ],
      "name": "ChangeVesting",
      "type": "event"
    },
    {
      "anonymous": false,
      "inputs": [
        {
          "indexed": true,
          "internalType": "address",
          "name": "previousOwner",
          "type": "address"
        },
        {
          "indexed": true,
          "internalType": "address",
          "name": "newOwner",
          "type": "address"
        }
      ],
      "name": "OwnershipTransferred",
      "type": "event"
    },
    {
      "anonymous": false,
      "inputs": [
        {
          "indexed": false,
          "internalType": "address",
          "name": "account",
          "type": "address"
        }
      ],
      "name": "Paused",
      "type": "event"
    },
    {
      "anonymous": false,
      "inputs": [
        {
          "indexed": true,
          "internalType": "address",
          "name": "from",
          "type": "address"
        },
        {
          "indexed": true,
          "internalType": "address",
          "name": "to",
          "type": "address"
        },
        {
          "indexed": false,
          "internalType": "uint256",
          "name": "value",
          "type": "uint256"
        }
      ],
      "name": "Transfer",
      "type": "event"
    },
    {
      "anonymous": false,
      "inputs": [
        {
          "indexed": false,
          "internalType": "address",
          "name": "account",
          "type": "address"
        }
      ],
      "name": "Unpaused",
      "type": "event"
    },
    {
      "inputs": [],
      "name": "_bankAddress",
      "outputs": [
        {
          "internalType": "address",
          "name": "",
          "type": "address"
        }
      ],
      "stateMutability": "view",
      "type": "function"
    },
    {
      "inputs": [
        {
          "internalType": "address",
          "name": "owner",
          "type": "address"
        },
        {
          "internalType": "address",
          "name": "spender",
          "type": "address"
        }
      ],
      "name": "allowance",
      "outputs": [
        {
          "internalType": "uint256",
          "name": "",
          "type": "uint256"
        }
      ],
      "stateMutability": "view",
      "type": "function"
    },
    {
      "inputs": [
        {
          "internalType": "address",
          "name": "spender",
          "type": "address"
        },
        {
          "internalType": "uint256",
          "name": "amount",
          "type": "uint256"
        }
      ],
      "name": "approve",
      "outputs": [
        {
          "internalType": "bool",
          "name": "",
          "type": "bool"
        }
      ],
      "stateMutability": "nonpayable",
      "type": "function"
    },
    {
      "inputs": [
        {
          "internalType": "address",
          "name": "account",
          "type": "address"
        }
      ],
      "name": "balanceOf",
      "outputs": [
        {
          "internalType": "uint256",
          "name": "",
          "type": "uint256"
        }
      ],
      "stateMutability": "view",
      "type": "function"
    },
    {
      "inputs": [
        {
          "internalType": "uint256",
          "name": "amount",
          "type": "uint256"
        }
      ],
      "name": "burn",
      "outputs": [],
      "stateMutability": "nonpayable",
      "type": "function"
    },
    {
      "inputs": [],
      "name": "countInflationPoints",
      "outputs": [
        {
          "internalType": "uint256",
          "name": "",
          "type": "uint256"
        }
      ],
      "stateMutability": "view",
      "type": "function"
    },
    {
      "inputs": [],
      "name": "decimals",
      "outputs": [
        {
          "internalType": "uint8",
          "name": "",
          "type": "uint8"
        }
      ],
      "stateMutability": "view",
      "type": "function"
    },
    {
      "inputs": [
        {
          "internalType": "address",
          "name": "spender",
          "type": "address"
        },
        {
          "internalType": "uint256",
          "name": "subtractedValue",
          "type": "uint256"
        }
      ],
      "name": "decreaseAllowance",
      "outputs": [
        {
          "internalType": "bool",
          "name": "",
          "type": "bool"
        }
      ],
      "stateMutability": "nonpayable",
      "type": "function"
    },
    {
      "inputs": [
        {
          "internalType": "address",
          "name": "from",
          "type": "address"
        },
        {
          "internalType": "uint256",
          "name": "amount",
          "type": "uint256"
        }
      ],
      "name": "delegateToDAO",
      "outputs": [],
      "stateMutability": "nonpayable",
      "type": "function"
    },
    {
      "inputs": [],
      "name": "deployDate",
      "outputs": [
        {
          "internalType": "uint256",
          "name": "",
          "type": "uint256"
        }
      ],
      "stateMutability": "view",
      "type": "function"
    },
    {
      "inputs": [],
      "name": "deployed",
      "outputs": [
        {
          "internalType": "uint256",
          "name": "",
          "type": "uint256"
        }
      ],
      "stateMutability": "view",
      "type": "function"
    },
    {
      "inputs": [],
      "name": "getDaoAddress",
      "outputs": [
        {
          "internalType": "address",
          "name": "",
          "type": "address"
        }
      ],
      "stateMutability": "view",
      "type": "function"
    },
    {
      "inputs": [],
      "name": "getInflationStartDate",
      "outputs": [
        {
          "internalType": "uint256",
          "name": "",
          "type": "uint256"
        }
      ],
      "stateMutability": "view",
      "type": "function"
    },
    {
      "inputs": [],
      "name": "getMaxSupply",
      "outputs": [
        {
          "internalType": "uint256",
          "name": "",
          "type": "uint256"
        }
      ],
      "stateMutability": "view",
      "type": "function"
    },
    {
      "inputs": [],
      "name": "getSavedInflationYear",
      "outputs": [
        {
          "internalType": "uint256",
          "name": "",
          "type": "uint256"
        }
      ],
      "stateMutability": "view",
      "type": "function"
    },
    {
      "inputs": [],
      "name": "getVestingAddress",
      "outputs": [
        {
          "internalType": "address",
          "name": "",
          "type": "address"
        }
      ],
      "stateMutability": "view",
      "type": "function"
    },
    {
      "inputs": [
        {
          "internalType": "address",
          "name": "spender",
          "type": "address"
        },
        {
          "internalType": "uint256",
          "name": "addedValue",
          "type": "uint256"
        }
      ],
      "name": "increaseAllowance",
      "outputs": [
        {
          "internalType": "bool",
          "name": "",
          "type": "bool"
        }
      ],
      "stateMutability": "nonpayable",
      "type": "function"
    },
    {
      "inputs": [
        {
          "internalType": "uint256",
          "name": "index",
          "type": "uint256"
        }
      ],
      "name": "inflationPoint",
      "outputs": [
        {
          "components": [
            {
              "internalType": "uint256",
              "name": "inflationPct",
              "type": "uint256"
            },
            {
              "internalType": "uint256",
              "name": "stakingPct",
              "type": "uint256"
            },
            {
              "internalType": "uint256",
              "name": "currentSupply",
              "type": "uint256"
            },
            {
              "internalType": "uint256",
              "name": "yearlySupply",
              "type": "uint256"
            },
            {
              "internalType": "uint256",
              "name": "date",
              "type": "uint256"
            }
          ],
          "internalType": "struct CitadelInflation.InflationValues",
          "name": "",
          "type": "tuple"
        }
      ],
      "stateMutability": "view",
      "type": "function"
    },
    {
      "inputs": [
        {
          "internalType": "address",
          "name": "daoAddress",
          "type": "address"
        }
      ],
      "name": "initDaoTransport",
      "outputs": [],
      "stateMutability": "nonpayable",
      "type": "function"
    },
    {
      "inputs": [
        {
          "internalType": "address",
          "name": "vestAddress",
          "type": "address"
        }
      ],
      "name": "initVestingTransport",
      "outputs": [],
      "stateMutability": "nonpayable",
      "type": "function"
    },
    {
      "inputs": [
        {
          "internalType": "address",
          "name": "",
          "type": "address"
        }
      ],
      "name": "lockedCoins",
      "outputs": [
        {
          "internalType": "uint256",
          "name": "",
          "type": "uint256"
        }
      ],
      "stateMutability": "view",
      "type": "function"
    },
    {
      "inputs": [],
      "name": "name",
      "outputs": [
        {
          "internalType": "string",
          "name": "",
          "type": "string"
        }
      ],
      "stateMutability": "view",
      "type": "function"
    },
    {
      "inputs": [],
      "name": "owner",
      "outputs": [
        {
          "internalType": "address",
          "name": "",
          "type": "address"
        }
      ],
      "stateMutability": "view",
      "type": "function"
    },
    {
      "inputs": [],
      "name": "paused",
      "outputs": [
        {
          "internalType": "bool",
          "name": "",
          "type": "bool"
        }
      ],
      "stateMutability": "view",
      "type": "function"
    },
    {
      "inputs": [],
      "name": "percentDecimal",
      "outputs": [
        {
          "internalType": "uint256",
          "name": "",
          "type": "uint256"
        }
      ],
      "stateMutability": "view",
      "type": "function"
    },
    {
      "inputs": [
        {
          "internalType": "address",
          "name": "to",
          "type": "address"
        },
        {
          "internalType": "uint256",
          "name": "amount",
          "type": "uint256"
        }
      ],
      "name": "redeemFromDAO",
      "outputs": [],
      "stateMutability": "nonpayable",
      "type": "function"
    },
    {
      "inputs": [],
      "name": "renounceOwnership",
      "outputs": [],
      "stateMutability": "nonpayable",
      "type": "function"
    },
    {
      "inputs": [],
      "name": "startInflation",
      "outputs": [],
      "stateMutability": "nonpayable",
      "type": "function"
    },
    {
      "inputs": [
        {
          "internalType": "uint256",
          "name": "date",
          "type": "uint256"
        }
      ],
      "name": "startInflationTo",
      "outputs": [],
      "stateMutability": "nonpayable",
      "type": "function"
    },
    {
      "inputs": [],
      "name": "symbol",
      "outputs": [
        {
          "internalType": "string",
          "name": "",
          "type": "string"
        }
      ],
      "stateMutability": "view",
      "type": "function"
    },
    {
      "inputs": [],
      "name": "totalSupply",
      "outputs": [
        {
          "internalType": "uint256",
          "name": "",
          "type": "uint256"
        }
      ],
      "stateMutability": "view",
      "type": "function"
    },
    {
      "inputs": [
        {
          "internalType": "address",
          "name": "recipient",
          "type": "address"
        },
        {
          "internalType": "uint256",
          "name": "amount",
          "type": "uint256"
        }
      ],
      "name": "transfer",
      "outputs": [
        {
          "internalType": "bool",
          "name": "",
          "type": "bool"
        }
      ],
      "stateMutability": "nonpayable",
      "type": "function"
    },
    {
      "inputs": [
        {
          "internalType": "address",
          "name": "sender",
          "type": "address"
        },
        {
          "internalType": "address",
          "name": "recipient",
          "type": "address"
        },
        {
          "internalType": "uint256",
          "name": "amount",
          "type": "uint256"
        }
      ],
      "name": "transferFrom",
      "outputs": [
        {
          "internalType": "bool",
          "name": "",
          "type": "bool"
        }
      ],
      "stateMutability": "nonpayable",
      "type": "function"
    },
    {
      "inputs": [
        {
          "internalType": "address",
          "name": "newOwner",
          "type": "address"
        }
      ],
      "name": "transferOwnership",
      "outputs": [],
      "stateMutability": "nonpayable",
      "type": "function"
    },
    {
      "inputs": [
        {
          "internalType": "uint256",
          "name": "issueId",
          "type": "uint256"
        },
        {
          "internalType": "uint256",
          "name": "pct",
          "type": "uint256"
        }
      ],
      "name": "updateInflation",
      "outputs": [],
      "stateMutability": "nonpayable",
      "type": "function"
    },
    {
      "inputs": [
        {
          "internalType": "uint256",
          "name": "issueId",
          "type": "uint256"
        },
        {
          "internalType": "uint256",
          "name": "pct",
          "type": "uint256"
        }
      ],
      "name": "updateVesting",
      "outputs": [],
      "stateMutability": "nonpayable",
      "type": "function"
    },
    {
      "inputs": [
        {
          "internalType": "address",
          "name": "to",
          "type": "address"
        },
        {
          "internalType": "uint256",
          "name": "amount",
          "type": "uint256"
        }
      ],
      "name": "withdraw",
      "outputs": [],
      "stateMutability": "nonpayable",
      "type": "function"
    },
    {
      "inputs": [
        {
          "internalType": "address",
          "name": "account",
          "type": "address"
        }
      ],
      "name": "lockedBalanceOf",
      "outputs": [
        {
          "internalType": "uint256",
          "name": "",
          "type": "uint256"
        }
      ],
      "stateMutability": "view",
      "type": "function"
    },
    {
      "inputs": [],
      "name": "lockedSupply",
      "outputs": [
        {
          "internalType": "uint256",
          "name": "",
          "type": "uint256"
        }
      ],
      "stateMutability": "view",
      "type": "function"
    },
    {
      "inputs": [],
      "name": "totalSupplyHistoryCount",
      "outputs": [
        {
          "internalType": "uint256",
          "name": "",
          "type": "uint256"
        }
      ],
      "stateMutability": "view",
      "type": "function"
    },
    {
      "inputs": [
        {
          "internalType": "uint256",
          "name": "index",
          "type": "uint256"
        }
      ],
      "name": "totalSupplyHistory",
      "outputs": [
        {
          "internalType": "uint256",
          "name": "value",
          "type": "uint256"
        },
        {
          "internalType": "uint256",
          "name": "date",
          "type": "uint256"
        }
      ],
      "stateMutability": "view",
      "type": "function"
    },
    {
      "inputs": [
        {
          "internalType": "address",
          "name": "addr",
          "type": "address"
        }
      ],
      "name": "lockHistoryCount",
      "outputs": [
        {
          "internalType": "uint256",
          "name": "",
          "type": "uint256"
        }
      ],
      "stateMutability": "view",
      "type": "function"
    },
    {
      "inputs": [
        {
          "internalType": "address",
          "name": "addr",
          "type": "address"
        },
        {
          "internalType": "uint256",
          "name": "index",
          "type": "uint256"
        }
      ],
      "name": "lockHistory",
      "outputs": [
        {
          "internalType": "uint256",
          "name": "value",
          "type": "uint256"
        },
        {
          "internalType": "uint256",
          "name": "date",
          "type": "uint256"
        }
      ],
      "stateMutability": "view",
      "type": "function"
    },
    {
      "inputs": [
        {
          "internalType": "uint256",
          "name": "amount",
          "type": "uint256"
        }
      ],
      "name": "stake",
      "outputs": [],
      "stateMutability": "nonpayable",
      "type": "function"
    },
    {
      "inputs": [
        {
          "internalType": "uint256",
          "name": "amount",
          "type": "uint256"
        }
      ],
      "name": "unstake",
      "outputs": [],
      "stateMutability": "nonpayable",
      "type": "function"
    },
    {
      "inputs": [],
      "name": "restake",
      "outputs": [],
      "stateMutability": "nonpayable",
      "type": "function"
    }
  ],
  "bytecode": "0x600b60808181526a4369746164656c2e6f6e6560a81b60a0908152610100604052600360c0818152621610d560ea1b60e05292936200003f929062000133565b5080516200005590600490602084019062000133565b50506005805460ff191660121790555060006200007a6001600160e01b036200011816565b60058054610100600160a81b0319166101006001600160a01b03841690810291909117909155604051919250906000907f8be0079c531659141344cd1fd0a4f28419497f9722a3daafe3b4186f6b6457e0908290a3506005805460ff60a81b19169055600680546001600160a01b031916301781554260075566038d7ea4c6800060085562000112906001600160e01b036200011d16565b620001d5565b335b90565b6005805460ff191660ff92909216919091179055565b828054600181600116156101000203166002900490600052602060002090601f016020900481019282601f106200017657805160ff1916838001178555620001a6565b82800160010185558215620001a6579182015b82811115620001a657825182559160200191906001019062000189565b50620001b4929150620001b8565b5090565b6200011a91905b80821115620001b45760008155600101620001bf565b61275580620001e56000396000f3fe608060405234801561001057600080fd5b506004361061028a5760003560e01c806369668fe91161015c578063ba1a681f116100ce578063f1474bd811610087578063f1474bd81461051b578063f2fde38b1461053b578063f3fef3a31461054e578063f905c15a14610561578063f9b7ce0214610569578063ff1764a4146105715761028a565b8063ba1a681f146104bf578063bf17282a146104c7578063c108a402146104da578063c686781d146104ed578063ca5c7b9114610500578063dd62ed3e146105085761028a565b80638da5cb5b116101205780638da5cb5b1461046357806395d89b411461046b578063a457c2d714610473578063a694fc3a14610486578063a9059cbb14610499578063ac3cd7c6146104ac5761028a565b806369668fe91461041a57806370a0823114610422578063715018a6146104355780637fa7faf81461043d57806389bb6081146104505761028a565b806344263fcb116102005780634f91440d116101b95780634f91440d146103d457806353d168e7146103dc57806355b28b37146103e457806359355736146103ec5780635c975abb146103ff5780636641d9a0146104075761028a565b806344263fcb1461037557806344c40464146103885780634ab68e141461039b5780634b45aa12146103a35780634c0f38c2146103ab5780634cf54195146103b35761028a565b806323b872dd1161025257806323b872dd146102ff5780632e17de7814610312578063313ce56714610327578063395093511461033c5780633ba71a151461034f57806342966c68146103625761028a565b806306fdde031461028f578063095ea7b3146102ad57806318160ddd146102cd5780631d0a67e1146102e25780631d68702d146102ea575b600080fd5b610297610579565b6040516102a49190612076565b60405180910390f35b6102c06102bb366004611fdc565b61060f565b6040516102a4919061206b565b6102d561062d565b6040516102a49190612650565b6102d5610633565b6102f2610639565b6040516102a49190612057565b6102c061030d366004611f9c565b610648565b610325610320366004612006565b6106d5565b005b61032f61082f565b6040516102a49190612667565b6102c061034a366004611fdc565b610838565b61032561035d366004611fdc565b61088c565b610325610370366004612006565b6108f8565b610325610383366004611f4d565b61094b565b610325610396366004611fdc565b6109a7565b6102d56109f3565b6102d56109f9565b6102d56109ff565b6103c66103c1366004611fdc565b610a05565b6040516102a4929190612659565b610325610ac1565b6102f2610bf8565b6102d5610c07565b6102d56103fa366004611f4d565b610c0d565b6102c0610c28565b6103c6610415366004612006565b610c38565b6102d5610ca5565b6102d5610430366004611f4d565b610cab565b610325610cc6565b61032561044b366004611f4d565b610d50565b6102d561045e366004611f4d565b610dac565b6102f2610dc7565b610297610ddb565b6102c0610481366004611fdc565b610e3c565b610325610494366004612006565b610eaa565b6102c06104a7366004611fdc565b610f06565b6103256104ba366004612036565b610f1a565b6102d561104a565b6102d56104d5366004611f4d565b611050565b6103256104e8366004612036565b611062565b6103256104fb366004612006565b611185565b6102d561124a565b6102d5610516366004611f68565b611259565b61052e610529366004612006565b611284565b6040516102a49190612616565b610325610549366004611f4d565b61130c565b61032561055c366004611fdc565b6113d3565b6102d5611417565b61032561141d565b6102f26114ad565b60038054604080516020601f60026000196101006001881615020190951694909404938401819004810282018101909252828152606093909290918301828280156106055780601f106105da57610100808354040283529160200191610605565b820191906000526020600020905b8154815290600101906020018083116105e857829003601f168201915b5050505050905090565b600061062361061c6114bc565b84846114c0565b5060015b92915050565b60025490565b60105490565b600a546001600160a01b031690565b6000610655848484611574565b6106cb846106616114bc565b6106c6856040518060600160405280602881526020016126d3602891396001600160a01b038a1660009081526001602052604081209061069f6114bc565b6001600160a01b03168152602081019190915260400160002054919063ffffffff61169516565b6114c0565b5060019392505050565b6000600c541180156106f057506106ea6116c1565b600c5411155b6107155760405162461bcd60e51b815260040161070c90612369565b60405180910390fd5b3360009081526013602052604090205481111561073157600080fd5b6107396116c5565b6014546107559061010090046001600160a01b03163383611574565b33600090815260136020526040902054610775908263ffffffff6119dd16565b33600090815260136020526040908190209190915580518082019091526015908061079e611a26565b81526020016107ab6116c1565b9052815460018181018455600093845260208085208451600290940201928355928301519101553382526016815260408083208151808301835260138452919093205481529081016107fb6116c1565b905281546001818101845560009384526020938490208351600290930201918255929091015191015561082c611a43565b50565b60055460ff1690565b60006106236108456114bc565b846106c685600160006108566114bc565b6001600160a01b03908116825260208083019390935260409182016000908120918c16815292529020549063ffffffff611b2c16565b600a546001600160a01b031633146108a357600080fd5b6108af600a8383611574565b6001600160a01b0382166000908152600b60205260409020546108d8908263ffffffff6119dd16565b6001600160a01b039092166000908152600b602052604090209190915550565b6103e833116109195760405162461bcd60e51b815260040161070c906123d5565b8061092333610cab565b10156109415760405162461bcd60e51b815260040161070c9061219d565b61082c3382611b51565b6109536114bc565b60055461010090046001600160a01b039081169116146109855760405162461bcd60e51b815260040161070c906123a0565b600a80546001600160a01b0319166001600160a01b0392909216919091179055565b600a546001600160a01b031633146109be57600080fd5b6109ca82600a83611574565b6001600160a01b0382166000908152600b60205260409020546108d8908263ffffffff611b2c16565b60155490565b60125490565b600e5490565b6001600160a01b03821660009081526016602052604081205481908310610a3e5760405162461bcd60e51b815260040161070c906122e0565b6001600160a01b0384166000908152601660205260409020805484908110610a6257fe5b906000526020600020906002020160000154915060166000856001600160a01b03166001600160a01b031681526020019081526020016000208381548110610aa657fe5b90600052602060002090600202016001015490509250929050565b6000600c54118015610adc5750610ad66116c1565b600c5411155b610af85760405162461bcd60e51b815260040161070c90612369565b6009546001600160a01b0316610b205760405162461bcd60e51b815260040161070c906120c9565b60095460405163ddeae03360e01b81526000916001600160a01b03169063ddeae03390610b51903390600401612057565b602060405180830381600087803b158015610b6b57600080fd5b505af1158015610b7f573d6000803e3d6000fd5b505050506040513d601f19601f82011682018060405250610ba3919081019061201e565b905060008111610bb257600080fd5b610bba6116c5565b601454610bd89060019061010090046001600160a01b031683611574565b33600090815260136020526040902054610775908263ffffffff611b2c16565b6006546001600160a01b031681565b600c5490565b6001600160a01b031660009081526013602052604090205490565b600554600160a81b900460ff1690565b60155460009081908310610c5e5760405162461bcd60e51b815260040161070c906122e0565b60158381548110610c6b57fe5b906000526020600020906002020160000154915060158381548110610c8c57fe5b9060005260206000209060020201600101549050915091565b60075481565b6001600160a01b031660009081526020819052604090205490565b610cce6114bc565b60055461010090046001600160a01b03908116911614610d005760405162461bcd60e51b815260040161070c906123a0565b60055460405160009161010090046001600160a01b0316907f8be0079c531659141344cd1fd0a4f28419497f9722a3daafe3b4186f6b6457e0908390a360058054610100600160a81b0319169055565b610d586114bc565b60055461010090046001600160a01b03908116911614610d8a5760405162461bcd60e51b815260040161070c906123a0565b600980546001600160a01b0319166001600160a01b0392909216919091179055565b6001600160a01b031660009081526016602052604090205490565b60055461010090046001600160a01b031690565b60048054604080516020601f60026000196101006001881615020190951694909404938401819004810282018101909252828152606093909290918301828280156106055780601f106105da57610100808354040283529160200191610605565b6000610623610e496114bc565b846106c6856040518060600160405280602581526020016126fb6025913960016000610e736114bc565b6001600160a01b03908116825260208083019390935260409182016000908120918d1681529252902054919063ffffffff61169516565b6000600c54118015610ec55750610ebf6116c1565b600c5411155b610ee15760405162461bcd60e51b815260040161070c90612369565b610ee96116c5565b601454610bd890339061010090046001600160a01b031683611574565b6000610623610f136114bc565b8484611574565b600a546001600160a01b03163314610f3157600080fd5b600a8110158015610f435750605a8111155b610f5f5760405162461bcd60e51b815260040161070c9061253a565b610f67611f07565b601280546000198101908110610f7957fe5b90600052602060002090600502016040518060a001604052908160008201548152602001600182015481526020016002820154815260200160038201548152602001600482015481525050905060008160800151610fd56116c1565b03905062278d00811015610ffb5760405162461bcd60e51b815260040161070c90612580565b6110036116c5565b61100c83611c3f565b837f96a647810411309169e354743b6a4e9d05e3c777f5fae278e65f6168fe7279ba8460405161103c9190612650565b60405180910390a250505050565b60085481565b60136020526000908152604090205481565b600a546001600160a01b0316331461107957600080fd5b60c8811015801561108c5750610bb88111155b6110a85760405162461bcd60e51b815260040161070c90612324565b6110b0611f07565b6012805460001981019081106110c257fe5b90600052602060002090600502016040518060a00160405290816000820154815260200160018201548152602001600282015481526020016003820154815260200160048201548152505090506000816080015161111e6116c1565b03905062278d008110156111445760405162461bcd60e51b815260040161070c90612580565b61114c6116c5565b61115583611d7f565b837f8f4db2ceeda2c579bf7d6f7036f9f300565d76719308713e3c85d3484b4ebb308460405161103c9190612650565b61118d6114bc565b60055461010090046001600160a01b039081169116146111bf5760405162461bcd60e51b815260040161070c906123a0565b600c5415806111d657506111d16116c1565b600c54115b6111f25760405162461bcd60e51b815260040161070c90612492565b6111fa6116c1565b81116112185760405162461bcd60e51b815260040161070c9061215a565b600c81905560108190556012805482919060009061123257fe5b90600052602060002090600502016004018190555050565b6000611254611a26565b905090565b6001600160a01b03918216600090815260016020908152604080832093909416825291909152205490565b61128c611f07565b60125482106112ad5760405162461bcd60e51b815260040161070c9061229e565b601282815481106112ba57fe5b90600052602060002090600502016040518060a0016040529081600082015481526020016001820154815260200160028201548152602001600382015481526020016004820154815250509050919050565b6113146114bc565b60055461010090046001600160a01b039081169116146113465760405162461bcd60e51b815260040161070c906123a0565b6001600160a01b03811661136c5760405162461bcd60e51b815260040161070c906121df565b6005546040516001600160a01b0380841692610100900416907f8be0079c531659141344cd1fd0a4f28419497f9722a3daafe3b4186f6b6457e090600090a3600580546001600160a01b0390921661010002610100600160a81b0319909216919091179055565b6009546001600160a01b03163314806113f65750600a546001600160a01b031633145b6113ff57600080fd5b6114076116c5565b61141360018383611574565b5050565b60075490565b6114256114bc565b60055461010090046001600160a01b039081169116146114575760405162461bcd60e51b815260040161070c906123a0565b600c54156114775760405162461bcd60e51b815260040161070c90612492565b61147f6116c1565b600c81905560108190556012805460009061149657fe5b906000526020600020906005020160040181905550565b6009546001600160a01b031690565b3390565b6001600160a01b0383166114e65760405162461bcd60e51b815260040161070c906124c9565b6001600160a01b03821661150c5760405162461bcd60e51b815260040161070c90612225565b6001600160a01b0380841660008181526001602090815260408083209487168084529490915290819020849055517f8c5be1e5ebec7d5bd14f71427d1e84f3dd0314c0f7b2291e5b200ac8c7c3b92590611567908590612650565b60405180910390a3505050565b6001600160a01b03831661159a5760405162461bcd60e51b815260040161070c9061244d565b6001600160a01b0382166115c05760405162461bcd60e51b815260040161070c90612117565b6115cb838383611e94565b61160e816040518060600160405280602681526020016126ad602691396001600160a01b038616600090815260208190526040902054919063ffffffff61169516565b6001600160a01b038085166000908152602081905260408082209390935590841681522054611643908263ffffffff611b2c16565b6001600160a01b0380841660008181526020819052604090819020939093559151908516907fddf252ad1be2c89b69c2b068fc378daa952ba7f163c4a11628f55a4df523b3ef90611567908590612650565b600081848411156116b95760405162461bcd60e51b815260040161070c9190612076565b505050900390565b4290565b600f54600e5414156116d6576119db565b60006010546116e36116c1565b0390506301e133808110156116f857506119db565b611700611f07565b60128054600019810190811061171257fe5b600091825260208083206040805160a0810182526005909402909101805480855260018201549385019390935260028101549184019190915260038101546060840152600401546080830152909250905b6301e1338084048110156119d0576301e1338060106000828254019250508190555060006127106301e13380856080015160105403856011540202816117a557fe5b04816117ad57fe5b049050600e54600f5482011015806117c5575060c883105b1561185957600e54600f8190555060126040518060a001604052806117e8611eea565b815260208781015181830152600f546040808401829052606080850192909252601054608094850152855460018181018855600097885296849020865160059092020190815592850151958301959095559383015160028201559282015160038401550151600490910155506119d0565b600f80548201905560c883111561189c5760328311801561187d575060c860328403115b15611889576032830392505b60c88310156118975760c892505b6118c0565b8260c814156118c05760006118af611eea565b905060c88110156118be578093505b505b506040805160a081018252838152602085810151908201908152600f549282018381526060830193845260105460808401908152601280546001808201835560009290925294517fbb8a6a4669ba250d26cd7a459eca9d215f8307e33aebe50379bc5a3617ec344460059096029586015592517fbb8a6a4669ba250d26cd7a459eca9d215f8307e33aebe50379bc5a3617ec344585015590517fbb8a6a4669ba250d26cd7a459eca9d215f8307e33aebe50379bc5a3617ec344684015592517fbb8a6a4669ba250d26cd7a459eca9d215f8307e33aebe50379bc5a3617ec344783015591517fbb8a6a4669ba250d26cd7a459eca9d215f8307e33aebe50379bc5a3617ec34489091015501611763565b5050600f5460115550505b565b6000611a1f83836040518060400160405280601e81526020017f536166654d6174683a207375627472616374696f6e206f766572666c6f770000815250611695565b9392505050565b6014546000906112549061010090046001600160a01b0316610cab565b600a546001600160a01b031615611ab757600a5460405163070c88f360e41b81526001600160a01b03909116906370c88f3090611a84903390600401612057565b600060405180830381600087803b158015611a9e57600080fd5b505af1158015611ab2573d6000803e3d6000fd5b505050505b6009546001600160a01b0316156119db576009546040516303d9eba760e41b81526001600160a01b0390911690633d9eba7090611af8903390600401612057565b600060405180830381600087803b158015611b1257600080fd5b505af1158015611b26573d6000803e3d6000fd5b50505050565b600082820183811015611a1f5760405162461bcd60e51b815260040161070c90612267565b6001600160a01b038216611b775760405162461bcd60e51b815260040161070c9061240c565b611b8382600083611e94565b611bc68160405180606001604052806022815260200161268b602291396001600160a01b038516600090815260208190526040902054919063ffffffff61169516565b6001600160a01b038316600090815260208190526040902055600254611bf2908263ffffffff6119dd16565b6002556040516000906001600160a01b038416907fddf252ad1be2c89b69c2b068fc378daa952ba7f163c4a11628f55a4df523b3ef90611c33908590612650565b60405180910390a35050565b600f54600e541415611c5057600080fd5b611c58611f07565b601280546000198101908110611c6a57fe5b90600052602060002090600502016040518060a001604052908160008201548152602001600182015481526020016002820154815260200160038201548152602001600482015481525050905060008160800151611cc66116c1565b0390506127106301e13380828460000151601154020281611ce357fe5b0481611ceb57fe5b04600f6000828254019250508190555060126040518060a0016040528084600001518152602001858152602001600f5481526020016011548152602001611d306116c1565b9052815460018181018455600093845260209384902083516005909302019182559282015192810192909255604081015160028301556060810151600383015560800151600490910155505050565b600f54600e541415611d9057600080fd5b611d98611f07565b601280546000198101908110611daa57fe5b90600052602060002090600502016040518060a001604052908160008201548152602001600182015481526020016002820154815260200160038201548152602001600482015481525050905060008160800151611e066116c1565b0390506127106301e13380828460000151601154020281611e2357fe5b0481611e2b57fe5b600f8054929091049091019055611e40611eea565b831115611e5f5760405162461bcd60e51b815260040161070c9061250d565b60126040518060a0016040528085815260200184602001518152602001600f5481526020016011548152602001611d306116c1565b611e9f838383611ee5565b6103e83311611ec05760405162461bcd60e51b815260040161070c906123d5565b611ec8610c28565b15611ee55760405162461bcd60e51b815260040161070c906125cc565b505050565b6000600f54600f54600e54036127100281611f0157fe5b04905090565b6040518060a0016040528060008152602001600081526020016000815260200160008152602001600081525090565b80356001600160a01b038116811461062757600080fd5b600060208284031215611f5e578081fd5b611a1f8383611f36565b60008060408385031215611f7a578081fd5b611f848484611f36565b9150611f938460208501611f36565b90509250929050565b600080600060608486031215611fb0578081fd5b8335611fbb81612675565b92506020840135611fcb81612675565b929592945050506040919091013590565b60008060408385031215611fee578182fd5b611ff88484611f36565b946020939093013593505050565b600060208284031215612017578081fd5b5035919050565b60006020828403121561202f578081fd5b5051919050565b60008060408385031215612048578182fd5b50508035926020909101359150565b6001600160a01b0391909116815260200190565b901515815260200190565b6000602080835283518082850152825b818110156120a257858101830151858201604001528201612086565b818111156120b35783604083870101525b50601f01601f1916929092016040019392505050565b6020808252602e908201527f4369746164656c546f6b656e4c6f636b65723a2076657374696e6720636f6e7460408201526d1c9858dd081d5b9919599a5b995960921b606082015260800190565b60208082526023908201527f45524332303a207472616e7366657220746f20746865207a65726f206164647260408201526265737360e81b606082015260800190565b60208082526023908201527f5374617274696e672064617465206d75737420626520696e207468652066757460408201526275726560e81b606082015260800190565b60208082526022908201527f4369746164656c546f6b656e3a20696e73756666696369656e742062616c616e604082015261636560f01b606082015260800190565b60208082526026908201527f4f776e61626c653a206e6577206f776e657220697320746865207a65726f206160408201526564647265737360d01b606082015260800190565b60208082526022908201527f45524332303a20617070726f766520746f20746865207a65726f206164647265604082015261737360f01b606082015260800190565b6020808252601b908201527f536166654d6174683a206164646974696f6e206f766572666c6f770000000000604082015260600190565b60208082526022908201527f4369746164656c496e666c6174696f6e3a20756e657870656374656420696e646040820152610caf60f31b606082015260800190565b60208082526024908201527f4369746164656c546f6b656e4c6f636b65723a20756e657870656374656420696040820152630dcc8caf60e31b606082015260800190565b60208082526025908201527f50657263656e74616765206d757374206265206265747765656e20322520616e604082015264642033302560d81b606082015260800190565b6020808252601d908201527f4369746164656c496e666c6174696f6e3a20636f6d696e6720736f6f6e000000604082015260600190565b6020808252818101527f4f776e61626c653a2063616c6c6572206973206e6f7420746865206f776e6572604082015260600190565b60208082526019908201527f4369746164656c546f6b656e3a2066616b652073656e64657200000000000000604082015260600190565b60208082526021908201527f45524332303a206275726e2066726f6d20746865207a65726f206164647265736040820152607360f81b606082015260800190565b60208082526025908201527f45524332303a207472616e736665722066726f6d20746865207a65726f206164604082015264647265737360d81b606082015260800190565b6020808252601c908201527f496e666c6174696f6e20697320616c7265616479207374617274656400000000604082015260600190565b60208082526024908201527f45524332303a20617070726f76652066726f6d20746865207a65726f206164646040820152637265737360e01b606082015260800190565b602080825260139082015272546f6f20686967682070657263656e7461676560681b604082015260600190565b60208082526026908201527f50657263656e74616765206d757374206265206265747765656e2031302520616040820152656e642039302560d01b606082015260800190565b6020808252602c908201527f596f75206861766520746f20776169742033302064617973206166746572206c60408201526b617374206368616e67696e6760a01b606082015260800190565b6020808252602a908201527f45524332305061757361626c653a20746f6b656e207472616e736665722077686040820152691a5b19481c185d5cd95960b21b606082015260800190565b600060a082019050825182526020830151602083015260408301516040830152606083015160608301526080830151608083015292915050565b90815260200190565b918252602082015260400190565b60ff91909116815260200190565b6001600160a01b038116811461082c57600080fdfe45524332303a206275726e20616d6f756e7420657863656564732062616c616e636545524332303a207472616e7366657220616d6f756e7420657863656564732062616c616e636545524332303a207472616e7366657220616d6f756e74206578636565647320616c6c6f77616e636545524332303a2064656372656173656420616c6c6f77616e63652062656c6f77207a65726fa26469706673582212206b6325806d5a8ef76e90691f8a36eb17fc30ec337b3b028c2cbbca61c03d639264736f6c63430006020033",
  "source": "// SPDX-License-Identifier: GPL-3.0\npragma solidity 0.6.2;\npragma experimental ABIEncoderV2;\n\nimport \"./CitadelInflation.sol\";\n\ncontract CitadelTokenLocker is CitadelInflation {\n\n    struct HistoryItem {\n        uint value;\n        uint date;\n    }\n\n    mapping (address => uint) public lockedCoins;\n\n    bool private _isInitialized;\n    address private _lockerAddress;\n    HistoryItem[] private _totalLockedSupplyHistory;\n    mapping (address => HistoryItem[]) private _lockedCoinsHistory;\n\n    function lockedBalanceOf(address account) external view returns (uint) {\n        return lockedCoins[account];\n    }\n\n    function lockedSupply() external view returns (uint) {\n        return _lockedTotalSupply();\n    }\n\n    function totalSupplyHistoryCount() external view\n    returns (uint) {\n        return _totalLockedSupplyHistory.length;\n    }\n\n    function totalSupplyHistory(uint index) external view\n    returns (\n        uint value,\n        uint date\n    ) {\n        require (index < _totalLockedSupplyHistory.length, \"CitadelTokenLocker: unexpected index\");\n        value = _totalLockedSupplyHistory[index].value;\n        date = _totalLockedSupplyHistory[index].date;\n    }\n\n    function lockHistoryCount(address addr) external view\n    returns (uint) {\n        return _lockedCoinsHistory[addr].length;\n    }\n\n    function lockHistory(address addr, uint index) external view\n    returns (\n        uint value,\n        uint date\n    ) {\n        require (index < _lockedCoinsHistory[addr].length, \"CitadelTokenLocker: unexpected index\");\n        value = _lockedCoinsHistory[addr][index].value;\n        date = _lockedCoinsHistory[addr][index].date;\n    }\n\n    function stake(uint amount) external activeInflation {\n        \n        _makeInflationSnapshot();\n\n        _transfer(msg.sender, _lockerAddress, amount);\n        lockedCoins[msg.sender] = lockedCoins[msg.sender].add(amount);\n        // put mark in history\n        _totalLockedSupplyHistory.push(HistoryItem(_lockedTotalSupply(), _timestamp()));\n        _lockedCoinsHistory[msg.sender].push(HistoryItem(lockedCoins[msg.sender], _timestamp()));\n        // ...\n        stakeUpdated();\n\n    }\n\n    function unstake(uint amount) external activeInflation {\n\n        require(lockedCoins[msg.sender] >= amount);\n\n        _makeInflationSnapshot();\n\n        _transfer(_lockerAddress, msg.sender, amount);\n        lockedCoins[msg.sender] = lockedCoins[msg.sender].sub(amount);\n        // put mark in history\n        _totalLockedSupplyHistory.push(HistoryItem(_lockedTotalSupply(), _timestamp()));\n        _lockedCoinsHistory[msg.sender].push(HistoryItem(lockedCoins[msg.sender], _timestamp()));\n        // ...\n        stakeUpdated();\n\n    }\n\n    function restake() external activeInflation {\n\n        require(address(_Vesting) != address(0), \"CitadelTokenLocker: vesting contract undefined\");\n        \n        uint amount = _Vesting.claimFor(msg.sender);\n\n        require(amount > 0);\n\n        _makeInflationSnapshot();\n        _transfer(address(1), _lockerAddress, amount);\n        \n        lockedCoins[msg.sender] = lockedCoins[msg.sender].add(amount);\n        // put mark in history\n        _totalLockedSupplyHistory.push(HistoryItem(_lockedTotalSupply(), _timestamp()));\n        _lockedCoinsHistory[msg.sender].push(HistoryItem(lockedCoins[msg.sender], _timestamp()));\n        // ...\n        stakeUpdated();\n\n    }\n\n    function stakeUpdated() internal virtual {\n        if (address(_dao) != address(0)) {\n            _dao.updatedStake(msg.sender);\n        }\n        if (address(_Vesting) != address(0)) {\n            _Vesting.updateSnapshot(msg.sender);\n        }\n    }\n\n    function _initCitadelTokenLocker(address lockerAddress_) internal {\n\n        require(!_isInitialized);\n\n        _isInitialized = true;\n        _lockerAddress = lockerAddress_;\n\n    }\n\n    function _lockedTotalSupply() private view returns (uint) {\n        return balanceOf(_lockerAddress);\n    }\n\n}\n",
  "sourcePath": "/home/pirat/Desktop/DAO/contracts/Token/CitadelTokenLocker.sol",
  "compiler": {
    "name": "solc",
    "version": "0.6.2+commit.bacdbe57.Emscripten.clang"
  },
  "schemaVersion": "3.2.5",
  "updatedAt": "2021-06-17T16:12:27.183Z",
  "devdoc": {
    "methods": {
      "allowance(address,address)": {
        "details": "See {IERC20-allowance}."
      },
      "approve(address,uint256)": {
        "details": "See {IERC20-approve}.     * Requirements:     * - `spender` cannot be the zero address."
      },
      "balanceOf(address)": {
        "details": "See {IERC20-balanceOf}."
      },
      "decimals()": {
        "details": "Returns the number of decimals used to get its user representation. For example, if `decimals` equals `2`, a balance of `505` tokens should be displayed to a user as `5,05` (`505 / 10 ** 2`).     * Tokens usually opt for a value of 18, imitating the relationship between Ether and Wei. This is the value {ERC20} uses, unless {_setupDecimals} is called.     * NOTE: This information is only used for _display_ purposes: it in no way affects any of the arithmetic of the contract, including {IERC20-balanceOf} and {IERC20-transfer}."
      },
      "decreaseAllowance(address,uint256)": {
        "details": "Atomically decreases the allowance granted to `spender` by the caller.     * This is an alternative to {approve} that can be used as a mitigation for problems described in {IERC20-approve}.     * Emits an {Approval} event indicating the updated allowance.     * Requirements:     * - `spender` cannot be the zero address. - `spender` must have allowance for the caller of at least `subtractedValue`."
      },
      "increaseAllowance(address,uint256)": {
        "details": "Atomically increases the allowance granted to `spender` by the caller.     * This is an alternative to {approve} that can be used as a mitigation for problems described in {IERC20-approve}.     * Emits an {Approval} event indicating the updated allowance.     * Requirements:     * - `spender` cannot be the zero address."
      },
      "name()": {
        "details": "Returns the name of the token."
      },
      "owner()": {
        "details": "Returns the address of the current owner."
      },
      "paused()": {
        "details": "Returns true if the contract is paused, and false otherwise."
      },
      "renounceOwnership()": {
        "details": "Leaves the contract without owner. It will not be possible to call `onlyOwner` functions anymore. Can only be called by the current owner.     * NOTE: Renouncing ownership will leave the contract without an owner, thereby removing any functionality that is only available to the owner."
      },
      "symbol()": {
        "details": "Returns the symbol of the token, usually a shorter version of the name."
      },
      "totalSupply()": {
        "details": "See {IERC20-totalSupply}."
      },
      "transfer(address,uint256)": {
        "details": "See {IERC20-transfer}.     * Requirements:     * - `recipient` cannot be the zero address. - the caller must have a balance of at least `amount`."
      },
      "transferFrom(address,address,uint256)": {
        "details": "See {IERC20-transferFrom}.     * Emits an {Approval} event indicating the updated allowance. This is not required by the EIP. See the note at the beginning of {ERC20};     * Requirements: - `sender` and `recipient` cannot be the zero address. - `sender` must have a balance of at least `amount`. - the caller must have allowance for ``sender``'s tokens of at least `amount`."
      },
      "transferOwnership(address)": {
        "details": "Transfers ownership of the contract to a new account (`newOwner`). Can only be called by the current owner."
      }
    }
  },
  "userdoc": {
    "methods": {}
  }
}