{
  "contractName": "CitadelRewards",
  "abi": [
    {
      "inputs": [
        {
          "internalType": "address",
          "name": "addressOfToken",
          "type": "address"
        }
      ],
      "stateMutability": "nonpayable",
      "type": "constructor"
    },
    {
      "anonymous": false,
      "inputs": [
        {
          "indexed": false,
          "internalType": "address",
          "name": "recipient",
          "type": "address"
        },
        {
          "indexed": false,
          "internalType": "uint256",
          "name": "amount",
          "type": "uint256"
        }
      ],
      "name": "Claim",
      "type": "event"
    },
    {
      "anonymous": false,
      "inputs": [
        {
          "indexed": true,
          "internalType": "address",
          "name": "previousOwner",
          "type": "address"
        },
        {
          "indexed": true,
          "internalType": "address",
          "name": "newOwner",
          "type": "address"
        }
      ],
      "name": "OwnershipTransferred",
      "type": "event"
    },
    {
      "inputs": [],
      "name": "owner",
      "outputs": [
        {
          "internalType": "address",
          "name": "",
          "type": "address"
        }
      ],
      "stateMutability": "view",
      "type": "function"
    },
    {
      "inputs": [],
      "name": "renounceOwnership",
      "outputs": [],
      "stateMutability": "nonpayable",
      "type": "function"
    },
    {
      "inputs": [
        {
          "internalType": "address",
          "name": "newOwner",
          "type": "address"
        }
      ],
      "name": "transferOwnership",
      "outputs": [],
      "stateMutability": "nonpayable",
      "type": "function"
    },
    {
      "inputs": [],
      "name": "version",
      "outputs": [
        {
          "internalType": "uint256",
          "name": "",
          "type": "uint256"
        }
      ],
      "stateMutability": "pure",
      "type": "function"
    },
    {
      "inputs": [],
      "name": "getRewardRate",
      "outputs": [
        {
          "internalType": "uint256",
          "name": "",
          "type": "uint256"
        }
      ],
      "stateMutability": "view",
      "type": "function"
    },
    {
      "inputs": [],
      "name": "getRewardsCoef",
      "outputs": [
        {
          "internalType": "uint256",
          "name": "",
          "type": "uint256"
        }
      ],
      "stateMutability": "view",
      "type": "function"
    },
    {
      "inputs": [],
      "name": "get_lastUpdateTime",
      "outputs": [
        {
          "internalType": "uint256",
          "name": "",
          "type": "uint256"
        }
      ],
      "stateMutability": "view",
      "type": "function"
    },
    {
      "inputs": [
        {
          "internalType": "address",
          "name": "account",
          "type": "address"
        }
      ],
      "name": "getUserSnapshot",
      "outputs": [
        {
          "components": [
            {
              "internalType": "uint256",
              "name": "rewardPerToken",
              "type": "uint256"
            },
            {
              "internalType": "uint256",
              "name": "frozen",
              "type": "uint256"
            },
            {
              "internalType": "uint256",
              "name": "vested",
              "type": "uint256"
            },
            {
              "internalType": "uint256",
              "name": "claimed",
              "type": "uint256"
            }
          ],
          "internalType": "struct CitadelRewards.UserSnapshot",
          "name": "",
          "type": "tuple"
        }
      ],
      "stateMutability": "view",
      "type": "function"
    },
    {
      "inputs": [
        {
          "internalType": "address",
          "name": "account",
          "type": "address"
        }
      ],
      "name": "claimable",
      "outputs": [
        {
          "internalType": "uint256",
          "name": "",
          "type": "uint256"
        }
      ],
      "stateMutability": "view",
      "type": "function"
    },
    {
      "inputs": [
        {
          "internalType": "address",
          "name": "account",
          "type": "address"
        }
      ],
      "name": "totalVestedOf",
      "outputs": [
        {
          "internalType": "uint256",
          "name": "",
          "type": "uint256"
        }
      ],
      "stateMutability": "view",
      "type": "function"
    },
    {
      "inputs": [
        {
          "internalType": "address",
          "name": "account",
          "type": "address"
        }
      ],
      "name": "totalClaimedOf",
      "outputs": [
        {
          "internalType": "uint256",
          "name": "",
          "type": "uint256"
        }
      ],
      "stateMutability": "view",
      "type": "function"
    },
    {
      "inputs": [
        {
          "internalType": "address",
          "name": "account",
          "type": "address"
        }
      ],
      "name": "claimFor",
      "outputs": [
        {
          "internalType": "uint256",
          "name": "amount",
          "type": "uint256"
        }
      ],
      "stateMutability": "nonpayable",
      "type": "function"
    },
    {
      "inputs": [],
      "name": "claim",
      "outputs": [
        {
          "internalType": "uint256",
          "name": "amount",
          "type": "uint256"
        }
      ],
      "stateMutability": "nonpayable",
      "type": "function"
    },
    {
      "inputs": [
        {
          "internalType": "address",
          "name": "account",
          "type": "address"
        }
      ],
      "name": "updateSnapshot",
      "outputs": [],
      "stateMutability": "nonpayable",
      "type": "function"
    },
    {
      "inputs": [
        {
          "internalType": "uint256",
          "name": "time",
          "type": "uint256"
        }
      ],
      "name": "rewardPerToken",
      "outputs": [
        {
          "internalType": "uint256",
          "name": "",
          "type": "uint256"
        }
      ],
      "stateMutability": "view",
      "type": "function"
    }
  ],
  "bytecode": "0x60806040523480156200001157600080fd5b506040516200178438038062001784833981016040819052620000349162000139565b6000620000496001600160e01b036200013516565b600080546001600160a01b0319166001600160a01b0383169081178255604051929350917f8be0079c531659141344cd1fd0a4f28419497f9722a3daafe3b4186f6b6457e0908290a350600180546001600160a01b0319166001600160a01b038381169190911791829055604080516326079c6160e11b815290519290911691634c0f38c291600480820192602092909190829003018186803b158015620000f057600080fd5b505afa15801562000105573d6000803e3d6000fd5b505050506040513d601f19601f820116820180604052506200012b919081019062000169565b6002555062000182565b3390565b6000602082840312156200014b578081fd5b81516001600160a01b038116811462000162578182fd5b9392505050565b6000602082840312156200017b578081fd5b5051919050565b6115f280620001926000396000f3fe608060405234801561001057600080fd5b50600436106100f55760003560e01c8063874c120b11610097578063d6d789b711610066578063d6d789b7146101bb578063ddeae033146101ce578063f2fde38b146101e1578063f794ebb9146101f4576100f5565b8063874c120b146101605780638da5cb5b14610173578063913f9d9114610188578063b68d0a091461019b576100f5565b806354fd4d50116100d357806354fd4d5014610140578063715018a6146101485780637244a3eb146101505780637e1a378614610158576100f5565b80633d9eba70146100fa578063402914f51461010f5780634e71d92d14610138575b600080fd5b61010d610108366004611325565b6101fc565b005b61012261011d366004611325565b6103b5565b60405161012f91906115b3565b60405180910390f35b6101226103f2565b6101226105ec565b61010d6105f2565b610122610671565b610122610677565b61012261016e3660046113b7565b61067d565b61017b6106de565b60405161012f91906113e7565b610122610196366004611325565b6106ed565b6101ae6101a9366004611325565b6106f8565b60405161012f9190611588565b6101226101c9366004611325565b61074b565b6101226101dc366004611325565b61076a565b61010d6101ef366004611325565b6108a4565b61012261095a565b6001546001600160a01b0316331461021357600080fd5b8061021c611296565b610224610960565b90508060a001511561024e5780516007556060810151600655608081015160055560408101516008555b6000610258610f88565b90506102638161067d565b6007556006819055610276836001610f8c565b6001600160a01b038085166000908152600360209081526040918290206002810194909455600754909355600154815163ca5c7b9160e01b8152915192169263ca5c7b9192600480840193829003018186803b1580156102d557600080fd5b505afa1580156102e9573d6000803e3d6000fd5b505050506040513d601f19601f8201168201806040525061030d91908101906113cf565b6004908155600154604051632c9aab9b60e11b81526001600160a01b0390911691635935573691610340918891016113e7565b60206040518083038186803b15801561035857600080fd5b505afa15801561036c573d6000803e3d6000fd5b505050506040513d601f19601f8201168201806040525061039091908101906113cf565b6001600160a01b03909416600090815260036020526040902060010193909355505050565b6001600160a01b0381166000908152600360208190526040822001546103ea906103de84611138565b9063ffffffff61114516565b90505b919050565b60015460408051633492021360e11b815290516000926001600160a01b0316916369240426916004808301928692919082900301818387803b15801561043757600080fd5b505af115801561044b573d6000803e3d6000fd5b5050505033610458611296565b610460610960565b90508060a001511561048a5780516007556060810151600655608081015160055560408101516008555b6000610494610f88565b905061049f8161067d565b60075560068190556104b2836001610f8c565b6001600160a01b038416600090815260036020819052604080832060028082019590955560075490553380845292209081015492015490916104fa919063ffffffff61114516565b9450600085116105255760405162461bcd60e51b815260040161051c906114e4565b60405180910390fd5b6001600160a01b0381166000908152600360208190526040918290206002810154910155517f47cee97cb7acd717b3c0aa1435d004cd5b3c8c57d70dbceb4e4458bbd60e39d49061057990839088906113fb565b60405180910390a160015460405163f3fef3a360e01b81526001600160a01b039091169063f3fef3a3906105b390849089906004016113fb565b600060405180830381600087803b1580156105cd57600080fd5b505af11580156105e1573d6000803e3d6000fd5b505050505050505090565b60015b90565b6105fa61118e565b6000546001600160a01b039081169116146106275760405162461bcd60e51b815260040161051c90611553565b600080546040516001600160a01b03909116907f8be0079c531659141344cd1fd0a4f28419497f9722a3daafe3b4186f6b6457e0908390a3600080546001600160a01b0319169055565b60075490565b60085490565b60006004546000141561069357506007546103ed565b6103ea6007546106d26004546106c66106b76006548861114590919063ffffffff16565b6008549063ffffffff61119216565b9063ffffffff6111cc16565b9063ffffffff61120e16565b6000546001600160a01b031690565b60006103ea82611138565b6107006112ce565b506001600160a01b0316600090815260036020818152604092839020835160808101855281548152600182015492810192909252600281015493820193909352910154606082015290565b6001600160a01b03166000908152600360208190526040909120015490565b6001546000906001600160a01b0316331461078457600080fd5b8161078d611296565b610795610960565b90508060a00151156107bf5780516007556060810151600655608081015160055560408101516008555b60006107c9610f88565b90506107d48161067d565b60075560068190556107e7836001610f8c565b6001600160a01b0380851660009081526003602081905260408083206002808201969096556007549055928916825291902090810154910154039350836108405760405162461bcd60e51b815260040161051c906114e4565b6001600160a01b0385166000908152600360208190526040918290206002810154910155517f47cee97cb7acd717b3c0aa1435d004cd5b3c8c57d70dbceb4e4458bbd60e39d49061089490879087906113fb565b60405180910390a1505050919050565b6108ac61118e565b6000546001600160a01b039081169116146108d95760405162461bcd60e51b815260040161051c90611553565b6001600160a01b0381166108ff5760405162461bcd60e51b815260040161051c90611467565b600080546040516001600160a01b03808516939216917f8be0079c531659141344cd1fd0a4f28419497f9722a3daafe3b4186f6b6457e091a3600080546001600160a01b0319166001600160a01b0392909216919091179055565b60065490565b610968611296565b600060055411801561097a5750600854155b15610984576105ef565b6005546080820152600154604080516325a2d50960e11b815290516000926001600160a01b031691634b45aa12916004808301926020929190829003018186803b1580156109d157600080fd5b505afa1580156109e5573d6000803e3d6000fd5b505050506040513d601f19601f82011682018060405250610a0991908101906113cf565b90506000610a15610f88565b90506000600160009054906101000a90046001600160a01b03166001600160a01b0316631d0a67e16040518163ffffffff1660e01b815260040160206040518083038186803b158015610a6757600080fd5b505afa158015610a7b573d6000803e3d6000fd5b505050506040513d601f19601f82011682018060405250610a9f91908101906113cf565b905060008460800151841115610c9557610ab76112f6565b6007548652600654606087015260085460408701525b8486608001511015610c8c576001546080870151604051631e28e97b60e31b81526001600160a01b039092169163f1474bd891610b0c916004016115b3565b60a06040518083038186803b158015610b2457600080fd5b505afa158015610b38573d6000803e3d6000fd5b505050506040513d601f19601f82011682018060405250610b5c919081019061134c565b90508381608001511115610b7557506105ef9350505050565b60008660400151118015610b8d575060008660600151115b8015610b9b57506000600454115b15610be057610bdd86600001516106d26004546106c6610bcc8b60600151876080015161114590919063ffffffff16565b60408c01519063ffffffff61119216565b86525b805160c81115610c2357610c1c60646106c68360200151610c10856060015160025461114590919063ffffffff16565b9063ffffffff61119216565b9150610c4e565b602081015181516060830151610c4b92620f4240926106c692610c109163ffffffff61119216565b91505b610c6e6301e133806106c684670de0b6b3a764000063ffffffff61119216565b60408701526080808201516060880152860180516001019052610acd565b50600160a08601525b60045415610f81576000610cb3836301e1338063ffffffff61120e16565b905083811015610f7f578560a00151610ce357600160a08701526007548652600654606087015260085460408701525b610ceb6112f6565b6001546080880151604051631e28e97b60e31b81526001600160a01b039092169163f1474bd891610d2591600019909101906004016115b3565b60a06040518083038186803b158015610d3d57600080fd5b505afa158015610d51573d6000803e3d6000fd5b505050506040513d601f19601f82011682018060405250610d75919081019061134c565b9050610dbd81604001516106d26127106106c66301e133806106c6610da788608001518a61114590919063ffffffff16565b885160608a0151610c109163ffffffff61119216565b606080830191909152870151600090610ddd90849063ffffffff61114516565b90505b85831015610f6357875160045460408a0151610e0b92916106d2916106c6908663ffffffff61119216565b88526301e13380811015610e2057506301e133805b815160c81015610e52578151610e3d90603263ffffffff61114516565b80835260c81115610e4d5760c882525b610e94565b815160c81415610e94576060820151600254600091610e83916106c69061271090610c10908463ffffffff61114516565b905060c8811015610e92578083525b505b602082015182516060840151610ebc92620f4240926106c692610c109163ffffffff61119216565b9350600254610ed885846060015161120e90919063ffffffff16565b10610ef7576060820151600254610ef49163ffffffff61114516565b93505b6060820151610f0c908563ffffffff61120e16565b6060830152610f316301e133806106c686670de0b6b3a764000063ffffffff61119216565b6040890152610f4a836301e1338063ffffffff61120e16565b925060c882600001511015610f5e57610f63565b610de0565b610f77836301e1338063ffffffff61114516565b606089015250505b505b5050505090565b4290565b6001600160a01b038216600090815260036020526040812060010154610fce57506001600160a01b038216600090815260036020526040902060020154611132565b6000610fd8610f88565b9050826110c357610fe7611296565b610fef610960565b90508060a00151156110c1576000806004541161100d578151611046565b61104682600001516106d26004546106c661103587606001518961114590919063ffffffff16565b60408801519063ffffffff61119216565b6001600160a01b0387166000908152600360205260409020600281015490549192506110b7916106d290670de0b6b3a7640000906106c69061108f90879063ffffffff61114516565b6001600160a01b038c166000908152600360205260409020600101549063ffffffff61119216565b9350505050611132565b505b6001600160a01b03841660009081526003602052604090206002810154905461112e91906106d290670de0b6b3a7640000906106c690611106906103de8861067d565b6001600160a01b038a166000908152600360205260409020600101549063ffffffff61119216565b9150505b92915050565b60006103ea826000610f8c565b600061118783836040518060400160405280601e81526020017f536166654d6174683a207375627472616374696f6e206f766572666c6f770000815250611233565b9392505050565b3390565b6000826111a157506000611132565b828202828482816111ae57fe5b04146111875760405162461bcd60e51b815260040161051c90611512565b600061118783836040518060400160405280601a81526020017f536166654d6174683a206469766973696f6e206279207a65726f00000000000081525061125f565b6000828201838110156111875760405162461bcd60e51b815260040161051c906114ad565b600081848411156112575760405162461bcd60e51b815260040161051c9190611414565b505050900390565b600081836112805760405162461bcd60e51b815260040161051c9190611414565b50600083858161128c57fe5b0495945050505050565b6040518060c0016040528060008152602001600081526020016000815260200160008152602001600081526020016000151581525090565b6040518060800160405280600081526020016000815260200160008152602001600081525090565b6040518060a0016040528060008152602001600081526020016000815260200160008152602001600081525090565b600060208284031215611336578081fd5b81356001600160a01b0381168114611187578182fd5b600060a0828403121561135d578081fd5b60405160a0810181811067ffffffffffffffff8211171561137c578283fd5b806040525082518152602083015160208201526040830151604082015260608301516060820152608083015160808201528091505092915050565b6000602082840312156113c8578081fd5b5035919050565b6000602082840312156113e0578081fd5b5051919050565b6001600160a01b0391909116815260200190565b6001600160a01b03929092168252602082015260400190565b6000602080835283518082850152825b8181101561144057858101830151858201604001528201611424565b818111156114515783604083870101525b50601f01601f1916929092016040019392505050565b60208082526026908201527f4f776e61626c653a206e6577206f776e657220697320746865207a65726f206160408201526564647265737360d01b606082015260800190565b6020808252601b908201527f536166654d6174683a206164646974696f6e206f766572666c6f770000000000604082015260600190565b6020808252601490820152735a65726f20616d6f756e7420746f20636c61696d60601b604082015260600190565b60208082526021908201527f536166654d6174683a206d756c7469706c69636174696f6e206f766572666c6f6040820152607760f81b606082015260800190565b6020808252818101527f4f776e61626c653a2063616c6c6572206973206e6f7420746865206f776e6572604082015260600190565b8151815260208083015190820152604080830151908201526060918201519181019190915260800190565b9081526020019056fea26469706673582212203be6294640b0c971e005120a39dfbe4bcdf285a935d8c10e9bd6e5b5f925a14e64736f6c63430006020033",
  "source": "// SPDX-License-Identifier: GPL-3.0\npragma solidity 0.6.2;\npragma experimental ABIEncoderV2;\n\nimport \"../node_modules/openzeppelin-solidity/contracts/math/SafeMath.sol\";\nimport \"../node_modules/openzeppelin-solidity/contracts/access/Ownable.sol\";\nimport \"./ICitadelVestingTransport.sol\";\n\n\ncontract CitadelRewards is Ownable {\n    using SafeMath for uint;\n\n    struct UserSnapshot {\n        uint rewardPerToken;\n        uint frozen;\n        uint vested;\n        uint claimed;\n    }\n\n    struct RewardUpdating {\n        uint rewardPerToken;\n        uint rewardPerTokenFixed;\n        uint rate;\n        uint lastUpdateDate;\n        uint index;\n        bool isUpdated;\n    }\n\n    ICitadelVestingTransport private _Token;\n    uint private _maxInflationSupply;\n    mapping (address => UserSnapshot) private _userSnapshots;\n    uint private _totalSupply;\n    uint private _savedInflationIndex;\n    uint private _lastUpdateTime;\n    uint private _rewardPerTokenStored;\n    uint private _rewardRate;\n\n    modifier onlyToken() {\n        require(msg.sender == address(_Token));\n        _;\n    }\n\n    modifier needUpdateInflation() {\n        _Token.updateSnapshot();\n        _;\n    }\n\n    modifier updateReward(address account) {\n        RewardUpdating memory data = _getRewardsUpdate();\n        if (data.isUpdated) {\n            _rewardPerTokenStored = data.rewardPerToken;\n            _lastUpdateTime = data.lastUpdateDate;\n            _savedInflationIndex = data.index;\n            _rewardRate = data.rate;\n        }\n\n        uint time = _timestamp();\n        _rewardPerTokenStored = rewardPerToken(time);\n        _lastUpdateTime = time;\n\n        _userSnapshots[account].vested = _vested(account, true);\n        _userSnapshots[account].rewardPerToken = _rewardPerTokenStored;\n        _;\n    }\n\n    event Claim(address recipient, uint amount);\n\n    constructor (\n        address addressOfToken\n    ) public {\n        _Token = ICitadelVestingTransport(addressOfToken);\n        _maxInflationSupply = _Token.getMaxSupply();\n    }\n\n    /** EXTERNAL READ */\n\n    function version() external pure returns (uint) {\n        return 1;\n    }\n\n    function getRewardRate() external view returns (uint) {\n        return _rewardRate;\n    }\n\n    function getRewardsCoef() external view returns (uint) {\n        return _rewardPerTokenStored;\n    }\n\n    function get_lastUpdateTime() external view returns (uint) {\n        return _lastUpdateTime;\n    }\n\n    function getUserSnapshot(address account) external view returns (UserSnapshot memory) {\n        return _userSnapshots[account];\n    }\n\n    function claimable(address account) external view returns (uint) {\n        return _vested(account).sub(_userSnapshots[account].claimed);\n    }\n\n    function totalVestedOf(address account) external view returns (uint) {\n        return _vested(account);\n    }\n\n    function totalClaimedOf(address account) external view returns (uint) {\n        return _userSnapshots[account].claimed;\n    }\n\n    /** EXTERNAL WRITE */\n\n    function claimFor(address account) external onlyToken updateReward(account) returns (uint amount) {\n        amount = _userSnapshots[account].vested - _userSnapshots[account].claimed;\n        require(amount > 0, \"Zero amount to claim\");\n        _userSnapshots[account].claimed = _userSnapshots[account].vested;\n        emit Claim(account, amount);\n    }\n\n    function claim() external needUpdateInflation updateReward(msg.sender) returns (uint amount) {\n        address account = msg.sender;\n        amount = _userSnapshots[account].vested.sub(_userSnapshots[account].claimed);\n        require(amount > 0, \"Zero amount to claim\");\n        _userSnapshots[account].claimed = _userSnapshots[account].vested;\n        emit Claim(account, amount);\n        _Token.withdraw(account, amount);\n    }\n\n    function updateSnapshot(address account) external onlyToken updateReward(account) {\n        _totalSupply = _Token.lockedSupply();\n        _userSnapshots[account].frozen = _Token.lockedBalanceOf(account);\n    }\n\n    /** PUBLIC */\n\n    function rewardPerToken(uint time) public view returns (uint) {\n        if (_totalSupply == 0) return _rewardPerTokenStored;\n        return _rewardRate.mul(time.sub(_lastUpdateTime)).div(_totalSupply).add(_rewardPerTokenStored);\n    }\n\n    /** INTERNAL */\n\n    function _vested(address account) internal view returns (uint) {\n        return _vested(account, false);\n    }\n\n    function _vested(address account, bool easy) internal view returns (uint) {\n        if (_userSnapshots[account].frozen == 0) return _userSnapshots[account].vested;\n\n        uint time = _timestamp();\n\n        if (!easy) {\n            RewardUpdating memory data = _getRewardsUpdate();\n            if (data.isUpdated) {\n                uint tmpRewardPerToken = _totalSupply > 0 ? data.rate.mul(time.sub(data.lastUpdateDate)).div(_totalSupply).add(data.rewardPerToken) : data.rewardPerToken;\n                return _userSnapshots[account].frozen.mul(tmpRewardPerToken.sub(_userSnapshots[account].rewardPerToken)).div(1e18).add(_userSnapshots[account].vested);\n            }\n        }\n\n        return _userSnapshots[account].frozen.mul(rewardPerToken(time).sub(_userSnapshots[account].rewardPerToken)).div(1e18).add(_userSnapshots[account].vested);\n    }\n\n    function _getRewardsUpdate() internal view returns (\n        RewardUpdating memory data\n    ) {\n\n        if (_savedInflationIndex > 0 && _rewardRate == 0) return data;\n\n        data.index = _savedInflationIndex;\n\n        uint countInflation = _Token.countInflationPoints();\n        uint fixedTimestamp = _timestamp();\n        uint inflationYear = _Token.getSavedInflationYear();\n        uint yearlyVesting;\n\n        if (countInflation > data.index) {\n\n            ICitadelVestingTransport.InflationPointValues memory currPoint;\n\n            data.rewardPerToken = _rewardPerTokenStored;\n            data.lastUpdateDate = _lastUpdateTime;\n            data.rate = _rewardRate;\n\n            for (data.index; data.index < countInflation; data.index++) {\n\n                currPoint = _Token.inflationPoint(data.index);\n                if (currPoint.date > fixedTimestamp) return data;\n\n                if (data.rate > 0 && data.lastUpdateDate > 0 && _totalSupply > 0) {\n                    data.rewardPerToken = data.rate.mul(currPoint.date.sub(data.lastUpdateDate)).div(_totalSupply).add(data.rewardPerToken);\n                }\n\n                if (currPoint.inflationPct < 200) {\n                    yearlyVesting = _maxInflationSupply.sub(currPoint.yearlySupply).mul(currPoint.stakingPct).div(100);\n                } else {\n                    yearlyVesting = currPoint.yearlySupply.mul(currPoint.inflationPct).mul(currPoint.stakingPct).div(1000000);\n                }\n                \n                data.rate = yearlyVesting.mul(1e18).div(365 days);\n\n                data.lastUpdateDate = currPoint.date;\n\n            }\n\n            data.isUpdated = true;\n\n        }\n\n        if (_totalSupply > 0) {\n            uint endOfYear = inflationYear.add(365 days);\n            if (endOfYear < fixedTimestamp) {\n\n                if (!data.isUpdated) {\n                    data.isUpdated = true;\n                    data.rewardPerToken = _rewardPerTokenStored;\n                    data.lastUpdateDate = _lastUpdateTime;\n                    data.rate = _rewardRate;\n                }\n\n                ICitadelVestingTransport.InflationPointValues memory currPoint = _Token.inflationPoint(data.index - 1);\n\n                currPoint.yearlySupply = currPoint.yearlySupply.mul(currPoint.inflationPct).mul(endOfYear.sub(currPoint.date)).div(365 days).div(10000).add(currPoint.currentSupply);\n\n                uint leftTime = endOfYear.sub(data.lastUpdateDate);\n\n                while (endOfYear < fixedTimestamp) {\n                    \n                    data.rewardPerToken = data.rate.mul(leftTime).div(_totalSupply).add(data.rewardPerToken);\n                    if (leftTime < 365 days) leftTime = 365 days;\n\n                    if (currPoint.inflationPct > 200) {\n                        currPoint.inflationPct = currPoint.inflationPct.sub(50); // -0.5% each year\n                        if (currPoint.inflationPct < 200) currPoint.inflationPct = 200; // 2% is minimum\n                    } else if (currPoint.inflationPct == 200) {\n                        uint rest = _maxInflationSupply.sub(currPoint.yearlySupply).mul(10000).div(currPoint.yearlySupply);\n                        if (rest < 200) currPoint.inflationPct = rest;\n                    }\n\n                    yearlyVesting = currPoint.yearlySupply.mul(currPoint.inflationPct).mul(currPoint.stakingPct).div(1000000);\n                    \n                    if (currPoint.yearlySupply.add(yearlyVesting) >= _maxInflationSupply) {\n                        yearlyVesting = _maxInflationSupply.sub(currPoint.yearlySupply);\n                    }\n\n                    currPoint.yearlySupply = currPoint.yearlySupply.add(yearlyVesting);\n                    \n                    data.rate = yearlyVesting.mul(1e18).div(365 days);\n                    \n\n                    endOfYear = endOfYear.add(365 days);\n\n                    if (currPoint.inflationPct < 200) break;\n\n                }\n\n                data.lastUpdateDate = endOfYear.sub(365 days);\n\n            }\n        }\n\n    }\n\n    function _timestamp() internal virtual view returns (uint) {\n        return block.timestamp;\n    }\n\n}\n",
  "sourcePath": "/home/pirat/Desktop/DAO_update/DAO/contracts/CitadelRewards.sol",
  "compiler": {
    "name": "solc",
    "version": "0.6.2+commit.bacdbe57.Emscripten.clang"
  },
  "schemaVersion": "3.2.5",
  "updatedAt": "2021-08-16T15:52:52.401Z",
  "devdoc": {
    "methods": {
      "owner()": {
        "details": "Returns the address of the current owner."
      },
      "renounceOwnership()": {
        "details": "Leaves the contract without owner. It will not be possible to call `onlyOwner` functions anymore. Can only be called by the current owner.     * NOTE: Renouncing ownership will leave the contract without an owner, thereby removing any functionality that is only available to the owner."
      },
      "transferOwnership(address)": {
        "details": "Transfers ownership of the contract to a new account (`newOwner`). Can only be called by the current owner."
      }
    }
  },
  "userdoc": {
    "methods": {
      "claimFor(address)": {
        "notice": "EXTERNAL WRITE "
      },
      "rewardPerToken(uint256)": {
        "notice": "PUBLIC "
      },
      "version()": {
        "notice": "EXTERNAL READ "
      }
    }
  }
}