{
  "contractName": "CitadelDaoTest",
  "abi": [
    {
      "inputs": [
        {
          "internalType": "address",
          "name": "addressOfToken",
          "type": "address"
        }
      ],
      "stateMutability": "nonpayable",
      "type": "constructor"
    },
    {
      "anonymous": false,
      "inputs": [
        {
          "indexed": true,
          "internalType": "address",
          "name": "recipient",
          "type": "address"
        },
        {
          "indexed": false,
          "internalType": "uint256",
          "name": "amount",
          "type": "uint256"
        }
      ],
      "name": "ClaimStakingReward",
      "type": "event"
    },
    {
      "anonymous": false,
      "inputs": [
        {
          "indexed": true,
          "internalType": "uint256",
          "name": "issueId",
          "type": "uint256"
        },
        {
          "indexed": true,
          "internalType": "enum Voting.ProposalUpdater",
          "name": "category",
          "type": "uint8"
        },
        {
          "indexed": true,
          "internalType": "address",
          "name": "initialized",
          "type": "address"
        }
      ],
      "name": "ExecProposal",
      "type": "event"
    },
    {
      "anonymous": false,
      "inputs": [
        {
          "indexed": true,
          "internalType": "uint256",
          "name": "issueId",
          "type": "uint256"
        },
        {
          "indexed": true,
          "internalType": "address",
          "name": "creator",
          "type": "address"
        },
        {
          "indexed": true,
          "internalType": "enum Voting.ProposalType",
          "name": "votingType",
          "type": "uint8"
        },
        {
          "indexed": false,
          "internalType": "enum Voting.ProposalUpdater",
          "name": "votingUpdater",
          "type": "uint8"
        }
      ],
      "name": "NewProposal",
      "type": "event"
    },
    {
      "anonymous": false,
      "inputs": [
        {
          "indexed": true,
          "internalType": "uint256",
          "name": "issueId",
          "type": "uint256"
        },
        {
          "indexed": true,
          "internalType": "address",
          "name": "from",
          "type": "address"
        },
        {
          "indexed": true,
          "internalType": "uint256",
          "name": "option",
          "type": "uint256"
        },
        {
          "indexed": false,
          "internalType": "uint256",
          "name": "weight",
          "type": "uint256"
        }
      ],
      "name": "OnVote",
      "type": "event"
    },
    {
      "anonymous": false,
      "inputs": [
        {
          "indexed": true,
          "internalType": "address",
          "name": "previousOwner",
          "type": "address"
        },
        {
          "indexed": true,
          "internalType": "address",
          "name": "newOwner",
          "type": "address"
        }
      ],
      "name": "OwnershipTransferred",
      "type": "event"
    },
    {
      "anonymous": false,
      "inputs": [
        {
          "indexed": true,
          "internalType": "bytes32",
          "name": "role",
          "type": "bytes32"
        },
        {
          "indexed": true,
          "internalType": "bytes32",
          "name": "previousAdminRole",
          "type": "bytes32"
        },
        {
          "indexed": true,
          "internalType": "bytes32",
          "name": "newAdminRole",
          "type": "bytes32"
        }
      ],
      "name": "RoleAdminChanged",
      "type": "event"
    },
    {
      "anonymous": false,
      "inputs": [
        {
          "indexed": true,
          "internalType": "bytes32",
          "name": "role",
          "type": "bytes32"
        },
        {
          "indexed": true,
          "internalType": "address",
          "name": "account",
          "type": "address"
        },
        {
          "indexed": true,
          "internalType": "address",
          "name": "sender",
          "type": "address"
        }
      ],
      "name": "RoleGranted",
      "type": "event"
    },
    {
      "anonymous": false,
      "inputs": [
        {
          "indexed": true,
          "internalType": "bytes32",
          "name": "role",
          "type": "bytes32"
        },
        {
          "indexed": true,
          "internalType": "address",
          "name": "account",
          "type": "address"
        },
        {
          "indexed": true,
          "internalType": "address",
          "name": "sender",
          "type": "address"
        }
      ],
      "name": "RoleRevoked",
      "type": "event"
    },
    {
      "anonymous": false,
      "inputs": [
        {
          "indexed": false,
          "internalType": "bool",
          "name": "isAvailable",
          "type": "bool"
        },
        {
          "indexed": false,
          "internalType": "uint256",
          "name": "minStaked",
          "type": "uint256"
        }
      ],
      "name": "SetProposalAvailability",
      "type": "event"
    },
    {
      "anonymous": false,
      "inputs": [
        {
          "indexed": false,
          "internalType": "address",
          "name": "addr",
          "type": "address"
        }
      ],
      "name": "SetVerifyRewardAddress",
      "type": "event"
    },
    {
      "anonymous": false,
      "inputs": [
        {
          "indexed": true,
          "internalType": "enum Voting.ProposalUpdater",
          "name": "updater",
          "type": "uint8"
        },
        {
          "indexed": false,
          "internalType": "uint256",
          "name": "quorumPct",
          "type": "uint256"
        },
        {
          "indexed": false,
          "internalType": "uint256",
          "name": "supportPct",
          "type": "uint256"
        }
      ],
      "name": "UpdatedProposalConfig",
      "type": "event"
    },
    {
      "inputs": [],
      "name": "ADMIN_ROLE",
      "outputs": [
        {
          "internalType": "bytes32",
          "name": "",
          "type": "bytes32"
        }
      ],
      "stateMutability": "view",
      "type": "function"
    },
    {
      "inputs": [],
      "name": "DEFAULT_ADMIN_ROLE",
      "outputs": [
        {
          "internalType": "bytes32",
          "name": "",
          "type": "bytes32"
        }
      ],
      "stateMutability": "view",
      "type": "function"
    },
    {
      "inputs": [],
      "name": "VOTING_ROLE",
      "outputs": [
        {
          "internalType": "bytes32",
          "name": "",
          "type": "bytes32"
        }
      ],
      "stateMutability": "view",
      "type": "function"
    },
    {
      "inputs": [
        {
          "internalType": "address",
          "name": "account",
          "type": "address"
        }
      ],
      "name": "addAdmin",
      "outputs": [],
      "stateMutability": "nonpayable",
      "type": "function"
    },
    {
      "inputs": [
        {
          "internalType": "address",
          "name": "account",
          "type": "address"
        }
      ],
      "name": "availableToCreateProposals",
      "outputs": [
        {
          "internalType": "bool",
          "name": "",
          "type": "bool"
        }
      ],
      "stateMutability": "view",
      "type": "function"
    },
    {
      "inputs": [
        {
          "internalType": "uint256",
          "name": "issueId",
          "type": "uint256"
        },
        {
          "internalType": "address",
          "name": "addr",
          "type": "address"
        }
      ],
      "name": "ballotOf",
      "outputs": [
        {
          "internalType": "uint256",
          "name": "",
          "type": "uint256"
        }
      ],
      "stateMutability": "view",
      "type": "function"
    },
    {
      "inputs": [
        {
          "internalType": "uint256",
          "name": "reward",
          "type": "uint256"
        },
        {
          "internalType": "uint256",
          "name": "nonceId",
          "type": "uint256"
        },
        {
          "internalType": "bytes32",
          "name": "hash",
          "type": "bytes32"
        },
        {
          "internalType": "bytes",
          "name": "signature",
          "type": "bytes"
        }
      ],
      "name": "claimReward",
      "outputs": [
        {
          "internalType": "bool",
          "name": "",
          "type": "bool"
        }
      ],
      "stateMutability": "nonpayable",
      "type": "function"
    },
    {
      "inputs": [
        {
          "internalType": "uint256",
          "name": "issueId",
          "type": "uint256"
        }
      ],
      "name": "countOptions",
      "outputs": [
        {
          "internalType": "uint256",
          "name": "",
          "type": "uint256"
        }
      ],
      "stateMutability": "view",
      "type": "function"
    },
    {
      "inputs": [],
      "name": "countProposals",
      "outputs": [
        {
          "internalType": "uint256",
          "name": "",
          "type": "uint256"
        }
      ],
      "stateMutability": "view",
      "type": "function"
    },
    {
      "inputs": [
        {
          "internalType": "bool",
          "name": "isAvailable",
          "type": "bool"
        },
        {
          "internalType": "uint256",
          "name": "minStaked",
          "type": "uint256"
        }
      ],
      "name": "createProposalAvailability",
      "outputs": [],
      "stateMutability": "nonpayable",
      "type": "function"
    },
    {
      "inputs": [
        {
          "internalType": "address",
          "name": "creator",
          "type": "address"
        },
        {
          "internalType": "uint256",
          "name": "issueId",
          "type": "uint256"
        }
      ],
      "name": "depositedForProposal",
      "outputs": [
        {
          "internalType": "uint256",
          "name": "",
          "type": "uint256"
        }
      ],
      "stateMutability": "view",
      "type": "function"
    },
    {
      "inputs": [
        {
          "internalType": "uint256",
          "name": "issueId",
          "type": "uint256"
        }
      ],
      "name": "execProposal",
      "outputs": [],
      "stateMutability": "nonpayable",
      "type": "function"
    },
    {
      "inputs": [],
      "name": "executionTime",
      "outputs": [
        {
          "internalType": "uint256",
          "name": "",
          "type": "uint256"
        }
      ],
      "stateMutability": "view",
      "type": "function"
    },
    {
      "inputs": [],
      "name": "getNewestProposal",
      "outputs": [
        {
          "internalType": "uint256",
          "name": "issueId",
          "type": "uint256"
        },
        {
          "internalType": "string",
          "name": "title",
          "type": "string"
        },
        {
          "internalType": "enum Voting.ProposalType",
          "name": "votingType",
          "type": "uint8"
        },
        {
          "internalType": "enum Voting.ProposalUpdater",
          "name": "votingUpdater",
          "type": "uint8"
        }
      ],
      "stateMutability": "view",
      "type": "function"
    },
    {
      "inputs": [
        {
          "internalType": "bytes32",
          "name": "role",
          "type": "bytes32"
        }
      ],
      "name": "getRoleAdmin",
      "outputs": [
        {
          "internalType": "bytes32",
          "name": "",
          "type": "bytes32"
        }
      ],
      "stateMutability": "view",
      "type": "function"
    },
    {
      "inputs": [
        {
          "internalType": "bytes32",
          "name": "role",
          "type": "bytes32"
        },
        {
          "internalType": "uint256",
          "name": "index",
          "type": "uint256"
        }
      ],
      "name": "getRoleMember",
      "outputs": [
        {
          "internalType": "address",
          "name": "",
          "type": "address"
        }
      ],
      "stateMutability": "view",
      "type": "function"
    },
    {
      "inputs": [
        {
          "internalType": "bytes32",
          "name": "role",
          "type": "bytes32"
        }
      ],
      "name": "getRoleMemberCount",
      "outputs": [
        {
          "internalType": "uint256",
          "name": "",
          "type": "uint256"
        }
      ],
      "stateMutability": "view",
      "type": "function"
    },
    {
      "inputs": [
        {
          "internalType": "bytes32",
          "name": "role",
          "type": "bytes32"
        },
        {
          "internalType": "address",
          "name": "account",
          "type": "address"
        }
      ],
      "name": "grantRole",
      "outputs": [],
      "stateMutability": "nonpayable",
      "type": "function"
    },
    {
      "inputs": [
        {
          "internalType": "bytes32",
          "name": "role",
          "type": "bytes32"
        },
        {
          "internalType": "address",
          "name": "account",
          "type": "address"
        }
      ],
      "name": "hasRole",
      "outputs": [
        {
          "internalType": "bool",
          "name": "",
          "type": "bool"
        }
      ],
      "stateMutability": "view",
      "type": "function"
    },
    {
      "inputs": [],
      "name": "isOpenProposals",
      "outputs": [
        {
          "internalType": "bool",
          "name": "",
          "type": "bool"
        }
      ],
      "stateMutability": "view",
      "type": "function"
    },
    {
      "inputs": [
        {
          "internalType": "uint256",
          "name": "issueId",
          "type": "uint256"
        }
      ],
      "name": "issueDescription",
      "outputs": [
        {
          "internalType": "string",
          "name": "",
          "type": "string"
        }
      ],
      "stateMutability": "view",
      "type": "function"
    },
    {
      "inputs": [],
      "name": "minAmountToCreate",
      "outputs": [
        {
          "internalType": "uint256",
          "name": "",
          "type": "uint256"
        }
      ],
      "stateMutability": "view",
      "type": "function"
    },
    {
      "inputs": [
        {
          "internalType": "string",
          "name": "title",
          "type": "string"
        },
        {
          "internalType": "string",
          "name": "description",
          "type": "string"
        },
        {
          "internalType": "uint256",
          "name": "expiryTime",
          "type": "uint256"
        },
        {
          "internalType": "string[]",
          "name": "options",
          "type": "string[]"
        },
        {
          "internalType": "enum Voting.ProposalUpdater",
          "name": "votingUpdater",
          "type": "uint8"
        }
      ],
      "name": "newMultiProposal",
      "outputs": [],
      "stateMutability": "nonpayable",
      "type": "function"
    },
    {
      "inputs": [
        {
          "internalType": "string",
          "name": "title",
          "type": "string"
        },
        {
          "internalType": "string",
          "name": "description",
          "type": "string"
        },
        {
          "internalType": "uint256",
          "name": "expiryTime",
          "type": "uint256"
        },
        {
          "internalType": "string",
          "name": "updateData",
          "type": "string"
        },
        {
          "internalType": "enum Voting.ProposalUpdater",
          "name": "votingUpdater",
          "type": "uint8"
        }
      ],
      "name": "newProposal",
      "outputs": [],
      "stateMutability": "nonpayable",
      "type": "function"
    },
    {
      "inputs": [
        {
          "internalType": "uint256",
          "name": "issueId",
          "type": "uint256"
        },
        {
          "internalType": "uint256",
          "name": "option",
          "type": "uint256"
        }
      ],
      "name": "optionInfo",
      "outputs": [
        {
          "internalType": "string",
          "name": "name",
          "type": "string"
        },
        {
          "internalType": "uint256",
          "name": "count",
          "type": "uint256"
        },
        {
          "internalType": "uint256",
          "name": "weight",
          "type": "uint256"
        }
      ],
      "stateMutability": "view",
      "type": "function"
    },
    {
      "inputs": [
        {
          "internalType": "uint256",
          "name": "issueId",
          "type": "uint256"
        },
        {
          "internalType": "uint256",
          "name": "option",
          "type": "uint256"
        }
      ],
      "name": "optionName",
      "outputs": [
        {
          "internalType": "string",
          "name": "",
          "type": "string"
        }
      ],
      "stateMutability": "view",
      "type": "function"
    },
    {
      "inputs": [],
      "name": "owner",
      "outputs": [
        {
          "internalType": "address",
          "name": "",
          "type": "address"
        }
      ],
      "stateMutability": "view",
      "type": "function"
    },
    {
      "inputs": [
        {
          "internalType": "string",
          "name": "_value",
          "type": "string"
        }
      ],
      "name": "parseInt",
      "outputs": [
        {
          "internalType": "uint256",
          "name": "_ret",
          "type": "uint256"
        }
      ],
      "stateMutability": "pure",
      "type": "function"
    },
    {
      "inputs": [
        {
          "internalType": "uint256",
          "name": "issueId",
          "type": "uint256"
        }
      ],
      "name": "proposalConfig",
      "outputs": [
        {
          "internalType": "address",
          "name": "creator",
          "type": "address"
        },
        {
          "internalType": "uint256",
          "name": "quorumPct",
          "type": "uint256"
        },
        {
          "internalType": "uint256",
          "name": "supportPct",
          "type": "uint256"
        },
        {
          "internalType": "uint256",
          "name": "voters",
          "type": "uint256"
        },
        {
          "internalType": "string",
          "name": "updateData",
          "type": "string"
        },
        {
          "internalType": "bool",
          "name": "executed",
          "type": "bool"
        }
      ],
      "stateMutability": "view",
      "type": "function"
    },
    {
      "inputs": [
        {
          "internalType": "enum Voting.ProposalUpdater",
          "name": "conf",
          "type": "uint8"
        }
      ],
      "name": "proposalConfigRates",
      "outputs": [
        {
          "internalType": "uint256",
          "name": "quorumPct",
          "type": "uint256"
        },
        {
          "internalType": "uint256",
          "name": "supportPct",
          "type": "uint256"
        }
      ],
      "stateMutability": "view",
      "type": "function"
    },
    {
      "inputs": [
        {
          "internalType": "uint256",
          "name": "issueId",
          "type": "uint256"
        }
      ],
      "name": "proposalInfo",
      "outputs": [
        {
          "internalType": "string",
          "name": "title",
          "type": "string"
        },
        {
          "internalType": "enum Voting.ProposalType",
          "name": "votingType",
          "type": "uint8"
        },
        {
          "internalType": "enum Voting.ProposalUpdater",
          "name": "votingUpdater",
          "type": "uint8"
        },
        {
          "internalType": "uint256",
          "name": "nay",
          "type": "uint256"
        },
        {
          "internalType": "uint256",
          "name": "yea",
          "type": "uint256"
        },
        {
          "internalType": "bool",
          "name": "hasQuorum",
          "type": "bool"
        },
        {
          "internalType": "bool",
          "name": "accepted",
          "type": "bool"
        },
        {
          "internalType": "uint256",
          "name": "expiryTime",
          "type": "uint256"
        }
      ],
      "stateMutability": "view",
      "type": "function"
    },
    {
      "inputs": [
        {
          "internalType": "uint256",
          "name": "issueId",
          "type": "uint256"
        }
      ],
      "name": "redeemDepositFromProposal",
      "outputs": [],
      "stateMutability": "nonpayable",
      "type": "function"
    },
    {
      "inputs": [],
      "name": "renounceOwnership",
      "outputs": [],
      "stateMutability": "nonpayable",
      "type": "function"
    },
    {
      "inputs": [
        {
          "internalType": "bytes32",
          "name": "role",
          "type": "bytes32"
        },
        {
          "internalType": "address",
          "name": "account",
          "type": "address"
        }
      ],
      "name": "renounceRole",
      "outputs": [],
      "stateMutability": "nonpayable",
      "type": "function"
    },
    {
      "inputs": [
        {
          "internalType": "bytes32",
          "name": "role",
          "type": "bytes32"
        },
        {
          "internalType": "address",
          "name": "account",
          "type": "address"
        }
      ],
      "name": "revokeRole",
      "outputs": [],
      "stateMutability": "nonpayable",
      "type": "function"
    },
    {
      "inputs": [
        {
          "internalType": "address",
          "name": "rewardAddress",
          "type": "address"
        }
      ],
      "name": "setRewardAddress",
      "outputs": [],
      "stateMutability": "nonpayable",
      "type": "function"
    },
    {
      "inputs": [
        {
          "internalType": "address",
          "name": "newOwner",
          "type": "address"
        }
      ],
      "name": "transferOwnership",
      "outputs": [],
      "stateMutability": "nonpayable",
      "type": "function"
    },
    {
      "inputs": [
        {
          "internalType": "address",
          "name": "holder",
          "type": "address"
        }
      ],
      "name": "updatedStake",
      "outputs": [],
      "stateMutability": "nonpayable",
      "type": "function"
    },
    {
      "inputs": [
        {
          "internalType": "enum Voting.ProposalUpdater",
          "name": "votingUpdater",
          "type": "uint8"
        },
        {
          "internalType": "string",
          "name": "updateData",
          "type": "string"
        }
      ],
      "name": "updaterValidateData",
      "outputs": [
        {
          "internalType": "bool",
          "name": "",
          "type": "bool"
        }
      ],
      "stateMutability": "pure",
      "type": "function"
    },
    {
      "inputs": [],
      "name": "version",
      "outputs": [
        {
          "internalType": "string",
          "name": "",
          "type": "string"
        }
      ],
      "stateMutability": "pure",
      "type": "function"
    },
    {
      "inputs": [
        {
          "internalType": "uint256",
          "name": "issueId",
          "type": "uint256"
        },
        {
          "internalType": "bytes4",
          "name": "option",
          "type": "bytes4"
        }
      ],
      "name": "vote",
      "outputs": [
        {
          "internalType": "bool",
          "name": "",
          "type": "bool"
        }
      ],
      "stateMutability": "nonpayable",
      "type": "function"
    },
    {
      "inputs": [
        {
          "internalType": "uint256",
          "name": "issueId",
          "type": "uint256"
        },
        {
          "internalType": "uint256",
          "name": "option",
          "type": "uint256"
        }
      ],
      "name": "vote",
      "outputs": [
        {
          "internalType": "bool",
          "name": "",
          "type": "bool"
        }
      ],
      "stateMutability": "nonpayable",
      "type": "function"
    },
    {
      "inputs": [
        {
          "internalType": "uint256",
          "name": "issueId",
          "type": "uint256"
        },
        {
          "internalType": "address",
          "name": "addr",
          "type": "address"
        }
      ],
      "name": "weightOf",
      "outputs": [
        {
          "internalType": "uint256",
          "name": "",
          "type": "uint256"
        }
      ],
      "stateMutability": "view",
      "type": "function"
    },
    {
      "inputs": [
        {
          "internalType": "uint256",
          "name": "issueId",
          "type": "uint256"
        },
        {
          "internalType": "uint256",
          "name": "option",
          "type": "uint256"
        }
      ],
      "name": "weightedVoteCountsOf",
      "outputs": [
        {
          "internalType": "uint256",
          "name": "",
          "type": "uint256"
        }
      ],
      "stateMutability": "view",
      "type": "function"
    },
    {
      "inputs": [
        {
          "internalType": "uint256",
          "name": "date",
          "type": "uint256"
        }
      ],
      "name": "setTimestamp",
      "outputs": [],
      "stateMutability": "nonpayable",
      "type": "function"
    }
  ],
  "bytecode": "0x60806040526402540be40060035562278d006004553480156200002157600080fd5b5060405162005ed638038062005ed68339810160408190526200004491620004ec565b8060006200005a6001600160e01b036200049616565b600080546001600160a01b0319166001600160a01b0383169081178255604051929350917f8be0079c531659141344cd1fd0a4f28419497f9722a3daafe3b4186f6b6457e0908290a350620000e4604051620000b69062000533565b6040518091039020604051620000cc9062000533565b6040519081900390206001600160e01b036200049a16565b620000f6604051620000b6906200051c565b604080518082018252614e2080825261c35160208084018281526000808052600590925293517f05b8ccbb9d4d8fb16ea74ce3c29a41f1b461fbdaff4714a0d9a8eb05499746bc5592517f05b8ccbb9d4d8fb16ea74ce3c29a41f1b461fbdaff4714a0d9a8eb05499746bd5592519092919060008051602062005eb68339815191529062000188908590859062000549565b60405180910390a2604080518082018252838152602080820184815260016000819052600590925291517f1471eb6eb2c5e789fc3de43f8ce62938c7d1836ec861730447e2ada8fd81017b5590517f1471eb6eb2c5e789fc3de43f8ce62938c7d1836ec861730447e2ada8fd81017c55905160008051602062005eb6833981519152906200021a908590859062000549565b60405180910390a2604080518082018252838152602080820184815260026000819052600590925291517f89832631fb3c3307a103ba2c84ab569c64d6182a18893dcd163f0f1c2090733a5590517f89832631fb3c3307a103ba2c84ab569c64d6182a18893dcd163f0f1c2090733b55905160008051602062005eb683398151915290620002ac908590859062000549565b60405180910390a2604080518082018252838152602080820184815260036000819052600590925291517fa9bc9a3a348c357ba16b37005d7e6b3236198c0e939f4af8c5f19b8deeb8ebc05590517fa9bc9a3a348c357ba16b37005d7e6b3236198c0e939f4af8c5f19b8deeb8ebc155905160008051602062005eb6833981519152906200033e908590859062000549565b60405180910390a2604080518082018252838152602080820184815260046000819052600590925291517f3eec716f11ba9e820c81ca75eb978ffb45831ef8b7a53e5e422c26008e1ca6d55590517f3eec716f11ba9e820c81ca75eb978ffb45831ef8b7a53e5e422c26008e1ca6d655905160008051602062005eb683398151915290620003d0908590859062000549565b60405180910390a26040805180820182528381526020808201848152600560008190529182905291517f458b30c2d72bfd2c6317304a4594ecbafe5f729d3111b65fdc3a33bd48e5432d5590517f458b30c2d72bfd2c6317304a4594ecbafe5f729d3111b65fdc3a33bd48e5432e55905160008051602062005eb68339815191529062000461908590859062000549565b60405180910390a25050600280546001600160a01b0319166001600160a01b03929092169190911790555042600e5562000557565b3390565b600082815260016020526040808220600201549051839285917fbd79b86ffe0ab8e8776151514217cd7cacd52c909f66475c3af44e129f0b00ff9190a460009182526001602052604090912060020155565b600060208284031215620004fe578081fd5b81516001600160a01b038116811462000515578182fd5b9392505050565b6a564f54494e475f524f4c4560a81b8152600b0190565b6941444d494e5f524f4c4560b01b8152600a0190565b918252602082015260400190565b61594f80620005676000396000f3fe608060405234801561001057600080fd5b506004361061027e5760003560e01c806375b238fc1161015c578063a217fddf116100ce578063e0136a7911610087578063e0136a7914610579578063eaac697a14610591578063f0464a2b146105a4578063f2fde38b146105b7578063f3da049e146105ca578063f6621dc3146105d25761027e565b8063a217fddf14610509578063ae092e8914610511578063b384abef14610538578063c9c3d42e1461054b578063ca15c87314610553578063d547741f146105665761027e565b80639010d07c116101205780639010d07c1461049757806391d14854146104aa578063933c1306146104bd5780639d91cf9a146104d0578063a0a2b573146104e3578063a1629f92146104f65761027e565b806375b238fc1461044c578063761bbd8a146104545780638935ced51461045c5780638da5cb5b1461046f5780638e0a1372146104845761027e565b80634ba241d8116101f55780635e00e679116101b95780635e00e679146103e55780636e6a1dc3146103f85780636f963fa11461040b578063704802751461041e57806370c88f3014610431578063715018a6146104445761027e565b80634ba241d8146103825780634c461f5a146103a457806350381451146103b757806353c2d479146103ca57806354fd4d50146103dd5761027e565b806331aab8881161024757806331aab8881461030957806332ec991c1461032e57806336568abe1461034157806342346c5e1461035457806346c6211e146103675780634883a6a81461036f5761027e565b8062fe1bff1461028357806312a70f0b146102ac5780631e01a172146102c1578063248a9ca3146102e15780632f2ff15d146102f4575b600080fd5b610296610291366004614c11565b6105f3565b6040516102a39190615014565b60405180910390f35b6102b46108ac565b6040516102a3919061502f565b6102d46102cf366004614b83565b6108c3565b6040516102a3919061506b565b6102b46102ef366004614b83565b6109a1565b610307610302366004614b9b565b6109b9565b005b61031c610317366004614b83565b610a01565b6040516102a396959493929190614fcc565b6102b461033c366004614e42565b610a4d565b61030761034f366004614b9b565b610aac565b6102b4610362366004614def565b610aee565b6102b4610b7d565b61029661037d366004614e6e565b610b84565b610395610390366004614bd5565b610c70565b6040516102a3939291906150dd565b6103076103b2366004614b62565b610da8565b6103076103c5366004614d39565b610e50565b6103076103d8366004614c5e565b6114f6565b6102d4611c50565b6103076103f3366004614b1d565b611c6f565b6102b4610406366004614bd5565b611cfa565b610296610419366004614b1d565b611d63565b61030761042c366004614b1d565b611e56565b61030761043f366004614b1d565b611eab565b610307612287565b6102b4612306565b6102b4612312565b6102b461046a366004614e42565b612318565b610477612373565b6040516102a39190614f9f565b610296610492366004614e9e565b612382565b6104776104a5366004614bd5565b6124d5565b6102966104b8366004614b9b565b6124fa565b6103076104cb366004614b83565b612518565b6102b46104de366004614b38565b612aea565b6103076104f1366004614b83565b612b12565b610307610504366004614b83565b612b4c565b6102b4612c55565b61052461051f366004614b83565b612c5a565b6040516102a398979695949392919061507e565b610296610546366004614bd5565b612cbf565b6102b46130cd565b6102b4610561366004614b83565b6130d3565b610307610574366004614b9b565b6130ea565b610581613124565b6040516102a394939291906158b3565b6102d461059f366004614bd5565b6131f1565b6102b46105b2366004614b83565b613310565b6103076105c5366004614b1d565b613358565b61029661340e565b6105e56105e0366004614bf6565b61341e565b6040516102a39291906158f5565b60008083600581111561060257fe5b1415610610575060016108a6565b600183600581111561061e57fe5b141561064b57600061062f83610aee565b905060c881101580156106435750610bb881105b9150506108a6565b600283600581111561065957fe5b141561068357600061066a83610aee565b9050600a81101580156106435750605a101590506108a6565b600383600581111561069157fe5b14156106ad5760006106a283610aee565b151591506108a69050565b60048360058111156106bb57fe5b14156108785781518290600d146106d157600080fd5b604080516001808252818301909252606091602082018180388339505060408051600680825281830190925292935060609291506020820181803883395050604080516006808252818301909252929350606092915060208201818038833901905050905060005b845181101561080157600181101561078c578460008151811061075857fe5b602001015160f81c60f81b8460008151811061077057fe5b60200101906001600160f81b031916908160001a9053506107f9565b60078110156107bb578481815181106107a157fe5b602001015160f81c60f81b83600183038151811061077057fe5b8481815181106107c757fe5b602001015160f81c60f81b8260078303815181106107e157fe5b60200101906001600160f81b031916908160001a9053505b600101610739565b50600061080d83610aee565b9050600061081a83610aee565b9050600080831180156108305750620186a08311155b905080801561083f5750600082115b801561084e5750620186a08211155b90508080156108695750600461086387610aee565b60ff1611155b97506108a69650505050505050565b600583600581111561088657fe5b14156108a2576201518061089983610aee565b101590506108a6565b5060005b92915050565b6040516108b890614f72565b604051809103902081565b6060816000811180156108d85750600b548111155b6108fd5760405162461bcd60e51b81526004016108f49061530a565b60405180910390fd5b6000838152600660209081526040918290206002908101805484516001821615610100026000190190911692909204601f8101849004840283018401909452838252909290918301828280156109945780601f1061096957610100808354040283529160200191610994565b820191906000526020600020905b81548152906001019060200180831161097757829003601f168201915b5050505050915050919050565b6000818152600160205260409020600201545b919050565b6000828152600160205260409020600201546109d7906104b861347a565b6109f35760405162461bcd60e51b81526004016108f49061517b565b6109fd828261347e565b5050565b60008060008060606000610a13614795565b610a1c886134ed565b8051602082015160408301516060840151608085015160a090950151939d929c50909a509850919650945092505050565b600082600081118015610a625750600b548111155b610a7e5760405162461bcd60e51b81526004016108f49061530a565b6001600160a01b038316600090815260096020908152604080832087845290915290205491505b5092915050565b610ab461347a565b6001600160a01b0316816001600160a01b031614610ae45760405162461bcd60e51b81526004016108f490615823565b6109fd8282613924565b80516000908290600190600019015b8251811015610b75576030838281518110610b1457fe5b016020015160f81c10801590610b3e57506039838281518110610b3357fe5b016020015160f81c11155b610b4457fe5b816030848381518110610b5357fe5b016020015160f81c0360ff16029390930192600a919091029060001901610afd565b505050919050565b6003545b90565b600082600081118015610b995750600b548111155b610bb55760405162461bcd60e51b81526004016108f49061530a565b6279656160e81b626e617960e81b6001600160e01b03198516821480610be757506001600160e01b0319858116908216145b610c035760405162461bcd60e51b81526004016108f490615872565b60008681526006602052604081206003015460ff166001811115610c2357fe5b14610c405760405162461bcd60e51b81526004016108f4906153b5565b60006001600160e01b03198681169084161415610c5b575060015b610c658782613993565b979650505050505050565b606060008084600081118015610c885750600b548111155b610ca45760405162461bcd60e51b81526004016108f49061530a565b6000868152600660205260409020600801548510610cd45760405162461bcd60e51b81526004016108f49061552f565b6000868152600660205260408120600801805487908110610cf157fe5b60009182526020918290206003919091020180546040805160026001841615610100026000190190931692909204601f810185900485028301850190915280825291935091839190830182828015610d8a5780601f10610d5f57610100808354040283529160200191610d8a565b820191906000526020600020905b815481529060010190602001808311610d6d57829003601f168201915b50505050509450806001015493508060020154925050509250925092565b610dc5604051610db790614f72565b6040518091039020336124fa565b80610dda5750610dda604051610db790614f89565b610df65760405162461bcd60e51b81526004016108f49061576d565b6002805460ff60a01b1916600160a01b8415150217905560038190556040517f07b2940585ef57a3c794dd4c4e539be91c190416b66127b5a590330c140aac0290610e44908490849061501f565b60405180910390a15050565b610e5f604051610db790614f72565b80610e745750610e74604051610db790614f89565b156111565786610e965760405162461bcd60e51b81526004016108f4906157af565b610e9e613cba565b8411610ebc5760405162461bcd60e51b81526004016108f490615238565b600b805460010190819055610ed090613cc0565b600b546000908152600660205260409020610ee96147d6565b60056000846005811115610ef957fe5b60ff16815260208082019290925260409081016000208151808301909252805482526001908101549282019290925283546001600160a01b031916331784559150610f479083018b8b6147f0565b50610f566002830189896147f0565b508051600583810191909155602082015160078401556009830187905560038301805460ff1981168255859261ffff1990911690610100908490811115610f9957fe5b02179055506000836005811115610fac57fe5b1461101d57610ff18386868080601f0160208091040260200160405190810160405280939291908181526020018383808284376000920191909152506105f392505050565b61100d5760405162461bcd60e51b81526004016108f4906154b6565b61101b6004830186866147f0565b505b6040805160a081018252600360608201818152626e617960e81b60808401528252600060208084018290529383018190526008860180546001810182559082529084902083518051949592909302019261107a928492019061486e565b50602082810151600180840191909155604093840151600290930192909255825160a0810184526003606082018181526279656160e81b60808401528252600082840181905294820185905260088701805494850181558552938290208151805192959490940201926110f192849291019061486e565b506020820151600182015560409091015160029091015560005b336001600160a01b0316600b547f22910aa3d36b7721f45dfd4a366dd228fb8e9f8b0752b5cf6557acba94d2edd9866040516111479190615056565b60405180910390a450506114ec565b600254600160a01b900460ff16156114d4576002546040516370a0823160e01b81526000916001600160a01b0316906370a0823190611199903390600401614f9f565b60206040518083038186803b1580156111b157600080fd5b505afa1580156111c5573d6000803e3d6000fd5b505050506040513d601f19601f820116820180604052506111e99190810190614e2a565b905060035481106114d257876112115760405162461bcd60e51b81526004016108f4906157af565b611219613cba565b85116112375760405162461bcd60e51b81526004016108f490615238565b600b80546001019081905561124b90613cc0565b600b5460009081526006602052604090206112646147d6565b6005600085600581111561127457fe5b60ff16815260208082019290925260409081016000208151808301909252805482526001908101549282019290925283546001600160a01b0319163317845591506112c29083018c8c6147f0565b506112d1600283018a8a6147f0565b508051600583810191909155602082015160078401556009830188905560038301805460ff1981168255869261ffff199091169061010090849081111561131457fe5b0217905550600084600581111561132757fe5b146113985761136c8487878080601f0160208091040260200160405190810160405280939291908181526020018383808284376000920191909152506105f392505050565b6113885760405162461bcd60e51b81526004016108f4906154b6565b6113966004830187876147f0565b505b6040805160a081018252600360608201818152626e617960e81b6080840152825260006020808401829052938301819052600886018054600181018255908252908490208351805194959290930201926113f5928492019061486e565b50602082810151600180840191909155604093840151600290930192909255825160a0810184526003606082018181526279656160e81b608084015282526000828401819052948201859052600887018054948501815585529382902081518051929594909402019261146c92849291019061486e565b506020820151600182015560409091015160029091015560005b336001600160a01b0316600b547f22910aa3d36b7721f45dfd4a366dd228fb8e9f8b0752b5cf6557acba94d2edd9876040516114c29190615056565b60405180910390a45050506114ec565b505b60405162461bcd60e51b81526004016108f49061576d565b5050505050505050565b611505604051610db790614f72565b8061151a575061151a604051610db790614f89565b156118ab578661153c5760405162461bcd60e51b81526004016108f4906157af565b611544613cba565b84116115625760405162461bcd60e51b81526004016108f490615238565b600182116115825760405162461bcd60e51b81526004016108f4906152c6565b600b80546001019081905561159690613cc0565b600b5460009081526006602052604090206115af6147d6565b600560008460058111156115bf57fe5b60ff16815260208082019290925260409081016000208151808301909252805482526001908101549282019290925283546001600160a01b03191633178455915061160d9083018b8b6147f0565b5061161c6002830189896147f0565b508051600583810191909155602082015160078401556009830187905560038301805460ff1916600117808255859261ff00199091169061010090849081111561166257fe5b02179055506040805160a081018252600460608201908152630536b69760e41b6080830152815260006020808301829052928201819052600885018054600181018255908252908390208251805193946003909302909101926116c8928492019061486e565b506020820151600182015560409091015160029091015560005b848110156118a35760008460058111156116f857fe5b146117ae576117928487878481811061170d57fe5b602002820190508035601e193684900301811261172957600080fd5b9091016020810191503567ffffffffffffffff81111561174857600080fd5b3681900382131561175857600080fd5b8080601f0160208091040260200160405190810160405280939291908181526020018383808284376000920191909152506105f392505050565b6117ae5760405162461bcd60e51b81526004016108f4906154b6565b8260080160405180606001604052808888858181106117c957fe5b602002820190508035601e19368490030181126117e557600080fd5b9091016020810191503567ffffffffffffffff81111561180457600080fd5b3681900382131561181457600080fd5b8080601f016020809104026020016040519081016040528093929190818152602001838380828437600092018290525093855250505060208083018290526040909201819052835460018101855593815281902082518051939460030290910192611882928492019061486e565b506020820151600180830191909155604090920151600290910155016116e2565b50600161110b565b600254600160a01b900460ff16156114d4576002546040516370a0823160e01b81526000916001600160a01b0316906370a08231906118ee903390600401614f9f565b60206040518083038186803b15801561190657600080fd5b505afa15801561191a573d6000803e3d6000fd5b505050506040513d601f19601f8201168201806040525061193e9190810190614e2a565b905060035481106114d257876119665760405162461bcd60e51b81526004016108f4906157af565b61196e613cba565b851161198c5760405162461bcd60e51b81526004016108f490615238565b600183116119ac5760405162461bcd60e51b81526004016108f4906152c6565b600b8054600101908190556119c090613cc0565b600b5460009081526006602052604090206119d96147d6565b600560008560058111156119e957fe5b60ff16815260208082019290925260409081016000208151808301909252805482526001908101549282019290925283546001600160a01b031916331784559150611a379083018c8c6147f0565b50611a46600283018a8a6147f0565b508051600583810191909155602082015160078401556009830188905560038301805460ff1916600117808255869261ff001990911690610100908490811115611a8c57fe5b02179055506040805160a081018252600460608201908152630536b69760e41b608083015281526000602080830182905292820181905260088501805460018101825590825290839020825180519394600390930290910192611af2928492019061486e565b506020820151600182015560409091015160029091015560005b85811015611c48576000856005811115611b2257fe5b14611b5357611b378588888481811061170d57fe5b611b535760405162461bcd60e51b81526004016108f4906154b6565b826008016040518060600160405280898985818110611b6e57fe5b602002820190508035601e1936849003018112611b8a57600080fd5b9091016020810191503567ffffffffffffffff811115611ba957600080fd5b36819003821315611bb957600080fd5b8080601f016020809104026020016040519081016040528093929190818152602001838380828437600092018290525093855250505060208083018290526040909201819052835460018101855593815281902082518051939460030290910192611c27928492019061486e565b50602082015160018083019190915560409092015160029091015501611b0c565b506001611486565b6040805180820190915260058152640312e302e360dc1b602082015290565b611c7761347a565b6000546001600160a01b03908116911614611ca45760405162461bcd60e51b81526004016108f490615628565b600c80546001600160a01b0319166001600160a01b0383161790556040517f9dcd13554f22035bbc407c5a35cbb867a5184edbfe7a2a57fe805a10ef8a094d90611cef908390614f9f565b60405180910390a150565b600082600081118015611d0f5750600b548111155b611d2b5760405162461bcd60e51b81526004016108f49061530a565b6000848152600660205260409020600801805484908110611d4857fe5b90600052602060002090600302016001015491505092915050565b6000611d82604051611d7490614f72565b6040518091039020836124fa565b80611d975750611d97604051611d7490614f89565b15611da4575060016109b4565b600254600160a01b900460ff1615611e4e57600254604051632c9aab9b60e11b81526000916001600160a01b031690635935573690611de7908690600401614f9f565b60206040518083038186803b158015611dff57600080fd5b505afa158015611e13573d6000803e3d6000fd5b505050506040513d601f19601f82011682018060405250611e379190810190614e2a565b90506003548110611e4c5760019150506109b4565b505b506000919050565b611e5e61347a565b6000546001600160a01b03908116911614611e8b5760405162461bcd60e51b81526004016108f490615628565b611ea8604051611e9a90614f89565b6040518091039020826109f3565b50565b6002546001600160a01b03163314611ec257600080fd5b6001600160a01b0381166000908152600a6020908152604091829020805483518184028101840190945280845260609392830182828015611f2257602002820191906000526020600020905b815481526020019060010190808311611f0e575b50505050509050805160001415611f395750611ea8565b6002546040805163ca5c7b9160e01b815290516000926001600160a01b03169163ca5c7b91916004808301926020929190829003018186803b158015611f7e57600080fd5b505afa158015611f92573d6000803e3d6000fd5b505050506040513d601f19601f82011682018060405250611fb69190810190614e2a565b600254604051632c9aab9b60e11b81529192506000916001600160a01b0390911690635935573690611fec908790600401614f9f565b60206040518083038186803b15801561200457600080fd5b505afa158015612018573d6000803e3d6000fd5b505050506040513d601f19601f8201168201806040525061203c9190810190614e2a565b905060606000805b855181101561225457600086828151811061205b57fe5b602002602001015190506000600660008381526020019081526020016000209050612084613cba565b8160090154101561209657505061224c565b6001600160a01b038916600090815260096020908152604080832085845290915290208661217757600b82018054600019019055600181018054600a8401805491909103905554815460088401805490919081106120f057fe5b9060005260206000209060030201600201600082825403925050819055508160080181600001548154811061212157fe5b6000918252602082206001600390920201810180546000190190558201556005820154600a8301548990620186a0028161215757fe5b6006909401805460ff1916919094049190911015179091555061224c9050565b86816001015411156121bd57868160010154038260080182600001548154811061219d57fe5b6000918252602090912060026003909202010180549190910390556121f2565b80600101548703826008018260000154815481106121d757fe5b60009182526020909120600260039092020101805490910190555b600181018790556005820154600a8301548990620186a0028161221157fe5b60068501805460ff19169290910492909210151790558551839087908790811061223757fe5b60209081029190910101525050600190920191505b600101612044565b506001600160a01b0386166000908152600a60209081526040909120835161227e928501906148dc565b50505050505050565b61228f61347a565b6000546001600160a01b039081169116146122bc5760405162461bcd60e51b81526004016108f490615628565b600080546040516001600160a01b03909116907f8be0079c531659141344cd1fd0a4f28419497f9722a3daafe3b4186f6b6457e0908390a3600080546001600160a01b0319169055565b6040516108b890614f89565b600b5490565b60008260008111801561232d5750600b548111155b6123495760405162461bcd60e51b81526004016108f49061530a565b50506001600160a01b03166000908152600960209081526040808320938352929052206001015490565b6000546001600160a01b031690565b336000908152600d602052604081205485146123b05760405162461bcd60e51b81526004016108f4906151ca565b6123f286868686868080601f016020809104026020016040519081016040528093929190818152602001838380828437600092019190915250613d7592505050565b61240e5760405162461bcd60e51b81526004016108f490615434565b336000818152600d60205260409081902080546001019055600254905163f3fef3a360e01b81526001600160a01b039091169163f3fef3a39161245691908a90600401614fb3565b600060405180830381600087803b15801561247057600080fd5b505af1158015612484573d6000803e3d6000fd5b50505050336001600160a01b03167fb52d0e0c45bba15833f7d429ccdcc4c2bfa8eea764774706120027b76734a44f876040516124c1919061502f565b60405180910390a250600195945050505050565b60008281526001602052604081206124f3908363ffffffff613dee16565b9392505050565b60008281526001602052604081206124f3908363ffffffff613dfa16565b612520614795565b612529826134ed565b80519091506001600160a01b031633148061254e575061254e604051610db790614f72565b806125635750612563604051610db790614f89565b61257f5760405162461bcd60e51b81526004016108f49061576d565b8060a00151156125a15760405162461bcd60e51b81526004016108f4906155af565b6125a9614916565b6125b283613e0f565b90506000816040015160058111156125c657fe5b14156125e45760405162461bcd60e51b81526004016108f4906157dc565b6125ec613cba565b8161012001511061260f5760405162461bcd60e51b81526004016108f4906156ac565b612617613cba565b600454826101200151011161263e5760405162461bcd60e51b81526004016108f4906156f5565b8060c0015161265f5760405162461bcd60e51b81526004016108f490615370565b82600760008360400151600581111561267457fe5b60ff1660ff1681526020019081526020016000205411156126a75760405162461bcd60e51b81526004016108f49061565d565b60606001826020015160018111156126bb57fe5b141561278557600660008581526020019081526020016000206008018260e00151815481106126e657fe5b6000918252602091829020600390910201805460408051601f60026000196101006001871615020190941693909304928301859004850281018501909152818152928301828280156127795780601f1061274e57610100808354040283529160200191612779565b820191906000526020600020905b81548152906001019060200180831161275c57829003601f168201915b5050505050905061278c565b5060808201515b60018260400151600581111561279e57fe5b1415612813576002546001600160a01b031663c108a402856127bf84610aee565b6040518363ffffffff1660e01b81526004016127dc9291906158f5565b600060405180830381600087803b1580156127f657600080fd5b505af115801561280a573d6000803e3d6000fd5b50505050612a57565b60028260400151600581111561282557fe5b1415612846576002546001600160a01b031663ac3cd7c6856127bf84610aee565b60038260400151600581111561285857fe5b141561286f5761286781610aee565b600355612a57565b60048260400151600581111561288157fe5b1415612a325760408051600180825281830190925282916060919060208201818038833950506040805160068082528183019092529293506060929150602082018180388339505060408051600680825281830190925292935060609291506020820181803883390190505090508351600d146128fd57600080fd5b60005b84518110156129c8576001811015612953578460008151811061291f57fe5b602001015160f81c60f81b8460008151811061293757fe5b60200101906001600160f81b031916908160001a9053506129c0565b60078110156129825784818151811061296857fe5b602001015160f81c60f81b83600183038151811061293757fe5b84818151811061298e57fe5b602001015160f81c60f81b8260078303815181106129a857fe5b60200101906001600160f81b031916908160001a9053505b600101612900565b5060006129d483610aee565b905060006129e183610aee565b905060405180604001604052808381526020018281525060056000612a0588610aee565b60ff1681526020808201929092526040016000208251815591015160019091015550612a57945050505050565b600582604001516005811115612a4457fe5b1415612a5757612a5381610aee565b6004555b600084815260066020526040808220600c01805460ff1916600117905583015185916007916005811115612a8757fe5b60ff1660ff16815260200190815260200160002081905550336001600160a01b031682604001516005811115612ab957fe5b60405186907f76ddf1c56562a7f2299089b84bd25caab82ee275576eb7984361159f17d63eac90600090a450505050565b6001600160a01b03919091166000908152600860209081526040808320938352929052205490565b612b1a61347a565b6000546001600160a01b03908116911614612b475760405162461bcd60e51b81526004016108f490615628565b600e55565b80600081118015612b5f5750600b548111155b612b7b5760405162461bcd60e51b81526004016108f49061530a565b6000828152600660205260409020546001600160a01b03163314612bb15760405162461bcd60e51b81526004016108f49061576d565b336000908152600860209081526040808320858452909152902054612be85760405162461bcd60e51b81526004016108f490615341565b612bf0614916565b612bf983613e0f565b9050612c03613cba565b81610120015110612c265760405162461bcd60e51b81526004016108f4906156ac565b8060c00151612c475760405162461bcd60e51b81526004016108f490615370565b612c50836143f7565b505050565b600081565b60606000806000806000806000612c6f614916565b612c788a613e0f565b905080600001519850806020015197508060400151965080606001519550806080015194508060a0015193508060c001519250806101200151915050919395975091939597565b600082600081118015612cd45750600b548111155b612cf05760405162461bcd60e51b81526004016108f49061530a565b612cf8614970565b60008581526006602090815260409182902082516101c08101845281546001600160a01b03168152600180830180548651600261010094831615949094026000190190911692909204601f8101869004860283018601909652858252919492938581019391929190830182828015612db15780601f10612d8657610100808354040283529160200191612db1565b820191906000526020600020905b815481529060010190602001808311612d9457829003601f168201915b5050509183525050600282810180546040805160206001841615610100026000190190931694909404601f81018390048302850183019091528084529381019390830182828015612e435780601f10612e1857610100808354040283529160200191612e43565b820191906000526020600020905b815481529060010190602001808311612e2657829003601f168201915b5050509183525050600382015460209091019060ff166001811115612e6457fe5b6001811115612e6f57fe5b81526020016003820160019054906101000a900460ff166005811115612e9157fe5b6005811115612e9c57fe5b815260048201805460408051602060026001851615610100026000190190941693909304601f8101849004840282018401909252818152938201939291830182828015612f2a5780601f10612eff57610100808354040283529160200191612f2a565b820191906000526020600020905b815481529060010190602001808311612f0d57829003601f168201915b50505050508152602001600582015481526020016006820160009054906101000a900460ff161515151581526020016007820154815260200160088201805480602002602001604051908101604052809291908181526020016000905b8282101561305c5760008481526020908190206040805160038602909201805460026001821615610100026000190190911604601f81018590049094028301608090810190925260608301848152929390928492909184918401828280156130305780601f1061300557610100808354040283529160200191613030565b820191906000526020600020905b81548152906001019060200180831161301357829003601f168201915b505050505081526020016001820154815260200160028201548152505081526020019060010190612f87565b5050509082525060098201546020820152600a8201546040820152600b8201546060820152600c9091015460ff1615156080909101526101208101515190915084106130ba5760405162461bcd60e51b81526004016108f49061552f565b6130c48585613993565b95945050505050565b60045490565b60008181526001602052604081206108a6906144c1565b600082815260016020526040902060020154613108906104b861347a565b610ae45760405162461bcd60e51b81526004016108f49061555f565b600b546000818152600660209081526040808320600190810180548351600293821615610100026000190190911692909204601f8101859004850283018501909352828252606094938493908301828280156131c15780601f10613196576101008083540402835291602001916131c1565b820191906000526020600020905b8154815290600101906020018083116131a457829003601f168201915b5050506000878152600660205260409020600301549697929660ff80821697506101009091041694509192505050565b6060826000811180156132065750600b548111155b6132225760405162461bcd60e51b81526004016108f49061530a565b60008481526006602052604090206008015483106132525760405162461bcd60e51b81526004016108f49061552f565b600084815260066020526040902060080180548490811061326f57fe5b6000918252602091829020600390910201805460408051601f60026000196101006001871615020190941693909304928301859004850281018501909152818152928301828280156133025780601f106132d757610100808354040283529160200191613302565b820191906000526020600020905b8154815290600101906020018083116132e557829003601f168201915b505050505091505092915050565b6000816000811180156133255750600b548111155b6133415760405162461bcd60e51b81526004016108f49061530a565b505060009081526006602052604090206008015490565b61336061347a565b6000546001600160a01b0390811691161461338d5760405162461bcd60e51b81526004016108f490615628565b6001600160a01b0381166133b35760405162461bcd60e51b81526004016108f490615280565b600080546040516001600160a01b03808516939216917f8be0079c531659141344cd1fd0a4f28419497f9722a3daafe3b4186f6b6457e091a3600080546001600160a01b0319166001600160a01b0392909216919091179055565b600254600160a01b900460ff1690565b6000806005600084600581111561343157fe5b60ff1660ff1681526020019081526020016000206000015491506005600084600581111561345b57fe5b60ff1660ff168152602001908152602001600020600101549050915091565b3390565b600082815260016020526040902061349c908263ffffffff6144cc16565b156109fd576134a961347a565b6001600160a01b0316816001600160a01b0316837f2f8788117e7eff1d82e926ec794901d17c78024a50270940304540a733656f0d60405160405180910390a45050565b6134f5614795565b816000811180156135085750600b548111155b6135245760405162461bcd60e51b81526004016108f49061530a565b61352c614970565b60008481526006602090815260409182902082516101c08101845281546001600160a01b03168152600180830180548651600261010094831615949094026000190190911692909204601f81018690048602830186019096528582529194929385810193919291908301828280156135e55780601f106135ba576101008083540402835291602001916135e5565b820191906000526020600020905b8154815290600101906020018083116135c857829003601f168201915b5050509183525050600282810180546040805160206001841615610100026000190190931694909404601f810183900483028501830190915280845293810193908301828280156136775780601f1061364c57610100808354040283529160200191613677565b820191906000526020600020905b81548152906001019060200180831161365a57829003601f168201915b5050509183525050600382015460209091019060ff16600181111561369857fe5b60018111156136a357fe5b81526020016003820160019054906101000a900460ff1660058111156136c557fe5b60058111156136d057fe5b815260048201805460408051602060026001851615610100026000190190941693909304601f810184900484028201840190925281815293820193929183018282801561375e5780601f106137335761010080835404028352916020019161375e565b820191906000526020600020905b81548152906001019060200180831161374157829003601f168201915b50505050508152602001600582015481526020016006820160009054906101000a900460ff161515151581526020016007820154815260200160088201805480602002602001604051908101604052809291908181526020016000905b828210156138905760008481526020908190206040805160038602909201805460026001821615610100026000190190911604601f81018590049094028301608090810190925260608301848152929390928492909184918401828280156138645780601f1061383957610100808354040283529160200191613864565b820191906000526020600020905b81548152906001019060200180831161384757829003601f168201915b5050505050815260200160018201548152602001600282015481525050815260200190600101906137bb565b505050908252506009820154602080830191909152600a830154604080840191909152600b840154606080850191909152600c9094015460ff16151560809384015284516001600160a01b0316885260c085015191880191909152610100840151908701526101808301519186019190915260a080830151918601919091526101a090910151151590840152509092915050565b6000828152600160205260409020613942908263ffffffff6144e116565b156109fd5761394f61347a565b6001600160a01b0316816001600160a01b0316837ff6391f5c32d9c69d2a47ea670b442974b53935d1edc7fd64eb21e047a839171b60405160405180910390a45050565b6000826000811180156139a85750600b548111155b6139c45760405162461bcd60e51b81526004016108f49061530a565b60008481526006602052604090206139da613cba565b816009015410156139ef576000925050610aa5565b600254604051632c9aab9b60e11b815233916000916001600160a01b0390911690635935573690613a24908590600401614f9f565b60206040518083038186803b158015613a3c57600080fd5b505afa158015613a50573d6000803e3d6000fd5b505050506040513d601f19601f82011682018060405250613a749190810190614e2a565b905060008111613a965760405162461bcd60e51b81526004016108f49061546b565b6001600160a01b03821660009081526009602090815260408083208a845290915290206001015415613ada5760405162461bcd60e51b81526004016108f4906153fd565b60408051808201825287815260208082018481526001600160a01b0386166000908152600983528481208c8252909252929020905181559051600191820155600b840180549091019055600a830180548201905560088301805487908110613b3e57fe5b90600052602060002090600302016001016000815480929190600101919050555080836008018781548110613b6f57fe5b6000918252602090912060026003909202010180549091019055600683015460ff16613c43576002546040805163ca5c7b9160e01b815290516000926001600160a01b03169163ca5c7b91916004808301926020929190829003018186803b158015613bda57600080fd5b505afa158015613bee573d6000803e3d6000fd5b505050506040513d601f19601f82011682018060405250613c129190810190614e2a565b84600a0154620186a00281613c2357fe5b04905083600501548110613c415760068401805460ff191660011790555b505b336000908152600a60209081526040808320805460018101825590845291909220018890555186906001600160a01b0384169089907f8eea3a81425aea5e440ed6b6289a8aea0db8025c75fdeb1434bd81650177034090613ca590869061502f565b60405180910390a45060019695505050505050565b600e5490565b613ccf604051610db790614f72565b80613ce45750613ce4604051610db790614f89565b15613cee57611ea8565b600354336000818152600860209081526040808320868452909152908190208390556002549051631131011960e21b81526001600160a01b03909116926344c4046492613d4092909190600401614fb3565b600060405180830381600087803b158015613d5a57600080fd5b505af1158015613d6e573d6000803e3d6000fd5b5050505050565b600080338686604051602001613d8d93929190614f48565b604051602081830303815290604052805190602001209050808414613dc45760405162461bcd60e51b81526004016108f490615736565b600c546001600160a01b0316613dda85856144f6565b6001600160a01b0316149695505050505050565b60006124f38383614624565b60006124f3836001600160a01b038416614669565b613e17614916565b81600081118015613e2a5750600b548111155b613e465760405162461bcd60e51b81526004016108f49061530a565b613e4e614970565b60008481526006602090815260409182902082516101c08101845281546001600160a01b03168152600180830180548651600261010094831615949094026000190190911692909204601f8101869004860283018601909652858252919492938581019391929190830182828015613f075780601f10613edc57610100808354040283529160200191613f07565b820191906000526020600020905b815481529060010190602001808311613eea57829003601f168201915b5050509183525050600282810180546040805160206001841615610100026000190190931694909404601f81018390048302850183019091528084529381019390830182828015613f995780601f10613f6e57610100808354040283529160200191613f99565b820191906000526020600020905b815481529060010190602001808311613f7c57829003601f168201915b5050509183525050600382015460209091019060ff166001811115613fba57fe5b6001811115613fc557fe5b81526020016003820160019054906101000a900460ff166005811115613fe757fe5b6005811115613ff257fe5b815260048201805460408051602060026001851615610100026000190190941693909304601f81018490048402820184019092528181529382019392918301828280156140805780601f1061405557610100808354040283529160200191614080565b820191906000526020600020905b81548152906001019060200180831161406357829003601f168201915b50505050508152602001600582015481526020016006820160009054906101000a900460ff161515151581526020016007820154815260200160088201805480602002602001604051908101604052809291908181526020016000905b828210156141b25760008481526020908190206040805160038602909201805460026001821615610100026000190190911604601f81018590049094028301608090810190925260608301848152929390928492909184918401828280156141865780601f1061415b57610100808354040283529160200191614186565b820191906000526020600020905b81548152906001019060200180831161416957829003601f168201915b5050505050815260200160018201548152602001600282015481525050815260200190600101906140dd565b505050908252506009820154602080830191909152600a8301546040830152600b830154606080840191909152600c9093015460ff16151560809092019190915282810151865290820151919250840190600181111561420e57fe5b9081600181111561421b57fe5b90525060808101516040840190600581111561423357fe5b9081600581111561424057fe5b90525061014081015161012084015260e0810151151560a084015260008360200151600181111561426d57fe5b141561431b5780610120015160008151811061428557fe5b6020026020010151604001518360600181815250508061012001516001815181106142ac57fe5b6020026020010151604001518360800181815250506142c9613cba565b8361012001511080156142dd57508260a001515b1561430e578061016001518360800151620186a002816142f957fe5b610100830151919004101560c0840152614316565b600060c08401525b6143f0565b614323613cba565b83610120015110801561433757508260a001515b156143e8576000805b826101200151518110156143c3576143566149f7565b836101200151828151811061436757fe5b6020026020010151905082816040015111156143a55760e086018290526040810151610100870151909350156143a05760006101008701525b6143ba565b82816040015114156143ba5760016101008701525b50600101614340565b508361010001511580156143db575060008460e00151115b151560c0850152506143f0565b600060c08401525b5050919050565b614406604051610db790614f72565b8061441b575061441b604051610db790614f89565b1561442557611ea8565b60025433600081815260086020908152604080832086845290915290819020549051633ba71a1560e01b81526001600160a01b0390931692633ba71a1592614471929091600401614fb3565b600060405180830381600087803b15801561448b57600080fd5b505af115801561449f573d6000803e3d6000fd5b5050336000908152600860209081526040808320868452909152812055505050565b60006108a682614681565b60006124f3836001600160a01b038416614685565b60006124f3836001600160a01b0384166146cf565b600081516041146145195760405162461bcd60e51b81526004016108f490615201565b60208201516040830151606084015160001a7f7fffffffffffffffffffffffffffffff5d576e7357a4501ddfe92f46681b20a082111561456b5760405162461bcd60e51b81526004016108f4906154ed565b8060ff16601b1415801561458357508060ff16601c14155b156145a05760405162461bcd60e51b81526004016108f4906155e6565b6000600187838686604051600081526020016040526040516145c59493929190615038565b6020604051602081039080840390855afa1580156145e7573d6000803e3d6000fd5b5050604051601f1901519150506001600160a01b03811661461a5760405162461bcd60e51b81526004016108f490615102565b9695505050505050565b815460009082106146475760405162461bcd60e51b81526004016108f490615139565b82600001828154811061465657fe5b9060005260206000200154905092915050565b60009081526001919091016020526040902054151590565b5490565b60006146918383614669565b6146c7575081546001818101845560008481526020808220909301849055845484825282860190935260409020919091556108a6565b5060006108a6565b6000818152600183016020526040812054801561478b578354600019808301919081019060009087908390811061470257fe5b906000526020600020015490508087600001848154811061471f57fe5b60009182526020808320909101929092558281526001898101909252604090209084019055865487908061474f57fe5b600190038181906000526020600020016000905590558660010160008781526020019081526020016000206000905560019450505050506108a6565b60009150506108a6565b6040518060c0016040528060006001600160a01b03168152602001600081526020016000815260200160008152602001606081526020016000151581525090565b604051806040016040528060008152602001600081525090565b828054600181600116156101000203166002900490600052602060002090601f016020900481019282601f106148315782800160ff1982351617855561485e565b8280016001018555821561485e579182015b8281111561485e578235825591602001919060010190614843565b5061486a929150614a18565b5090565b828054600181600116156101000203166002900490600052602060002090601f016020900481019282601f106148af57805160ff191683800117855561485e565b8280016001018555821561485e579182015b8281111561485e5782518255916020019190600101906148c1565b82805482825590600052602060002090810192821561485e579160200282018281111561485e5782518255916020019190600101906148c1565b60408051610140810190915260608152602081016000815260200160008152602001600081526020016000815260200160001515815260200160001515815260200160008152602001600015158152602001600081525090565b604051806101c0016040528060006001600160a01b031681526020016060815260200160608152602001600060018111156149a757fe5b815260200160008152602001606081526020016000815260200160001515815260200160008152602001606081526020016000815260200160008152602001600081526020016000151581525090565b60405180606001604052806060815260200160008152602001600081525090565b610b8191905b8082111561486a5760008155600101614a1e565b80356001600160a01b03811681146108a657600080fd5b60008083601f840112614a5a578182fd5b50813567ffffffffffffffff811115614a71578182fd5b602083019150836020828501011115614a8957600080fd5b9250929050565b8035600681106108a657600080fd5b600082601f830112614aaf578081fd5b813567ffffffffffffffff80821115614ac6578283fd5b604051601f8301601f191681016020018281118282101715614ae6578485fd5b604052828152925082848301602001861015614b0157600080fd5b8260208601602083013760006020848301015250505092915050565b600060208284031215614b2e578081fd5b6124f38383614a32565b60008060408385031215614b4a578081fd5b614b548484614a32565b946020939093013593505050565b60008060408385031215614b74578182fd5b82358015158114614b54578283fd5b600060208284031215614b94578081fd5b5035919050565b60008060408385031215614bad578182fd5b8235915060208301356001600160a01b0381168114614bca578182fd5b809150509250929050565b60008060408385031215614be7578182fd5b50508035926020909101359150565b600060208284031215614c07578081fd5b6124f38383614a90565b60008060408385031215614c23578182fd5b614c2d8484614a90565b9150602083013567ffffffffffffffff811115614c48578182fd5b614c5485828601614a9f565b9150509250929050565b60008060008060008060008060a0898b031215614c79578384fd5b883567ffffffffffffffff80821115614c90578586fd5b614c9c8c838d01614a49565b909a50985060208b0135915080821115614cb4578586fd5b614cc08c838d01614a49565b909850965060408b0135955060608b0135915080821115614cdf578485fd5b818b018c601f820112614cf0578586fd5b8035925081831115614d00578586fd5b8c60208085028301011115614d13578586fd5b6020019450909250614d2a90508a60808b01614a90565b90509295985092959890939650565b60008060008060008060008060a0898b031215614d54578384fd5b883567ffffffffffffffff80821115614d6b578586fd5b614d778c838d01614a49565b909a50985060208b0135915080821115614d8f578586fd5b614d9b8c838d01614a49565b909850965060408b0135955060608b0135915080821115614dba578485fd5b50614dc78b828c01614a49565b909450925050608089013560068110614dde578182fd5b809150509295985092959890939650565b600060208284031215614e00578081fd5b813567ffffffffffffffff811115614e16578182fd5b614e2284828501614a9f565b949350505050565b600060208284031215614e3b578081fd5b5051919050565b60008060408385031215614e54578182fd5b82359150614e658460208501614a32565b90509250929050565b60008060408385031215614e80578182fd5b8235915060208301356001600160e01b031981168114614bca578182fd5b600080600080600060808688031215614eb5578283fd5b853594506020860135935060408601359250606086013567ffffffffffffffff811115614ee0578182fd5b614eec88828901614a49565b969995985093965092949392505050565b60008151808452815b81811015614f2257602081850181015186830182015201614f06565b81811115614f335782602083870101525b50601f01601f19169290920160200192915050565b60609390931b6bffffffffffffffffffffffff191683526014830191909152603482015260540190565b6a564f54494e475f524f4c4560a81b8152600b0190565b6941444d494e5f524f4c4560b01b8152600a0190565b6001600160a01b0391909116815260200190565b6001600160a01b03929092168252602082015260400190565b600060018060a01b038816825286602083015285604083015284606083015260c06080830152614fff60c0830185614efd565b905082151560a0830152979650505050505050565b901515815260200190565b9115158252602082015260400190565b90815260200190565b93845260ff9290921660208401526040830152606082015260800190565b602081016150638361590e565b825292915050565b6000602082526124f36020830184614efd565b60006101008083526150928184018c614efd565b91505061509e89615903565b60208301526150ac8861590e565b60408301526060820196909652608081019490945291151560a0840152151560c083015260e0909101529392505050565b6000606082526150f06060830186614efd565b60208301949094525060400152919050565b60208082526018908201527f45434453413a20696e76616c6964207369676e61747572650000000000000000604082015260600190565b60208082526022908201527f456e756d657261626c655365743a20696e646578206f7574206f6620626f756e604082015261647360f01b606082015260800190565b6020808252602f908201527f416363657373436f6e74726f6c3a2073656e646572206d75737420626520616e60408201526e0818591b5a5b881d1bc819dc985b9d608a1b606082015260800190565b6020808252601c908201527f526577617264696e673a20696e636f7272656374206e6f6e6365496400000000604082015260600190565b6020808252601f908201527f45434453413a20696e76616c6964207369676e6174757265206c656e67746800604082015260600190565b60208082526028908201527f566f74696e673a2074696d65206d75737420626520626967676572207468616e6040820152670818dd5c9c995b9d60c21b606082015260800190565b60208082526026908201527f4f776e61626c653a206e6577206f776e657220697320746865207a65726f206160408201526564647265737360d01b606082015260800190565b60208082526024908201527f566f74696e673a206d757374206265206174206c656173742074776f206f7074604082015263696f6e7360e01b606082015260800190565b6020808252601f908201527f566f74696e673a2070726f706f73616c20646f6573206e6f7420657869737400604082015260600190565b602080825260159082015274159bdd1a5b99ce88195b5c1d1e4819195c1bdcda5d605a1b604082015260600190565b60208082526025908201527f566f74696e673a20746869732070726f706f73616c206974206e6f7420616363604082015264195c1d195960da1b606082015260800190565b60208082526028908201527f566f74696e673a20706c656173652063686f6f736520616e206f7074696f6e206040820152670c4f240d2dcc8caf60c31b606082015260800190565b6020808252601e908201527f566f74696e673a20796f75206861766520616c726561647920766f7465640000604082015260600190565b6020808252601e908201527f526577617264696e673a20696e636f7272656374207369676e61747572650000604082015260600190565b6020808252602b908201527f566f74696e673a20796f75206861766520746f206c6f636b20796f757220746f60408201526a6b656e73206265666f726560a81b606082015260800190565b6020808252601f908201527f566f74696e673a20696e636f7272656374207570646174696e67206461746100604082015260600190565b60208082526022908201527f45434453413a20696e76616c6964207369676e6174757265202773272076616c604082015261756560f01b606082015260800190565b602080825260169082015275566f74696e673a206f7574206f6620696e646578657360501b604082015260600190565b60208082526030908201527f416363657373436f6e74726f6c3a2073656e646572206d75737420626520616e60408201526f2061646d696e20746f207265766f6b6560801b606082015260800190565b60208082526018908201527f566f74696e673a20616c72656164792065786563757465640000000000000000604082015260600190565b60208082526022908201527f45434453413a20696e76616c6964207369676e6174757265202776272076616c604082015261756560f01b606082015260800190565b6020808252818101527f4f776e61626c653a2063616c6c6572206973206e6f7420746865206f776e6572604082015260600190565b6020808252602f908201527f566f74696e673a2064656e69656420746f20657865637574652074686520726560408201526e1c1b1858d959081c1c9bdc1bdcd85b608a1b606082015260800190565b60208082526029908201527f566f74696e673a20766f74696e6720706572696f64206973206e6f742066696e6040820152681a5cda1959081e595d60ba1b606082015260800190565b60208082526021908201527f566f74696e673a20657865637574696f6e2074696d65206973206578706972656040820152601960fa1b606082015260800190565b60208082526019908201527f526577617264696e673a20696e636f7272656374206861736800000000000000604082015260600190565b60208082526022908201527f566f74696e673a20796f7520646f206e6f742068617665207065726d6973736960408201526137b760f11b606082015260800190565b602080825260139082015272566f74696e673a20656d707479207469746c6560681b604082015260600190565b60208082526027908201527f566f74696e673a20746869732070726f706f73616c206973206e6f742065786560408201526663757461626c6560c81b606082015260800190565b6020808252602f908201527f416363657373436f6e74726f6c3a2063616e206f6e6c792072656e6f756e636560408201526e103937b632b9903337b91039b2b63360891b606082015260800190565b60208082526021908201527f566f74696e673a20796f752073686f756c642073617920796561206f72206e616040820152607960f81b606082015260800190565b6000858252608060208301526158cc6080830186614efd565b90506158d784615903565b6040830152600683106158e657fe5b82606083015295945050505050565b918252602082015260400190565b80600281106109b457fe5b80600681106109b457fefea26469706673582212202c86967d1934bf439a0068ac1fa0dc3a0d89239e48eb3cc1ee607276a037ba4a64736f6c63430006020033a8a1fd55aad9bd98e45291d680690c619e60f7931ecaeb384ba0bfb225cd25fe",
  "source": "// SPDX-License-Identifier: GPL-3.0\npragma solidity 0.6.2;\npragma experimental ABIEncoderV2;\n\nimport \"./CitadelDao.sol\";\n\n\ncontract CitadelDaoTest is CitadelDao {\n\n    uint private _fakeTime;\n\n    constructor (\n        address addressOfToken\n    )\n    CitadelDao(\n        addressOfToken\n    )\n    public {\n        _fakeTime = block.timestamp;\n    }\n\n    function setTimestamp(uint date) external onlyOwner {\n        _fakeTime = date;\n    }\n\n    function _timestamp() internal override view returns (uint) {\n        return _fakeTime;\n    }\n}",
  "sourcePath": "/home/pirat/Desktop/DAO_update/DAO/contracts/CitadelDaoTest.sol",
  "compiler": {
    "name": "solc",
    "version": "0.6.2+commit.bacdbe57.Emscripten.clang"
  },
  "schemaVersion": "3.2.5",
  "updatedAt": "2021-08-16T15:52:52.870Z",
  "devdoc": {
    "methods": {
      "getRoleAdmin(bytes32)": {
        "details": "Returns the admin role that controls `role`. See {grantRole} and {revokeRole}.     * To change a role's admin, use {_setRoleAdmin}."
      },
      "getRoleMember(bytes32,uint256)": {
        "details": "Returns one of the accounts that have `role`. `index` must be a value between 0 and {getRoleMemberCount}, non-inclusive.     * Role bearers are not sorted in any particular way, and their ordering may change at any point.     * WARNING: When using {getRoleMember} and {getRoleMemberCount}, make sure you perform all queries on the same block. See the following https://forum.openzeppelin.com/t/iterating-over-elements-on-enumerableset-in-openzeppelin-contracts/2296[forum post] for more information."
      },
      "getRoleMemberCount(bytes32)": {
        "details": "Returns the number of accounts that have `role`. Can be used together with {getRoleMember} to enumerate all bearers of a role."
      },
      "grantRole(bytes32,address)": {
        "details": "Grants `role` to `account`.     * If `account` had not been already granted `role`, emits a {RoleGranted} event.     * Requirements:     * - the caller must have ``role``'s admin role."
      },
      "hasRole(bytes32,address)": {
        "details": "Returns `true` if `account` has been granted `role`."
      },
      "owner()": {
        "details": "Returns the address of the current owner."
      },
      "renounceOwnership()": {
        "details": "Leaves the contract without owner. It will not be possible to call `onlyOwner` functions anymore. Can only be called by the current owner.     * NOTE: Renouncing ownership will leave the contract without an owner, thereby removing any functionality that is only available to the owner."
      },
      "renounceRole(bytes32,address)": {
        "details": "Revokes `role` from the calling account.     * Roles are often managed via {grantRole} and {revokeRole}: this function's purpose is to provide a mechanism for accounts to lose their privileges if they are compromised (such as when a trusted device is misplaced).     * If the calling account had been granted `role`, emits a {RoleRevoked} event.     * Requirements:     * - the caller must be `account`."
      },
      "revokeRole(bytes32,address)": {
        "details": "Revokes `role` from `account`.     * If `account` had been granted `role`, emits a {RoleRevoked} event.     * Requirements:     * - the caller must have ``role``'s admin role."
      },
      "transferOwnership(address)": {
        "details": "Transfers ownership of the contract to a new account (`newOwner`). Can only be called by the current owner."
      }
    }
  },
  "userdoc": {
    "methods": {}
  }
}