{
  "contractName": "CitadelTokenLocker",
  "abi": [
    {
      "anonymous": false,
      "inputs": [
        {
          "indexed": true,
          "internalType": "address",
          "name": "owner",
          "type": "address"
        },
        {
          "indexed": true,
          "internalType": "address",
          "name": "spender",
          "type": "address"
        },
        {
          "indexed": false,
          "internalType": "uint256",
          "name": "value",
          "type": "uint256"
        }
      ],
      "name": "Approval",
      "type": "event"
    },
    {
      "anonymous": false,
      "inputs": [
        {
          "indexed": true,
          "internalType": "uint256",
          "name": "issueId",
          "type": "uint256"
        },
        {
          "indexed": false,
          "internalType": "uint256",
          "name": "pct",
          "type": "uint256"
        }
      ],
      "name": "ChangeInflation",
      "type": "event"
    },
    {
      "anonymous": false,
      "inputs": [
        {
          "indexed": true,
          "internalType": "uint256",
          "name": "issueId",
          "type": "uint256"
        },
        {
          "indexed": false,
          "internalType": "uint256",
          "name": "pct",
          "type": "uint256"
        }
      ],
      "name": "ChangeVesting",
      "type": "event"
    },
    {
      "anonymous": false,
      "inputs": [
        {
          "indexed": false,
          "internalType": "uint256",
          "name": "index",
          "type": "uint256"
        }
      ],
      "name": "InflationUpdated",
      "type": "event"
    },
    {
      "anonymous": false,
      "inputs": [
        {
          "indexed": false,
          "internalType": "address",
          "name": "addr",
          "type": "address"
        }
      ],
      "name": "NewDaoTransport",
      "type": "event"
    },
    {
      "anonymous": false,
      "inputs": [
        {
          "indexed": false,
          "internalType": "address",
          "name": "addr",
          "type": "address"
        }
      ],
      "name": "NewVestingTransport",
      "type": "event"
    },
    {
      "anonymous": false,
      "inputs": [
        {
          "indexed": true,
          "internalType": "address",
          "name": "previousOwner",
          "type": "address"
        },
        {
          "indexed": true,
          "internalType": "address",
          "name": "newOwner",
          "type": "address"
        }
      ],
      "name": "OwnershipTransferred",
      "type": "event"
    },
    {
      "anonymous": false,
      "inputs": [
        {
          "indexed": false,
          "internalType": "address",
          "name": "account",
          "type": "address"
        }
      ],
      "name": "Paused",
      "type": "event"
    },
    {
      "anonymous": false,
      "inputs": [
        {
          "indexed": false,
          "internalType": "uint256",
          "name": "date",
          "type": "uint256"
        }
      ],
      "name": "SetInflationStart",
      "type": "event"
    },
    {
      "anonymous": false,
      "inputs": [
        {
          "indexed": true,
          "internalType": "address",
          "name": "from",
          "type": "address"
        },
        {
          "indexed": true,
          "internalType": "address",
          "name": "to",
          "type": "address"
        },
        {
          "indexed": false,
          "internalType": "uint256",
          "name": "value",
          "type": "uint256"
        }
      ],
      "name": "Transfer",
      "type": "event"
    },
    {
      "anonymous": false,
      "inputs": [
        {
          "indexed": false,
          "internalType": "address",
          "name": "account",
          "type": "address"
        }
      ],
      "name": "Unpaused",
      "type": "event"
    },
    {
      "inputs": [
        {
          "internalType": "address",
          "name": "owner",
          "type": "address"
        },
        {
          "internalType": "address",
          "name": "spender",
          "type": "address"
        }
      ],
      "name": "allowance",
      "outputs": [
        {
          "internalType": "uint256",
          "name": "",
          "type": "uint256"
        }
      ],
      "stateMutability": "view",
      "type": "function"
    },
    {
      "inputs": [
        {
          "internalType": "address",
          "name": "spender",
          "type": "address"
        },
        {
          "internalType": "uint256",
          "name": "amount",
          "type": "uint256"
        }
      ],
      "name": "approve",
      "outputs": [
        {
          "internalType": "bool",
          "name": "",
          "type": "bool"
        }
      ],
      "stateMutability": "nonpayable",
      "type": "function"
    },
    {
      "inputs": [
        {
          "internalType": "address",
          "name": "account",
          "type": "address"
        }
      ],
      "name": "balanceOf",
      "outputs": [
        {
          "internalType": "uint256",
          "name": "",
          "type": "uint256"
        }
      ],
      "stateMutability": "view",
      "type": "function"
    },
    {
      "inputs": [
        {
          "internalType": "uint256",
          "name": "amount",
          "type": "uint256"
        }
      ],
      "name": "burn",
      "outputs": [],
      "stateMutability": "nonpayable",
      "type": "function"
    },
    {
      "inputs": [],
      "name": "countInflationPoints",
      "outputs": [
        {
          "internalType": "uint256",
          "name": "",
          "type": "uint256"
        }
      ],
      "stateMutability": "view",
      "type": "function"
    },
    {
      "inputs": [],
      "name": "decimals",
      "outputs": [
        {
          "internalType": "uint8",
          "name": "",
          "type": "uint8"
        }
      ],
      "stateMutability": "view",
      "type": "function"
    },
    {
      "inputs": [
        {
          "internalType": "address",
          "name": "spender",
          "type": "address"
        },
        {
          "internalType": "uint256",
          "name": "subtractedValue",
          "type": "uint256"
        }
      ],
      "name": "decreaseAllowance",
      "outputs": [
        {
          "internalType": "bool",
          "name": "",
          "type": "bool"
        }
      ],
      "stateMutability": "nonpayable",
      "type": "function"
    },
    {
      "inputs": [
        {
          "internalType": "address",
          "name": "from",
          "type": "address"
        },
        {
          "internalType": "uint256",
          "name": "amount",
          "type": "uint256"
        }
      ],
      "name": "delegateToDAO",
      "outputs": [],
      "stateMutability": "nonpayable",
      "type": "function"
    },
    {
      "inputs": [],
      "name": "deployDate",
      "outputs": [
        {
          "internalType": "uint256",
          "name": "",
          "type": "uint256"
        }
      ],
      "stateMutability": "view",
      "type": "function"
    },
    {
      "inputs": [],
      "name": "deployed",
      "outputs": [
        {
          "internalType": "uint256",
          "name": "",
          "type": "uint256"
        }
      ],
      "stateMutability": "view",
      "type": "function"
    },
    {
      "inputs": [],
      "name": "getDaoAddress",
      "outputs": [
        {
          "internalType": "address",
          "name": "",
          "type": "address"
        }
      ],
      "stateMutability": "view",
      "type": "function"
    },
    {
      "inputs": [],
      "name": "getInflationStartDate",
      "outputs": [
        {
          "internalType": "uint256",
          "name": "",
          "type": "uint256"
        }
      ],
      "stateMutability": "view",
      "type": "function"
    },
    {
      "inputs": [],
      "name": "getMaxSupply",
      "outputs": [
        {
          "internalType": "uint256",
          "name": "",
          "type": "uint256"
        }
      ],
      "stateMutability": "view",
      "type": "function"
    },
    {
      "inputs": [],
      "name": "getSavedInflationYear",
      "outputs": [
        {
          "internalType": "uint256",
          "name": "",
          "type": "uint256"
        }
      ],
      "stateMutability": "view",
      "type": "function"
    },
    {
      "inputs": [],
      "name": "getVestingAddress",
      "outputs": [
        {
          "internalType": "address",
          "name": "",
          "type": "address"
        }
      ],
      "stateMutability": "view",
      "type": "function"
    },
    {
      "inputs": [
        {
          "internalType": "address",
          "name": "spender",
          "type": "address"
        },
        {
          "internalType": "uint256",
          "name": "addedValue",
          "type": "uint256"
        }
      ],
      "name": "increaseAllowance",
      "outputs": [
        {
          "internalType": "bool",
          "name": "",
          "type": "bool"
        }
      ],
      "stateMutability": "nonpayable",
      "type": "function"
    },
    {
      "inputs": [
        {
          "internalType": "uint256",
          "name": "index",
          "type": "uint256"
        }
      ],
      "name": "inflationPoint",
      "outputs": [
        {
          "components": [
            {
              "internalType": "uint256",
              "name": "inflationPct",
              "type": "uint256"
            },
            {
              "internalType": "uint256",
              "name": "stakingPct",
              "type": "uint256"
            },
            {
              "internalType": "uint256",
              "name": "currentSupply",
              "type": "uint256"
            },
            {
              "internalType": "uint256",
              "name": "yearlySupply",
              "type": "uint256"
            },
            {
              "internalType": "uint256",
              "name": "date",
              "type": "uint256"
            }
          ],
          "internalType": "struct CitadelInflation.InflationValues",
          "name": "",
          "type": "tuple"
        }
      ],
      "stateMutability": "view",
      "type": "function"
    },
    {
      "inputs": [
        {
          "internalType": "address",
          "name": "daoAddress",
          "type": "address"
        }
      ],
      "name": "initDaoTransport",
      "outputs": [],
      "stateMutability": "nonpayable",
      "type": "function"
    },
    {
      "inputs": [
        {
          "internalType": "address",
          "name": "vestAddress",
          "type": "address"
        }
      ],
      "name": "initVestingTransport",
      "outputs": [],
      "stateMutability": "nonpayable",
      "type": "function"
    },
    {
      "inputs": [
        {
          "internalType": "address",
          "name": "",
          "type": "address"
        }
      ],
      "name": "lockedCoins",
      "outputs": [
        {
          "internalType": "uint256",
          "name": "",
          "type": "uint256"
        }
      ],
      "stateMutability": "view",
      "type": "function"
    },
    {
      "inputs": [],
      "name": "name",
      "outputs": [
        {
          "internalType": "string",
          "name": "",
          "type": "string"
        }
      ],
      "stateMutability": "view",
      "type": "function"
    },
    {
      "inputs": [],
      "name": "owner",
      "outputs": [
        {
          "internalType": "address",
          "name": "",
          "type": "address"
        }
      ],
      "stateMutability": "view",
      "type": "function"
    },
    {
      "inputs": [],
      "name": "paused",
      "outputs": [
        {
          "internalType": "bool",
          "name": "",
          "type": "bool"
        }
      ],
      "stateMutability": "view",
      "type": "function"
    },
    {
      "inputs": [
        {
          "internalType": "address",
          "name": "to",
          "type": "address"
        },
        {
          "internalType": "uint256",
          "name": "amount",
          "type": "uint256"
        }
      ],
      "name": "redeemFromDAO",
      "outputs": [],
      "stateMutability": "nonpayable",
      "type": "function"
    },
    {
      "inputs": [],
      "name": "renounceOwnership",
      "outputs": [],
      "stateMutability": "nonpayable",
      "type": "function"
    },
    {
      "inputs": [],
      "name": "startInflation",
      "outputs": [],
      "stateMutability": "nonpayable",
      "type": "function"
    },
    {
      "inputs": [
        {
          "internalType": "uint256",
          "name": "date",
          "type": "uint256"
        }
      ],
      "name": "startInflationTo",
      "outputs": [],
      "stateMutability": "nonpayable",
      "type": "function"
    },
    {
      "inputs": [],
      "name": "symbol",
      "outputs": [
        {
          "internalType": "string",
          "name": "",
          "type": "string"
        }
      ],
      "stateMutability": "view",
      "type": "function"
    },
    {
      "inputs": [],
      "name": "totalSupply",
      "outputs": [
        {
          "internalType": "uint256",
          "name": "",
          "type": "uint256"
        }
      ],
      "stateMutability": "view",
      "type": "function"
    },
    {
      "inputs": [
        {
          "internalType": "address",
          "name": "recipient",
          "type": "address"
        },
        {
          "internalType": "uint256",
          "name": "amount",
          "type": "uint256"
        }
      ],
      "name": "transfer",
      "outputs": [
        {
          "internalType": "bool",
          "name": "",
          "type": "bool"
        }
      ],
      "stateMutability": "nonpayable",
      "type": "function"
    },
    {
      "inputs": [
        {
          "internalType": "address",
          "name": "sender",
          "type": "address"
        },
        {
          "internalType": "address",
          "name": "recipient",
          "type": "address"
        },
        {
          "internalType": "uint256",
          "name": "amount",
          "type": "uint256"
        }
      ],
      "name": "transferFrom",
      "outputs": [
        {
          "internalType": "bool",
          "name": "",
          "type": "bool"
        }
      ],
      "stateMutability": "nonpayable",
      "type": "function"
    },
    {
      "inputs": [
        {
          "internalType": "address",
          "name": "newOwner",
          "type": "address"
        }
      ],
      "name": "transferOwnership",
      "outputs": [],
      "stateMutability": "nonpayable",
      "type": "function"
    },
    {
      "inputs": [
        {
          "internalType": "uint256",
          "name": "issueId",
          "type": "uint256"
        },
        {
          "internalType": "uint256",
          "name": "pct",
          "type": "uint256"
        }
      ],
      "name": "updateInflation",
      "outputs": [],
      "stateMutability": "nonpayable",
      "type": "function"
    },
    {
      "inputs": [],
      "name": "updateSnapshot",
      "outputs": [],
      "stateMutability": "nonpayable",
      "type": "function"
    },
    {
      "inputs": [
        {
          "internalType": "uint256",
          "name": "issueId",
          "type": "uint256"
        },
        {
          "internalType": "uint256",
          "name": "pct",
          "type": "uint256"
        }
      ],
      "name": "updateVesting",
      "outputs": [],
      "stateMutability": "nonpayable",
      "type": "function"
    },
    {
      "inputs": [
        {
          "internalType": "address",
          "name": "to",
          "type": "address"
        },
        {
          "internalType": "uint256",
          "name": "amount",
          "type": "uint256"
        }
      ],
      "name": "withdraw",
      "outputs": [],
      "stateMutability": "nonpayable",
      "type": "function"
    },
    {
      "inputs": [
        {
          "internalType": "address",
          "name": "account",
          "type": "address"
        }
      ],
      "name": "lockedBalanceOf",
      "outputs": [
        {
          "internalType": "uint256",
          "name": "",
          "type": "uint256"
        }
      ],
      "stateMutability": "view",
      "type": "function"
    },
    {
      "inputs": [],
      "name": "lockedSupply",
      "outputs": [
        {
          "internalType": "uint256",
          "name": "",
          "type": "uint256"
        }
      ],
      "stateMutability": "view",
      "type": "function"
    },
    {
      "inputs": [],
      "name": "totalSupplyHistoryCount",
      "outputs": [
        {
          "internalType": "uint256",
          "name": "",
          "type": "uint256"
        }
      ],
      "stateMutability": "view",
      "type": "function"
    },
    {
      "inputs": [
        {
          "internalType": "uint256",
          "name": "index",
          "type": "uint256"
        }
      ],
      "name": "totalSupplyHistory",
      "outputs": [
        {
          "internalType": "uint256",
          "name": "value",
          "type": "uint256"
        },
        {
          "internalType": "uint256",
          "name": "date",
          "type": "uint256"
        }
      ],
      "stateMutability": "view",
      "type": "function"
    },
    {
      "inputs": [
        {
          "internalType": "address",
          "name": "addr",
          "type": "address"
        }
      ],
      "name": "lockHistoryCount",
      "outputs": [
        {
          "internalType": "uint256",
          "name": "",
          "type": "uint256"
        }
      ],
      "stateMutability": "view",
      "type": "function"
    },
    {
      "inputs": [
        {
          "internalType": "address",
          "name": "addr",
          "type": "address"
        },
        {
          "internalType": "uint256",
          "name": "index",
          "type": "uint256"
        }
      ],
      "name": "lockHistory",
      "outputs": [
        {
          "internalType": "uint256",
          "name": "value",
          "type": "uint256"
        },
        {
          "internalType": "uint256",
          "name": "date",
          "type": "uint256"
        }
      ],
      "stateMutability": "view",
      "type": "function"
    },
    {
      "inputs": [
        {
          "internalType": "uint256",
          "name": "amount",
          "type": "uint256"
        }
      ],
      "name": "stake",
      "outputs": [],
      "stateMutability": "nonpayable",
      "type": "function"
    },
    {
      "inputs": [
        {
          "internalType": "uint256",
          "name": "amount",
          "type": "uint256"
        }
      ],
      "name": "unstake",
      "outputs": [],
      "stateMutability": "nonpayable",
      "type": "function"
    },
    {
      "inputs": [],
      "name": "restake",
      "outputs": [],
      "stateMutability": "nonpayable",
      "type": "function"
    }
  ],
  "bytecode": "0x600b60808181526a4369746164656c2e6f6e6560a81b60a0908152610100604052600360c0818152621610d560ea1b60e05292936200003f929062000118565b5080516200005590600490602084019062000118565b50506005805460ff191660121790555060006200007a6001600160e01b03620000fd16565b60058054610100600160a81b0319166101006001600160a01b03841690810291909117909155604051919250906000907f8be0079c531659141344cd1fd0a4f28419497f9722a3daafe3b4186f6b6457e0908290a3506005805460ff60a81b19169055426006908155620000f7906001600160e01b036200010216565b620001ba565b335b90565b6005805460ff191660ff92909216919091179055565b828054600181600116156101000203166002900490600052602060002090601f016020900481019282601f106200015b57805160ff19168380011785556200018b565b828001600101855582156200018b579182015b828111156200018b5782518255916020019190600101906200016e565b50620001999291506200019d565b5090565b620000ff91905b80821115620001995760008155600101620001a4565b6128e480620001ca6000396000f3fe608060405234801561001057600080fd5b506004361061027f5760003560e01c8063692404261161015c578063ac3cd7c6116100ce578063f1474bd811610087578063f1474bd814610508578063f2fde38b14610528578063f3fef3a31461053b578063f905c15a1461054e578063f9b7ce0214610556578063ff1764a41461055e5761027f565b8063ac3cd7c6146104a1578063bf17282a146104b4578063c108a402146104c7578063c686781d146104da578063ca5c7b91146104ed578063dd62ed3e146104f55761027f565b806389bb60811161012057806389bb6081146104455780638da5cb5b1461045857806395d89b4114610460578063a457c2d714610468578063a694fc3a1461047b578063a9059cbb1461048e5761027f565b8063692404261461040757806369668fe91461040f57806370a0823114610417578063715018a61461042a5780637fa7faf8146104325761027f565b806344263fcb116101f55780634cf54195116101b95780634cf54195146103a85780634f91440d146103c957806355b28b37146103d157806359355736146103d95780635c975abb146103ec5780636641d9a0146103f45761027f565b806344263fcb1461036a57806344c404641461037d5780634ab68e14146103905780634b45aa12146103985780634c0f38c2146103a05761027f565b806323b872dd1161024757806323b872dd146102f45780632e17de7814610307578063313ce5671461031c57806339509351146103315780633ba71a151461034457806342966c68146103575761027f565b806306fdde0314610284578063095ea7b3146102a257806318160ddd146102c25780631d0a67e1146102d75780631d68702d146102df575b600080fd5b61028c610566565b60405161029991906121d6565b60405180910390f35b6102b56102b036600461213c565b6105fc565b60405161029991906121cb565b6102ca61061a565b60405161029991906127df565b6102ca610620565b6102e7610626565b60405161029991906121b7565b6102b56103023660046120fc565b610635565b61031a610315366004612166565b6106c2565b005b61032461081c565b60405161029991906127f6565b6102b561033f36600461213c565b610825565b61031a61035236600461213c565b610879565b61031a610365366004612166565b6108a0565b61031a6103783660046120ad565b6108f3565b61031a61038b36600461213c565b610983565b6102ca6109a6565b6102ca6109ac565b6102ca6109b2565b6103bb6103b636600461213c565b6109b8565b6040516102999291906127e8565b61031a610a74565b6102ca610bab565b6102ca6103e73660046120ad565b610bb1565b6102b5610bcc565b6103bb610402366004612166565b610bdc565b61031a610c49565b6102ca610c7f565b6102ca6104253660046120ad565b610c85565b61031a610ca0565b61031a6104403660046120ad565b610d2a565b6102ca6104533660046120ad565b610daf565b6102e7610dca565b61028c610dde565b6102b561047636600461213c565b610e3f565b61031a610489366004612166565b610ead565b6102b561049c36600461213c565b610f09565b61031a6104af366004612196565b610f1d565b6102ca6104c23660046120ad565b61104d565b61031a6104d5366004612196565b61105f565b61031a6104e8366004612166565b611182565b6102ca611275565b6102ca6105033660046120c8565b611284565b61051b610516366004612166565b6112af565b60405161029991906127a5565b61031a6105363660046120ad565b611337565b61031a61054936600461213c565b6113fe565b6102ca61143e565b61031a611444565b6102e761150d565b60038054604080516020601f60026000196101006001881615020190951694909404938401819004810282018101909252828152606093909290918301828280156105f25780601f106105c7576101008083540402835291602001916105f2565b820191906000526020600020905b8154815290600101906020018083116105d557829003601f168201915b5050505050905090565b600061061061060961151c565b8484611520565b5060015b92915050565b60025490565b600d5490565b6008546001600160a01b031690565b60006106428484846115d4565b6106b88461064e61151c565b6106b385604051806060016040528060288152602001612862602891396001600160a01b038a1660009081526001602052604081209061068c61151c565b6001600160a01b03168152602081019190915260400160002054919063ffffffff6116f516565b611520565b5060019392505050565b60006009541180156106dd57506106d7611721565b60095411155b6107025760405162461bcd60e51b81526004016106f9906124f8565b60405180910390fd5b3360009081526010602052604090205481111561071e57600080fd5b610726611725565b6011546107429061010090046001600160a01b031633836115d4565b33600090815260106020526040902054610762908263ffffffff611aae16565b33600090815260106020526040908190209190915580518082019091526012908061078b611af7565b8152602001610798611721565b9052815460018181018455600093845260208085208451600290940201928355928301519101553382526013815260408083208151808301835260108452919093205481529081016107e8611721565b9052815460018181018455600093845260209384902083516002909302019182559290910151910155610819611b14565b50565b60055460ff1690565b600061061061083261151c565b846106b3856001600061084361151c565b6001600160a01b03908116825260208083019390935260409182016000908120918c16815292529020549063ffffffff611bfd16565b6008546001600160a01b0316331461089057600080fd5b61089c600a83836115d4565b5050565b6103e833116108c15760405162461bcd60e51b81526004016106f990612564565b806108cb33610c85565b10156108e95760405162461bcd60e51b81526004016106f99061232c565b6108193382611c22565b6108fb61151c565b60055461010090046001600160a01b0390811691161461092d5760405162461bcd60e51b81526004016106f99061252f565b600880546001600160a01b0319166001600160a01b0383161790556040517f9e006baa245780a8a3d4098c11dd27a97c8d0c2e25b998fa057c6ab8eb079191906109789083906121b7565b60405180910390a150565b6008546001600160a01b0316331461099a57600080fd5b61089c82600a836115d4565b60125490565b600f5490565b600b5490565b6001600160a01b038216600090815260136020526040812054819083106109f15760405162461bcd60e51b81526004016106f99061246f565b6001600160a01b0384166000908152601360205260409020805484908110610a1557fe5b906000526020600020906002020160000154915060136000856001600160a01b03166001600160a01b031681526020019081526020016000208381548110610a5957fe5b90600052602060002090600202016001015490509250929050565b6000600954118015610a8f5750610a89611721565b60095411155b610aab5760405162461bcd60e51b81526004016106f9906124f8565b6007546001600160a01b0316610ad35760405162461bcd60e51b81526004016106f990612229565b60075460405163ddeae03360e01b81526000916001600160a01b03169063ddeae03390610b049033906004016121b7565b602060405180830381600087803b158015610b1e57600080fd5b505af1158015610b32573d6000803e3d6000fd5b505050506040513d601f19601f82011682018060405250610b56919081019061217e565b905060008111610b6557600080fd5b610b6d611725565b601154610b8b9060019061010090046001600160a01b0316836115d4565b33600090815260106020526040902054610762908263ffffffff611bfd16565b60095490565b6001600160a01b031660009081526010602052604090205490565b600554600160a81b900460ff1690565b60125460009081908310610c025760405162461bcd60e51b81526004016106f99061246f565b60128381548110610c0f57fe5b906000526020600020906002020160000154915060128381548110610c3057fe5b9060005260206000209060020201600101549050915091565b6007546001600160a01b0316331480610c6c57506008546001600160a01b031633145b610c7557600080fd5b610c7d611725565b565b60065481565b6001600160a01b031660009081526020819052604090205490565b610ca861151c565b60055461010090046001600160a01b03908116911614610cda5760405162461bcd60e51b81526004016106f99061252f565b60055460405160009161010090046001600160a01b0316907f8be0079c531659141344cd1fd0a4f28419497f9722a3daafe3b4186f6b6457e0908390a360058054610100600160a81b0319169055565b610d3261151c565b60055461010090046001600160a01b03908116911614610d645760405162461bcd60e51b81526004016106f99061252f565b600780546001600160a01b0319166001600160a01b0383161790556040517f68e937a920bca55a7c599d782170d8606e7d5fe31c1c9cdc4c1fd7c74ca1de1c906109789083906121b7565b6001600160a01b031660009081526013602052604090205490565b60055461010090046001600160a01b031690565b60048054604080516020601f60026000196101006001881615020190951694909404938401819004810282018101909252828152606093909290918301828280156105f25780601f106105c7576101008083540402835291602001916105f2565b6000610610610e4c61151c565b846106b38560405180606001604052806025815260200161288a6025913960016000610e7661151c565b6001600160a01b03908116825260208083019390935260409182016000908120918d1681529252902054919063ffffffff6116f516565b6000600954118015610ec85750610ec2611721565b60095411155b610ee45760405162461bcd60e51b81526004016106f9906124f8565b610eec611725565b601154610b8b90339061010090046001600160a01b0316836115d4565b6000610610610f1661151c565b84846115d4565b6008546001600160a01b03163314610f3457600080fd5b600a8110158015610f465750605a8111155b610f625760405162461bcd60e51b81526004016106f9906126c9565b610f6a612067565b600f80546000198101908110610f7c57fe5b90600052602060002090600502016040518060a001604052908160008201548152602001600182015481526020016002820154815260200160038201548152602001600482015481525050905060008160800151610fd8611721565b03905062278d00811015610ffe5760405162461bcd60e51b81526004016106f99061270f565b611006611725565b61100f83611d10565b837f96a647810411309169e354743b6a4e9d05e3c777f5fae278e65f6168fe7279ba8460405161103f91906127df565b60405180910390a250505050565b60106020526000908152604090205481565b6008546001600160a01b0316331461107657600080fd5b60c881101580156110895750610bb88111155b6110a55760405162461bcd60e51b81526004016106f9906124b3565b6110ad612067565b600f805460001981019081106110bf57fe5b90600052602060002090600502016040518060a00160405290816000820154815260200160018201548152602001600282015481526020016003820154815260200160048201548152505090506000816080015161111b611721565b03905062278d008110156111415760405162461bcd60e51b81526004016106f99061270f565b611149611725565b61115283611eb9565b837f8f4db2ceeda2c579bf7d6f7036f9f300565d76719308713e3c85d3484b4ebb308460405161103f91906127df565b61118a61151c565b60055461010090046001600160a01b039081169116146111bc5760405162461bcd60e51b81526004016106f99061252f565b60095415806111d357506111ce611721565b600954115b6111ef5760405162461bcd60e51b81526004016106f990612621565b6111f7611721565b81116112155760405162461bcd60e51b81526004016106f9906122ba565b6009819055600d819055600f805482919060009061122f57fe5b9060005260206000209060050201600401819055507f9fc22fadaf2a60d0fc0b55f067aab3d342cd367b0ab3ffb49d3a4f8420768a3c60095460405161097891906127df565b600061127f611af7565b905090565b6001600160a01b03918216600090815260016020908152604080832093909416825291909152205490565b6112b7612067565b600f5482106112d85760405162461bcd60e51b81526004016106f99061242d565b600f82815481106112e557fe5b90600052602060002090600502016040518060a0016040529081600082015481526020016001820154815260200160028201548152602001600382015481526020016004820154815250509050919050565b61133f61151c565b60055461010090046001600160a01b039081169116146113715760405162461bcd60e51b81526004016106f99061252f565b6001600160a01b0381166113975760405162461bcd60e51b81526004016106f99061236e565b6005546040516001600160a01b0380841692610100900416907f8be0079c531659141344cd1fd0a4f28419497f9722a3daafe3b4186f6b6457e090600090a3600580546001600160a01b0390921661010002610100600160a81b0319909216919091179055565b6007546001600160a01b031633148061142157506008546001600160a01b031633145b61142a57600080fd5b611432611725565b61089c600183836115d4565b60065490565b61144c61151c565b60055461010090046001600160a01b0390811691161461147e5760405162461bcd60e51b81526004016106f99061252f565b6009541561149e5760405162461bcd60e51b81526004016106f990612621565b6114a6611721565b6009819055600d819055600f80546000906114bd57fe5b9060005260206000209060050201600401819055507f9fc22fadaf2a60d0fc0b55f067aab3d342cd367b0ab3ffb49d3a4f8420768a3c60095460405161150391906127df565b60405180910390a1565b6007546001600160a01b031690565b3390565b6001600160a01b0383166115465760405162461bcd60e51b81526004016106f990612658565b6001600160a01b03821661156c5760405162461bcd60e51b81526004016106f9906123b4565b6001600160a01b0380841660008181526001602090815260408083209487168084529490915290819020849055517f8c5be1e5ebec7d5bd14f71427d1e84f3dd0314c0f7b2291e5b200ac8c7c3b925906115c79085906127df565b60405180910390a3505050565b6001600160a01b0383166115fa5760405162461bcd60e51b81526004016106f9906125dc565b6001600160a01b0382166116205760405162461bcd60e51b81526004016106f990612277565b61162b838383611ff4565b61166e8160405180606001604052806026815260200161283c602691396001600160a01b038616600090815260208190526040902054919063ffffffff6116f516565b6001600160a01b0380851660009081526020819052604080822093909355908416815220546116a3908263ffffffff611bfd16565b6001600160a01b0380841660008181526020819052604090819020939093559151908516907fddf252ad1be2c89b69c2b068fc378daa952ba7f163c4a11628f55a4df523b3ef906115c79085906127df565b600081848411156117195760405162461bcd60e51b81526004016106f991906121d6565b505050900390565b4290565b600c54600b541161173557610c7d565b6000600d54611742611721565b0390506301e133808110156117575750610c7d565b61175f612067565b600f8054600019810190811061177157fe5b600091825260208083206040805160a0810182526005909402909101805480855260018201549385019390935260028101549184019190915260038101546060840152600401546080830152909250905b6301e133808404811015611aa2576301e13380600d6000828254019250508190555060006127106301e133808560800151600d540385600e5402028161180457fe5b048161180c57fe5b049050600d54846080018181525050600b54600c548201101580611830575060c883105b1561190457600b54600c81905550600f6040518060a0016040528061185361204a565b815260208781015181830152600c546040808401829052606080850192909252600d54608094850152855460018181018855600097885296849020865160059092020190815592850151958301959095558385015160028301558301516003820155910151600490910155600f5490517fedc524a2d3f6ca20c1a24894433e36a31d7a2e9c37b78d9ab1c758bf83072d04916118f69160001991909101906127df565b60405180910390a150611aa2565b600c80548201905560c883111561192e5760328303925060c88310156119295760c892505b611952565b8260c8141561195257600061194161204a565b905060c8811015611950578093505b505b6040805160a081018252848152602086810151908201908152600c5482840181815260608401918252600d5460808501908152600f8054600181018255600082905295517f8d1108e10bcb7c27dddfc02ed9d693a074039d026cf4ea4240b40f7d581ac80260059097029687015593517f8d1108e10bcb7c27dddfc02ed9d693a074039d026cf4ea4240b40f7d581ac80386015590517f8d1108e10bcb7c27dddfc02ed9d693a074039d026cf4ea4240b40f7d581ac80485015590517f8d1108e10bcb7c27dddfc02ed9d693a074039d026cf4ea4240b40f7d581ac805840155517f8d1108e10bcb7c27dddfc02ed9d693a074039d026cf4ea4240b40f7d581ac806909201919091555490517fedc524a2d3f6ca20c1a24894433e36a31d7a2e9c37b78d9ab1c758bf83072d0491611a919160001991909101906127df565b60405180910390a1506001016117c2565b5050600c54600e555050565b6000611af083836040518060400160405280601e81526020017f536166654d6174683a207375627472616374696f6e206f766572666c6f7700008152506116f5565b9392505050565b60115460009061127f9061010090046001600160a01b0316610c85565b6008546001600160a01b031615611b885760085460405163070c88f360e41b81526001600160a01b03909116906370c88f3090611b559033906004016121b7565b600060405180830381600087803b158015611b6f57600080fd5b505af1158015611b83573d6000803e3d6000fd5b505050505b6007546001600160a01b031615610c7d576007546040516303d9eba760e41b81526001600160a01b0390911690633d9eba7090611bc99033906004016121b7565b600060405180830381600087803b158015611be357600080fd5b505af1158015611bf7573d6000803e3d6000fd5b50505050565b600082820183811015611af05760405162461bcd60e51b81526004016106f9906123f6565b6001600160a01b038216611c485760405162461bcd60e51b81526004016106f99061259b565b611c5482600083611ff4565b611c978160405180606001604052806022815260200161281a602291396001600160a01b038516600090815260208190526040902054919063ffffffff6116f516565b6001600160a01b038316600090815260208190526040902055600254611cc3908263ffffffff611aae16565b6002556040516000906001600160a01b038416907fddf252ad1be2c89b69c2b068fc378daa952ba7f163c4a11628f55a4df523b3ef90611d049085906127df565b60405180910390a35050565b600c54600b541415611d2157600080fd5b611d29612067565b600f80546000198101908110611d3b57fe5b90600052602060002090600502016040518060a001604052908160008201548152602001600182015481526020016002820154815260200160038201548152602001600482015481525050905060008160800151611d97611721565b0390506127106301e13380828460000151600e54020281611db457fe5b0481611dbc57fe5b04600c60008282540192505081905550600b54600c5410611def5760405162461bcd60e51b81526004016106f9906122fd565b600f6040518060a0016040528084600001518152602001858152602001600c548152602001600e548152602001611e24611721565b9052815460018181018455600093845260209384902083516005909302019182559282015192810192909255604080820151600284015560608201516003840155608090910151600490920191909155600f5490517fedc524a2d3f6ca20c1a24894433e36a31d7a2e9c37b78d9ab1c758bf83072d0491611eac9160001991909101906127df565b60405180910390a1505050565b600c54600b541415611eca57600080fd5b611ed2612067565b600f80546000198101908110611ee457fe5b90600052602060002090600502016040518060a001604052908160008201548152602001600182015481526020016002820154815260200160038201548152602001600482015481525050905060008160800151611f40611721565b0390506127106301e13380828460000151600e54020281611f5d57fe5b0481611f6557fe5b04600c60008282540192505081905550600b54600c5410611f985760405162461bcd60e51b81526004016106f9906122fd565b611fa061204a565b831115611fbf5760405162461bcd60e51b81526004016106f99061269c565b600f6040518060a0016040528085815260200184602001518152602001600c548152602001600e548152602001611e24611721565b611fff838383612045565b6103e833116120205760405162461bcd60e51b81526004016106f990612564565b612028610bcc565b156120455760405162461bcd60e51b81526004016106f99061275b565b505050565b6000600c54600c54600b5403612710028161206157fe5b04905090565b6040518060a0016040528060008152602001600081526020016000815260200160008152602001600081525090565b80356001600160a01b038116811461061457600080fd5b6000602082840312156120be578081fd5b611af08383612096565b600080604083850312156120da578081fd5b6120e48484612096565b91506120f38460208501612096565b90509250929050565b600080600060608486031215612110578081fd5b833561211b81612804565b9250602084013561212b81612804565b929592945050506040919091013590565b6000806040838503121561214e578182fd5b6121588484612096565b946020939093013593505050565b600060208284031215612177578081fd5b5035919050565b60006020828403121561218f578081fd5b5051919050565b600080604083850312156121a8578182fd5b50508035926020909101359150565b6001600160a01b0391909116815260200190565b901515815260200190565b6000602080835283518082850152825b81811015612202578581018301518582016040015282016121e6565b818111156122135783604083870101525b50601f01601f1916929092016040019392505050565b6020808252602e908201527f4369746164656c546f6b656e4c6f636b65723a2076657374696e6720636f6e7460408201526d1c9858dd081d5b9919599a5b995960921b606082015260800190565b60208082526023908201527f45524332303a207472616e7366657220746f20746865207a65726f206164647260408201526265737360e81b606082015260800190565b60208082526023908201527f5374617274696e672064617465206d75737420626520696e207468652066757460408201526275726560e81b606082015260800190565b60208082526015908201527413585e081cdd5c1c1b1e481a5cc81c995858da1959605a1b604082015260600190565b60208082526022908201527f4369746164656c546f6b656e3a20696e73756666696369656e742062616c616e604082015261636560f01b606082015260800190565b60208082526026908201527f4f776e61626c653a206e6577206f776e657220697320746865207a65726f206160408201526564647265737360d01b606082015260800190565b60208082526022908201527f45524332303a20617070726f766520746f20746865207a65726f206164647265604082015261737360f01b606082015260800190565b6020808252601b908201527f536166654d6174683a206164646974696f6e206f766572666c6f770000000000604082015260600190565b60208082526022908201527f4369746164656c496e666c6174696f6e3a20756e657870656374656420696e646040820152610caf60f31b606082015260800190565b60208082526024908201527f4369746164656c546f6b656e4c6f636b65723a20756e657870656374656420696040820152630dcc8caf60e31b606082015260800190565b60208082526025908201527f50657263656e74616765206d757374206265206265747765656e20322520616e604082015264642033302560d81b606082015260800190565b6020808252601d908201527f4369746164656c496e666c6174696f6e3a20636f6d696e6720736f6f6e000000604082015260600190565b6020808252818101527f4f776e61626c653a2063616c6c6572206973206e6f7420746865206f776e6572604082015260600190565b60208082526019908201527f4369746164656c546f6b656e3a2066616b652073656e64657200000000000000604082015260600190565b60208082526021908201527f45524332303a206275726e2066726f6d20746865207a65726f206164647265736040820152607360f81b606082015260800190565b60208082526025908201527f45524332303a207472616e736665722066726f6d20746865207a65726f206164604082015264647265737360d81b606082015260800190565b6020808252601c908201527f496e666c6174696f6e20697320616c7265616479207374617274656400000000604082015260600190565b60208082526024908201527f45524332303a20617070726f76652066726f6d20746865207a65726f206164646040820152637265737360e01b606082015260800190565b602080825260139082015272546f6f20686967682070657263656e7461676560681b604082015260600190565b60208082526026908201527f50657263656e74616765206d757374206265206265747765656e2031302520616040820152656e642039302560d01b606082015260800190565b6020808252602c908201527f596f75206861766520746f20776169742033302064617973206166746572206c60408201526b617374206368616e67696e6760a01b606082015260800190565b6020808252602a908201527f45524332305061757361626c653a20746f6b656e207472616e736665722077686040820152691a5b19481c185d5cd95960b21b606082015260800190565b600060a082019050825182526020830151602083015260408301516040830152606083015160608301526080830151608083015292915050565b90815260200190565b918252602082015260400190565b60ff91909116815260200190565b6001600160a01b038116811461081957600080fdfe45524332303a206275726e20616d6f756e7420657863656564732062616c616e636545524332303a207472616e7366657220616d6f756e7420657863656564732062616c616e636545524332303a207472616e7366657220616d6f756e74206578636565647320616c6c6f77616e636545524332303a2064656372656173656420616c6c6f77616e63652062656c6f77207a65726fa2646970667358221220e5ec549f95b20bf08f970f947f79cb5f73c27a9e2dcae1b37f1d297d4093862564736f6c63430006020033",
  "source": "// SPDX-License-Identifier: GPL-3.0\npragma solidity 0.6.2;\npragma experimental ABIEncoderV2;\n\nimport \"./CitadelInflation.sol\";\n\ncontract CitadelTokenLocker is CitadelInflation {\n\n    struct HistoryItem {\n        uint value;\n        uint date;\n    }\n\n    mapping (address => uint) public lockedCoins;\n\n    bool private _isInitialized;\n    address private _lockerAddress;\n    HistoryItem[] private _totalLockedSupplyHistory;\n    mapping (address => HistoryItem[]) private _lockedCoinsHistory;\n\n    function lockedBalanceOf(address account) external view returns (uint) {\n        return lockedCoins[account];\n    }\n\n    function lockedSupply() external view returns (uint) {\n        return _lockedTotalSupply();\n    }\n\n    function totalSupplyHistoryCount() external view\n    returns (uint) {\n        return _totalLockedSupplyHistory.length;\n    }\n\n    function totalSupplyHistory(uint index) external view\n    returns (\n        uint value,\n        uint date\n    ) {\n        require (index < _totalLockedSupplyHistory.length, \"CitadelTokenLocker: unexpected index\");\n        value = _totalLockedSupplyHistory[index].value;\n        date = _totalLockedSupplyHistory[index].date;\n    }\n\n    function lockHistoryCount(address addr) external view\n    returns (uint) {\n        return _lockedCoinsHistory[addr].length;\n    }\n\n    function lockHistory(address addr, uint index) external view\n    returns (\n        uint value,\n        uint date\n    ) {\n        require (index < _lockedCoinsHistory[addr].length, \"CitadelTokenLocker: unexpected index\");\n        value = _lockedCoinsHistory[addr][index].value;\n        date = _lockedCoinsHistory[addr][index].date;\n    }\n\n    function stake(uint amount) external activeInflation {\n        \n        _makeInflationSnapshot();\n\n        _transfer(msg.sender, _lockerAddress, amount);\n        lockedCoins[msg.sender] = lockedCoins[msg.sender].add(amount);\n        // put mark in history\n        _totalLockedSupplyHistory.push(HistoryItem(_lockedTotalSupply(), _timestamp()));\n        _lockedCoinsHistory[msg.sender].push(HistoryItem(lockedCoins[msg.sender], _timestamp()));\n        // ...\n        stakeUpdated();\n\n    }\n\n    function unstake(uint amount) external activeInflation {\n\n        require(lockedCoins[msg.sender] >= amount);\n\n        _makeInflationSnapshot();\n\n        _transfer(_lockerAddress, msg.sender, amount);\n        lockedCoins[msg.sender] = lockedCoins[msg.sender].sub(amount);\n        // put mark in history\n        _totalLockedSupplyHistory.push(HistoryItem(_lockedTotalSupply(), _timestamp()));\n        _lockedCoinsHistory[msg.sender].push(HistoryItem(lockedCoins[msg.sender], _timestamp()));\n        // ...\n        stakeUpdated();\n\n    }\n\n    function restake() external activeInflation {\n\n        require(address(_vesting) != address(0), \"CitadelTokenLocker: vesting contract undefined\");\n        \n        uint amount = _vesting.claimFor(msg.sender);\n\n        require(amount > 0);\n\n        _makeInflationSnapshot();\n        _transfer(address(1), _lockerAddress, amount);\n        \n        lockedCoins[msg.sender] = lockedCoins[msg.sender].add(amount);\n        // put mark in history\n        _totalLockedSupplyHistory.push(HistoryItem(_lockedTotalSupply(), _timestamp()));\n        _lockedCoinsHistory[msg.sender].push(HistoryItem(lockedCoins[msg.sender], _timestamp()));\n        // ...\n        stakeUpdated();\n\n    }\n\n    function stakeUpdated() internal virtual {\n        if (address(_dao) != address(0)) {\n            _dao.updatedStake(msg.sender);\n        }\n        if (address(_vesting) != address(0)) {\n            _vesting.updateSnapshot(msg.sender);\n        }\n    }\n\n    function _initCitadelTokenLocker(address lockerAddress_) internal {\n\n        require(!_isInitialized);\n\n        _isInitialized = true;\n        _lockerAddress = lockerAddress_;\n\n    }\n\n    function _lockedTotalSupply() private view returns (uint) {\n        return balanceOf(_lockerAddress);\n    }\n\n}\n",
  "sourcePath": "/home/pirat/Desktop/DAO_update/DAO/contracts/Token/CitadelTokenLocker.sol",
  "compiler": {
    "name": "solc",
    "version": "0.6.2+commit.bacdbe57.Emscripten.clang"
  },
  "schemaVersion": "3.2.5",
  "updatedAt": "2021-08-16T15:52:52.831Z",
  "devdoc": {
    "methods": {
      "allowance(address,address)": {
        "details": "See {IERC20-allowance}."
      },
      "approve(address,uint256)": {
        "details": "See {IERC20-approve}.     * Requirements:     * - `spender` cannot be the zero address."
      },
      "balanceOf(address)": {
        "details": "See {IERC20-balanceOf}."
      },
      "decimals()": {
        "details": "Returns the number of decimals used to get its user representation. For example, if `decimals` equals `2`, a balance of `505` tokens should be displayed to a user as `5,05` (`505 / 10 ** 2`).     * Tokens usually opt for a value of 18, imitating the relationship between Ether and Wei. This is the value {ERC20} uses, unless {_setupDecimals} is called.     * NOTE: This information is only used for _display_ purposes: it in no way affects any of the arithmetic of the contract, including {IERC20-balanceOf} and {IERC20-transfer}."
      },
      "decreaseAllowance(address,uint256)": {
        "details": "Atomically decreases the allowance granted to `spender` by the caller.     * This is an alternative to {approve} that can be used as a mitigation for problems described in {IERC20-approve}.     * Emits an {Approval} event indicating the updated allowance.     * Requirements:     * - `spender` cannot be the zero address. - `spender` must have allowance for the caller of at least `subtractedValue`."
      },
      "increaseAllowance(address,uint256)": {
        "details": "Atomically increases the allowance granted to `spender` by the caller.     * This is an alternative to {approve} that can be used as a mitigation for problems described in {IERC20-approve}.     * Emits an {Approval} event indicating the updated allowance.     * Requirements:     * - `spender` cannot be the zero address."
      },
      "name()": {
        "details": "Returns the name of the token."
      },
      "owner()": {
        "details": "Returns the address of the current owner."
      },
      "paused()": {
        "details": "Returns true if the contract is paused, and false otherwise."
      },
      "renounceOwnership()": {
        "details": "Leaves the contract without owner. It will not be possible to call `onlyOwner` functions anymore. Can only be called by the current owner.     * NOTE: Renouncing ownership will leave the contract without an owner, thereby removing any functionality that is only available to the owner."
      },
      "symbol()": {
        "details": "Returns the symbol of the token, usually a shorter version of the name."
      },
      "totalSupply()": {
        "details": "See {IERC20-totalSupply}."
      },
      "transfer(address,uint256)": {
        "details": "See {IERC20-transfer}.     * Requirements:     * - `recipient` cannot be the zero address. - the caller must have a balance of at least `amount`."
      },
      "transferFrom(address,address,uint256)": {
        "details": "See {IERC20-transferFrom}.     * Emits an {Approval} event indicating the updated allowance. This is not required by the EIP. See the note at the beginning of {ERC20};     * Requirements: - `sender` and `recipient` cannot be the zero address. - `sender` must have a balance of at least `amount`. - the caller must have allowance for ``sender``'s tokens of at least `amount`."
      },
      "transferOwnership(address)": {
        "details": "Transfers ownership of the contract to a new account (`newOwner`). Can only be called by the current owner."
      }
    }
  },
  "userdoc": {
    "methods": {}
  }
}