{
  "contractName": "CitadelDao",
  "abi": [
    {
      "inputs": [
        {
          "internalType": "address",
          "name": "token",
          "type": "address"
        }
      ],
      "stateMutability": "nonpayable",
      "type": "constructor"
    },
    {
      "anonymous": false,
      "inputs": [
        {
          "indexed": true,
          "internalType": "address",
          "name": "recipient",
          "type": "address"
        },
        {
          "indexed": false,
          "internalType": "uint256",
          "name": "amount",
          "type": "uint256"
        }
      ],
      "name": "ClaimStakingReward",
      "type": "event"
    },
    {
      "anonymous": false,
      "inputs": [
        {
          "indexed": true,
          "internalType": "uint256",
          "name": "issueId",
          "type": "uint256"
        },
        {
          "indexed": true,
          "internalType": "address",
          "name": "initialized",
          "type": "address"
        }
      ],
      "name": "ExecProposal",
      "type": "event"
    },
    {
      "anonymous": false,
      "inputs": [
        {
          "indexed": true,
          "internalType": "uint256",
          "name": "issueId",
          "type": "uint256"
        },
        {
          "indexed": true,
          "internalType": "address",
          "name": "creator",
          "type": "address"
        },
        {
          "indexed": true,
          "internalType": "enum Voting.ProposalType",
          "name": "votingType",
          "type": "uint8"
        },
        {
          "indexed": false,
          "internalType": "enum Voting.ProposalUpdater",
          "name": "votingUpdater",
          "type": "uint8"
        }
      ],
      "name": "NewProposal",
      "type": "event"
    },
    {
      "anonymous": false,
      "inputs": [
        {
          "indexed": true,
          "internalType": "uint256",
          "name": "issueId",
          "type": "uint256"
        },
        {
          "indexed": true,
          "internalType": "address",
          "name": "from",
          "type": "address"
        },
        {
          "indexed": true,
          "internalType": "uint256",
          "name": "option",
          "type": "uint256"
        },
        {
          "indexed": false,
          "internalType": "uint256",
          "name": "weight",
          "type": "uint256"
        }
      ],
      "name": "OnVote",
      "type": "event"
    },
    {
      "anonymous": false,
      "inputs": [
        {
          "indexed": true,
          "internalType": "address",
          "name": "previousOwner",
          "type": "address"
        },
        {
          "indexed": true,
          "internalType": "address",
          "name": "newOwner",
          "type": "address"
        }
      ],
      "name": "OwnershipTransferred",
      "type": "event"
    },
    {
      "anonymous": false,
      "inputs": [
        {
          "indexed": true,
          "internalType": "bytes32",
          "name": "role",
          "type": "bytes32"
        },
        {
          "indexed": true,
          "internalType": "bytes32",
          "name": "previousAdminRole",
          "type": "bytes32"
        },
        {
          "indexed": true,
          "internalType": "bytes32",
          "name": "newAdminRole",
          "type": "bytes32"
        }
      ],
      "name": "RoleAdminChanged",
      "type": "event"
    },
    {
      "anonymous": false,
      "inputs": [
        {
          "indexed": true,
          "internalType": "bytes32",
          "name": "role",
          "type": "bytes32"
        },
        {
          "indexed": true,
          "internalType": "address",
          "name": "account",
          "type": "address"
        },
        {
          "indexed": true,
          "internalType": "address",
          "name": "sender",
          "type": "address"
        }
      ],
      "name": "RoleGranted",
      "type": "event"
    },
    {
      "anonymous": false,
      "inputs": [
        {
          "indexed": true,
          "internalType": "bytes32",
          "name": "role",
          "type": "bytes32"
        },
        {
          "indexed": true,
          "internalType": "address",
          "name": "account",
          "type": "address"
        },
        {
          "indexed": true,
          "internalType": "address",
          "name": "sender",
          "type": "address"
        }
      ],
      "name": "RoleRevoked",
      "type": "event"
    },
    {
      "anonymous": false,
      "inputs": [
        {
          "indexed": true,
          "internalType": "enum Voting.ProposalUpdater",
          "name": "updater",
          "type": "uint8"
        },
        {
          "indexed": false,
          "internalType": "uint256",
          "name": "quorumPct",
          "type": "uint256"
        },
        {
          "indexed": false,
          "internalType": "uint256",
          "name": "supportPct",
          "type": "uint256"
        }
      ],
      "name": "UpdatedProposalConfig",
      "type": "event"
    },
    {
      "inputs": [],
      "name": "ADMIN_ROLE",
      "outputs": [
        {
          "internalType": "bytes32",
          "name": "",
          "type": "bytes32"
        }
      ],
      "stateMutability": "view",
      "type": "function"
    },
    {
      "inputs": [],
      "name": "DEFAULT_ADMIN_ROLE",
      "outputs": [
        {
          "internalType": "bytes32",
          "name": "",
          "type": "bytes32"
        }
      ],
      "stateMutability": "view",
      "type": "function"
    },
    {
      "inputs": [],
      "name": "VOTING_ROLE",
      "outputs": [
        {
          "internalType": "bytes32",
          "name": "",
          "type": "bytes32"
        }
      ],
      "stateMutability": "view",
      "type": "function"
    },
    {
      "inputs": [
        {
          "internalType": "address",
          "name": "account",
          "type": "address"
        }
      ],
      "name": "addAdmin",
      "outputs": [],
      "stateMutability": "nonpayable",
      "type": "function"
    },
    {
      "inputs": [
        {
          "internalType": "address",
          "name": "account",
          "type": "address"
        }
      ],
      "name": "availableToCreateProposals",
      "outputs": [
        {
          "internalType": "bool",
          "name": "",
          "type": "bool"
        }
      ],
      "stateMutability": "view",
      "type": "function"
    },
    {
      "inputs": [
        {
          "internalType": "uint256",
          "name": "issueId",
          "type": "uint256"
        },
        {
          "internalType": "address",
          "name": "addr",
          "type": "address"
        }
      ],
      "name": "ballotOf",
      "outputs": [
        {
          "internalType": "uint256",
          "name": "",
          "type": "uint256"
        }
      ],
      "stateMutability": "view",
      "type": "function"
    },
    {
      "inputs": [
        {
          "internalType": "uint256",
          "name": "reward",
          "type": "uint256"
        },
        {
          "internalType": "uint256",
          "name": "nonceId",
          "type": "uint256"
        },
        {
          "internalType": "bytes32",
          "name": "hash",
          "type": "bytes32"
        },
        {
          "internalType": "bytes",
          "name": "signature",
          "type": "bytes"
        }
      ],
      "name": "claimReward",
      "outputs": [
        {
          "internalType": "bool",
          "name": "",
          "type": "bool"
        }
      ],
      "stateMutability": "nonpayable",
      "type": "function"
    },
    {
      "inputs": [
        {
          "internalType": "uint256",
          "name": "issueId",
          "type": "uint256"
        }
      ],
      "name": "countOptions",
      "outputs": [
        {
          "internalType": "uint256",
          "name": "",
          "type": "uint256"
        }
      ],
      "stateMutability": "view",
      "type": "function"
    },
    {
      "inputs": [],
      "name": "countProposals",
      "outputs": [
        {
          "internalType": "uint256",
          "name": "",
          "type": "uint256"
        }
      ],
      "stateMutability": "view",
      "type": "function"
    },
    {
      "inputs": [
        {
          "internalType": "bool",
          "name": "isAvailable",
          "type": "bool"
        },
        {
          "internalType": "uint256",
          "name": "minStaked",
          "type": "uint256"
        }
      ],
      "name": "createProposalAvailability",
      "outputs": [],
      "stateMutability": "nonpayable",
      "type": "function"
    },
    {
      "inputs": [
        {
          "internalType": "address",
          "name": "creator",
          "type": "address"
        },
        {
          "internalType": "uint256",
          "name": "issueId",
          "type": "uint256"
        }
      ],
      "name": "depositedForProposal",
      "outputs": [
        {
          "internalType": "uint256",
          "name": "",
          "type": "uint256"
        }
      ],
      "stateMutability": "view",
      "type": "function"
    },
    {
      "inputs": [
        {
          "internalType": "uint256",
          "name": "issueId",
          "type": "uint256"
        }
      ],
      "name": "execProposal",
      "outputs": [],
      "stateMutability": "nonpayable",
      "type": "function"
    },
    {
      "inputs": [],
      "name": "getNewestProposal",
      "outputs": [
        {
          "internalType": "uint256",
          "name": "issueId",
          "type": "uint256"
        },
        {
          "internalType": "string",
          "name": "title",
          "type": "string"
        },
        {
          "internalType": "enum Voting.ProposalType",
          "name": "votingType",
          "type": "uint8"
        },
        {
          "internalType": "enum Voting.ProposalUpdater",
          "name": "votingUpdater",
          "type": "uint8"
        }
      ],
      "stateMutability": "view",
      "type": "function"
    },
    {
      "inputs": [
        {
          "internalType": "bytes32",
          "name": "role",
          "type": "bytes32"
        }
      ],
      "name": "getRoleAdmin",
      "outputs": [
        {
          "internalType": "bytes32",
          "name": "",
          "type": "bytes32"
        }
      ],
      "stateMutability": "view",
      "type": "function"
    },
    {
      "inputs": [
        {
          "internalType": "bytes32",
          "name": "role",
          "type": "bytes32"
        },
        {
          "internalType": "uint256",
          "name": "index",
          "type": "uint256"
        }
      ],
      "name": "getRoleMember",
      "outputs": [
        {
          "internalType": "address",
          "name": "",
          "type": "address"
        }
      ],
      "stateMutability": "view",
      "type": "function"
    },
    {
      "inputs": [
        {
          "internalType": "bytes32",
          "name": "role",
          "type": "bytes32"
        }
      ],
      "name": "getRoleMemberCount",
      "outputs": [
        {
          "internalType": "uint256",
          "name": "",
          "type": "uint256"
        }
      ],
      "stateMutability": "view",
      "type": "function"
    },
    {
      "inputs": [
        {
          "internalType": "bytes32",
          "name": "role",
          "type": "bytes32"
        },
        {
          "internalType": "address",
          "name": "account",
          "type": "address"
        }
      ],
      "name": "grantRole",
      "outputs": [],
      "stateMutability": "nonpayable",
      "type": "function"
    },
    {
      "inputs": [
        {
          "internalType": "bytes32",
          "name": "role",
          "type": "bytes32"
        },
        {
          "internalType": "address",
          "name": "account",
          "type": "address"
        }
      ],
      "name": "hasRole",
      "outputs": [
        {
          "internalType": "bool",
          "name": "",
          "type": "bool"
        }
      ],
      "stateMutability": "view",
      "type": "function"
    },
    {
      "inputs": [],
      "name": "isOpenProposals",
      "outputs": [
        {
          "internalType": "bool",
          "name": "",
          "type": "bool"
        }
      ],
      "stateMutability": "view",
      "type": "function"
    },
    {
      "inputs": [
        {
          "internalType": "uint256",
          "name": "issueId",
          "type": "uint256"
        }
      ],
      "name": "issueDescription",
      "outputs": [
        {
          "internalType": "string",
          "name": "",
          "type": "string"
        }
      ],
      "stateMutability": "view",
      "type": "function"
    },
    {
      "inputs": [],
      "name": "minAmountToCreate",
      "outputs": [
        {
          "internalType": "uint256",
          "name": "",
          "type": "uint256"
        }
      ],
      "stateMutability": "view",
      "type": "function"
    },
    {
      "inputs": [
        {
          "internalType": "string",
          "name": "title",
          "type": "string"
        },
        {
          "internalType": "string",
          "name": "description",
          "type": "string"
        },
        {
          "internalType": "uint256",
          "name": "expiryTime",
          "type": "uint256"
        },
        {
          "internalType": "string[]",
          "name": "options",
          "type": "string[]"
        },
        {
          "internalType": "enum Voting.ProposalUpdater",
          "name": "votingUpdater",
          "type": "uint8"
        }
      ],
      "name": "newMultiProposal",
      "outputs": [],
      "stateMutability": "nonpayable",
      "type": "function"
    },
    {
      "inputs": [
        {
          "internalType": "string",
          "name": "title",
          "type": "string"
        },
        {
          "internalType": "string",
          "name": "description",
          "type": "string"
        },
        {
          "internalType": "uint256",
          "name": "expiryTime",
          "type": "uint256"
        },
        {
          "internalType": "string",
          "name": "updateData",
          "type": "string"
        },
        {
          "internalType": "enum Voting.ProposalUpdater",
          "name": "votingUpdater",
          "type": "uint8"
        }
      ],
      "name": "newProposal",
      "outputs": [],
      "stateMutability": "nonpayable",
      "type": "function"
    },
    {
      "inputs": [
        {
          "internalType": "uint256",
          "name": "issueId",
          "type": "uint256"
        },
        {
          "internalType": "uint256",
          "name": "option",
          "type": "uint256"
        }
      ],
      "name": "optionInfo",
      "outputs": [
        {
          "internalType": "string",
          "name": "name",
          "type": "string"
        },
        {
          "internalType": "uint256",
          "name": "count",
          "type": "uint256"
        },
        {
          "internalType": "uint256",
          "name": "weight",
          "type": "uint256"
        }
      ],
      "stateMutability": "view",
      "type": "function"
    },
    {
      "inputs": [
        {
          "internalType": "uint256",
          "name": "issueId",
          "type": "uint256"
        },
        {
          "internalType": "uint256",
          "name": "option",
          "type": "uint256"
        }
      ],
      "name": "optionName",
      "outputs": [
        {
          "internalType": "string",
          "name": "",
          "type": "string"
        }
      ],
      "stateMutability": "view",
      "type": "function"
    },
    {
      "inputs": [],
      "name": "owner",
      "outputs": [
        {
          "internalType": "address",
          "name": "",
          "type": "address"
        }
      ],
      "stateMutability": "view",
      "type": "function"
    },
    {
      "inputs": [
        {
          "internalType": "string",
          "name": "_value",
          "type": "string"
        }
      ],
      "name": "parseInt",
      "outputs": [
        {
          "internalType": "uint256",
          "name": "_ret",
          "type": "uint256"
        }
      ],
      "stateMutability": "pure",
      "type": "function"
    },
    {
      "inputs": [
        {
          "internalType": "uint256",
          "name": "issueId",
          "type": "uint256"
        }
      ],
      "name": "proposalConfig",
      "outputs": [
        {
          "internalType": "address",
          "name": "creator",
          "type": "address"
        },
        {
          "internalType": "uint256",
          "name": "quorumPct",
          "type": "uint256"
        },
        {
          "internalType": "uint256",
          "name": "supportPct",
          "type": "uint256"
        },
        {
          "internalType": "uint256",
          "name": "voters",
          "type": "uint256"
        },
        {
          "internalType": "string",
          "name": "updateData",
          "type": "string"
        },
        {
          "internalType": "bool",
          "name": "executed",
          "type": "bool"
        }
      ],
      "stateMutability": "view",
      "type": "function"
    },
    {
      "inputs": [
        {
          "internalType": "enum Voting.ProposalUpdater",
          "name": "conf",
          "type": "uint8"
        }
      ],
      "name": "proposalConfigRates",
      "outputs": [
        {
          "internalType": "uint256",
          "name": "quorumPct",
          "type": "uint256"
        },
        {
          "internalType": "uint256",
          "name": "supportPct",
          "type": "uint256"
        }
      ],
      "stateMutability": "view",
      "type": "function"
    },
    {
      "inputs": [
        {
          "internalType": "uint256",
          "name": "issueId",
          "type": "uint256"
        }
      ],
      "name": "proposalInfo",
      "outputs": [
        {
          "internalType": "string",
          "name": "title",
          "type": "string"
        },
        {
          "internalType": "enum Voting.ProposalType",
          "name": "votingType",
          "type": "uint8"
        },
        {
          "internalType": "enum Voting.ProposalUpdater",
          "name": "votingUpdater",
          "type": "uint8"
        },
        {
          "internalType": "uint256",
          "name": "nay",
          "type": "uint256"
        },
        {
          "internalType": "uint256",
          "name": "yea",
          "type": "uint256"
        },
        {
          "internalType": "bool",
          "name": "hasQuorum",
          "type": "bool"
        },
        {
          "internalType": "bool",
          "name": "accepted",
          "type": "bool"
        },
        {
          "internalType": "uint256",
          "name": "expiryTime",
          "type": "uint256"
        }
      ],
      "stateMutability": "view",
      "type": "function"
    },
    {
      "inputs": [
        {
          "internalType": "uint256",
          "name": "issueId",
          "type": "uint256"
        }
      ],
      "name": "redeemDepositFromProposal",
      "outputs": [],
      "stateMutability": "nonpayable",
      "type": "function"
    },
    {
      "inputs": [],
      "name": "renounceOwnership",
      "outputs": [],
      "stateMutability": "nonpayable",
      "type": "function"
    },
    {
      "inputs": [
        {
          "internalType": "bytes32",
          "name": "role",
          "type": "bytes32"
        },
        {
          "internalType": "address",
          "name": "account",
          "type": "address"
        }
      ],
      "name": "renounceRole",
      "outputs": [],
      "stateMutability": "nonpayable",
      "type": "function"
    },
    {
      "inputs": [
        {
          "internalType": "bytes32",
          "name": "role",
          "type": "bytes32"
        },
        {
          "internalType": "address",
          "name": "account",
          "type": "address"
        }
      ],
      "name": "revokeRole",
      "outputs": [],
      "stateMutability": "nonpayable",
      "type": "function"
    },
    {
      "inputs": [
        {
          "internalType": "address",
          "name": "rewardAddress",
          "type": "address"
        }
      ],
      "name": "setRewardAddress",
      "outputs": [],
      "stateMutability": "nonpayable",
      "type": "function"
    },
    {
      "inputs": [
        {
          "internalType": "address",
          "name": "newOwner",
          "type": "address"
        }
      ],
      "name": "transferOwnership",
      "outputs": [],
      "stateMutability": "nonpayable",
      "type": "function"
    },
    {
      "inputs": [
        {
          "internalType": "address",
          "name": "holder",
          "type": "address"
        }
      ],
      "name": "updatedStake",
      "outputs": [],
      "stateMutability": "nonpayable",
      "type": "function"
    },
    {
      "inputs": [
        {
          "internalType": "enum Voting.ProposalUpdater",
          "name": "votingUpdater",
          "type": "uint8"
        },
        {
          "internalType": "string",
          "name": "updateData",
          "type": "string"
        }
      ],
      "name": "updaterValidateData",
      "outputs": [
        {
          "internalType": "bool",
          "name": "",
          "type": "bool"
        }
      ],
      "stateMutability": "pure",
      "type": "function"
    },
    {
      "inputs": [
        {
          "internalType": "uint256",
          "name": "issueId",
          "type": "uint256"
        },
        {
          "internalType": "bytes4",
          "name": "option",
          "type": "bytes4"
        }
      ],
      "name": "vote",
      "outputs": [
        {
          "internalType": "bool",
          "name": "",
          "type": "bool"
        }
      ],
      "stateMutability": "nonpayable",
      "type": "function"
    },
    {
      "inputs": [
        {
          "internalType": "uint256",
          "name": "issueId",
          "type": "uint256"
        },
        {
          "internalType": "uint256",
          "name": "option",
          "type": "uint256"
        }
      ],
      "name": "vote",
      "outputs": [
        {
          "internalType": "bool",
          "name": "",
          "type": "bool"
        }
      ],
      "stateMutability": "nonpayable",
      "type": "function"
    },
    {
      "inputs": [
        {
          "internalType": "uint256",
          "name": "issueId",
          "type": "uint256"
        },
        {
          "internalType": "address",
          "name": "addr",
          "type": "address"
        }
      ],
      "name": "weightOf",
      "outputs": [
        {
          "internalType": "uint256",
          "name": "",
          "type": "uint256"
        }
      ],
      "stateMutability": "view",
      "type": "function"
    },
    {
      "inputs": [
        {
          "internalType": "uint256",
          "name": "issueId",
          "type": "uint256"
        },
        {
          "internalType": "uint256",
          "name": "option",
          "type": "uint256"
        }
      ],
      "name": "weightedVoteCountsOf",
      "outputs": [
        {
          "internalType": "uint256",
          "name": "",
          "type": "uint256"
        }
      ],
      "stateMutability": "view",
      "type": "function"
    },
    {
      "inputs": [],
      "name": "version",
      "outputs": [
        {
          "internalType": "string",
          "name": "",
          "type": "string"
        }
      ],
      "stateMutability": "pure",
      "type": "function"
    }
  ],
  "bytecode": "0x60806040526402540be4006003553480156200001a57600080fd5b5060405162005d3c38038062005d3c8339810160408190526200003d916200044d565b6000620000526001600160e01b03620003f716565b600080546001600160a01b0319166001600160a01b0383169081178255604051929350917f8be0079c531659141344cd1fd0a4f28419497f9722a3daafe3b4186f6b6457e0908290a350620000dc604051620000ae9062000494565b6040518091039020604051620000c49062000494565b6040519081900390206001600160e01b03620003fb16565b620000ee604051620000ae906200047d565b604080518082018252614e2080825261c35160208084018281526000808052600490925293517f17ef568e3e12ab5b9c7254a8d58478811de00f9e6eb34345acd53bf8fd09d3ec5592517f17ef568e3e12ab5b9c7254a8d58478811de00f9e6eb34345acd53bf8fd09d3ed5592519092919060008051602062005d1c83398151915290620001809085908590620004aa565b60405180910390a2604080518082018252838152602080820184815260016000819052600490925291517fabd6e7cb50984ff9c2f3e18a2660c3353dadf4e3291deeb275dae2cd1e44fe055590517fabd6e7cb50984ff9c2f3e18a2660c3353dadf4e3291deeb275dae2cd1e44fe0655905160008051602062005d1c83398151915290620002129085908590620004aa565b60405180910390a2604080518082018252838152602080820184815260026000819052600490925291517f91da3fd0782e51c6b3986e9e672fd566868e71f3dbc2d6c2cd6fbb3e361af2a75590517f91da3fd0782e51c6b3986e9e672fd566868e71f3dbc2d6c2cd6fbb3e361af2a855905160008051602062005d1c83398151915290620002a49085908590620004aa565b60405180910390a2604080518082018252838152602080820184815260036000819052600490925291517f2e174c10e159ea99b867ce3205125c24a42d128804e4070ed6fcc8cc98166aa05590517f2e174c10e159ea99b867ce3205125c24a42d128804e4070ed6fcc8cc98166aa155905160008051602062005d1c83398151915290620003369085908590620004aa565b60405180910390a26040805180820182528381526020808201848152600460008190529182905291517f1a1e6821cde7d0159c0d293177871e09677b4e42307c7db3ba94f8648a5a050f5590517f1a1e6821cde7d0159c0d293177871e09677b4e42307c7db3ba94f8648a5a051055905160008051602062005d1c83398151915290620003c79085908590620004aa565b60405180910390a25050600280546001600160a01b0319166001600160a01b0392909216919091179055620004b8565b3390565b600082815260016020526040808220600201549051839285917fbd79b86ffe0ab8e8776151514217cd7cacd52c909f66475c3af44e129f0b00ff9190a460009182526001602052604090912060020155565b6000602082840312156200045f578081fd5b81516001600160a01b038116811462000476578182fd5b9392505050565b6a564f54494e475f524f4c4560a81b8152600b0190565b6941444d494e5f524f4c4560b01b8152600a0190565b918252602082015260400190565b61585480620004c86000396000f3fe608060405234801561001057600080fd5b50600436106102685760003560e01c8063715018a611610151578063a217fddf116100c3578063e0136a7911610087578063e0136a7914610548578063eaac697a14610560578063f0464a2b14610573578063f2fde38b14610586578063f3da049e14610599578063f6621dc3146105a157610268565b8063a217fddf146104e0578063ae092e89146104e8578063b384abef1461050f578063ca15c87314610522578063d547741f1461053557610268565b80638e0a1372116101155780638e0a13721461046e5780639010d07c1461048157806391d1485414610494578063933c1306146104a75780639d91cf9a146104ba578063a1629f92146104cd57610268565b8063715018a61461042e57806375b238fc14610436578063761bbd8a1461043e5780638935ced5146104465780638da5cb5b1461045957610268565b80634883a6a8116101ea57806354fd4d50116101ae57806354fd4d50146103c75780635e00e679146103cf5780636e6a1dc3146103e25780636f963fa1146103f5578063704802751461040857806370c88f301461041b57610268565b80634883a6a8146103595780634ba241d81461036c5780634c461f5a1461038e57806350381451146103a157806353c2d479146103b457610268565b806331aab8881161023157806331aab888146102f357806332ec991c1461031857806336568abe1461032b57806342346c5e1461033e57806346c6211e1461035157610268565b8062fe1bff1461026d57806312a70f0b146102965780631e01a172146102ab578063248a9ca3146102cb5780632f2ff15d146102de575b600080fd5b61028061027b366004614b74565b6105c2565b60405161028d9190614f75565b60405180910390f35b61029e610851565b60405161028d9190614f80565b6102be6102b9366004614ae6565b610868565b60405161028d9190614fbb565b61029e6102d9366004614ae6565b610946565b6102f16102ec366004614afe565b61095e565b005b610306610301366004614ae6565b6109a6565b60405161028d96959493929190614f2d565b61029e610326366004614da3565b6109f2565b6102f1610339366004614afe565b610a51565b61029e61034c366004614d50565b610a93565b61029e610b22565b610280610367366004614dcf565b610b29565b61037f61037a366004614b38565b610c15565b60405161028d93929190615030565b6102f161039c366004614ac5565b610d4d565b6102f16103af366004614c9d565b610dbd565b6102f16103c2366004614bc2565b611457565b6102be611ba5565b6102f16103dd366004614a80565b611bc4565b61029e6103f0366004614b38565b611c1b565b610280610403366004614a80565b611c84565b6102f1610416366004614a80565b611d77565b6102f1610429366004614a80565b611dcc565b6102f16121a8565b61029e612227565b61029e612233565b61029e610454366004614da3565b612239565b610461612294565b60405161028d9190614f00565b61028061047c366004614dff565b6122a3565b61046161048f366004614b38565b6123f6565b6102806104a2366004614afe565b61241b565b6102f16104b5366004614ae6565b612439565b61029e6104c8366004614a9b565b612a9f565b6102f16104db366004614ae6565b612ac7565b61029e612bef565b6104fb6104f6366004614ae6565b612bf4565b60405161028d989796959493929190614fce565b61028061051d366004614b38565b612c58565b61029e610530366004614ae6565b613066565b6102f1610543366004614afe565b61307d565b6105506130b7565b60405161028d94939291906157ad565b6102be61056e366004614b38565b613184565b61029e610581366004614ae6565b6132a3565b6102f1610594366004614a80565b6132eb565b6102806133a1565b6105b46105af366004614b59565b6133b1565b60405161028d9291906157ef565b6000808360048111156105d157fe5b14156105df5750600161084b565b60018360048111156105ed57fe5b141561061a5760006105fe83610a93565b905060c881101580156106125750610bb881105b91505061084b565b600283600481111561062857fe5b141561065257600061063983610a93565b9050600a81101580156106125750605a1015905061084b565b600383600481111561066057fe5b141561067c57600061067183610a93565b1515915061084b9050565b600483600481111561068a57fe5b14156108475781518290600d146106a057600080fd5b604080516001808252818301909252606091602082018180388339505060408051600680825281830190925292935060609291506020820181803883395050604080516006808252818301909252929350606092915060208201818038833901905050905060005b84518110156107d057600181101561075b578460008151811061072757fe5b602001015160f81c60f81b8460008151811061073f57fe5b60200101906001600160f81b031916908160001a9053506107c8565b600781101561078a5784818151811061077057fe5b602001015160f81c60f81b83600183038151811061073f57fe5b84818151811061079657fe5b602001015160f81c60f81b8260078303815181106107b057fe5b60200101906001600160f81b031916908160001a9053505b600101610708565b5060006107dc83610a93565b905060006107e983610a93565b9050600080831180156107ff5750620186a08311155b905080801561080e5750600082115b801561081d5750620186a08211155b90508080156108385750600461083287610a93565b60ff1611155b975061084b9650505050505050565b5060005b92915050565b60405161085d90614ed3565b604051809103902081565b60608160008111801561087d57506009548111155b6108a25760405162461bcd60e51b815260040161089990615294565b60405180910390fd5b6000838152600560209081526040918290206002908101805484516001821615610100026000190190911692909204601f8101849004840283018401909452838252909290918301828280156109395780601f1061090e57610100808354040283529160200191610939565b820191906000526020600020905b81548152906001019060200180831161091c57829003601f168201915b5050505050915050919050565b6000818152600160205260409020600201545b919050565b60008281526001602052604090206002015461097c906104a261340d565b6109985760405162461bcd60e51b8152600401610899906150ce565b6109a28282613411565b5050565b600080600080606060006109b8614708565b6109c188613480565b8051602082015160408301516060840151608085015160a090950151939d929c50909a509850919650945092505050565b600082600081118015610a0757506009548111155b610a235760405162461bcd60e51b815260040161089990615294565b6001600160a01b038316600090815260076020908152604080832087845290915290205491505b5092915050565b610a5961340d565b6001600160a01b0316816001600160a01b031614610a895760405162461bcd60e51b81526004016108999061571d565b6109a282826138b7565b80516000908290600190600019015b8251811015610b1a576030838281518110610ab957fe5b016020015160f81c10801590610ae357506039838281518110610ad857fe5b016020015160f81c11155b610ae957fe5b816030848381518110610af857fe5b016020015160f81c0360ff16029390930192600a919091029060001901610aa2565b505050919050565b6003545b90565b600082600081118015610b3e57506009548111155b610b5a5760405162461bcd60e51b815260040161089990615294565b6279656160e81b626e617960e81b6001600160e01b03198516821480610b8c57506001600160e01b0319858116908216145b610ba85760405162461bcd60e51b81526004016108999061576c565b60008681526005602052604081206003015460ff166001811115610bc857fe5b14610be55760405162461bcd60e51b81526004016108999061533f565b60006001600160e01b03198681169084161415610c00575060015b610c0a8782613926565b979650505050505050565b606060008084600081118015610c2d57506009548111155b610c495760405162461bcd60e51b815260040161089990615294565b6000868152600560205260409020600801548510610c795760405162461bcd60e51b8152600401610899906154b9565b6000868152600560205260408120600801805487908110610c9657fe5b60009182526020918290206003919091020180546040805160026001841615610100026000190190931692909204601f810185900485028301850190915280825291935091839190830182828015610d2f5780601f10610d0457610100808354040283529160200191610d2f565b820191906000526020600020905b815481529060010190602001808311610d1257829003601f168201915b50505050509450806001015493508060020154925050509250925092565b610d6a604051610d5c90614ed3565b60405180910390203361241b565b80610d7f5750610d7f604051610d5c90614eea565b610d9b5760405162461bcd60e51b815260040161089990615667565b60028054921515600160a01b0260ff60a01b1990931692909217909155600355565b610dcc604051610d5c90614ed3565b80610de15750610de1604051610d5c90614eea565b156110bd5786610e035760405162461bcd60e51b8152600401610899906156a9565b610e0b613c4d565b8411610e295760405162461bcd60e51b81526004016108999061518b565b6009805460010190819055610e3d90613c51565b6009546000908152600560205260409020610e56614749565b60046000846004811115610e6657fe5b60ff16815260208082019290925260409081016000208151808301909252805482526001908101549282019290925283546001600160a01b031916331784559150610eb49083018b8b614763565b50610ec3600283018989614763565b5080516005830155602081015160078301556009820186905560038201805460ff198116825584919061ffff1916610100836004811115610f0057fe5b02179055506000836004811115610f1357fe5b14610f8457610f588386868080601f0160208091040260200160405190810160405280939291908181526020018383808284376000920191909152506105c292505050565b610f745760405162461bcd60e51b815260040161089990615440565b610f82600483018686614763565b505b6040805160a081018252600360608201818152626e617960e81b608084015282526000602080840182905293830181905260088601805460018101825590825290849020835180519495929093020192610fe192849201906147e1565b50602082810151600180840191909155604093840151600290930192909255825160a0810184526003606082018181526279656160e81b60808401528252600082840181905294820185905260088701805494850181558552938290208151805192959490940201926110589284929101906147e1565b506020820151600182015560409091015160029091015560005b336001600160a01b03166009547f22910aa3d36b7721f45dfd4a366dd228fb8e9f8b0752b5cf6557acba94d2edd9866040516110ae9190614fa7565b60405180910390a4505061144d565b600254600160a01b900460ff1615611435576002546040516370a0823160e01b81526000916001600160a01b0316906370a0823190611100903390600401614f00565b60206040518083038186803b15801561111857600080fd5b505afa15801561112c573d6000803e3d6000fd5b505050506040513d601f19601f820116820180604052506111509190810190614d8b565b9050600354811061143357876111785760405162461bcd60e51b8152600401610899906156a9565b611180613c4d565b851161119e5760405162461bcd60e51b81526004016108999061518b565b60098054600101908190556111b290613c51565b60095460009081526005602052604090206111cb614749565b600460008560048111156111db57fe5b60ff16815260208082019290925260409081016000208151808301909252805482526001908101549282019290925283546001600160a01b0319163317845591506112299083018c8c614763565b50611238600283018a8a614763565b5080516005830155602081015160078301556009820187905560038201805460ff198116825585919061ffff191661010083600481111561127557fe5b0217905550600084600481111561128857fe5b146112f9576112cd8487878080601f0160208091040260200160405190810160405280939291908181526020018383808284376000920191909152506105c292505050565b6112e95760405162461bcd60e51b815260040161089990615440565b6112f7600483018787614763565b505b6040805160a081018252600360608201818152626e617960e81b60808401528252600060208084018290529383018190526008860180546001810182559082529084902083518051949592909302019261135692849201906147e1565b50602082810151600180840191909155604093840151600290930192909255825160a0810184526003606082018181526279656160e81b60808401528252600082840181905294820185905260088701805494850181558552938290208151805192959490940201926113cd9284929101906147e1565b506020820151600182015560409091015160029091015560005b336001600160a01b03166009547f22910aa3d36b7721f45dfd4a366dd228fb8e9f8b0752b5cf6557acba94d2edd9876040516114239190614fa7565b60405180910390a450505061144d565b505b60405162461bcd60e51b815260040161089990615667565b5050505050505050565b611466604051610d5c90614ed3565b8061147b575061147b604051610d5c90614eea565b15611806578661149d5760405162461bcd60e51b8152600401610899906156a9565b6114a5613c4d565b84116114c35760405162461bcd60e51b81526004016108999061518b565b600182116114e35760405162461bcd60e51b815260040161089990615250565b60098054600101908190556114f790613c51565b6009546000908152600560205260409020611510614749565b6004600084600481111561152057fe5b60ff16815260208082019290925260409081016000208151808301909252805482526001908101549282019290925283546001600160a01b03191633178455915061156e9083018b8b614763565b5061157d600283018989614763565b5080516005830155602081015160078301556009820186905560038201805460ff191660011780825584919061ff0019166101008360048111156115bd57fe5b02179055506040805160a081018252600460608201908152630536b69760e41b60808301528152600060208083018290529282018190526008850180546001810182559082529083902082518051939460039093029091019261162392849201906147e1565b506020820151600182015560409091015160029091015560005b848110156117fe57600084600481111561165357fe5b14611709576116ed8487878481811061166857fe5b602002820190508035601e193684900301811261168457600080fd5b9091016020810191503567ffffffffffffffff8111156116a357600080fd5b368190038213156116b357600080fd5b8080601f0160208091040260200160405190810160405280939291908181526020018383808284376000920191909152506105c292505050565b6117095760405162461bcd60e51b815260040161089990615440565b82600801604051806060016040528088888581811061172457fe5b602002820190508035601e193684900301811261174057600080fd5b9091016020810191503567ffffffffffffffff81111561175f57600080fd5b3681900382131561176f57600080fd5b8080601f0160208091040260200160405190810160405280939291908181526020018383808284376000920182905250938552505050602080830182905260409092018190528354600181018555938152819020825180519394600302909101926117dd92849201906147e1565b5060208201516001808301919091556040909201516002909101550161163d565b506001611072565b600254600160a01b900460ff1615611435576002546040516370a0823160e01b81526000916001600160a01b0316906370a0823190611849903390600401614f00565b60206040518083038186803b15801561186157600080fd5b505afa158015611875573d6000803e3d6000fd5b505050506040513d601f19601f820116820180604052506118999190810190614d8b565b9050600354811061143357876118c15760405162461bcd60e51b8152600401610899906156a9565b6118c9613c4d565b85116118e75760405162461bcd60e51b81526004016108999061518b565b600183116119075760405162461bcd60e51b815260040161089990615250565b600980546001019081905561191b90613c51565b6009546000908152600560205260409020611934614749565b6004600085600481111561194457fe5b60ff16815260208082019290925260409081016000208151808301909252805482526001908101549282019290925283546001600160a01b0319163317845591506119929083018c8c614763565b506119a1600283018a8a614763565b5080516005830155602081015160078301556009820187905560038201805460ff191660011780825585919061ff0019166101008360048111156119e157fe5b02179055506040805160a081018252600460608201908152630536b69760e41b608083015281526000602080830182905292820181905260088501805460018101825590825290839020825180519394600390930290910192611a4792849201906147e1565b506020820151600182015560409091015160029091015560005b85811015611b9d576000856004811115611a7757fe5b14611aa857611a8c8588888481811061166857fe5b611aa85760405162461bcd60e51b815260040161089990615440565b826008016040518060600160405280898985818110611ac357fe5b602002820190508035601e1936849003018112611adf57600080fd5b9091016020810191503567ffffffffffffffff811115611afe57600080fd5b36819003821315611b0e57600080fd5b8080601f016020809104026020016040519081016040528093929190818152602001838380828437600092018290525093855250505060208083018290526040909201819052835460018101855593815281902082518051939460030290910192611b7c92849201906147e1565b50602082015160018083019190915560409092015160029091015501611a61565b5060016113e7565b6040805180820190915260058152640312e302e360dc1b602082015290565b611bcc61340d565b6000546001600160a01b03908116911614611bf95760405162461bcd60e51b8152600401610899906155b2565b600a80546001600160a01b0319166001600160a01b0392909216919091179055565b600082600081118015611c3057506009548111155b611c4c5760405162461bcd60e51b815260040161089990615294565b6000848152600560205260409020600801805484908110611c6957fe5b90600052602060002090600302016001015491505092915050565b6000611ca3604051611c9590614ed3565b60405180910390208361241b565b80611cb85750611cb8604051611c9590614eea565b15611cc557506001610959565b600254600160a01b900460ff1615611d6f57600254604051632c9aab9b60e11b81526000916001600160a01b031690635935573690611d08908690600401614f00565b60206040518083038186803b158015611d2057600080fd5b505afa158015611d34573d6000803e3d6000fd5b505050506040513d601f19601f82011682018060405250611d589190810190614d8b565b90506003548110611d6d576001915050610959565b505b506000919050565b611d7f61340d565b6000546001600160a01b03908116911614611dac5760405162461bcd60e51b8152600401610899906155b2565b611dc9604051611dbb90614eea565b604051809103902082610998565b50565b6002546001600160a01b03163314611de357600080fd5b6001600160a01b038116600090815260086020908152604091829020805483518184028101840190945280845260609392830182828015611e4357602002820191906000526020600020905b815481526020019060010190808311611e2f575b50505050509050805160001415611e5a5750611dc9565b6002546040805163ca5c7b9160e01b815290516000926001600160a01b03169163ca5c7b91916004808301926020929190829003018186803b158015611e9f57600080fd5b505afa158015611eb3573d6000803e3d6000fd5b505050506040513d601f19601f82011682018060405250611ed79190810190614d8b565b600254604051632c9aab9b60e11b81529192506000916001600160a01b0390911690635935573690611f0d908790600401614f00565b60206040518083038186803b158015611f2557600080fd5b505afa158015611f39573d6000803e3d6000fd5b505050506040513d601f19601f82011682018060405250611f5d9190810190614d8b565b905060606000805b8551811015612175576000868281518110611f7c57fe5b602002602001015190506000600560008381526020019081526020016000209050611fa5613c4d565b81600901541015611fb757505061216d565b6001600160a01b038916600090815260076020908152604080832085845290915290208661209857600b82018054600019019055600181018054600a84018054919091039055548154600884018054909190811061201157fe5b9060005260206000209060030201600201600082825403925050819055508160080181600001548154811061204257fe5b6000918252602082206001600390920201810180546000190190558201556005820154600a8301548990620186a0028161207857fe5b6006909401805460ff1916919094049190911015179091555061216d9050565b86816001015411156120de5786816001015403826008018260000154815481106120be57fe5b600091825260209091206002600390920201018054919091039055612113565b80600101548703826008018260000154815481106120f857fe5b60009182526020909120600260039092020101805490910190555b600181018790556005820154600a8301548990620186a0028161213257fe5b60068501805460ff19169290910492909210151790558551839087908790811061215857fe5b60209081029190910101525050600190920191505b600101611f65565b506001600160a01b0386166000908152600860209081526040909120835161219f9285019061484f565b50505050505050565b6121b061340d565b6000546001600160a01b039081169116146121dd5760405162461bcd60e51b8152600401610899906155b2565b600080546040516001600160a01b03909116907f8be0079c531659141344cd1fd0a4f28419497f9722a3daafe3b4186f6b6457e0908390a3600080546001600160a01b0319169055565b60405161085d90614eea565b60095490565b60008260008111801561224e57506009548111155b61226a5760405162461bcd60e51b815260040161089990615294565b50506001600160a01b03166000908152600760209081526040808320938352929052206001015490565b6000546001600160a01b031690565b336000908152600b602052604081205485146122d15760405162461bcd60e51b81526004016108999061511d565b61231386868686868080601f016020809104026020016040519081016040528093929190818152602001838380828437600092019190915250613d0692505050565b61232f5760405162461bcd60e51b8152600401610899906153be565b336000818152600b60205260409081902080546001019055600254905163f3fef3a360e01b81526001600160a01b039091169163f3fef3a39161237791908a90600401614f14565b600060405180830381600087803b15801561239157600080fd5b505af11580156123a5573d6000803e3d6000fd5b50505050336001600160a01b03167fb52d0e0c45bba15833f7d429ccdcc4c2bfa8eea764774706120027b76734a44f876040516123e29190614f80565b60405180910390a250600195945050505050565b6000828152600160205260408120612414908363ffffffff613d7f16565b9392505050565b6000828152600160205260408120612414908363ffffffff613d8b16565b612441614889565b61244a82613da0565b9050612454614708565b61245d83613480565b80519091506001600160a01b03163314806124825750612482604051610d5c90614ed3565b806124975750612497604051610d5c90614eea565b6124b35760405162461bcd60e51b815260040161089990615667565b6000826040015160048111156124c557fe5b14156124e35760405162461bcd60e51b8152600401610899906156d6565b6124eb613c4d565b8260e001511061250d5760405162461bcd60e51b8152600401610899906155e7565b60008260200151600181111561251f57fe5b1415612546578160c001516125465760405162461bcd60e51b8152600401610899906152fa565b8060a00151156125685760405162461bcd60e51b815260040161089990615539565b606060018360200151600181111561257c57fe5b14156127ab5760008080805b6000888152600560205260409020600801548110156126c1576125a96148d3565b60008981526005602052604090206008018054839081106125c657fe5b600091825260209182902060408051600393909302909101805460026001821615610100026000190190911604601f81018590049094028301608090810190925260608301848152929390928492909184918401828280156126695780601f1061263e57610100808354040283529160200191612669565b820191906000526020600020905b81548152906001019060200180831161264c57829003601f168201915b5050505050815260200160018201548152602001600282015481525050905083816040015111156126a75781945080604001519350600092506126b8565b83816040015114156126b857600192505b50600101612588565b50801580156126d05750600083115b6126ec5760405162461bcd60e51b815260040161089990615219565b600087815260056020526040902060080180548490811061270957fe5b6000918252602091829020600390910201805460408051601f600260001961010060018716150201909416939093049283018590048502810185019091528181529283018282801561279c5780601f106127715761010080835404028352916020019161279c565b820191906000526020600020905b81548152906001019060200180831161277f57829003601f168201915b505050505093505050506127b2565b5060808101515b6001836040015160048111156127c457fe5b1415612839576002546001600160a01b031663c108a402856127e584610a93565b6040518363ffffffff1660e01b81526004016128029291906157ef565b600060405180830381600087803b15801561281c57600080fd5b505af1158015612830573d6000803e3d6000fd5b50505050612a53565b60028360400151600481111561284b57fe5b141561286c576002546001600160a01b031663ac3cd7c6856127e584610a93565b60038360400151600481111561287e57fe5b14156128955761288d81610a93565b600355612a53565b6004836040015160048111156128a757fe5b1415612a535760408051600180825281830190925282916060919060208201818038833950506040805160068082528183019092529293506060929150602082018180388339505060408051600680825281830190925292935060609291506020820181803883390190505090508351600d1461292357600080fd5b60005b84518110156129ee576001811015612979578460008151811061294557fe5b602001015160f81c60f81b8460008151811061295d57fe5b60200101906001600160f81b031916908160001a9053506129e6565b60078110156129a85784818151811061298e57fe5b602001015160f81c60f81b83600183038151811061295d57fe5b8481815181106129b457fe5b602001015160f81c60f81b8260078303815181106129ce57fe5b60200101906001600160f81b031916908160001a9053505b600101612926565b5060006129fa83610a93565b90506000612a0783610a93565b905060405180604001604052808381526020018281525060046000612a2b88610a93565b60ff168152602080820192909252604001600020825181559101516001909101555050505050505b600084815260056020526040808220600c01805460ff1916600117905551339186917f3776071a1b606e078d8aec141249d4c30abe813f5e6752afe84d0c6a25f1388b9190a350505050565b6001600160a01b03919091166000908152600660209081526040808320938352929052205490565b80600081118015612ada57506009548111155b612af65760405162461bcd60e51b815260040161089990615294565b612afe614889565b612b0783613da0565b9050612b11614708565b612b1a84613480565b80519091506001600160a01b03163314612b465760405162461bcd60e51b815260040161089990615667565b612b4e613c4d565b8260e0015110612b705760405162461bcd60e51b8152600401610899906155e7565b600082602001516001811115612b8257fe5b1415612ba9578160c00151612ba95760405162461bcd60e51b8152600401610899906152fa565b336000908152600660209081526040808320878452909152902054612be05760405162461bcd60e51b8152600401610899906152cb565b612be98461436a565b50505050565b600081565b60606000806000806000806000612c09614889565b612c128a613da0565b905080600001519850806020015197508060400151965080606001519550806080015194508060a0015193508060c0015192508060e00151915050919395975091939597565b600082600081118015612c6d57506009548111155b612c895760405162461bcd60e51b815260040161089990615294565b612c916148f4565b60008581526005602090815260409182902082516101c08101845281546001600160a01b03168152600180830180548651600261010094831615949094026000190190911692909204601f8101869004860283018601909652858252919492938581019391929190830182828015612d4a5780601f10612d1f57610100808354040283529160200191612d4a565b820191906000526020600020905b815481529060010190602001808311612d2d57829003601f168201915b5050509183525050600282810180546040805160206001841615610100026000190190931694909404601f81018390048302850183019091528084529381019390830182828015612ddc5780601f10612db157610100808354040283529160200191612ddc565b820191906000526020600020905b815481529060010190602001808311612dbf57829003601f168201915b5050509183525050600382015460209091019060ff166001811115612dfd57fe5b6001811115612e0857fe5b81526020016003820160019054906101000a900460ff166004811115612e2a57fe5b6004811115612e3557fe5b815260048201805460408051602060026001851615610100026000190190941693909304601f8101849004840282018401909252818152938201939291830182828015612ec35780601f10612e9857610100808354040283529160200191612ec3565b820191906000526020600020905b815481529060010190602001808311612ea657829003601f168201915b50505050508152602001600582015481526020016006820160009054906101000a900460ff161515151581526020016007820154815260200160088201805480602002602001604051908101604052809291908181526020016000905b82821015612ff55760008481526020908190206040805160038602909201805460026001821615610100026000190190911604601f8101859004909402830160809081019092526060830184815292939092849290918491840182828015612fc95780601f10612f9e57610100808354040283529160200191612fc9565b820191906000526020600020905b815481529060010190602001808311612fac57829003601f168201915b505050505081526020016001820154815260200160028201548152505081526020019060010190612f20565b5050509082525060098201546020820152600a8201546040820152600b8201546060820152600c9091015460ff1615156080909101526101208101515190915084106130535760405162461bcd60e51b8152600401610899906154b9565b61305d8585613926565b95945050505050565b600081815260016020526040812061084b90614434565b60008281526001602052604090206002015461309b906104a261340d565b610a895760405162461bcd60e51b8152600401610899906154e9565b6009546000818152600560209081526040808320600190810180548351600293821615610100026000190190911692909204601f8101859004850283018501909352828252606094938493908301828280156131545780601f1061312957610100808354040283529160200191613154565b820191906000526020600020905b81548152906001019060200180831161313757829003601f168201915b5050506000878152600560205260409020600301549697929660ff80821697506101009091041694509192505050565b60608260008111801561319957506009548111155b6131b55760405162461bcd60e51b815260040161089990615294565b60008481526005602052604090206008015483106131e55760405162461bcd60e51b8152600401610899906154b9565b600084815260056020526040902060080180548490811061320257fe5b6000918252602091829020600390910201805460408051601f60026000196101006001871615020190941693909304928301859004850281018501909152818152928301828280156132955780601f1061326a57610100808354040283529160200191613295565b820191906000526020600020905b81548152906001019060200180831161327857829003601f168201915b505050505091505092915050565b6000816000811180156132b857506009548111155b6132d45760405162461bcd60e51b815260040161089990615294565b505060009081526005602052604090206008015490565b6132f361340d565b6000546001600160a01b039081169116146133205760405162461bcd60e51b8152600401610899906155b2565b6001600160a01b0381166133465760405162461bcd60e51b8152600401610899906151d3565b600080546040516001600160a01b03808516939216917f8be0079c531659141344cd1fd0a4f28419497f9722a3daafe3b4186f6b6457e091a3600080546001600160a01b0319166001600160a01b0392909216919091179055565b600254600160a01b900460ff1690565b600080600460008460048111156133c457fe5b60ff1660ff168152602001908152602001600020600001549150600460008460048111156133ee57fe5b60ff1660ff168152602001908152602001600020600101549050915091565b3390565b600082815260016020526040902061342f908263ffffffff61443f16565b156109a25761343c61340d565b6001600160a01b0316816001600160a01b0316837f2f8788117e7eff1d82e926ec794901d17c78024a50270940304540a733656f0d60405160405180910390a45050565b613488614708565b8160008111801561349b57506009548111155b6134b75760405162461bcd60e51b815260040161089990615294565b6134bf6148f4565b60008481526005602090815260409182902082516101c08101845281546001600160a01b03168152600180830180548651600261010094831615949094026000190190911692909204601f81018690048602830186019096528582529194929385810193919291908301828280156135785780601f1061354d57610100808354040283529160200191613578565b820191906000526020600020905b81548152906001019060200180831161355b57829003601f168201915b5050509183525050600282810180546040805160206001841615610100026000190190931694909404601f8101839004830285018301909152808452938101939083018282801561360a5780601f106135df5761010080835404028352916020019161360a565b820191906000526020600020905b8154815290600101906020018083116135ed57829003601f168201915b5050509183525050600382015460209091019060ff16600181111561362b57fe5b600181111561363657fe5b81526020016003820160019054906101000a900460ff16600481111561365857fe5b600481111561366357fe5b815260048201805460408051602060026001851615610100026000190190941693909304601f81018490048402820184019092528181529382019392918301828280156136f15780601f106136c6576101008083540402835291602001916136f1565b820191906000526020600020905b8154815290600101906020018083116136d457829003601f168201915b50505050508152602001600582015481526020016006820160009054906101000a900460ff161515151581526020016007820154815260200160088201805480602002602001604051908101604052809291908181526020016000905b828210156138235760008481526020908190206040805160038602909201805460026001821615610100026000190190911604601f81018590049094028301608090810190925260608301848152929390928492909184918401828280156137f75780601f106137cc576101008083540402835291602001916137f7565b820191906000526020600020905b8154815290600101906020018083116137da57829003601f168201915b50505050508152602001600182015481526020016002820154815250508152602001906001019061374e565b505050908252506009820154602080830191909152600a830154604080840191909152600b840154606080850191909152600c9094015460ff16151560809384015284516001600160a01b0316885260c085015191880191909152610100840151908701526101808301519186019190915260a080830151918601919091526101a090910151151590840152509092915050565b60008281526001602052604090206138d5908263ffffffff61445416565b156109a2576138e261340d565b6001600160a01b0316816001600160a01b0316837ff6391f5c32d9c69d2a47ea670b442974b53935d1edc7fd64eb21e047a839171b60405160405180910390a45050565b60008260008111801561393b57506009548111155b6139575760405162461bcd60e51b815260040161089990615294565b600084815260056020526040902061396d613c4d565b81600901541015613982576000925050610a4a565b600254604051632c9aab9b60e11b815233916000916001600160a01b03909116906359355736906139b7908590600401614f00565b60206040518083038186803b1580156139cf57600080fd5b505afa1580156139e3573d6000803e3d6000fd5b505050506040513d601f19601f82011682018060405250613a079190810190614d8b565b905060008111613a295760405162461bcd60e51b8152600401610899906153f5565b6001600160a01b03821660009081526007602090815260408083208a845290915290206001015415613a6d5760405162461bcd60e51b815260040161089990615387565b60408051808201825287815260208082018481526001600160a01b0386166000908152600783528481208c8252909252929020905181559051600191820155600b840180549091019055600a830180548201905560088301805487908110613ad157fe5b90600052602060002090600302016001016000815480929190600101919050555080836008018781548110613b0257fe5b6000918252602090912060026003909202010180549091019055600683015460ff16613bd6576002546040805163ca5c7b9160e01b815290516000926001600160a01b03169163ca5c7b91916004808301926020929190829003018186803b158015613b6d57600080fd5b505afa158015613b81573d6000803e3d6000fd5b505050506040513d601f19601f82011682018060405250613ba59190810190614d8b565b84600a0154620186a00281613bb657fe5b04905083600501548110613bd45760068401805460ff191660011790555b505b336000908152600860209081526040808320805460018101825590845291909220018890555186906001600160a01b0384169089907f8eea3a81425aea5e440ed6b6289a8aea0db8025c75fdeb1434bd81650177034090613c38908690614f80565b60405180910390a45060019695505050505050565b4290565b613c60604051610d5c90614ed3565b80613c755750613c75604051610d5c90614eea565b15613c7f57611dc9565b600354336000818152600660209081526040808320868452909152908190208390556002549051631131011960e21b81526001600160a01b03909116926344c4046492613cd192909190600401614f14565b600060405180830381600087803b158015613ceb57600080fd5b505af1158015613cff573d6000803e3d6000fd5b5050505050565b600080338686604051602001613d1e93929190614ea9565b604051602081830303815290604052805190602001209050808414613d555760405162461bcd60e51b815260040161089990615630565b600a546001600160a01b0316613d6b8585614469565b6001600160a01b0316149695505050505050565b60006124148383614597565b6000612414836001600160a01b0384166145dc565b613da8614889565b81600081118015613dbb57506009548111155b613dd75760405162461bcd60e51b815260040161089990615294565b613ddf6148f4565b60008481526005602090815260409182902082516101c08101845281546001600160a01b03168152600180830180548651600261010094831615949094026000190190911692909204601f8101869004860283018601909652858252919492938581019391929190830182828015613e985780601f10613e6d57610100808354040283529160200191613e98565b820191906000526020600020905b815481529060010190602001808311613e7b57829003601f168201915b5050509183525050600282810180546040805160206001841615610100026000190190931694909404601f81018390048302850183019091528084529381019390830182828015613f2a5780601f10613eff57610100808354040283529160200191613f2a565b820191906000526020600020905b815481529060010190602001808311613f0d57829003601f168201915b5050509183525050600382015460209091019060ff166001811115613f4b57fe5b6001811115613f5657fe5b81526020016003820160019054906101000a900460ff166004811115613f7857fe5b6004811115613f8357fe5b815260048201805460408051602060026001851615610100026000190190941693909304601f81018490048402820184019092528181529382019392918301828280156140115780601f10613fe657610100808354040283529160200191614011565b820191906000526020600020905b815481529060010190602001808311613ff457829003601f168201915b50505050508152602001600582015481526020016006820160009054906101000a900460ff161515151581526020016007820154815260200160088201805480602002602001604051908101604052809291908181526020016000905b828210156141435760008481526020908190206040805160038602909201805460026001821615610100026000190190911604601f81018590049094028301608090810190925260608301848152929390928492909184918401828280156141175780601f106140ec57610100808354040283529160200191614117565b820191906000526020600020905b8154815290600101906020018083116140fa57829003601f168201915b50505050508152602001600182015481526020016002820154815250508152602001906001019061406e565b505050908252506009820154602080830191909152600a8301546040830152600b830154606080840191909152600c9093015460ff16151560809092019190915282810151865290820151919250840190600181111561419f57fe5b908160018111156141ac57fe5b9052506080810151604084019060048111156141c457fe5b908160048111156141d157fe5b90525061014081015160e080850191909152810151151560a08401526000836020015160018111156141ff57fe5b14156142ac5780610120015160008151811061421757fe5b60200260200101516040015183606001818152505080610120015160018151811061423e57fe5b60200260200101516040015183608001818152505061425b613c4d565b8360e0015110801561426e57508260a001515b1561429f578061016001518360800151620186a0028161428a57fe5b610100830151919004101560c08401526142a7565b600060c08401525b614363565b6142b4613c4d565b8360e001511080156142c757508260a001515b1561435b5760008080805b8461012001515181101561433c576142e86148d3565b85610120015182815181106142f957fe5b602002602001015190508381604001511115614322578194508060400151935060009250614333565b838160400151141561433357600192505b506001016142d2565b508015801561434b5750600083115b151560c087015250614363915050565b600060c08401525b5050919050565b614379604051610d5c90614ed3565b8061438e575061438e604051610d5c90614eea565b1561439857611dc9565b60025433600081815260066020908152604080832086845290915290819020549051633ba71a1560e01b81526001600160a01b0390931692633ba71a15926143e4929091600401614f14565b600060405180830381600087803b1580156143fe57600080fd5b505af1158015614412573d6000803e3d6000fd5b5050336000908152600660209081526040808320868452909152812055505050565b600061084b826145f4565b6000612414836001600160a01b0384166145f8565b6000612414836001600160a01b038416614642565b6000815160411461448c5760405162461bcd60e51b815260040161089990615154565b60208201516040830151606084015160001a7f7fffffffffffffffffffffffffffffff5d576e7357a4501ddfe92f46681b20a08211156144de5760405162461bcd60e51b815260040161089990615477565b8060ff16601b141580156144f657508060ff16601c14155b156145135760405162461bcd60e51b815260040161089990615570565b6000600187838686604051600081526020016040526040516145389493929190614f89565b6020604051602081039080840390855afa15801561455a573d6000803e3d6000fd5b5050604051601f1901519150506001600160a01b03811661458d5760405162461bcd60e51b815260040161089990615055565b9695505050505050565b815460009082106145ba5760405162461bcd60e51b81526004016108999061508c565b8260000182815481106145c957fe5b9060005260206000200154905092915050565b60009081526001919091016020526040902054151590565b5490565b600061460483836145dc565b61463a5750815460018181018455600084815260208082209093018490558454848252828601909352604090209190915561084b565b50600061084b565b600081815260018301602052604081205480156146fe578354600019808301919081019060009087908390811061467557fe5b906000526020600020015490508087600001848154811061469257fe5b6000918252602080832090910192909255828152600189810190925260409020908401905586548790806146c257fe5b6001900381819060005260206000200160009055905586600101600087815260200190815260200160002060009055600194505050505061084b565b600091505061084b565b6040518060c0016040528060006001600160a01b03168152602001600081526020016000815260200160008152602001606081526020016000151581525090565b604051806040016040528060008152602001600081525090565b828054600181600116156101000203166002900490600052602060002090601f016020900481019282601f106147a45782800160ff198235161785556147d1565b828001600101855582156147d1579182015b828111156147d15782358255916020019190600101906147b6565b506147dd92915061497b565b5090565b828054600181600116156101000203166002900490600052602060002090601f016020900481019282601f1061482257805160ff19168380011785556147d1565b828001600101855582156147d1579182015b828111156147d1578251825591602001919060010190614834565b8280548282559060005260206000209081019282156147d157916020028201828111156147d1578251825591602001919060010190614834565b604080516101008101909152606081526020810160008152602001600081526020016000815260200160008152602001600015158152602001600015158152602001600081525090565b60405180606001604052806060815260200160008152602001600081525090565b604051806101c0016040528060006001600160a01b0316815260200160608152602001606081526020016000600181111561492b57fe5b815260200160008152602001606081526020016000815260200160001515815260200160008152602001606081526020016000815260200160008152602001600081526020016000151581525090565b610b2691905b808211156147dd5760008155600101614981565b80356001600160a01b038116811461084b57600080fd5b60008083601f8401126149bd578182fd5b50813567ffffffffffffffff8111156149d4578182fd5b6020830191508360208285010111156149ec57600080fd5b9250929050565b80356005811061084b57600080fd5b600082601f830112614a12578081fd5b813567ffffffffffffffff80821115614a29578283fd5b604051601f8301601f191681016020018281118282101715614a49578485fd5b604052828152925082848301602001861015614a6457600080fd5b8260208601602083013760006020848301015250505092915050565b600060208284031215614a91578081fd5b6124148383614995565b60008060408385031215614aad578081fd5b614ab78484614995565b946020939093013593505050565b60008060408385031215614ad7578182fd5b82358015158114614ab7578283fd5b600060208284031215614af7578081fd5b5035919050565b60008060408385031215614b10578182fd5b8235915060208301356001600160a01b0381168114614b2d578182fd5b809150509250929050565b60008060408385031215614b4a578182fd5b50508035926020909101359150565b600060208284031215614b6a578081fd5b61241483836149f3565b60008060408385031215614b86578182fd5b8235614b9181615811565b9150602083013567ffffffffffffffff811115614bac578182fd5b614bb885828601614a02565b9150509250929050565b60008060008060008060008060a0898b031215614bdd578384fd5b883567ffffffffffffffff80821115614bf4578586fd5b614c008c838d016149ac565b909a50985060208b0135915080821115614c18578586fd5b614c248c838d016149ac565b909850965060408b0135955060608b0135915080821115614c43578485fd5b818b018c601f820112614c54578586fd5b8035925081831115614c64578586fd5b8c60208085028301011115614c77578586fd5b6020019450909250614c8e90508a60808b016149f3565b90509295985092959890939650565b60008060008060008060008060a0898b031215614cb8578384fd5b883567ffffffffffffffff80821115614ccf578586fd5b614cdb8c838d016149ac565b909a50985060208b0135915080821115614cf3578586fd5b614cff8c838d016149ac565b909850965060408b0135955060608b0135915080821115614d1e578485fd5b50614d2b8b828c016149ac565b9094509250506080890135614d3f81615811565b809150509295985092959890939650565b600060208284031215614d61578081fd5b813567ffffffffffffffff811115614d77578182fd5b614d8384828501614a02565b949350505050565b600060208284031215614d9c578081fd5b5051919050565b60008060408385031215614db5578182fd5b82359150614dc68460208501614995565b90509250929050565b60008060408385031215614de1578182fd5b8235915060208301356001600160e01b031981168114614b2d578182fd5b600080600080600060808688031215614e16578283fd5b853594506020860135935060408601359250606086013567ffffffffffffffff811115614e41578182fd5b614e4d888289016149ac565b969995985093965092949392505050565b60008151808452815b81811015614e8357602081850181015186830182015201614e67565b81811115614e945782602083870101525b50601f01601f19169290920160200192915050565b60609390931b6bffffffffffffffffffffffff191683526014830191909152603482015260540190565b6a564f54494e475f524f4c4560a81b8152600b0190565b6941444d494e5f524f4c4560b01b8152600a0190565b6001600160a01b0391909116815260200190565b6001600160a01b03929092168252602082015260400190565b600060018060a01b038816825286602083015285604083015284606083015260c06080830152614f6060c0830185614e5e565b905082151560a0830152979650505050505050565b901515815260200190565b90815260200190565b93845260ff9290921660208401526040830152606082015260800190565b6020810160058310614fb557fe5b91905290565b6000602082526124146020830184614e5e565b6000610100808352614fe28184018c614e5e565b915050614fee896157fd565b886020830152614ffd88615807565b60408201979097526060810195909552608085019390935290151560a0840152151560c083015260e09091015292915050565b6000606082526150436060830186614e5e565b60208301949094525060400152919050565b60208082526018908201527f45434453413a20696e76616c6964207369676e61747572650000000000000000604082015260600190565b60208082526022908201527f456e756d657261626c655365743a20696e646578206f7574206f6620626f756e604082015261647360f01b606082015260800190565b6020808252602f908201527f416363657373436f6e74726f6c3a2073656e646572206d75737420626520616e60408201526e0818591b5a5b881d1bc819dc985b9d608a1b606082015260800190565b6020808252601c908201527f526577617264696e673a20696e636f7272656374206e6f6e6365496400000000604082015260600190565b6020808252601f908201527f45434453413a20696e76616c6964207369676e6174757265206c656e67746800604082015260600190565b60208082526028908201527f566f74696e673a2074696d65206d75737420626520626967676572207468616e6040820152670818dd5c9c995b9d60c21b606082015260800190565b60208082526026908201527f4f776e61626c653a206e6577206f776e657220697320746865207a65726f206160408201526564647265737360d01b606082015260800190565b60208082526019908201527f566f74696e673a206e6f206c656164696e67206f7074696f6e00000000000000604082015260600190565b60208082526024908201527f566f74696e673a206d757374206265206174206c656173742074776f206f7074604082015263696f6e7360e01b606082015260800190565b6020808252601f908201527f566f74696e673a2070726f706f73616c20646f6573206e6f7420657869737400604082015260600190565b602080825260159082015274159bdd1a5b99ce88195b5c1d1e4819195c1bdcda5d605a1b604082015260600190565b60208082526025908201527f566f74696e673a20746869732070726f706f73616c206974206e6f7420616363604082015264195c1d195960da1b606082015260800190565b60208082526028908201527f566f74696e673a20706c656173652063686f6f736520616e206f7074696f6e206040820152670c4f240d2dcc8caf60c31b606082015260800190565b6020808252601e908201527f566f74696e673a20796f75206861766520616c726561647920766f7465640000604082015260600190565b6020808252601e908201527f526577617264696e673a20696e636f7272656374207369676e61747572650000604082015260600190565b6020808252602b908201527f566f74696e673a20796f75206861766520746f206c6f636b20796f757220746f60408201526a6b656e73206265666f726560a81b606082015260800190565b6020808252601f908201527f566f74696e673a20696e636f7272656374207570646174696e67206461746100604082015260600190565b60208082526022908201527f45434453413a20696e76616c6964207369676e6174757265202773272076616c604082015261756560f01b606082015260800190565b602080825260169082015275566f74696e673a206f7574206f6620696e646578657360501b604082015260600190565b60208082526030908201527f416363657373436f6e74726f6c3a2073656e646572206d75737420626520616e60408201526f2061646d696e20746f207265766f6b6560801b606082015260800190565b60208082526018908201527f566f74696e673a20616c72656164792065786563757465640000000000000000604082015260600190565b60208082526022908201527f45434453413a20696e76616c6964207369676e6174757265202776272076616c604082015261756560f01b606082015260800190565b6020808252818101527f4f776e61626c653a2063616c6c6572206973206e6f7420746865206f776e6572604082015260600190565b60208082526029908201527f566f74696e673a20766f74696e6720706572696f64206973206e6f742066696e6040820152681a5cda1959081e595d60ba1b606082015260800190565b60208082526019908201527f526577617264696e673a20696e636f7272656374206861736800000000000000604082015260600190565b60208082526022908201527f566f74696e673a20796f7520646f206e6f742068617665207065726d6973736960408201526137b760f11b606082015260800190565b602080825260139082015272566f74696e673a20656d707479207469746c6560681b604082015260600190565b60208082526027908201527f566f74696e673a20746869732070726f706f73616c206973206e6f742065786560408201526663757461626c6560c81b606082015260800190565b6020808252602f908201527f416363657373436f6e74726f6c3a2063616e206f6e6c792072656e6f756e636560408201526e103937b632b9903337b91039b2b63360891b606082015260800190565b60208082526021908201527f566f74696e673a20796f752073686f756c642073617920796561206f72206e616040820152607960f81b606082015260800190565b6000858252608060208301526157c66080830186614e5e565b90506157d1846157fd565b8360408301526157e083615807565b82606083015295945050505050565b918252602082015260400190565b60028110611dc957fe5b60058110611dc957fe5b60058110611dc957600080fdfea26469706673582212208492c902e9eb89dbc564960e626eafd68d4bda5b19c1558818768c9e37f8826a64736f6c63430006020033a8a1fd55aad9bd98e45291d680690c619e60f7931ecaeb384ba0bfb225cd25fe",
  "source": "// SPDX-License-Identifier: GPL-3.0\npragma solidity 0.6.2;\npragma experimental ABIEncoderV2;\n\n\nimport \"./ICitadelDaoTransport.sol\";\nimport \"./DAO/Rewarding.sol\";\n\n\n// version 1\ncontract CitadelDao is Rewarding {\n\n    constructor (address token) public {\n        _Token = ICitadelDaoTransport(token);\n    }\n\n    function version() external pure returns (string memory) {\n        return '1.0.0';\n    }\n\n}\n",
  "sourcePath": "/home/pirat/Desktop/DAO/contracts/CitadelDao.sol",
  "compiler": {
    "name": "solc",
    "version": "0.6.2+commit.bacdbe57.Emscripten.clang"
  },
  "schemaVersion": "3.2.5",
  "updatedAt": "2021-06-17T16:05:32.615Z",
  "devdoc": {
    "methods": {
      "getRoleAdmin(bytes32)": {
        "details": "Returns the admin role that controls `role`. See {grantRole} and {revokeRole}.     * To change a role's admin, use {_setRoleAdmin}."
      },
      "getRoleMember(bytes32,uint256)": {
        "details": "Returns one of the accounts that have `role`. `index` must be a value between 0 and {getRoleMemberCount}, non-inclusive.     * Role bearers are not sorted in any particular way, and their ordering may change at any point.     * WARNING: When using {getRoleMember} and {getRoleMemberCount}, make sure you perform all queries on the same block. See the following https://forum.openzeppelin.com/t/iterating-over-elements-on-enumerableset-in-openzeppelin-contracts/2296[forum post] for more information."
      },
      "getRoleMemberCount(bytes32)": {
        "details": "Returns the number of accounts that have `role`. Can be used together with {getRoleMember} to enumerate all bearers of a role."
      },
      "grantRole(bytes32,address)": {
        "details": "Grants `role` to `account`.     * If `account` had not been already granted `role`, emits a {RoleGranted} event.     * Requirements:     * - the caller must have ``role``'s admin role."
      },
      "hasRole(bytes32,address)": {
        "details": "Returns `true` if `account` has been granted `role`."
      },
      "owner()": {
        "details": "Returns the address of the current owner."
      },
      "renounceOwnership()": {
        "details": "Leaves the contract without owner. It will not be possible to call `onlyOwner` functions anymore. Can only be called by the current owner.     * NOTE: Renouncing ownership will leave the contract without an owner, thereby removing any functionality that is only available to the owner."
      },
      "renounceRole(bytes32,address)": {
        "details": "Revokes `role` from the calling account.     * Roles are often managed via {grantRole} and {revokeRole}: this function's purpose is to provide a mechanism for accounts to lose their privileges if they are compromised (such as when a trusted device is misplaced).     * If the calling account had been granted `role`, emits a {RoleRevoked} event.     * Requirements:     * - the caller must be `account`."
      },
      "revokeRole(bytes32,address)": {
        "details": "Revokes `role` from `account`.     * If `account` had been granted `role`, emits a {RoleRevoked} event.     * Requirements:     * - the caller must have ``role``'s admin role."
      },
      "transferOwnership(address)": {
        "details": "Transfers ownership of the contract to a new account (`newOwner`). Can only be called by the current owner."
      }
    }
  },
  "userdoc": {
    "methods": {}
  }
}