{
  "contractName": "CitadelDaoTransport",
  "abi": [
    {
      "inputs": [
        {
          "internalType": "address",
          "name": "daoAddress_",
          "type": "address"
        }
      ],
      "name": "initDaoTransport",
      "outputs": [],
      "stateMutability": "nonpayable",
      "type": "function"
    },
    {
      "inputs": [],
      "name": "getDaoAddress",
      "outputs": [
        {
          "internalType": "address",
          "name": "",
          "type": "address"
        }
      ],
      "stateMutability": "view",
      "type": "function"
    },
    {
      "inputs": [
        {
          "internalType": "uint256",
          "name": "stakingPct",
          "type": "uint256"
        },
        {
          "internalType": "uint256",
          "name": "vestingPct",
          "type": "uint256"
        }
      ],
      "name": "changeInflationRatio",
      "outputs": [],
      "stateMutability": "nonpayable",
      "type": "function"
    }
  ],
  "bytecode": "0x608060405234801561001057600080fd5b50610171806100206000396000f3fe608060405234801561001057600080fd5b50600436106100415760003560e01c80631d68702d1461004657806344263fcb14610064578063aa6b3f1114610079575b600080fd5b61004e61008c565b60405161005b9190610127565b60405180910390f35b6100776100723660046100d8565b61009b565b005b610077610087366004610106565b6100bd565b6000546001600160a01b031690565b600080546001600160a01b0319166001600160a01b0392909216919091179055565b6000546001600160a01b031633146100d457600080fd5b5050565b6000602082840312156100e9578081fd5b81356001600160a01b03811681146100ff578182fd5b9392505050565b60008060408385031215610118578081fd5b50508035926020909101359150565b6001600160a01b039190911681526020019056fea2646970667358221220151207b6e8e30af61e32da9468051f9c6946b210309b5e6df0e7494aefb8181b64736f6c63430006020033",
  "source": "// SPDX-License-Identifier: GPL-3.0\npragma solidity 0.6.2;\npragma experimental ABIEncoderV2;\n\n\n//import \"./CitadelTokenLocker.sol\";\n\n\ncontract CitadelDaoTransport /*!!!is CitadelTokenLocker*/ {\n\n    address private _daoAddress;\n\n    modifier onlyDaoContract() {\n        require(msg.sender == _daoAddress);\n        _;\n    }\n\n    function initDaoTransport(address daoAddress_) external /*onlyOwner*/ {\n        _daoAddress = daoAddress_;\n    }\n\n    function getDaoAddress() external view returns (address) {\n        return _daoAddress;\n    }\n\n    /*function transferStakingRewards(address account, uint256 amount) external onlyDaoContract {\n        _transferStakingRewards(account, amount);\n    }*/\n\n    function changeInflationRatio(uint stakingPct, uint vestingPct) external onlyDaoContract {\n        //_changeInflationRatio(stakingPct, vestingPct);\n    }\n\n}\n",
  "sourcePath": "/home/pirat/Desktop/DAO/contracts/Token/CitadelDaoTransport.sol",
  "compiler": {
    "name": "solc",
    "version": "0.6.2+commit.bacdbe57.Emscripten.clang"
  },
  "schemaVersion": "3.2.5",
  "updatedAt": "2021-06-01T14:37:58.635Z",
  "devdoc": {
    "methods": {}
  },
  "userdoc": {
    "methods": {}
  }
}