{
  "contractName": "CitadelCommunityFund",
  "abi": [
    {
      "anonymous": false,
      "inputs": [
        {
          "indexed": true,
          "internalType": "address",
          "name": "owner",
          "type": "address"
        },
        {
          "indexed": true,
          "internalType": "address",
          "name": "spender",
          "type": "address"
        },
        {
          "indexed": false,
          "internalType": "uint256",
          "name": "value",
          "type": "uint256"
        }
      ],
      "name": "Approval",
      "type": "event"
    },
    {
      "anonymous": false,
      "inputs": [
        {
          "indexed": true,
          "internalType": "address",
          "name": "previousOwner",
          "type": "address"
        },
        {
          "indexed": true,
          "internalType": "address",
          "name": "newOwner",
          "type": "address"
        }
      ],
      "name": "OwnershipTransferred",
      "type": "event"
    },
    {
      "anonymous": false,
      "inputs": [
        {
          "indexed": false,
          "internalType": "address",
          "name": "account",
          "type": "address"
        }
      ],
      "name": "Paused",
      "type": "event"
    },
    {
      "anonymous": false,
      "inputs": [
        {
          "indexed": true,
          "internalType": "address",
          "name": "from",
          "type": "address"
        },
        {
          "indexed": true,
          "internalType": "address",
          "name": "to",
          "type": "address"
        },
        {
          "indexed": false,
          "internalType": "uint256",
          "name": "value",
          "type": "uint256"
        }
      ],
      "name": "Transfer",
      "type": "event"
    },
    {
      "anonymous": false,
      "inputs": [
        {
          "indexed": false,
          "internalType": "address",
          "name": "account",
          "type": "address"
        }
      ],
      "name": "Unpaused",
      "type": "event"
    },
    {
      "inputs": [],
      "name": "_bankAddress",
      "outputs": [
        {
          "internalType": "address",
          "name": "",
          "type": "address"
        }
      ],
      "stateMutability": "view",
      "type": "function"
    },
    {
      "inputs": [],
      "name": "_publicSaleLimit",
      "outputs": [
        {
          "internalType": "uint256",
          "name": "",
          "type": "uint256"
        }
      ],
      "stateMutability": "view",
      "type": "function"
    },
    {
      "inputs": [
        {
          "internalType": "address",
          "name": "owner",
          "type": "address"
        },
        {
          "internalType": "address",
          "name": "spender",
          "type": "address"
        }
      ],
      "name": "allowance",
      "outputs": [
        {
          "internalType": "uint256",
          "name": "",
          "type": "uint256"
        }
      ],
      "stateMutability": "view",
      "type": "function"
    },
    {
      "inputs": [
        {
          "internalType": "address",
          "name": "spender",
          "type": "address"
        },
        {
          "internalType": "uint256",
          "name": "amount",
          "type": "uint256"
        }
      ],
      "name": "approve",
      "outputs": [
        {
          "internalType": "bool",
          "name": "",
          "type": "bool"
        }
      ],
      "stateMutability": "nonpayable",
      "type": "function"
    },
    {
      "inputs": [
        {
          "internalType": "address",
          "name": "account",
          "type": "address"
        }
      ],
      "name": "balanceOf",
      "outputs": [
        {
          "internalType": "uint256",
          "name": "",
          "type": "uint256"
        }
      ],
      "stateMutability": "view",
      "type": "function"
    },
    {
      "inputs": [
        {
          "internalType": "uint256",
          "name": "amount",
          "type": "uint256"
        }
      ],
      "name": "buyViaUSDT",
      "outputs": [],
      "stateMutability": "nonpayable",
      "type": "function"
    },
    {
      "inputs": [
        {
          "internalType": "uint256",
          "name": "amount",
          "type": "uint256"
        }
      ],
      "name": "calculateTokensEther",
      "outputs": [
        {
          "internalType": "uint256",
          "name": "",
          "type": "uint256"
        }
      ],
      "stateMutability": "view",
      "type": "function"
    },
    {
      "inputs": [
        {
          "internalType": "uint256",
          "name": "amount",
          "type": "uint256"
        }
      ],
      "name": "calculateTokensUSD",
      "outputs": [
        {
          "internalType": "uint256",
          "name": "",
          "type": "uint256"
        }
      ],
      "stateMutability": "view",
      "type": "function"
    },
    {
      "inputs": [
        {
          "internalType": "uint256",
          "name": "buyerLimit_",
          "type": "uint256"
        }
      ],
      "name": "changeBuyerLimit",
      "outputs": [],
      "stateMutability": "nonpayable",
      "type": "function"
    },
    {
      "inputs": [
        {
          "internalType": "address",
          "name": "marketContract_",
          "type": "address"
        },
        {
          "internalType": "uint256",
          "name": "marketRate_",
          "type": "uint256"
        }
      ],
      "name": "changeMarketContract",
      "outputs": [],
      "stateMutability": "nonpayable",
      "type": "function"
    },
    {
      "inputs": [
        {
          "internalType": "uint256",
          "name": "rate_",
          "type": "uint256"
        }
      ],
      "name": "changeRate",
      "outputs": [],
      "stateMutability": "nonpayable",
      "type": "function"
    },
    {
      "inputs": [
        {
          "internalType": "address",
          "name": "usdtContract_",
          "type": "address"
        }
      ],
      "name": "changeUSDTContract",
      "outputs": [],
      "stateMutability": "nonpayable",
      "type": "function"
    },
    {
      "inputs": [],
      "name": "claimFF",
      "outputs": [],
      "stateMutability": "nonpayable",
      "type": "function"
    },
    {
      "inputs": [
        {
          "internalType": "uint256",
          "name": "amount",
          "type": "uint256"
        }
      ],
      "name": "claimInvestor",
      "outputs": [],
      "stateMutability": "nonpayable",
      "type": "function"
    },
    {
      "inputs": [
        {
          "internalType": "uint256",
          "name": "amount",
          "type": "uint256"
        }
      ],
      "name": "claimTeam",
      "outputs": [],
      "stateMutability": "nonpayable",
      "type": "function"
    },
    {
      "inputs": [],
      "name": "closeMarket",
      "outputs": [],
      "stateMutability": "nonpayable",
      "type": "function"
    },
    {
      "inputs": [],
      "name": "decimals",
      "outputs": [
        {
          "internalType": "uint8",
          "name": "",
          "type": "uint8"
        }
      ],
      "stateMutability": "view",
      "type": "function"
    },
    {
      "inputs": [
        {
          "internalType": "address",
          "name": "spender",
          "type": "address"
        },
        {
          "internalType": "uint256",
          "name": "subtractedValue",
          "type": "uint256"
        }
      ],
      "name": "decreaseAllowance",
      "outputs": [
        {
          "internalType": "bool",
          "name": "",
          "type": "bool"
        }
      ],
      "stateMutability": "nonpayable",
      "type": "function"
    },
    {
      "inputs": [],
      "name": "deployDate",
      "outputs": [
        {
          "internalType": "uint256",
          "name": "",
          "type": "uint256"
        }
      ],
      "stateMutability": "view",
      "type": "function"
    },
    {
      "inputs": [],
      "name": "deployed",
      "outputs": [
        {
          "internalType": "uint256",
          "name": "",
          "type": "uint256"
        }
      ],
      "stateMutability": "view",
      "type": "function"
    },
    {
      "inputs": [],
      "name": "getBuyerLimit",
      "outputs": [
        {
          "internalType": "uint256",
          "name": "",
          "type": "uint256"
        }
      ],
      "stateMutability": "view",
      "type": "function"
    },
    {
      "inputs": [],
      "name": "getFFInfo",
      "outputs": [
        {
          "internalType": "address",
          "name": "addr",
          "type": "address"
        },
        {
          "internalType": "uint256",
          "name": "startDate",
          "type": "uint256"
        },
        {
          "internalType": "uint256",
          "name": "budget",
          "type": "uint256"
        },
        {
          "internalType": "uint256",
          "name": "badgeUsed",
          "type": "uint256"
        },
        {
          "internalType": "uint256",
          "name": "badgeClaimed",
          "type": "uint256"
        },
        {
          "internalType": "uint256",
          "name": "steps",
          "type": "uint256"
        },
        {
          "internalType": "uint256",
          "name": "available",
          "type": "uint256"
        }
      ],
      "stateMutability": "view",
      "type": "function"
    },
    {
      "inputs": [
        {
          "internalType": "address",
          "name": "addr",
          "type": "address"
        }
      ],
      "name": "getInvestorInfoOf",
      "outputs": [
        {
          "internalType": "uint256",
          "name": "limit",
          "type": "uint256"
        },
        {
          "internalType": "uint256",
          "name": "used",
          "type": "uint256"
        },
        {
          "internalType": "uint256",
          "name": "available",
          "type": "uint256"
        },
        {
          "internalType": "uint256",
          "name": "percent",
          "type": "uint256"
        },
        {
          "internalType": "uint256",
          "name": "time",
          "type": "uint256"
        }
      ],
      "stateMutability": "view",
      "type": "function"
    },
    {
      "inputs": [],
      "name": "getMarketContract",
      "outputs": [
        {
          "internalType": "address",
          "name": "marketContract",
          "type": "address"
        },
        {
          "internalType": "uint256",
          "name": "marketRate",
          "type": "uint256"
        }
      ],
      "stateMutability": "view",
      "type": "function"
    },
    {
      "inputs": [],
      "name": "getRate",
      "outputs": [
        {
          "internalType": "uint256",
          "name": "",
          "type": "uint256"
        }
      ],
      "stateMutability": "view",
      "type": "function"
    },
    {
      "inputs": [
        {
          "internalType": "address",
          "name": "addr",
          "type": "address"
        }
      ],
      "name": "getTeamInfoOf",
      "outputs": [
        {
          "internalType": "uint256",
          "name": "limit",
          "type": "uint256"
        },
        {
          "internalType": "uint256",
          "name": "used",
          "type": "uint256"
        },
        {
          "internalType": "uint256",
          "name": "available",
          "type": "uint256"
        },
        {
          "internalType": "uint256",
          "name": "percent",
          "type": "uint256"
        },
        {
          "internalType": "uint256",
          "name": "time",
          "type": "uint256"
        }
      ],
      "stateMutability": "view",
      "type": "function"
    },
    {
      "inputs": [],
      "name": "getUSDTContract",
      "outputs": [
        {
          "internalType": "address",
          "name": "",
          "type": "address"
        }
      ],
      "stateMutability": "view",
      "type": "function"
    },
    {
      "inputs": [
        {
          "internalType": "address",
          "name": "spender",
          "type": "address"
        },
        {
          "internalType": "uint256",
          "name": "addedValue",
          "type": "uint256"
        }
      ],
      "name": "increaseAllowance",
      "outputs": [
        {
          "internalType": "bool",
          "name": "",
          "type": "bool"
        }
      ],
      "stateMutability": "nonpayable",
      "type": "function"
    },
    {
      "inputs": [],
      "name": "isClosedMarket",
      "outputs": [
        {
          "internalType": "bool",
          "name": "",
          "type": "bool"
        }
      ],
      "stateMutability": "view",
      "type": "function"
    },
    {
      "inputs": [
        {
          "internalType": "bytes4",
          "name": "groupId",
          "type": "bytes4"
        }
      ],
      "name": "multisigWhitelist",
      "outputs": [
        {
          "internalType": "address[]",
          "name": "",
          "type": "address[]"
        }
      ],
      "stateMutability": "view",
      "type": "function"
    },
    {
      "inputs": [
        {
          "internalType": "bytes4",
          "name": "groupId",
          "type": "bytes4"
        },
        {
          "internalType": "address",
          "name": "account",
          "type": "address"
        }
      ],
      "name": "multisigWhitelistAdd",
      "outputs": [],
      "stateMutability": "nonpayable",
      "type": "function"
    },
    {
      "inputs": [
        {
          "internalType": "bytes4",
          "name": "groupId",
          "type": "bytes4"
        },
        {
          "internalType": "address",
          "name": "account",
          "type": "address"
        }
      ],
      "name": "multisigWhitelistRemove",
      "outputs": [],
      "stateMutability": "nonpayable",
      "type": "function"
    },
    {
      "inputs": [],
      "name": "name",
      "outputs": [
        {
          "internalType": "string",
          "name": "",
          "type": "string"
        }
      ],
      "stateMutability": "view",
      "type": "function"
    },
    {
      "inputs": [],
      "name": "owner",
      "outputs": [
        {
          "internalType": "address",
          "name": "",
          "type": "address"
        }
      ],
      "stateMutability": "view",
      "type": "function"
    },
    {
      "inputs": [],
      "name": "paused",
      "outputs": [
        {
          "internalType": "bool",
          "name": "",
          "type": "bool"
        }
      ],
      "stateMutability": "view",
      "type": "function"
    },
    {
      "inputs": [],
      "name": "percentDecimal",
      "outputs": [
        {
          "internalType": "uint256",
          "name": "",
          "type": "uint256"
        }
      ],
      "stateMutability": "view",
      "type": "function"
    },
    {
      "inputs": [],
      "name": "removeMarketContract",
      "outputs": [],
      "stateMutability": "nonpayable",
      "type": "function"
    },
    {
      "inputs": [],
      "name": "renounceOwnership",
      "outputs": [],
      "stateMutability": "nonpayable",
      "type": "function"
    },
    {
      "inputs": [
        {
          "internalType": "address[]",
          "name": "persons",
          "type": "address[]"
        },
        {
          "internalType": "uint256[]",
          "name": "amounts",
          "type": "uint256[]"
        }
      ],
      "name": "setInvestors",
      "outputs": [],
      "stateMutability": "nonpayable",
      "type": "function"
    },
    {
      "inputs": [
        {
          "internalType": "address[]",
          "name": "persons",
          "type": "address[]"
        },
        {
          "internalType": "uint256[]",
          "name": "amounts",
          "type": "uint256[]"
        }
      ],
      "name": "setTeam",
      "outputs": [],
      "stateMutability": "nonpayable",
      "type": "function"
    },
    {
      "inputs": [],
      "name": "symbol",
      "outputs": [
        {
          "internalType": "string",
          "name": "",
          "type": "string"
        }
      ],
      "stateMutability": "view",
      "type": "function"
    },
    {
      "inputs": [],
      "name": "totalSupply",
      "outputs": [
        {
          "internalType": "uint256",
          "name": "",
          "type": "uint256"
        }
      ],
      "stateMutability": "view",
      "type": "function"
    },
    {
      "inputs": [
        {
          "internalType": "address",
          "name": "recipient",
          "type": "address"
        },
        {
          "internalType": "uint256",
          "name": "amount",
          "type": "uint256"
        }
      ],
      "name": "transfer",
      "outputs": [
        {
          "internalType": "bool",
          "name": "",
          "type": "bool"
        }
      ],
      "stateMutability": "nonpayable",
      "type": "function"
    },
    {
      "inputs": [
        {
          "internalType": "address payable",
          "name": "account",
          "type": "address"
        },
        {
          "internalType": "uint256",
          "name": "amount",
          "type": "uint256"
        }
      ],
      "name": "transferEth",
      "outputs": [],
      "stateMutability": "nonpayable",
      "type": "function"
    },
    {
      "inputs": [
        {
          "internalType": "address",
          "name": "account",
          "type": "address"
        },
        {
          "internalType": "uint256",
          "name": "amount",
          "type": "uint256"
        }
      ],
      "name": "transferFF",
      "outputs": [],
      "stateMutability": "nonpayable",
      "type": "function"
    },
    {
      "inputs": [
        {
          "internalType": "address",
          "name": "sender",
          "type": "address"
        },
        {
          "internalType": "address",
          "name": "recipient",
          "type": "address"
        },
        {
          "internalType": "uint256",
          "name": "amount",
          "type": "uint256"
        }
      ],
      "name": "transferFrom",
      "outputs": [
        {
          "internalType": "bool",
          "name": "",
          "type": "bool"
        }
      ],
      "stateMutability": "nonpayable",
      "type": "function"
    },
    {
      "inputs": [
        {
          "internalType": "address",
          "name": "newOwner",
          "type": "address"
        }
      ],
      "name": "transferOwnership",
      "outputs": [],
      "stateMutability": "nonpayable",
      "type": "function"
    },
    {
      "inputs": [
        {
          "internalType": "address",
          "name": "account",
          "type": "address"
        },
        {
          "internalType": "uint256",
          "name": "amount",
          "type": "uint256"
        }
      ],
      "name": "transferUSDT",
      "outputs": [],
      "stateMutability": "nonpayable",
      "type": "function"
    },
    {
      "stateMutability": "payable",
      "type": "receive"
    },
    {
      "inputs": [],
      "name": "getCFInfo",
      "outputs": [
        {
          "internalType": "address",
          "name": "addr",
          "type": "address"
        },
        {
          "internalType": "uint256",
          "name": "budget",
          "type": "uint256"
        },
        {
          "internalType": "uint256",
          "name": "badgeUsed",
          "type": "uint256"
        }
      ],
      "stateMutability": "view",
      "type": "function"
    },
    {
      "inputs": [
        {
          "internalType": "address",
          "name": "account",
          "type": "address"
        },
        {
          "internalType": "uint256",
          "name": "amount",
          "type": "uint256"
        }
      ],
      "name": "transferCF",
      "outputs": [],
      "stateMutability": "nonpayable",
      "type": "function"
    }
  ],
  "bytecode": "0x600760808181526610da5d1859195b60ca1b60a0908152610100604052600360c0818152621610d560ea1b60e05292936200003b929062000130565b5080516200005190600490602084019062000130565b50506005805460ff19166012179055506000620000766001600160e01b036200011516565b60058054610100600160a81b0319166101006001600160a01b03841690810291909117909155604051919250906000907f8be0079c531659141344cd1fd0a4f28419497f9722a3daafe3b4186f6b6457e0908290a3506005805460ff60a81b19169055600780546001600160a01b031916301790554260085566038d7ea4c680006009556200010f60066001600160e01b036200011a16565b620001d2565b335b90565b6005805460ff191660ff92909216919091179055565b828054600181600116156101000203166002900490600052602060002090601f016020900481019282601f106200017357805160ff1916838001178555620001a3565b82800160010185558215620001a3579182015b82811115620001a357825182559160200191906001019062000186565b50620001b1929150620001b5565b5090565b6200011791905b80821115620001b15760008155600101620001bc565b61452580620001e26000396000f3fe6080604052600436106102cd5760003560e01c80639038a3ce11610175578063d015ed6a116100dc578063e9bb84c211610095578063f2fde38b1161006f578063f2fde38b14611051578063f905c15a14611084578063fcd6f77914611099578063fefa83f3146110f75761068c565b8063e9bb84c214610f38578063f054913314610f71578063f0e169a81461103c5761068c565b8063d015ed6a14610e14578063d263941e14610e4d578063dcb1701514610e85578063dd62ed3e14610e9a578063e0cdea6f14610ed5578063e2ad914414610f0e5761068c565b8063a9c8822a1161012e578063a9c8822a14610d39578063aa20a3a814610d63578063ba1a681f14610d96578063bb40f3c614610dab578063c511ed5e14610dd5578063cf6b60b814610dea5761068c565b80639038a3ce14610ba857806395d89b4114610bbd57806397464f6114610bd25780639f7fd8f214610c9d578063a457c2d714610cc7578063a9059cbb14610d005761068c565b80635c975abb11610234578063715018a6116101ed5780637c465e09116101c75780637c465e0914610b025780638b54b2bf14610b455780638d08c8a514610b7e5780638da5cb5b14610b935761068c565b8063715018a614610a3f57806374e7493b14610a54578063791b8a7814610a7e5761068c565b80635c975abb1461096a578063605418cd1461097f578063679aefce146109a957806369668fe9146109be5780636fe640ea146109d357806370a0823114610a0c5761068c565b806323b872dd1161028657806323b872dd146107fe578063313ce56714610841578063395093511461086c578063530f1128146108a557806353d168e7146108e25780635a509f64146109135761068c565b806306fdde0314610691578063095ea7b31461071b57806317abbc2f1461076857806318160ddd1461078f5780631d4ab120146107a45780631fe740f0146107e95761068c565b3661068c5760135460ff1615610318576040805162461bcd60e51b815260206004820152601e6024820152600080516020614411833981519152604482015290519081900360640190fd5b6000601054116103595760405162461bcd60e51b815260040180806020018281038252602481526020018061447d6024913960400191505060405180910390fd5b60115433600090815260126020526040902054106103a85760405162461bcd60e51b81526004018080602001828103825260248152602001806142c96024913960400191505060405180910390fd5b600d543390600090349082906001600160a01b0316156104ac5760006103cc61112a565b50505091505060006103fd6305f5e1006103f1600e54856111d890919063ffffffff16565b9063ffffffff61123a16565b905061040f848263ffffffff61123a16565b6011546001600160a01b0388166000908152601260205260409020549196509061043f908763ffffffff61127c16565b1115610473576001600160a01b0386166000908152601260205260409020546011546104709163ffffffff6112d616565b94505b6010548511156104835760105494505b6104a3610496868363ffffffff6111d816565b859063ffffffff6112d616565b9250505061059f565b600b541561056857600b546104c890839063ffffffff61123a16565b6011546001600160a01b038616600090815260126020526040902054919450906104f8908563ffffffff61127c16565b111561052c576001600160a01b0384166000908152601260205260409020546011546105299163ffffffff6112d616565b92505b60105483111561053c5760105492505b610561610554600b54856111d890919063ffffffff16565b839063ffffffff6112d616565b905061059f565b60405162461bcd60e51b815260040180806020018281038252602b815260200180614258602b913960400191505060405180910390fd5b600083116105f4576040805162461bcd60e51b815260206004820152601f60248201527f4369746164656c45786368616e67653a20746f6f206c6f7720616d6f756e7400604482015290519081900360640190fd5b801561062957604051339082156108fc029083906000818181858888f19350505050158015610627573d6000803e3d6000fd5b505b600754610640906001600160a01b03168585611318565b33600090815260126020526040902054610660908463ffffffff61127c16565b33600090815260126020526040902055601054610683908463ffffffff6112d616565b60105550505050005b600080fd5b34801561069d57600080fd5b506106a661147f565b6040805160208082528351818301528351919283929083019185019080838360005b838110156106e05781810151838201526020016106c8565b50505050905090810190601f16801561070d5780820380516001836020036101000a031916815260200191505b509250505060405180910390f35b34801561072757600080fd5b506107546004803603604081101561073e57600080fd5b506001600160a01b038135169060200135611516565b604080519115158252519081900360200190f35b34801561077457600080fd5b5061077d611533565b60408051918252519081900360200190f35b34801561079b57600080fd5b5061077d611583565b3480156107b057600080fd5b506107e7600480360360408110156107c757600080fd5b5080356001600160e01b03191690602001356001600160a01b0316611589565b005b3480156107f557600080fd5b506107e761179b565b34801561080a57600080fd5b506107546004803603606081101561082157600080fd5b506001600160a01b0381358116916020810135909116906040013561189d565b34801561084d57600080fd5b5061085661192a565b6040805160ff9092168252519081900360200190f35b34801561087857600080fd5b506107546004803603604081101561088f57600080fd5b506001600160a01b038135169060200135611933565b3480156108b157600080fd5b506108ba611987565b604080516001600160a01b039094168452602084019290925282820152519081900360600190f35b3480156108ee57600080fd5b506108f76119a5565b604080516001600160a01b039092168252519081900360200190f35b34801561091f57600080fd5b506109286119b4565b604080516001600160a01b0390981688526020880196909652868601949094526060860192909252608085015260a084015260c0830152519081900360e00190f35b34801561097657600080fd5b50610754611aa6565b34801561098b57600080fd5b5061077d600480360360208110156109a257600080fd5b5035611ab6565b3480156109b557600080fd5b5061077d611b5c565b3480156109ca57600080fd5b5061077d611bac565b3480156109df57600080fd5b506107e7600480360360408110156109f657600080fd5b506001600160a01b038135169060200135611bb2565b348015610a1857600080fd5b5061077d60048036036020811015610a2f57600080fd5b50356001600160a01b0316611cff565b348015610a4b57600080fd5b506107e7611d32565b348015610a6057600080fd5b506107e760048036036020811015610a7757600080fd5b5035611ddf565b348015610a8a57600080fd5b50610ab260048036036020811015610aa157600080fd5b50356001600160e01b031916611ec6565b60408051602080825283518183015283519192839290830191858101910280838360005b83811015610aee578181015183820152602001610ad6565b505050509050019250505060405180910390f35b348015610b0e57600080fd5b506107e760048036036040811015610b2557600080fd5b5080356001600160e01b03191690602001356001600160a01b0316611faa565b348015610b5157600080fd5b506107e760048036036040811015610b6857600080fd5b506001600160a01b038135169060200135612089565b348015610b8a57600080fd5b506107e761213f565b348015610b9f57600080fd5b506108f76121f4565b348015610bb457600080fd5b506108f7612208565b348015610bc957600080fd5b506106a6612217565b348015610bde57600080fd5b506107e760048036036040811015610bf557600080fd5b810190602081018135600160201b811115610c0f57600080fd5b820183602082011115610c2157600080fd5b803590602001918460208302840111600160201b83111715610c4257600080fd5b919390929091602081019035600160201b811115610c5f57600080fd5b820183602082011115610c7157600080fd5b803590602001918460208302840111600160201b83111715610c9257600080fd5b509092509050612278565b348015610ca957600080fd5b506107e760048036036020811015610cc057600080fd5b503561247c565b348015610cd357600080fd5b5061075460048036036040811015610cea57600080fd5b506001600160a01b0381351690602001356126be565b348015610d0c57600080fd5b5061075460048036036040811015610d2357600080fd5b506001600160a01b03813516906020013561272c565b348015610d4557600080fd5b506107e760048036036020811015610d5c57600080fd5b5035612740565b348015610d6f57600080fd5b506107e760048036036020811015610d8657600080fd5b50356001600160a01b03166128fc565b348015610da257600080fd5b5061077d612a0e565b348015610db757600080fd5b5061077d60048036036020811015610dce57600080fd5b5035612a14565b348015610de157600080fd5b506107e7612b03565b348015610df657600080fd5b506107e760048036036020811015610e0d57600080fd5b5035612bd6565b348015610e2057600080fd5b506107e760048036036040811015610e3757600080fd5b506001600160a01b038135169060200135612d8b565b348015610e5957600080fd5b50610e62612e8f565b604080516001600160a01b03909316835260208301919091528051918290030190f35b348015610e9157600080fd5b5061077d612ef0565b348015610ea657600080fd5b5061077d60048036036040811015610ebd57600080fd5b506001600160a01b0381358116916020013516612ef6565b348015610ee157600080fd5b506107e760048036036040811015610ef857600080fd5b506001600160a01b038135169060200135612f21565b348015610f1a57600080fd5b506107e760048036036020811015610f3157600080fd5b5035612fe9565b348015610f4457600080fd5b506107e760048036036040811015610f5b57600080fd5b506001600160a01b038135169060200135613091565b348015610f7d57600080fd5b506107e760048036036040811015610f9457600080fd5b810190602081018135600160201b811115610fae57600080fd5b820183602082011115610fc057600080fd5b803590602001918460208302840111600160201b83111715610fe157600080fd5b919390929091602081019035600160201b811115610ffe57600080fd5b82018360208201111561101057600080fd5b803590602001918460208302840111600160201b8311171561103157600080fd5b509092509050613140565b34801561104857600080fd5b5061075461333d565b34801561105d57600080fd5b506107e76004803603602081101561107457600080fd5b50356001600160a01b0316613346565b34801561109057600080fd5b5061077d61344f565b3480156110a557600080fd5b506110cc600480360360208110156110bc57600080fd5b50356001600160a01b0316613455565b6040805195865260208601949094528484019290925260608401526080830152519081900360a00190f35b34801561110357600080fd5b506110cc6004803603602081101561111a57600080fd5b50356001600160a01b0316613506565b60008060008060008060009050600c60009054906101000a90046001600160a01b03166001600160a01b031663feaf968c6040518163ffffffff1660e01b815260040160a06040518083038186803b15801561118557600080fd5b505afa158015611199573d6000803e3d6000fd5b505050506040513d60a08110156111af57600080fd5b508051602082015160408301516060840151608090940151929a91995097509195509350915050565b6000826111e757506000611234565b828202828482816111f457fe5b04146112315760405162461bcd60e51b815260040180806020018281038252602181526020018061433f6021913960400191505060405180910390fd5b90505b92915050565b600061123183836040518060400160405280601a81526020017f536166654d6174683a206469766973696f6e206279207a65726f0000000000008152506135ac565b600082820183811015611231576040805162461bcd60e51b815260206004820152601b60248201527f536166654d6174683a206164646974696f6e206f766572666c6f770000000000604482015290519081900360640190fd5b600061123183836040518060400160405280601e81526020017f536166654d6174683a207375627472616374696f6e206f766572666c6f77000081525061364e565b6001600160a01b03831661135d5760405162461bcd60e51b81526004018080602001828103825260258152602001806143ec6025913960400191505060405180910390fd5b6001600160a01b0382166113a25760405162461bcd60e51b81526004018080602001828103825260238152602001806141a06023913960400191505060405180910390fd5b6113ad8383836136a8565b6113f0816040518060600160405280602681526020016142a3602691396001600160a01b038616600090815260208190526040902054919063ffffffff61364e16565b6001600160a01b038085166000908152602081905260408082209390935590841681522054611425908263ffffffff61127c16565b6001600160a01b038084166000818152602081815260409182902094909455805185815290519193928716927fddf252ad1be2c89b69c2b068fc378daa952ba7f163c4a11628f55a4df523b3ef92918290030190a3505050565b60038054604080516020601f600260001961010060018816150201909516949094049384018190048102820181019092528281526060939092909183018282801561150b5780601f106114e05761010080835404028352916020019161150b565b820191906000526020600020905b8154815290600101906020018083116114ee57829003601f168201915b505050505090505b90565b600061152a61152361374d565b8484613751565b50600192915050565b60135460009060ff161561157c576040805162461bcd60e51b815260206004820152601e6024820152600080516020614411833981519152604482015290519081900360640190fd5b5060115490565b60025490565b6001600160e01b031982166000908152600660209081526040808320338452600101909152902054829060ff166115f15760405162461bcd60e51b81526004018080602001828103825260288152602001806144556028913960400191505060405180910390fd5b6001600160e01b0319831660009081526006602052604090206002808201541161164c5760405162461bcd60e51b81526004018080602001828103825260238152602001806143c96023913960400191505060405180910390fd5b6116558461383d565b61165f5750611796565b6002810154815414156116755780546000190181555b606060018260020180549050036040519080825280602002602001820160405280156116ab578160200160208202803883390190505b5090506000805b600284015481101561175757856001600160a01b03168460020182815481106116d757fe5b6000918252602090912001546001600160a01b031614156116f75761174f565b83600201818154811061170657fe5b9060005260206000200160009054906101000a90046001600160a01b031683838151811061173057fe5b6001600160a01b03909216602092830291909101909101526001909101905b6001016116b2565b506001600160a01b03851660009081526001840160209081526040909120805460ff191690558251611791916002860191908501906140a5565b505050505b505050565b336000908152600080516020614283833981519152602052604090205461232360f11b9060ff166117fd5760405162461bcd60e51b81526004018080602001828103825260288152602001806144556028913960400191505060405180910390fd5b600080611808613ae6565b905060215481141561183057601f54601e546118299163ffffffff6112d616565b915061185a565b611857601f5461184b836022546111d890919063ffffffff16565b9063ffffffff6112d616565b91505b811561179657600754601d54611882916001600160a01b039081169161010090041684611318565b601f54611895908363ffffffff61127c16565b601f55505050565b60006118aa848484611318565b611920846118b661374d565b61191b85604051806060016040528060288152602001614360602891396001600160a01b038a166000908152600160205260408120906118f461374d565b6001600160a01b03168152602081019190915260400160002054919063ffffffff61364e16565b613751565b5060019392505050565b60055460ff1690565b600061152a61194061374d565b8461191b856001600061195161374d565b6001600160a01b03908116825260208083019390935260409182016000908120918c16815292529020549063ffffffff61127c16565b6024546025546026546101009092046001600160a01b031692909190565b6007546001600160a01b031681565b336000908152600080516020614283833981519152602052604081205481908190819081908190819061232360f11b9060ff16611a225760405162461bcd60e51b81526004018080602001828103825260288152602001806144556028913960400191505060405180910390fd5b601d60019054906101000a90046001600160a01b031697506008549650601e5495506020549450601f549350611a56613ae6565b9250602154831415611a7e57601f54601e54611a779163ffffffff6112d616565b9150611a9c565b611a99601f5461184b856022546111d890919063ffffffff16565b91505b5090919293949596565b600554600160a81b900460ff1690565b60135460009060ff1615611aff576040805162461bcd60e51b815260206004820152601e6024820152600080516020614411833981519152604482015290519081900360640190fd5b6000600e5411611b405760405162461bcd60e51b81526004018080602001828103825260268152602001806142ed6026913960400191505060405180910390fd5b600e54611b5490839063ffffffff61123a16565b90505b919050565b60135460009060ff1615611ba5576040805162461bcd60e51b815260206004820152601e6024820152600080516020614411833981519152604482015290519081900360640190fd5b50600b5490565b60085481565b60135460ff1615611bf8576040805162461bcd60e51b815260206004820152601e6024820152600080516020614411833981519152604482015290519081900360640190fd5b611c0061374d565b60055461010090046001600160a01b03908116911614611c55576040805162461bcd60e51b81526020600482018190526024820152600080516020614388833981519152604482015290519081900360640190fd5b600d546001600160a01b031615611cb357611c78826001600160a01b0316613b21565b611cb35760405162461bcd60e51b815260040180806020018281038252602b8152602001806141c3602b913960400191505060405180910390fd5b600d80546001600160a01b0319166001600160a01b038481169190911791829055600e8390551615611cfb57600c80546001600160a01b0319166001600160a01b0384161790555b5050565b6000611b54611d0d83613b27565b6001600160a01b0384166000908152602081905260409020549063ffffffff61127c16565b611d3a61374d565b60055461010090046001600160a01b03908116911614611d8f576040805162461bcd60e51b81526020600482018190526024820152600080516020614388833981519152604482015290519081900360640190fd5b60055460405160009161010090046001600160a01b0316907f8be0079c531659141344cd1fd0a4f28419497f9722a3daafe3b4186f6b6457e0908390a360058054610100600160a81b0319169055565b60135460ff1615611e25576040805162461bcd60e51b815260206004820152601e6024820152600080516020614411833981519152604482015290519081900360640190fd5b611e2d61374d565b60055461010090046001600160a01b03908116911614611e82576040805162461bcd60e51b81526020600482018190526024820152600080516020614388833981519152604482015290519081900360640190fd5b60008111611ec15760405162461bcd60e51b815260040180806020018281038252602b815260200180614258602b913960400191505060405180910390fd5b600b55565b6001600160e01b031981166000908152600660209081526040808320338452600101909152902054606090829060ff16611f315760405162461bcd60e51b81526004018080602001828103825260288152602001806144556028913960400191505060405180910390fd5b6001600160e01b0319831660009081526006602090815260409182902060020180548351818402810184019094528084529091830182828015611f9d57602002820191906000526020600020905b81546001600160a01b03168152600190910190602001808311611f7f575b5050505050915050919050565b6001600160e01b031982166000908152600660209081526040808320338452600101909152902054829060ff166120125760405162461bcd60e51b81526004018080602001828103825260288152602001806144556028913960400191505060405180910390fd5b61201b83613b2d565b61202457611796565b506001600160e01b03199190911660009081526006602090815260408083206001600160a01b0390941680845260018086018452918420805460ff191683179055600290940180549182018155835291200180546001600160a01b0319169091179055565b336000908152600080516020614283833981519152602052604090205461232360f11b9060ff166120eb5760405162461bcd60e51b81526004018080602001828103825260288152602001806144556028913960400191505060405180910390fd5b6120f961232360f11b613b2d565b61210257611796565b811561179657601d546121249061010090046001600160a01b03168484611318565b602054612137908363ffffffff61127c16565b602055505050565b60135460ff1615612185576040805162461bcd60e51b815260206004820152601e6024820152600080516020614411833981519152604482015290519081900360640190fd5b61218d61374d565b60055461010090046001600160a01b039081169116146121e2576040805162461bcd60e51b81526020600482018190526024820152600080516020614388833981519152604482015290519081900360640190fd5b600d80546001600160a01b0319169055565b60055461010090046001600160a01b031690565b600f546001600160a01b031690565b60048054604080516020601f600260001961010060018816150201909516949094049384018190048102820181019092528281526060939092909183018282801561150b5780601f106114e05761010080835404028352916020019161150b565b61228061374d565b60055461010090046001600160a01b039081169116146122d5576040805162461bcd60e51b81526020600482018190526024820152600080516020614388833981519152604482015290519081900360640190fd5b601b5460ff16156122e557600080fd5b601b805460ff191660011790558281146122fe57600080fd5b6000805b8481101561243457600084848381811061231857fe5b9050602002013590506000811161232e57600080fd5b601c600088888581811061233e57fe5b905060200201356001600160a01b03166001600160a01b03166001600160a01b031681526020019081526020016000206000015460001461237e57600080fd5b61238e838263ffffffff61127c16565b92506040518060600160405280828152602001600081526020016123c36019546103f1600954866111d890919063ffffffff16565b9052601c60008989868181106123d557fe5b905060200201356001600160a01b03166001600160a01b03166001600160a01b03168152602001908152602001600020600082015181600001556020820151816001015560408201518160020155905050508080600101915050612302565b5060195481146124755760405162461bcd60e51b815260040180806020018281038252603681526020018061416a6036913960400191505060405180910390fd5b5050505050565b60135460ff16156124c2576040805162461bcd60e51b815260206004820152601e6024820152600080516020614411833981519152604482015290519081900360640190fd5b6000600e54116125035760405162461bcd60e51b81526004018080602001828103825260268152602001806142ed6026913960400191505060405180910390fd5b600f5460075460408051636eb1769f60e11b815233600482018190526001600160a01b039384166024830152915191938593169163dd62ed3e91604480820192602092909190829003018186803b15801561255d57600080fd5b505afa158015612571573d6000803e3d6000fd5b505050506040513d602081101561258757600080fd5b505110156125c65760405162461bcd60e51b815260040180806020018281038252602c815260200180614313602c913960400191505060405180910390fd5b60006125dd600e548461123a90919063ffffffff16565b905060006125f9610496600e54846111d890919063ffffffff16565b9050801561261457612611848263ffffffff6112d616565b93505b600f54600754604080516323b872dd60e01b81526001600160a01b038781166004830152928316602482015260448101889052905191909216916323b872dd9160648083019260209291908290030181600087803b15801561267557600080fd5b505af1158015612689573d6000803e3d6000fd5b505050506040513d602081101561269f57600080fd5b50506007546126b8906001600160a01b03168484611318565b50505050565b600061152a6126cb61374d565b8461191b856040518060600160405280602581526020016144a160259139600160006126f561374d565b6001600160a01b03908116825260208083019390935260409182016000908120918d1681529252902054919063ffffffff61364e16565b600061152a61273961374d565b8484611318565b336000818152601760205260409020546127a1576040805162461bcd60e51b815260206004820152601b60248201527f4369746164656c496e766573746f72733a207465616d206f6e6c790000000000604482015290519081900360640190fd5b6001600160a01b03811660009081526017602090815260408083208151606081018352815481526001820154818501526002909101548183015260145460158054845181870281018701909552808552612832959394929383018282801561282857602002820191906000526020600020905b815481526020019060010190808311612814575b5050505050613dbe565b905080831115612889576040805162461bcd60e51b815260206004820181905260248201527f4369746164656c496e766573746f72733a20746f6f2062696720616d6f756e74604482015290519081900360640190fd5b6001600160a01b0382166000908152601760205260409020600101546128b5908463ffffffff61127c16565b6001600160a01b0383166000908152601760205260409020600181018290555410156128e057600080fd5b6013546117969061010090046001600160a01b03168385611318565b60135460ff1615612942576040805162461bcd60e51b815260206004820152601e6024820152600080516020614411833981519152604482015290519081900360640190fd5b61294a61374d565b60055461010090046001600160a01b0390811691161461299f576040805162461bcd60e51b81526020600482018190526024820152600080516020614388833981519152604482015290519081900360640190fd5b6129b1816001600160a01b0316613b21565b6129ec5760405162461bcd60e51b815260040180806020018281038252602b8152602001806141c3602b913960400191505060405180910390fd5b600f80546001600160a01b0319166001600160a01b0392909216919091179055565b60095481565b60135460009060ff1615612a5d576040805162461bcd60e51b815260206004820152601e6024820152600080516020614411833981519152604482015290519081900360640190fd5b600d546001600160a01b031615612acc576000612a7861112a565b5050509150506000612a9d6305f5e1006103f1600e54856111d890919063ffffffff16565b90506000612ab1858363ffffffff61123a16565b9050601054811115612ac257506010545b9250611b57915050565b600b5415610568576000612aeb600b548461123a90919063ffffffff16565b9050601054811115612afc57506010545b9050611b57565b60135460ff1615612b49576040805162461bcd60e51b815260206004820152601e6024820152600080516020614411833981519152604482015290519081900360640190fd5b612b5161374d565b60055461010090046001600160a01b03908116911614612ba6576040805162461bcd60e51b81526020600482018190526024820152600080516020614388833981519152604482015290519081900360640190fd5b60105415612bc757600754601054612bc7916001600160a01b031690613f19565b6013805460ff19166001179055565b336000818152601c6020526040902054612c37576040805162461bcd60e51b815260206004820152601f60248201527f4369746164656c496e766573746f72733a20696e766573746f72206f6e6c7900604482015290519081900360640190fd5b6001600160a01b0381166000908152601c6020908152604080832081516060810183528154815260018201548185015260029091015481830152601954601a8054845181870281018701909552808552612cc695939492938301828280156128285760200282019190600052602060002090815481526020019060010190808311612814575050505050613dbe565b905080831115612d1d576040805162461bcd60e51b815260206004820181905260248201527f4369746164656c496e766573746f72733a20746f6f2062696720616d6f756e74604482015290519081900360640190fd5b6001600160a01b0382166000908152601c6020526040902060010154612d49908463ffffffff61127c16565b6001600160a01b0383166000908152601c6020526040902060018101829055541015612d7457600080fd5b601854611796906001600160a01b03168385611318565b336000908152600080516020614283833981519152602052604090205461232360f11b9060ff16612ded5760405162461bcd60e51b81526004018080602001828103825260288152602001806144556028913960400191505060405180910390fd5b612dfb61232360f11b613b2d565b612e0457611796565b600f54600754604080516323b872dd60e01b81526001600160a01b039283166004820152868316602482015260448101869052905191909216916323b872dd9160648083019260209291908290030181600087803b158015612e6557600080fd5b505af1158015612e79573d6000803e3d6000fd5b505050506040513d602081101561247557600080fd5b601354600090819060ff1615612eda576040805162461bcd60e51b815260206004820152601e6024820152600080516020614411833981519152604482015290519081900360640190fd5b5050600d54600e546001600160a01b0390911691565b60105481565b6001600160a01b03918216600090815260016020908152604080832093909416825291909152205490565b3360009081527fad163f75977e86d8427e668c599339ee6d32ca17a8a0b567bcfba0afdfe600b660205260409020546121a360f11b9060ff16612f955760405162461bcd60e51b81526004018080602001828103825260288152602001806144556028913960400191505060405180910390fd5b612fa36121a360f11b613b2d565b612fac57611796565b811561179657602454612fce9061010090046001600160a01b03168484611318565b602654612fe1908363ffffffff61127c16565b602655505050565b60135460ff161561302f576040805162461bcd60e51b815260206004820152601e6024820152600080516020614411833981519152604482015290519081900360640190fd5b61303761374d565b60055461010090046001600160a01b0390811691161461308c576040805162461bcd60e51b81526020600482018190526024820152600080516020614388833981519152604482015290519081900360640190fd5b601155565b336000908152600080516020614283833981519152602052604090205461232360f11b9060ff166130f35760405162461bcd60e51b81526004018080602001828103825260288152602001806144556028913960400191505060405180910390fd5b61310161232360f11b613b2d565b61310a57611796565b6040516001600160a01b0384169083156108fc029084906000818181858888f193505050501580156126b8573d6000803e3d6000fd5b61314861374d565b60055461010090046001600160a01b0390811691161461319d576040805162461bcd60e51b81526020600482018190526024820152600080516020614388833981519152604482015290519081900360640190fd5b60165460ff16156131ad57600080fd5b6016805460ff191660011790558281146131c657600080fd5b6000805b848110156132fc5760008484838181106131e057fe5b905060200201359050600081116131f657600080fd5b6017600088888581811061320657fe5b905060200201356001600160a01b03166001600160a01b03166001600160a01b031681526020019081526020016000206000015460001461324657600080fd5b613256838263ffffffff61127c16565b925060405180606001604052808281526020016000815260200161328b6014546103f1600954866111d890919063ffffffff16565b90526017600089898681811061329d57fe5b905060200201356001600160a01b03166001600160a01b03166001600160a01b031681526020019081526020016000206000820151816000015560208201518160010155604082015181600201559050505080806001019150506131ca565b5060145481146124755760405162461bcd60e51b815260040180806020018281038252603681526020018061416a6036913960400191505060405180910390fd5b60135460ff1690565b61334e61374d565b60055461010090046001600160a01b039081169116146133a3576040805162461bcd60e51b81526020600482018190526024820152600080516020614388833981519152604482015290519081900360640190fd5b6001600160a01b0381166133e85760405162461bcd60e51b81526004018080602001828103825260268152602001806142106026913960400191505060405180910390fd5b6005546040516001600160a01b0380841692610100900416907f8be0079c531659141344cd1fd0a4f28419497f9722a3daafe3b4186f6b6457e090600090a3600580546001600160a01b0390921661010002610100600160a81b0319909216919091179055565b60085490565b6008546001600160a01b0382166000908152601c60209081526040808320805460018201546002909201548351606081018552828152808601849052808501829052601954601a80548751818a0281018a01909852808852949995989793964296909603956134fb959394929390928301828280156128285760200282019190600052602060002090815481526020019060010190808311612814575050505050613dbe565b925091939590929450565b6008546001600160a01b0382166000908152601760209081526040808320805460018201546002909201548351606081018552828152808601849052808501829052601454601580548751818a0281018a01909852808852949995989793964296909603956134fb959394929390928301828280156128285760200282019190600052602060002090815481526020019060010190808311612814575050505050613dbe565b600081836136385760405162461bcd60e51b81526004018080602001828103825283818151815260200191508051906020019080838360005b838110156135fd5781810151838201526020016135e5565b50505050905090810190601f16801561362a5780820380516001836020036101000a031916815260200191505b509250505060405180910390fd5b50600083858161364457fe5b0495945050505050565b600081848411156136a05760405162461bcd60e51b81526020600482018181528351602484015283519092839260449091019190850190808383600083156135fd5781810151838201526020016135e5565b505050900390565b6136b3838383611796565b6103e83311613709576040805162461bcd60e51b815260206004820152601960248201527f4369746164656c546f6b656e3a2066616b652073656e64657200000000000000604482015290519081900360640190fd5b613711611aa6565b156117965760405162461bcd60e51b815260040180806020018281038252602a8152602001806144c6602a913960400191505060405180910390fd5b3390565b6001600160a01b0383166137965760405162461bcd60e51b81526004018080602001828103825260248152602001806144316024913960400191505060405180910390fd5b6001600160a01b0382166137db5760405162461bcd60e51b81526004018080602001828103825260228152602001806142366022913960400191505060405180910390fd5b6001600160a01b03808416600081815260016020908152604080832094871680845294825291829020859055815185815291517f8c5be1e5ebec7d5bd14f71427d1e84f3dd0314c0f7b2291e5b200ac8c7c3b9259281900390910190a3505050565b6001600160e01b0319811660009081526006602052604081208054600282015481141561386957600019015b600080356001600160e01b03191690506000803660405180838380828437604080519190930181900390206001600160e01b03198816600090815260038b01602052929092206001015491955050159250613a26915050576001600160e01b0319821660009081526003850160205260409020548114156139af5760005b6001600160e01b03198316600090815260038601602052604090206002015481101561396b576001600160e01b031983166000908152600386016020526040902060020180543391908390811061393a57fe5b6000918252602090912001546001600160a01b0316141561396357600095505050505050611b57565b6001016138e7565b506001600160e01b03198216600090815260038501602090815260408220600201805460018101825590835291200180546001600160a01b03191633179055613a21565b6001600160e01b03198216600090815260038501602052604081208281554260018201556139e29160029091019061410a565b6001600160e01b03198216600090815260038501602090815260408220600201805460018101825590835291200180546001600160a01b031916331790555b613a72565b6001600160e01b0319821660009081526003850160209081526040822083815542600180830191909155600290910180549182018155835291200180546001600160a01b031916331790555b6001600160e01b0319821660009081526003850160205260409020600201548311613ad9576001600160e01b03198216600090815260038501602052604081208181556001810182905590613aca600283018261410a565b50506001945050505050611b57565b6000945050505050611b57565b6000806008544203905060006023548281613afd57fe5b0490506021548110613b155760215492505050611513565b60010191506115139050565b3b151590565b50600090565b6001600160e01b031980821660009081526006602052604080822090519192909183359091169083908190369080838380828437604080519190930181900390206001600160e01b03198816600090815260038a01602052929092206001015491955050159250613cff915050576001600160e01b031982166000908152600384016020526040902054811415613c885760005b6001600160e01b031983166000908152600385016020526040902060020154811015613c44576001600160e01b0319831660009081526003850160205260409020600201805433919083908110613c1457fe5b6000918252602090912001546001600160a01b03161415613c3c576000945050505050611b57565b600101613bc1565b506001600160e01b03198216600090815260038401602090815260408220600201805460018101825590835291200180546001600160a01b03191633179055613cfa565b6001600160e01b0319821660009081526003840160205260408120828155426001820155613cbb9160029091019061410a565b6001600160e01b03198216600090815260038401602090815260408220600201805460018101825590835291200180546001600160a01b031916331790555b613d4b565b6001600160e01b0319821660009081526003840160209081526040822083815542600180830191909155600290910180549182018155835291200180546001600160a01b031916331790555b82546001600160e01b03198316600090815260038501602052604090206002015410613db2576001600160e01b03198216600090815260038401602052604081208181556001810182905590613da4600283018261410a565b505060019350505050611b57565b60009350505050611b57565b600080613dca42614021565b905060008490508184511115613ecc576000808311613dea576000613def565b600183035b9050613e1c60646103f1878481518110613e0557fe5b6020026020010151896111d890919063ffffffff16565b91508215613e9c576000613e558361184b60646103f18a8981518110613e3e57fe5b60200260200101518c6111d890919063ffffffff16565b9050613e826301e133806103f16301e13380600854420381613e7357fe5b8591900663ffffffff6111d816565b9050613e94838263ffffffff61127c16565b925050613eca565b613ec76301e133806103f16301e13380600854420381613eb857fe5b8691900663ffffffff6111d816565b91505b505b613ee96009546103f18860400151846111d890919063ffffffff16565b8651909150811115613ef9575084515b6020860151613f0f90829063ffffffff6112d616565b9695505050505050565b6001600160a01b038216613f5e5760405162461bcd60e51b81526004018080602001828103825260218152602001806143a86021913960400191505060405180910390fd5b613f6a826000836136a8565b613fad816040518060600160405280602281526020016141ee602291396001600160a01b038516600090815260208190526040902054919063ffffffff61364e16565b6001600160a01b038316600090815260208190526040902055600254613fd9908263ffffffff6112d616565b6002556040805182815290516000916001600160a01b038516917fddf252ad1be2c89b69c2b068fc378daa952ba7f163c4a11628f55a4df523b3ef9181900360200190a35050565b6000806140566301e133806103f16402540be40061404a600854886112d690919063ffffffff16565b9063ffffffff6111d816565b905060008111801561406d57506402540be4008106155b156140895761408681633b9aca0063ffffffff6112d616565b90505b61409e816402540be40063ffffffff61123a16565b9392505050565b8280548282559060005260206000209081019282156140fa579160200282015b828111156140fa57825182546001600160a01b0319166001600160a01b039091161782556020909201916001909101906140c5565b5061410692915061412b565b5090565b5080546000825590600052602060002090810190614128919061414f565b50565b61151391905b808211156141065780546001600160a01b0319168155600101614131565b61151391905b80821115614106576000815560010161415556fe4369746164656c496e766573746f72733a20746f74616c20616d6f756e74206d75737420626520657175616c207465616d207061727445524332303a207472616e7366657220746f20746865207a65726f20616464726573734369746164656c45786368616e67653a20616464726573732073686f756c6420626520636f6e747261637445524332303a206275726e20616d6f756e7420657863656564732062616c616e63654f776e61626c653a206e6577206f776e657220697320746865207a65726f206164647265737345524332303a20617070726f766520746f20746865207a65726f20616464726573734369746164656c45786368616e67653a20627579696e6720726174652063616e6e6f74206265207a65726fabbac90b0ac1d0b62c8cc740fe447a12292688b6fd9930dbc5ac385793ac7b3845524332303a207472616e7366657220616d6f756e7420657863656564732062616c616e63654369746164656c45786368616e67653a2062757965722072656163686564206c696d69744369746164656c45786368616e67653a20756e646566696e6564206d61726b657420726174654369746164656c45786368616e67653a20616c6c6f77207573207472616e7366657220796f75722075736474536166654d6174683a206d756c7469706c69636174696f6e206f766572666c6f7745524332303a207472616e7366657220616d6f756e74206578636565647320616c6c6f77616e63654f776e61626c653a2063616c6c6572206973206e6f7420746865206f776e657245524332303a206275726e2066726f6d20746865207a65726f20616464726573734d756c74697369673a20616c7265616479206d696e696d756d2061646472657373657345524332303a207472616e736665722066726f6d20746865207a65726f20616464726573734369746164656c45786368616e67653a206d61726b657420636c6f736564000045524332303a20617070726f76652066726f6d20746865207a65726f20616464726573734d756c74697369673a20596f752063616e6e6f7420657865637574652074686973206d6574686f644369746164656c45786368616e67653a20746f6b656e7320616c726561647920736f6c6445524332303a2064656372656173656420616c6c6f77616e63652062656c6f77207a65726f45524332305061757361626c653a20746f6b656e207472616e73666572207768696c6520706175736564a26469706673582212201fc5c5c16773a1406e38dc54a55e25acad6a120605222f4a5d2e06a65d0b0a1164736f6c63430006020033",
  "source": "// SPDX-License-Identifier: GPL-3.0\npragma solidity 0.6.2;\n\nimport \"./CitadelFoundationFund.sol\";\n\n\ncontract CitadelCommunityFund is CitadelFoundationFund {\n\n    bool private _isInitialized;\n    address private _addressCF;\n    uint256 private _budget;\n    uint256 private _budgetUsed;\n\n    function getCFInfo() external view returns (\n        address addr,\n        uint256 budget,\n        uint256 badgeUsed\n    ) {\n        addr = _addressCF;\n        budget = _budget;\n        badgeUsed = _budgetUsed;\n    }\n\n    function transferCF(address account, uint256 amount) external multisig(bytes4(\"CF\")) {\n        if (!_isMultisigReady(bytes4(\"CF\"))) return;\n        if (amount > 0) {\n            _transfer(_addressCF, account, amount);\n            _budgetUsed = _budgetUsed.add(amount);\n        }\n    }\n\n    function _initCFBudget(address addr, uint256 budget) internal {\n\n        require(!_isInitialized);\n        require(addr != address(0), \"CitadelCommunityFund: incorrect address\");\n        require(budget > 0, \"CitadelCommunityFund: empty budget\");\n\n        _isInitialized = true;\n        _addressCF = addr;\n        _budget = budget;\n\n    }\n\n}\n",
  "sourcePath": "/home/pirat/Desktop/DAO/contracts/Token/CitadelCommunityFund.sol",
  "compiler": {
    "name": "solc",
    "version": "0.6.2+commit.bacdbe57.Emscripten.clang"
  },
  "schemaVersion": "3.2.5",
  "updatedAt": "2020-12-28T08:47:24.986Z",
  "devdoc": {
    "methods": {
      "allowance(address,address)": {
        "details": "See {IERC20-allowance}."
      },
      "approve(address,uint256)": {
        "details": "See {IERC20-approve}.     * Requirements:     * - `spender` cannot be the zero address."
      },
      "balanceOf(address)": {
        "details": "See {IERC20-balanceOf}."
      },
      "decimals()": {
        "details": "Returns the number of decimals used to get its user representation. For example, if `decimals` equals `2`, a balance of `505` tokens should be displayed to a user as `5,05` (`505 / 10 ** 2`).     * Tokens usually opt for a value of 18, imitating the relationship between Ether and Wei. This is the value {ERC20} uses, unless {_setupDecimals} is called.     * NOTE: This information is only used for _display_ purposes: it in no way affects any of the arithmetic of the contract, including {IERC20-balanceOf} and {IERC20-transfer}."
      },
      "decreaseAllowance(address,uint256)": {
        "details": "Atomically decreases the allowance granted to `spender` by the caller.     * This is an alternative to {approve} that can be used as a mitigation for problems described in {IERC20-approve}.     * Emits an {Approval} event indicating the updated allowance.     * Requirements:     * - `spender` cannot be the zero address. - `spender` must have allowance for the caller of at least `subtractedValue`."
      },
      "increaseAllowance(address,uint256)": {
        "details": "Atomically increases the allowance granted to `spender` by the caller.     * This is an alternative to {approve} that can be used as a mitigation for problems described in {IERC20-approve}.     * Emits an {Approval} event indicating the updated allowance.     * Requirements:     * - `spender` cannot be the zero address."
      },
      "name()": {
        "details": "Returns the name of the token."
      },
      "owner()": {
        "details": "Returns the address of the current owner."
      },
      "paused()": {
        "details": "Returns true if the contract is paused, and false otherwise."
      },
      "renounceOwnership()": {
        "details": "Leaves the contract without owner. It will not be possible to call `onlyOwner` functions anymore. Can only be called by the current owner.     * NOTE: Renouncing ownership will leave the contract without an owner, thereby removing any functionality that is only available to the owner."
      },
      "symbol()": {
        "details": "Returns the symbol of the token, usually a shorter version of the name."
      },
      "totalSupply()": {
        "details": "See {IERC20-totalSupply}."
      },
      "transfer(address,uint256)": {
        "details": "See {IERC20-transfer}.     * Requirements:     * - `recipient` cannot be the zero address. - the caller must have a balance of at least `amount`."
      },
      "transferFrom(address,address,uint256)": {
        "details": "See {IERC20-transferFrom}.     * Emits an {Approval} event indicating the updated allowance. This is not required by the EIP. See the note at the beginning of {ERC20};     * Requirements: - `sender` and `recipient` cannot be the zero address. - `sender` must have a balance of at least `amount`. - the caller must have allowance for ``sender``'s tokens of at least `amount`."
      },
      "transferOwnership(address)": {
        "details": "Transfers ownership of the contract to a new account (`newOwner`). Can only be called by the current owner."
      }
    }
  },
  "userdoc": {
    "methods": {}
  }
}