{
  "contractName": "CitadelUnlockFoundFund",
  "abi": [
    {
      "inputs": [
        {
          "internalType": "uint256",
          "name": "budget",
          "type": "uint256"
        },
        {
          "internalType": "address",
          "name": "_tokenAddress",
          "type": "address"
        },
        {
          "internalType": "address[]",
          "name": "multisig",
          "type": "address[]"
        },
        {
          "internalType": "uint256",
          "name": "threshold",
          "type": "uint256"
        },
        {
          "internalType": "uint256",
          "name": "_test_date",
          "type": "uint256"
        }
      ],
      "stateMutability": "nonpayable",
      "type": "constructor"
    },
    {
      "anonymous": false,
      "inputs": [
        {
          "indexed": true,
          "internalType": "address",
          "name": "previousOwner",
          "type": "address"
        },
        {
          "indexed": true,
          "internalType": "address",
          "name": "newOwner",
          "type": "address"
        }
      ],
      "name": "OwnershipTransferred",
      "type": "event"
    },
    {
      "anonymous": false,
      "inputs": [
        {
          "indexed": true,
          "internalType": "uint256",
          "name": "id",
          "type": "uint256"
        },
        {
          "indexed": false,
          "internalType": "address",
          "name": "from",
          "type": "address"
        },
        {
          "indexed": false,
          "internalType": "address",
          "name": "to",
          "type": "address"
        },
        {
          "indexed": false,
          "internalType": "uint256",
          "name": "amount",
          "type": "uint256"
        }
      ],
      "name": "TransferVote",
      "type": "event"
    },
    {
      "inputs": [
        {
          "internalType": "address",
          "name": "",
          "type": "address"
        }
      ],
      "name": "_whitelist",
      "outputs": [
        {
          "internalType": "bool",
          "name": "",
          "type": "bool"
        }
      ],
      "stateMutability": "view",
      "type": "function"
    },
    {
      "inputs": [],
      "name": "multisigWhitelist",
      "outputs": [
        {
          "internalType": "address[]",
          "name": "",
          "type": "address[]"
        }
      ],
      "stateMutability": "view",
      "type": "function"
    },
    {
      "inputs": [
        {
          "internalType": "address",
          "name": "account",
          "type": "address"
        }
      ],
      "name": "multisigWhitelistAdd",
      "outputs": [],
      "stateMutability": "nonpayable",
      "type": "function"
    },
    {
      "inputs": [
        {
          "internalType": "address",
          "name": "account",
          "type": "address"
        }
      ],
      "name": "multisigWhitelistRemove",
      "outputs": [],
      "stateMutability": "nonpayable",
      "type": "function"
    },
    {
      "inputs": [],
      "name": "owner",
      "outputs": [
        {
          "internalType": "address",
          "name": "",
          "type": "address"
        }
      ],
      "stateMutability": "view",
      "type": "function"
    },
    {
      "inputs": [],
      "name": "renounceOwnership",
      "outputs": [],
      "stateMutability": "nonpayable",
      "type": "function"
    },
    {
      "inputs": [],
      "name": "test_date",
      "outputs": [
        {
          "internalType": "uint256",
          "name": "",
          "type": "uint256"
        }
      ],
      "stateMutability": "view",
      "type": "function"
    },
    {
      "inputs": [],
      "name": "token",
      "outputs": [
        {
          "internalType": "contract ICitadelToken",
          "name": "",
          "type": "address"
        }
      ],
      "stateMutability": "view",
      "type": "function"
    },
    {
      "inputs": [],
      "name": "token_deployed",
      "outputs": [
        {
          "internalType": "uint256",
          "name": "",
          "type": "uint256"
        }
      ],
      "stateMutability": "view",
      "type": "function"
    },
    {
      "inputs": [],
      "name": "total",
      "outputs": [
        {
          "internalType": "uint256",
          "name": "",
          "type": "uint256"
        }
      ],
      "stateMutability": "view",
      "type": "function"
    },
    {
      "inputs": [
        {
          "internalType": "address",
          "name": "newOwner",
          "type": "address"
        }
      ],
      "name": "transferOwnership",
      "outputs": [],
      "stateMutability": "nonpayable",
      "type": "function"
    },
    {
      "inputs": [],
      "name": "used",
      "outputs": [
        {
          "internalType": "uint256",
          "name": "",
          "type": "uint256"
        }
      ],
      "stateMutability": "view",
      "type": "function"
    },
    {
      "inputs": [],
      "name": "getBudget",
      "outputs": [
        {
          "internalType": "uint256",
          "name": "",
          "type": "uint256"
        }
      ],
      "stateMutability": "view",
      "type": "function"
    },
    {
      "inputs": [],
      "name": "getTokenAddress",
      "outputs": [
        {
          "internalType": "address",
          "name": "",
          "type": "address"
        }
      ],
      "stateMutability": "view",
      "type": "function"
    },
    {
      "inputs": [
        {
          "internalType": "uint256",
          "name": "_testdate",
          "type": "uint256"
        }
      ],
      "name": "calcUnlockTest",
      "outputs": [
        {
          "internalType": "uint256",
          "name": "",
          "type": "uint256"
        }
      ],
      "stateMutability": "view",
      "type": "function"
    },
    {
      "inputs": [],
      "name": "calcUnlock",
      "outputs": [
        {
          "internalType": "uint256",
          "name": "",
          "type": "uint256"
        }
      ],
      "stateMutability": "view",
      "type": "function"
    },
    {
      "inputs": [
        {
          "internalType": "address",
          "name": "to",
          "type": "address"
        },
        {
          "internalType": "uint256",
          "name": "amount",
          "type": "uint256"
        }
      ],
      "name": "transfer",
      "outputs": [
        {
          "internalType": "bool",
          "name": "",
          "type": "bool"
        }
      ],
      "stateMutability": "nonpayable",
      "type": "function"
    },
    {
      "inputs": [
        {
          "internalType": "int256",
          "name": "period",
          "type": "int256"
        }
      ],
      "name": "_calcUnlockAmount",
      "outputs": [
        {
          "internalType": "uint256",
          "name": "",
          "type": "uint256"
        }
      ],
      "stateMutability": "view",
      "type": "function"
    }
  ],
  "bytecode": "0x60806040523480156200001157600080fd5b50604051620016c0380380620016c08339810160408190526200003491620002d3565b6000620000496001600160e01b036200018616565b600580546001600160a01b0319166001600160a01b038316908117909155604051919250906000907f8be0079c531659141344cd1fd0a4f28419497f9722a3daafe3b4186f6b6457e0908290a35060008511620000c35760405162461bcd60e51b8152600401620000ba9062000435565b60405180910390fd5b6006859055600880546001600160a01b0319166001600160a01b03868116919091179182905560408051637c82e0ad60e11b81529051929091169163f905c15a91600480820192602092909190829003018186803b1580156200012557600080fd5b505afa1580156200013a573d6000803e3d6000fd5b505050506040513d601f19601f82011682018060405250620001609190810190620002ba565b6009556200017883836001600160e01b036200018a16565b600a55506200049392505050565b3390565b60015415620001ad5760405162461bcd60e51b8152600401620000ba90620003b9565b81518111158015620001bf5750600181115b620001de5760405162461bcd60e51b8152600401620000ba9062000400565b600181905560005b825181101562000297576001600260008584815181106200020357fe5b60200260200101516001600160a01b03166001600160a01b0316815260200190815260200160002060006101000a81548160ff02191690831515021790555060038382815181106200025157fe5b60209081029190910181015182546001808201855560009485529290932090920180546001600160a01b0319166001600160a01b039093169290921790915501620001e6565b505050565b80516001600160a01b0381168114620002b457600080fd5b92915050565b600060208284031215620002cc578081fd5b5051919050565b600080600080600060a08688031215620002eb578081fd5b855194506020620002ff888289016200029c565b60408801519095506001600160401b03808211156200031c578384fd5b8189018a601f8201126200032e578485fd5b80519250818311156200033f578485fd5b8383029150620003518483016200046c565b8381528481019082860184840187018e10156200036c578788fd5b8794505b858510156200039a57620003858e826200029c565b83526001949094019391860191860162000370565b5060608c01516080909c01519a9d999c509a9998975050505050505050565b60208082526027908201527f4d756c74697369673a2077686974656c69737420616c726561647920696e69746040820152661a585b1a5e995960ca1b606082015260800190565b6020808252818101527f4d756c74697369673a20696e76616c696420696e6974207468726573686f6c64604082015260600190565b60208082526014908201527f4275646765742063616e2774206265207a65726f000000000000000000000000604082015260600190565b6040518181016001600160401b03811182821017156200048b57600080fd5b604052919050565b61121d80620004a36000396000f3fe608060405234801561001057600080fd5b50600436106101165760003560e01c80637408fa14116100a2578063ac77be3011610071578063ac77be30146101f9578063b65fb6ff14610201578063cfdb63ac14610209578063f2fde38b1461021c578063fc0c546a1461022f57610116565b80637408fa14146101b65780638720de72146101c95780638da5cb5b146101d1578063a9059cbb146101d957610116565b80632ddbd13a116100e95780632ddbd13a14610176578063384a56091461017e5780635f29c3691461019357806363898e2b146101a6578063715018a6146101ae57610116565b806310fe9ae81461011b578063127714c714610139578063184c62a91461014e578063298f811c14610161575b600080fd5b610123610237565b6040516101309190610f8e565b60405180910390f35b610141610247565b60405161013091906111de565b61014161015c366004610f66565b61024d565b61017461016f366004610efa565b610264565b005b61014161031e565b610186610324565b6040516101309190610fdf565b6101746101a1366004610efa565b610386565b61014161051d565b610174610523565b6101416101c4366004610f66565b6105a2565b6101416105ec565b6101236105f2565b6101ec6101e7366004610f1c565b610601565b604051610130919061102c565b6101416107aa565b6101416107b0565b6101ec610217366004610efa565b6107cd565b61017461022a366004610efa565b6107e2565b610123610899565b6008546001600160a01b03165b90565b60065490565b600061025c60095483036105a2565b90505b919050565b3360009081526002602052604090205460ff1661029c5760405162461bcd60e51b81526004016102939061116d565b60405180910390fd5b60006102a66108a8565b509050806102b4575061031b565b506001600160a01b0381166000818152600260205260408120805460ff191660019081179091556003805491820181559091527fc2575a0e9e593c00f959f8c92f12db2869c3395a3b0502d05e2516446f71f85b0180546001600160a01b03191690911790555b50565b60065481565b6060600380548060200260200160405190810160405280929190818152602001828054801561037c57602002820191906000526020600020905b81546001600160a01b0316815260019091019060200180831161035e575b5050505050905090565b3360009081526002602052604090205460ff166103b55760405162461bcd60e51b81526004016102939061116d565b6003546002106103d75760405162461bcd60e51b81526004016102939061112a565b60006103e1610b5b565b509050806103ef575061031b565b600354600154141561040657600180546000190190555b606060016003805490500360405190808252806020026020018201604052801561043a578160200160208202803883390190505b5090506000805b6003548110156104e057846001600160a01b03166003828154811061046257fe5b6000918252602090912001546001600160a01b03161415610482576104d8565b6003818154811061048f57fe5b9060005260206000200160009054906101000a90046001600160a01b03168383815181106104b957fe5b6001600160a01b03909216602092830291909101909101526001909101905b600101610441565b506001600160a01b0384166000908152600260209081526040909120805460ff1916905582516105169160039190850190610e22565b5050505050565b60075481565b61052b610e1e565b6005546001600160a01b039081169116146105585760405162461bcd60e51b8152600401610293906110b4565b6005546040516000916001600160a01b0316907f8be0079c531659141344cd1fd0a4f28419497f9722a3daafe3b4186f6b6457e0908390a3600580546001600160a01b0319169055565b60006276a70082136105b65750600061025f565b630784ce006276a6ff198301818111156105cd5750805b6000828260065402816105dc57fe5b6007549190040395945050505050565b600a5481565b6005546001600160a01b031690565b3360009081526002602052604081205460ff166106305760405162461bcd60e51b81526004016102939061116d565b60008061063b6108a8565b91509150807f1f67d733bebd99d9f0067b97214f23002303872ef6658ec47e68b5cd2827e4d033878760405161067393929190610fa2565b60405180910390a28161068b576000925050506107a4565b600754600654116106ae5760405162461bcd60e51b8152600401610293906111b5565b600084116106ce5760405162461bcd60e51b81526004016102939061107d565b60006106f06009546000600a54116106e657426106ea565b600a545b036105a2565b9050808511156107125760405162461bcd60e51b8152600401610293906110e9565b600780548601905560085460405163a9059cbb60e01b81526001600160a01b039091169063a9059cbb9061074c9089908990600401610fc6565b602060405180830381600087803b15801561076657600080fd5b505af115801561077a573d6000803e3d6000fd5b505050506040513d601f19601f8201168201806040525061079e9190810190610f46565b93505050505b92915050565b60095481565b60006107c86009546000600a54116106e657426106ea565b905090565b60026020526000908152604090205460ff1681565b6107ea610e1e565b6005546001600160a01b039081169116146108175760405162461bcd60e51b8152600401610293906110b4565b6001600160a01b03811661083d5760405162461bcd60e51b815260040161029390611037565b6005546040516001600160a01b038084169216907f8be0079c531659141344cd1fd0a4f28419497f9722a3daafe3b4186f6b6457e090600090a3600580546001600160a01b0319166001600160a01b0392909216919091179055565b6008546001600160a01b031681565b600080600080356001600160e01b0319169050600080366040516108cd929190610f7e565b60408051918290039091206001600160e01b0319841660009081526004602052919091206002015490915015610a7f576001600160e01b031982166000908152600460205260409020600101548114156109fd5760005b6001600160e01b031983166000908152600460205260409020600301548110156109bb576001600160e01b03198316600090815260046020526040902060030180543391908390811061097357fe5b6000918252602090912001546001600160a01b031614156109b35750506001600160e01b0319166000908152600460205260408120549092509050610b57565b600101610924565b506001600160e01b0319821660009081526004602090815260408220600301805460018101825590835291200180546001600160a01b03191633179055610a7a565b6000805460019081018083556001600160e01b031985168352600460205260408320908155908101839055426002820155610a3d91600390910190610e87565b6001600160e01b0319821660009081526004602090815260408220600301805460018101825590835291200180546001600160a01b031916331790555b610ad5565b6000805460019081018083556001600160e01b031985168352600460209081526040842091825581830185905542600283015560039091018054928301815583529091200180546001600160a01b031916331790555b6001600160e01b0319821660009081526004602052604090208054600154600390920154909111610b49576001600160e01b031983166000908152600460205260408120818155600181018290556002810182905590610b386003830182610e87565b505060018194509450505050610b57565b600094509250610b57915050565b9091565b6001546003546000918291811415610b7257600019015b600080356001600160e01b031916905060008036604051610b94929190610f7e565b60408051918290039091206001600160e01b0319841660009081526004602052919091206002015490915015610d48576001600160e01b03198216600090815260046020526040902060010154811415610cc65760005b6001600160e01b03198316600090815260046020526040902060030154811015610c84576001600160e01b031983166000908152600460205260409020600301805433919083908110610c3a57fe5b6000918252602090912001546001600160a01b03161415610c7c5750506001600160e01b0319166000908152600460205260408120549093509150610b579050565b600101610beb565b506001600160e01b0319821660009081526004602090815260408220600301805460018101825590835291200180546001600160a01b03191633179055610d43565b6000805460019081018083556001600160e01b031985168352600460205260408320908155908101839055426002820155610d0691600390910190610e87565b6001600160e01b0319821660009081526004602090815260408220600301805460018101825590835291200180546001600160a01b031916331790555b610d9e565b6000805460019081018083556001600160e01b031985168352600460209081526040842091825581830185905542600283015560039091018054928301815583529091200180546001600160a01b031916331790555b6001600160e01b03198216600090815260046020526040902080546003909101548411610e0f576001600160e01b031983166000908152600460205260408120818155600181018290556002810182905590610dfd6003830182610e87565b50506001819550955050505050610b57565b600095509350610b5792505050565b3390565b828054828255906000526020600020908101928215610e77579160200282015b82811115610e7757825182546001600160a01b0319166001600160a01b03909116178255602090920191600190910190610e42565b50610e83929150610ea5565b5090565b508054600082559060005260206000209081019061031b9190610ec9565b61024491905b80821115610e835780546001600160a01b0319168155600101610eab565b61024491905b80821115610e835760008155600101610ecf565b80356001600160a01b03811681146107a457600080fd5b600060208284031215610f0b578081fd5b610f158383610ee3565b9392505050565b60008060408385031215610f2e578081fd5b610f388484610ee3565b946020939093013593505050565b600060208284031215610f57578081fd5b81518015158114610f15578182fd5b600060208284031215610f77578081fd5b5035919050565b6000828483379101908152919050565b6001600160a01b0391909116815260200190565b6001600160a01b039384168152919092166020820152604081019190915260600190565b6001600160a01b03929092168252602082015260400190565b6020808252825182820181905260009190848201906040850190845b818110156110205783516001600160a01b031683529284019291840191600101610ffb565b50909695505050505050565b901515815260200190565b60208082526026908201527f4f776e61626c653a206e6577206f776e657220697320746865207a65726f206160408201526564647265737360d01b606082015260800190565b6020808252601c908201527f416d6f756e74206d75737420626520726174686572207468616e203000000000604082015260600190565b6020808252818101527f4f776e61626c653a2063616c6c6572206973206e6f7420746865206f776e6572604082015260600190565b60208082526021908201527f446f6e2774206861766520656e6f75676820756e6c6f636b656420746f6b656e6040820152607360f81b606082015260800190565b60208082526023908201527f4d756c74697369673a20616c7265616479206d696e696d756d2061646472657360408201526273657360e81b606082015260800190565b60208082526028908201527f4d756c74697369673a20596f752063616e6e6f742065786563757465207468696040820152671cc81b595d1a1bd960c21b606082015260800190565b6020808252600f908201526e109d5919d95d081a5cc81cdc195b9d608a1b604082015260600190565b9081526020019056fea2646970667358221220ee3a2dfa8beafb31eb47c866c78cde5aadd1ac90a13dbcad9461ec93dd55276764736f6c63430006020033",
  "source": "// SPDX-License-Identifier: GPL-3.0\npragma solidity 0.6.2;\npragma experimental ABIEncoderV2;\n\nimport \"../node_modules/openzeppelin-solidity/contracts/access/Ownable.sol\";\nimport \"./MultisigSingle.sol\";\nimport \"./ICitadelToken.sol\";\n\ncontract CitadelUnlockFoundFund is MultisigSingle, Ownable {\n\n    uint constant PCTDEC = 1e10;\n    uint public total;\n    uint public used;\n    ICitadelToken public token;\n    uint public token_deployed;\n    uint public test_date;\n\n    event TransferVote (uint indexed id, address from, address to, uint amount);\n\n    constructor (\n        uint budget,\n        address _tokenAddress,\n        address[] memory multisig,\n        uint threshold,\n        uint _test_date\n    ) public {\n        require(budget > 0, \"Budget can't be zero\");\n        total = budget;\n        token = ICitadelToken(_tokenAddress);\n        token_deployed = token.deployed();\n        _initMultisigWhitelist(multisig, threshold);\n        test_date = _test_date;\n    }\n\n    function getBudget () external view returns (uint) {\n        return total;\n    }\n\n    function getTokenAddress () external view returns (address) {\n        return address(token);\n    }\n\n    function calcUnlockTest (uint _testdate) external view returns (uint) {\n        return _calcUnlockAmount(int(_testdate) - int(token_deployed));\n    }\n\n    function calcUnlock () external view returns (uint) {\n        return _calcUnlockAmount(int(test_date > 0 ? test_date : block.timestamp) - int(token_deployed));\n    }\n\n    function transfer (address to, uint amount) external multisig() returns (bool) {\n        (bool isReady, uint id) = _isMultisigReady();\n        emit TransferVote(id, msg.sender, to, amount);\n        if (!isReady) return false;\n        require(total > used, \"Budget is spent\");\n        require(amount > 0, \"Amount must be rather than 0\");\n        uint available = _calcUnlockAmount(int(test_date > 0 ? test_date : block.timestamp) - int(token_deployed));\n        require(amount <= available, \"Don't have enough unlocked tokens\");\n        used += amount;\n        return token.transfer(to, amount);\n    }\n\n    function _calcUnlockAmount (int period) public view returns (uint) {\n        if (period <= 90 days) return 0;\n\n        uint full_period = 365 days * 4;\n        uint act_period = uint(period) - 90 days;\n\n        if (act_period > full_period) act_period = full_period;\n\n        uint sum = total * act_period / full_period;\n\n        return sum - used;\n    }\n\n}",
  "sourcePath": "/home/pirat/Desktop/DAO/contracts/CitadelUnlockFoundFund.sol",
  "compiler": {
    "name": "solc",
    "version": "0.6.2+commit.bacdbe57.Emscripten.clang"
  },
  "schemaVersion": "3.2.5",
  "updatedAt": "2021-06-01T14:38:46.615Z",
  "networkType": "ethereum",
  "devdoc": {
    "methods": {
      "owner()": {
        "details": "Returns the address of the current owner."
      },
      "renounceOwnership()": {
        "details": "Leaves the contract without owner. It will not be possible to call `onlyOwner` functions anymore. Can only be called by the current owner.     * NOTE: Renouncing ownership will leave the contract without an owner, thereby removing any functionality that is only available to the owner."
      },
      "transferOwnership(address)": {
        "details": "Transfers ownership of the contract to a new account (`newOwner`). Can only be called by the current owner."
      }
    }
  },
  "userdoc": {
    "methods": {}
  }
}