{
  "contractName": "CitadelRewards",
  "abi": [
    {
      "inputs": [
        {
          "internalType": "address",
          "name": "addressOfToken",
          "type": "address"
        },
        {
          "internalType": "bool",
          "name": "isTest_",
          "type": "bool"
        }
      ],
      "stateMutability": "nonpayable",
      "type": "constructor"
    },
    {
      "anonymous": false,
      "inputs": [
        {
          "indexed": true,
          "internalType": "address",
          "name": "previousOwner",
          "type": "address"
        },
        {
          "indexed": true,
          "internalType": "address",
          "name": "newOwner",
          "type": "address"
        }
      ],
      "name": "OwnershipTransferred",
      "type": "event"
    },
    {
      "inputs": [],
      "name": "owner",
      "outputs": [
        {
          "internalType": "address",
          "name": "",
          "type": "address"
        }
      ],
      "stateMutability": "view",
      "type": "function"
    },
    {
      "inputs": [],
      "name": "renounceOwnership",
      "outputs": [],
      "stateMutability": "nonpayable",
      "type": "function"
    },
    {
      "inputs": [
        {
          "internalType": "address",
          "name": "newOwner",
          "type": "address"
        }
      ],
      "name": "transferOwnership",
      "outputs": [],
      "stateMutability": "nonpayable",
      "type": "function"
    },
    {
      "inputs": [
        {
          "internalType": "uint256",
          "name": "timestamp",
          "type": "uint256"
        }
      ],
      "name": "setTestTimestamp",
      "outputs": [],
      "stateMutability": "nonpayable",
      "type": "function"
    },
    {
      "inputs": [],
      "name": "getYearVesting",
      "outputs": [
        {
          "internalType": "uint256",
          "name": "",
          "type": "uint256"
        }
      ],
      "stateMutability": "view",
      "type": "function"
    },
    {
      "inputs": [
        {
          "internalType": "uint256",
          "name": "value",
          "type": "uint256"
        }
      ],
      "name": "updateInflationPct",
      "outputs": [],
      "stateMutability": "nonpayable",
      "type": "function"
    },
    {
      "inputs": [
        {
          "internalType": "address",
          "name": "userAddress",
          "type": "address"
        }
      ],
      "name": "userFrozeCoins",
      "outputs": [],
      "stateMutability": "nonpayable",
      "type": "function"
    },
    {
      "inputs": [
        {
          "internalType": "address",
          "name": "userAddress",
          "type": "address"
        }
      ],
      "name": "userUnfrozeCoins",
      "outputs": [],
      "stateMutability": "nonpayable",
      "type": "function"
    },
    {
      "inputs": [],
      "name": "getVestingPct",
      "outputs": [
        {
          "internalType": "uint256",
          "name": "",
          "type": "uint256"
        }
      ],
      "stateMutability": "view",
      "type": "function"
    },
    {
      "inputs": [
        {
          "internalType": "address",
          "name": "userAddress",
          "type": "address"
        }
      ],
      "name": "availableVestOf",
      "outputs": [
        {
          "internalType": "uint256",
          "name": "",
          "type": "uint256"
        }
      ],
      "stateMutability": "view",
      "type": "function"
    },
    {
      "inputs": [],
      "name": "version",
      "outputs": [
        {
          "internalType": "string",
          "name": "",
          "type": "string"
        }
      ],
      "stateMutability": "pure",
      "type": "function"
    }
  ],
  "bytecode": "0x60806040523480156200001157600080fd5b50604051620014f9380380620014f9833981016040819052620000349162000341565b6000620000496001600160e01b036200033d16565b600080546001600160a01b0319166001600160a01b0383169081178255604051929350917f8be0079c531659141344cd1fd0a4f28419497f9722a3daafe3b4186f6b6457e0908290a350600180546001600160a01b0319166001600160a01b03848116919091179182905560408051637c82e0ad60e11b81529051929091169163f905c15a91600480820192602092909190829003018186803b158015620000f057600080fd5b505afa15801562000105573d6000803e3d6000fd5b505050506040513d601f19601f820116820180604052506200012b9190810190620003d7565b600255600154604080516326079c6160e11b815290516001600160a01b0390921691634c0f38c291600480820192602092909190829003018186803b1580156200017457600080fd5b505afa15801562000189573d6000803e3d6000fd5b505050506040513d601f19601f82011682018060405250620001af9190810190620003d7565b6005556001546040805162dc25a360e81b815290516000926001600160a01b03169163dc25a300916004808301926080929190829003018186803b158015620001f757600080fd5b505afa1580156200020c573d6000803e3d6000fd5b505050506040513d601f19601f820116820180604052506200023291908101906200038c565b505060408051808201825291825242602080840182815260068054600181810183556000928352965160029182027ff652222313e28459528d920b65115c16c04f3efc82aaedc97be59f3f377c0d3f81019190915592517ff652222313e28459528d920b65115c16c04f3efc82aaedc97be59f3f377c0d409093019290925584518086019095528085529184019283526007805495860181559091529151929091027fa66cc928b5edb82af9bd49922954155ab7b0942694bea4ce44661d9a8736c688810192909255517fa66cc928b5edb82af9bd49922954155ab7b0942694bea4ce44661d9a8736c6899091015550506003805491151560ff1990921691909117905550620003f0565b3390565b6000806040838503121562000354578182fd5b82516001600160a01b03811681146200036b578283fd5b6020840151909250801515811462000381578182fd5b809150509250929050565b60008060008060808587031215620003a2578182fd5b84516001600160a01b0381168114620003b9578283fd5b60208601516040870151606090970151919890975090945092505050565b600060208284031215620003e9578081fd5b5051919050565b6110f980620004006000396000f3fe608060405234801561001057600080fd5b50600436106100a95760003560e01c80638b0a49a7116100715780638b0a49a7146101065780638da5cb5b146101195780638e74b8711461012e578063ab29effb14610141578063f2fde38b14610154578063fd230a791461012e576100a9565b806331b108ac146100ae57806354fd4d50146100d75780635e281e8a146100ec57806370ae5138146100f4578063715018a6146100fc575b600080fd5b6100c16100bc366004610eec565b610167565b6040516100ce91906110ba565b60405180910390f35b6100df6101b5565b6040516100ce9190610fec565b6100c16101d5565b6100c16101ec565b610104610219565b005b610104610114366004610f85565b6102a1565b6101216102b5565b6040516100ce9190610fd8565b61010461013c366004610eec565b6102c4565b61010461014f366004610f85565b6103ab565b610104610162366004610eec565b610409565b6001600160a01b03811660009081526008602052604081206005015461018f575060006101b0565b610197610e4c565b6101a0836104bf565b6080810151606090910151039150505b919050565b6040805180820190915260058152640302e312e360dc1b60208201525b90565b60006101e76101e2610c5a565b610c86565b905090565b6006805460009190600019810190811061020257fe5b906000526020600020906002020160000154905090565b610221610d46565b6000546001600160a01b039081169116146102575760405162461bcd60e51b815260040161024e90611085565b60405180910390fd5b600080546040516001600160a01b03909116907f8be0079c531659141344cd1fd0a4f28419497f9722a3daafe3b4186f6b6457e0908390a3600080546001600160a01b0319169055565b60035460ff166102b057600080fd5b600455565b6000546001600160a01b031690565b6001546001600160a01b031633146102db57600080fd5b6001546040805163ca5c7b9160e01b815290516000926001600160a01b03169163ca5c7b91916004808301926020929190829003018186803b15801561032057600080fd5b505afa158015610334573d6000803e3d6000fd5b505050506040513d601f19601f820116820180604052506103589190810190610f9d565b905060076040518060400160405280838152602001610375610c5a565b90528154600181810184556000938452602093849020835160029093020191825592909101519101556103a782610d4a565b5050565b6001546001600160a01b031633146103c257600080fd5b600660405180604001604052808381526020016103dd610c5a565b905281546001818101845560009384526020938490208351600290930201918255929091015191015550565b610411610d46565b6000546001600160a01b0390811691161461043e5760405162461bcd60e51b815260040161024e90611085565b6001600160a01b0381166104645760405162461bcd60e51b815260040161024e9061103f565b600080546040516001600160a01b03808516939216917f8be0079c531659141344cd1fd0a4f28419497f9722a3daafe3b4186f6b6457e091a3600080546001600160a01b0319166001600160a01b0392909216919091179055565b6104c7610e4c565b61053b60086000846001600160a01b03166001600160a01b031681526020019081526020016000206040518060c00160405290816000820154815260200160018201548152602001600282015481526020016003820154815260200160048201548152602001600582015481525050610da8565b905080604001516000141561066a5760018060009054906101000a90046001600160a01b03166001600160a01b0316634b45aa126040518163ffffffff1660e01b815260040160206040518083038186803b15801561059957600080fd5b505afa1580156105ad573d6000803e3d6000fd5b505050506040513d601f19601f820116820180604052506105d19190810190610f9d565b03815260018054604080516312ada38560e21b815290516001600160a01b0390921691634ab68e1491600480820192602092909190829003018186803b15801561061a57600080fd5b505afa15801561062e573d6000803e3d6000fd5b505050506040513d601f19601f820116820180604052506106529190810190610f9d565b036020820152610660610c5a565b60a08201526101b0565b60015460408051631d0a67e160e01b815290516000926001600160a01b031691631d0a67e1916004808301926020929190829003018186803b1580156106af57600080fd5b505afa1580156106c3573d6000803e3d6000fd5b505050506040513d601f19601f820116820180604052506106e79190810190610f9d565b90506106f1610c5a565b81106106fc57600080fd5b60018054604080516325a2d50960e11b81529051600093926001600160a01b031691634b45aa12916004808301926020929190829003018186803b15801561074357600080fd5b505afa158015610757573d6000803e3d6000fd5b505050506040513d601f19601f8201168201806040525061077b9190810190610f9d565b039050600060018060009054906101000a90046001600160a01b03166001600160a01b0316634ab68e146040518163ffffffff1660e01b815260040160206040518083038186803b1580156107cf57600080fd5b505afa1580156107e3573d6000803e3d6000fd5b505050506040513d601f19601f820116820180604052506108079190810190610f9d565b039050610812610e82565b6001548551604051631e28e97b60e31b81526001600160a01b039092169163f1474bd891610842916004016110ba565b60a06040518083038186803b15801561085a57600080fd5b505afa15801561086e573d6000803e3d6000fd5b505050506040513d601f19601f820116820180604052506108929190810190610f1a565b60015460208701516040516303320ecd60e51b81529293506000926001600160a01b0390921691636641d9a0916108cb916004016110ba565b604080518083038186803b1580156108e257600080fd5b505afa1580156108f6573d6000803e3d6000fd5b505050506040513d601f19601f8201168201806040525061091a9190810190610fb5565b5086519091508414801561093357506005548260400151145b1561094357506101b09350505050565b61094b610eb1565b610953610ed2565b600080868a6020015110156109f1576001805460208c01516040516303320ecd60e51b81526001600160a01b0390921692636641d9a09261099a92909101906004016110ba565b604080518083038186803b1580156109b157600080fd5b505afa1580156109c5573d6000803e3d6000fd5b505050506040513d601f19601f820116820180604052506109e99190810190610fb5565b602085015283525b6000806109fe8686610dfc565b90925090506001600160f81b03198216610a1d57610a1a610c5a565b90505b6001600160f81b03198216600160fc1b14801590610a4157506301e133808b820310155b15610abb57506301e1338099909901608087018190526005546040880151919a918b91600191820110610a7b5760055460408a0152610ab9565b885160c814610ab95788516032108015610a9c575060c860328a6000015103115b15610aaa5788516031190189525b885160c81115610ab95760c889525b505b60055488604001511415610b375760008c60a0015182038d604001518a602001518b606001518c6040015103020202905060646127106301e133808a8481610aff57fe5b0481610b0757fe5b0481610b0f57fe5b0481610b1757fe5b60608f0180519290910490910190525060a08c015250610c509350505050565b60a08c015160408d015160208a01518a5160608c01510202029082030260646127106301e133808a8481610b6757fe5b0481610b6f57fe5b0481610b7757fe5b0481610b7f57fe5b60608f01805192909104918201905260a08e0183905290506001600160f81b03198316600160fc1b1415610bdc5786518952602080880151908a01526040890185905260608901849052608089018290528c516001018d52610c02565b6001600160f81b03198316600160fd1b1415610c0257855160208e018051600101905297505b5a61753045031015610c1a5750505050505050610c50565b505050505050508386600001511080610c365750828660200151105b80610c4b5750610c44610c5a565b8660a00151105b610943575b5050505050919050565b60035460009060ff168015610c7157506000600454115b15610c7f57506004546101d2565b50426101d2565b600154604051636c3ef2c360e01b815260009182916001600160a01b0390911690636c3ef2c390610cbb9086906004016110ba565b60206040518083038186803b158015610cd357600080fd5b505afa158015610ce7573d6000803e3d6000fd5b505050506040513d601f19601f82011682018060405250610d0b9190810190610f9d565b600680549192506064916000198101908110610d2357fe5b906000526020600020906002020160000154820281610d3e57fe5b049392505050565b3390565b610d53816104bf565b6001600160a01b0390911660009081526008602090815260409182902083518155908301516001820155908201516002820155606082015160038201556080820151600482015560a090910151600590910155565b610db0610e4c565b6040518060c0016040528083600001518152602001836020015181526020018360400151815260200183606001518152602001836080015181526020018360a001518152509050919050565b6040820151602082015160009182918115610e1c57819250601060f81b93505b600081118015610e33575082811080610e33575082155b15610e4357600160fd1b93509150815b50509250929050565b6040518060c001604052806000815260200160008152602001600081526020016000815260200160008152602001600081525090565b6040518060a0016040528060008152602001600081526020016000815260200160008152602001600081525090565b60405180606001604052806000815260200160008152602001600081525090565b604051806040016040528060008152602001600081525090565b600060208284031215610efd578081fd5b81356001600160a01b0381168114610f13578182fd5b9392505050565b600060a08284031215610f2b578081fd5b60405160a0810181811067ffffffffffffffff82111715610f4a578283fd5b806040525082518152602083015160208201526040830151604082015260608301516060820152608083015160808201528091505092915050565b600060208284031215610f96578081fd5b5035919050565b600060208284031215610fae578081fd5b5051919050565b60008060408385031215610fc7578081fd5b505080516020909101519092909150565b6001600160a01b0391909116815260200190565b6000602080835283518082850152825b8181101561101857858101830151858201604001528201610ffc565b818111156110295783604083870101525b50601f01601f1916929092016040019392505050565b60208082526026908201527f4f776e61626c653a206e6577206f776e657220697320746865207a65726f206160408201526564647265737360d01b606082015260800190565b6020808252818101527f4f776e61626c653a2063616c6c6572206973206e6f7420746865206f776e6572604082015260600190565b9081526020019056fea26469706673582212202c23b2c9640cbac03d9a4021095e662f629b71f72b7d930b16c46534f836feea64736f6c63430006020033",
  "source": "// SPDX-License-Identifier: GPL-3.0\npragma solidity 0.6.2;\npragma experimental ABIEncoderV2;\n\nimport \"../node_modules/openzeppelin-solidity/contracts/access/Ownable.sol\";\nimport \"./ICitadelVestingTransport.sol\";\n\n\ncontract CitadelRewards is Ownable {\n\n    ICitadelVestingTransport private _Token;\n    uint private _tokenDeployed;\n    bool private _isTest;\n    uint private _testTimestamp;\n    uint private _maxInflationSupply;\n\n    struct Option {\n        uint value;\n        uint date;\n    }\n\n    struct InflationValues {\n        uint inflationPct;\n        uint stakingPct;\n        uint date;\n    }\n\n    struct InflationPointValues {\n        uint inflationPct;\n        uint stakingPct;\n        uint currentSupply;\n        uint yearlySupply;\n        uint date;\n    }\n\n    Option[] private _inflationsPct; // inflation %\n    Option[] private _totalSupplyHistory;\n\n    struct UserSnapshot {\n        uint indexInflation;\n        //uint inflationPct;\n        //uint stakingPct;\n        uint indexSupplyHistory;\n        uint frozen;\n        uint vested;\n        uint claimed;\n        uint dateUpdate;\n    }\n\n    mapping (address => UserSnapshot) private _userSnapshots;\n\n    byte private constant NEXT_NOTHING = 0x00;\n    byte private constant NEXT_INFLATION = 0x10;\n    byte private constant NEXT_SUPPLY = 0x20;\n\n    modifier onlyToken() {\n        require(msg.sender == address(_Token));\n        _;\n    }\n\n    constructor (\n        address addressOfToken,\n        bool isTest_\n    ) public {\n        _Token = ICitadelVestingTransport(addressOfToken);\n        _tokenDeployed = _Token.deployed();\n        _maxInflationSupply = _Token.getMaxSupply();\n        ( , uint inflationPct, , ) = _Token.getVestingInfo();\n        _inflationsPct.push(Option(inflationPct, block.timestamp));\n        _totalSupplyHistory.push(Option(0, block.timestamp));\n        _isTest = isTest_;\n    }\n\n    function setTestTimestamp(uint timestamp) external {\n        require(_isTest);\n        _testTimestamp = timestamp;\n    }\n\n    function getYearVesting() external view returns (uint) {\n        return _yearVestingBudget(_timestamp());\n    }\n\n    function _yearVestingBudget(uint timestamp) internal view returns (uint) {\n        uint yearEmission = _Token.yearInflationEmission(timestamp);\n        return yearEmission * _inflationsPct[_inflationsPct.length-1].value / 100;\n    }\n\n    function _yearVestingBudget(uint timestamp, uint pct) internal view returns (uint) {\n        uint yearEmission = _Token.yearInflationEmission(timestamp);\n        return yearEmission * pct / 100;\n    }\n\n    function updateInflationPct(uint value) external onlyToken {\n        _inflationsPct.push(Option(value, _timestamp()));\n    }\n\n    function userFrozeCoins(address userAddress) external onlyToken {\n        uint totalSupply = _Token.lockedSupply();\n        _totalSupplyHistory.push(Option(totalSupply, _timestamp()));\n        _writeUserSnapshot(userAddress);\n    }\n\n    function userUnfrozeCoins(address userAddress) external onlyToken {\n        uint totalSupply = _Token.lockedSupply();\n        _totalSupplyHistory.push(Option(totalSupply, _timestamp()));\n        _writeUserSnapshot(userAddress);\n    }\n\n    function getVestingPct() external view returns (uint) {\n        return _inflationsPct[_inflationsPct.length-1].value;\n    }\n\n    function availableVestOf(address userAddress) external view returns (uint) {\n        if (_userSnapshots[userAddress].dateUpdate == 0) return 0;\n        UserSnapshot memory snapshot = _makeUserSnapshot(userAddress);\n        return snapshot.vested - snapshot.claimed;\n    }\n\n    function _writeUserSnapshot(address userAddress) private {\n        _userSnapshots[userAddress] = _makeUserSnapshot(userAddress);\n    }\n\n    function _makeUserSnapshot(address userAddress) private view returns (UserSnapshot memory snapshot) {\n        // !!! uint frozenCurrent = _Token.lockedBalanceOf(userAddress);\n        snapshot = _cloneUserSnapshot(_userSnapshots[userAddress]);\n\n        if (snapshot.frozen == 0) {\n            // first staking, just fixing indexes\n            snapshot.indexInflation = _Token.countInflationPoints() - 1;\n            snapshot.indexSupplyHistory = _Token.totalSupplyHistoryCount() - 1;\n            snapshot.dateUpdate = _timestamp();\n            return snapshot;\n        }\n\n        // if we have already staked\n\n        // date when we started staking\n        //uint startedInflationDate = _Token.getInflationStartDate();\n        //require(startedInflationDate < block.timestamp);\n\n        // last yearly checkoint\n        uint savedInflationYear = _Token.getSavedInflationYear();\n        require(savedInflationYear < _timestamp());\n\n        uint lastIndexInflation = _Token.countInflationPoints() - 1;\n        uint lastIndexSupplyHistory = _Token.totalSupplyHistoryCount() - 1;\n\n        /*(\n            uint inflationPct,\n            uint stakingPct,\n            uint currentSupply,\n            uint yearlySupply,\n            uint inflDate\n        ) = _Token.inflationPoint(snapshot.indexInflation);*/\n        ICitadelVestingTransport.InflationPointValues memory inflPoint = _Token.inflationPoint(snapshot.indexInflation);\n\n        (uint totalStakedSupply,) = _Token.totalSupplyHistory(snapshot.indexSupplyHistory);\n\n        if (snapshot.indexInflation == lastIndexInflation && inflPoint.currentSupply == _maxInflationSupply) return snapshot;\n\n        //uint startGas = gasleft();\n        do {\n            // check next options\n            InflationValues memory nextInflation;\n            Option memory nextSupply;\n            uint nextCurrentSupply;\n            uint nextYearlySupply;\n            if (snapshot.indexInflation < lastIndexInflation) {\n                /*!!!(\n                    nextInflation.inflationPct,\n                    nextInflation.stakingPct,\n                    nextCurrentSupply,\n                    nextYearlySupply,\n                    nextInflation.date\n                ) = _Token.inflationPoint(snapshot.indexInflation + 1);*/\n            }\n            if (snapshot.indexSupplyHistory < lastIndexSupplyHistory) {\n                (nextSupply.value, nextSupply.date) = _Token.totalSupplyHistory(snapshot.indexSupplyHistory + 1);\n            }\n            (byte nextStep, uint time) = _findNextStep(nextInflation, nextSupply);\n            if (nextStep == NEXT_NOTHING) time = _timestamp();\n            // check new year\n            //uint happyNewYear = savedInflationYear + ((snapshot.dateUpdate - savedInflationYear) / 365 days + 1) * 365 days;\n            // save vesting inflation\n            //uint vestInflPct = _inflationsPct[snapshot.indexInflation].value;\n            // save user percent\n            //uint userPct = (snapshot.frozen * 1e15 / _totalSupplyHistory[snapshot.indexSupplyHistory].value);\n            // calculate\n            if (nextStep != NEXT_INFLATION && time - savedInflationYear >= 365 days) {\n                savedInflationYear += 365 days;\n                time = savedInflationYear;\n                uint updateUnlock = 1;// !!! yearlySupply * inflPoint.inflationPct * (savedInflationYear - inflDate) / 365 days / 10000;\n                inflPoint.date = time;\n                if (inflPoint.currentSupply + updateUnlock >= _maxInflationSupply) {\n                    // rest part = (_maxInflationSupply - currentSupply) * 10000 / _maxInflationSupply; // pct\n                    // rest part of tokens = _maxInflationSupply - currentSupply;\n                    inflPoint.currentSupply = _maxInflationSupply;\n                    //yearlySupply = _maxInflationSupply;\n                } else {\n                    if (inflPoint.inflationPct != 200) {\n                        if (inflPoint.inflationPct > 50 && inflPoint.inflationPct - 50 > 200) inflPoint.inflationPct -= 50; // -0.5% each year\n                        if (inflPoint.inflationPct < 200) inflPoint.inflationPct = 200; // 2% is minimum\n                    }\n                }\n            }\n            //if (happyNewYear < time) {\n            //    time = happyNewYear;\n            //} else if (nextStep == NEXT_INFLATION) {\n            //} else if (nextStep == NEXT_SUPPLY) {\n            //}\n            \n            // перемножение\n            // 1) yearlySupply * inflationPct // vested\n            // 2) stakingPct\n            // 3) snapshot.frozen\n            // 4) time - snapshot.dateUpdate\n\n            // деление\n            // 1) 10000\n            // 2) 100\n            // 3) totalStakedSupply\n            // 4) 365 days\n\n            if (inflPoint.currentSupply == _maxInflationSupply) {\n                \n                uint upd = (inflPoint.currentSupply - inflPoint.yearlySupply) * inflPoint.stakingPct * snapshot.frozen * (time - snapshot.dateUpdate);\n                upd = upd / totalStakedSupply / 365 days / 10000 / 100;\n\n                snapshot.vested += upd;\n                snapshot.dateUpdate = time;\n                break;\n\n            }\n\n            uint upd = inflPoint.yearlySupply * inflPoint.inflationPct * inflPoint.stakingPct * snapshot.frozen * (time - snapshot.dateUpdate);\n            upd = upd / totalStakedSupply / 365 days / 10000 / 100;\n\n            snapshot.vested += upd;\n            snapshot.dateUpdate = time;\n\n            if (nextStep == NEXT_INFLATION) {\n\n                inflPoint.inflationPct = nextInflation.inflationPct;\n                inflPoint.stakingPct = nextInflation.stakingPct;\n                inflPoint.currentSupply = nextCurrentSupply;\n                inflPoint.yearlySupply = nextYearlySupply;\n                inflPoint.date = time;\n                snapshot.indexInflation++;\n\n            } else if (nextStep == NEXT_SUPPLY) {\n\n                totalStakedSupply = nextSupply.value;\n                snapshot.indexSupplyHistory++;\n\n            }\n\n            // check gas limit\n            //uint gasUsed = startGas - gasleft();\n            if (block.gaslimit - 30000 < gasleft()) break;\n        } while (\n            snapshot.indexInflation < lastIndexInflation ||\n            snapshot.indexSupplyHistory < lastIndexSupplyHistory ||\n            snapshot.dateUpdate < _timestamp()\n        );\n        // final update\n        // !!! snapshot.frozen = frozenCurrent;\n    }\n\n    function _findNextStep(\n        InflationValues memory nextInflation,\n        Option memory nextSupply\n    ) private pure returns (byte lastByte, uint minDate) {\n\n        uint dateInf = nextInflation.date;\n        uint dateSup = nextSupply.date;\n\n        lastByte = NEXT_NOTHING;\n\n        if (dateInf > 0) {\n            minDate = dateInf;\n            lastByte = NEXT_INFLATION;\n        }\n        if (dateSup > 0 && (dateSup < minDate || minDate == 0)) {\n            minDate = dateSup;\n            lastByte = NEXT_SUPPLY;\n        }\n\n    }\n\n    function _cloneUserSnapshot(UserSnapshot memory snapshot) private pure returns (UserSnapshot memory) {\n        return UserSnapshot(\n            snapshot.indexInflation,\n            snapshot.indexSupplyHistory,\n            snapshot.frozen,\n            snapshot.vested,\n            snapshot.claimed,\n            snapshot.dateUpdate\n        );\n    }\n\n    function _timestamp() private view returns (uint) {\n        if (_isTest && _testTimestamp > 0) {\n            return _testTimestamp;\n        } else {\n            return block.timestamp;\n        }\n    }\n\n    function version() external pure returns (string memory) {\n        return '0.1.0';\n    }\n\n}\n",
  "sourcePath": "/home/pirat/Desktop/DAO/contracts/CitadelRewards.sol",
  "compiler": {
    "name": "solc",
    "version": "0.6.2+commit.bacdbe57.Emscripten.clang"
  },
  "schemaVersion": "3.2.5",
  "updatedAt": "2021-06-01T14:37:58.571Z",
  "devdoc": {
    "methods": {
      "owner()": {
        "details": "Returns the address of the current owner."
      },
      "renounceOwnership()": {
        "details": "Leaves the contract without owner. It will not be possible to call `onlyOwner` functions anymore. Can only be called by the current owner.     * NOTE: Renouncing ownership will leave the contract without an owner, thereby removing any functionality that is only available to the owner."
      },
      "transferOwnership(address)": {
        "details": "Transfers ownership of the contract to a new account (`newOwner`). Can only be called by the current owner."
      }
    }
  },
  "userdoc": {
    "methods": {}
  }
}