{
  "contractName": "CitadelRewards",
  "abi": [
    {
      "inputs": [
        {
          "internalType": "address",
          "name": "addressOfToken",
          "type": "address"
        }
      ],
      "stateMutability": "nonpayable",
      "type": "constructor"
    },
    {
      "anonymous": false,
      "inputs": [
        {
          "indexed": true,
          "internalType": "address",
          "name": "previousOwner",
          "type": "address"
        },
        {
          "indexed": true,
          "internalType": "address",
          "name": "newOwner",
          "type": "address"
        }
      ],
      "name": "OwnershipTransferred",
      "type": "event"
    },
    {
      "inputs": [],
      "name": "owner",
      "outputs": [
        {
          "internalType": "address",
          "name": "",
          "type": "address"
        }
      ],
      "stateMutability": "view",
      "type": "function"
    },
    {
      "inputs": [],
      "name": "renounceOwnership",
      "outputs": [],
      "stateMutability": "nonpayable",
      "type": "function"
    },
    {
      "inputs": [
        {
          "internalType": "address",
          "name": "newOwner",
          "type": "address"
        }
      ],
      "name": "transferOwnership",
      "outputs": [],
      "stateMutability": "nonpayable",
      "type": "function"
    },
    {
      "inputs": [
        {
          "internalType": "address",
          "name": "account",
          "type": "address"
        }
      ],
      "name": "claimable",
      "outputs": [
        {
          "internalType": "uint256",
          "name": "",
          "type": "uint256"
        }
      ],
      "stateMutability": "view",
      "type": "function"
    },
    {
      "inputs": [
        {
          "internalType": "address",
          "name": "account",
          "type": "address"
        }
      ],
      "name": "totalVestedOf",
      "outputs": [
        {
          "internalType": "uint256",
          "name": "",
          "type": "uint256"
        }
      ],
      "stateMutability": "view",
      "type": "function"
    },
    {
      "inputs": [
        {
          "internalType": "address",
          "name": "account",
          "type": "address"
        }
      ],
      "name": "totalClaimedOf",
      "outputs": [
        {
          "internalType": "uint256",
          "name": "",
          "type": "uint256"
        }
      ],
      "stateMutability": "view",
      "type": "function"
    },
    {
      "inputs": [
        {
          "internalType": "address",
          "name": "account",
          "type": "address"
        }
      ],
      "name": "updateSnapshot",
      "outputs": [],
      "stateMutability": "nonpayable",
      "type": "function"
    },
    {
      "inputs": [
        {
          "internalType": "address",
          "name": "account",
          "type": "address"
        }
      ],
      "name": "claimFor",
      "outputs": [
        {
          "internalType": "uint256",
          "name": "amount",
          "type": "uint256"
        }
      ],
      "stateMutability": "nonpayable",
      "type": "function"
    },
    {
      "inputs": [],
      "name": "claim",
      "outputs": [
        {
          "internalType": "uint256",
          "name": "amount",
          "type": "uint256"
        }
      ],
      "stateMutability": "nonpayable",
      "type": "function"
    },
    {
      "inputs": [],
      "name": "version",
      "outputs": [
        {
          "internalType": "string",
          "name": "",
          "type": "string"
        }
      ],
      "stateMutability": "pure",
      "type": "function"
    }
  ],
  "bytecode": "0x60806040523480156200001157600080fd5b5060405162001450380380620014508339810160408190526200003491620001bd565b6000620000496001600160e01b03620001b916565b600080546001600160a01b0319166001600160a01b0383169081178255604051929350917f8be0079c531659141344cd1fd0a4f28419497f9722a3daafe3b4186f6b6457e0908290a350600180546001600160a01b0319166001600160a01b03838116919091179182905560408051637c82e0ad60e11b81529051929091169163f905c15a91600480820192602092909190829003018186803b158015620000f057600080fd5b505afa15801562000105573d6000803e3d6000fd5b505050506040513d601f19601f820116820180604052506200012b9190810190620001ed565b600255600154604080516326079c6160e11b815290516001600160a01b0390921691634c0f38c291600480820192602092909190829003018186803b1580156200017457600080fd5b505afa15801562000189573d6000803e3d6000fd5b505050506040513d601f19601f82011682018060405250620001af9190810190620001ed565b6003555062000206565b3390565b600060208284031215620001cf578081fd5b81516001600160a01b0381168114620001e6578182fd5b9392505050565b600060208284031215620001ff578081fd5b5051919050565b61123a80620002166000396000f3fe608060405234801561001057600080fd5b506004361061009e5760003560e01c80638da5cb5b116100665780638da5cb5b14610106578063913f9d911461011b578063d6d789b71461012e578063ddeae03314610141578063f2fde38b146101545761009e565b80633d9eba70146100a3578063402914f5146100b85780634e71d92d146100e157806354fd4d50146100e9578063715018a6146100fe575b600080fd5b6100b66100b1366004610ffe565b610167565b005b6100cb6100c6366004610ffe565b61018a565b6040516100d891906111fb565b60405180910390f35b6100cb6101d8565b6100f16102b6565b6040516100d891906110ff565b6100b66102d5565b61010e610354565b6040516100d891906110d2565b6100cb610129366004610ffe565b610363565b6100cb61013c366004610ffe565b6103a7565b6100cb61014f366004610ffe565b6103c6565b6100b6610162366004610ffe565b610454565b6001546001600160a01b0316331461017e57600080fd5b6101878161050a565b50565b6001600160a01b0381166000908152600460205260408120600501546101b2575060006101d3565b6101ba610f7f565b6101c383610567565b6080810151606090910151039150505b919050565b6000336101e48161050a565b6001600160a01b038116600090815260046020819052604090912090810154600390910154039150816102325760405162461bcd60e51b815260040161022990611198565b60405180910390fd5b6001600160a01b03808216600090815260046020819052604091829020600381015490820155600154915163f3fef3a360e01b8152919092169163f3fef3a3916102809185918791016110e6565b600060405180830381600087803b15801561029a57600080fd5b505af11580156102ae573d6000803e3d6000fd5b505050505090565b6040805180820190915260058152640312e302e360dc1b602082015290565b6102dd610ed3565b6000546001600160a01b0390811691161461030a5760405162461bcd60e51b8152600401610229906111c6565b600080546040516001600160a01b03909116907f8be0079c531659141344cd1fd0a4f28419497f9722a3daafe3b4186f6b6457e0908390a3600080546001600160a01b0319169055565b6000546001600160a01b031690565b6001600160a01b03811660009081526004602052604081206005015461038b575060006101d3565b610393610f7f565b61039c83610567565b606001519392505050565b6001600160a01b03166000908152600460208190526040909120015490565b6001546000906001600160a01b031633146103e057600080fd5b6103e98261050a565b506001600160a01b038116600090815260046020819052604090912090810154600390910154038061042d5760405162461bcd60e51b815260040161022990611198565b6001600160a01b039091166000908152600460208190526040909120600381015491015590565b61045c610ed3565b6000546001600160a01b039081169116146104895760405162461bcd60e51b8152600401610229906111c6565b6001600160a01b0381166104af5760405162461bcd60e51b815260040161022990611152565b600080546040516001600160a01b03808516939216917f8be0079c531659141344cd1fd0a4f28419497f9722a3daafe3b4186f6b6457e091a3600080546001600160a01b0319166001600160a01b0392909216919091179055565b61051381610567565b6001600160a01b03909116600090815260046020818152604092839020845181559084015160018201559183015160028301556060830151600383015560808301519082015560a090910151600590910155565b61056f610f7f565b600154604051632c9aab9b60e11b81526000916001600160a01b0316906359355736906105a09086906004016110d2565b60206040518083038186803b1580156105b857600080fd5b505afa1580156105cc573d6000803e3d6000fd5b505050506040513d601f19601f820116820180604052506105f09190810190611097565b905061066660046000856001600160a01b03166001600160a01b031681526020019081526020016000206040518060c00160405290816000820154815260200160018201548152602001600282015481526020016003820154815260200160048201548152602001600582015481525050610ed7565b915081604001516000141561079a5760018060009054906101000a90046001600160a01b03166001600160a01b0316634b45aa126040518163ffffffff1660e01b815260040160206040518083038186803b1580156106c457600080fd5b505afa1580156106d8573d6000803e3d6000fd5b505050506040513d601f19601f820116820180604052506106fc9190810190611097565b03825260018054604080516312ada38560e21b815290516001600160a01b0390921691634ab68e1491600480820192602092909190829003018186803b15801561074557600080fd5b505afa158015610759573d6000803e3d6000fd5b505050506040513d601f19601f8201168201806040525061077d9190810190611097565b03602083015261078b610f2b565b60a083015260408201526101d3565b60015460408051631d0a67e160e01b815290516000926001600160a01b031691631d0a67e1916004808301926020929190829003018186803b1580156107df57600080fd5b505afa1580156107f3573d6000803e3d6000fd5b505050506040513d601f19601f820116820180604052506108179190810190611097565b9050600060018060009054906101000a90046001600160a01b03166001600160a01b0316634b45aa126040518163ffffffff1660e01b815260040160206040518083038186803b15801561086a57600080fd5b505afa15801561087e573d6000803e3d6000fd5b505050506040513d601f19601f820116820180604052506108a29190810190611097565b039050600060018060009054906101000a90046001600160a01b03166001600160a01b0316634ab68e146040518163ffffffff1660e01b815260040160206040518083038186803b1580156108f657600080fd5b505afa15801561090a573d6000803e3d6000fd5b505050506040513d601f19601f8201168201806040525061092e9190810190611097565b039050610939610fb5565b6001548651604051631e28e97b60e31b81526001600160a01b039092169163f1474bd891610969916004016111fb565b60a06040518083038186803b15801561098157600080fd5b505afa158015610995573d6000803e3d6000fd5b505050506040513d601f19601f820116820180604052506109b9919081019061102c565b60015460208801516040516303320ecd60e51b81529293506000926001600160a01b0390921691636641d9a0916109f2916004016111fb565b604080518083038186803b158015610a0957600080fd5b505afa158015610a1d573d6000803e3d6000fd5b505050506040513d601f19601f82011682018060405250610a4191908101906110af565b50875190915084148015610a5a57506003548260400151145b15610a6b57506101d3945050505050565b610a73610fb5565b610a7b610fe4565b8851861115610b0c57600180548a51604051631e28e97b60e31b81526001600160a01b039092169263f1474bd892610ab992909101906004016111fb565b60a06040518083038186803b158015610ad157600080fd5b505afa158015610ae5573d6000803e3d6000fd5b505050506040513d601f19601f82011682018060405250610b09919081019061102c565b91505b8489602001511015610ba7576001805460208b01516040516303320ecd60e51b81526001600160a01b0390921692636641d9a092610b5092909101906004016111fb565b604080518083038186803b158015610b6757600080fd5b505afa158015610b7b573d6000803e3d6000fd5b505050506040513d601f19601f82011682018060405250610b9f91908101906110af565b602083015281525b600080610bb48484610f2f565b90925090506001600160f81b03198216610bd357610bd0610f2b565b90505b6001600160f81b03198216600160fc1b14801590610bf057508881115b8015610c0257506301e1338089820310155b15610ce657601060f81b91506301e133808901985088905060006127106301e1338088608001518c0389600001518a60600151020281610c3e57fe5b0481610c4657fe5b049050898760800181815250506003548188604001510110610c6f576003546040880152610ce4565b604087810151908601526020808801519086015286516060808901516127109281029290920490910190860152865160c814610cdf5786516032108015610cbd575060c86032886000015103115b15610ccb5786516031190185525b865160c81115610cda5760c885525b610ce4565b865185525b505b60035486604001511415610d555760008b60a0015182038c60400151886020015189606001518a6040015103020202905060646301e13380878381610d2757fe5b0481610d2f57fe5b0481610d3757fe5b60608e0180519290910490910190525060a08b015250610ec4915050565b600060c887600001511015610dab578b60a0015182038c604001518860200151896060015160035403020202905060646301e13380878381610d9357fe5b0481610d9b57fe5b0481610da357fe5b049050610df8565b5060a08b015160408c01516020880151885160608a01510202029082030260646127106301e13380888481610ddc57fe5b0481610de457fe5b0481610dec57fe5b0481610df457fe5b0490505b60608c0180518201905260a08c018290526001600160f81b03198316600160fc1b1415610e545784518752602080860151908801526040808601519088015260608086015190880152608087018290528b516001018c52610e7a565b6001600160f81b03198316600160fd1b1415610e7a57835160208d018051600101905295505b5a61753045031015610e90575050505050610ec4565b50505050508387600001511080610eaa5750828760200151105b80610ebf5750610eb8610f2b565b8760a00151105b610a6b575b50505050506040820152919050565b3390565b610edf610f7f565b6040518060c0016040528083600001518152602001836020015181526020018360400151815260200183606001518152602001836080015181526020018360a001518152509050919050565b4290565b6080820151602082015160009182918115610f4f57819250601060f81b93505b600081118015610f66575082811080610f66575082155b15610f7657600160fd1b93509150815b50509250929050565b6040518060c001604052806000815260200160008152602001600081526020016000815260200160008152602001600081525090565b6040518060a0016040528060008152602001600081526020016000815260200160008152602001600081525090565b604051806040016040528060008152602001600081525090565b60006020828403121561100f578081fd5b81356001600160a01b0381168114611025578182fd5b9392505050565b600060a0828403121561103d578081fd5b60405160a0810181811067ffffffffffffffff8211171561105c578283fd5b806040525082518152602083015160208201526040830151604082015260608301516060820152608083015160808201528091505092915050565b6000602082840312156110a8578081fd5b5051919050565b600080604083850312156110c1578081fd5b505080516020909101519092909150565b6001600160a01b0391909116815260200190565b6001600160a01b03929092168252602082015260400190565b6000602080835283518082850152825b8181101561112b5785810183015185820160400152820161110f565b8181111561113c5783604083870101525b50601f01601f1916929092016040019392505050565b60208082526026908201527f4f776e61626c653a206e6577206f776e657220697320746865207a65726f206160408201526564647265737360d01b606082015260800190565b6020808252601490820152735a65726f20616d6f756e7420746f20636c61696d60601b604082015260600190565b6020808252818101527f4f776e61626c653a2063616c6c6572206973206e6f7420746865206f776e6572604082015260600190565b9081526020019056fea2646970667358221220ea3df81dbdaa4a218770dd275cdb34916e6eedb33182c0eb9adc5b40db89959b64736f6c63430006020033",
  "source": "// SPDX-License-Identifier: GPL-3.0\npragma solidity 0.6.2;\npragma experimental ABIEncoderV2;\n\nimport \"../node_modules/openzeppelin-solidity/contracts/access/Ownable.sol\";\nimport \"./ICitadelVestingTransport.sol\";\n\n\ncontract CitadelRewards is Ownable {\n\n    ICitadelVestingTransport private _Token;\n    uint private _tokenDeployed;\n    uint private _maxInflationSupply;\n\n    struct Option {\n        uint value;\n        uint date;\n    }\n\n    struct InflationValues {\n        uint inflationPct;\n        uint stakingPct;\n        uint date;\n    }\n\n    struct InflationPointValues {\n        uint inflationPct;\n        uint stakingPct;\n        uint currentSupply;\n        uint yearlySupply;\n        uint date;\n    }\n\n    struct UserSnapshot {\n        uint indexInflation;\n        uint indexSupplyHistory;\n        uint frozen;\n        uint vested;\n        uint claimed;\n        uint dateUpdate;\n    }\n\n    mapping (address => UserSnapshot) private _userSnapshots;\n\n    byte private constant NEXT_NOTHING = 0x00;\n    byte private constant NEXT_INFLATION = 0x10;\n    byte private constant NEXT_SUPPLY = 0x20;\n\n    modifier onlyToken() {\n        require(msg.sender == address(_Token));\n        _;\n    }\n\n    constructor (\n        address addressOfToken\n    ) public {\n        _Token = ICitadelVestingTransport(addressOfToken);\n        _tokenDeployed = _Token.deployed();\n        _maxInflationSupply = _Token.getMaxSupply();\n    }\n\n    function claimable(address account) external view returns (uint) {\n        if (_userSnapshots[account].dateUpdate == 0) return 0;\n        UserSnapshot memory snapshot = _makeUserSnapshot(account);\n        return snapshot.vested - snapshot.claimed;\n    }\n\n    function totalVestedOf(address account) external view returns (uint) {\n        if (_userSnapshots[account].dateUpdate == 0) return 0;\n        UserSnapshot memory snapshot = _makeUserSnapshot(account);\n        return snapshot.vested;\n    }\n\n    function totalClaimedOf(address account) external view returns (uint) {\n        return _userSnapshots[account].claimed;\n    }\n\n    function updateSnapshot(address account) external onlyToken {\n        _writeUserSnapshot(account);\n    }\n\n    function claimFor(address account) external onlyToken returns (uint amount) {\n        _writeUserSnapshot(account);\n        amount = _userSnapshots[account].vested - _userSnapshots[account].claimed;\n        require(amount > 0, \"Zero amount to claim\");\n        _userSnapshots[account].claimed = _userSnapshots[account].vested;\n    }\n\n    function claim() external returns (uint amount) {\n        address account = msg.sender;\n        _writeUserSnapshot(account);\n        amount = _userSnapshots[account].vested - _userSnapshots[account].claimed;\n        require(amount > 0, \"Zero amount to claim\");\n        _userSnapshots[account].claimed = _userSnapshots[account].vested;\n        _Token.withdraw(account, amount);\n    }\n\n    function _timestamp() internal virtual view returns (uint) {\n        return block.timestamp;\n    }\n\n    function _writeUserSnapshot(address account) private {\n        _userSnapshots[account] = _makeUserSnapshot(account);\n    }\n\n    function _makeUserSnapshot(address account) private view returns (UserSnapshot memory snapshot) {\n        uint frozenCurrent = _Token.lockedBalanceOf(account);\n        snapshot = _cloneUserSnapshot(_userSnapshots[account]);\n\n        if (snapshot.frozen == 0) {\n            // first staking, just fixing indexes\n            snapshot.indexInflation = _Token.countInflationPoints() - 1;\n            snapshot.indexSupplyHistory = _Token.totalSupplyHistoryCount() - 1;\n            snapshot.dateUpdate = _timestamp();\n            snapshot.frozen = frozenCurrent;\n            return snapshot;\n        }\n\n        // if we have already staked\n\n        // last yearly checkoint\n        uint savedInflationYear = _Token.getSavedInflationYear();\n\n        uint lastIndexInflation = _Token.countInflationPoints() - 1;\n        uint lastIndexSupplyHistory = _Token.totalSupplyHistoryCount() - 1;\n\n        ICitadelVestingTransport.InflationPointValues memory inflPoint = _Token.inflationPoint(snapshot.indexInflation);\n\n        (uint totalStakedSupply,) = _Token.totalSupplyHistory(snapshot.indexSupplyHistory);\n\n        if (snapshot.indexInflation == lastIndexInflation && inflPoint.currentSupply == _maxInflationSupply) return snapshot;\n\n        do {\n            // check next options\n            ICitadelVestingTransport.InflationPointValues memory nextInflation;\n            Option memory nextSupply;\n            if (snapshot.indexInflation < lastIndexInflation) {\n                nextInflation = _Token.inflationPoint(snapshot.indexInflation + 1);\n            }\n            if (snapshot.indexSupplyHistory < lastIndexSupplyHistory) {\n                (nextSupply.value, nextSupply.date) = _Token.totalSupplyHistory(snapshot.indexSupplyHistory + 1);\n            }\n            (byte nextStep, uint time) = _findNextStep(nextInflation, nextSupply);\n            if (nextStep == NEXT_NOTHING) time = _timestamp();\n            \n            // calculate\n\n            if (nextStep != NEXT_INFLATION && time > savedInflationYear && time - savedInflationYear >= 365 days) {\n                nextStep = NEXT_INFLATION;\n                savedInflationYear += 365 days;\n                time = savedInflationYear;\n                uint updateUnlock = inflPoint.yearlySupply * inflPoint.inflationPct * (savedInflationYear - inflPoint.date) / 365 days / 10000;\n                inflPoint.date = savedInflationYear;\n                if (inflPoint.currentSupply + updateUnlock >= _maxInflationSupply) {\n\n                    inflPoint.currentSupply = _maxInflationSupply;\n\n                } else {\n\n                    nextInflation.currentSupply = inflPoint.currentSupply;\n                    nextInflation.stakingPct = inflPoint.stakingPct;\n                    nextInflation.yearlySupply = inflPoint.yearlySupply + inflPoint.yearlySupply * inflPoint.inflationPct / 10000;\n                    if (inflPoint.inflationPct != 200) {\n                        if (inflPoint.inflationPct > 50 && inflPoint.inflationPct - 50 > 200) nextInflation.inflationPct = inflPoint.inflationPct - 50; // -0.5% each year\n                        if (inflPoint.inflationPct < 200) nextInflation.inflationPct = 200; // 2% is minimum\n                    } else {\n                        nextInflation.inflationPct = inflPoint.inflationPct;\n                    }\n\n                }\n            }\n            \n            // Multiplying\n            // 1) yearlySupply * inflationPct // vested\n            // 2) stakingPct\n            // 3) snapshot.frozen\n            // 4) time - snapshot.dateUpdate\n\n            // Dividing\n            // 1) 10000\n            // 2) 100\n            // 3) totalStakedSupply\n            // 4) 365 days\n\n            if (inflPoint.currentSupply == _maxInflationSupply) {\n                \n                uint upd = (inflPoint.currentSupply - inflPoint.yearlySupply) * inflPoint.stakingPct * snapshot.frozen * (time - snapshot.dateUpdate);\n                upd = upd / totalStakedSupply / 365 days / 100;\n                snapshot.vested += upd;\n                snapshot.dateUpdate = time;\n                break;\n\n            }\n\n            uint upd;\n            if (inflPoint.inflationPct < 200) {\n                upd = (_maxInflationSupply - inflPoint.yearlySupply) * inflPoint.stakingPct * snapshot.frozen * (time - snapshot.dateUpdate);\n                upd = upd / totalStakedSupply / 365 days / 100;\n            } else {\n                upd = inflPoint.yearlySupply * inflPoint.inflationPct * inflPoint.stakingPct * snapshot.frozen * (time - snapshot.dateUpdate);\n                upd = upd / totalStakedSupply / 365 days / 10000 / 100;\n            }\n            \n            snapshot.vested += upd;\n            snapshot.dateUpdate = time;\n\n            if (nextStep == NEXT_INFLATION) {\n\n                inflPoint.inflationPct = nextInflation.inflationPct;\n                inflPoint.stakingPct = nextInflation.stakingPct;\n                inflPoint.currentSupply = nextInflation.currentSupply;\n                inflPoint.yearlySupply = nextInflation.yearlySupply;\n                inflPoint.date = time;\n                snapshot.indexInflation++;\n\n            } else if (nextStep == NEXT_SUPPLY) {\n\n                totalStakedSupply = nextSupply.value;\n                snapshot.indexSupplyHistory++;\n\n            }\n\n            // check gas limit\n            if (block.gaslimit - 30000 < gasleft()) break;\n        } while (\n            snapshot.indexInflation < lastIndexInflation ||\n            snapshot.indexSupplyHistory < lastIndexSupplyHistory ||\n            snapshot.dateUpdate < _timestamp()\n        );\n        // final update\n        snapshot.frozen = frozenCurrent;\n    }\n\n    function _findNextStep(\n        ICitadelVestingTransport.InflationPointValues memory nextInflation,\n        Option memory nextSupply\n    ) private pure returns (byte lastByte, uint minDate) {\n\n        uint dateInf = nextInflation.date;\n        uint dateSup = nextSupply.date;\n\n        lastByte = NEXT_NOTHING;\n\n        if (dateInf > 0) {\n            minDate = dateInf;\n            lastByte = NEXT_INFLATION;\n        }\n        if (dateSup > 0 && (dateSup < minDate || minDate == 0)) {\n            minDate = dateSup;\n            lastByte = NEXT_SUPPLY;\n        }\n\n    }\n\n    function _cloneUserSnapshot(UserSnapshot memory snapshot) private pure returns (UserSnapshot memory) {\n        return UserSnapshot(\n            snapshot.indexInflation,\n            snapshot.indexSupplyHistory,\n            snapshot.frozen,\n            snapshot.vested,\n            snapshot.claimed,\n            snapshot.dateUpdate\n        );\n    }\n\n    function version() external pure returns (string memory) {\n        return '1.0.0';\n    }\n\n}\n",
  "sourcePath": "/home/pirat/Desktop/DAO/contracts/CitadelRewards.sol",
  "compiler": {
    "name": "solc",
    "version": "0.6.2+commit.bacdbe57.Emscripten.clang"
  },
  "schemaVersion": "3.2.5",
  "updatedAt": "2021-06-17T16:05:32.632Z",
  "devdoc": {
    "methods": {
      "owner()": {
        "details": "Returns the address of the current owner."
      },
      "renounceOwnership()": {
        "details": "Leaves the contract without owner. It will not be possible to call `onlyOwner` functions anymore. Can only be called by the current owner.     * NOTE: Renouncing ownership will leave the contract without an owner, thereby removing any functionality that is only available to the owner."
      },
      "transferOwnership(address)": {
        "details": "Transfers ownership of the contract to a new account (`newOwner`). Can only be called by the current owner."
      }
    }
  },
  "userdoc": {
    "methods": {}
  }
}