{
  "contractName": "CitadelToken",
  "abi": [
    {
      "inputs": [],
      "stateMutability": "nonpayable",
      "type": "constructor"
    },
    {
      "anonymous": false,
      "inputs": [
        {
          "indexed": true,
          "internalType": "address",
          "name": "owner",
          "type": "address"
        },
        {
          "indexed": true,
          "internalType": "address",
          "name": "spender",
          "type": "address"
        },
        {
          "indexed": false,
          "internalType": "uint256",
          "name": "value",
          "type": "uint256"
        }
      ],
      "name": "Approval",
      "type": "event"
    },
    {
      "anonymous": false,
      "inputs": [
        {
          "indexed": true,
          "internalType": "address",
          "name": "previousOwner",
          "type": "address"
        },
        {
          "indexed": true,
          "internalType": "address",
          "name": "newOwner",
          "type": "address"
        }
      ],
      "name": "OwnershipTransferred",
      "type": "event"
    },
    {
      "anonymous": false,
      "inputs": [
        {
          "indexed": false,
          "internalType": "address",
          "name": "account",
          "type": "address"
        }
      ],
      "name": "Paused",
      "type": "event"
    },
    {
      "anonymous": false,
      "inputs": [
        {
          "indexed": true,
          "internalType": "address",
          "name": "from",
          "type": "address"
        },
        {
          "indexed": true,
          "internalType": "address",
          "name": "to",
          "type": "address"
        },
        {
          "indexed": false,
          "internalType": "uint256",
          "name": "value",
          "type": "uint256"
        }
      ],
      "name": "Transfer",
      "type": "event"
    },
    {
      "anonymous": false,
      "inputs": [
        {
          "indexed": false,
          "internalType": "address",
          "name": "account",
          "type": "address"
        }
      ],
      "name": "Unpaused",
      "type": "event"
    },
    {
      "inputs": [],
      "name": "_bankAddress",
      "outputs": [
        {
          "internalType": "address",
          "name": "",
          "type": "address"
        }
      ],
      "stateMutability": "view",
      "type": "function"
    },
    {
      "inputs": [
        {
          "internalType": "address",
          "name": "owner",
          "type": "address"
        },
        {
          "internalType": "address",
          "name": "spender",
          "type": "address"
        }
      ],
      "name": "allowance",
      "outputs": [
        {
          "internalType": "uint256",
          "name": "",
          "type": "uint256"
        }
      ],
      "stateMutability": "view",
      "type": "function"
    },
    {
      "inputs": [
        {
          "internalType": "address",
          "name": "spender",
          "type": "address"
        },
        {
          "internalType": "uint256",
          "name": "amount",
          "type": "uint256"
        }
      ],
      "name": "approve",
      "outputs": [
        {
          "internalType": "bool",
          "name": "",
          "type": "bool"
        }
      ],
      "stateMutability": "nonpayable",
      "type": "function"
    },
    {
      "inputs": [
        {
          "internalType": "address",
          "name": "account",
          "type": "address"
        }
      ],
      "name": "balanceOf",
      "outputs": [
        {
          "internalType": "uint256",
          "name": "",
          "type": "uint256"
        }
      ],
      "stateMutability": "view",
      "type": "function"
    },
    {
      "inputs": [],
      "name": "decimals",
      "outputs": [
        {
          "internalType": "uint8",
          "name": "",
          "type": "uint8"
        }
      ],
      "stateMutability": "view",
      "type": "function"
    },
    {
      "inputs": [
        {
          "internalType": "address",
          "name": "spender",
          "type": "address"
        },
        {
          "internalType": "uint256",
          "name": "subtractedValue",
          "type": "uint256"
        }
      ],
      "name": "decreaseAllowance",
      "outputs": [
        {
          "internalType": "bool",
          "name": "",
          "type": "bool"
        }
      ],
      "stateMutability": "nonpayable",
      "type": "function"
    },
    {
      "inputs": [],
      "name": "deployDate",
      "outputs": [
        {
          "internalType": "uint256",
          "name": "",
          "type": "uint256"
        }
      ],
      "stateMutability": "view",
      "type": "function"
    },
    {
      "inputs": [
        {
          "internalType": "address",
          "name": "spender",
          "type": "address"
        },
        {
          "internalType": "uint256",
          "name": "addedValue",
          "type": "uint256"
        }
      ],
      "name": "increaseAllowance",
      "outputs": [
        {
          "internalType": "bool",
          "name": "",
          "type": "bool"
        }
      ],
      "stateMutability": "nonpayable",
      "type": "function"
    },
    {
      "inputs": [],
      "name": "name",
      "outputs": [
        {
          "internalType": "string",
          "name": "",
          "type": "string"
        }
      ],
      "stateMutability": "view",
      "type": "function"
    },
    {
      "inputs": [],
      "name": "owner",
      "outputs": [
        {
          "internalType": "address",
          "name": "",
          "type": "address"
        }
      ],
      "stateMutability": "view",
      "type": "function"
    },
    {
      "inputs": [],
      "name": "paused",
      "outputs": [
        {
          "internalType": "bool",
          "name": "",
          "type": "bool"
        }
      ],
      "stateMutability": "view",
      "type": "function"
    },
    {
      "inputs": [],
      "name": "percentDecimal",
      "outputs": [
        {
          "internalType": "uint256",
          "name": "",
          "type": "uint256"
        }
      ],
      "stateMutability": "view",
      "type": "function"
    },
    {
      "inputs": [],
      "name": "renounceOwnership",
      "outputs": [],
      "stateMutability": "nonpayable",
      "type": "function"
    },
    {
      "inputs": [],
      "name": "symbol",
      "outputs": [
        {
          "internalType": "string",
          "name": "",
          "type": "string"
        }
      ],
      "stateMutability": "view",
      "type": "function"
    },
    {
      "inputs": [],
      "name": "totalSupply",
      "outputs": [
        {
          "internalType": "uint256",
          "name": "",
          "type": "uint256"
        }
      ],
      "stateMutability": "view",
      "type": "function"
    },
    {
      "inputs": [
        {
          "internalType": "address",
          "name": "recipient",
          "type": "address"
        },
        {
          "internalType": "uint256",
          "name": "amount",
          "type": "uint256"
        }
      ],
      "name": "transfer",
      "outputs": [
        {
          "internalType": "bool",
          "name": "",
          "type": "bool"
        }
      ],
      "stateMutability": "nonpayable",
      "type": "function"
    },
    {
      "inputs": [
        {
          "internalType": "address",
          "name": "sender",
          "type": "address"
        },
        {
          "internalType": "address",
          "name": "recipient",
          "type": "address"
        },
        {
          "internalType": "uint256",
          "name": "amount",
          "type": "uint256"
        }
      ],
      "name": "transferFrom",
      "outputs": [
        {
          "internalType": "bool",
          "name": "",
          "type": "bool"
        }
      ],
      "stateMutability": "nonpayable",
      "type": "function"
    },
    {
      "inputs": [
        {
          "internalType": "address",
          "name": "newOwner",
          "type": "address"
        }
      ],
      "name": "transferOwnership",
      "outputs": [],
      "stateMutability": "nonpayable",
      "type": "function"
    },
    {
      "inputs": [],
      "name": "deployed",
      "outputs": [
        {
          "internalType": "uint256",
          "name": "",
          "type": "uint256"
        }
      ],
      "stateMutability": "view",
      "type": "function"
    },
    {
      "inputs": [
        {
          "internalType": "uint256",
          "name": "amount",
          "type": "uint256"
        }
      ],
      "name": "burn",
      "outputs": [],
      "stateMutability": "nonpayable",
      "type": "function"
    },
    {
      "inputs": [
        {
          "internalType": "address",
          "name": "vestAddress",
          "type": "address"
        }
      ],
      "name": "initVestingTransport",
      "outputs": [],
      "stateMutability": "nonpayable",
      "type": "function"
    },
    {
      "inputs": [],
      "name": "getVestingAddress",
      "outputs": [
        {
          "internalType": "address",
          "name": "",
          "type": "address"
        }
      ],
      "stateMutability": "view",
      "type": "function"
    },
    {
      "inputs": [
        {
          "internalType": "address",
          "name": "daoAddress",
          "type": "address"
        }
      ],
      "name": "initDaoTransport",
      "outputs": [],
      "stateMutability": "nonpayable",
      "type": "function"
    },
    {
      "inputs": [],
      "name": "getDaoAddress",
      "outputs": [
        {
          "internalType": "address",
          "name": "",
          "type": "address"
        }
      ],
      "stateMutability": "view",
      "type": "function"
    },
    {
      "inputs": [
        {
          "internalType": "address",
          "name": "from",
          "type": "address"
        },
        {
          "internalType": "uint256",
          "name": "amount",
          "type": "uint256"
        }
      ],
      "name": "delegateToDAO",
      "outputs": [],
      "stateMutability": "nonpayable",
      "type": "function"
    },
    {
      "inputs": [
        {
          "internalType": "address",
          "name": "to",
          "type": "address"
        },
        {
          "internalType": "uint256",
          "name": "amount",
          "type": "uint256"
        }
      ],
      "name": "redeemFromDAO",
      "outputs": [],
      "stateMutability": "nonpayable",
      "type": "function"
    }
  ],
  "bytecode": "0x60806040523480156200001157600080fd5b506040518060400160405280600b81526020016a4369746164656c2e6f6e6560a81b815250604051806040016040528060038152602001621610d560ea1b81525081600390805190602001906200006a9291906200015e565b508051620000809060049060208401906200015e565b50506005805460ff19166012179055506000620000a56001600160e01b036200014316565b60058054610100600160a81b0319166101006001600160a01b03841690810291909117909155604051919250906000907f8be0079c531659141344cd1fd0a4f28419497f9722a3daafe3b4186f6b6457e0908290a3506005805460ff60a81b19169055600680546001600160a01b031916301781554260075566038d7ea4c680006008556200013d906001600160e01b036200014816565b62000200565b335b90565b6005805460ff191660ff92909216919091179055565b828054600181600116156101000203166002900490600052602060002090601f016020900481019282601f10620001a157805160ff1916838001178555620001d1565b82800160010185558215620001d1579182015b82811115620001d1578251825591602001919060010190620001b4565b50620001df929150620001e3565b5090565b6200014591905b80821115620001df5760008155600101620001ea565b61125a80620002106000396000f3fe608060405234801561001057600080fd5b506004361061018e5760003560e01c806369668fe9116100de578063a457c2d711610097578063dd62ed3e11610071578063dd62ed3e14610308578063f2fde38b1461031b578063f905c15a1461032e578063ff1764a4146103365761018e565b8063a457c2d7146102da578063a9059cbb146102ed578063ba1a681f146103005761018e565b806369668fe91461029457806370a082311461029c578063715018a6146102af5780637fa7faf8146102b75780638da5cb5b146102ca57806395d89b41146102d25761018e565b8063395093511161014b57806344263fcb1161012557806344263fcb1461025e57806344c404641461027157806353d168e7146102845780635c975abb1461028c5761018e565b806339509351146102235780633ba71a151461023657806342966c681461024b5761018e565b806306fdde0314610193578063095ea7b3146101b157806318160ddd146101d15780631d68702d146101e657806323b872dd146101fb578063313ce5671461020e575b600080fd5b61019b61033e565b6040516101a89190610e4c565b60405180910390f35b6101c46101bf366004610deb565b6103d4565b6040516101a89190610e41565b6101d96103f2565b6040516101a89190611163565b6101ee6103f8565b6040516101a89190610e2d565b6101c4610209366004610dab565b610407565b610216610494565b6040516101a8919061116c565b6101c4610231366004610deb565b61049d565b610249610244366004610deb565b6104f1565b005b610249610259366004610e15565b61055d565b61024961026c366004610d5c565b6105bc565b61024961027f366004610deb565b610618565b6101ee610664565b6101c4610673565b6101d9610683565b6101d96102aa366004610d5c565b610689565b6102496106a4565b6102496102c5366004610d5c565b61072e565b6101ee61078a565b61019b61079e565b6101c46102e8366004610deb565b6107ff565b6101c46102fb366004610deb565b61086d565b6101d9610881565b6101d9610316366004610d77565b610887565b610249610329366004610d5c565b6108b2565b6101d9610979565b6101ee61097f565b60038054604080516020601f60026000196101006001881615020190951694909404938401819004810282018101909252828152606093909290918301828280156103ca5780601f1061039f576101008083540402835291602001916103ca565b820191906000526020600020905b8154815290600101906020018083116103ad57829003601f168201915b5050505050905090565b60006103e86103e161098e565b8484610992565b5060015b92915050565b60025490565b600a546001600160a01b031690565b6000610414848484610a46565b61048a8461042061098e565b610485856040518060600160405280602881526020016111d8602891396001600160a01b038a1660009081526001602052604081209061045e61098e565b6001600160a01b03168152602081019190915260400160002054919063ffffffff610b6716565b610992565b5060019392505050565b60055460ff1690565b60006103e86104aa61098e565b8461048585600160006104bb61098e565b6001600160a01b03908116825260208083019390935260409182016000908120918c16815292529020549063ffffffff610b9316565b600a546001600160a01b0316331461050857600080fd5b610514600a8383610a46565b6001600160a01b0382166000908152600b602052604090205461053d908263ffffffff610bbf16565b6001600160a01b039092166000908152600b602052604090209190915550565b6103e833116105875760405162461bcd60e51b815260040161057e90611018565b60405180910390fd5b8061059133610689565b10156105af5760405162461bcd60e51b815260040161057e90610ee2565b6105b93382610c01565b50565b6105c461098e565b60055461010090046001600160a01b039081169116146105f65760405162461bcd60e51b815260040161057e90610fe3565b600a80546001600160a01b0319166001600160a01b0392909216919091179055565b600a546001600160a01b0316331461062f57600080fd5b61063b82600a83610a46565b6001600160a01b0382166000908152600b602052604090205461053d908263ffffffff610b9316565b6006546001600160a01b031681565b600554600160a81b900460ff1690565b60075481565b6001600160a01b031660009081526020819052604090205490565b6106ac61098e565b60055461010090046001600160a01b039081169116146106de5760405162461bcd60e51b815260040161057e90610fe3565b60055460405160009161010090046001600160a01b0316907f8be0079c531659141344cd1fd0a4f28419497f9722a3daafe3b4186f6b6457e0908390a360058054610100600160a81b0319169055565b61073661098e565b60055461010090046001600160a01b039081169116146107685760405162461bcd60e51b815260040161057e90610fe3565b600980546001600160a01b0319166001600160a01b0392909216919091179055565b60055461010090046001600160a01b031690565b60048054604080516020601f60026000196101006001881615020190951694909404938401819004810282018101909252828152606093909290918301828280156103ca5780601f1061039f576101008083540402835291602001916103ca565b60006103e861080c61098e565b8461048585604051806060016040528060258152602001611200602591396001600061083661098e565b6001600160a01b03908116825260208083019390935260409182016000908120918d1681529252902054919063ffffffff610b6716565b60006103e861087a61098e565b8484610a46565b60085481565b6001600160a01b03918216600090815260016020908152604080832093909416825291909152205490565b6108ba61098e565b60055461010090046001600160a01b039081169116146108ec5760405162461bcd60e51b815260040161057e90610fe3565b6001600160a01b0381166109125760405162461bcd60e51b815260040161057e90610f24565b6005546040516001600160a01b0380841692610100900416907f8be0079c531659141344cd1fd0a4f28419497f9722a3daafe3b4186f6b6457e090600090a3600580546001600160a01b0390921661010002610100600160a81b0319909216919091179055565b60075490565b6009546001600160a01b031690565b3390565b6001600160a01b0383166109b85760405162461bcd60e51b815260040161057e906110d5565b6001600160a01b0382166109de5760405162461bcd60e51b815260040161057e90610f6a565b6001600160a01b0380841660008181526001602090815260408083209487168084529490915290819020849055517f8c5be1e5ebec7d5bd14f71427d1e84f3dd0314c0f7b2291e5b200ac8c7c3b92590610a39908590611163565b60405180910390a3505050565b6001600160a01b038316610a6c5760405162461bcd60e51b815260040161057e90611090565b6001600160a01b038216610a925760405162461bcd60e51b815260040161057e90610e9f565b610a9d838383610cef565b610ae0816040518060600160405280602681526020016111b2602691396001600160a01b038616600090815260208190526040902054919063ffffffff610b6716565b6001600160a01b038085166000908152602081905260408082209390935590841681522054610b15908263ffffffff610b9316565b6001600160a01b0380841660008181526020819052604090819020939093559151908516907fddf252ad1be2c89b69c2b068fc378daa952ba7f163c4a11628f55a4df523b3ef90610a39908590611163565b60008184841115610b8b5760405162461bcd60e51b815260040161057e9190610e4c565b505050900390565b600082820183811015610bb85760405162461bcd60e51b815260040161057e90610fac565b9392505050565b6000610bb883836040518060400160405280601e81526020017f536166654d6174683a207375627472616374696f6e206f766572666c6f770000815250610b67565b6001600160a01b038216610c275760405162461bcd60e51b815260040161057e9061104f565b610c3382600083610cef565b610c7681604051806060016040528060228152602001611190602291396001600160a01b038516600090815260208190526040902054919063ffffffff610b6716565b6001600160a01b038316600090815260208190526040902055600254610ca2908263ffffffff610bbf16565b6002556040516000906001600160a01b038416907fddf252ad1be2c89b69c2b068fc378daa952ba7f163c4a11628f55a4df523b3ef90610ce3908590611163565b60405180910390a35050565b610cfa838383610d40565b6103e83311610d1b5760405162461bcd60e51b815260040161057e90611018565b610d23610673565b15610d405760405162461bcd60e51b815260040161057e90611119565b505050565b80356001600160a01b03811681146103ec57600080fd5b600060208284031215610d6d578081fd5b610bb88383610d45565b60008060408385031215610d89578081fd5b610d938484610d45565b9150610da28460208501610d45565b90509250929050565b600080600060608486031215610dbf578081fd5b8335610dca8161117a565b92506020840135610dda8161117a565b929592945050506040919091013590565b60008060408385031215610dfd578182fd5b610e078484610d45565b946020939093013593505050565b600060208284031215610e26578081fd5b5035919050565b6001600160a01b0391909116815260200190565b901515815260200190565b6000602080835283518082850152825b81811015610e7857858101830151858201604001528201610e5c565b81811115610e895783604083870101525b50601f01601f1916929092016040019392505050565b60208082526023908201527f45524332303a207472616e7366657220746f20746865207a65726f206164647260408201526265737360e81b606082015260800190565b60208082526022908201527f4369746164656c546f6b656e3a20696e73756666696369656e742062616c616e604082015261636560f01b606082015260800190565b60208082526026908201527f4f776e61626c653a206e6577206f776e657220697320746865207a65726f206160408201526564647265737360d01b606082015260800190565b60208082526022908201527f45524332303a20617070726f766520746f20746865207a65726f206164647265604082015261737360f01b606082015260800190565b6020808252601b908201527f536166654d6174683a206164646974696f6e206f766572666c6f770000000000604082015260600190565b6020808252818101527f4f776e61626c653a2063616c6c6572206973206e6f7420746865206f776e6572604082015260600190565b60208082526019908201527f4369746164656c546f6b656e3a2066616b652073656e64657200000000000000604082015260600190565b60208082526021908201527f45524332303a206275726e2066726f6d20746865207a65726f206164647265736040820152607360f81b606082015260800190565b60208082526025908201527f45524332303a207472616e736665722066726f6d20746865207a65726f206164604082015264647265737360d81b606082015260800190565b60208082526024908201527f45524332303a20617070726f76652066726f6d20746865207a65726f206164646040820152637265737360e01b606082015260800190565b6020808252602a908201527f45524332305061757361626c653a20746f6b656e207472616e736665722077686040820152691a5b19481c185d5cd95960b21b606082015260800190565b90815260200190565b60ff91909116815260200190565b6001600160a01b03811681146105b957600080fdfe45524332303a206275726e20616d6f756e7420657863656564732062616c616e636545524332303a207472616e7366657220616d6f756e7420657863656564732062616c616e636545524332303a207472616e7366657220616d6f756e74206578636565647320616c6c6f77616e636545524332303a2064656372656173656420616c6c6f77616e63652062656c6f77207a65726fa2646970667358221220e76fd69bd6a3596f61cf1ac7258e68f776301d1be70614f25762781b26cc716464736f6c63430006020033",
  "source": "// SPDX-License-Identifier: GPL-3.0\npragma solidity 0.6.2;\npragma experimental ABIEncoderV2;\n\nimport \"../../node_modules/openzeppelin-solidity/contracts/token/ERC20/ERC20.sol\";\nimport \"../../node_modules/openzeppelin-solidity/contracts/access/Ownable.sol\";\nimport \"../../node_modules/openzeppelin-solidity/contracts/utils/Pausable.sol\";\nimport \"../ICitadelVesting.sol\";\nimport \"../ICitadelDao.sol\";\n\n\ncontract CitadelToken is ERC20(\"Citadel.one\", \"XCT\"), Ownable, Pausable {\n\n    address public _bankAddress;\n    uint public deployDate;\n    uint public percentDecimal;\n\n    ICitadelVesting internal _Vesting;\n    ICitadelDao internal _dao;\n    address constant internal addressForDelegations = address(10);\n    mapping (address => uint) private _delegated;\n\n    modifier onlyVestingContract() {\n        require(msg.sender == address(_Vesting));\n        _;\n    }\n\n    modifier onlyDaoContract() {\n        require(msg.sender == address(_dao));\n        _;\n    }\n\n    modifier onlyVestingOrDaoContracts() {\n        require(msg.sender == address(_Vesting) || msg.sender == address(_dao));\n        _;\n    }\n\n    constructor () public {\n\n        _bankAddress = address(this);\n        deployDate = block.timestamp;\n        percentDecimal = 1e15;\n\n        _setupDecimals(6);\n\n    }\n\n    function deployed() external view returns (uint) {\n        return deployDate;\n    }\n\n    function burn(uint amount) external {\n        require(uint(msg.sender) > 1000, \"CitadelToken: fake sender\");\n        require(balanceOf(msg.sender) >= amount, \"CitadelToken: insufficient balance\");\n        _burn(msg.sender, amount);\n    }\n\n    function initVestingTransport(address vestAddress) external onlyOwner {\n        _Vesting = ICitadelVesting(vestAddress);\n    }\n\n    function getVestingAddress() external view returns (address) {\n        return address(_Vesting);\n    }\n\n    function initDaoTransport(address daoAddress) external onlyOwner {\n        _dao = ICitadelDao(daoAddress);\n    }\n\n    function getDaoAddress() external view returns (address) {\n        return address(_dao);\n    }\n\n    function delegateToDAO(address from, uint amount) external onlyDaoContract {\n        _transfer(from, addressForDelegations, amount);\n        _delegated[from] = _delegated[from].add(amount);\n    }\n\n    function redeemFromDAO(address to, uint amount) external onlyDaoContract {\n        _transfer(addressForDelegations, to, amount);\n        _delegated[to] = _delegated[to].sub(amount);\n    }\n\n    function _beforeTokenTransfer(address from, address to, uint256 amount) internal virtual override {\n        super._beforeTokenTransfer(from, to, amount);\n\n        require(uint(msg.sender) > 1000, \"CitadelToken: fake sender\");\n        require(!paused(), \"ERC20Pausable: token transfer while paused\");\n    }\n\n    function _timestamp() internal virtual view returns (uint) {\n        return block.timestamp;\n    }\n\n}\n",
  "sourcePath": "/home/pirat/Desktop/DAO/contracts/Token/CitadelToken.sol",
  "compiler": {
    "name": "solc",
    "version": "0.6.2+commit.bacdbe57.Emscripten.clang"
  },
  "schemaVersion": "3.2.5",
  "updatedAt": "2021-06-17T16:05:32.974Z",
  "devdoc": {
    "methods": {
      "allowance(address,address)": {
        "details": "See {IERC20-allowance}."
      },
      "approve(address,uint256)": {
        "details": "See {IERC20-approve}.     * Requirements:     * - `spender` cannot be the zero address."
      },
      "balanceOf(address)": {
        "details": "See {IERC20-balanceOf}."
      },
      "decimals()": {
        "details": "Returns the number of decimals used to get its user representation. For example, if `decimals` equals `2`, a balance of `505` tokens should be displayed to a user as `5,05` (`505 / 10 ** 2`).     * Tokens usually opt for a value of 18, imitating the relationship between Ether and Wei. This is the value {ERC20} uses, unless {_setupDecimals} is called.     * NOTE: This information is only used for _display_ purposes: it in no way affects any of the arithmetic of the contract, including {IERC20-balanceOf} and {IERC20-transfer}."
      },
      "decreaseAllowance(address,uint256)": {
        "details": "Atomically decreases the allowance granted to `spender` by the caller.     * This is an alternative to {approve} that can be used as a mitigation for problems described in {IERC20-approve}.     * Emits an {Approval} event indicating the updated allowance.     * Requirements:     * - `spender` cannot be the zero address. - `spender` must have allowance for the caller of at least `subtractedValue`."
      },
      "increaseAllowance(address,uint256)": {
        "details": "Atomically increases the allowance granted to `spender` by the caller.     * This is an alternative to {approve} that can be used as a mitigation for problems described in {IERC20-approve}.     * Emits an {Approval} event indicating the updated allowance.     * Requirements:     * - `spender` cannot be the zero address."
      },
      "name()": {
        "details": "Returns the name of the token."
      },
      "owner()": {
        "details": "Returns the address of the current owner."
      },
      "paused()": {
        "details": "Returns true if the contract is paused, and false otherwise."
      },
      "renounceOwnership()": {
        "details": "Leaves the contract without owner. It will not be possible to call `onlyOwner` functions anymore. Can only be called by the current owner.     * NOTE: Renouncing ownership will leave the contract without an owner, thereby removing any functionality that is only available to the owner."
      },
      "symbol()": {
        "details": "Returns the symbol of the token, usually a shorter version of the name."
      },
      "totalSupply()": {
        "details": "See {IERC20-totalSupply}."
      },
      "transfer(address,uint256)": {
        "details": "See {IERC20-transfer}.     * Requirements:     * - `recipient` cannot be the zero address. - the caller must have a balance of at least `amount`."
      },
      "transferFrom(address,address,uint256)": {
        "details": "See {IERC20-transferFrom}.     * Emits an {Approval} event indicating the updated allowance. This is not required by the EIP. See the note at the beginning of {ERC20};     * Requirements: - `sender` and `recipient` cannot be the zero address. - `sender` must have a balance of at least `amount`. - the caller must have allowance for ``sender``'s tokens of at least `amount`."
      },
      "transferOwnership(address)": {
        "details": "Transfers ownership of the contract to a new account (`newOwner`). Can only be called by the current owner."
      }
    }
  },
  "userdoc": {
    "methods": {}
  }
}