{
  "contractName": "CitadelDao",
  "abi": [
    {
      "inputs": [
        {
          "internalType": "address",
          "name": "token",
          "type": "address"
        }
      ],
      "stateMutability": "nonpayable",
      "type": "constructor"
    },
    {
      "anonymous": false,
      "inputs": [
        {
          "indexed": true,
          "internalType": "address",
          "name": "recipient",
          "type": "address"
        },
        {
          "indexed": false,
          "internalType": "uint256",
          "name": "amount",
          "type": "uint256"
        }
      ],
      "name": "ClaimStakingReward",
      "type": "event"
    },
    {
      "anonymous": false,
      "inputs": [
        {
          "indexed": true,
          "internalType": "uint256",
          "name": "issueId",
          "type": "uint256"
        },
        {
          "indexed": true,
          "internalType": "enum Voting.ProposalUpdater",
          "name": "category",
          "type": "uint8"
        },
        {
          "indexed": true,
          "internalType": "address",
          "name": "initialized",
          "type": "address"
        }
      ],
      "name": "ExecProposal",
      "type": "event"
    },
    {
      "anonymous": false,
      "inputs": [
        {
          "indexed": true,
          "internalType": "uint256",
          "name": "issueId",
          "type": "uint256"
        },
        {
          "indexed": true,
          "internalType": "address",
          "name": "creator",
          "type": "address"
        },
        {
          "indexed": true,
          "internalType": "enum Voting.ProposalType",
          "name": "votingType",
          "type": "uint8"
        },
        {
          "indexed": false,
          "internalType": "enum Voting.ProposalUpdater",
          "name": "votingUpdater",
          "type": "uint8"
        }
      ],
      "name": "NewProposal",
      "type": "event"
    },
    {
      "anonymous": false,
      "inputs": [
        {
          "indexed": true,
          "internalType": "uint256",
          "name": "issueId",
          "type": "uint256"
        },
        {
          "indexed": true,
          "internalType": "address",
          "name": "from",
          "type": "address"
        },
        {
          "indexed": true,
          "internalType": "uint256",
          "name": "option",
          "type": "uint256"
        },
        {
          "indexed": false,
          "internalType": "uint256",
          "name": "weight",
          "type": "uint256"
        }
      ],
      "name": "OnVote",
      "type": "event"
    },
    {
      "anonymous": false,
      "inputs": [
        {
          "indexed": true,
          "internalType": "address",
          "name": "previousOwner",
          "type": "address"
        },
        {
          "indexed": true,
          "internalType": "address",
          "name": "newOwner",
          "type": "address"
        }
      ],
      "name": "OwnershipTransferred",
      "type": "event"
    },
    {
      "anonymous": false,
      "inputs": [
        {
          "indexed": true,
          "internalType": "bytes32",
          "name": "role",
          "type": "bytes32"
        },
        {
          "indexed": true,
          "internalType": "bytes32",
          "name": "previousAdminRole",
          "type": "bytes32"
        },
        {
          "indexed": true,
          "internalType": "bytes32",
          "name": "newAdminRole",
          "type": "bytes32"
        }
      ],
      "name": "RoleAdminChanged",
      "type": "event"
    },
    {
      "anonymous": false,
      "inputs": [
        {
          "indexed": true,
          "internalType": "bytes32",
          "name": "role",
          "type": "bytes32"
        },
        {
          "indexed": true,
          "internalType": "address",
          "name": "account",
          "type": "address"
        },
        {
          "indexed": true,
          "internalType": "address",
          "name": "sender",
          "type": "address"
        }
      ],
      "name": "RoleGranted",
      "type": "event"
    },
    {
      "anonymous": false,
      "inputs": [
        {
          "indexed": true,
          "internalType": "bytes32",
          "name": "role",
          "type": "bytes32"
        },
        {
          "indexed": true,
          "internalType": "address",
          "name": "account",
          "type": "address"
        },
        {
          "indexed": true,
          "internalType": "address",
          "name": "sender",
          "type": "address"
        }
      ],
      "name": "RoleRevoked",
      "type": "event"
    },
    {
      "anonymous": false,
      "inputs": [
        {
          "indexed": false,
          "internalType": "bool",
          "name": "isAvailable",
          "type": "bool"
        },
        {
          "indexed": false,
          "internalType": "uint256",
          "name": "minStaked",
          "type": "uint256"
        }
      ],
      "name": "SetProposalAvailability",
      "type": "event"
    },
    {
      "anonymous": false,
      "inputs": [
        {
          "indexed": false,
          "internalType": "address",
          "name": "addr",
          "type": "address"
        }
      ],
      "name": "SetVerifyRewardAddress",
      "type": "event"
    },
    {
      "anonymous": false,
      "inputs": [
        {
          "indexed": true,
          "internalType": "enum Voting.ProposalUpdater",
          "name": "updater",
          "type": "uint8"
        },
        {
          "indexed": false,
          "internalType": "uint256",
          "name": "quorumPct",
          "type": "uint256"
        },
        {
          "indexed": false,
          "internalType": "uint256",
          "name": "supportPct",
          "type": "uint256"
        }
      ],
      "name": "UpdatedProposalConfig",
      "type": "event"
    },
    {
      "inputs": [],
      "name": "ADMIN_ROLE",
      "outputs": [
        {
          "internalType": "bytes32",
          "name": "",
          "type": "bytes32"
        }
      ],
      "stateMutability": "view",
      "type": "function"
    },
    {
      "inputs": [],
      "name": "DEFAULT_ADMIN_ROLE",
      "outputs": [
        {
          "internalType": "bytes32",
          "name": "",
          "type": "bytes32"
        }
      ],
      "stateMutability": "view",
      "type": "function"
    },
    {
      "inputs": [],
      "name": "VOTING_ROLE",
      "outputs": [
        {
          "internalType": "bytes32",
          "name": "",
          "type": "bytes32"
        }
      ],
      "stateMutability": "view",
      "type": "function"
    },
    {
      "inputs": [
        {
          "internalType": "address",
          "name": "account",
          "type": "address"
        }
      ],
      "name": "addAdmin",
      "outputs": [],
      "stateMutability": "nonpayable",
      "type": "function"
    },
    {
      "inputs": [
        {
          "internalType": "address",
          "name": "account",
          "type": "address"
        }
      ],
      "name": "availableToCreateProposals",
      "outputs": [
        {
          "internalType": "bool",
          "name": "",
          "type": "bool"
        }
      ],
      "stateMutability": "view",
      "type": "function"
    },
    {
      "inputs": [
        {
          "internalType": "uint256",
          "name": "issueId",
          "type": "uint256"
        },
        {
          "internalType": "address",
          "name": "addr",
          "type": "address"
        }
      ],
      "name": "ballotOf",
      "outputs": [
        {
          "internalType": "uint256",
          "name": "",
          "type": "uint256"
        }
      ],
      "stateMutability": "view",
      "type": "function"
    },
    {
      "inputs": [
        {
          "internalType": "uint256",
          "name": "reward",
          "type": "uint256"
        },
        {
          "internalType": "uint256",
          "name": "nonceId",
          "type": "uint256"
        },
        {
          "internalType": "bytes32",
          "name": "hash",
          "type": "bytes32"
        },
        {
          "internalType": "bytes",
          "name": "signature",
          "type": "bytes"
        }
      ],
      "name": "claimReward",
      "outputs": [
        {
          "internalType": "bool",
          "name": "",
          "type": "bool"
        }
      ],
      "stateMutability": "nonpayable",
      "type": "function"
    },
    {
      "inputs": [
        {
          "internalType": "uint256",
          "name": "issueId",
          "type": "uint256"
        }
      ],
      "name": "countOptions",
      "outputs": [
        {
          "internalType": "uint256",
          "name": "",
          "type": "uint256"
        }
      ],
      "stateMutability": "view",
      "type": "function"
    },
    {
      "inputs": [],
      "name": "countProposals",
      "outputs": [
        {
          "internalType": "uint256",
          "name": "",
          "type": "uint256"
        }
      ],
      "stateMutability": "view",
      "type": "function"
    },
    {
      "inputs": [
        {
          "internalType": "bool",
          "name": "isAvailable",
          "type": "bool"
        },
        {
          "internalType": "uint256",
          "name": "minStaked",
          "type": "uint256"
        }
      ],
      "name": "createProposalAvailability",
      "outputs": [],
      "stateMutability": "nonpayable",
      "type": "function"
    },
    {
      "inputs": [
        {
          "internalType": "address",
          "name": "creator",
          "type": "address"
        },
        {
          "internalType": "uint256",
          "name": "issueId",
          "type": "uint256"
        }
      ],
      "name": "depositedForProposal",
      "outputs": [
        {
          "internalType": "uint256",
          "name": "",
          "type": "uint256"
        }
      ],
      "stateMutability": "view",
      "type": "function"
    },
    {
      "inputs": [
        {
          "internalType": "uint256",
          "name": "issueId",
          "type": "uint256"
        }
      ],
      "name": "execProposal",
      "outputs": [],
      "stateMutability": "nonpayable",
      "type": "function"
    },
    {
      "inputs": [],
      "name": "executionTime",
      "outputs": [
        {
          "internalType": "uint256",
          "name": "",
          "type": "uint256"
        }
      ],
      "stateMutability": "view",
      "type": "function"
    },
    {
      "inputs": [],
      "name": "getNewestProposal",
      "outputs": [
        {
          "internalType": "uint256",
          "name": "issueId",
          "type": "uint256"
        },
        {
          "internalType": "string",
          "name": "title",
          "type": "string"
        },
        {
          "internalType": "enum Voting.ProposalType",
          "name": "votingType",
          "type": "uint8"
        },
        {
          "internalType": "enum Voting.ProposalUpdater",
          "name": "votingUpdater",
          "type": "uint8"
        }
      ],
      "stateMutability": "view",
      "type": "function"
    },
    {
      "inputs": [
        {
          "internalType": "bytes32",
          "name": "role",
          "type": "bytes32"
        }
      ],
      "name": "getRoleAdmin",
      "outputs": [
        {
          "internalType": "bytes32",
          "name": "",
          "type": "bytes32"
        }
      ],
      "stateMutability": "view",
      "type": "function"
    },
    {
      "inputs": [
        {
          "internalType": "bytes32",
          "name": "role",
          "type": "bytes32"
        },
        {
          "internalType": "uint256",
          "name": "index",
          "type": "uint256"
        }
      ],
      "name": "getRoleMember",
      "outputs": [
        {
          "internalType": "address",
          "name": "",
          "type": "address"
        }
      ],
      "stateMutability": "view",
      "type": "function"
    },
    {
      "inputs": [
        {
          "internalType": "bytes32",
          "name": "role",
          "type": "bytes32"
        }
      ],
      "name": "getRoleMemberCount",
      "outputs": [
        {
          "internalType": "uint256",
          "name": "",
          "type": "uint256"
        }
      ],
      "stateMutability": "view",
      "type": "function"
    },
    {
      "inputs": [
        {
          "internalType": "bytes32",
          "name": "role",
          "type": "bytes32"
        },
        {
          "internalType": "address",
          "name": "account",
          "type": "address"
        }
      ],
      "name": "grantRole",
      "outputs": [],
      "stateMutability": "nonpayable",
      "type": "function"
    },
    {
      "inputs": [
        {
          "internalType": "bytes32",
          "name": "role",
          "type": "bytes32"
        },
        {
          "internalType": "address",
          "name": "account",
          "type": "address"
        }
      ],
      "name": "hasRole",
      "outputs": [
        {
          "internalType": "bool",
          "name": "",
          "type": "bool"
        }
      ],
      "stateMutability": "view",
      "type": "function"
    },
    {
      "inputs": [],
      "name": "isOpenProposals",
      "outputs": [
        {
          "internalType": "bool",
          "name": "",
          "type": "bool"
        }
      ],
      "stateMutability": "view",
      "type": "function"
    },
    {
      "inputs": [
        {
          "internalType": "uint256",
          "name": "issueId",
          "type": "uint256"
        }
      ],
      "name": "issueDescription",
      "outputs": [
        {
          "internalType": "string",
          "name": "",
          "type": "string"
        }
      ],
      "stateMutability": "view",
      "type": "function"
    },
    {
      "inputs": [],
      "name": "minAmountToCreate",
      "outputs": [
        {
          "internalType": "uint256",
          "name": "",
          "type": "uint256"
        }
      ],
      "stateMutability": "view",
      "type": "function"
    },
    {
      "inputs": [
        {
          "internalType": "string",
          "name": "title",
          "type": "string"
        },
        {
          "internalType": "string",
          "name": "description",
          "type": "string"
        },
        {
          "internalType": "uint256",
          "name": "expiryTime",
          "type": "uint256"
        },
        {
          "internalType": "string[]",
          "name": "options",
          "type": "string[]"
        },
        {
          "internalType": "enum Voting.ProposalUpdater",
          "name": "votingUpdater",
          "type": "uint8"
        }
      ],
      "name": "newMultiProposal",
      "outputs": [],
      "stateMutability": "nonpayable",
      "type": "function"
    },
    {
      "inputs": [
        {
          "internalType": "string",
          "name": "title",
          "type": "string"
        },
        {
          "internalType": "string",
          "name": "description",
          "type": "string"
        },
        {
          "internalType": "uint256",
          "name": "expiryTime",
          "type": "uint256"
        },
        {
          "internalType": "string",
          "name": "updateData",
          "type": "string"
        },
        {
          "internalType": "enum Voting.ProposalUpdater",
          "name": "votingUpdater",
          "type": "uint8"
        }
      ],
      "name": "newProposal",
      "outputs": [],
      "stateMutability": "nonpayable",
      "type": "function"
    },
    {
      "inputs": [
        {
          "internalType": "uint256",
          "name": "issueId",
          "type": "uint256"
        },
        {
          "internalType": "uint256",
          "name": "option",
          "type": "uint256"
        }
      ],
      "name": "optionInfo",
      "outputs": [
        {
          "internalType": "string",
          "name": "name",
          "type": "string"
        },
        {
          "internalType": "uint256",
          "name": "count",
          "type": "uint256"
        },
        {
          "internalType": "uint256",
          "name": "weight",
          "type": "uint256"
        }
      ],
      "stateMutability": "view",
      "type": "function"
    },
    {
      "inputs": [
        {
          "internalType": "uint256",
          "name": "issueId",
          "type": "uint256"
        },
        {
          "internalType": "uint256",
          "name": "option",
          "type": "uint256"
        }
      ],
      "name": "optionName",
      "outputs": [
        {
          "internalType": "string",
          "name": "",
          "type": "string"
        }
      ],
      "stateMutability": "view",
      "type": "function"
    },
    {
      "inputs": [],
      "name": "owner",
      "outputs": [
        {
          "internalType": "address",
          "name": "",
          "type": "address"
        }
      ],
      "stateMutability": "view",
      "type": "function"
    },
    {
      "inputs": [
        {
          "internalType": "string",
          "name": "_value",
          "type": "string"
        }
      ],
      "name": "parseInt",
      "outputs": [
        {
          "internalType": "uint256",
          "name": "_ret",
          "type": "uint256"
        }
      ],
      "stateMutability": "pure",
      "type": "function"
    },
    {
      "inputs": [
        {
          "internalType": "uint256",
          "name": "issueId",
          "type": "uint256"
        }
      ],
      "name": "proposalConfig",
      "outputs": [
        {
          "internalType": "address",
          "name": "creator",
          "type": "address"
        },
        {
          "internalType": "uint256",
          "name": "quorumPct",
          "type": "uint256"
        },
        {
          "internalType": "uint256",
          "name": "supportPct",
          "type": "uint256"
        },
        {
          "internalType": "uint256",
          "name": "voters",
          "type": "uint256"
        },
        {
          "internalType": "string",
          "name": "updateData",
          "type": "string"
        },
        {
          "internalType": "bool",
          "name": "executed",
          "type": "bool"
        }
      ],
      "stateMutability": "view",
      "type": "function"
    },
    {
      "inputs": [
        {
          "internalType": "enum Voting.ProposalUpdater",
          "name": "conf",
          "type": "uint8"
        }
      ],
      "name": "proposalConfigRates",
      "outputs": [
        {
          "internalType": "uint256",
          "name": "quorumPct",
          "type": "uint256"
        },
        {
          "internalType": "uint256",
          "name": "supportPct",
          "type": "uint256"
        }
      ],
      "stateMutability": "view",
      "type": "function"
    },
    {
      "inputs": [
        {
          "internalType": "uint256",
          "name": "issueId",
          "type": "uint256"
        }
      ],
      "name": "proposalInfo",
      "outputs": [
        {
          "internalType": "string",
          "name": "title",
          "type": "string"
        },
        {
          "internalType": "enum Voting.ProposalType",
          "name": "votingType",
          "type": "uint8"
        },
        {
          "internalType": "enum Voting.ProposalUpdater",
          "name": "votingUpdater",
          "type": "uint8"
        },
        {
          "internalType": "uint256",
          "name": "nay",
          "type": "uint256"
        },
        {
          "internalType": "uint256",
          "name": "yea",
          "type": "uint256"
        },
        {
          "internalType": "bool",
          "name": "hasQuorum",
          "type": "bool"
        },
        {
          "internalType": "bool",
          "name": "accepted",
          "type": "bool"
        },
        {
          "internalType": "uint256",
          "name": "expiryTime",
          "type": "uint256"
        }
      ],
      "stateMutability": "view",
      "type": "function"
    },
    {
      "inputs": [
        {
          "internalType": "uint256",
          "name": "issueId",
          "type": "uint256"
        }
      ],
      "name": "redeemDepositFromProposal",
      "outputs": [],
      "stateMutability": "nonpayable",
      "type": "function"
    },
    {
      "inputs": [],
      "name": "renounceOwnership",
      "outputs": [],
      "stateMutability": "nonpayable",
      "type": "function"
    },
    {
      "inputs": [
        {
          "internalType": "bytes32",
          "name": "role",
          "type": "bytes32"
        },
        {
          "internalType": "address",
          "name": "account",
          "type": "address"
        }
      ],
      "name": "renounceRole",
      "outputs": [],
      "stateMutability": "nonpayable",
      "type": "function"
    },
    {
      "inputs": [
        {
          "internalType": "bytes32",
          "name": "role",
          "type": "bytes32"
        },
        {
          "internalType": "address",
          "name": "account",
          "type": "address"
        }
      ],
      "name": "revokeRole",
      "outputs": [],
      "stateMutability": "nonpayable",
      "type": "function"
    },
    {
      "inputs": [
        {
          "internalType": "address",
          "name": "rewardAddress",
          "type": "address"
        }
      ],
      "name": "setRewardAddress",
      "outputs": [],
      "stateMutability": "nonpayable",
      "type": "function"
    },
    {
      "inputs": [
        {
          "internalType": "address",
          "name": "newOwner",
          "type": "address"
        }
      ],
      "name": "transferOwnership",
      "outputs": [],
      "stateMutability": "nonpayable",
      "type": "function"
    },
    {
      "inputs": [
        {
          "internalType": "address",
          "name": "holder",
          "type": "address"
        }
      ],
      "name": "updatedStake",
      "outputs": [],
      "stateMutability": "nonpayable",
      "type": "function"
    },
    {
      "inputs": [
        {
          "internalType": "enum Voting.ProposalUpdater",
          "name": "votingUpdater",
          "type": "uint8"
        },
        {
          "internalType": "string",
          "name": "updateData",
          "type": "string"
        }
      ],
      "name": "updaterValidateData",
      "outputs": [
        {
          "internalType": "bool",
          "name": "",
          "type": "bool"
        }
      ],
      "stateMutability": "pure",
      "type": "function"
    },
    {
      "inputs": [
        {
          "internalType": "uint256",
          "name": "issueId",
          "type": "uint256"
        },
        {
          "internalType": "bytes4",
          "name": "option",
          "type": "bytes4"
        }
      ],
      "name": "vote",
      "outputs": [
        {
          "internalType": "bool",
          "name": "",
          "type": "bool"
        }
      ],
      "stateMutability": "nonpayable",
      "type": "function"
    },
    {
      "inputs": [
        {
          "internalType": "uint256",
          "name": "issueId",
          "type": "uint256"
        },
        {
          "internalType": "uint256",
          "name": "option",
          "type": "uint256"
        }
      ],
      "name": "vote",
      "outputs": [
        {
          "internalType": "bool",
          "name": "",
          "type": "bool"
        }
      ],
      "stateMutability": "nonpayable",
      "type": "function"
    },
    {
      "inputs": [
        {
          "internalType": "uint256",
          "name": "issueId",
          "type": "uint256"
        },
        {
          "internalType": "address",
          "name": "addr",
          "type": "address"
        }
      ],
      "name": "weightOf",
      "outputs": [
        {
          "internalType": "uint256",
          "name": "",
          "type": "uint256"
        }
      ],
      "stateMutability": "view",
      "type": "function"
    },
    {
      "inputs": [
        {
          "internalType": "uint256",
          "name": "issueId",
          "type": "uint256"
        },
        {
          "internalType": "uint256",
          "name": "option",
          "type": "uint256"
        }
      ],
      "name": "weightedVoteCountsOf",
      "outputs": [
        {
          "internalType": "uint256",
          "name": "",
          "type": "uint256"
        }
      ],
      "stateMutability": "view",
      "type": "function"
    },
    {
      "inputs": [],
      "name": "version",
      "outputs": [
        {
          "internalType": "string",
          "name": "",
          "type": "string"
        }
      ],
      "stateMutability": "pure",
      "type": "function"
    }
  ],
  "bytecode": "0x60806040526402540be40060035562278d006004553480156200002157600080fd5b5060405162005e7638038062005e768339810160408190526200004491620004e6565b6000620000596001600160e01b036200049016565b600080546001600160a01b0319166001600160a01b0383169081178255604051929350917f8be0079c531659141344cd1fd0a4f28419497f9722a3daafe3b4186f6b6457e0908290a350620000e3604051620000b5906200052d565b6040518091039020604051620000cb906200052d565b6040519081900390206001600160e01b036200049416565b620000f5604051620000b59062000516565b604080518082018252614e2080825261c35160208084018281526000808052600590925293517f05b8ccbb9d4d8fb16ea74ce3c29a41f1b461fbdaff4714a0d9a8eb05499746bc5592517f05b8ccbb9d4d8fb16ea74ce3c29a41f1b461fbdaff4714a0d9a8eb05499746bd5592519092919060008051602062005e568339815191529062000187908590859062000543565b60405180910390a2604080518082018252838152602080820184815260016000819052600590925291517f1471eb6eb2c5e789fc3de43f8ce62938c7d1836ec861730447e2ada8fd81017b5590517f1471eb6eb2c5e789fc3de43f8ce62938c7d1836ec861730447e2ada8fd81017c55905160008051602062005e568339815191529062000219908590859062000543565b60405180910390a2604080518082018252838152602080820184815260026000819052600590925291517f89832631fb3c3307a103ba2c84ab569c64d6182a18893dcd163f0f1c2090733a5590517f89832631fb3c3307a103ba2c84ab569c64d6182a18893dcd163f0f1c2090733b55905160008051602062005e5683398151915290620002ab908590859062000543565b60405180910390a2604080518082018252838152602080820184815260036000819052600590925291517fa9bc9a3a348c357ba16b37005d7e6b3236198c0e939f4af8c5f19b8deeb8ebc05590517fa9bc9a3a348c357ba16b37005d7e6b3236198c0e939f4af8c5f19b8deeb8ebc155905160008051602062005e56833981519152906200033d908590859062000543565b60405180910390a2604080518082018252838152602080820184815260046000819052600590925291517f3eec716f11ba9e820c81ca75eb978ffb45831ef8b7a53e5e422c26008e1ca6d55590517f3eec716f11ba9e820c81ca75eb978ffb45831ef8b7a53e5e422c26008e1ca6d655905160008051602062005e5683398151915290620003cf908590859062000543565b60405180910390a26040805180820182528381526020808201848152600560008190529182905291517f458b30c2d72bfd2c6317304a4594ecbafe5f729d3111b65fdc3a33bd48e5432d5590517f458b30c2d72bfd2c6317304a4594ecbafe5f729d3111b65fdc3a33bd48e5432e55905160008051602062005e568339815191529062000460908590859062000543565b60405180910390a25050600280546001600160a01b0319166001600160a01b039290921691909117905562000551565b3390565b600082815260016020526040808220600201549051839285917fbd79b86ffe0ab8e8776151514217cd7cacd52c909f66475c3af44e129f0b00ff9190a460009182526001602052604090912060020155565b600060208284031215620004f8578081fd5b81516001600160a01b03811681146200050f578182fd5b9392505050565b6a564f54494e475f524f4c4560a81b8152600b0190565b6941444d494e5f524f4c4560b01b8152600a0190565b918252602082015260400190565b6158f580620005616000396000f3fe608060405234801561001057600080fd5b50600436106102735760003560e01c806375b238fc11610151578063ae092e89116100c3578063e0136a7911610087578063e0136a791461055b578063eaac697a14610573578063f0464a2b14610586578063f2fde38b14610599578063f3da049e146105ac578063f6621dc3146105b457610273565b8063ae092e89146104f3578063b384abef1461051a578063c9c3d42e1461052d578063ca15c87314610535578063d547741f1461054857610273565b80639010d07c116101155780639010d07c1461048c57806391d148541461049f578063933c1306146104b25780639d91cf9a146104c5578063a1629f92146104d8578063a217fddf146104eb57610273565b806375b238fc14610441578063761bbd8a146104495780638935ced5146104515780638da5cb5b146104645780638e0a13721461047957610273565b80634ba241d8116101ea5780635e00e679116101ae5780635e00e679146103da5780636e6a1dc3146103ed5780636f963fa114610400578063704802751461041357806370c88f3014610426578063715018a61461043957610273565b80634ba241d8146103775780634c461f5a1461039957806350381451146103ac57806353c2d479146103bf57806354fd4d50146103d257610273565b806331aab8881161023c57806331aab888146102fe57806332ec991c1461032357806336568abe1461033657806342346c5e1461034957806346c6211e1461035c5780634883a6a81461036457610273565b8062fe1bff1461027857806312a70f0b146102a15780631e01a172146102b6578063248a9ca3146102d65780632f2ff15d146102e9575b600080fd5b61028b610286366004614bb7565b6105d5565b6040516102989190614fba565b60405180910390f35b6102a961088e565b6040516102989190614fd5565b6102c96102c4366004614b29565b6108a5565b6040516102989190615011565b6102a96102e4366004614b29565b610983565b6102fc6102f7366004614b41565b61099b565b005b61031161030c366004614b29565b6109e3565b60405161029896959493929190614f72565b6102a9610331366004614de8565b610a2f565b6102fc610344366004614b41565b610a8e565b6102a9610357366004614d95565b610ad0565b6102a9610b5f565b61028b610372366004614e14565b610b66565b61038a610385366004614b7b565b610c52565b60405161029893929190615083565b6102fc6103a7366004614b08565b610d8a565b6102fc6103ba366004614cdf565b610e32565b6102fc6103cd366004614c04565b6114d8565b6102c9611c32565b6102fc6103e8366004614ac3565b611c51565b6102a96103fb366004614b7b565b611cdc565b61028b61040e366004614ac3565b611d45565b6102fc610421366004614ac3565b611e38565b6102fc610434366004614ac3565b611e8d565b6102fc612269565b6102a96122e8565b6102a96122f4565b6102a961045f366004614de8565b6122fa565b61046c612355565b6040516102989190614f45565b61028b610487366004614e44565b612364565b61046c61049a366004614b7b565b6124b7565b61028b6104ad366004614b41565b6124dc565b6102fc6104c0366004614b29565b6124fa565b6102a96104d3366004614ade565b612acc565b6102fc6104e6366004614b29565b612af4565b6102a9612bfd565b610506610501366004614b29565b612c02565b604051610298989796959493929190615024565b61028b610528366004614b7b565b612c67565b6102a9613075565b6102a9610543366004614b29565b61307b565b6102fc610556366004614b41565b613092565b6105636130cc565b6040516102989493929190615859565b6102c9610581366004614b7b565b613199565b6102a9610594366004614b29565b6132b8565b6102fc6105a7366004614ac3565b613300565b61028b6133b6565b6105c76105c2366004614b9c565b6133c6565b60405161029892919061589b565b6000808360058111156105e457fe5b14156105f257506001610888565b600183600581111561060057fe5b141561062d57600061061183610ad0565b905060c881101580156106255750610bb881105b915050610888565b600283600581111561063b57fe5b141561066557600061064c83610ad0565b9050600a81101580156106255750605a10159050610888565b600383600581111561067357fe5b141561068f57600061068483610ad0565b151591506108889050565b600483600581111561069d57fe5b141561085a5781518290600d146106b357600080fd5b604080516001808252818301909252606091602082018180388339505060408051600680825281830190925292935060609291506020820181803883395050604080516006808252818301909252929350606092915060208201818038833901905050905060005b84518110156107e357600181101561076e578460008151811061073a57fe5b602001015160f81c60f81b8460008151811061075257fe5b60200101906001600160f81b031916908160001a9053506107db565b600781101561079d5784818151811061078357fe5b602001015160f81c60f81b83600183038151811061075257fe5b8481815181106107a957fe5b602001015160f81c60f81b8260078303815181106107c357fe5b60200101906001600160f81b031916908160001a9053505b60010161071b565b5060006107ef83610ad0565b905060006107fc83610ad0565b9050600080831180156108125750620186a08311155b90508080156108215750600082115b80156108305750620186a08211155b905080801561084b5750600461084587610ad0565b60ff1611155b97506108889650505050505050565b600583600581111561086857fe5b1415610884576201518061087b83610ad0565b10159050610888565b5060005b92915050565b60405161089a90614f18565b604051809103902081565b6060816000811180156108ba5750600b548111155b6108df5760405162461bcd60e51b81526004016108d6906152b0565b60405180910390fd5b6000838152600660209081526040918290206002908101805484516001821615610100026000190190911692909204601f8101849004840283018401909452838252909290918301828280156109765780601f1061094b57610100808354040283529160200191610976565b820191906000526020600020905b81548152906001019060200180831161095957829003601f168201915b5050505050915050919050565b6000818152600160205260409020600201545b919050565b6000828152600160205260409020600201546109b9906104ad613422565b6109d55760405162461bcd60e51b81526004016108d690615121565b6109df8282613426565b5050565b600080600080606060006109f561473b565b6109fe88613495565b8051602082015160408301516060840151608085015160a090950151939d929c50909a509850919650945092505050565b600082600081118015610a445750600b548111155b610a605760405162461bcd60e51b81526004016108d6906152b0565b6001600160a01b038316600090815260096020908152604080832087845290915290205491505b5092915050565b610a96613422565b6001600160a01b0316816001600160a01b031614610ac65760405162461bcd60e51b81526004016108d6906157c9565b6109df82826138cc565b80516000908290600190600019015b8251811015610b57576030838281518110610af657fe5b016020015160f81c10801590610b2057506039838281518110610b1557fe5b016020015160f81c11155b610b2657fe5b816030848381518110610b3557fe5b016020015160f81c0360ff16029390930192600a919091029060001901610adf565b505050919050565b6003545b90565b600082600081118015610b7b5750600b548111155b610b975760405162461bcd60e51b81526004016108d6906152b0565b6279656160e81b626e617960e81b6001600160e01b03198516821480610bc957506001600160e01b0319858116908216145b610be55760405162461bcd60e51b81526004016108d690615818565b60008681526006602052604081206003015460ff166001811115610c0557fe5b14610c225760405162461bcd60e51b81526004016108d69061535b565b60006001600160e01b03198681169084161415610c3d575060015b610c47878261393b565b979650505050505050565b606060008084600081118015610c6a5750600b548111155b610c865760405162461bcd60e51b81526004016108d6906152b0565b6000868152600660205260409020600801548510610cb65760405162461bcd60e51b81526004016108d6906154d5565b6000868152600660205260408120600801805487908110610cd357fe5b60009182526020918290206003919091020180546040805160026001841615610100026000190190931692909204601f810185900485028301850190915280825291935091839190830182828015610d6c5780601f10610d4157610100808354040283529160200191610d6c565b820191906000526020600020905b815481529060010190602001808311610d4f57829003601f168201915b50505050509450806001015493508060020154925050509250925092565b610da7604051610d9990614f18565b6040518091039020336124dc565b80610dbc5750610dbc604051610d9990614f2f565b610dd85760405162461bcd60e51b81526004016108d690615713565b6002805460ff60a01b1916600160a01b8415150217905560038190556040517f07b2940585ef57a3c794dd4c4e539be91c190416b66127b5a590330c140aac0290610e269084908490614fc5565b60405180910390a15050565b610e41604051610d9990614f18565b80610e565750610e56604051610d9990614f2f565b156111385786610e785760405162461bcd60e51b81526004016108d690615755565b610e80613c62565b8411610e9e5760405162461bcd60e51b81526004016108d6906151de565b600b805460010190819055610eb290613c66565b600b546000908152600660205260409020610ecb61477c565b60056000846005811115610edb57fe5b60ff16815260208082019290925260409081016000208151808301909252805482526001908101549282019290925283546001600160a01b031916331784559150610f299083018b8b614796565b50610f38600283018989614796565b508051600583810191909155602082015160078401556009830187905560038301805460ff1981168255859261ffff1990911690610100908490811115610f7b57fe5b02179055506000836005811115610f8e57fe5b14610fff57610fd38386868080601f0160208091040260200160405190810160405280939291908181526020018383808284376000920191909152506105d592505050565b610fef5760405162461bcd60e51b81526004016108d69061545c565b610ffd600483018686614796565b505b6040805160a081018252600360608201818152626e617960e81b60808401528252600060208084018290529383018190526008860180546001810182559082529084902083518051949592909302019261105c9284920190614814565b50602082810151600180840191909155604093840151600290930192909255825160a0810184526003606082018181526279656160e81b60808401528252600082840181905294820185905260088701805494850181558552938290208151805192959490940201926110d3928492910190614814565b506020820151600182015560409091015160029091015560005b336001600160a01b0316600b547f22910aa3d36b7721f45dfd4a366dd228fb8e9f8b0752b5cf6557acba94d2edd9866040516111299190614ffc565b60405180910390a450506114ce565b600254600160a01b900460ff16156114b6576002546040516370a0823160e01b81526000916001600160a01b0316906370a082319061117b903390600401614f45565b60206040518083038186803b15801561119357600080fd5b505afa1580156111a7573d6000803e3d6000fd5b505050506040513d601f19601f820116820180604052506111cb9190810190614dd0565b905060035481106114b457876111f35760405162461bcd60e51b81526004016108d690615755565b6111fb613c62565b85116112195760405162461bcd60e51b81526004016108d6906151de565b600b80546001019081905561122d90613c66565b600b54600090815260066020526040902061124661477c565b6005600085600581111561125657fe5b60ff16815260208082019290925260409081016000208151808301909252805482526001908101549282019290925283546001600160a01b0319163317845591506112a49083018c8c614796565b506112b3600283018a8a614796565b508051600583810191909155602082015160078401556009830188905560038301805460ff1981168255869261ffff19909116906101009084908111156112f657fe5b0217905550600084600581111561130957fe5b1461137a5761134e8487878080601f0160208091040260200160405190810160405280939291908181526020018383808284376000920191909152506105d592505050565b61136a5760405162461bcd60e51b81526004016108d69061545c565b611378600483018787614796565b505b6040805160a081018252600360608201818152626e617960e81b6080840152825260006020808401829052938301819052600886018054600181018255908252908490208351805194959290930201926113d79284920190614814565b50602082810151600180840191909155604093840151600290930192909255825160a0810184526003606082018181526279656160e81b608084015282526000828401819052948201859052600887018054948501815585529382902081518051929594909402019261144e928492910190614814565b506020820151600182015560409091015160029091015560005b336001600160a01b0316600b547f22910aa3d36b7721f45dfd4a366dd228fb8e9f8b0752b5cf6557acba94d2edd9876040516114a49190614ffc565b60405180910390a45050506114ce565b505b60405162461bcd60e51b81526004016108d690615713565b5050505050505050565b6114e7604051610d9990614f18565b806114fc57506114fc604051610d9990614f2f565b1561188d578661151e5760405162461bcd60e51b81526004016108d690615755565b611526613c62565b84116115445760405162461bcd60e51b81526004016108d6906151de565b600182116115645760405162461bcd60e51b81526004016108d69061526c565b600b80546001019081905561157890613c66565b600b54600090815260066020526040902061159161477c565b600560008460058111156115a157fe5b60ff16815260208082019290925260409081016000208151808301909252805482526001908101549282019290925283546001600160a01b0319163317845591506115ef9083018b8b614796565b506115fe600283018989614796565b508051600583810191909155602082015160078401556009830187905560038301805460ff1916600117808255859261ff00199091169061010090849081111561164457fe5b02179055506040805160a081018252600460608201908152630536b69760e41b6080830152815260006020808301829052928201819052600885018054600181018255908252908390208251805193946003909302909101926116aa9284920190614814565b506020820151600182015560409091015160029091015560005b848110156118855760008460058111156116da57fe5b1461179057611774848787848181106116ef57fe5b602002820190508035601e193684900301811261170b57600080fd5b9091016020810191503567ffffffffffffffff81111561172a57600080fd5b3681900382131561173a57600080fd5b8080601f0160208091040260200160405190810160405280939291908181526020018383808284376000920191909152506105d592505050565b6117905760405162461bcd60e51b81526004016108d69061545c565b8260080160405180606001604052808888858181106117ab57fe5b602002820190508035601e19368490030181126117c757600080fd5b9091016020810191503567ffffffffffffffff8111156117e657600080fd5b368190038213156117f657600080fd5b8080601f0160208091040260200160405190810160405280939291908181526020018383808284376000920182905250938552505050602080830182905260409092018190528354600181018555938152819020825180519394600302909101926118649284920190614814565b506020820151600180830191909155604090920151600290910155016116c4565b5060016110ed565b600254600160a01b900460ff16156114b6576002546040516370a0823160e01b81526000916001600160a01b0316906370a08231906118d0903390600401614f45565b60206040518083038186803b1580156118e857600080fd5b505afa1580156118fc573d6000803e3d6000fd5b505050506040513d601f19601f820116820180604052506119209190810190614dd0565b905060035481106114b457876119485760405162461bcd60e51b81526004016108d690615755565b611950613c62565b851161196e5760405162461bcd60e51b81526004016108d6906151de565b6001831161198e5760405162461bcd60e51b81526004016108d69061526c565b600b8054600101908190556119a290613c66565b600b5460009081526006602052604090206119bb61477c565b600560008560058111156119cb57fe5b60ff16815260208082019290925260409081016000208151808301909252805482526001908101549282019290925283546001600160a01b031916331784559150611a199083018c8c614796565b50611a28600283018a8a614796565b508051600583810191909155602082015160078401556009830188905560038301805460ff1916600117808255869261ff001990911690610100908490811115611a6e57fe5b02179055506040805160a081018252600460608201908152630536b69760e41b608083015281526000602080830182905292820181905260088501805460018101825590825290839020825180519394600390930290910192611ad49284920190614814565b506020820151600182015560409091015160029091015560005b85811015611c2a576000856005811115611b0457fe5b14611b3557611b19858888848181106116ef57fe5b611b355760405162461bcd60e51b81526004016108d69061545c565b826008016040518060600160405280898985818110611b5057fe5b602002820190508035601e1936849003018112611b6c57600080fd5b9091016020810191503567ffffffffffffffff811115611b8b57600080fd5b36819003821315611b9b57600080fd5b8080601f016020809104026020016040519081016040528093929190818152602001838380828437600092018290525093855250505060208083018290526040909201819052835460018101855593815281902082518051939460030290910192611c099284920190614814565b50602082015160018083019190915560409092015160029091015501611aee565b506001611468565b6040805180820190915260058152640312e302e360dc1b602082015290565b611c59613422565b6000546001600160a01b03908116911614611c865760405162461bcd60e51b81526004016108d6906155ce565b600c80546001600160a01b0319166001600160a01b0383161790556040517f9dcd13554f22035bbc407c5a35cbb867a5184edbfe7a2a57fe805a10ef8a094d90611cd1908390614f45565b60405180910390a150565b600082600081118015611cf15750600b548111155b611d0d5760405162461bcd60e51b81526004016108d6906152b0565b6000848152600660205260409020600801805484908110611d2a57fe5b90600052602060002090600302016001015491505092915050565b6000611d64604051611d5690614f18565b6040518091039020836124dc565b80611d795750611d79604051611d5690614f2f565b15611d8657506001610996565b600254600160a01b900460ff1615611e3057600254604051632c9aab9b60e11b81526000916001600160a01b031690635935573690611dc9908690600401614f45565b60206040518083038186803b158015611de157600080fd5b505afa158015611df5573d6000803e3d6000fd5b505050506040513d601f19601f82011682018060405250611e199190810190614dd0565b90506003548110611e2e576001915050610996565b505b506000919050565b611e40613422565b6000546001600160a01b03908116911614611e6d5760405162461bcd60e51b81526004016108d6906155ce565b611e8a604051611e7c90614f2f565b6040518091039020826109d5565b50565b6002546001600160a01b03163314611ea457600080fd5b6001600160a01b0381166000908152600a6020908152604091829020805483518184028101840190945280845260609392830182828015611f0457602002820191906000526020600020905b815481526020019060010190808311611ef0575b50505050509050805160001415611f1b5750611e8a565b6002546040805163ca5c7b9160e01b815290516000926001600160a01b03169163ca5c7b91916004808301926020929190829003018186803b158015611f6057600080fd5b505afa158015611f74573d6000803e3d6000fd5b505050506040513d601f19601f82011682018060405250611f989190810190614dd0565b600254604051632c9aab9b60e11b81529192506000916001600160a01b0390911690635935573690611fce908790600401614f45565b60206040518083038186803b158015611fe657600080fd5b505afa158015611ffa573d6000803e3d6000fd5b505050506040513d601f19601f8201168201806040525061201e9190810190614dd0565b905060606000805b855181101561223657600086828151811061203d57fe5b602002602001015190506000600660008381526020019081526020016000209050612066613c62565b8160090154101561207857505061222e565b6001600160a01b038916600090815260096020908152604080832085845290915290208661215957600b82018054600019019055600181018054600a8401805491909103905554815460088401805490919081106120d257fe5b9060005260206000209060030201600201600082825403925050819055508160080181600001548154811061210357fe5b6000918252602082206001600390920201810180546000190190558201556005820154600a8301548990620186a0028161213957fe5b6006909401805460ff1916919094049190911015179091555061222e9050565b868160010154111561219f57868160010154038260080182600001548154811061217f57fe5b6000918252602090912060026003909202010180549190910390556121d4565b80600101548703826008018260000154815481106121b957fe5b60009182526020909120600260039092020101805490910190555b600181018790556005820154600a8301548990620186a002816121f357fe5b60068501805460ff19169290910492909210151790558551839087908790811061221957fe5b60209081029190910101525050600190920191505b600101612026565b506001600160a01b0386166000908152600a60209081526040909120835161226092850190614882565b50505050505050565b612271613422565b6000546001600160a01b0390811691161461229e5760405162461bcd60e51b81526004016108d6906155ce565b600080546040516001600160a01b03909116907f8be0079c531659141344cd1fd0a4f28419497f9722a3daafe3b4186f6b6457e0908390a3600080546001600160a01b0319169055565b60405161089a90614f2f565b600b5490565b60008260008111801561230f5750600b548111155b61232b5760405162461bcd60e51b81526004016108d6906152b0565b50506001600160a01b03166000908152600960209081526040808320938352929052206001015490565b6000546001600160a01b031690565b336000908152600d602052604081205485146123925760405162461bcd60e51b81526004016108d690615170565b6123d486868686868080601f016020809104026020016040519081016040528093929190818152602001838380828437600092019190915250613d1b92505050565b6123f05760405162461bcd60e51b81526004016108d6906153da565b336000818152600d60205260409081902080546001019055600254905163f3fef3a360e01b81526001600160a01b039091169163f3fef3a39161243891908a90600401614f59565b600060405180830381600087803b15801561245257600080fd5b505af1158015612466573d6000803e3d6000fd5b50505050336001600160a01b03167fb52d0e0c45bba15833f7d429ccdcc4c2bfa8eea764774706120027b76734a44f876040516124a39190614fd5565b60405180910390a250600195945050505050565b60008281526001602052604081206124d5908363ffffffff613d9416565b9392505050565b60008281526001602052604081206124d5908363ffffffff613da016565b61250261473b565b61250b82613495565b80519091506001600160a01b03163314806125305750612530604051610d9990614f18565b806125455750612545604051610d9990614f2f565b6125615760405162461bcd60e51b81526004016108d690615713565b8060a00151156125835760405162461bcd60e51b81526004016108d690615555565b61258b6148bc565b61259483613db5565b90506000816040015160058111156125a857fe5b14156125c65760405162461bcd60e51b81526004016108d690615782565b6125ce613c62565b816101200151106125f15760405162461bcd60e51b81526004016108d690615652565b6125f9613c62565b60045482610120015101116126205760405162461bcd60e51b81526004016108d69061569b565b8060c001516126415760405162461bcd60e51b81526004016108d690615316565b82600760008360400151600581111561265657fe5b60ff1660ff1681526020019081526020016000205411156126895760405162461bcd60e51b81526004016108d690615603565b606060018260200151600181111561269d57fe5b141561276757600660008581526020019081526020016000206008018260e00151815481106126c857fe5b6000918252602091829020600390910201805460408051601f600260001961010060018716150201909416939093049283018590048502810185019091528181529283018282801561275b5780601f106127305761010080835404028352916020019161275b565b820191906000526020600020905b81548152906001019060200180831161273e57829003601f168201915b5050505050905061276e565b5060808201515b60018260400151600581111561278057fe5b14156127f5576002546001600160a01b031663c108a402856127a184610ad0565b6040518363ffffffff1660e01b81526004016127be92919061589b565b600060405180830381600087803b1580156127d857600080fd5b505af11580156127ec573d6000803e3d6000fd5b50505050612a39565b60028260400151600581111561280757fe5b1415612828576002546001600160a01b031663ac3cd7c6856127a184610ad0565b60038260400151600581111561283a57fe5b14156128515761284981610ad0565b600355612a39565b60048260400151600581111561286357fe5b1415612a145760408051600180825281830190925282916060919060208201818038833950506040805160068082528183019092529293506060929150602082018180388339505060408051600680825281830190925292935060609291506020820181803883390190505090508351600d146128df57600080fd5b60005b84518110156129aa576001811015612935578460008151811061290157fe5b602001015160f81c60f81b8460008151811061291957fe5b60200101906001600160f81b031916908160001a9053506129a2565b60078110156129645784818151811061294a57fe5b602001015160f81c60f81b83600183038151811061291957fe5b84818151811061297057fe5b602001015160f81c60f81b82600783038151811061298a57fe5b60200101906001600160f81b031916908160001a9053505b6001016128e2565b5060006129b683610ad0565b905060006129c383610ad0565b9050604051806040016040528083815260200182815250600560006129e788610ad0565b60ff1681526020808201929092526040016000208251815591015160019091015550612a39945050505050565b600582604001516005811115612a2657fe5b1415612a3957612a3581610ad0565b6004555b600084815260066020526040808220600c01805460ff1916600117905583015185916007916005811115612a6957fe5b60ff1660ff16815260200190815260200160002081905550336001600160a01b031682604001516005811115612a9b57fe5b60405186907f76ddf1c56562a7f2299089b84bd25caab82ee275576eb7984361159f17d63eac90600090a450505050565b6001600160a01b03919091166000908152600860209081526040808320938352929052205490565b80600081118015612b075750600b548111155b612b235760405162461bcd60e51b81526004016108d6906152b0565b6000828152600660205260409020546001600160a01b03163314612b595760405162461bcd60e51b81526004016108d690615713565b336000908152600860209081526040808320858452909152902054612b905760405162461bcd60e51b81526004016108d6906152e7565b612b986148bc565b612ba183613db5565b9050612bab613c62565b81610120015110612bce5760405162461bcd60e51b81526004016108d690615652565b8060c00151612bef5760405162461bcd60e51b81526004016108d690615316565b612bf88361439d565b505050565b600081565b60606000806000806000806000612c176148bc565b612c208a613db5565b905080600001519850806020015197508060400151965080606001519550806080015194508060a0015193508060c001519250806101200151915050919395975091939597565b600082600081118015612c7c5750600b548111155b612c985760405162461bcd60e51b81526004016108d6906152b0565b612ca0614916565b60008581526006602090815260409182902082516101c08101845281546001600160a01b03168152600180830180548651600261010094831615949094026000190190911692909204601f8101869004860283018601909652858252919492938581019391929190830182828015612d595780601f10612d2e57610100808354040283529160200191612d59565b820191906000526020600020905b815481529060010190602001808311612d3c57829003601f168201915b5050509183525050600282810180546040805160206001841615610100026000190190931694909404601f81018390048302850183019091528084529381019390830182828015612deb5780601f10612dc057610100808354040283529160200191612deb565b820191906000526020600020905b815481529060010190602001808311612dce57829003601f168201915b5050509183525050600382015460209091019060ff166001811115612e0c57fe5b6001811115612e1757fe5b81526020016003820160019054906101000a900460ff166005811115612e3957fe5b6005811115612e4457fe5b815260048201805460408051602060026001851615610100026000190190941693909304601f8101849004840282018401909252818152938201939291830182828015612ed25780601f10612ea757610100808354040283529160200191612ed2565b820191906000526020600020905b815481529060010190602001808311612eb557829003601f168201915b50505050508152602001600582015481526020016006820160009054906101000a900460ff161515151581526020016007820154815260200160088201805480602002602001604051908101604052809291908181526020016000905b828210156130045760008481526020908190206040805160038602909201805460026001821615610100026000190190911604601f8101859004909402830160809081019092526060830184815292939092849290918491840182828015612fd85780601f10612fad57610100808354040283529160200191612fd8565b820191906000526020600020905b815481529060010190602001808311612fbb57829003601f168201915b505050505081526020016001820154815260200160028201548152505081526020019060010190612f2f565b5050509082525060098201546020820152600a8201546040820152600b8201546060820152600c9091015460ff1615156080909101526101208101515190915084106130625760405162461bcd60e51b81526004016108d6906154d5565b61306c858561393b565b95945050505050565b60045490565b600081815260016020526040812061088890614467565b6000828152600160205260409020600201546130b0906104ad613422565b610ac65760405162461bcd60e51b81526004016108d690615505565b600b546000818152600660209081526040808320600190810180548351600293821615610100026000190190911692909204601f8101859004850283018501909352828252606094938493908301828280156131695780601f1061313e57610100808354040283529160200191613169565b820191906000526020600020905b81548152906001019060200180831161314c57829003601f168201915b5050506000878152600660205260409020600301549697929660ff80821697506101009091041694509192505050565b6060826000811180156131ae5750600b548111155b6131ca5760405162461bcd60e51b81526004016108d6906152b0565b60008481526006602052604090206008015483106131fa5760405162461bcd60e51b81526004016108d6906154d5565b600084815260066020526040902060080180548490811061321757fe5b6000918252602091829020600390910201805460408051601f60026000196101006001871615020190941693909304928301859004850281018501909152818152928301828280156132aa5780601f1061327f576101008083540402835291602001916132aa565b820191906000526020600020905b81548152906001019060200180831161328d57829003601f168201915b505050505091505092915050565b6000816000811180156132cd5750600b548111155b6132e95760405162461bcd60e51b81526004016108d6906152b0565b505060009081526006602052604090206008015490565b613308613422565b6000546001600160a01b039081169116146133355760405162461bcd60e51b81526004016108d6906155ce565b6001600160a01b03811661335b5760405162461bcd60e51b81526004016108d690615226565b600080546040516001600160a01b03808516939216917f8be0079c531659141344cd1fd0a4f28419497f9722a3daafe3b4186f6b6457e091a3600080546001600160a01b0319166001600160a01b0392909216919091179055565b600254600160a01b900460ff1690565b600080600560008460058111156133d957fe5b60ff1660ff1681526020019081526020016000206000015491506005600084600581111561340357fe5b60ff1660ff168152602001908152602001600020600101549050915091565b3390565b6000828152600160205260409020613444908263ffffffff61447216565b156109df57613451613422565b6001600160a01b0316816001600160a01b0316837f2f8788117e7eff1d82e926ec794901d17c78024a50270940304540a733656f0d60405160405180910390a45050565b61349d61473b565b816000811180156134b05750600b548111155b6134cc5760405162461bcd60e51b81526004016108d6906152b0565b6134d4614916565b60008481526006602090815260409182902082516101c08101845281546001600160a01b03168152600180830180548651600261010094831615949094026000190190911692909204601f810186900486028301860190965285825291949293858101939192919083018282801561358d5780601f106135625761010080835404028352916020019161358d565b820191906000526020600020905b81548152906001019060200180831161357057829003601f168201915b5050509183525050600282810180546040805160206001841615610100026000190190931694909404601f8101839004830285018301909152808452938101939083018282801561361f5780601f106135f45761010080835404028352916020019161361f565b820191906000526020600020905b81548152906001019060200180831161360257829003601f168201915b5050509183525050600382015460209091019060ff16600181111561364057fe5b600181111561364b57fe5b81526020016003820160019054906101000a900460ff16600581111561366d57fe5b600581111561367857fe5b815260048201805460408051602060026001851615610100026000190190941693909304601f81018490048402820184019092528181529382019392918301828280156137065780601f106136db57610100808354040283529160200191613706565b820191906000526020600020905b8154815290600101906020018083116136e957829003601f168201915b50505050508152602001600582015481526020016006820160009054906101000a900460ff161515151581526020016007820154815260200160088201805480602002602001604051908101604052809291908181526020016000905b828210156138385760008481526020908190206040805160038602909201805460026001821615610100026000190190911604601f810185900490940283016080908101909252606083018481529293909284929091849184018282801561380c5780601f106137e15761010080835404028352916020019161380c565b820191906000526020600020905b8154815290600101906020018083116137ef57829003601f168201915b505050505081526020016001820154815260200160028201548152505081526020019060010190613763565b505050908252506009820154602080830191909152600a830154604080840191909152600b840154606080850191909152600c9094015460ff16151560809384015284516001600160a01b0316885260c085015191880191909152610100840151908701526101808301519186019190915260a080830151918601919091526101a090910151151590840152509092915050565b60008281526001602052604090206138ea908263ffffffff61448716565b156109df576138f7613422565b6001600160a01b0316816001600160a01b0316837ff6391f5c32d9c69d2a47ea670b442974b53935d1edc7fd64eb21e047a839171b60405160405180910390a45050565b6000826000811180156139505750600b548111155b61396c5760405162461bcd60e51b81526004016108d6906152b0565b6000848152600660205260409020613982613c62565b81600901541015613997576000925050610a87565b600254604051632c9aab9b60e11b815233916000916001600160a01b03909116906359355736906139cc908590600401614f45565b60206040518083038186803b1580156139e457600080fd5b505afa1580156139f8573d6000803e3d6000fd5b505050506040513d601f19601f82011682018060405250613a1c9190810190614dd0565b905060008111613a3e5760405162461bcd60e51b81526004016108d690615411565b6001600160a01b03821660009081526009602090815260408083208a845290915290206001015415613a825760405162461bcd60e51b81526004016108d6906153a3565b60408051808201825287815260208082018481526001600160a01b0386166000908152600983528481208c8252909252929020905181559051600191820155600b840180549091019055600a830180548201905560088301805487908110613ae657fe5b90600052602060002090600302016001016000815480929190600101919050555080836008018781548110613b1757fe5b6000918252602090912060026003909202010180549091019055600683015460ff16613beb576002546040805163ca5c7b9160e01b815290516000926001600160a01b03169163ca5c7b91916004808301926020929190829003018186803b158015613b8257600080fd5b505afa158015613b96573d6000803e3d6000fd5b505050506040513d601f19601f82011682018060405250613bba9190810190614dd0565b84600a0154620186a00281613bcb57fe5b04905083600501548110613be95760068401805460ff191660011790555b505b336000908152600a60209081526040808320805460018101825590845291909220018890555186906001600160a01b0384169089907f8eea3a81425aea5e440ed6b6289a8aea0db8025c75fdeb1434bd81650177034090613c4d908690614fd5565b60405180910390a45060019695505050505050565b4290565b613c75604051610d9990614f18565b80613c8a5750613c8a604051610d9990614f2f565b15613c9457611e8a565b600354336000818152600860209081526040808320868452909152908190208390556002549051631131011960e21b81526001600160a01b03909116926344c4046492613ce692909190600401614f59565b600060405180830381600087803b158015613d0057600080fd5b505af1158015613d14573d6000803e3d6000fd5b5050505050565b600080338686604051602001613d3393929190614eee565b604051602081830303815290604052805190602001209050808414613d6a5760405162461bcd60e51b81526004016108d6906156dc565b600c546001600160a01b0316613d80858561449c565b6001600160a01b0316149695505050505050565b60006124d583836145ca565b60006124d5836001600160a01b03841661460f565b613dbd6148bc565b81600081118015613dd05750600b548111155b613dec5760405162461bcd60e51b81526004016108d6906152b0565b613df4614916565b60008481526006602090815260409182902082516101c08101845281546001600160a01b03168152600180830180548651600261010094831615949094026000190190911692909204601f8101869004860283018601909652858252919492938581019391929190830182828015613ead5780601f10613e8257610100808354040283529160200191613ead565b820191906000526020600020905b815481529060010190602001808311613e9057829003601f168201915b5050509183525050600282810180546040805160206001841615610100026000190190931694909404601f81018390048302850183019091528084529381019390830182828015613f3f5780601f10613f1457610100808354040283529160200191613f3f565b820191906000526020600020905b815481529060010190602001808311613f2257829003601f168201915b5050509183525050600382015460209091019060ff166001811115613f6057fe5b6001811115613f6b57fe5b81526020016003820160019054906101000a900460ff166005811115613f8d57fe5b6005811115613f9857fe5b815260048201805460408051602060026001851615610100026000190190941693909304601f81018490048402820184019092528181529382019392918301828280156140265780601f10613ffb57610100808354040283529160200191614026565b820191906000526020600020905b81548152906001019060200180831161400957829003601f168201915b50505050508152602001600582015481526020016006820160009054906101000a900460ff161515151581526020016007820154815260200160088201805480602002602001604051908101604052809291908181526020016000905b828210156141585760008481526020908190206040805160038602909201805460026001821615610100026000190190911604601f810185900490940283016080908101909252606083018481529293909284929091849184018282801561412c5780601f106141015761010080835404028352916020019161412c565b820191906000526020600020905b81548152906001019060200180831161410f57829003601f168201915b505050505081526020016001820154815260200160028201548152505081526020019060010190614083565b505050908252506009820154602080830191909152600a8301546040830152600b830154606080840191909152600c9093015460ff1615156080909201919091528281015186529082015191925084019060018111156141b457fe5b908160018111156141c157fe5b9052506080810151604084019060058111156141d957fe5b908160058111156141e657fe5b90525061014081015161012084015260e0810151151560a084015260008360200151600181111561421357fe5b14156142c15780610120015160008151811061422b57fe5b60200260200101516040015183606001818152505080610120015160018151811061425257fe5b60200260200101516040015183608001818152505061426f613c62565b83610120015110801561428357508260a001515b156142b4578061016001518360800151620186a0028161429f57fe5b610100830151919004101560c08401526142bc565b600060c08401525b614396565b6142c9613c62565b8361012001511080156142dd57508260a001515b1561438e576000805b82610120015151811015614369576142fc61499d565b836101200151828151811061430d57fe5b60200260200101519050828160400151111561434b5760e086018290526040810151610100870151909350156143465760006101008701525b614360565b82816040015114156143605760016101008701525b506001016142e6565b50836101000151158015614381575060008460e00151115b151560c085015250614396565b600060c08401525b5050919050565b6143ac604051610d9990614f18565b806143c157506143c1604051610d9990614f2f565b156143cb57611e8a565b60025433600081815260086020908152604080832086845290915290819020549051633ba71a1560e01b81526001600160a01b0390931692633ba71a1592614417929091600401614f59565b600060405180830381600087803b15801561443157600080fd5b505af1158015614445573d6000803e3d6000fd5b5050336000908152600860209081526040808320868452909152812055505050565b600061088882614627565b60006124d5836001600160a01b03841661462b565b60006124d5836001600160a01b038416614675565b600081516041146144bf5760405162461bcd60e51b81526004016108d6906151a7565b60208201516040830151606084015160001a7f7fffffffffffffffffffffffffffffff5d576e7357a4501ddfe92f46681b20a08211156145115760405162461bcd60e51b81526004016108d690615493565b8060ff16601b1415801561452957508060ff16601c14155b156145465760405162461bcd60e51b81526004016108d69061558c565b60006001878386866040516000815260200160405260405161456b9493929190614fde565b6020604051602081039080840390855afa15801561458d573d6000803e3d6000fd5b5050604051601f1901519150506001600160a01b0381166145c05760405162461bcd60e51b81526004016108d6906150a8565b9695505050505050565b815460009082106145ed5760405162461bcd60e51b81526004016108d6906150df565b8260000182815481106145fc57fe5b9060005260206000200154905092915050565b60009081526001919091016020526040902054151590565b5490565b6000614637838361460f565b61466d57508154600181810184556000848152602080822090930184905584548482528286019093526040902091909155610888565b506000610888565b6000818152600183016020526040812054801561473157835460001980830191908101906000908790839081106146a857fe5b90600052602060002001549050808760000184815481106146c557fe5b6000918252602080832090910192909255828152600189810190925260409020908401905586548790806146f557fe5b60019003818190600052602060002001600090559055866001016000878152602001908152602001600020600090556001945050505050610888565b6000915050610888565b6040518060c0016040528060006001600160a01b03168152602001600081526020016000815260200160008152602001606081526020016000151581525090565b604051806040016040528060008152602001600081525090565b828054600181600116156101000203166002900490600052602060002090601f016020900481019282601f106147d75782800160ff19823516178555614804565b82800160010185558215614804579182015b828111156148045782358255916020019190600101906147e9565b506148109291506149be565b5090565b828054600181600116156101000203166002900490600052602060002090601f016020900481019282601f1061485557805160ff1916838001178555614804565b82800160010185558215614804579182015b82811115614804578251825591602001919060010190614867565b8280548282559060005260206000209081019282156148045791602002820182811115614804578251825591602001919060010190614867565b60408051610140810190915260608152602081016000815260200160008152602001600081526020016000815260200160001515815260200160001515815260200160008152602001600015158152602001600081525090565b604051806101c0016040528060006001600160a01b0316815260200160608152602001606081526020016000600181111561494d57fe5b815260200160008152602001606081526020016000815260200160001515815260200160008152602001606081526020016000815260200160008152602001600081526020016000151581525090565b60405180606001604052806060815260200160008152602001600081525090565b610b6391905b8082111561481057600081556001016149c4565b80356001600160a01b038116811461088857600080fd5b60008083601f840112614a00578182fd5b50813567ffffffffffffffff811115614a17578182fd5b602083019150836020828501011115614a2f57600080fd5b9250929050565b80356006811061088857600080fd5b600082601f830112614a55578081fd5b813567ffffffffffffffff80821115614a6c578283fd5b604051601f8301601f191681016020018281118282101715614a8c578485fd5b604052828152925082848301602001861015614aa757600080fd5b8260208601602083013760006020848301015250505092915050565b600060208284031215614ad4578081fd5b6124d583836149d8565b60008060408385031215614af0578081fd5b614afa84846149d8565b946020939093013593505050565b60008060408385031215614b1a578182fd5b82358015158114614afa578283fd5b600060208284031215614b3a578081fd5b5035919050565b60008060408385031215614b53578182fd5b8235915060208301356001600160a01b0381168114614b70578182fd5b809150509250929050565b60008060408385031215614b8d578182fd5b50508035926020909101359150565b600060208284031215614bad578081fd5b6124d58383614a36565b60008060408385031215614bc9578182fd5b614bd38484614a36565b9150602083013567ffffffffffffffff811115614bee578182fd5b614bfa85828601614a45565b9150509250929050565b60008060008060008060008060a0898b031215614c1f578384fd5b883567ffffffffffffffff80821115614c36578586fd5b614c428c838d016149ef565b909a50985060208b0135915080821115614c5a578586fd5b614c668c838d016149ef565b909850965060408b0135955060608b0135915080821115614c85578485fd5b818b018c601f820112614c96578586fd5b8035925081831115614ca6578586fd5b8c60208085028301011115614cb9578586fd5b6020019450909250614cd090508a60808b01614a36565b90509295985092959890939650565b60008060008060008060008060a0898b031215614cfa578384fd5b883567ffffffffffffffff80821115614d11578586fd5b614d1d8c838d016149ef565b909a50985060208b0135915080821115614d35578586fd5b614d418c838d016149ef565b909850965060408b0135955060608b0135915080821115614d60578485fd5b50614d6d8b828c016149ef565b909450925050608089013560068110614d84578182fd5b809150509295985092959890939650565b600060208284031215614da6578081fd5b813567ffffffffffffffff811115614dbc578182fd5b614dc884828501614a45565b949350505050565b600060208284031215614de1578081fd5b5051919050565b60008060408385031215614dfa578182fd5b82359150614e0b84602085016149d8565b90509250929050565b60008060408385031215614e26578182fd5b8235915060208301356001600160e01b031981168114614b70578182fd5b600080600080600060808688031215614e5b578283fd5b853594506020860135935060408601359250606086013567ffffffffffffffff811115614e86578182fd5b614e92888289016149ef565b969995985093965092949392505050565b60008151808452815b81811015614ec857602081850181015186830182015201614eac565b81811115614ed95782602083870101525b50601f01601f19169290920160200192915050565b60609390931b6bffffffffffffffffffffffff191683526014830191909152603482015260540190565b6a564f54494e475f524f4c4560a81b8152600b0190565b6941444d494e5f524f4c4560b01b8152600a0190565b6001600160a01b0391909116815260200190565b6001600160a01b03929092168252602082015260400190565b600060018060a01b038816825286602083015285604083015284606083015260c06080830152614fa560c0830185614ea3565b905082151560a0830152979650505050505050565b901515815260200190565b9115158252602082015260400190565b90815260200190565b93845260ff9290921660208401526040830152606082015260800190565b60208101615009836158b4565b825292915050565b6000602082526124d56020830184614ea3565b60006101008083526150388184018c614ea3565b915050615044896158a9565b6020830152615052886158b4565b60408301526060820196909652608081019490945291151560a0840152151560c083015260e0909101529392505050565b6000606082526150966060830186614ea3565b60208301949094525060400152919050565b60208082526018908201527f45434453413a20696e76616c6964207369676e61747572650000000000000000604082015260600190565b60208082526022908201527f456e756d657261626c655365743a20696e646578206f7574206f6620626f756e604082015261647360f01b606082015260800190565b6020808252602f908201527f416363657373436f6e74726f6c3a2073656e646572206d75737420626520616e60408201526e0818591b5a5b881d1bc819dc985b9d608a1b606082015260800190565b6020808252601c908201527f526577617264696e673a20696e636f7272656374206e6f6e6365496400000000604082015260600190565b6020808252601f908201527f45434453413a20696e76616c6964207369676e6174757265206c656e67746800604082015260600190565b60208082526028908201527f566f74696e673a2074696d65206d75737420626520626967676572207468616e6040820152670818dd5c9c995b9d60c21b606082015260800190565b60208082526026908201527f4f776e61626c653a206e6577206f776e657220697320746865207a65726f206160408201526564647265737360d01b606082015260800190565b60208082526024908201527f566f74696e673a206d757374206265206174206c656173742074776f206f7074604082015263696f6e7360e01b606082015260800190565b6020808252601f908201527f566f74696e673a2070726f706f73616c20646f6573206e6f7420657869737400604082015260600190565b602080825260159082015274159bdd1a5b99ce88195b5c1d1e4819195c1bdcda5d605a1b604082015260600190565b60208082526025908201527f566f74696e673a20746869732070726f706f73616c206974206e6f7420616363604082015264195c1d195960da1b606082015260800190565b60208082526028908201527f566f74696e673a20706c656173652063686f6f736520616e206f7074696f6e206040820152670c4f240d2dcc8caf60c31b606082015260800190565b6020808252601e908201527f566f74696e673a20796f75206861766520616c726561647920766f7465640000604082015260600190565b6020808252601e908201527f526577617264696e673a20696e636f7272656374207369676e61747572650000604082015260600190565b6020808252602b908201527f566f74696e673a20796f75206861766520746f206c6f636b20796f757220746f60408201526a6b656e73206265666f726560a81b606082015260800190565b6020808252601f908201527f566f74696e673a20696e636f7272656374207570646174696e67206461746100604082015260600190565b60208082526022908201527f45434453413a20696e76616c6964207369676e6174757265202773272076616c604082015261756560f01b606082015260800190565b602080825260169082015275566f74696e673a206f7574206f6620696e646578657360501b604082015260600190565b60208082526030908201527f416363657373436f6e74726f6c3a2073656e646572206d75737420626520616e60408201526f2061646d696e20746f207265766f6b6560801b606082015260800190565b60208082526018908201527f566f74696e673a20616c72656164792065786563757465640000000000000000604082015260600190565b60208082526022908201527f45434453413a20696e76616c6964207369676e6174757265202776272076616c604082015261756560f01b606082015260800190565b6020808252818101527f4f776e61626c653a2063616c6c6572206973206e6f7420746865206f776e6572604082015260600190565b6020808252602f908201527f566f74696e673a2064656e69656420746f20657865637574652074686520726560408201526e1c1b1858d959081c1c9bdc1bdcd85b608a1b606082015260800190565b60208082526029908201527f566f74696e673a20766f74696e6720706572696f64206973206e6f742066696e6040820152681a5cda1959081e595d60ba1b606082015260800190565b60208082526021908201527f566f74696e673a20657865637574696f6e2074696d65206973206578706972656040820152601960fa1b606082015260800190565b60208082526019908201527f526577617264696e673a20696e636f7272656374206861736800000000000000604082015260600190565b60208082526022908201527f566f74696e673a20796f7520646f206e6f742068617665207065726d6973736960408201526137b760f11b606082015260800190565b602080825260139082015272566f74696e673a20656d707479207469746c6560681b604082015260600190565b60208082526027908201527f566f74696e673a20746869732070726f706f73616c206973206e6f742065786560408201526663757461626c6560c81b606082015260800190565b6020808252602f908201527f416363657373436f6e74726f6c3a2063616e206f6e6c792072656e6f756e636560408201526e103937b632b9903337b91039b2b63360891b606082015260800190565b60208082526021908201527f566f74696e673a20796f752073686f756c642073617920796561206f72206e616040820152607960f81b606082015260800190565b6000858252608060208301526158726080830186614ea3565b905061587d846158a9565b60408301526006831061588c57fe5b82606083015295945050505050565b918252602082015260400190565b806002811061099657fe5b806006811061099657fefea2646970667358221220096666021a4e860beb7c77f20278b1541744e5fd6b3d1368fbdd50c7250da99f64736f6c63430006020033a8a1fd55aad9bd98e45291d680690c619e60f7931ecaeb384ba0bfb225cd25fe",
  "source": "// SPDX-License-Identifier: GPL-3.0\npragma solidity 0.6.2;\npragma experimental ABIEncoderV2;\n\n\nimport \"./ICitadelDaoTransport.sol\";\nimport \"./DAO/Rewarding.sol\";\n\n\n// version 1\ncontract CitadelDao is Rewarding {\n\n    constructor (address token) public {\n        _Token = ICitadelDaoTransport(token);\n    }\n\n    function version() external pure returns (string memory) {\n        return '1.0.0';\n    }\n\n}\n",
  "sourcePath": "/home/pirat/Desktop/DAO_update/DAO/contracts/CitadelDao.sol",
  "compiler": {
    "name": "solc",
    "version": "0.6.2+commit.bacdbe57.Emscripten.clang"
  },
  "schemaVersion": "3.2.5",
  "updatedAt": "2021-08-16T15:52:52.867Z",
  "devdoc": {
    "methods": {
      "getRoleAdmin(bytes32)": {
        "details": "Returns the admin role that controls `role`. See {grantRole} and {revokeRole}.     * To change a role's admin, use {_setRoleAdmin}."
      },
      "getRoleMember(bytes32,uint256)": {
        "details": "Returns one of the accounts that have `role`. `index` must be a value between 0 and {getRoleMemberCount}, non-inclusive.     * Role bearers are not sorted in any particular way, and their ordering may change at any point.     * WARNING: When using {getRoleMember} and {getRoleMemberCount}, make sure you perform all queries on the same block. See the following https://forum.openzeppelin.com/t/iterating-over-elements-on-enumerableset-in-openzeppelin-contracts/2296[forum post] for more information."
      },
      "getRoleMemberCount(bytes32)": {
        "details": "Returns the number of accounts that have `role`. Can be used together with {getRoleMember} to enumerate all bearers of a role."
      },
      "grantRole(bytes32,address)": {
        "details": "Grants `role` to `account`.     * If `account` had not been already granted `role`, emits a {RoleGranted} event.     * Requirements:     * - the caller must have ``role``'s admin role."
      },
      "hasRole(bytes32,address)": {
        "details": "Returns `true` if `account` has been granted `role`."
      },
      "owner()": {
        "details": "Returns the address of the current owner."
      },
      "renounceOwnership()": {
        "details": "Leaves the contract without owner. It will not be possible to call `onlyOwner` functions anymore. Can only be called by the current owner.     * NOTE: Renouncing ownership will leave the contract without an owner, thereby removing any functionality that is only available to the owner."
      },
      "renounceRole(bytes32,address)": {
        "details": "Revokes `role` from the calling account.     * Roles are often managed via {grantRole} and {revokeRole}: this function's purpose is to provide a mechanism for accounts to lose their privileges if they are compromised (such as when a trusted device is misplaced).     * If the calling account had been granted `role`, emits a {RoleRevoked} event.     * Requirements:     * - the caller must be `account`."
      },
      "revokeRole(bytes32,address)": {
        "details": "Revokes `role` from `account`.     * If `account` had been granted `role`, emits a {RoleRevoked} event.     * Requirements:     * - the caller must have ``role``'s admin role."
      },
      "transferOwnership(address)": {
        "details": "Transfers ownership of the contract to a new account (`newOwner`). Can only be called by the current owner."
      }
    }
  },
  "userdoc": {
    "methods": {}
  }
}