{
  "contractName": "CitadelTokenLocker",
  "abi": [
    {
      "anonymous": false,
      "inputs": [
        {
          "indexed": true,
          "internalType": "address",
          "name": "owner",
          "type": "address"
        },
        {
          "indexed": true,
          "internalType": "address",
          "name": "spender",
          "type": "address"
        },
        {
          "indexed": false,
          "internalType": "uint256",
          "name": "value",
          "type": "uint256"
        }
      ],
      "name": "Approval",
      "type": "event"
    },
    {
      "anonymous": false,
      "inputs": [
        {
          "indexed": false,
          "internalType": "uint256",
          "name": "inflationPct",
          "type": "uint256"
        },
        {
          "indexed": false,
          "internalType": "uint256",
          "name": "stakingPct",
          "type": "uint256"
        }
      ],
      "name": "CitadelInflationRatio",
      "type": "event"
    },
    {
      "anonymous": false,
      "inputs": [
        {
          "indexed": true,
          "internalType": "address",
          "name": "previousOwner",
          "type": "address"
        },
        {
          "indexed": true,
          "internalType": "address",
          "name": "newOwner",
          "type": "address"
        }
      ],
      "name": "OwnershipTransferred",
      "type": "event"
    },
    {
      "anonymous": false,
      "inputs": [
        {
          "indexed": false,
          "internalType": "address",
          "name": "account",
          "type": "address"
        }
      ],
      "name": "Paused",
      "type": "event"
    },
    {
      "anonymous": false,
      "inputs": [
        {
          "indexed": true,
          "internalType": "address",
          "name": "from",
          "type": "address"
        },
        {
          "indexed": true,
          "internalType": "address",
          "name": "to",
          "type": "address"
        },
        {
          "indexed": false,
          "internalType": "uint256",
          "name": "value",
          "type": "uint256"
        }
      ],
      "name": "Transfer",
      "type": "event"
    },
    {
      "anonymous": false,
      "inputs": [
        {
          "indexed": false,
          "internalType": "address",
          "name": "account",
          "type": "address"
        }
      ],
      "name": "Unpaused",
      "type": "event"
    },
    {
      "inputs": [],
      "name": "_bankAddress",
      "outputs": [
        {
          "internalType": "address",
          "name": "",
          "type": "address"
        }
      ],
      "stateMutability": "view",
      "type": "function"
    },
    {
      "inputs": [
        {
          "internalType": "address",
          "name": "owner",
          "type": "address"
        },
        {
          "internalType": "address",
          "name": "spender",
          "type": "address"
        }
      ],
      "name": "allowance",
      "outputs": [
        {
          "internalType": "uint256",
          "name": "",
          "type": "uint256"
        }
      ],
      "stateMutability": "view",
      "type": "function"
    },
    {
      "inputs": [
        {
          "internalType": "address",
          "name": "spender",
          "type": "address"
        },
        {
          "internalType": "uint256",
          "name": "amount",
          "type": "uint256"
        }
      ],
      "name": "approve",
      "outputs": [
        {
          "internalType": "bool",
          "name": "",
          "type": "bool"
        }
      ],
      "stateMutability": "nonpayable",
      "type": "function"
    },
    {
      "inputs": [
        {
          "internalType": "address",
          "name": "account",
          "type": "address"
        }
      ],
      "name": "balanceOf",
      "outputs": [
        {
          "internalType": "uint256",
          "name": "",
          "type": "uint256"
        }
      ],
      "stateMutability": "view",
      "type": "function"
    },
    {
      "inputs": [],
      "name": "countInflationPoints",
      "outputs": [
        {
          "internalType": "uint256",
          "name": "",
          "type": "uint256"
        }
      ],
      "stateMutability": "view",
      "type": "function"
    },
    {
      "inputs": [],
      "name": "decimals",
      "outputs": [
        {
          "internalType": "uint8",
          "name": "",
          "type": "uint8"
        }
      ],
      "stateMutability": "view",
      "type": "function"
    },
    {
      "inputs": [
        {
          "internalType": "address",
          "name": "spender",
          "type": "address"
        },
        {
          "internalType": "uint256",
          "name": "subtractedValue",
          "type": "uint256"
        }
      ],
      "name": "decreaseAllowance",
      "outputs": [
        {
          "internalType": "bool",
          "name": "",
          "type": "bool"
        }
      ],
      "stateMutability": "nonpayable",
      "type": "function"
    },
    {
      "inputs": [],
      "name": "deployDate",
      "outputs": [
        {
          "internalType": "uint256",
          "name": "",
          "type": "uint256"
        }
      ],
      "stateMutability": "view",
      "type": "function"
    },
    {
      "inputs": [],
      "name": "deployed",
      "outputs": [
        {
          "internalType": "uint256",
          "name": "",
          "type": "uint256"
        }
      ],
      "stateMutability": "view",
      "type": "function"
    },
    {
      "inputs": [],
      "name": "getInflationStartDate",
      "outputs": [
        {
          "internalType": "uint256",
          "name": "",
          "type": "uint256"
        }
      ],
      "stateMutability": "view",
      "type": "function"
    },
    {
      "inputs": [],
      "name": "getMaxSupply",
      "outputs": [
        {
          "internalType": "uint256",
          "name": "",
          "type": "uint256"
        }
      ],
      "stateMutability": "view",
      "type": "function"
    },
    {
      "inputs": [],
      "name": "getSavedInflationYear",
      "outputs": [
        {
          "internalType": "uint256",
          "name": "",
          "type": "uint256"
        }
      ],
      "stateMutability": "view",
      "type": "function"
    },
    {
      "inputs": [
        {
          "internalType": "address",
          "name": "spender",
          "type": "address"
        },
        {
          "internalType": "uint256",
          "name": "addedValue",
          "type": "uint256"
        }
      ],
      "name": "increaseAllowance",
      "outputs": [
        {
          "internalType": "bool",
          "name": "",
          "type": "bool"
        }
      ],
      "stateMutability": "nonpayable",
      "type": "function"
    },
    {
      "inputs": [
        {
          "internalType": "uint256",
          "name": "index",
          "type": "uint256"
        }
      ],
      "name": "inflationPoint",
      "outputs": [
        {
          "internalType": "uint256",
          "name": "inflationPct",
          "type": "uint256"
        },
        {
          "internalType": "uint256",
          "name": "stakingPct",
          "type": "uint256"
        },
        {
          "internalType": "uint256",
          "name": "currentSupply",
          "type": "uint256"
        },
        {
          "internalType": "uint256",
          "name": "yearlySupply",
          "type": "uint256"
        },
        {
          "internalType": "uint256",
          "name": "date",
          "type": "uint256"
        }
      ],
      "stateMutability": "view",
      "type": "function"
    },
    {
      "inputs": [
        {
          "internalType": "address",
          "name": "",
          "type": "address"
        }
      ],
      "name": "lockedCoins",
      "outputs": [
        {
          "internalType": "uint256",
          "name": "",
          "type": "uint256"
        }
      ],
      "stateMutability": "view",
      "type": "function"
    },
    {
      "inputs": [],
      "name": "name",
      "outputs": [
        {
          "internalType": "string",
          "name": "",
          "type": "string"
        }
      ],
      "stateMutability": "view",
      "type": "function"
    },
    {
      "inputs": [],
      "name": "owner",
      "outputs": [
        {
          "internalType": "address",
          "name": "",
          "type": "address"
        }
      ],
      "stateMutability": "view",
      "type": "function"
    },
    {
      "inputs": [],
      "name": "paused",
      "outputs": [
        {
          "internalType": "bool",
          "name": "",
          "type": "bool"
        }
      ],
      "stateMutability": "view",
      "type": "function"
    },
    {
      "inputs": [],
      "name": "percentDecimal",
      "outputs": [
        {
          "internalType": "uint256",
          "name": "",
          "type": "uint256"
        }
      ],
      "stateMutability": "view",
      "type": "function"
    },
    {
      "inputs": [],
      "name": "renounceOwnership",
      "outputs": [],
      "stateMutability": "nonpayable",
      "type": "function"
    },
    {
      "inputs": [],
      "name": "startInflation",
      "outputs": [],
      "stateMutability": "nonpayable",
      "type": "function"
    },
    {
      "inputs": [
        {
          "internalType": "uint256",
          "name": "date",
          "type": "uint256"
        }
      ],
      "name": "startInflationTo",
      "outputs": [],
      "stateMutability": "nonpayable",
      "type": "function"
    },
    {
      "inputs": [],
      "name": "symbol",
      "outputs": [
        {
          "internalType": "string",
          "name": "",
          "type": "string"
        }
      ],
      "stateMutability": "view",
      "type": "function"
    },
    {
      "inputs": [],
      "name": "totalSupply",
      "outputs": [
        {
          "internalType": "uint256",
          "name": "",
          "type": "uint256"
        }
      ],
      "stateMutability": "view",
      "type": "function"
    },
    {
      "inputs": [
        {
          "internalType": "address",
          "name": "recipient",
          "type": "address"
        },
        {
          "internalType": "uint256",
          "name": "amount",
          "type": "uint256"
        }
      ],
      "name": "transfer",
      "outputs": [
        {
          "internalType": "bool",
          "name": "",
          "type": "bool"
        }
      ],
      "stateMutability": "nonpayable",
      "type": "function"
    },
    {
      "inputs": [
        {
          "internalType": "address",
          "name": "sender",
          "type": "address"
        },
        {
          "internalType": "address",
          "name": "recipient",
          "type": "address"
        },
        {
          "internalType": "uint256",
          "name": "amount",
          "type": "uint256"
        }
      ],
      "name": "transferFrom",
      "outputs": [
        {
          "internalType": "bool",
          "name": "",
          "type": "bool"
        }
      ],
      "stateMutability": "nonpayable",
      "type": "function"
    },
    {
      "inputs": [
        {
          "internalType": "address",
          "name": "newOwner",
          "type": "address"
        }
      ],
      "name": "transferOwnership",
      "outputs": [],
      "stateMutability": "nonpayable",
      "type": "function"
    },
    {
      "inputs": [
        {
          "internalType": "uint256",
          "name": "pct",
          "type": "uint256"
        }
      ],
      "name": "updateInflation",
      "outputs": [],
      "stateMutability": "nonpayable",
      "type": "function"
    },
    {
      "inputs": [
        {
          "internalType": "address",
          "name": "to",
          "type": "address"
        },
        {
          "internalType": "uint256",
          "name": "amount",
          "type": "uint256"
        }
      ],
      "name": "withdraw",
      "outputs": [],
      "stateMutability": "nonpayable",
      "type": "function"
    },
    {
      "inputs": [],
      "name": "totalSupplyHistoryCount",
      "outputs": [
        {
          "internalType": "uint256",
          "name": "",
          "type": "uint256"
        }
      ],
      "stateMutability": "view",
      "type": "function"
    },
    {
      "inputs": [
        {
          "internalType": "uint256",
          "name": "index",
          "type": "uint256"
        }
      ],
      "name": "totalSupplyHistory",
      "outputs": [
        {
          "internalType": "uint256",
          "name": "value",
          "type": "uint256"
        },
        {
          "internalType": "uint256",
          "name": "date",
          "type": "uint256"
        }
      ],
      "stateMutability": "view",
      "type": "function"
    },
    {
      "inputs": [
        {
          "internalType": "address",
          "name": "addr",
          "type": "address"
        }
      ],
      "name": "lockHistoryCount",
      "outputs": [
        {
          "internalType": "uint256",
          "name": "",
          "type": "uint256"
        }
      ],
      "stateMutability": "view",
      "type": "function"
    },
    {
      "inputs": [
        {
          "internalType": "address",
          "name": "addr",
          "type": "address"
        },
        {
          "internalType": "uint256",
          "name": "index",
          "type": "uint256"
        }
      ],
      "name": "lockHistory",
      "outputs": [
        {
          "internalType": "uint256",
          "name": "value",
          "type": "uint256"
        },
        {
          "internalType": "uint256",
          "name": "date",
          "type": "uint256"
        }
      ],
      "stateMutability": "view",
      "type": "function"
    },
    {
      "inputs": [
        {
          "internalType": "uint256",
          "name": "amount",
          "type": "uint256"
        }
      ],
      "name": "lockCoins",
      "outputs": [],
      "stateMutability": "nonpayable",
      "type": "function"
    },
    {
      "inputs": [
        {
          "internalType": "uint256",
          "name": "amount",
          "type": "uint256"
        }
      ],
      "name": "unlockCoins",
      "outputs": [],
      "stateMutability": "nonpayable",
      "type": "function"
    },
    {
      "inputs": [
        {
          "internalType": "address",
          "name": "account",
          "type": "address"
        }
      ],
      "name": "lockedBalanceOf",
      "outputs": [
        {
          "internalType": "uint256",
          "name": "",
          "type": "uint256"
        }
      ],
      "stateMutability": "view",
      "type": "function"
    },
    {
      "inputs": [],
      "name": "lockedSupply",
      "outputs": [
        {
          "internalType": "uint256",
          "name": "",
          "type": "uint256"
        }
      ],
      "stateMutability": "view",
      "type": "function"
    },
    {
      "inputs": [
        {
          "internalType": "address",
          "name": "vestAddress",
          "type": "address"
        }
      ],
      "name": "initVestingTransport",
      "outputs": [],
      "stateMutability": "nonpayable",
      "type": "function"
    },
    {
      "inputs": [],
      "name": "getVestingAddress",
      "outputs": [
        {
          "internalType": "address",
          "name": "",
          "type": "address"
        }
      ],
      "stateMutability": "view",
      "type": "function"
    }
  ],
  "bytecode": "0x600b60808181526a4369746164656c2e6f6e6560a81b60a0908152610100604052600360c0818152621610d560ea1b60e05292936200003f929062000133565b5080516200005590600490602084019062000133565b50506005805460ff191660121790555060006200007a6001600160e01b036200011816565b60058054610100600160a81b0319166101006001600160a01b03841690810291909117909155604051919250906000907f8be0079c531659141344cd1fd0a4f28419497f9722a3daafe3b4186f6b6457e0908290a3506005805460ff60a81b19169055600680546001600160a01b031916301781554260075566038d7ea4c6800060085562000112906001600160e01b036200011d16565b620001d5565b335b90565b6005805460ff191660ff92909216919091179055565b828054600181600116156101000203166002900490600052602060002090601f016020900481019282601f106200017657805160ff1916838001178555620001a6565b82800160010185558215620001a6579182015b82811115620001a657825182559160200191906001019062000189565b50620001b4929150620001b8565b5090565b6200011a91905b80821115620001b45760008155600101620001bf565b61206f80620001e56000396000f3fe608060405234801561001057600080fd5b506004361061023d5760003560e01c806370a082311161013b578063bf17282a116100b8578063f2fde38b1161007c578063f2fde38b14610681578063f3fef3a3146106a7578063f905c15a146106d3578063f9b7ce02146106db578063ff1764a4146106e35761023d565b8063bf17282a146105c0578063c686781d146105e6578063ca5c7b9114610603578063dd62ed3e1461060b578063f1474bd8146106395761023d565b80638da5cb5b116100ff5780638da5cb5b1461055057806395d89b4114610558578063a457c2d714610560578063a9059cbb1461058c578063ba1a681f146105b85761023d565b806370a08231146104b9578063715018a6146104df5780637dc5b72d146104e75780637fa7faf81461050457806389bb60811461052a5761023d565b80634ab68e14116101c957806355b28b371161018d57806355b28b371461045e57806359355736146104665780635c975abb1461048c5780636641d9a01461049457806369668fe9146104b15761023d565b80634ab68e14146103dd5780634b45aa12146103e55780634c0f38c2146103ed5780634cf54195146103f557806353d168e71461043a5761023d565b806323b872dd1161021057806323b872dd146103215780632ad3b3c314610357578063313ce5671461037657806339509351146103945780634a27206a146103c05761023d565b806306fdde0314610242578063095ea7b3146102bf57806318160ddd146102ff5780631d0a67e114610319575b600080fd5b61024a6106eb565b6040805160208082528351818301528351919283929083019185019080838360005b8381101561028457818101518382015260200161026c565b50505050905090810190601f1680156102b15780820380516001836020036101000a031916815260200191505b509250505060405180910390f35b6102eb600480360360408110156102d557600080fd5b506001600160a01b038135169060200135610781565b604080519115158252519081900360200190f35b61030761079e565b60408051918252519081900360200190f35b6103076107a4565b6102eb6004803603606081101561033757600080fd5b506001600160a01b038135811691602081013590911690604001356107aa565b6103746004803603602081101561036d57600080fd5b5035610837565b005b61037e610899565b6040805160ff9092168252519081900360200190f35b6102eb600480360360408110156103aa57600080fd5b506001600160a01b0381351690602001356108a2565b610374600480360360208110156103d657600080fd5b50356108f6565b610307610a34565b610307610a3a565b610307610a40565b6104216004803603604081101561040b57600080fd5b506001600160a01b038135169060200135610a46565b6040805192835260208301919091528051918290030190f35b610442610b21565b604080516001600160a01b039092168252519081900360200190f35b610307610b30565b6103076004803603602081101561047c57600080fd5b50356001600160a01b0316610b36565b6102eb610b51565b610421600480360360208110156104aa57600080fd5b5035610b61565b610307610bed565b610307600480360360208110156104cf57600080fd5b50356001600160a01b0316610bf3565b610374610c2c565b610374600480360360208110156104fd57600080fd5b5035610cd9565b6103746004803603602081101561051a57600080fd5b50356001600160a01b0316610dfd565b6103076004803603602081101561054057600080fd5b50356001600160a01b0316610e7c565b610442610e97565b61024a610eab565b6102eb6004803603604081101561057657600080fd5b506001600160a01b038135169060200135610f0c565b6102eb600480360360408110156105a257600080fd5b506001600160a01b038135169060200135610f7a565b610307610f8e565b610307600480360360208110156105d657600080fd5b50356001600160a01b0316610f94565b610374600480360360208110156105fc57600080fd5b5035610fa6565b6103076110d4565b6103076004803603604081101561062157600080fd5b506001600160a01b03813581169160200135166110e3565b6106566004803603602081101561064f57600080fd5b503561110e565b6040805195865260208601949094528484019290925260608401526080830152519081900360a00190f35b6103746004803603602081101561069757600080fd5b50356001600160a01b0316611207565b610374600480360360408110156106bd57600080fd5b506001600160a01b038135169060200135611310565b610307611328565b61037461132e565b61044261140f565b60038054604080516020601f60026000196101006001881615020190951694909404938401819004810282018101909252828152606093909290918301828280156107775780601f1061074c57610100808354040283529160200191610777565b820191906000526020600020905b81548152906001019060200180831161075a57829003601f168201915b5050505050905090565b600061079561078e61141e565b8484611422565b50600192915050565b60025490565b600d5490565b60006107b784848461150e565b61082d846107c361141e565b61082885604051806060016040528060288152602001611f5a602891396001600160a01b038a1660009081526001602052604081209061080161141e565b6001600160a01b03168152602081019190915260400160002054919063ffffffff61167516565b611422565b5060019392505050565b60c8811015801561084a5750610bb88111155b6108855760405162461bcd60e51b8152600401808060200182810382526025815260200180611f356025913960400191505060405180910390fd5b61088d61170c565b61089681611a6f565b50565b60055460ff1690565b60006107956108af61141e565b8461082885600160006108c061141e565b6001600160a01b03908116825260208083019390935260409182016000908120918c16815292529020549063ffffffff611c7e16565b6012546109129061010090046001600160a01b0316338361150e565b33600090815260116020526040902054610932908263ffffffff611cdf16565b33600090815260116020526040908190209190915580518082019091526013908061095b611d21565b81524260209182018190528354600180820186556000958652838620855160029384029091019081559484015194810194909455338086526014845260408087208151808301835260118752828920548152808701958652815480890183559189529588209551930290940191825591519301929092556010548151638e74b87160e01b8152600481019390935290516001600160a01b0390911692638e74b871926024808201939182900301818387803b158015610a1957600080fd5b505af1158015610a2d573d6000803e3d6000fd5b5050505050565b60135490565b600f5490565b600b5490565b6001600160a01b03821660009081526014602052604081205481908310610a9e5760405162461bcd60e51b8152600401808060200182810382526024815260200180611f116024913960400191505060405180910390fd5b6001600160a01b0384166000908152601460205260409020805484908110610ac257fe5b906000526020600020906002020160000154915060146000856001600160a01b03166001600160a01b031681526020019081526020016000208381548110610b0657fe5b90600052602060002090600202016001015490509250929050565b6006546001600160a01b031681565b60095490565b6001600160a01b031660009081526011602052604090205490565b600554600160a81b900460ff1690565b60135460009081908310610ba65760405162461bcd60e51b8152600401808060200182810382526024815260200180611f116024913960400191505060405180910390fd5b60138381548110610bb357fe5b906000526020600020906002020160000154915060138381548110610bd457fe5b9060005260206000209060020201600101549050915091565b60075481565b6000610c26610c0183611d3e565b6001600160a01b0384166000908152602081905260409020549063ffffffff611c7e16565b92915050565b610c3461141e565b60055461010090046001600160a01b03908116911614610c89576040805162461bcd60e51b81526020600482018190526024820152600080516020611f82833981519152604482015290519081900360640190fd5b60055460405160009161010090046001600160a01b0316907f8be0079c531659141344cd1fd0a4f28419497f9722a3daafe3b4186f6b6457e0908390a360058054610100600160a81b0319169055565b601254610cf690339061010090046001600160a01b03168361150e565b33600090815260116020526040902054610d16908263ffffffff611c7e16565b336000908152601160205260409081902091909155805180820190915260139080610d3f611d21565b8152426020918201819052835460018082018655600095865283862085516002938402909101908155948401519481019490945533808652601484526040808720815180830183526011875282892054815280870195865281548089018355918952958820955193029094019182559151930192909255601054815163fd230a7960e01b8152600481019390935290516001600160a01b039091169263fd230a79926024808201939182900301818387803b158015610a1957600080fd5b610e0561141e565b60055461010090046001600160a01b03908116911614610e5a576040805162461bcd60e51b81526020600482018190526024820152600080516020611f82833981519152604482015290519081900360640190fd5b601080546001600160a01b0319166001600160a01b0392909216919091179055565b6001600160a01b031660009081526014602052604090205490565b60055461010090046001600160a01b031690565b60048054604080516020601f60026000196101006001881615020190951694909404938401819004810282018101909252828152606093909290918301828280156107775780601f1061074c57610100808354040283529160200191610777565b6000610795610f1961141e565b8461082885604051806060016040528060258152602001611feb6025913960016000610f4361141e565b6001600160a01b03908116825260208083019390935260409182016000908120918d1681529252902054919063ffffffff61167516565b6000610795610f8761141e565b848461150e565b60085481565b60116020526000908152604090205481565b610fae61141e565b60055461010090046001600160a01b03908116911614611003576040805162461bcd60e51b81526020600482018190526024820152600080516020611f82833981519152604482015290519081900360640190fd5b6009541580611013575042600954115b611064576040805162461bcd60e51b815260206004820152601c60248201527f496e666c6174696f6e20697320616c7265616479207374617274656400000000604482015290519081900360640190fd5b4281116110a25760405162461bcd60e51b8152600401808060200182810382526023815260200180611e5e6023913960400191505060405180910390fd5b6009819055600d819055600f80548291906000906110bc57fe5b90600052602060002090600502016004018190555050565b60006110de611d21565b905090565b6001600160a01b03918216600090815260016020908152604080832093909416825291909152205490565b6000806000806000600f8054905086106111595760405162461bcd60e51b8152600401808060200182810382526022815260200180611eef6022913960400191505060405180910390fd5b600f868154811061116657fe5b9060005260206000209060050201600001549450600f868154811061118757fe5b9060005260206000209060050201600101549350600f86815481106111a857fe5b9060005260206000209060050201600201549250600f86815481106111c957fe5b9060005260206000209060050201600301549150600f86815481106111ea57fe5b906000526020600020906005020160040154905091939590929450565b61120f61141e565b60055461010090046001600160a01b03908116911614611264576040805162461bcd60e51b81526020600482018190526024820152600080516020611f82833981519152604482015290519081900360640190fd5b6001600160a01b0381166112a95760405162461bcd60e51b8152600401808060200182810382526026815260200180611e816026913960400191505060405180910390fd5b6005546040516001600160a01b0380841692610100900416907f8be0079c531659141344cd1fd0a4f28419497f9722a3daafe3b4186f6b6457e090600090a3600580546001600160a01b0390921661010002610100600160a81b0319909216919091179055565b61131861170c565b6113246001838361150e565b5050565b60075490565b61133661141e565b60055461010090046001600160a01b0390811691161461138b576040805162461bcd60e51b81526020600482018190526024820152600080516020611f82833981519152604482015290519081900360640190fd5b600954156113e0576040805162461bcd60e51b815260206004820152601c60248201527f496e666c6174696f6e20697320616c7265616479207374617274656400000000604482015290519081900360640190fd5b426009819055600d819055600f80546000906113f857fe5b906000526020600020906005020160040181905550565b6010546001600160a01b031690565b3390565b6001600160a01b0383166114675760405162461bcd60e51b8152600401808060200182810382526024815260200180611fc76024913960400191505060405180910390fd5b6001600160a01b0382166114ac5760405162461bcd60e51b8152600401808060200182810382526022815260200180611ea76022913960400191505060405180910390fd5b6001600160a01b03808416600081815260016020908152604080832094871680845294825291829020859055815185815291517f8c5be1e5ebec7d5bd14f71427d1e84f3dd0314c0f7b2291e5b200ac8c7c3b9259281900390910190a3505050565b6001600160a01b0383166115535760405162461bcd60e51b8152600401808060200182810382526025815260200180611fa26025913960400191505060405180910390fd5b6001600160a01b0382166115985760405162461bcd60e51b8152600401808060200182810382526023815260200180611e3b6023913960400191505060405180910390fd5b6115a3838383611d44565b6115e681604051806060016040528060268152602001611ec9602691396001600160a01b038616600090815260208190526040902054919063ffffffff61167516565b6001600160a01b03808516600090815260208190526040808220939093559084168152205461161b908263ffffffff611c7e16565b6001600160a01b038084166000818152602081815260409182902094909455805185815290519193928716927fddf252ad1be2c89b69c2b068fc378daa952ba7f163c4a11628f55a4df523b3ef92918290030190a3505050565b600081848411156117045760405162461bcd60e51b81526004018080602001828103825283818151815260200191508051906020019080838360005b838110156116c95781810151838201526020016116b1565b50505050905090810190601f1680156116f65780820380516001836020036101000a031916815260200191505b509250505060405180910390fd5b505050900390565b600c54600b54141561171d57611a6d565b600d5442036301e133808110156117345750611a6d565b61173c611e0b565b600f8054600019810190811061174e57fe5b600091825260208083206040805160a0810182526005909402909101805480855260018201549385019390935260028101549184019190915260038101546060840152600401546080830152909250905b6301e133808404811015611a62576301e13380600d6000828254019250508190555060006127106301e133808560800151600d540385600e540202816117e157fe5b04816117e957fe5b049050600b54600c5482011061191557611801611dee565b600b54600c8190556040805160a08101825283815260208881015190820190815291810183815260608201938452600d5460808301908152600f805460018101825560009190915292517f8d1108e10bcb7c27dddfc02ed9d693a074039d026cf4ea4240b40f7d581ac80260059094029384015592517f8d1108e10bcb7c27dddfc02ed9d693a074039d026cf4ea4240b40f7d581ac803830155517f8d1108e10bcb7c27dddfc02ed9d693a074039d026cf4ea4240b40f7d581ac80482015591517f8d1108e10bcb7c27dddfc02ed9d693a074039d026cf4ea4240b40f7d581ac805830155517f8d1108e10bcb7c27dddfc02ed9d693a074039d026cf4ea4240b40f7d581ac806909101559250611a629050565b600c80548201905560c8831461195257603283118015611938575060c860328403115b15611944576032830392505b60c88310156119525760c892505b506040805160a081018252838152602085810151908201908152600c5492820183815260608301938452600d5460808401908152600f80546001808201835560009290925294517f8d1108e10bcb7c27dddfc02ed9d693a074039d026cf4ea4240b40f7d581ac80260059096029586015592517f8d1108e10bcb7c27dddfc02ed9d693a074039d026cf4ea4240b40f7d581ac80385015590517f8d1108e10bcb7c27dddfc02ed9d693a074039d026cf4ea4240b40f7d581ac80484015592517f8d1108e10bcb7c27dddfc02ed9d693a074039d026cf4ea4240b40f7d581ac80583015591517f8d1108e10bcb7c27dddfc02ed9d693a074039d026cf4ea4240b40f7d581ac806909101550161179f565b5050600c54600e5550505b565b600c54600b541415611a8057600080fd5b611a88611e0b565b600f80546000198101908110611a9a57fe5b90600052602060002090600502016040518060a0016040529081600082015481526020016001820154815260200160028201548152602001600382015481526020016004820154815250509050600081608001514203905062278d00811015611b0257600080fd5b8151600e54612710916301e133809102830204600c8054929091049091019055611b2a611dee565b831115611b74576040805162461bcd60e51b8152602060048201526013602482015272546f6f20686967682070657263656e7461676560681b604482015290519081900360640190fd5b506040805160a081018252928352602091820151918301918252600c54908301908152600e54606084019081524260808501908152600f805460018101825560009190915294517f8d1108e10bcb7c27dddfc02ed9d693a074039d026cf4ea4240b40f7d581ac80260059096029586015592517f8d1108e10bcb7c27dddfc02ed9d693a074039d026cf4ea4240b40f7d581ac80385015590517f8d1108e10bcb7c27dddfc02ed9d693a074039d026cf4ea4240b40f7d581ac804840155517f8d1108e10bcb7c27dddfc02ed9d693a074039d026cf4ea4240b40f7d581ac805830155517f8d1108e10bcb7c27dddfc02ed9d693a074039d026cf4ea4240b40f7d581ac80690910155565b600082820183811015611cd8576040805162461bcd60e51b815260206004820152601b60248201527f536166654d6174683a206164646974696f6e206f766572666c6f770000000000604482015290519081900360640190fd5b9392505050565b6000611cd883836040518060400160405280601e81526020017f536166654d6174683a207375627472616374696f6e206f766572666c6f770000815250611675565b6012546000906110de9061010090046001600160a01b0316610bf3565b50600090565b611d4f838383611de9565b6103e83311611da5576040805162461bcd60e51b815260206004820152601960248201527f4369746164656c546f6b656e3a2066616b652073656e64657200000000000000604482015290519081900360640190fd5b611dad610b51565b15611de95760405162461bcd60e51b815260040180806020018281038252602a815260200180612010602a913960400191505060405180910390fd5b505050565b6000600b54600c54600b54036127100281611e0557fe5b04905090565b6040518060a001604052806000815260200160008152602001600081526020016000815260200160008152509056fe45524332303a207472616e7366657220746f20746865207a65726f20616464726573735374617274696e672064617465206d75737420626520696e20746865206675747572654f776e61626c653a206e6577206f776e657220697320746865207a65726f206164647265737345524332303a20617070726f766520746f20746865207a65726f206164647265737345524332303a207472616e7366657220616d6f756e7420657863656564732062616c616e63654369746164656c496e666c6174696f6e3a20756e657870656374656420696e6465784369746164656c546f6b656e4c6f636b65723a20756e657870656374656420696e64657850657263656e74616765206d757374206265206265747765656e20322520616e642033302545524332303a207472616e7366657220616d6f756e74206578636565647320616c6c6f77616e63654f776e61626c653a2063616c6c6572206973206e6f7420746865206f776e657245524332303a207472616e736665722066726f6d20746865207a65726f206164647265737345524332303a20617070726f76652066726f6d20746865207a65726f206164647265737345524332303a2064656372656173656420616c6c6f77616e63652062656c6f77207a65726f45524332305061757361626c653a20746f6b656e207472616e73666572207768696c6520706175736564a2646970667358221220285fddadabb3e8abd5a6ec0b2d2afea68182c20a16f0658793afe27bda80c4f764736f6c63430006020033",
  "source": "// SPDX-License-Identifier: GPL-3.0\npragma solidity 0.6.2;\n\nimport \"./CitadelInflation.sol\";\nimport \"../ICitadelVesting.sol\";\n\ncontract CitadelTokenLocker is CitadelInflation {\n\n    struct HistoryItem {\n        uint value;\n        uint date;\n    }\n\n    ICitadelVesting private _Vesting;\n    mapping (address => uint256) public lockedCoins;\n    bool private _isInitialized;\n    address private _lockerAddress;\n\n    HistoryItem[] private _totalLockedSupplyHistory;\n    mapping (address => HistoryItem[]) private _lockedCoinsHistory;\n\n    function totalSupplyHistoryCount() external view\n    returns (uint) {\n        return _totalLockedSupplyHistory.length;\n    }\n\n    function totalSupplyHistory(uint index) external view\n    returns (\n        uint value,\n        uint date\n    ) {\n        require (index < _totalLockedSupplyHistory.length, \"CitadelTokenLocker: unexpected index\");\n        value = _totalLockedSupplyHistory[index].value;\n        date = _totalLockedSupplyHistory[index].date;\n    }\n\n    function lockHistoryCount(address addr) external view\n    returns (uint) {\n        return _lockedCoinsHistory[addr].length;\n    }\n\n    function lockHistory(address addr, uint index) external view\n    returns (\n        uint value,\n        uint date\n    ) {\n        require (index < _lockedCoinsHistory[addr].length, \"CitadelTokenLocker: unexpected index\");\n        value = _lockedCoinsHistory[addr][index].value;\n        date = _lockedCoinsHistory[addr][index].date;\n    }\n\n    function lockCoins(uint256 amount) external {\n\n        _transfer(msg.sender, _lockerAddress, amount);\n        lockedCoins[msg.sender] = lockedCoins[msg.sender].add(amount);\n        // put mark in history\n        _totalLockedSupplyHistory.push(HistoryItem(_lockedTotalSupply(), block.timestamp));\n        _lockedCoinsHistory[msg.sender].push(HistoryItem(lockedCoins[msg.sender], block.timestamp));\n        // ...\n        _Vesting.userFrozeCoins(msg.sender);\n\n    }\n\n    function unlockCoins(uint256 amount) external {\n\n        _transfer(_lockerAddress, msg.sender, amount);\n        lockedCoins[msg.sender] = lockedCoins[msg.sender].sub(amount);\n        // put mark in history\n        _totalLockedSupplyHistory.push(HistoryItem(_lockedTotalSupply(), block.timestamp));\n        _lockedCoinsHistory[msg.sender].push(HistoryItem(lockedCoins[msg.sender], block.timestamp));\n        // ...\n        _Vesting.userUnfrozeCoins(msg.sender);\n\n    }\n\n    function lockedBalanceOf(address account) external view returns (uint256) {\n\n        return lockedCoins[account];\n\n    }\n\n    function lockedSupply() external view returns (uint256) {\n\n        return _lockedTotalSupply();\n\n    }\n\n    function _lockedTotalSupply() private view returns (uint256) {\n\n        return balanceOf(_lockerAddress);\n\n    }\n\n    function initVestingTransport(address vestAddress) external onlyOwner {\n        _Vesting = ICitadelVesting(vestAddress);\n    }\n\n    function getVestingAddress() external view returns (address) {\n        return address(_Vesting);\n    }\n\n    function _updatedInflationRatio(uint vestingPct) internal override {\n        _Vesting.updateInflationPct(vestingPct);\n    }\n\n    function _initCitadelTokenLocker(address lockerAddress_) internal {\n\n        require(!_isInitialized);\n\n        _isInitialized = true;\n        _lockerAddress = lockerAddress_;\n\n    }\n\n}\n",
  "sourcePath": "/home/pirat/Desktop/DAO/contracts/Token/CitadelTokenLocker.sol",
  "compiler": {
    "name": "solc",
    "version": "0.6.2+commit.bacdbe57.Emscripten.clang"
  },
  "schemaVersion": "3.2.5",
  "updatedAt": "2021-06-01T14:37:58.649Z",
  "devdoc": {
    "methods": {
      "allowance(address,address)": {
        "details": "See {IERC20-allowance}."
      },
      "approve(address,uint256)": {
        "details": "See {IERC20-approve}.     * Requirements:     * - `spender` cannot be the zero address."
      },
      "balanceOf(address)": {
        "details": "See {IERC20-balanceOf}."
      },
      "decimals()": {
        "details": "Returns the number of decimals used to get its user representation. For example, if `decimals` equals `2`, a balance of `505` tokens should be displayed to a user as `5,05` (`505 / 10 ** 2`).     * Tokens usually opt for a value of 18, imitating the relationship between Ether and Wei. This is the value {ERC20} uses, unless {_setupDecimals} is called.     * NOTE: This information is only used for _display_ purposes: it in no way affects any of the arithmetic of the contract, including {IERC20-balanceOf} and {IERC20-transfer}."
      },
      "decreaseAllowance(address,uint256)": {
        "details": "Atomically decreases the allowance granted to `spender` by the caller.     * This is an alternative to {approve} that can be used as a mitigation for problems described in {IERC20-approve}.     * Emits an {Approval} event indicating the updated allowance.     * Requirements:     * - `spender` cannot be the zero address. - `spender` must have allowance for the caller of at least `subtractedValue`."
      },
      "increaseAllowance(address,uint256)": {
        "details": "Atomically increases the allowance granted to `spender` by the caller.     * This is an alternative to {approve} that can be used as a mitigation for problems described in {IERC20-approve}.     * Emits an {Approval} event indicating the updated allowance.     * Requirements:     * - `spender` cannot be the zero address."
      },
      "name()": {
        "details": "Returns the name of the token."
      },
      "owner()": {
        "details": "Returns the address of the current owner."
      },
      "paused()": {
        "details": "Returns true if the contract is paused, and false otherwise."
      },
      "renounceOwnership()": {
        "details": "Leaves the contract without owner. It will not be possible to call `onlyOwner` functions anymore. Can only be called by the current owner.     * NOTE: Renouncing ownership will leave the contract without an owner, thereby removing any functionality that is only available to the owner."
      },
      "symbol()": {
        "details": "Returns the symbol of the token, usually a shorter version of the name."
      },
      "totalSupply()": {
        "details": "See {IERC20-totalSupply}."
      },
      "transfer(address,uint256)": {
        "details": "See {IERC20-transfer}.     * Requirements:     * - `recipient` cannot be the zero address. - the caller must have a balance of at least `amount`."
      },
      "transferFrom(address,address,uint256)": {
        "details": "See {IERC20-transferFrom}.     * Emits an {Approval} event indicating the updated allowance. This is not required by the EIP. See the note at the beginning of {ERC20};     * Requirements: - `sender` and `recipient` cannot be the zero address. - `sender` must have a balance of at least `amount`. - the caller must have allowance for ``sender``'s tokens of at least `amount`."
      },
      "transferOwnership(address)": {
        "details": "Transfers ownership of the contract to a new account (`newOwner`). Can only be called by the current owner."
      }
    }
  },
  "userdoc": {
    "methods": {}
  }
}