{
  "contractName": "CitadelDao",
  "abi": [
    {
      "inputs": [
        {
          "internalType": "address",
          "name": "token",
          "type": "address"
        }
      ],
      "stateMutability": "nonpayable",
      "type": "constructor"
    },
    {
      "anonymous": false,
      "inputs": [
        {
          "indexed": true,
          "internalType": "address",
          "name": "recipient",
          "type": "address"
        },
        {
          "indexed": false,
          "internalType": "uint256",
          "name": "amount",
          "type": "uint256"
        }
      ],
      "name": "ClaimStakingReward",
      "type": "event"
    },
    {
      "anonymous": false,
      "inputs": [
        {
          "indexed": true,
          "internalType": "uint256",
          "name": "issueId",
          "type": "uint256"
        },
        {
          "indexed": true,
          "internalType": "enum Voting.ProposalUpdater",
          "name": "category",
          "type": "uint8"
        },
        {
          "indexed": true,
          "internalType": "address",
          "name": "initialized",
          "type": "address"
        }
      ],
      "name": "ExecProposal",
      "type": "event"
    },
    {
      "anonymous": false,
      "inputs": [
        {
          "indexed": true,
          "internalType": "uint256",
          "name": "issueId",
          "type": "uint256"
        },
        {
          "indexed": true,
          "internalType": "address",
          "name": "creator",
          "type": "address"
        },
        {
          "indexed": true,
          "internalType": "enum Voting.ProposalType",
          "name": "votingType",
          "type": "uint8"
        },
        {
          "indexed": false,
          "internalType": "enum Voting.ProposalUpdater",
          "name": "votingUpdater",
          "type": "uint8"
        }
      ],
      "name": "NewProposal",
      "type": "event"
    },
    {
      "anonymous": false,
      "inputs": [
        {
          "indexed": true,
          "internalType": "uint256",
          "name": "issueId",
          "type": "uint256"
        },
        {
          "indexed": true,
          "internalType": "address",
          "name": "from",
          "type": "address"
        },
        {
          "indexed": true,
          "internalType": "uint256",
          "name": "option",
          "type": "uint256"
        },
        {
          "indexed": false,
          "internalType": "uint256",
          "name": "weight",
          "type": "uint256"
        }
      ],
      "name": "OnVote",
      "type": "event"
    },
    {
      "anonymous": false,
      "inputs": [
        {
          "indexed": true,
          "internalType": "address",
          "name": "previousOwner",
          "type": "address"
        },
        {
          "indexed": true,
          "internalType": "address",
          "name": "newOwner",
          "type": "address"
        }
      ],
      "name": "OwnershipTransferred",
      "type": "event"
    },
    {
      "anonymous": false,
      "inputs": [
        {
          "indexed": true,
          "internalType": "bytes32",
          "name": "role",
          "type": "bytes32"
        },
        {
          "indexed": true,
          "internalType": "bytes32",
          "name": "previousAdminRole",
          "type": "bytes32"
        },
        {
          "indexed": true,
          "internalType": "bytes32",
          "name": "newAdminRole",
          "type": "bytes32"
        }
      ],
      "name": "RoleAdminChanged",
      "type": "event"
    },
    {
      "anonymous": false,
      "inputs": [
        {
          "indexed": true,
          "internalType": "bytes32",
          "name": "role",
          "type": "bytes32"
        },
        {
          "indexed": true,
          "internalType": "address",
          "name": "account",
          "type": "address"
        },
        {
          "indexed": true,
          "internalType": "address",
          "name": "sender",
          "type": "address"
        }
      ],
      "name": "RoleGranted",
      "type": "event"
    },
    {
      "anonymous": false,
      "inputs": [
        {
          "indexed": true,
          "internalType": "bytes32",
          "name": "role",
          "type": "bytes32"
        },
        {
          "indexed": true,
          "internalType": "address",
          "name": "account",
          "type": "address"
        },
        {
          "indexed": true,
          "internalType": "address",
          "name": "sender",
          "type": "address"
        }
      ],
      "name": "RoleRevoked",
      "type": "event"
    },
    {
      "anonymous": false,
      "inputs": [
        {
          "indexed": false,
          "internalType": "bool",
          "name": "isAvailable",
          "type": "bool"
        },
        {
          "indexed": false,
          "internalType": "uint256",
          "name": "minStaked",
          "type": "uint256"
        }
      ],
      "name": "SetProposalAvailability",
      "type": "event"
    },
    {
      "anonymous": false,
      "inputs": [
        {
          "indexed": false,
          "internalType": "address",
          "name": "addr",
          "type": "address"
        }
      ],
      "name": "SetVerifyRewardAddress",
      "type": "event"
    },
    {
      "anonymous": false,
      "inputs": [
        {
          "indexed": true,
          "internalType": "enum Voting.ProposalUpdater",
          "name": "updater",
          "type": "uint8"
        },
        {
          "indexed": false,
          "internalType": "uint256",
          "name": "quorumPct",
          "type": "uint256"
        },
        {
          "indexed": false,
          "internalType": "uint256",
          "name": "supportPct",
          "type": "uint256"
        }
      ],
      "name": "UpdatedProposalConfig",
      "type": "event"
    },
    {
      "inputs": [],
      "name": "ADMIN_ROLE",
      "outputs": [
        {
          "internalType": "bytes32",
          "name": "",
          "type": "bytes32"
        }
      ],
      "stateMutability": "view",
      "type": "function"
    },
    {
      "inputs": [],
      "name": "DEFAULT_ADMIN_ROLE",
      "outputs": [
        {
          "internalType": "bytes32",
          "name": "",
          "type": "bytes32"
        }
      ],
      "stateMutability": "view",
      "type": "function"
    },
    {
      "inputs": [],
      "name": "VOTING_ROLE",
      "outputs": [
        {
          "internalType": "bytes32",
          "name": "",
          "type": "bytes32"
        }
      ],
      "stateMutability": "view",
      "type": "function"
    },
    {
      "inputs": [
        {
          "internalType": "address",
          "name": "account",
          "type": "address"
        }
      ],
      "name": "addAdmin",
      "outputs": [],
      "stateMutability": "nonpayable",
      "type": "function"
    },
    {
      "inputs": [
        {
          "internalType": "address",
          "name": "account",
          "type": "address"
        }
      ],
      "name": "availableToCreateProposals",
      "outputs": [
        {
          "internalType": "bool",
          "name": "",
          "type": "bool"
        }
      ],
      "stateMutability": "view",
      "type": "function"
    },
    {
      "inputs": [
        {
          "internalType": "uint256",
          "name": "issueId",
          "type": "uint256"
        },
        {
          "internalType": "address",
          "name": "addr",
          "type": "address"
        }
      ],
      "name": "ballotOf",
      "outputs": [
        {
          "internalType": "uint256",
          "name": "",
          "type": "uint256"
        }
      ],
      "stateMutability": "view",
      "type": "function"
    },
    {
      "inputs": [],
      "name": "burnLostTokens",
      "outputs": [],
      "stateMutability": "nonpayable",
      "type": "function"
    },
    {
      "inputs": [
        {
          "internalType": "uint256",
          "name": "reward",
          "type": "uint256"
        },
        {
          "internalType": "uint256",
          "name": "nonceId",
          "type": "uint256"
        },
        {
          "internalType": "bytes32",
          "name": "hash",
          "type": "bytes32"
        },
        {
          "internalType": "bytes",
          "name": "signature",
          "type": "bytes"
        }
      ],
      "name": "claimReward",
      "outputs": [
        {
          "internalType": "bool",
          "name": "",
          "type": "bool"
        }
      ],
      "stateMutability": "nonpayable",
      "type": "function"
    },
    {
      "inputs": [
        {
          "internalType": "uint256",
          "name": "issueId",
          "type": "uint256"
        }
      ],
      "name": "countOptions",
      "outputs": [
        {
          "internalType": "uint256",
          "name": "",
          "type": "uint256"
        }
      ],
      "stateMutability": "view",
      "type": "function"
    },
    {
      "inputs": [],
      "name": "countProposals",
      "outputs": [
        {
          "internalType": "uint256",
          "name": "",
          "type": "uint256"
        }
      ],
      "stateMutability": "view",
      "type": "function"
    },
    {
      "inputs": [
        {
          "internalType": "bool",
          "name": "isAvailable",
          "type": "bool"
        },
        {
          "internalType": "uint256",
          "name": "minStaked",
          "type": "uint256"
        }
      ],
      "name": "createProposalAvailability",
      "outputs": [],
      "stateMutability": "nonpayable",
      "type": "function"
    },
    {
      "inputs": [
        {
          "internalType": "address",
          "name": "creator",
          "type": "address"
        },
        {
          "internalType": "uint256",
          "name": "issueId",
          "type": "uint256"
        }
      ],
      "name": "depositedForProposal",
      "outputs": [
        {
          "internalType": "uint256",
          "name": "",
          "type": "uint256"
        }
      ],
      "stateMutability": "view",
      "type": "function"
    },
    {
      "inputs": [
        {
          "internalType": "uint256",
          "name": "issueId",
          "type": "uint256"
        }
      ],
      "name": "execProposal",
      "outputs": [],
      "stateMutability": "nonpayable",
      "type": "function"
    },
    {
      "inputs": [],
      "name": "executionTime",
      "outputs": [
        {
          "internalType": "uint256",
          "name": "",
          "type": "uint256"
        }
      ],
      "stateMutability": "view",
      "type": "function"
    },
    {
      "inputs": [],
      "name": "getNewestProposal",
      "outputs": [
        {
          "internalType": "uint256",
          "name": "issueId",
          "type": "uint256"
        },
        {
          "internalType": "string",
          "name": "title",
          "type": "string"
        },
        {
          "internalType": "enum Voting.ProposalType",
          "name": "votingType",
          "type": "uint8"
        },
        {
          "internalType": "enum Voting.ProposalUpdater",
          "name": "votingUpdater",
          "type": "uint8"
        }
      ],
      "stateMutability": "view",
      "type": "function"
    },
    {
      "inputs": [
        {
          "internalType": "bytes32",
          "name": "role",
          "type": "bytes32"
        }
      ],
      "name": "getRoleAdmin",
      "outputs": [
        {
          "internalType": "bytes32",
          "name": "",
          "type": "bytes32"
        }
      ],
      "stateMutability": "view",
      "type": "function"
    },
    {
      "inputs": [
        {
          "internalType": "bytes32",
          "name": "role",
          "type": "bytes32"
        },
        {
          "internalType": "uint256",
          "name": "index",
          "type": "uint256"
        }
      ],
      "name": "getRoleMember",
      "outputs": [
        {
          "internalType": "address",
          "name": "",
          "type": "address"
        }
      ],
      "stateMutability": "view",
      "type": "function"
    },
    {
      "inputs": [
        {
          "internalType": "bytes32",
          "name": "role",
          "type": "bytes32"
        }
      ],
      "name": "getRoleMemberCount",
      "outputs": [
        {
          "internalType": "uint256",
          "name": "",
          "type": "uint256"
        }
      ],
      "stateMutability": "view",
      "type": "function"
    },
    {
      "inputs": [
        {
          "internalType": "bytes32",
          "name": "role",
          "type": "bytes32"
        },
        {
          "internalType": "address",
          "name": "account",
          "type": "address"
        }
      ],
      "name": "grantRole",
      "outputs": [],
      "stateMutability": "nonpayable",
      "type": "function"
    },
    {
      "inputs": [
        {
          "internalType": "bytes32",
          "name": "role",
          "type": "bytes32"
        },
        {
          "internalType": "address",
          "name": "account",
          "type": "address"
        }
      ],
      "name": "hasRole",
      "outputs": [
        {
          "internalType": "bool",
          "name": "",
          "type": "bool"
        }
      ],
      "stateMutability": "view",
      "type": "function"
    },
    {
      "inputs": [],
      "name": "isOpenProposals",
      "outputs": [
        {
          "internalType": "bool",
          "name": "",
          "type": "bool"
        }
      ],
      "stateMutability": "view",
      "type": "function"
    },
    {
      "inputs": [
        {
          "internalType": "uint256",
          "name": "issueId",
          "type": "uint256"
        }
      ],
      "name": "issueDescription",
      "outputs": [
        {
          "internalType": "string",
          "name": "",
          "type": "string"
        }
      ],
      "stateMutability": "view",
      "type": "function"
    },
    {
      "inputs": [],
      "name": "minAmountToCreate",
      "outputs": [
        {
          "internalType": "uint256",
          "name": "",
          "type": "uint256"
        }
      ],
      "stateMutability": "view",
      "type": "function"
    },
    {
      "inputs": [
        {
          "internalType": "string",
          "name": "title",
          "type": "string"
        },
        {
          "internalType": "string",
          "name": "description",
          "type": "string"
        },
        {
          "internalType": "uint256",
          "name": "expiryTime",
          "type": "uint256"
        },
        {
          "internalType": "string[]",
          "name": "options",
          "type": "string[]"
        },
        {
          "internalType": "enum Voting.ProposalUpdater",
          "name": "votingUpdater",
          "type": "uint8"
        }
      ],
      "name": "newMultiProposal",
      "outputs": [],
      "stateMutability": "nonpayable",
      "type": "function"
    },
    {
      "inputs": [
        {
          "internalType": "string",
          "name": "title",
          "type": "string"
        },
        {
          "internalType": "string",
          "name": "description",
          "type": "string"
        },
        {
          "internalType": "uint256",
          "name": "expiryTime",
          "type": "uint256"
        },
        {
          "internalType": "string",
          "name": "updateData",
          "type": "string"
        },
        {
          "internalType": "enum Voting.ProposalUpdater",
          "name": "votingUpdater",
          "type": "uint8"
        }
      ],
      "name": "newProposal",
      "outputs": [],
      "stateMutability": "nonpayable",
      "type": "function"
    },
    {
      "inputs": [
        {
          "internalType": "uint256",
          "name": "issueId",
          "type": "uint256"
        },
        {
          "internalType": "uint256",
          "name": "option",
          "type": "uint256"
        }
      ],
      "name": "optionInfo",
      "outputs": [
        {
          "internalType": "string",
          "name": "name",
          "type": "string"
        },
        {
          "internalType": "uint256",
          "name": "count",
          "type": "uint256"
        },
        {
          "internalType": "uint256",
          "name": "weight",
          "type": "uint256"
        }
      ],
      "stateMutability": "view",
      "type": "function"
    },
    {
      "inputs": [
        {
          "internalType": "uint256",
          "name": "issueId",
          "type": "uint256"
        },
        {
          "internalType": "uint256",
          "name": "option",
          "type": "uint256"
        }
      ],
      "name": "optionName",
      "outputs": [
        {
          "internalType": "string",
          "name": "",
          "type": "string"
        }
      ],
      "stateMutability": "view",
      "type": "function"
    },
    {
      "inputs": [],
      "name": "owner",
      "outputs": [
        {
          "internalType": "address",
          "name": "",
          "type": "address"
        }
      ],
      "stateMutability": "view",
      "type": "function"
    },
    {
      "inputs": [
        {
          "internalType": "string",
          "name": "_value",
          "type": "string"
        }
      ],
      "name": "parseInt",
      "outputs": [
        {
          "internalType": "uint256",
          "name": "_ret",
          "type": "uint256"
        }
      ],
      "stateMutability": "pure",
      "type": "function"
    },
    {
      "inputs": [
        {
          "internalType": "uint256",
          "name": "issueId",
          "type": "uint256"
        }
      ],
      "name": "proposalConfig",
      "outputs": [
        {
          "internalType": "address",
          "name": "creator",
          "type": "address"
        },
        {
          "internalType": "uint256",
          "name": "quorumPct",
          "type": "uint256"
        },
        {
          "internalType": "uint256",
          "name": "supportPct",
          "type": "uint256"
        },
        {
          "internalType": "uint256",
          "name": "voters",
          "type": "uint256"
        },
        {
          "internalType": "string",
          "name": "updateData",
          "type": "string"
        },
        {
          "internalType": "bool",
          "name": "executed",
          "type": "bool"
        }
      ],
      "stateMutability": "view",
      "type": "function"
    },
    {
      "inputs": [
        {
          "internalType": "enum Voting.ProposalUpdater",
          "name": "conf",
          "type": "uint8"
        }
      ],
      "name": "proposalConfigRates",
      "outputs": [
        {
          "internalType": "uint256",
          "name": "quorumPct",
          "type": "uint256"
        },
        {
          "internalType": "uint256",
          "name": "supportPct",
          "type": "uint256"
        }
      ],
      "stateMutability": "view",
      "type": "function"
    },
    {
      "inputs": [
        {
          "internalType": "uint256",
          "name": "issueId",
          "type": "uint256"
        }
      ],
      "name": "proposalInfo",
      "outputs": [
        {
          "internalType": "string",
          "name": "title",
          "type": "string"
        },
        {
          "internalType": "enum Voting.ProposalType",
          "name": "votingType",
          "type": "uint8"
        },
        {
          "internalType": "enum Voting.ProposalUpdater",
          "name": "votingUpdater",
          "type": "uint8"
        },
        {
          "internalType": "uint256",
          "name": "nay",
          "type": "uint256"
        },
        {
          "internalType": "uint256",
          "name": "yea",
          "type": "uint256"
        },
        {
          "internalType": "uint256",
          "name": "totalVotingPower",
          "type": "uint256"
        },
        {
          "internalType": "bool",
          "name": "hasQuorum",
          "type": "bool"
        },
        {
          "internalType": "bool",
          "name": "accepted",
          "type": "bool"
        },
        {
          "internalType": "uint256",
          "name": "expiryTime",
          "type": "uint256"
        }
      ],
      "stateMutability": "view",
      "type": "function"
    },
    {
      "inputs": [
        {
          "internalType": "uint256",
          "name": "issueId",
          "type": "uint256"
        }
      ],
      "name": "redeemDepositFromProposal",
      "outputs": [],
      "stateMutability": "nonpayable",
      "type": "function"
    },
    {
      "inputs": [],
      "name": "renounceOwnership",
      "outputs": [],
      "stateMutability": "nonpayable",
      "type": "function"
    },
    {
      "inputs": [
        {
          "internalType": "bytes32",
          "name": "role",
          "type": "bytes32"
        },
        {
          "internalType": "address",
          "name": "account",
          "type": "address"
        }
      ],
      "name": "renounceRole",
      "outputs": [],
      "stateMutability": "nonpayable",
      "type": "function"
    },
    {
      "inputs": [
        {
          "internalType": "bytes32",
          "name": "role",
          "type": "bytes32"
        },
        {
          "internalType": "address",
          "name": "account",
          "type": "address"
        }
      ],
      "name": "revokeRole",
      "outputs": [],
      "stateMutability": "nonpayable",
      "type": "function"
    },
    {
      "inputs": [
        {
          "internalType": "address",
          "name": "rewardAddress",
          "type": "address"
        }
      ],
      "name": "setRewardAddress",
      "outputs": [],
      "stateMutability": "nonpayable",
      "type": "function"
    },
    {
      "inputs": [
        {
          "internalType": "address",
          "name": "newOwner",
          "type": "address"
        }
      ],
      "name": "transferOwnership",
      "outputs": [],
      "stateMutability": "nonpayable",
      "type": "function"
    },
    {
      "inputs": [
        {
          "internalType": "address",
          "name": "holder",
          "type": "address"
        }
      ],
      "name": "updatedStake",
      "outputs": [],
      "stateMutability": "nonpayable",
      "type": "function"
    },
    {
      "inputs": [
        {
          "internalType": "enum Voting.ProposalUpdater",
          "name": "votingUpdater",
          "type": "uint8"
        },
        {
          "internalType": "string",
          "name": "updateData",
          "type": "string"
        }
      ],
      "name": "updaterValidateData",
      "outputs": [
        {
          "internalType": "bool",
          "name": "",
          "type": "bool"
        }
      ],
      "stateMutability": "pure",
      "type": "function"
    },
    {
      "inputs": [
        {
          "internalType": "uint256",
          "name": "issueId",
          "type": "uint256"
        },
        {
          "internalType": "bytes4",
          "name": "option",
          "type": "bytes4"
        }
      ],
      "name": "vote",
      "outputs": [
        {
          "internalType": "bool",
          "name": "",
          "type": "bool"
        }
      ],
      "stateMutability": "nonpayable",
      "type": "function"
    },
    {
      "inputs": [
        {
          "internalType": "uint256",
          "name": "issueId",
          "type": "uint256"
        },
        {
          "internalType": "uint256",
          "name": "option",
          "type": "uint256"
        }
      ],
      "name": "vote",
      "outputs": [
        {
          "internalType": "bool",
          "name": "",
          "type": "bool"
        }
      ],
      "stateMutability": "nonpayable",
      "type": "function"
    },
    {
      "inputs": [
        {
          "internalType": "uint256",
          "name": "issueId",
          "type": "uint256"
        },
        {
          "internalType": "address",
          "name": "addr",
          "type": "address"
        }
      ],
      "name": "weightOf",
      "outputs": [
        {
          "internalType": "uint256",
          "name": "",
          "type": "uint256"
        }
      ],
      "stateMutability": "view",
      "type": "function"
    },
    {
      "inputs": [
        {
          "internalType": "uint256",
          "name": "issueId",
          "type": "uint256"
        },
        {
          "internalType": "uint256",
          "name": "option",
          "type": "uint256"
        }
      ],
      "name": "weightedVoteCountsOf",
      "outputs": [
        {
          "internalType": "uint256",
          "name": "",
          "type": "uint256"
        }
      ],
      "stateMutability": "view",
      "type": "function"
    },
    {
      "inputs": [],
      "name": "version",
      "outputs": [
        {
          "internalType": "string",
          "name": "",
          "type": "string"
        }
      ],
      "stateMutability": "pure",
      "type": "function"
    }
  ],
  "bytecode": "0x60806040526402540be40060035562278d006004553480156200002157600080fd5b50604051620064f8380380620064f88339810160408190526200004491620004e6565b6000620000596001600160e01b036200049016565b600080546001600160a01b0319166001600160a01b0383169081178255604051929350917f8be0079c531659141344cd1fd0a4f28419497f9722a3daafe3b4186f6b6457e0908290a350620000e3604051620000b5906200052d565b6040518091039020604051620000cb906200052d565b6040519081900390206001600160e01b036200049416565b620000f5604051620000b59062000516565b604080518082018252614e2080825261c35160208084018281526000808052600590925293517f05b8ccbb9d4d8fb16ea74ce3c29a41f1b461fbdaff4714a0d9a8eb05499746bc5592517f05b8ccbb9d4d8fb16ea74ce3c29a41f1b461fbdaff4714a0d9a8eb05499746bd55925190929190600080516020620064d88339815191529062000187908590859062000543565b60405180910390a2604080518082018252838152602080820184815260016000819052600590925291517f1471eb6eb2c5e789fc3de43f8ce62938c7d1836ec861730447e2ada8fd81017b5590517f1471eb6eb2c5e789fc3de43f8ce62938c7d1836ec861730447e2ada8fd81017c559051600080516020620064d88339815191529062000219908590859062000543565b60405180910390a2604080518082018252838152602080820184815260026000819052600590925291517f89832631fb3c3307a103ba2c84ab569c64d6182a18893dcd163f0f1c2090733a5590517f89832631fb3c3307a103ba2c84ab569c64d6182a18893dcd163f0f1c2090733b559051600080516020620064d883398151915290620002ab908590859062000543565b60405180910390a2604080518082018252838152602080820184815260036000819052600590925291517fa9bc9a3a348c357ba16b37005d7e6b3236198c0e939f4af8c5f19b8deeb8ebc05590517fa9bc9a3a348c357ba16b37005d7e6b3236198c0e939f4af8c5f19b8deeb8ebc1559051600080516020620064d8833981519152906200033d908590859062000543565b60405180910390a2604080518082018252838152602080820184815260046000819052600590925291517f3eec716f11ba9e820c81ca75eb978ffb45831ef8b7a53e5e422c26008e1ca6d55590517f3eec716f11ba9e820c81ca75eb978ffb45831ef8b7a53e5e422c26008e1ca6d6559051600080516020620064d883398151915290620003cf908590859062000543565b60405180910390a26040805180820182528381526020808201848152600560008190529182905291517f458b30c2d72bfd2c6317304a4594ecbafe5f729d3111b65fdc3a33bd48e5432d5590517f458b30c2d72bfd2c6317304a4594ecbafe5f729d3111b65fdc3a33bd48e5432e559051600080516020620064d88339815191529062000460908590859062000543565b60405180910390a25050600280546001600160a01b0319166001600160a01b039290921691909117905562000551565b3390565b600082815260016020526040808220600201549051839285917fbd79b86ffe0ab8e8776151514217cd7cacd52c909f66475c3af44e129f0b00ff9190a460009182526001602052604090912060020155565b600060208284031215620004f8578081fd5b81516001600160a01b03811681146200050f578182fd5b9392505050565b6a564f54494e475f524f4c4560a81b8152600b0190565b6941444d494e5f524f4c4560b01b8152600a0190565b918252602082015260400190565b615f7780620005616000396000f3fe608060405234801561001057600080fd5b506004361061027e5760003560e01c8063715018a61161015c578063a217fddf116100ce578063e0136a7911610087578063e0136a791461056f578063eaac697a14610587578063f0464a2b1461059a578063f2fde38b146105ad578063f3da049e146105c0578063f6621dc3146105c85761027e565b8063a217fddf146104fe578063ae092e8914610506578063b384abef1461052e578063c9c3d42e14610541578063ca15c87314610549578063d547741f1461055c5761027e565b80638e0a1372116101205780638e0a13721461048c5780639010d07c1461049f57806391d14854146104b2578063933c1306146104c55780639d91cf9a146104d8578063a1629f92146104eb5761027e565b8063715018a61461044c57806375b238fc14610454578063761bbd8a1461045c5780638935ced5146104645780638da5cb5b146104775761027e565b80634883a6a8116101f557806354fd4d50116101b957806354fd4d50146103e55780635e00e679146103ed5780636e6a1dc3146104005780636f963fa114610413578063704802751461042657806370c88f30146104395761027e565b80634883a6a8146103775780634ba241d81461038a5780634c461f5a146103ac57806350381451146103bf57806353c2d479146103d25761027e565b80632f2ff15d116102475780632f2ff15d146102fe57806331aab8881461031157806332ec991c1461033657806336568abe1461034957806342346c5e1461035c57806346c6211e1461036f5761027e565b8062fe1bff1461028357806312a70f0b146102ac5780631e01a172146102c157806322368a08146102e1578063248a9ca3146102eb575b600080fd5b610296610291366004615231565b6105e9565b6040516102a39190615634565b60405180910390f35b6102b46108a2565b6040516102a3919061564f565b6102d46102cf3660046151a3565b6108b9565b6040516102a3919061568a565b6102e9610997565b005b6102b46102f93660046151a3565b610b4a565b6102e961030c3660046151bb565b610b62565b61032461031f3660046151a3565b610baa565b6040516102a3969594939291906155ec565b6102b4610344366004615462565b610bf6565b6102e96103573660046151bb565b610c55565b6102b461036a36600461540f565b610c97565b6102b4610d26565b61029661038536600461548e565b610d2d565b61039d6103983660046151f5565b610e19565b6040516102a393929190615707565b6102e96103ba366004615182565b610f51565b6102e96103cd366004615359565b610ff9565b6102e96103e036600461527e565b61169f565b6102d4611df9565b6102e96103fb36600461513d565b611e18565b6102b461040e3660046151f5565b611ea3565b61029661042136600461513d565b611f0c565b6102e961043436600461513d565b611ff6565b6102e961044736600461513d565b612048565b6102e9612567565b6102b46125e6565b6102b46125f2565b6102b4610472366004615462565b6125f8565b61047f612653565b6040516102a391906155bf565b61029661049a3660046154be565b612662565b61047f6104ad3660046151f5565b6127b5565b6102966104c03660046151bb565b6127da565b6102e96104d33660046151a3565b6127f8565b6102b46104e6366004615158565b612dca565b6102e96104f93660046151a3565b612df2565b6102b4612efb565b6105196105143660046151a3565b612f00565b6040516102a39998979695949392919061569d565b61029661053c3660046151f5565b613316565b6102b4613724565b6102b46105573660046151a3565b61372a565b6102e961056a3660046151bb565b613741565b61057761377b565b6040516102a39493929190615edd565b6102d46105953660046151f5565b613848565b6102b46105a83660046151a3565b613967565b6102e96105bb36600461513d565b6139af565b610296613a65565b6105db6105d6366004615216565b613a75565b6040516102a3929190615f1f565b6000808360058111156105f857fe5b14156106065750600161089c565b600183600581111561061457fe5b141561064157600061062583610c97565b905060c881101580156106395750610bb881105b91505061089c565b600283600581111561064f57fe5b141561067957600061066083610c97565b9050600a81101580156106395750605a1015905061089c565b600383600581111561068757fe5b14156106a357600061069883610c97565b1515915061089c9050565b60048360058111156106b157fe5b141561086e5781518290600d146106c757600080fd5b604080516001808252818301909252606091602082018180388339505060408051600680825281830190925292935060609291506020820181803883395050604080516006808252818301909252929350606092915060208201818038833901905050905060005b84518110156107f7576001811015610782578460008151811061074e57fe5b602001015160f81c60f81b8460008151811061076657fe5b60200101906001600160f81b031916908160001a9053506107ef565b60078110156107b15784818151811061079757fe5b602001015160f81c60f81b83600183038151811061076657fe5b8481815181106107bd57fe5b602001015160f81c60f81b8260078303815181106107d757fe5b60200101906001600160f81b031916908160001a9053505b60010161072f565b50600061080383610c97565b9050600061081083610c97565b9050600080831180156108265750620186a08311155b90508080156108355750600082115b80156108445750620186a08211155b905080801561085f5750600461085987610c97565b60ff1611155b975061089c9650505050505050565b600583600581111561087c57fe5b1415610898576201518061088f83610c97565b1015905061089c565b5060005b92915050565b6040516108ae90615592565b604051809103902081565b6060816000811180156108ce5750600b548111155b6108f35760405162461bcd60e51b81526004016108ea90615934565b60405180910390fd5b6000838152600660209081526040918290206002908101805484516001821615610100026000190190911692909204601f81018490048402830184019094528382529092909183018282801561098a5780601f1061095f5761010080835404028352916020019161098a565b820191906000526020600020905b81548152906001019060200180831161096d57829003601f168201915b5050505050915050919050565b61099f613ad1565b6000546001600160a01b039081169116146109cc5760405162461bcd60e51b81526004016108ea90615c52565b600060015b600b548111610a79576000818152600660209081526040808320546001600160a01b031680845260088352818420858552909252909120548015610a6f57610a17614db5565b610a2084613ad5565b90508060c00151158015610a3f5750610a376140bd565b816101200151105b15610a6d576001600160a01b0383166000908152600860209081526040808320878452909152812055938101935b505b50506001016109d1565b508015610b4757600254604051633ba71a1560e01b81526001600160a01b0390911690633ba71a1590610ab290309085906004016155d3565b600060405180830381600087803b158015610acc57600080fd5b505af1158015610ae0573d6000803e3d6000fd5b5050600254604051630852cd8d60e31b81526001600160a01b0390911692506342966c689150610b1490849060040161564f565b600060405180830381600087803b158015610b2e57600080fd5b505af1158015610b42573d6000803e3d6000fd5b505050505b50565b6000818152600160205260409020600201545b919050565b600082815260016020526040902060020154610b80906104c0613ad1565b610b9c5760405162461bcd60e51b81526004016108ea906157a5565b610ba682826140c1565b5050565b60008060008060606000610bbc614e0f565b610bc588614130565b8051602082015160408301516060840151608085015160a090950151939d929c50909a509850919650945092505050565b600082600081118015610c0b5750600b548111155b610c275760405162461bcd60e51b81526004016108ea90615934565b6001600160a01b038316600090815260096020908152604080832087845290915290205491505b5092915050565b610c5d613ad1565b6001600160a01b0316816001600160a01b031614610c8d5760405162461bcd60e51b81526004016108ea90615e4d565b610ba68282614567565b80516000908290600190600019015b8251811015610d1e576030838281518110610cbd57fe5b016020015160f81c10801590610ce757506039838281518110610cdc57fe5b016020015160f81c11155b610ced57fe5b816030848381518110610cfc57fe5b016020015160f81c0360ff16029390930192600a919091029060001901610ca6565b505050919050565b6003545b90565b600082600081118015610d425750600b548111155b610d5e5760405162461bcd60e51b81526004016108ea90615934565b6279656160e81b626e617960e81b6001600160e01b03198516821480610d9057506001600160e01b0319858116908216145b610dac5760405162461bcd60e51b81526004016108ea90615e9c565b60008681526006602052604081206003015460ff166001811115610dcc57fe5b14610de95760405162461bcd60e51b81526004016108ea906159df565b60006001600160e01b03198681169084161415610e04575060015b610e0e87826145d6565b979650505050505050565b606060008084600081118015610e315750600b548111155b610e4d5760405162461bcd60e51b81526004016108ea90615934565b6000868152600660205260409020600801548510610e7d5760405162461bcd60e51b81526004016108ea90615b59565b6000868152600660205260408120600801805487908110610e9a57fe5b60009182526020918290206003919091020180546040805160026001841615610100026000190190931692909204601f810185900485028301850190915280825291935091839190830182828015610f335780601f10610f0857610100808354040283529160200191610f33565b820191906000526020600020905b815481529060010190602001808311610f1657829003601f168201915b50505050509450806001015493508060020154925050509250925092565b610f6e604051610f6090615592565b6040518091039020336127da565b80610f835750610f83604051610f60906155a9565b610f9f5760405162461bcd60e51b81526004016108ea90615d97565b6002805460ff60a01b1916600160a01b8415150217905560038190556040517f07b2940585ef57a3c794dd4c4e539be91c190416b66127b5a590330c140aac0290610fed908490849061563f565b60405180910390a15050565b611008604051610f6090615592565b8061101d575061101d604051610f60906155a9565b156112ff578661103f5760405162461bcd60e51b81526004016108ea90615dd9565b6110476140bd565b84116110655760405162461bcd60e51b81526004016108ea90615862565b600b805460010190819055611079906148fd565b600b546000908152600660205260409020611092614e50565b600560008460058111156110a257fe5b60ff16815260208082019290925260409081016000208151808301909252805482526001908101549282019290925283546001600160a01b0319163317845591506110f09083018b8b614e6a565b506110ff600283018989614e6a565b508051600583810191909155602082015160078401556009830187905560038301805460ff1981168255859261ffff199091169061010090849081111561114257fe5b0217905550600083600581111561115557fe5b146111c65761119a8386868080601f0160208091040260200160405190810160405280939291908181526020018383808284376000920191909152506105e992505050565b6111b65760405162461bcd60e51b81526004016108ea90615ae0565b6111c4600483018686614e6a565b505b6040805160a081018252600360608201818152626e617960e81b6080840152825260006020808401829052938301819052600886018054600181018255908252908490208351805194959290930201926112239284920190614ee8565b50602082810151600180840191909155604093840151600290930192909255825160a0810184526003606082018181526279656160e81b608084015282526000828401819052948201859052600887018054948501815585529382902081518051929594909402019261129a928492910190614ee8565b506020820151600182015560409091015160029091015560005b336001600160a01b0316600b547f22910aa3d36b7721f45dfd4a366dd228fb8e9f8b0752b5cf6557acba94d2edd9866040516112f09190615676565b60405180910390a45050611695565b600254600160a01b900460ff161561167d576002546040516370a0823160e01b81526000916001600160a01b0316906370a08231906113429033906004016155bf565b60206040518083038186803b15801561135a57600080fd5b505afa15801561136e573d6000803e3d6000fd5b505050506040513d601f19601f82011682018060405250611392919081019061544a565b9050600354811061167b57876113ba5760405162461bcd60e51b81526004016108ea90615dd9565b6113c26140bd565b85116113e05760405162461bcd60e51b81526004016108ea90615862565b600b8054600101908190556113f4906148fd565b600b54600090815260066020526040902061140d614e50565b6005600085600581111561141d57fe5b60ff16815260208082019290925260409081016000208151808301909252805482526001908101549282019290925283546001600160a01b03191633178455915061146b9083018c8c614e6a565b5061147a600283018a8a614e6a565b508051600583810191909155602082015160078401556009830188905560038301805460ff1981168255869261ffff19909116906101009084908111156114bd57fe5b021790555060008460058111156114d057fe5b14611541576115158487878080601f0160208091040260200160405190810160405280939291908181526020018383808284376000920191909152506105e992505050565b6115315760405162461bcd60e51b81526004016108ea90615ae0565b61153f600483018787614e6a565b505b6040805160a081018252600360608201818152626e617960e81b60808401528252600060208084018290529383018190526008860180546001810182559082529084902083518051949592909302019261159e9284920190614ee8565b50602082810151600180840191909155604093840151600290930192909255825160a0810184526003606082018181526279656160e81b6080840152825260008284018190529482018590526008870180549485018155855293829020815180519295949094020192611615928492910190614ee8565b506020820151600182015560409091015160029091015560005b336001600160a01b0316600b547f22910aa3d36b7721f45dfd4a366dd228fb8e9f8b0752b5cf6557acba94d2edd98760405161166b9190615676565b60405180910390a4505050611695565b505b60405162461bcd60e51b81526004016108ea90615d97565b5050505050505050565b6116ae604051610f6090615592565b806116c357506116c3604051610f60906155a9565b15611a5457866116e55760405162461bcd60e51b81526004016108ea90615dd9565b6116ed6140bd565b841161170b5760405162461bcd60e51b81526004016108ea90615862565b6001821161172b5760405162461bcd60e51b81526004016108ea906158f0565b600b80546001019081905561173f906148fd565b600b546000908152600660205260409020611758614e50565b6005600084600581111561176857fe5b60ff16815260208082019290925260409081016000208151808301909252805482526001908101549282019290925283546001600160a01b0319163317845591506117b69083018b8b614e6a565b506117c5600283018989614e6a565b508051600583810191909155602082015160078401556009830187905560038301805460ff1916600117808255859261ff00199091169061010090849081111561180b57fe5b02179055506040805160a081018252600460608201908152630536b69760e41b6080830152815260006020808301829052928201819052600885018054600181018255908252908390208251805193946003909302909101926118719284920190614ee8565b506020820151600182015560409091015160029091015560005b84811015611a4c5760008460058111156118a157fe5b146119575761193b848787848181106118b657fe5b602002820190508035601e19368490030181126118d257600080fd5b9091016020810191503567ffffffffffffffff8111156118f157600080fd5b3681900382131561190157600080fd5b8080601f0160208091040260200160405190810160405280939291908181526020018383808284376000920191909152506105e992505050565b6119575760405162461bcd60e51b81526004016108ea90615ae0565b82600801604051806060016040528088888581811061197257fe5b602002820190508035601e193684900301811261198e57600080fd5b9091016020810191503567ffffffffffffffff8111156119ad57600080fd5b368190038213156119bd57600080fd5b8080601f016020809104026020016040519081016040528093929190818152602001838380828437600092018290525093855250505060208083018290526040909201819052835460018101855593815281902082518051939460030290910192611a2b9284920190614ee8565b5060208201516001808301919091556040909201516002909101550161188b565b5060016112b4565b600254600160a01b900460ff161561167d576002546040516370a0823160e01b81526000916001600160a01b0316906370a0823190611a979033906004016155bf565b60206040518083038186803b158015611aaf57600080fd5b505afa158015611ac3573d6000803e3d6000fd5b505050506040513d601f19601f82011682018060405250611ae7919081019061544a565b9050600354811061167b5787611b0f5760405162461bcd60e51b81526004016108ea90615dd9565b611b176140bd565b8511611b355760405162461bcd60e51b81526004016108ea90615862565b60018311611b555760405162461bcd60e51b81526004016108ea906158f0565b600b805460010190819055611b69906148fd565b600b546000908152600660205260409020611b82614e50565b60056000856005811115611b9257fe5b60ff16815260208082019290925260409081016000208151808301909252805482526001908101549282019290925283546001600160a01b031916331784559150611be09083018c8c614e6a565b50611bef600283018a8a614e6a565b508051600583810191909155602082015160078401556009830188905560038301805460ff1916600117808255869261ff001990911690610100908490811115611c3557fe5b02179055506040805160a081018252600460608201908152630536b69760e41b608083015281526000602080830182905292820181905260088501805460018101825590825290839020825180519394600390930290910192611c9b9284920190614ee8565b506020820151600182015560409091015160029091015560005b85811015611df1576000856005811115611ccb57fe5b14611cfc57611ce0858888848181106118b657fe5b611cfc5760405162461bcd60e51b81526004016108ea90615ae0565b826008016040518060600160405280898985818110611d1757fe5b602002820190508035601e1936849003018112611d3357600080fd5b9091016020810191503567ffffffffffffffff811115611d5257600080fd5b36819003821315611d6257600080fd5b8080601f016020809104026020016040519081016040528093929190818152602001838380828437600092018290525093855250505060208083018290526040909201819052835460018101855593815281902082518051939460030290910192611dd09284920190614ee8565b50602082015160018083019190915560409092015160029091015501611cb5565b50600161162f565b6040805180820190915260058152640312e302e360dc1b602082015290565b611e20613ad1565b6000546001600160a01b03908116911614611e4d5760405162461bcd60e51b81526004016108ea90615c52565b600c80546001600160a01b0319166001600160a01b0383161790556040517f9dcd13554f22035bbc407c5a35cbb867a5184edbfe7a2a57fe805a10ef8a094d90611e989083906155bf565b60405180910390a150565b600082600081118015611eb85750600b548111155b611ed45760405162461bcd60e51b81526004016108ea90615934565b6000848152600660205260409020600801805484908110611ef157fe5b90600052602060002090600302016001015491505092915050565b6000611f2b604051611f1d90615592565b6040518091039020836127da565b80611f405750611f40604051611f1d906155a9565b15611f4d57506001610b5d565b600254600160a01b900460ff1615611fee576002546040516370a0823160e01b81526000916001600160a01b0316906370a0823190611f909086906004016155bf565b60206040518083038186803b158015611fa857600080fd5b505afa158015611fbc573d6000803e3d6000fd5b505050506040513d601f19601f82011682018060405250611fe0919081019061544a565b60035411159150610b5d9050565b506000919050565b611ffe613ad1565b6000546001600160a01b0390811691161461202b5760405162461bcd60e51b81526004016108ea90615c52565b610b4760405161203a906155a9565b604051809103902082610b9c565b6002546001600160a01b0316331461205f57600080fd5b6001600160a01b0381166000908152600a602052604090205461208157610b47565b6001600160a01b0381166000908152600a60209081526040918290208054835181840281018401909452808452606093928301828280156120e157602002820191906000526020600020905b8154815260200190600101908083116120cd575b505050505090506000600260009054906101000a90046001600160a01b03166001600160a01b031663ca5c7b916040518163ffffffff1660e01b815260040160206040518083038186803b15801561213857600080fd5b505afa15801561214c573d6000803e3d6000fd5b505050506040513d601f19601f82011682018060405250612170919081019061544a565b600254604051632c9aab9b60e11b81529192506000916001600160a01b03909116906359355736906121a69087906004016155bf565b60206040518083038186803b1580156121be57600080fd5b505afa1580156121d2573d6000803e3d6000fd5b505050506040513d601f19601f820116820180604052506121f6919081019061544a565b90506000805b845181101561243057600085828151811061221357fe5b60200260200101519050600060066000838152602001908152602001600020905061223c6140bd565b81600901541015612270578380600101945050600087848151811061225d57fe5b6020026020010181815250505050612428565b6001600160a01b038816600090815260096020908152604080832085845290915290208561237357600b82018054600019019055600181018054600a8401805491909103905554815460088401805490919081106122ca57fe5b906000526020600020906003020160020160008282540392505081905550816008018160000154815481106122fb57fe5b6000918252602082206001600390920201810180546000190190558201556005820154600a8301548890620186a0028161233157fe5b60068501805460ff191692909104929092101517905587516001959095019460009089908690811061235f57fe5b602002602001018181525050505050612428565b85816001015411156123b957858160010154038260080182600001548154811061239957fe5b6000918252602090912060026003909202010180549190910390556123ee565b80600101548603826008018260000154815481106123d357fe5b60009182526020909120600260039092020101805490910190555b600181018690556005820154600a8301548890620186a0028161240d57fe5b6006909401805460ff19169190940491909110151790915550505b6001016121fc565b508015610b42576001600160a01b0385166000908152600a602052604090205481141561248e5760408051600080825260208083018085526001600160a01b038a168352600a90915292902090516124889290614f56565b50610b42565b606081600a6000886001600160a01b03166001600160a01b0316815260200190815260200160002080549050036040519080825280602002602001820160405280156124e4578160200160208202803883390190505b5090506000805b865181101561253d57600087828151811061250257fe5b602002602001015190506000811115612534578084848151811061252257fe5b60209081029190910101526001909201915b506001016124eb565b506001600160a01b0387166000908152600a60209081526040909120835161169592850190614f56565b61256f613ad1565b6000546001600160a01b0390811691161461259c5760405162461bcd60e51b81526004016108ea90615c52565b600080546040516001600160a01b03909116907f8be0079c531659141344cd1fd0a4f28419497f9722a3daafe3b4186f6b6457e0908390a3600080546001600160a01b0319169055565b6040516108ae906155a9565b600b5490565b60008260008111801561260d5750600b548111155b6126295760405162461bcd60e51b81526004016108ea90615934565b50506001600160a01b03166000908152600960209081526040808320938352929052206001015490565b6000546001600160a01b031690565b336000908152600d602052604081205485146126905760405162461bcd60e51b81526004016108ea906157f4565b6126d286868686868080601f01602080910402602001604051908101604052809392919081815260200183838082843760009201919091525061497d92505050565b6126ee5760405162461bcd60e51b81526004016108ea90615a5e565b336000818152600d60205260409081902080546001019055600254905163f3fef3a360e01b81526001600160a01b039091169163f3fef3a39161273691908a906004016155d3565b600060405180830381600087803b15801561275057600080fd5b505af1158015612764573d6000803e3d6000fd5b50505050336001600160a01b03167fb52d0e0c45bba15833f7d429ccdcc4c2bfa8eea764774706120027b76734a44f876040516127a1919061564f565b60405180910390a250600195945050505050565b60008281526001602052604081206127d3908363ffffffff6149f616565b9392505050565b60008281526001602052604081206127d3908363ffffffff614a0216565b612800614e0f565b61280982614130565b80519091506001600160a01b031633148061282e575061282e604051610f6090615592565b806128435750612843604051610f60906155a9565b61285f5760405162461bcd60e51b81526004016108ea90615d97565b8060a00151156128815760405162461bcd60e51b81526004016108ea90615bd9565b612889614db5565b61289283613ad5565b90506000816040015160058111156128a657fe5b14156128c45760405162461bcd60e51b81526004016108ea90615e06565b6128cc6140bd565b816101200151106128ef5760405162461bcd60e51b81526004016108ea90615cd6565b6128f76140bd565b600454826101200151011161291e5760405162461bcd60e51b81526004016108ea90615d1f565b8060c0015161293f5760405162461bcd60e51b81526004016108ea9061599a565b82600760008360400151600581111561295457fe5b60ff1660ff1681526020019081526020016000205411156129875760405162461bcd60e51b81526004016108ea90615c87565b606060018260200151600181111561299b57fe5b1415612a6557600660008581526020019081526020016000206008018260e00151815481106129c657fe5b6000918252602091829020600390910201805460408051601f6002600019610100600187161502019094169390930492830185900485028101850190915281815292830182828015612a595780601f10612a2e57610100808354040283529160200191612a59565b820191906000526020600020905b815481529060010190602001808311612a3c57829003601f168201915b50505050509050612a6c565b5060808201515b600182604001516005811115612a7e57fe5b1415612af3576002546001600160a01b031663c108a40285612a9f84610c97565b6040518363ffffffff1660e01b8152600401612abc929190615f1f565b600060405180830381600087803b158015612ad657600080fd5b505af1158015612aea573d6000803e3d6000fd5b50505050612d37565b600282604001516005811115612b0557fe5b1415612b26576002546001600160a01b031663ac3cd7c685612a9f84610c97565b600382604001516005811115612b3857fe5b1415612b4f57612b4781610c97565b600355612d37565b600482604001516005811115612b6157fe5b1415612d125760408051600180825281830190925282916060919060208201818038833950506040805160068082528183019092529293506060929150602082018180388339505060408051600680825281830190925292935060609291506020820181803883390190505090508351600d14612bdd57600080fd5b60005b8451811015612ca8576001811015612c335784600081518110612bff57fe5b602001015160f81c60f81b84600081518110612c1757fe5b60200101906001600160f81b031916908160001a905350612ca0565b6007811015612c6257848181518110612c4857fe5b602001015160f81c60f81b836001830381518110612c1757fe5b848181518110612c6e57fe5b602001015160f81c60f81b826007830381518110612c8857fe5b60200101906001600160f81b031916908160001a9053505b600101612be0565b506000612cb483610c97565b90506000612cc183610c97565b905060405180604001604052808381526020018281525060056000612ce588610c97565b60ff1681526020808201929092526040016000208251815591015160019091015550612d37945050505050565b600582604001516005811115612d2457fe5b1415612d3757612d3381610c97565b6004555b600084815260066020526040808220600c01805460ff1916600117905583015185916007916005811115612d6757fe5b60ff1660ff16815260200190815260200160002081905550336001600160a01b031682604001516005811115612d9957fe5b60405186907f76ddf1c56562a7f2299089b84bd25caab82ee275576eb7984361159f17d63eac90600090a450505050565b6001600160a01b03919091166000908152600860209081526040808320938352929052205490565b80600081118015612e055750600b548111155b612e215760405162461bcd60e51b81526004016108ea90615934565b6000828152600660205260409020546001600160a01b03163314612e575760405162461bcd60e51b81526004016108ea90615d97565b336000908152600860209081526040808320858452909152902054612e8e5760405162461bcd60e51b81526004016108ea9061596b565b612e96614db5565b612e9f83613ad5565b9050612ea96140bd565b81610120015110612ecc5760405162461bcd60e51b81526004016108ea90615cd6565b8060c00151612eed5760405162461bcd60e51b81526004016108ea9061599a565b612ef683614a17565b505050565b600081565b6060600080600080600080600080612f16614db5565b612f1f8b613ad5565b905080600001519950806020015198508060400151975080606001519650806080015195508060a0015193508060c0015192508061012001519150612f62614f90565b60008c81526006602090815260409182902082516101c08101845281546001600160a01b03168152600180830180548651600261010094831615949094026000190190911692909204601f810186900486028301860190965285825291949293858101939192919083018282801561301b5780601f10612ff05761010080835404028352916020019161301b565b820191906000526020600020905b815481529060010190602001808311612ffe57829003601f168201915b5050509183525050600282810180546040805160206001841615610100026000190190931694909404601f810183900483028501830190915280845293810193908301828280156130ad5780601f10613082576101008083540402835291602001916130ad565b820191906000526020600020905b81548152906001019060200180831161309057829003601f168201915b5050509183525050600382015460209091019060ff1660018111156130ce57fe5b60018111156130d957fe5b81526020016003820160019054906101000a900460ff1660058111156130fb57fe5b600581111561310657fe5b815260048201805460408051602060026001851615610100026000190190941693909304601f81018490048402820184019092528181529382019392918301828280156131945780601f1061316957610100808354040283529160200191613194565b820191906000526020600020905b81548152906001019060200180831161317757829003601f168201915b50505050508152602001600582015481526020016006820160009054906101000a900460ff161515151581526020016007820154815260200160088201805480602002602001604051908101604052809291908181526020016000905b828210156132c65760008481526020908190206040805160038602909201805460026001821615610100026000190190911604601f810185900490940283016080908101909252606083018481529293909284929091849184018282801561329a5780601f1061326f5761010080835404028352916020019161329a565b820191906000526020600020905b81548152906001019060200180831161327d57829003601f168201915b5050505050815260200160018201548152602001600282015481525050815260200190600101906131f1565b5050509082525060098201546020820152600a8201546040820152600b8201546060820152600c9091015460ff16151560809091015261016001519a9c999b509799969895975092949193509150565b60008260008111801561332b5750600b548111155b6133475760405162461bcd60e51b81526004016108ea90615934565b61334f614f90565b60008581526006602090815260409182902082516101c08101845281546001600160a01b03168152600180830180548651600261010094831615949094026000190190911692909204601f81018690048602830186019096528582529194929385810193919291908301828280156134085780601f106133dd57610100808354040283529160200191613408565b820191906000526020600020905b8154815290600101906020018083116133eb57829003601f168201915b5050509183525050600282810180546040805160206001841615610100026000190190931694909404601f8101839004830285018301909152808452938101939083018282801561349a5780601f1061346f5761010080835404028352916020019161349a565b820191906000526020600020905b81548152906001019060200180831161347d57829003601f168201915b5050509183525050600382015460209091019060ff1660018111156134bb57fe5b60018111156134c657fe5b81526020016003820160019054906101000a900460ff1660058111156134e857fe5b60058111156134f357fe5b815260048201805460408051602060026001851615610100026000190190941693909304601f81018490048402820184019092528181529382019392918301828280156135815780601f1061355657610100808354040283529160200191613581565b820191906000526020600020905b81548152906001019060200180831161356457829003601f168201915b50505050508152602001600582015481526020016006820160009054906101000a900460ff161515151581526020016007820154815260200160088201805480602002602001604051908101604052809291908181526020016000905b828210156136b35760008481526020908190206040805160038602909201805460026001821615610100026000190190911604601f81018590049094028301608090810190925260608301848152929390928492909184918401828280156136875780601f1061365c57610100808354040283529160200191613687565b820191906000526020600020905b81548152906001019060200180831161366a57829003601f168201915b5050505050815260200160018201548152602001600282015481525050815260200190600101906135de565b5050509082525060098201546020820152600a8201546040820152600b8201546060820152600c9091015460ff1615156080909101526101208101515190915084106137115760405162461bcd60e51b81526004016108ea90615b59565b61371b85856145d6565b95945050505050565b60045490565b600081815260016020526040812061089c90614ae1565b60008281526001602052604090206002015461375f906104c0613ad1565b610c8d5760405162461bcd60e51b81526004016108ea90615b89565b600b546000818152600660209081526040808320600190810180548351600293821615610100026000190190911692909204601f8101859004850283018501909352828252606094938493908301828280156138185780601f106137ed57610100808354040283529160200191613818565b820191906000526020600020905b8154815290600101906020018083116137fb57829003601f168201915b5050506000878152600660205260409020600301549697929660ff80821697506101009091041694509192505050565b60608260008111801561385d5750600b548111155b6138795760405162461bcd60e51b81526004016108ea90615934565b60008481526006602052604090206008015483106138a95760405162461bcd60e51b81526004016108ea90615b59565b60008481526006602052604090206008018054849081106138c657fe5b6000918252602091829020600390910201805460408051601f60026000196101006001871615020190941693909304928301859004850281018501909152818152928301828280156139595780601f1061392e57610100808354040283529160200191613959565b820191906000526020600020905b81548152906001019060200180831161393c57829003601f168201915b505050505091505092915050565b60008160008111801561397c5750600b548111155b6139985760405162461bcd60e51b81526004016108ea90615934565b505060009081526006602052604090206008015490565b6139b7613ad1565b6000546001600160a01b039081169116146139e45760405162461bcd60e51b81526004016108ea90615c52565b6001600160a01b038116613a0a5760405162461bcd60e51b81526004016108ea906158aa565b600080546040516001600160a01b03808516939216917f8be0079c531659141344cd1fd0a4f28419497f9722a3daafe3b4186f6b6457e091a3600080546001600160a01b0319166001600160a01b0392909216919091179055565b600254600160a01b900460ff1690565b60008060056000846005811115613a8857fe5b60ff1660ff16815260200190815260200160002060000154915060056000846005811115613ab257fe5b60ff1660ff168152602001908152602001600020600101549050915091565b3390565b613add614db5565b81600081118015613af05750600b548111155b613b0c5760405162461bcd60e51b81526004016108ea90615934565b613b14614f90565b60008481526006602090815260409182902082516101c08101845281546001600160a01b03168152600180830180548651600261010094831615949094026000190190911692909204601f8101869004860283018601909652858252919492938581019391929190830182828015613bcd5780601f10613ba257610100808354040283529160200191613bcd565b820191906000526020600020905b815481529060010190602001808311613bb057829003601f168201915b5050509183525050600282810180546040805160206001841615610100026000190190931694909404601f81018390048302850183019091528084529381019390830182828015613c5f5780601f10613c3457610100808354040283529160200191613c5f565b820191906000526020600020905b815481529060010190602001808311613c4257829003601f168201915b5050509183525050600382015460209091019060ff166001811115613c8057fe5b6001811115613c8b57fe5b81526020016003820160019054906101000a900460ff166005811115613cad57fe5b6005811115613cb857fe5b815260048201805460408051602060026001851615610100026000190190941693909304601f8101849004840282018401909252818152938201939291830182828015613d465780601f10613d1b57610100808354040283529160200191613d46565b820191906000526020600020905b815481529060010190602001808311613d2957829003601f168201915b50505050508152602001600582015481526020016006820160009054906101000a900460ff161515151581526020016007820154815260200160088201805480602002602001604051908101604052809291908181526020016000905b82821015613e785760008481526020908190206040805160038602909201805460026001821615610100026000190190911604601f8101859004909402830160809081019092526060830184815292939092849290918491840182828015613e4c5780601f10613e2157610100808354040283529160200191613e4c565b820191906000526020600020905b815481529060010190602001808311613e2f57829003601f168201915b505050505081526020016001820154815260200160028201548152505081526020019060010190613da3565b505050908252506009820154602080830191909152600a8301546040830152600b830154606080840191909152600c9093015460ff161515608090920191909152828101518652908201519192508401906001811115613ed457fe5b90816001811115613ee157fe5b905250608081015160408401906005811115613ef957fe5b90816005811115613f0657fe5b90525061014081015161012084015260e0810151151560a0840152600083602001516001811115613f3357fe5b1415613fe157806101200151600081518110613f4b57fe5b602002602001015160400151836060018181525050806101200151600181518110613f7257fe5b602002602001015160400151836080018181525050613f8f6140bd565b836101200151108015613fa357508260a001515b15613fd4578061016001518360800151620186a00281613fbf57fe5b610100830151919004101560c0840152613fdc565b600060c08401525b6140b6565b613fe96140bd565b836101200151108015613ffd57508260a001515b156140ae576000805b826101200151518110156140895761401c615017565b836101200151828151811061402d57fe5b60200260200101519050828160400151111561406b5760e086018290526040810151610100870151909350156140665760006101008701525b614080565b82816040015114156140805760016101008701525b50600101614006565b508361010001511580156140a1575060008460e00151115b151560c0850152506140b6565b600060c08401525b5050919050565b4290565b60008281526001602052604090206140df908263ffffffff614aec16565b15610ba6576140ec613ad1565b6001600160a01b0316816001600160a01b0316837f2f8788117e7eff1d82e926ec794901d17c78024a50270940304540a733656f0d60405160405180910390a45050565b614138614e0f565b8160008111801561414b5750600b548111155b6141675760405162461bcd60e51b81526004016108ea90615934565b61416f614f90565b60008481526006602090815260409182902082516101c08101845281546001600160a01b03168152600180830180548651600261010094831615949094026000190190911692909204601f81018690048602830186019096528582529194929385810193919291908301828280156142285780601f106141fd57610100808354040283529160200191614228565b820191906000526020600020905b81548152906001019060200180831161420b57829003601f168201915b5050509183525050600282810180546040805160206001841615610100026000190190931694909404601f810183900483028501830190915280845293810193908301828280156142ba5780601f1061428f576101008083540402835291602001916142ba565b820191906000526020600020905b81548152906001019060200180831161429d57829003601f168201915b5050509183525050600382015460209091019060ff1660018111156142db57fe5b60018111156142e657fe5b81526020016003820160019054906101000a900460ff16600581111561430857fe5b600581111561431357fe5b815260048201805460408051602060026001851615610100026000190190941693909304601f81018490048402820184019092528181529382019392918301828280156143a15780601f10614376576101008083540402835291602001916143a1565b820191906000526020600020905b81548152906001019060200180831161438457829003601f168201915b50505050508152602001600582015481526020016006820160009054906101000a900460ff161515151581526020016007820154815260200160088201805480602002602001604051908101604052809291908181526020016000905b828210156144d35760008481526020908190206040805160038602909201805460026001821615610100026000190190911604601f81018590049094028301608090810190925260608301848152929390928492909184918401828280156144a75780601f1061447c576101008083540402835291602001916144a7565b820191906000526020600020905b81548152906001019060200180831161448a57829003601f168201915b5050505050815260200160018201548152602001600282015481525050815260200190600101906143fe565b505050908252506009820154602080830191909152600a830154604080840191909152600b840154606080850191909152600c9094015460ff16151560809384015284516001600160a01b0316885260c085015191880191909152610100840151908701526101808301519186019190915260a080830151918601919091526101a090910151151590840152509092915050565b6000828152600160205260409020614585908263ffffffff614b0116565b15610ba657614592613ad1565b6001600160a01b0316816001600160a01b0316837ff6391f5c32d9c69d2a47ea670b442974b53935d1edc7fd64eb21e047a839171b60405160405180910390a45050565b6000826000811180156145eb5750600b548111155b6146075760405162461bcd60e51b81526004016108ea90615934565b600084815260066020526040902061461d6140bd565b81600901541015614632576000925050610c4e565b600254604051632c9aab9b60e11b815233916000916001600160a01b03909116906359355736906146679085906004016155bf565b60206040518083038186803b15801561467f57600080fd5b505afa158015614693573d6000803e3d6000fd5b505050506040513d601f19601f820116820180604052506146b7919081019061544a565b9050600081116146d95760405162461bcd60e51b81526004016108ea90615a95565b6001600160a01b03821660009081526009602090815260408083208a84529091529020600101541561471d5760405162461bcd60e51b81526004016108ea90615a27565b60408051808201825287815260208082018481526001600160a01b0386166000908152600983528481208c8252909252929020905181559051600191820155600b840180549091019055600a83018054820190556008830180548790811061478157fe5b906000526020600020906003020160010160008154809291906001019190505550808360080187815481106147b257fe5b6000918252602090912060026003909202010180549091019055600683015460ff16614886576002546040805163ca5c7b9160e01b815290516000926001600160a01b03169163ca5c7b91916004808301926020929190829003018186803b15801561481d57600080fd5b505afa158015614831573d6000803e3d6000fd5b505050506040513d601f19601f82011682018060405250614855919081019061544a565b84600a0154620186a0028161486657fe5b049050836005015481106148845760068401805460ff191660011790555b505b336000908152600a60209081526040808320805460018101825590845291909220018890555186906001600160a01b0384169089907f8eea3a81425aea5e440ed6b6289a8aea0db8025c75fdeb1434bd816501770340906148e890869061564f565b60405180910390a45060019695505050505050565b61490c604051610f6090615592565b806149215750614921604051610f60906155a9565b1561492b57610b47565b600354336000818152600860209081526040808320868452909152908190208390556002549051631131011960e21b81526001600160a01b03909116926344c4046492610b14929091906004016155d3565b60008033868660405160200161499593929190615568565b6040516020818303038152906040528051906020012090508084146149cc5760405162461bcd60e51b81526004016108ea90615d60565b600c546001600160a01b03166149e28585614b16565b6001600160a01b0316149695505050505050565b60006127d38383614c44565b60006127d3836001600160a01b038416614c89565b614a26604051610f6090615592565b80614a3b5750614a3b604051610f60906155a9565b15614a4557610b47565b60025433600081815260086020908152604080832086845290915290819020549051633ba71a1560e01b81526001600160a01b0390931692633ba71a1592614a919290916004016155d3565b600060405180830381600087803b158015614aab57600080fd5b505af1158015614abf573d6000803e3d6000fd5b5050336000908152600860209081526040808320868452909152812055505050565b600061089c82614ca1565b60006127d3836001600160a01b038416614ca5565b60006127d3836001600160a01b038416614cef565b60008151604114614b395760405162461bcd60e51b81526004016108ea9061582b565b60208201516040830151606084015160001a7f7fffffffffffffffffffffffffffffff5d576e7357a4501ddfe92f46681b20a0821115614b8b5760405162461bcd60e51b81526004016108ea90615b17565b8060ff16601b14158015614ba357508060ff16601c14155b15614bc05760405162461bcd60e51b81526004016108ea90615c10565b600060018783868660405160008152602001604052604051614be59493929190615658565b6020604051602081039080840390855afa158015614c07573d6000803e3d6000fd5b5050604051601f1901519150506001600160a01b038116614c3a5760405162461bcd60e51b81526004016108ea9061572c565b9695505050505050565b81546000908210614c675760405162461bcd60e51b81526004016108ea90615763565b826000018281548110614c7657fe5b9060005260206000200154905092915050565b60009081526001919091016020526040902054151590565b5490565b6000614cb18383614c89565b614ce75750815460018181018455600084815260208082209093018490558454848252828601909352604090209190915561089c565b50600061089c565b60008181526001830160205260408120548015614dab5783546000198083019190810190600090879083908110614d2257fe5b9060005260206000200154905080876000018481548110614d3f57fe5b600091825260208083209091019290925582815260018981019092526040902090840190558654879080614d6f57fe5b6001900381819060005260206000200160009055905586600101600087815260200190815260200160002060009055600194505050505061089c565b600091505061089c565b60408051610140810190915260608152602081016000815260200160008152602001600081526020016000815260200160001515815260200160001515815260200160008152602001600015158152602001600081525090565b6040518060c0016040528060006001600160a01b03168152602001600081526020016000815260200160008152602001606081526020016000151581525090565b604051806040016040528060008152602001600081525090565b828054600181600116156101000203166002900490600052602060002090601f016020900481019282601f10614eab5782800160ff19823516178555614ed8565b82800160010185558215614ed8579182015b82811115614ed8578235825591602001919060010190614ebd565b50614ee4929150615038565b5090565b828054600181600116156101000203166002900490600052602060002090601f016020900481019282601f10614f2957805160ff1916838001178555614ed8565b82800160010185558215614ed8579182015b82811115614ed8578251825591602001919060010190614f3b565b828054828255906000526020600020908101928215614ed85791602002820182811115614ed8578251825591602001919060010190614f3b565b604051806101c0016040528060006001600160a01b03168152602001606081526020016060815260200160006001811115614fc757fe5b815260200160008152602001606081526020016000815260200160001515815260200160008152602001606081526020016000815260200160008152602001600081526020016000151581525090565b60405180606001604052806060815260200160008152602001600081525090565b610d2a91905b80821115614ee4576000815560010161503e565b80356001600160a01b038116811461089c57600080fd5b60008083601f84011261507a578182fd5b50813567ffffffffffffffff811115615091578182fd5b6020830191508360208285010111156150a957600080fd5b9250929050565b80356006811061089c57600080fd5b600082601f8301126150cf578081fd5b813567ffffffffffffffff808211156150e6578283fd5b604051601f8301601f191681016020018281118282101715615106578485fd5b60405282815292508284830160200186101561512157600080fd5b8260208601602083013760006020848301015250505092915050565b60006020828403121561514e578081fd5b6127d38383615052565b6000806040838503121561516a578081fd5b6151748484615052565b946020939093013593505050565b60008060408385031215615194578182fd5b82358015158114615174578283fd5b6000602082840312156151b4578081fd5b5035919050565b600080604083850312156151cd578182fd5b8235915060208301356001600160a01b03811681146151ea578182fd5b809150509250929050565b60008060408385031215615207578182fd5b50508035926020909101359150565b600060208284031215615227578081fd5b6127d383836150b0565b60008060408385031215615243578182fd5b61524d84846150b0565b9150602083013567ffffffffffffffff811115615268578182fd5b615274858286016150bf565b9150509250929050565b60008060008060008060008060a0898b031215615299578384fd5b883567ffffffffffffffff808211156152b0578586fd5b6152bc8c838d01615069565b909a50985060208b01359150808211156152d4578586fd5b6152e08c838d01615069565b909850965060408b0135955060608b01359150808211156152ff578485fd5b818b018c601f820112615310578586fd5b8035925081831115615320578586fd5b8c60208085028301011115615333578586fd5b602001945090925061534a90508a60808b016150b0565b90509295985092959890939650565b60008060008060008060008060a0898b031215615374578384fd5b883567ffffffffffffffff8082111561538b578586fd5b6153978c838d01615069565b909a50985060208b01359150808211156153af578586fd5b6153bb8c838d01615069565b909850965060408b0135955060608b01359150808211156153da578485fd5b506153e78b828c01615069565b9094509250506080890135600681106153fe578182fd5b809150509295985092959890939650565b600060208284031215615420578081fd5b813567ffffffffffffffff811115615436578182fd5b615442848285016150bf565b949350505050565b60006020828403121561545b578081fd5b5051919050565b60008060408385031215615474578182fd5b823591506154858460208501615052565b90509250929050565b600080604083850312156154a0578182fd5b8235915060208301356001600160e01b0319811681146151ea578182fd5b6000806000806000608086880312156154d5578283fd5b853594506020860135935060408601359250606086013567ffffffffffffffff811115615500578182fd5b61550c88828901615069565b969995985093965092949392505050565b60008151808452815b8181101561554257602081850181015186830182015201615526565b818111156155535782602083870101525b50601f01601f19169290920160200192915050565b60609390931b6bffffffffffffffffffffffff191683526014830191909152603482015260540190565b6a564f54494e475f524f4c4560a81b8152600b0190565b6941444d494e5f524f4c4560b01b8152600a0190565b6001600160a01b0391909116815260200190565b6001600160a01b03929092168252602082015260400190565b600060018060a01b038816825286602083015285604083015284606083015260c0608083015261561f60c083018561551d565b905082151560a0830152979650505050505050565b901515815260200190565b9115158252602082015260400190565b90815260200190565b93845260ff9290921660208401526040830152606082015260800190565b602081016006831061568457fe5b91905290565b6000602082526127d3602083018461551d565b60006101208083526156b18184018d61551d565b9150506156bd8a615f2d565b8960208301526156cc89615f37565b60408201989098526060810196909652608086019490945260a0850192909252151560c0840152151560e08301526101009091015292915050565b60006060825261571a606083018661551d565b60208301949094525060400152919050565b60208082526018908201527f45434453413a20696e76616c6964207369676e61747572650000000000000000604082015260600190565b60208082526022908201527f456e756d657261626c655365743a20696e646578206f7574206f6620626f756e604082015261647360f01b606082015260800190565b6020808252602f908201527f416363657373436f6e74726f6c3a2073656e646572206d75737420626520616e60408201526e0818591b5a5b881d1bc819dc985b9d608a1b606082015260800190565b6020808252601c908201527f526577617264696e673a20696e636f7272656374206e6f6e6365496400000000604082015260600190565b6020808252601f908201527f45434453413a20696e76616c6964207369676e6174757265206c656e67746800604082015260600190565b60208082526028908201527f566f74696e673a2074696d65206d75737420626520626967676572207468616e6040820152670818dd5c9c995b9d60c21b606082015260800190565b60208082526026908201527f4f776e61626c653a206e6577206f776e657220697320746865207a65726f206160408201526564647265737360d01b606082015260800190565b60208082526024908201527f566f74696e673a206d757374206265206174206c656173742074776f206f7074604082015263696f6e7360e01b606082015260800190565b6020808252601f908201527f566f74696e673a2070726f706f73616c20646f6573206e6f7420657869737400604082015260600190565b602080825260159082015274159bdd1a5b99ce88195b5c1d1e4819195c1bdcda5d605a1b604082015260600190565b60208082526025908201527f566f74696e673a20746869732070726f706f73616c206974206e6f7420616363604082015264195c1d195960da1b606082015260800190565b60208082526028908201527f566f74696e673a20706c656173652063686f6f736520616e206f7074696f6e206040820152670c4f240d2dcc8caf60c31b606082015260800190565b6020808252601e908201527f566f74696e673a20796f75206861766520616c726561647920766f7465640000604082015260600190565b6020808252601e908201527f526577617264696e673a20696e636f7272656374207369676e61747572650000604082015260600190565b6020808252602b908201527f566f74696e673a20796f75206861766520746f206c6f636b20796f757220746f60408201526a6b656e73206265666f726560a81b606082015260800190565b6020808252601f908201527f566f74696e673a20696e636f7272656374207570646174696e67206461746100604082015260600190565b60208082526022908201527f45434453413a20696e76616c6964207369676e6174757265202773272076616c604082015261756560f01b606082015260800190565b602080825260169082015275566f74696e673a206f7574206f6620696e646578657360501b604082015260600190565b60208082526030908201527f416363657373436f6e74726f6c3a2073656e646572206d75737420626520616e60408201526f2061646d696e20746f207265766f6b6560801b606082015260800190565b60208082526018908201527f566f74696e673a20616c72656164792065786563757465640000000000000000604082015260600190565b60208082526022908201527f45434453413a20696e76616c6964207369676e6174757265202776272076616c604082015261756560f01b606082015260800190565b6020808252818101527f4f776e61626c653a2063616c6c6572206973206e6f7420746865206f776e6572604082015260600190565b6020808252602f908201527f566f74696e673a2064656e69656420746f20657865637574652074686520726560408201526e1c1b1858d959081c1c9bdc1bdcd85b608a1b606082015260800190565b60208082526029908201527f566f74696e673a20766f74696e6720706572696f64206973206e6f742066696e6040820152681a5cda1959081e595d60ba1b606082015260800190565b60208082526021908201527f566f74696e673a20657865637574696f6e2074696d65206973206578706972656040820152601960fa1b606082015260800190565b60208082526019908201527f526577617264696e673a20696e636f7272656374206861736800000000000000604082015260600190565b60208082526022908201527f566f74696e673a20796f7520646f206e6f742068617665207065726d6973736960408201526137b760f11b606082015260800190565b602080825260139082015272566f74696e673a20656d707479207469746c6560681b604082015260600190565b60208082526027908201527f566f74696e673a20746869732070726f706f73616c206973206e6f742065786560408201526663757461626c6560c81b606082015260800190565b6020808252602f908201527f416363657373436f6e74726f6c3a2063616e206f6e6c792072656e6f756e636560408201526e103937b632b9903337b91039b2b63360891b606082015260800190565b60208082526021908201527f566f74696e673a20796f752073686f756c642073617920796561206f72206e616040820152607960f81b606082015260800190565b600085825260806020830152615ef6608083018661551d565b9050615f0184615f2d565b836040830152615f1083615f37565b82606083015295945050505050565b918252602082015260400190565b60028110610b4757fe5b60068110610b4757fefea2646970667358221220ffef29339735b3a2809e50c3decc1a291e42a406e1355b2a7e4d2a8e945e7f5164736f6c63430006020033a8a1fd55aad9bd98e45291d680690c619e60f7931ecaeb384ba0bfb225cd25fe",
  "source": "// SPDX-License-Identifier: GPL-3.0\npragma solidity 0.6.2;\npragma experimental ABIEncoderV2;\n\n\nimport \"./ICitadelDaoTransport.sol\";\nimport \"./DAO/Rewarding.sol\";\n\n\n// version 1\ncontract CitadelDao is Rewarding {\n\n    constructor (address token) public {\n        _Token = ICitadelDaoTransport(token);\n    }\n\n    function version() external pure returns (string memory) {\n        return '1.0.0';\n    }\n\n}\n",
  "sourcePath": "/home/pirat/Desktop/DAO_update/fix_dao/contracts/CitadelDao.sol",
  "compiler": {
    "name": "solc",
    "version": "0.6.2+commit.bacdbe57.Emscripten.clang"
  },
  "schemaVersion": "3.4.3",
  "updatedAt": "2022-06-28T15:23:34.770Z",
  "devdoc": {
    "methods": {
      "getRoleAdmin(bytes32)": {
        "details": "Returns the admin role that controls `role`. See {grantRole} and {revokeRole}.     * To change a role's admin, use {_setRoleAdmin}."
      },
      "getRoleMember(bytes32,uint256)": {
        "details": "Returns one of the accounts that have `role`. `index` must be a value between 0 and {getRoleMemberCount}, non-inclusive.     * Role bearers are not sorted in any particular way, and their ordering may change at any point.     * WARNING: When using {getRoleMember} and {getRoleMemberCount}, make sure you perform all queries on the same block. See the following https://forum.openzeppelin.com/t/iterating-over-elements-on-enumerableset-in-openzeppelin-contracts/2296[forum post] for more information."
      },
      "getRoleMemberCount(bytes32)": {
        "details": "Returns the number of accounts that have `role`. Can be used together with {getRoleMember} to enumerate all bearers of a role."
      },
      "grantRole(bytes32,address)": {
        "details": "Grants `role` to `account`.     * If `account` had not been already granted `role`, emits a {RoleGranted} event.     * Requirements:     * - the caller must have ``role``'s admin role."
      },
      "hasRole(bytes32,address)": {
        "details": "Returns `true` if `account` has been granted `role`."
      },
      "owner()": {
        "details": "Returns the address of the current owner."
      },
      "renounceOwnership()": {
        "details": "Leaves the contract without owner. It will not be possible to call `onlyOwner` functions anymore. Can only be called by the current owner.     * NOTE: Renouncing ownership will leave the contract without an owner, thereby removing any functionality that is only available to the owner."
      },
      "renounceRole(bytes32,address)": {
        "details": "Revokes `role` from the calling account.     * Roles are often managed via {grantRole} and {revokeRole}: this function's purpose is to provide a mechanism for accounts to lose their privileges if they are compromised (such as when a trusted device is misplaced).     * If the calling account had been granted `role`, emits a {RoleRevoked} event.     * Requirements:     * - the caller must be `account`."
      },
      "revokeRole(bytes32,address)": {
        "details": "Revokes `role` from `account`.     * If `account` had been granted `role`, emits a {RoleRevoked} event.     * Requirements:     * - the caller must have ``role``'s admin role."
      },
      "transferOwnership(address)": {
        "details": "Transfers ownership of the contract to a new account (`newOwner`). Can only be called by the current owner."
      }
    }
  },
  "userdoc": {
    "methods": {}
  }
}