{
  "contractName": "CitadelExchange",
  "abi": [
    {
      "anonymous": false,
      "inputs": [
        {
          "indexed": true,
          "internalType": "address",
          "name": "owner",
          "type": "address"
        },
        {
          "indexed": true,
          "internalType": "address",
          "name": "spender",
          "type": "address"
        },
        {
          "indexed": false,
          "internalType": "uint256",
          "name": "value",
          "type": "uint256"
        }
      ],
      "name": "Approval",
      "type": "event"
    },
    {
      "anonymous": false,
      "inputs": [
        {
          "indexed": true,
          "internalType": "address",
          "name": "previousOwner",
          "type": "address"
        },
        {
          "indexed": true,
          "internalType": "address",
          "name": "newOwner",
          "type": "address"
        }
      ],
      "name": "OwnershipTransferred",
      "type": "event"
    },
    {
      "anonymous": false,
      "inputs": [
        {
          "indexed": false,
          "internalType": "address",
          "name": "account",
          "type": "address"
        }
      ],
      "name": "Paused",
      "type": "event"
    },
    {
      "anonymous": false,
      "inputs": [
        {
          "indexed": true,
          "internalType": "address",
          "name": "from",
          "type": "address"
        },
        {
          "indexed": true,
          "internalType": "address",
          "name": "to",
          "type": "address"
        },
        {
          "indexed": false,
          "internalType": "uint256",
          "name": "value",
          "type": "uint256"
        }
      ],
      "name": "Transfer",
      "type": "event"
    },
    {
      "anonymous": false,
      "inputs": [
        {
          "indexed": false,
          "internalType": "address",
          "name": "account",
          "type": "address"
        }
      ],
      "name": "Unpaused",
      "type": "event"
    },
    {
      "inputs": [],
      "name": "_bankAddress",
      "outputs": [
        {
          "internalType": "address",
          "name": "",
          "type": "address"
        }
      ],
      "stateMutability": "view",
      "type": "function"
    },
    {
      "inputs": [],
      "name": "_publicSaleLimit",
      "outputs": [
        {
          "internalType": "uint256",
          "name": "",
          "type": "uint256"
        }
      ],
      "stateMutability": "view",
      "type": "function"
    },
    {
      "inputs": [
        {
          "internalType": "address",
          "name": "owner",
          "type": "address"
        },
        {
          "internalType": "address",
          "name": "spender",
          "type": "address"
        }
      ],
      "name": "allowance",
      "outputs": [
        {
          "internalType": "uint256",
          "name": "",
          "type": "uint256"
        }
      ],
      "stateMutability": "view",
      "type": "function"
    },
    {
      "inputs": [
        {
          "internalType": "address",
          "name": "spender",
          "type": "address"
        },
        {
          "internalType": "uint256",
          "name": "amount",
          "type": "uint256"
        }
      ],
      "name": "approve",
      "outputs": [
        {
          "internalType": "bool",
          "name": "",
          "type": "bool"
        }
      ],
      "stateMutability": "nonpayable",
      "type": "function"
    },
    {
      "inputs": [
        {
          "internalType": "address",
          "name": "account",
          "type": "address"
        }
      ],
      "name": "balanceOf",
      "outputs": [
        {
          "internalType": "uint256",
          "name": "",
          "type": "uint256"
        }
      ],
      "stateMutability": "view",
      "type": "function"
    },
    {
      "inputs": [],
      "name": "decimals",
      "outputs": [
        {
          "internalType": "uint8",
          "name": "",
          "type": "uint8"
        }
      ],
      "stateMutability": "view",
      "type": "function"
    },
    {
      "inputs": [
        {
          "internalType": "address",
          "name": "spender",
          "type": "address"
        },
        {
          "internalType": "uint256",
          "name": "subtractedValue",
          "type": "uint256"
        }
      ],
      "name": "decreaseAllowance",
      "outputs": [
        {
          "internalType": "bool",
          "name": "",
          "type": "bool"
        }
      ],
      "stateMutability": "nonpayable",
      "type": "function"
    },
    {
      "inputs": [],
      "name": "deployDate",
      "outputs": [
        {
          "internalType": "uint256",
          "name": "",
          "type": "uint256"
        }
      ],
      "stateMutability": "view",
      "type": "function"
    },
    {
      "inputs": [],
      "name": "deployed",
      "outputs": [
        {
          "internalType": "uint256",
          "name": "",
          "type": "uint256"
        }
      ],
      "stateMutability": "view",
      "type": "function"
    },
    {
      "inputs": [
        {
          "internalType": "address",
          "name": "spender",
          "type": "address"
        },
        {
          "internalType": "uint256",
          "name": "addedValue",
          "type": "uint256"
        }
      ],
      "name": "increaseAllowance",
      "outputs": [
        {
          "internalType": "bool",
          "name": "",
          "type": "bool"
        }
      ],
      "stateMutability": "nonpayable",
      "type": "function"
    },
    {
      "inputs": [
        {
          "internalType": "bytes4",
          "name": "groupId",
          "type": "bytes4"
        }
      ],
      "name": "multisigWhitelist",
      "outputs": [
        {
          "internalType": "address[]",
          "name": "",
          "type": "address[]"
        }
      ],
      "stateMutability": "view",
      "type": "function"
    },
    {
      "inputs": [
        {
          "internalType": "bytes4",
          "name": "groupId",
          "type": "bytes4"
        },
        {
          "internalType": "address",
          "name": "account",
          "type": "address"
        }
      ],
      "name": "multisigWhitelistAdd",
      "outputs": [],
      "stateMutability": "nonpayable",
      "type": "function"
    },
    {
      "inputs": [
        {
          "internalType": "bytes4",
          "name": "groupId",
          "type": "bytes4"
        },
        {
          "internalType": "address",
          "name": "account",
          "type": "address"
        }
      ],
      "name": "multisigWhitelistRemove",
      "outputs": [],
      "stateMutability": "nonpayable",
      "type": "function"
    },
    {
      "inputs": [],
      "name": "name",
      "outputs": [
        {
          "internalType": "string",
          "name": "",
          "type": "string"
        }
      ],
      "stateMutability": "view",
      "type": "function"
    },
    {
      "inputs": [],
      "name": "owner",
      "outputs": [
        {
          "internalType": "address",
          "name": "",
          "type": "address"
        }
      ],
      "stateMutability": "view",
      "type": "function"
    },
    {
      "inputs": [],
      "name": "paused",
      "outputs": [
        {
          "internalType": "bool",
          "name": "",
          "type": "bool"
        }
      ],
      "stateMutability": "view",
      "type": "function"
    },
    {
      "inputs": [],
      "name": "percentDecimal",
      "outputs": [
        {
          "internalType": "uint256",
          "name": "",
          "type": "uint256"
        }
      ],
      "stateMutability": "view",
      "type": "function"
    },
    {
      "inputs": [],
      "name": "renounceOwnership",
      "outputs": [],
      "stateMutability": "nonpayable",
      "type": "function"
    },
    {
      "inputs": [],
      "name": "symbol",
      "outputs": [
        {
          "internalType": "string",
          "name": "",
          "type": "string"
        }
      ],
      "stateMutability": "view",
      "type": "function"
    },
    {
      "inputs": [],
      "name": "totalSupply",
      "outputs": [
        {
          "internalType": "uint256",
          "name": "",
          "type": "uint256"
        }
      ],
      "stateMutability": "view",
      "type": "function"
    },
    {
      "inputs": [
        {
          "internalType": "address",
          "name": "recipient",
          "type": "address"
        },
        {
          "internalType": "uint256",
          "name": "amount",
          "type": "uint256"
        }
      ],
      "name": "transfer",
      "outputs": [
        {
          "internalType": "bool",
          "name": "",
          "type": "bool"
        }
      ],
      "stateMutability": "nonpayable",
      "type": "function"
    },
    {
      "inputs": [
        {
          "internalType": "address",
          "name": "sender",
          "type": "address"
        },
        {
          "internalType": "address",
          "name": "recipient",
          "type": "address"
        },
        {
          "internalType": "uint256",
          "name": "amount",
          "type": "uint256"
        }
      ],
      "name": "transferFrom",
      "outputs": [
        {
          "internalType": "bool",
          "name": "",
          "type": "bool"
        }
      ],
      "stateMutability": "nonpayable",
      "type": "function"
    },
    {
      "inputs": [
        {
          "internalType": "address",
          "name": "newOwner",
          "type": "address"
        }
      ],
      "name": "transferOwnership",
      "outputs": [],
      "stateMutability": "nonpayable",
      "type": "function"
    },
    {
      "stateMutability": "payable",
      "type": "receive"
    },
    {
      "inputs": [
        {
          "internalType": "address payable",
          "name": "account",
          "type": "address"
        },
        {
          "internalType": "uint256",
          "name": "amount",
          "type": "uint256"
        }
      ],
      "name": "transferEth",
      "outputs": [],
      "stateMutability": "nonpayable",
      "type": "function"
    },
    {
      "inputs": [
        {
          "internalType": "uint256",
          "name": "amount",
          "type": "uint256"
        }
      ],
      "name": "buyViaUSDT",
      "outputs": [],
      "stateMutability": "nonpayable",
      "type": "function"
    },
    {
      "inputs": [
        {
          "internalType": "address",
          "name": "account",
          "type": "address"
        },
        {
          "internalType": "uint256",
          "name": "amount",
          "type": "uint256"
        }
      ],
      "name": "transferUSDT",
      "outputs": [],
      "stateMutability": "nonpayable",
      "type": "function"
    },
    {
      "inputs": [
        {
          "internalType": "uint256",
          "name": "amount",
          "type": "uint256"
        }
      ],
      "name": "calculateTokensEther",
      "outputs": [
        {
          "internalType": "uint256",
          "name": "",
          "type": "uint256"
        }
      ],
      "stateMutability": "view",
      "type": "function"
    },
    {
      "inputs": [
        {
          "internalType": "uint256",
          "name": "amount",
          "type": "uint256"
        }
      ],
      "name": "calculateTokensUSD",
      "outputs": [
        {
          "internalType": "uint256",
          "name": "",
          "type": "uint256"
        }
      ],
      "stateMutability": "view",
      "type": "function"
    },
    {
      "inputs": [
        {
          "internalType": "uint256",
          "name": "rate_",
          "type": "uint256"
        }
      ],
      "name": "changeRate",
      "outputs": [],
      "stateMutability": "nonpayable",
      "type": "function"
    },
    {
      "inputs": [],
      "name": "getRate",
      "outputs": [
        {
          "internalType": "uint256",
          "name": "",
          "type": "uint256"
        }
      ],
      "stateMutability": "view",
      "type": "function"
    },
    {
      "inputs": [
        {
          "internalType": "address",
          "name": "marketContract_",
          "type": "address"
        },
        {
          "internalType": "uint256",
          "name": "marketRate_",
          "type": "uint256"
        }
      ],
      "name": "changeMarketContract",
      "outputs": [],
      "stateMutability": "nonpayable",
      "type": "function"
    },
    {
      "inputs": [],
      "name": "removeMarketContract",
      "outputs": [],
      "stateMutability": "nonpayable",
      "type": "function"
    },
    {
      "inputs": [],
      "name": "getMarketContract",
      "outputs": [
        {
          "internalType": "address",
          "name": "marketContract",
          "type": "address"
        },
        {
          "internalType": "uint256",
          "name": "marketRate",
          "type": "uint256"
        }
      ],
      "stateMutability": "view",
      "type": "function"
    },
    {
      "inputs": [
        {
          "internalType": "address",
          "name": "usdtContract_",
          "type": "address"
        }
      ],
      "name": "changeUSDTContract",
      "outputs": [],
      "stateMutability": "nonpayable",
      "type": "function"
    },
    {
      "inputs": [],
      "name": "getUSDTContract",
      "outputs": [
        {
          "internalType": "address",
          "name": "",
          "type": "address"
        }
      ],
      "stateMutability": "view",
      "type": "function"
    },
    {
      "inputs": [
        {
          "internalType": "uint256",
          "name": "buyerLimit_",
          "type": "uint256"
        }
      ],
      "name": "changeBuyerLimit",
      "outputs": [],
      "stateMutability": "nonpayable",
      "type": "function"
    },
    {
      "inputs": [],
      "name": "getBuyerLimit",
      "outputs": [
        {
          "internalType": "uint256",
          "name": "",
          "type": "uint256"
        }
      ],
      "stateMutability": "view",
      "type": "function"
    },
    {
      "inputs": [],
      "name": "closeMarket",
      "outputs": [],
      "stateMutability": "nonpayable",
      "type": "function"
    },
    {
      "inputs": [],
      "name": "isClosedMarket",
      "outputs": [
        {
          "internalType": "bool",
          "name": "",
          "type": "bool"
        }
      ],
      "stateMutability": "view",
      "type": "function"
    }
  ],
  "bytecode": "0x600760808181526610da5d1859195b60ca1b60a0908152610100604052600360c0818152621610d560ea1b60e05292936200003b929062000130565b5080516200005190600490602084019062000130565b50506005805460ff19166012179055506000620000766001600160e01b036200011516565b60058054610100600160a81b0319166101006001600160a01b03841690810291909117909155604051919250906000907f8be0079c531659141344cd1fd0a4f28419497f9722a3daafe3b4186f6b6457e0908290a3506005805460ff60a81b19169055600780546001600160a01b031916301790554260085566038d7ea4c680006009556200010f60066001600160e01b036200011a16565b620001d2565b335b90565b6005805460ff191660ff92909216919091179055565b828054600181600116156101000203166002900490600052602060002090601f016020900481019282601f106200017357805160ff1916838001178555620001a3565b82800160010185558215620001a3579182015b82811115620001a357825182559160200191906001019062000186565b50620001b1929150620001b5565b5090565b6200011791905b80821115620001b15760008155600101620001bc565b61325880620001e26000396000f3fe6080604052600436106102345760003560e01c80638d08c8a51161012e578063c511ed5e116100ab578063e2ad91441161006f578063e2ad914414610c3b578063e9bb84c214610c65578063f0e169a814610c9e578063f2fde38b14610cb3578063f905c15a14610ce6576105f3565b8063c511ed5e14610b65578063d015ed6a14610b7a578063d263941e14610bb3578063dcb1701514610beb578063dd62ed3e14610c00576105f3565b8063a457c2d7116100f2578063a457c2d714610a81578063a9059cbb14610aba578063aa20a3a814610af3578063ba1a681f14610b26578063bb40f3c614610b3b576105f3565b80638d08c8a514610a035780638da5cb5b14610a185780639038a3ce14610a2d57806395d89b4114610a425780639f7fd8f214610a57576105f3565b80635c975abb116101bc57806370a082311161018057806370a08231146108ca578063715018a6146108fd57806374e7493b14610912578063791b8a781461093c5780637c465e09146109c0576105f3565b80635c975abb14610828578063605418cd1461083d578063679aefce1461086757806369668fe91461087c5780636fe640ea14610891576105f3565b80631d4ab120116102035780631d4ab1201461070b57806323b872dd14610750578063313ce5671461079357806339509351146107be57806353d168e7146107f7576105f3565b806306fdde03146105f8578063095ea7b31461068257806317abbc2f146106cf57806318160ddd146106f6576105f3565b366105f35760135460ff161561027f576040805162461bcd60e51b815260206004820152601e6024820152600080516020613144833981519152604482015290519081900360640190fd5b6000601054116102c05760405162461bcd60e51b81526004018080602001828103825260248152602001806131b06024913960400191505060405180910390fd5b601154336000908152601260205260409020541061030f5760405162461bcd60e51b8152600401808060200182810382526024815260200180612ffc6024913960400191505060405180910390fd5b600d543390600090349082906001600160a01b031615610413576000610333610cfb565b50505091505060006103646305f5e100610358600e5485610da990919063ffffffff16565b9063ffffffff610e0b16565b9050610376848263ffffffff610e0b16565b6011546001600160a01b038816600090815260126020526040902054919650906103a6908763ffffffff610e4d16565b11156103da576001600160a01b0386166000908152601260205260409020546011546103d79163ffffffff610ea716565b94505b6010548511156103ea5760105494505b61040a6103fd868363ffffffff610da916565b859063ffffffff610ea716565b92505050610506565b600b54156104cf57600b5461042f90839063ffffffff610e0b16565b6011546001600160a01b0386166000908152601260205260409020549194509061045f908563ffffffff610e4d16565b1115610493576001600160a01b0384166000908152601260205260409020546011546104909163ffffffff610ea716565b92505b6010548311156104a35760105492505b6104c86104bb600b5485610da990919063ffffffff16565b839063ffffffff610ea716565b9050610506565b60405162461bcd60e51b815260040180806020018281038252602b815260200180612fab602b913960400191505060405180910390fd5b6000831161055b576040805162461bcd60e51b815260206004820152601f60248201527f4369746164656c45786368616e67653a20746f6f206c6f7720616d6f756e7400604482015290519081900360640190fd5b801561059057604051339082156108fc029083906000818181858888f1935050505015801561058e573d6000803e3d6000fd5b505b6007546105a7906001600160a01b03168585610ee9565b336000908152601260205260409020546105c7908463ffffffff610e4d16565b336000908152601260205260409020556010546105ea908463ffffffff610ea716565b60105550505050005b600080fd5b34801561060457600080fd5b5061060d611050565b6040805160208082528351818301528351919283929083019185019080838360005b8381101561064757818101518382015260200161062f565b50505050905090810190601f1680156106745780820380516001836020036101000a031916815260200191505b509250505060405180910390f35b34801561068e57600080fd5b506106bb600480360360408110156106a557600080fd5b506001600160a01b0381351690602001356110e7565b604080519115158252519081900360200190f35b3480156106db57600080fd5b506106e4611104565b60408051918252519081900360200190f35b34801561070257600080fd5b506106e4611154565b34801561071757600080fd5b5061074e6004803603604081101561072e57600080fd5b5080356001600160e01b03191690602001356001600160a01b031661115a565b005b34801561075c57600080fd5b506106bb6004803603606081101561077357600080fd5b506001600160a01b0381358116916020810135909116906040013561136c565b34801561079f57600080fd5b506107a86113f9565b6040805160ff9092168252519081900360200190f35b3480156107ca57600080fd5b506106bb600480360360408110156107e157600080fd5b506001600160a01b038135169060200135611402565b34801561080357600080fd5b5061080c611456565b604080516001600160a01b039092168252519081900360200190f35b34801561083457600080fd5b506106bb611465565b34801561084957600080fd5b506106e46004803603602081101561086057600080fd5b5035611475565b34801561087357600080fd5b506106e461151b565b34801561088857600080fd5b506106e461156b565b34801561089d57600080fd5b5061074e600480360360408110156108b457600080fd5b506001600160a01b038135169060200135611571565b3480156108d657600080fd5b506106e4600480360360208110156108ed57600080fd5b50356001600160a01b03166116be565b34801561090957600080fd5b5061074e6116f1565b34801561091e57600080fd5b5061074e6004803603602081101561093557600080fd5b503561179e565b34801561094857600080fd5b506109706004803603602081101561095f57600080fd5b50356001600160e01b031916611885565b60408051602080825283518183015283519192839290830191858101910280838360005b838110156109ac578181015183820152602001610994565b505050509050019250505060405180910390f35b3480156109cc57600080fd5b5061074e600480360360408110156109e357600080fd5b5080356001600160e01b03191690602001356001600160a01b0316611969565b348015610a0f57600080fd5b5061074e611a48565b348015610a2457600080fd5b5061080c611afd565b348015610a3957600080fd5b5061080c611b11565b348015610a4e57600080fd5b5061060d611b20565b348015610a6357600080fd5b5061074e60048036036020811015610a7a57600080fd5b5035611b81565b348015610a8d57600080fd5b506106bb60048036036040811015610aa457600080fd5b506001600160a01b038135169060200135611dc3565b348015610ac657600080fd5b506106bb60048036036040811015610add57600080fd5b506001600160a01b038135169060200135611e31565b348015610aff57600080fd5b5061074e60048036036020811015610b1657600080fd5b50356001600160a01b0316611e45565b348015610b3257600080fd5b506106e4611f57565b348015610b4757600080fd5b506106e460048036036020811015610b5e57600080fd5b5035611f5d565b348015610b7157600080fd5b5061074e61204c565b348015610b8657600080fd5b5061074e60048036036040811015610b9d57600080fd5b506001600160a01b03813516906020013561211f565b348015610bbf57600080fd5b50610bc861223c565b604080516001600160a01b03909316835260208301919091528051918290030190f35b348015610bf757600080fd5b506106e461229d565b348015610c0c57600080fd5b506106e460048036036040811015610c2357600080fd5b506001600160a01b03813581169160200135166122a3565b348015610c4757600080fd5b5061074e60048036036020811015610c5e57600080fd5b50356122ce565b348015610c7157600080fd5b5061074e60048036036040811015610c8857600080fd5b506001600160a01b038135169060200135612376565b348015610caa57600080fd5b506106bb612437565b348015610cbf57600080fd5b5061074e60048036036020811015610cd657600080fd5b50356001600160a01b0316612440565b348015610cf257600080fd5b506106e4612549565b60008060008060008060009050600c60009054906101000a90046001600160a01b03166001600160a01b031663feaf968c6040518163ffffffff1660e01b815260040160a06040518083038186803b158015610d5657600080fd5b505afa158015610d6a573d6000803e3d6000fd5b505050506040513d60a0811015610d8057600080fd5b508051602082015160408301516060840151608090940151929a91995097509195509350915050565b600082610db857506000610e05565b82820282848281610dc557fe5b0414610e025760405162461bcd60e51b81526004018080602001828103825260218152602001806130726021913960400191505060405180910390fd5b90505b92915050565b6000610e0283836040518060400160405280601a81526020017f536166654d6174683a206469766973696f6e206279207a65726f00000000000081525061254f565b600082820183811015610e02576040805162461bcd60e51b815260206004820152601b60248201527f536166654d6174683a206164646974696f6e206f766572666c6f770000000000604482015290519081900360640190fd5b6000610e0283836040518060400160405280601e81526020017f536166654d6174683a207375627472616374696f6e206f766572666c6f7700008152506125f1565b6001600160a01b038316610f2e5760405162461bcd60e51b815260040180806020018281038252602581526020018061311f6025913960400191505060405180910390fd5b6001600160a01b038216610f735760405162461bcd60e51b8152600401808060200182810382526023815260200180612ef36023913960400191505060405180910390fd5b610f7e83838361264b565b610fc181604051806060016040528060268152602001612fd6602691396001600160a01b038616600090815260208190526040902054919063ffffffff6125f116565b6001600160a01b038085166000908152602081905260408082209390935590841681522054610ff6908263ffffffff610e4d16565b6001600160a01b038084166000818152602081815260409182902094909455805185815290519193928716927fddf252ad1be2c89b69c2b068fc378daa952ba7f163c4a11628f55a4df523b3ef92918290030190a3505050565b60038054604080516020601f60026000196101006001881615020190951694909404938401819004810282018101909252828152606093909290918301828280156110dc5780601f106110b1576101008083540402835291602001916110dc565b820191906000526020600020905b8154815290600101906020018083116110bf57829003601f168201915b505050505090505b90565b60006110fb6110f46126f0565b84846126f4565b50600192915050565b60135460009060ff161561114d576040805162461bcd60e51b815260206004820152601e6024820152600080516020613144833981519152604482015290519081900360640190fd5b5060115490565b60025490565b6001600160e01b031982166000908152600660209081526040808320338452600101909152902054829060ff166111c25760405162461bcd60e51b81526004018080602001828103825260288152602001806131886028913960400191505060405180910390fd5b6001600160e01b0319831660009081526006602052604090206002808201541161121d5760405162461bcd60e51b81526004018080602001828103825260238152602001806130fc6023913960400191505060405180910390fd5b611226846127e0565b6112305750611367565b6002810154815414156112465780546000190181555b6060600182600201805490500360405190808252806020026020018201604052801561127c578160200160208202803883390190505b5090506000805b600284015481101561132857856001600160a01b03168460020182815481106112a857fe5b6000918252602090912001546001600160a01b031614156112c857611320565b8360020181815481106112d757fe5b9060005260206000200160009054906101000a90046001600160a01b031683838151811061130157fe5b6001600160a01b03909216602092830291909101909101526001909101905b600101611283565b506001600160a01b03851660009081526001840160209081526040909120805460ff19169055825161136291600286019190850190612e2e565b505050505b505050565b6000611379848484610ee9565b6113ef846113856126f0565b6113ea85604051806060016040528060288152602001613093602891396001600160a01b038a166000908152600160205260408120906113c36126f0565b6001600160a01b03168152602081019190915260400160002054919063ffffffff6125f116565b6126f4565b5060019392505050565b60055460ff1690565b60006110fb61140f6126f0565b846113ea85600160006114206126f0565b6001600160a01b03908116825260208083019390935260409182016000908120918c16815292529020549063ffffffff610e4d16565b6007546001600160a01b031681565b600554600160a81b900460ff1690565b60135460009060ff16156114be576040805162461bcd60e51b815260206004820152601e6024820152600080516020613144833981519152604482015290519081900360640190fd5b6000600e54116114ff5760405162461bcd60e51b81526004018080602001828103825260268152602001806130206026913960400191505060405180910390fd5b600e5461151390839063ffffffff610e0b16565b90505b919050565b60135460009060ff1615611564576040805162461bcd60e51b815260206004820152601e6024820152600080516020613144833981519152604482015290519081900360640190fd5b50600b5490565b60085481565b60135460ff16156115b7576040805162461bcd60e51b815260206004820152601e6024820152600080516020613144833981519152604482015290519081900360640190fd5b6115bf6126f0565b60055461010090046001600160a01b03908116911614611614576040805162461bcd60e51b815260206004820181905260248201526000805160206130bb833981519152604482015290519081900360640190fd5b600d546001600160a01b03161561167257611637826001600160a01b0316612a89565b6116725760405162461bcd60e51b815260040180806020018281038252602b815260200180612f16602b913960400191505060405180910390fd5b600d80546001600160a01b0319166001600160a01b038481169190911791829055600e83905516156116ba57600c80546001600160a01b0319166001600160a01b0384161790555b5050565b60006115136116cc83612a8f565b6001600160a01b0384166000908152602081905260409020549063ffffffff610e4d16565b6116f96126f0565b60055461010090046001600160a01b0390811691161461174e576040805162461bcd60e51b815260206004820181905260248201526000805160206130bb833981519152604482015290519081900360640190fd5b60055460405160009161010090046001600160a01b0316907f8be0079c531659141344cd1fd0a4f28419497f9722a3daafe3b4186f6b6457e0908390a360058054610100600160a81b0319169055565b60135460ff16156117e4576040805162461bcd60e51b815260206004820152601e6024820152600080516020613144833981519152604482015290519081900360640190fd5b6117ec6126f0565b60055461010090046001600160a01b03908116911614611841576040805162461bcd60e51b815260206004820181905260248201526000805160206130bb833981519152604482015290519081900360640190fd5b600081116118805760405162461bcd60e51b815260040180806020018281038252602b815260200180612fab602b913960400191505060405180910390fd5b600b55565b6001600160e01b031981166000908152600660209081526040808320338452600101909152902054606090829060ff166118f05760405162461bcd60e51b81526004018080602001828103825260288152602001806131886028913960400191505060405180910390fd5b6001600160e01b031983166000908152600660209081526040918290206002018054835181840281018401909452808452909183018282801561195c57602002820191906000526020600020905b81546001600160a01b0316815260019091019060200180831161193e575b5050505050915050919050565b6001600160e01b031982166000908152600660209081526040808320338452600101909152902054829060ff166119d15760405162461bcd60e51b81526004018080602001828103825260288152602001806131886028913960400191505060405180910390fd5b6119da83612a95565b6119e357611367565b506001600160e01b03199190911660009081526006602090815260408083206001600160a01b0390941680845260018086018452918420805460ff191683179055600290940180549182018155835291200180546001600160a01b0319169091179055565b60135460ff1615611a8e576040805162461bcd60e51b815260206004820152601e6024820152600080516020613144833981519152604482015290519081900360640190fd5b611a966126f0565b60055461010090046001600160a01b03908116911614611aeb576040805162461bcd60e51b815260206004820181905260248201526000805160206130bb833981519152604482015290519081900360640190fd5b600d80546001600160a01b0319169055565b60055461010090046001600160a01b031690565b600f546001600160a01b031690565b60048054604080516020601f60026000196101006001881615020190951694909404938401819004810282018101909252828152606093909290918301828280156110dc5780601f106110b1576101008083540402835291602001916110dc565b60135460ff1615611bc7576040805162461bcd60e51b815260206004820152601e6024820152600080516020613144833981519152604482015290519081900360640190fd5b6000600e5411611c085760405162461bcd60e51b81526004018080602001828103825260268152602001806130206026913960400191505060405180910390fd5b600f5460075460408051636eb1769f60e11b815233600482018190526001600160a01b039384166024830152915191938593169163dd62ed3e91604480820192602092909190829003018186803b158015611c6257600080fd5b505afa158015611c76573d6000803e3d6000fd5b505050506040513d6020811015611c8c57600080fd5b50511015611ccb5760405162461bcd60e51b815260040180806020018281038252602c815260200180613046602c913960400191505060405180910390fd5b6000611ce2600e5484610e0b90919063ffffffff16565b90506000611cfe6103fd600e5484610da990919063ffffffff16565b90508015611d1957611d16848263ffffffff610ea716565b93505b600f54600754604080516323b872dd60e01b81526001600160a01b038781166004830152928316602482015260448101889052905191909216916323b872dd9160648083019260209291908290030181600087803b158015611d7a57600080fd5b505af1158015611d8e573d6000803e3d6000fd5b505050506040513d6020811015611da457600080fd5b5050600754611dbd906001600160a01b03168484610ee9565b50505050565b60006110fb611dd06126f0565b846113ea856040518060600160405280602581526020016131d46025913960016000611dfa6126f0565b6001600160a01b03908116825260208083019390935260409182016000908120918d1681529252902054919063ffffffff6125f116565b60006110fb611e3e6126f0565b8484610ee9565b60135460ff1615611e8b576040805162461bcd60e51b815260206004820152601e6024820152600080516020613144833981519152604482015290519081900360640190fd5b611e936126f0565b60055461010090046001600160a01b03908116911614611ee8576040805162461bcd60e51b815260206004820181905260248201526000805160206130bb833981519152604482015290519081900360640190fd5b611efa816001600160a01b0316612a89565b611f355760405162461bcd60e51b815260040180806020018281038252602b815260200180612f16602b913960400191505060405180910390fd5b600f80546001600160a01b0319166001600160a01b0392909216919091179055565b60095481565b60135460009060ff1615611fa6576040805162461bcd60e51b815260206004820152601e6024820152600080516020613144833981519152604482015290519081900360640190fd5b600d546001600160a01b031615612015576000611fc1610cfb565b5050509150506000611fe66305f5e100610358600e5485610da990919063ffffffff16565b90506000611ffa858363ffffffff610e0b16565b905060105481111561200b57506010545b9250611516915050565b600b54156104cf576000612034600b5484610e0b90919063ffffffff16565b905060105481111561204557506010545b9050611516565b60135460ff1615612092576040805162461bcd60e51b815260206004820152601e6024820152600080516020613144833981519152604482015290519081900360640190fd5b61209a6126f0565b60055461010090046001600160a01b039081169116146120ef576040805162461bcd60e51b815260206004820181905260248201526000805160206130bb833981519152604482015290519081900360640190fd5b6010541561211057600754601054612110916001600160a01b031690612d26565b6013805460ff19166001179055565b3360009081527fabbac90b0ac1d0b62c8cc740fe447a12292688b6fd9930dbc5ac385793ac7b38602052604090205461232360f11b9060ff166121935760405162461bcd60e51b81526004018080602001828103825260288152602001806131886028913960400191505060405180910390fd5b6121a161232360f11b612a95565b6121aa57611367565b600f54600754604080516323b872dd60e01b81526001600160a01b039283166004820152868316602482015260448101869052905191909216916323b872dd9160648083019260209291908290030181600087803b15801561220b57600080fd5b505af115801561221f573d6000803e3d6000fd5b505050506040513d602081101561223557600080fd5b5050505050565b601354600090819060ff1615612287576040805162461bcd60e51b815260206004820152601e6024820152600080516020613144833981519152604482015290519081900360640190fd5b5050600d54600e546001600160a01b0390911691565b60105481565b6001600160a01b03918216600090815260016020908152604080832093909416825291909152205490565b60135460ff1615612314576040805162461bcd60e51b815260206004820152601e6024820152600080516020613144833981519152604482015290519081900360640190fd5b61231c6126f0565b60055461010090046001600160a01b03908116911614612371576040805162461bcd60e51b815260206004820181905260248201526000805160206130bb833981519152604482015290519081900360640190fd5b601155565b3360009081527fabbac90b0ac1d0b62c8cc740fe447a12292688b6fd9930dbc5ac385793ac7b38602052604090205461232360f11b9060ff166123ea5760405162461bcd60e51b81526004018080602001828103825260288152602001806131886028913960400191505060405180910390fd5b6123f861232360f11b612a95565b61240157611367565b6040516001600160a01b0384169083156108fc029084906000818181858888f19350505050158015611dbd573d6000803e3d6000fd5b60135460ff1690565b6124486126f0565b60055461010090046001600160a01b0390811691161461249d576040805162461bcd60e51b815260206004820181905260248201526000805160206130bb833981519152604482015290519081900360640190fd5b6001600160a01b0381166124e25760405162461bcd60e51b8152600401808060200182810382526026815260200180612f636026913960400191505060405180910390fd5b6005546040516001600160a01b0380841692610100900416907f8be0079c531659141344cd1fd0a4f28419497f9722a3daafe3b4186f6b6457e090600090a3600580546001600160a01b0390921661010002610100600160a81b0319909216919091179055565b60085490565b600081836125db5760405162461bcd60e51b81526004018080602001828103825283818151815260200191508051906020019080838360005b838110156125a0578181015183820152602001612588565b50505050905090810190601f1680156125cd5780820380516001836020036101000a031916815260200191505b509250505060405180910390fd5b5060008385816125e757fe5b0495945050505050565b600081848411156126435760405162461bcd60e51b81526020600482018181528351602484015283519092839260449091019190850190808383600083156125a0578181015183820152602001612588565b505050900390565b612656838383611367565b6103e833116126ac576040805162461bcd60e51b815260206004820152601960248201527f4369746164656c546f6b656e3a2066616b652073656e64657200000000000000604482015290519081900360640190fd5b6126b4611465565b156113675760405162461bcd60e51b815260040180806020018281038252602a8152602001806131f9602a913960400191505060405180910390fd5b3390565b6001600160a01b0383166127395760405162461bcd60e51b81526004018080602001828103825260248152602001806131646024913960400191505060405180910390fd5b6001600160a01b03821661277e5760405162461bcd60e51b8152600401808060200182810382526022815260200180612f896022913960400191505060405180910390fd5b6001600160a01b03808416600081815260016020908152604080832094871680845294825291829020859055815185815291517f8c5be1e5ebec7d5bd14f71427d1e84f3dd0314c0f7b2291e5b200ac8c7c3b9259281900390910190a3505050565b6001600160e01b0319811660009081526006602052604081208054600282015481141561280c57600019015b600080356001600160e01b03191690506000803660405180838380828437604080519190930181900390206001600160e01b03198816600090815260038b016020529290922060010154919550501592506129c9915050576001600160e01b0319821660009081526003850160205260409020548114156129525760005b6001600160e01b03198316600090815260038601602052604090206002015481101561290e576001600160e01b03198316600090815260038601602052604090206002018054339190839081106128dd57fe5b6000918252602090912001546001600160a01b0316141561290657600095505050505050611516565b60010161288a565b506001600160e01b03198216600090815260038501602090815260408220600201805460018101825590835291200180546001600160a01b031916331790556129c4565b6001600160e01b031982166000908152600385016020526040812082815542600182015561298591600290910190612e93565b6001600160e01b03198216600090815260038501602090815260408220600201805460018101825590835291200180546001600160a01b031916331790555b612a15565b6001600160e01b0319821660009081526003850160209081526040822083815542600180830191909155600290910180549182018155835291200180546001600160a01b031916331790555b6001600160e01b0319821660009081526003850160205260409020600201548311612a7c576001600160e01b03198216600090815260038501602052604081208181556001810182905590612a6d6002830182612e93565b50506001945050505050611516565b6000945050505050611516565b3b151590565b50600090565b6001600160e01b031980821660009081526006602052604080822090519192909183359091169083908190369080838380828437604080519190930181900390206001600160e01b03198816600090815260038a01602052929092206001015491955050159250612c67915050576001600160e01b031982166000908152600384016020526040902054811415612bf05760005b6001600160e01b031983166000908152600385016020526040902060020154811015612bac576001600160e01b0319831660009081526003850160205260409020600201805433919083908110612b7c57fe5b6000918252602090912001546001600160a01b03161415612ba4576000945050505050611516565b600101612b29565b506001600160e01b03198216600090815260038401602090815260408220600201805460018101825590835291200180546001600160a01b03191633179055612c62565b6001600160e01b0319821660009081526003840160205260408120828155426001820155612c2391600290910190612e93565b6001600160e01b03198216600090815260038401602090815260408220600201805460018101825590835291200180546001600160a01b031916331790555b612cb3565b6001600160e01b0319821660009081526003840160209081526040822083815542600180830191909155600290910180549182018155835291200180546001600160a01b031916331790555b82546001600160e01b03198316600090815260038501602052604090206002015410612d1a576001600160e01b03198216600090815260038401602052604081208181556001810182905590612d0c6002830182612e93565b505060019350505050611516565b60009350505050611516565b6001600160a01b038216612d6b5760405162461bcd60e51b81526004018080602001828103825260218152602001806130db6021913960400191505060405180910390fd5b612d778260008361264b565b612dba81604051806060016040528060228152602001612f41602291396001600160a01b038516600090815260208190526040902054919063ffffffff6125f116565b6001600160a01b038316600090815260208190526040902055600254612de6908263ffffffff610ea716565b6002556040805182815290516000916001600160a01b038516917fddf252ad1be2c89b69c2b068fc378daa952ba7f163c4a11628f55a4df523b3ef9181900360200190a35050565b828054828255906000526020600020908101928215612e83579160200282015b82811115612e8357825182546001600160a01b0319166001600160a01b03909116178255602090920191600190910190612e4e565b50612e8f929150612eb4565b5090565b5080546000825590600052602060002090810190612eb19190612ed8565b50565b6110e491905b80821115612e8f5780546001600160a01b0319168155600101612eba565b6110e491905b80821115612e8f5760008155600101612ede56fe45524332303a207472616e7366657220746f20746865207a65726f20616464726573734369746164656c45786368616e67653a20616464726573732073686f756c6420626520636f6e747261637445524332303a206275726e20616d6f756e7420657863656564732062616c616e63654f776e61626c653a206e6577206f776e657220697320746865207a65726f206164647265737345524332303a20617070726f766520746f20746865207a65726f20616464726573734369746164656c45786368616e67653a20627579696e6720726174652063616e6e6f74206265207a65726f45524332303a207472616e7366657220616d6f756e7420657863656564732062616c616e63654369746164656c45786368616e67653a2062757965722072656163686564206c696d69744369746164656c45786368616e67653a20756e646566696e6564206d61726b657420726174654369746164656c45786368616e67653a20616c6c6f77207573207472616e7366657220796f75722075736474536166654d6174683a206d756c7469706c69636174696f6e206f766572666c6f7745524332303a207472616e7366657220616d6f756e74206578636565647320616c6c6f77616e63654f776e61626c653a2063616c6c6572206973206e6f7420746865206f776e657245524332303a206275726e2066726f6d20746865207a65726f20616464726573734d756c74697369673a20616c7265616479206d696e696d756d2061646472657373657345524332303a207472616e736665722066726f6d20746865207a65726f20616464726573734369746164656c45786368616e67653a206d61726b657420636c6f736564000045524332303a20617070726f76652066726f6d20746865207a65726f20616464726573734d756c74697369673a20596f752063616e6e6f7420657865637574652074686973206d6574686f644369746164656c45786368616e67653a20746f6b656e7320616c726561647920736f6c6445524332303a2064656372656173656420616c6c6f77616e63652062656c6f77207a65726f45524332305061757361626c653a20746f6b656e207472616e73666572207768696c6520706175736564a264697066735822122056954df6628fe8107939233f3be15429534ce9704683a1183ac9fbbb6aa5796764736f6c63430006020033",
  "source": "// SPDX-License-Identifier: GPL-3.0\npragma solidity 0.6.2;\n\nimport \"../../node_modules/openzeppelin-solidity/contracts/token/ERC20/IERC20.sol\";\nimport \"../../node_modules/@chainlink/contracts/src/v0.6/interfaces/AggregatorV3Interface.sol\";\nimport \"./CitadelToken.sol\";\n\n\ncontract CitadelExchange is CitadelToken {\n\n    bool private _isInitialized;\n    uint256 private _rate;\n    AggregatorV3Interface private _oraclePriceFeed;\n    address private _marketContract;\n    uint256 private _marketRate;\n    IERC20 private _USDTContract;\n    uint256 public _publicSaleLimit;\n    uint256 private _buyerLimit;\n    mapping (address => uint256) private _buyers;\n    bool private _marketClosed;\n\n    modifier openMarketOnly() {\n        require(_marketClosed == false, \"CitadelExchange: market closed\");\n        _;\n    }\n\n    function _initCitadelExchange (\n        uint256 rate_,\n        uint256 buyerLimit_\n    ) internal {\n        require(!_isInitialized);\n        _marketClosed = false;\n        _rate = rate_;\n        _buyerLimit = buyerLimit_;\n        _isInitialized = true;\n    }\n\n    receive () external payable openMarketOnly {\n\n        require(_publicSaleLimit > 0, \"CitadelExchange: tokens already sold\");\n        require(_buyers[msg.sender] < _buyerLimit, \"CitadelExchange: buyer reached limit\");\n\n        address payable sender = msg.sender;\n        uint256 finalAmount = 0;\n        uint256 payment = msg.value;\n        uint256 restSum = 0;\n\n        if (_marketContract != address(0)) {\n            // get currency\n            ( , uint256 price , , , ) = _getLatestOraclePrice();\n            // _marketRate * 1e8\n            uint256 rate_ = price.mul(_marketRate).div(1e8);\n            finalAmount = payment.div(rate_);\n            // check buyer limit\n            if (_buyers[sender].add(finalAmount) > _buyerLimit) finalAmount = _buyerLimit.sub(_buyers[sender]);\n            // check sale limit\n            if (finalAmount > _publicSaleLimit) finalAmount = _publicSaleLimit;\n            // calculate rest sum\n            restSum = payment.sub(finalAmount.mul(rate_));\n        } else if (_rate > 0) {\n            finalAmount = payment.div(_rate);\n            // check buyer limit\n            if (_buyers[sender].add(finalAmount) > _buyerLimit) finalAmount = _buyerLimit.sub(_buyers[sender]);\n            // check sale limit\n            if (finalAmount > _publicSaleLimit) finalAmount = _publicSaleLimit;\n            // calculate rest sum\n            restSum = payment.sub(finalAmount.mul(_rate));\n        } else {\n            revert(\"CitadelExchange: buying rate cannot be zero\");\n        }\n\n        require(finalAmount > 0, \"CitadelExchange: too low amount\");\n\n        if (restSum > 0) msg.sender.transfer(restSum);\n\n        _transfer(_bankAddress, sender, finalAmount);\n        _buyers[msg.sender] = _buyers[msg.sender].add(finalAmount);\n        _publicSaleLimit = _publicSaleLimit.sub(finalAmount);\n    }\n\n    function transferEth(address payable account, uint256 amount) external multisig(bytes4(\"FF\")) {\n        if (!_isMultisigReady(bytes4(\"FF\"))) return;\n        account.transfer(amount);\n    }\n\n    function buyViaUSDT (uint256 amount) external openMarketOnly {\n        require(_marketRate > 0, \"CitadelExchange: undefined market rate\");\n        address sender = msg.sender;\n        require(\n            _USDTContract.allowance(sender, _bankAddress) >= amount,\n            \"CitadelExchange: allow us transfer your usdt\"\n        );\n        uint256 finalAmount = amount.div(_marketRate);\n        uint256 restSum = amount.sub(finalAmount.mul(_marketRate));\n        if (restSum > 0) amount = amount.sub(restSum);\n        _USDTContract.transferFrom(sender, _bankAddress, amount);\n        _transfer(_bankAddress, sender, finalAmount);\n    }\n\n    function transferUSDT(address account, uint256 amount) external multisig(bytes4(\"FF\")) {\n        if (!_isMultisigReady(bytes4(\"FF\"))) return;\n        _USDTContract.transferFrom(_bankAddress, account, amount);\n    }\n\n    function calculateTokensEther (uint256 amount) external view openMarketOnly returns (uint256) {\n        if (_marketContract != address(0)) {\n            ( , uint256 price , , , ) = _getLatestOraclePrice();\n            uint256 rate_ = price.mul(_marketRate).div(1e8);\n            uint256 finalAmount = amount.div(rate_);\n            if (finalAmount > _publicSaleLimit) finalAmount = _publicSaleLimit;\n            return finalAmount;\n        } else if (_rate > 0) {\n            uint256 finalAmount = amount.div(_rate);\n            if (finalAmount > _publicSaleLimit) finalAmount = _publicSaleLimit;\n            return finalAmount;\n        }\n        revert(\"CitadelExchange: buying rate cannot be zero\");\n    }\n\n    function calculateTokensUSD (uint256 amount) external view openMarketOnly returns (uint256) {\n        require(_marketRate > 0, \"CitadelExchange: undefined market rate\");\n        return amount.div(_marketRate);\n    }\n\n    function changeRate (uint256 rate_) external openMarketOnly onlyOwner {\n        require(rate_ > 0, \"CitadelExchange: buying rate cannot be zero\");\n        _rate = rate_;\n    }\n\n    function getRate () external view openMarketOnly returns (uint256) {\n        return _rate;\n    }\n\n    function changeMarketContract (address marketContract_, uint256 marketRate_) external openMarketOnly onlyOwner {\n        if (_marketContract != address(0)) {\n            require(marketContract_.isContract(), \"CitadelExchange: address should be contract\");\n        }\n        _marketContract = marketContract_;\n        _marketRate = marketRate_;\n        if (_marketContract != address(0)) _oraclePriceFeed = AggregatorV3Interface(marketContract_);\n    }\n\n    function removeMarketContract () external openMarketOnly onlyOwner {\n        _marketContract = address(0);\n    }\n\n    function getMarketContract () external view openMarketOnly returns (address marketContract, uint256 marketRate) {\n        marketContract = _marketContract;\n        marketRate = _marketRate;\n    }\n\n    function changeUSDTContract (address usdtContract_) external openMarketOnly onlyOwner {\n        require(usdtContract_.isContract(), \"CitadelExchange: address should be contract\");\n        _USDTContract = IERC20(usdtContract_);\n    }\n\n    function getUSDTContract () external view returns (address) {\n        return address(_USDTContract);\n    }\n\n    function changeBuyerLimit (uint256 buyerLimit_) external openMarketOnly onlyOwner {\n        _buyerLimit = buyerLimit_;\n    }\n\n    function getBuyerLimit () external view openMarketOnly returns (uint256) {\n        return _buyerLimit;\n    }\n\n    function closeMarket () external openMarketOnly onlyOwner {\n        if (_publicSaleLimit > 0) _burn(_bankAddress, _publicSaleLimit);\n        _marketClosed = true;\n    }\n\n    function isClosedMarket () external view returns (bool) {\n        return _marketClosed;\n    }\n\n    function _getLatestOraclePrice() internal view returns (\n        uint80 roundID,\n        uint256 price,\n        uint startedAt,\n        uint timeStamp,\n        uint80 answeredInRound\n    ) {\n        int256 price_ = 0;\n        (\n            roundID,\n            price_,\n            startedAt,\n            timeStamp,\n            answeredInRound\n        ) = _oraclePriceFeed.latestRoundData();\n        price = uint256(price_);\n    }\n\n}\n",
  "sourcePath": "/home/pirat/Desktop/DAO/contracts/Token/CitadelExchange.sol",
  "compiler": {
    "name": "solc",
    "version": "0.6.2+commit.bacdbe57.Emscripten.clang"
  },
  "schemaVersion": "3.2.5",
  "updatedAt": "2020-12-28T08:47:24.999Z",
  "devdoc": {
    "methods": {
      "allowance(address,address)": {
        "details": "See {IERC20-allowance}."
      },
      "approve(address,uint256)": {
        "details": "See {IERC20-approve}.     * Requirements:     * - `spender` cannot be the zero address."
      },
      "balanceOf(address)": {
        "details": "See {IERC20-balanceOf}."
      },
      "decimals()": {
        "details": "Returns the number of decimals used to get its user representation. For example, if `decimals` equals `2`, a balance of `505` tokens should be displayed to a user as `5,05` (`505 / 10 ** 2`).     * Tokens usually opt for a value of 18, imitating the relationship between Ether and Wei. This is the value {ERC20} uses, unless {_setupDecimals} is called.     * NOTE: This information is only used for _display_ purposes: it in no way affects any of the arithmetic of the contract, including {IERC20-balanceOf} and {IERC20-transfer}."
      },
      "decreaseAllowance(address,uint256)": {
        "details": "Atomically decreases the allowance granted to `spender` by the caller.     * This is an alternative to {approve} that can be used as a mitigation for problems described in {IERC20-approve}.     * Emits an {Approval} event indicating the updated allowance.     * Requirements:     * - `spender` cannot be the zero address. - `spender` must have allowance for the caller of at least `subtractedValue`."
      },
      "increaseAllowance(address,uint256)": {
        "details": "Atomically increases the allowance granted to `spender` by the caller.     * This is an alternative to {approve} that can be used as a mitigation for problems described in {IERC20-approve}.     * Emits an {Approval} event indicating the updated allowance.     * Requirements:     * - `spender` cannot be the zero address."
      },
      "name()": {
        "details": "Returns the name of the token."
      },
      "owner()": {
        "details": "Returns the address of the current owner."
      },
      "paused()": {
        "details": "Returns true if the contract is paused, and false otherwise."
      },
      "renounceOwnership()": {
        "details": "Leaves the contract without owner. It will not be possible to call `onlyOwner` functions anymore. Can only be called by the current owner.     * NOTE: Renouncing ownership will leave the contract without an owner, thereby removing any functionality that is only available to the owner."
      },
      "symbol()": {
        "details": "Returns the symbol of the token, usually a shorter version of the name."
      },
      "totalSupply()": {
        "details": "See {IERC20-totalSupply}."
      },
      "transfer(address,uint256)": {
        "details": "See {IERC20-transfer}.     * Requirements:     * - `recipient` cannot be the zero address. - the caller must have a balance of at least `amount`."
      },
      "transferFrom(address,address,uint256)": {
        "details": "See {IERC20-transferFrom}.     * Emits an {Approval} event indicating the updated allowance. This is not required by the EIP. See the note at the beginning of {ERC20};     * Requirements: - `sender` and `recipient` cannot be the zero address. - `sender` must have a balance of at least `amount`. - the caller must have allowance for ``sender``'s tokens of at least `amount`."
      },
      "transferOwnership(address)": {
        "details": "Transfers ownership of the contract to a new account (`newOwner`). Can only be called by the current owner."
      }
    }
  },
  "userdoc": {
    "methods": {}
  }
}