{
  "contractName": "CitadelInvestors",
  "abi": [
    {
      "anonymous": false,
      "inputs": [
        {
          "indexed": true,
          "internalType": "address",
          "name": "owner",
          "type": "address"
        },
        {
          "indexed": true,
          "internalType": "address",
          "name": "spender",
          "type": "address"
        },
        {
          "indexed": false,
          "internalType": "uint256",
          "name": "value",
          "type": "uint256"
        }
      ],
      "name": "Approval",
      "type": "event"
    },
    {
      "anonymous": false,
      "inputs": [
        {
          "indexed": true,
          "internalType": "address",
          "name": "previousOwner",
          "type": "address"
        },
        {
          "indexed": true,
          "internalType": "address",
          "name": "newOwner",
          "type": "address"
        }
      ],
      "name": "OwnershipTransferred",
      "type": "event"
    },
    {
      "anonymous": false,
      "inputs": [
        {
          "indexed": false,
          "internalType": "address",
          "name": "account",
          "type": "address"
        }
      ],
      "name": "Paused",
      "type": "event"
    },
    {
      "anonymous": false,
      "inputs": [
        {
          "indexed": true,
          "internalType": "address",
          "name": "from",
          "type": "address"
        },
        {
          "indexed": true,
          "internalType": "address",
          "name": "to",
          "type": "address"
        },
        {
          "indexed": false,
          "internalType": "uint256",
          "name": "value",
          "type": "uint256"
        }
      ],
      "name": "Transfer",
      "type": "event"
    },
    {
      "anonymous": false,
      "inputs": [
        {
          "indexed": false,
          "internalType": "address",
          "name": "account",
          "type": "address"
        }
      ],
      "name": "Unpaused",
      "type": "event"
    },
    {
      "inputs": [],
      "name": "_bankAddress",
      "outputs": [
        {
          "internalType": "address",
          "name": "",
          "type": "address"
        }
      ],
      "stateMutability": "view",
      "type": "function"
    },
    {
      "inputs": [],
      "name": "_publicSaleLimit",
      "outputs": [
        {
          "internalType": "uint256",
          "name": "",
          "type": "uint256"
        }
      ],
      "stateMutability": "view",
      "type": "function"
    },
    {
      "inputs": [
        {
          "internalType": "address",
          "name": "owner",
          "type": "address"
        },
        {
          "internalType": "address",
          "name": "spender",
          "type": "address"
        }
      ],
      "name": "allowance",
      "outputs": [
        {
          "internalType": "uint256",
          "name": "",
          "type": "uint256"
        }
      ],
      "stateMutability": "view",
      "type": "function"
    },
    {
      "inputs": [
        {
          "internalType": "address",
          "name": "spender",
          "type": "address"
        },
        {
          "internalType": "uint256",
          "name": "amount",
          "type": "uint256"
        }
      ],
      "name": "approve",
      "outputs": [
        {
          "internalType": "bool",
          "name": "",
          "type": "bool"
        }
      ],
      "stateMutability": "nonpayable",
      "type": "function"
    },
    {
      "inputs": [
        {
          "internalType": "address",
          "name": "account",
          "type": "address"
        }
      ],
      "name": "balanceOf",
      "outputs": [
        {
          "internalType": "uint256",
          "name": "",
          "type": "uint256"
        }
      ],
      "stateMutability": "view",
      "type": "function"
    },
    {
      "inputs": [
        {
          "internalType": "uint256",
          "name": "amount",
          "type": "uint256"
        }
      ],
      "name": "buyViaUSDT",
      "outputs": [],
      "stateMutability": "nonpayable",
      "type": "function"
    },
    {
      "inputs": [
        {
          "internalType": "uint256",
          "name": "amount",
          "type": "uint256"
        }
      ],
      "name": "calculateTokensEther",
      "outputs": [
        {
          "internalType": "uint256",
          "name": "",
          "type": "uint256"
        }
      ],
      "stateMutability": "view",
      "type": "function"
    },
    {
      "inputs": [
        {
          "internalType": "uint256",
          "name": "amount",
          "type": "uint256"
        }
      ],
      "name": "calculateTokensUSD",
      "outputs": [
        {
          "internalType": "uint256",
          "name": "",
          "type": "uint256"
        }
      ],
      "stateMutability": "view",
      "type": "function"
    },
    {
      "inputs": [
        {
          "internalType": "uint256",
          "name": "buyerLimit_",
          "type": "uint256"
        }
      ],
      "name": "changeBuyerLimit",
      "outputs": [],
      "stateMutability": "nonpayable",
      "type": "function"
    },
    {
      "inputs": [
        {
          "internalType": "address",
          "name": "marketContract_",
          "type": "address"
        },
        {
          "internalType": "uint256",
          "name": "marketRate_",
          "type": "uint256"
        }
      ],
      "name": "changeMarketContract",
      "outputs": [],
      "stateMutability": "nonpayable",
      "type": "function"
    },
    {
      "inputs": [
        {
          "internalType": "uint256",
          "name": "rate_",
          "type": "uint256"
        }
      ],
      "name": "changeRate",
      "outputs": [],
      "stateMutability": "nonpayable",
      "type": "function"
    },
    {
      "inputs": [
        {
          "internalType": "address",
          "name": "usdtContract_",
          "type": "address"
        }
      ],
      "name": "changeUSDTContract",
      "outputs": [],
      "stateMutability": "nonpayable",
      "type": "function"
    },
    {
      "inputs": [],
      "name": "closeMarket",
      "outputs": [],
      "stateMutability": "nonpayable",
      "type": "function"
    },
    {
      "inputs": [],
      "name": "decimals",
      "outputs": [
        {
          "internalType": "uint8",
          "name": "",
          "type": "uint8"
        }
      ],
      "stateMutability": "view",
      "type": "function"
    },
    {
      "inputs": [
        {
          "internalType": "address",
          "name": "spender",
          "type": "address"
        },
        {
          "internalType": "uint256",
          "name": "subtractedValue",
          "type": "uint256"
        }
      ],
      "name": "decreaseAllowance",
      "outputs": [
        {
          "internalType": "bool",
          "name": "",
          "type": "bool"
        }
      ],
      "stateMutability": "nonpayable",
      "type": "function"
    },
    {
      "inputs": [],
      "name": "deployDate",
      "outputs": [
        {
          "internalType": "uint256",
          "name": "",
          "type": "uint256"
        }
      ],
      "stateMutability": "view",
      "type": "function"
    },
    {
      "inputs": [],
      "name": "deployed",
      "outputs": [
        {
          "internalType": "uint256",
          "name": "",
          "type": "uint256"
        }
      ],
      "stateMutability": "view",
      "type": "function"
    },
    {
      "inputs": [],
      "name": "getBuyerLimit",
      "outputs": [
        {
          "internalType": "uint256",
          "name": "",
          "type": "uint256"
        }
      ],
      "stateMutability": "view",
      "type": "function"
    },
    {
      "inputs": [],
      "name": "getMarketContract",
      "outputs": [
        {
          "internalType": "address",
          "name": "marketContract",
          "type": "address"
        },
        {
          "internalType": "uint256",
          "name": "marketRate",
          "type": "uint256"
        }
      ],
      "stateMutability": "view",
      "type": "function"
    },
    {
      "inputs": [],
      "name": "getRate",
      "outputs": [
        {
          "internalType": "uint256",
          "name": "",
          "type": "uint256"
        }
      ],
      "stateMutability": "view",
      "type": "function"
    },
    {
      "inputs": [],
      "name": "getUSDTContract",
      "outputs": [
        {
          "internalType": "address",
          "name": "",
          "type": "address"
        }
      ],
      "stateMutability": "view",
      "type": "function"
    },
    {
      "inputs": [
        {
          "internalType": "address",
          "name": "spender",
          "type": "address"
        },
        {
          "internalType": "uint256",
          "name": "addedValue",
          "type": "uint256"
        }
      ],
      "name": "increaseAllowance",
      "outputs": [
        {
          "internalType": "bool",
          "name": "",
          "type": "bool"
        }
      ],
      "stateMutability": "nonpayable",
      "type": "function"
    },
    {
      "inputs": [],
      "name": "isClosedMarket",
      "outputs": [
        {
          "internalType": "bool",
          "name": "",
          "type": "bool"
        }
      ],
      "stateMutability": "view",
      "type": "function"
    },
    {
      "inputs": [
        {
          "internalType": "bytes4",
          "name": "groupId",
          "type": "bytes4"
        }
      ],
      "name": "multisigWhitelist",
      "outputs": [
        {
          "internalType": "address[]",
          "name": "",
          "type": "address[]"
        }
      ],
      "stateMutability": "view",
      "type": "function"
    },
    {
      "inputs": [
        {
          "internalType": "bytes4",
          "name": "groupId",
          "type": "bytes4"
        },
        {
          "internalType": "address",
          "name": "account",
          "type": "address"
        }
      ],
      "name": "multisigWhitelistAdd",
      "outputs": [],
      "stateMutability": "nonpayable",
      "type": "function"
    },
    {
      "inputs": [
        {
          "internalType": "bytes4",
          "name": "groupId",
          "type": "bytes4"
        },
        {
          "internalType": "address",
          "name": "account",
          "type": "address"
        }
      ],
      "name": "multisigWhitelistRemove",
      "outputs": [],
      "stateMutability": "nonpayable",
      "type": "function"
    },
    {
      "inputs": [],
      "name": "name",
      "outputs": [
        {
          "internalType": "string",
          "name": "",
          "type": "string"
        }
      ],
      "stateMutability": "view",
      "type": "function"
    },
    {
      "inputs": [],
      "name": "owner",
      "outputs": [
        {
          "internalType": "address",
          "name": "",
          "type": "address"
        }
      ],
      "stateMutability": "view",
      "type": "function"
    },
    {
      "inputs": [],
      "name": "paused",
      "outputs": [
        {
          "internalType": "bool",
          "name": "",
          "type": "bool"
        }
      ],
      "stateMutability": "view",
      "type": "function"
    },
    {
      "inputs": [],
      "name": "percentDecimal",
      "outputs": [
        {
          "internalType": "uint256",
          "name": "",
          "type": "uint256"
        }
      ],
      "stateMutability": "view",
      "type": "function"
    },
    {
      "inputs": [],
      "name": "removeMarketContract",
      "outputs": [],
      "stateMutability": "nonpayable",
      "type": "function"
    },
    {
      "inputs": [],
      "name": "renounceOwnership",
      "outputs": [],
      "stateMutability": "nonpayable",
      "type": "function"
    },
    {
      "inputs": [],
      "name": "symbol",
      "outputs": [
        {
          "internalType": "string",
          "name": "",
          "type": "string"
        }
      ],
      "stateMutability": "view",
      "type": "function"
    },
    {
      "inputs": [],
      "name": "totalSupply",
      "outputs": [
        {
          "internalType": "uint256",
          "name": "",
          "type": "uint256"
        }
      ],
      "stateMutability": "view",
      "type": "function"
    },
    {
      "inputs": [
        {
          "internalType": "address",
          "name": "recipient",
          "type": "address"
        },
        {
          "internalType": "uint256",
          "name": "amount",
          "type": "uint256"
        }
      ],
      "name": "transfer",
      "outputs": [
        {
          "internalType": "bool",
          "name": "",
          "type": "bool"
        }
      ],
      "stateMutability": "nonpayable",
      "type": "function"
    },
    {
      "inputs": [
        {
          "internalType": "address payable",
          "name": "account",
          "type": "address"
        },
        {
          "internalType": "uint256",
          "name": "amount",
          "type": "uint256"
        }
      ],
      "name": "transferEth",
      "outputs": [],
      "stateMutability": "nonpayable",
      "type": "function"
    },
    {
      "inputs": [
        {
          "internalType": "address",
          "name": "sender",
          "type": "address"
        },
        {
          "internalType": "address",
          "name": "recipient",
          "type": "address"
        },
        {
          "internalType": "uint256",
          "name": "amount",
          "type": "uint256"
        }
      ],
      "name": "transferFrom",
      "outputs": [
        {
          "internalType": "bool",
          "name": "",
          "type": "bool"
        }
      ],
      "stateMutability": "nonpayable",
      "type": "function"
    },
    {
      "inputs": [
        {
          "internalType": "address",
          "name": "newOwner",
          "type": "address"
        }
      ],
      "name": "transferOwnership",
      "outputs": [],
      "stateMutability": "nonpayable",
      "type": "function"
    },
    {
      "inputs": [
        {
          "internalType": "address",
          "name": "account",
          "type": "address"
        },
        {
          "internalType": "uint256",
          "name": "amount",
          "type": "uint256"
        }
      ],
      "name": "transferUSDT",
      "outputs": [],
      "stateMutability": "nonpayable",
      "type": "function"
    },
    {
      "stateMutability": "payable",
      "type": "receive"
    },
    {
      "inputs": [
        {
          "internalType": "address[]",
          "name": "persons",
          "type": "address[]"
        },
        {
          "internalType": "uint256[]",
          "name": "amounts",
          "type": "uint256[]"
        }
      ],
      "name": "setTeam",
      "outputs": [],
      "stateMutability": "nonpayable",
      "type": "function"
    },
    {
      "inputs": [
        {
          "internalType": "address[]",
          "name": "persons",
          "type": "address[]"
        },
        {
          "internalType": "uint256[]",
          "name": "amounts",
          "type": "uint256[]"
        }
      ],
      "name": "setInvestors",
      "outputs": [],
      "stateMutability": "nonpayable",
      "type": "function"
    },
    {
      "inputs": [
        {
          "internalType": "uint256",
          "name": "amount",
          "type": "uint256"
        }
      ],
      "name": "claimTeam",
      "outputs": [],
      "stateMutability": "nonpayable",
      "type": "function"
    },
    {
      "inputs": [
        {
          "internalType": "uint256",
          "name": "amount",
          "type": "uint256"
        }
      ],
      "name": "claimInvestor",
      "outputs": [],
      "stateMutability": "nonpayable",
      "type": "function"
    },
    {
      "inputs": [
        {
          "internalType": "address",
          "name": "addr",
          "type": "address"
        }
      ],
      "name": "getTeamInfoOf",
      "outputs": [
        {
          "internalType": "uint256",
          "name": "limit",
          "type": "uint256"
        },
        {
          "internalType": "uint256",
          "name": "used",
          "type": "uint256"
        },
        {
          "internalType": "uint256",
          "name": "available",
          "type": "uint256"
        },
        {
          "internalType": "uint256",
          "name": "percent",
          "type": "uint256"
        },
        {
          "internalType": "uint256",
          "name": "time",
          "type": "uint256"
        }
      ],
      "stateMutability": "view",
      "type": "function"
    },
    {
      "inputs": [
        {
          "internalType": "address",
          "name": "addr",
          "type": "address"
        }
      ],
      "name": "getInvestorInfoOf",
      "outputs": [
        {
          "internalType": "uint256",
          "name": "limit",
          "type": "uint256"
        },
        {
          "internalType": "uint256",
          "name": "used",
          "type": "uint256"
        },
        {
          "internalType": "uint256",
          "name": "available",
          "type": "uint256"
        },
        {
          "internalType": "uint256",
          "name": "percent",
          "type": "uint256"
        },
        {
          "internalType": "uint256",
          "name": "time",
          "type": "uint256"
        }
      ],
      "stateMutability": "view",
      "type": "function"
    }
  ],
  "bytecode": "0x600760808181526610da5d1859195b60ca1b60a0908152610100604052600360c0818152621610d560ea1b60e05292936200003b929062000130565b5080516200005190600490602084019062000130565b50506005805460ff19166012179055506000620000766001600160e01b036200011516565b60058054610100600160a81b0319166101006001600160a01b03841690810291909117909155604051919250906000907f8be0079c531659141344cd1fd0a4f28419497f9722a3daafe3b4186f6b6457e0908290a3506005805460ff60a81b19169055600780546001600160a01b031916301790554260085566038d7ea4c680006009556200010f60066001600160e01b036200011a16565b620001d2565b335b90565b6005805460ff191660ff92909216919091179055565b828054600181600116156101000203166002900490600052602060002090601f016020900481019282601f106200017357805160ff1916838001178555620001a3565b82800160010185558215620001a3579182015b82811115620001a357825182559160200191906001019062000186565b50620001b1929150620001b5565b5090565b6200011791905b80821115620001b15760008155600101620001bc565b613ff880620001e26000396000f3fe6080604052600436106102765760003560e01c806395d89b411161014f578063d015ed6a116100c1578063f05491331161007a578063f054913314610dff578063f0e169a814610eca578063f2fde38b14610edf578063f905c15a14610f12578063fcd6f77914610f27578063fefa83f314610f8557610635565b8063d015ed6a14610cdb578063d263941e14610d14578063dcb1701514610d4c578063dd62ed3e14610d61578063e2ad914414610d9c578063e9bb84c214610dc657610635565b8063a9c8822a11610113578063a9c8822a14610c00578063aa20a3a814610c2a578063ba1a681f14610c5d578063bb40f3c614610c72578063c511ed5e14610c9c578063cf6b60b814610cb157610635565b806395d89b4114610a8457806397464f6114610a995780639f7fd8f214610b64578063a457c2d714610b8e578063a9059cbb14610bc757610635565b8063679aefce116101e857806374e7493b116101ac57806374e7493b14610954578063791b8a781461097e5780637c465e0914610a025780638d08c8a514610a455780638da5cb5b14610a5a5780639038a3ce14610a6f57610635565b8063679aefce146108a957806369668fe9146108be5780636fe640ea146108d357806370a082311461090c578063715018a61461093f57610635565b806323b872dd1161023a57806323b872dd14610792578063313ce567146107d5578063395093511461080057806353d168e7146108395780635c975abb1461086a578063605418cd1461087f57610635565b806306fdde031461063a578063095ea7b3146106c457806317abbc2f1461071157806318160ddd146107385780631d4ab1201461074d57610635565b366106355760135460ff16156102c1576040805162461bcd60e51b815260206004820152601e6024820152600080516020613ee4833981519152604482015290519081900360640190fd5b6000601054116103025760405162461bcd60e51b8152600401808060200182810382526024815260200180613f506024913960400191505060405180910390fd5b60115433600090815260126020526040902054106103515760405162461bcd60e51b8152600401808060200182810382526024815260200180613d9c6024913960400191505060405180910390fd5b600d543390600090349082906001600160a01b031615610455576000610375610fb8565b50505091505060006103a66305f5e10061039a600e548561106690919063ffffffff16565b9063ffffffff6110c816565b90506103b8848263ffffffff6110c816565b6011546001600160a01b038816600090815260126020526040902054919650906103e8908763ffffffff61110a16565b111561041c576001600160a01b0386166000908152601260205260409020546011546104199163ffffffff61116416565b94505b60105485111561042c5760105494505b61044c61043f868363ffffffff61106616565b859063ffffffff61116416565b92505050610548565b600b541561051157600b5461047190839063ffffffff6110c816565b6011546001600160a01b038616600090815260126020526040902054919450906104a1908563ffffffff61110a16565b11156104d5576001600160a01b0384166000908152601260205260409020546011546104d29163ffffffff61116416565b92505b6010548311156104e55760105492505b61050a6104fd600b548561106690919063ffffffff16565b839063ffffffff61116416565b9050610548565b60405162461bcd60e51b815260040180806020018281038252602b815260200180613d4b602b913960400191505060405180910390fd5b6000831161059d576040805162461bcd60e51b815260206004820152601f60248201527f4369746164656c45786368616e67653a20746f6f206c6f7720616d6f756e7400604482015290519081900360640190fd5b80156105d257604051339082156108fc029083906000818181858888f193505050501580156105d0573d6000803e3d6000fd5b505b6007546105e9906001600160a01b031685856111a6565b33600090815260126020526040902054610609908463ffffffff61110a16565b3360009081526012602052604090205560105461062c908463ffffffff61116416565b60105550505050005b600080fd5b34801561064657600080fd5b5061064f61130d565b6040805160208082528351818301528351919283929083019185019080838360005b83811015610689578181015183820152602001610671565b50505050905090810190601f1680156106b65780820380516001836020036101000a031916815260200191505b509250505060405180910390f35b3480156106d057600080fd5b506106fd600480360360408110156106e757600080fd5b506001600160a01b0381351690602001356113a4565b604080519115158252519081900360200190f35b34801561071d57600080fd5b506107266113c1565b60408051918252519081900360200190f35b34801561074457600080fd5b50610726611411565b34801561075957600080fd5b506107906004803603604081101561077057600080fd5b5080356001600160e01b03191690602001356001600160a01b0316611417565b005b34801561079e57600080fd5b506106fd600480360360608110156107b557600080fd5b506001600160a01b03813581169160208101359091169060400135611629565b3480156107e157600080fd5b506107ea6116b6565b6040805160ff9092168252519081900360200190f35b34801561080c57600080fd5b506106fd6004803603604081101561082357600080fd5b506001600160a01b0381351690602001356116bf565b34801561084557600080fd5b5061084e611713565b604080516001600160a01b039092168252519081900360200190f35b34801561087657600080fd5b506106fd611722565b34801561088b57600080fd5b50610726600480360360208110156108a257600080fd5b5035611732565b3480156108b557600080fd5b506107266117d8565b3480156108ca57600080fd5b50610726611828565b3480156108df57600080fd5b50610790600480360360408110156108f657600080fd5b506001600160a01b03813516906020013561182e565b34801561091857600080fd5b506107266004803603602081101561092f57600080fd5b50356001600160a01b031661197b565b34801561094b57600080fd5b506107906119ae565b34801561096057600080fd5b506107906004803603602081101561097757600080fd5b5035611a5b565b34801561098a57600080fd5b506109b2600480360360208110156109a157600080fd5b50356001600160e01b031916611b42565b60408051602080825283518183015283519192839290830191858101910280838360005b838110156109ee5781810151838201526020016109d6565b505050509050019250505060405180910390f35b348015610a0e57600080fd5b5061079060048036036040811015610a2557600080fd5b5080356001600160e01b03191690602001356001600160a01b0316611c26565b348015610a5157600080fd5b50610790611d05565b348015610a6657600080fd5b5061084e611dba565b348015610a7b57600080fd5b5061084e611dce565b348015610a9057600080fd5b5061064f611ddd565b348015610aa557600080fd5b5061079060048036036040811015610abc57600080fd5b810190602081018135600160201b811115610ad657600080fd5b820183602082011115610ae857600080fd5b803590602001918460208302840111600160201b83111715610b0957600080fd5b919390929091602081019035600160201b811115610b2657600080fd5b820183602082011115610b3857600080fd5b803590602001918460208302840111600160201b83111715610b5957600080fd5b509092509050611e3e565b348015610b7057600080fd5b5061079060048036036020811015610b8757600080fd5b5035612042565b348015610b9a57600080fd5b506106fd60048036036040811015610bb157600080fd5b506001600160a01b038135169060200135612284565b348015610bd357600080fd5b506106fd60048036036040811015610bea57600080fd5b506001600160a01b0381351690602001356122f2565b348015610c0c57600080fd5b5061079060048036036020811015610c2357600080fd5b5035612306565b348015610c3657600080fd5b5061079060048036036020811015610c4d57600080fd5b50356001600160a01b03166124c2565b348015610c6957600080fd5b506107266125d4565b348015610c7e57600080fd5b5061072660048036036020811015610c9557600080fd5b50356125da565b348015610ca857600080fd5b506107906126c9565b348015610cbd57600080fd5b5061079060048036036020811015610cd457600080fd5b503561279c565b348015610ce757600080fd5b5061079060048036036040811015610cfe57600080fd5b506001600160a01b038135169060200135612951565b348015610d2057600080fd5b50610d29612a67565b604080516001600160a01b03909316835260208301919091528051918290030190f35b348015610d5857600080fd5b50610726612ac8565b348015610d6d57600080fd5b5061072660048036036040811015610d8457600080fd5b506001600160a01b0381358116916020013516612ace565b348015610da857600080fd5b5061079060048036036020811015610dbf57600080fd5b5035612af9565b348015610dd257600080fd5b5061079060048036036040811015610de957600080fd5b506001600160a01b038135169060200135612ba1565b348015610e0b57600080fd5b5061079060048036036040811015610e2257600080fd5b810190602081018135600160201b811115610e3c57600080fd5b820183602082011115610e4e57600080fd5b803590602001918460208302840111600160201b83111715610e6f57600080fd5b919390929091602081019035600160201b811115610e8c57600080fd5b820183602082011115610e9e57600080fd5b803590602001918460208302840111600160201b83111715610ebf57600080fd5b509092509050612c62565b348015610ed657600080fd5b506106fd612e5f565b348015610eeb57600080fd5b5061079060048036036020811015610f0257600080fd5b50356001600160a01b0316612e68565b348015610f1e57600080fd5b50610726612f71565b348015610f3357600080fd5b50610f5a60048036036020811015610f4a57600080fd5b50356001600160a01b0316612f77565b6040805195865260208601949094528484019290925260608401526080830152519081900360a00190f35b348015610f9157600080fd5b50610f5a60048036036020811015610fa857600080fd5b50356001600160a01b0316613028565b60008060008060008060009050600c60009054906101000a90046001600160a01b03166001600160a01b031663feaf968c6040518163ffffffff1660e01b815260040160a06040518083038186803b15801561101357600080fd5b505afa158015611027573d6000803e3d6000fd5b505050506040513d60a081101561103d57600080fd5b508051602082015160408301516060840151608090940151929a91995097509195509350915050565b600082611075575060006110c2565b8282028284828161108257fe5b04146110bf5760405162461bcd60e51b8152600401808060200182810382526021815260200180613e126021913960400191505060405180910390fd5b90505b92915050565b60006110bf83836040518060400160405280601a81526020017f536166654d6174683a206469766973696f6e206279207a65726f0000000000008152506130ce565b6000828201838110156110bf576040805162461bcd60e51b815260206004820152601b60248201527f536166654d6174683a206164646974696f6e206f766572666c6f770000000000604482015290519081900360640190fd5b60006110bf83836040518060400160405280601e81526020017f536166654d6174683a207375627472616374696f6e206f766572666c6f770000815250613170565b6001600160a01b0383166111eb5760405162461bcd60e51b8152600401808060200182810382526025815260200180613ebf6025913960400191505060405180910390fd5b6001600160a01b0382166112305760405162461bcd60e51b8152600401808060200182810382526023815260200180613c936023913960400191505060405180910390fd5b61123b8383836131ca565b61127e81604051806060016040528060268152602001613d76602691396001600160a01b038616600090815260208190526040902054919063ffffffff61317016565b6001600160a01b0380851660009081526020819052604080822093909355908416815220546112b3908263ffffffff61110a16565b6001600160a01b038084166000818152602081815260409182902094909455805185815290519193928716927fddf252ad1be2c89b69c2b068fc378daa952ba7f163c4a11628f55a4df523b3ef92918290030190a3505050565b60038054604080516020601f60026000196101006001881615020190951694909404938401819004810282018101909252828152606093909290918301828280156113995780601f1061136e57610100808354040283529160200191611399565b820191906000526020600020905b81548152906001019060200180831161137c57829003601f168201915b505050505090505b90565b60006113b86113b161326f565b8484613273565b50600192915050565b60135460009060ff161561140a576040805162461bcd60e51b815260206004820152601e6024820152600080516020613ee4833981519152604482015290519081900360640190fd5b5060115490565b60025490565b6001600160e01b031982166000908152600660209081526040808320338452600101909152902054829060ff1661147f5760405162461bcd60e51b8152600401808060200182810382526028815260200180613f286028913960400191505060405180910390fd5b6001600160e01b031983166000908152600660205260409020600280820154116114da5760405162461bcd60e51b8152600401808060200182810382526023815260200180613e9c6023913960400191505060405180910390fd5b6114e38461335f565b6114ed5750611624565b6002810154815414156115035780546000190181555b60606001826002018054905003604051908082528060200260200182016040528015611539578160200160208202803883390190505b5090506000805b60028401548110156115e557856001600160a01b031684600201828154811061156557fe5b6000918252602090912001546001600160a01b03161415611585576115dd565b83600201818154811061159457fe5b9060005260206000200160009054906101000a90046001600160a01b03168383815181106115be57fe5b6001600160a01b03909216602092830291909101909101526001909101905b600101611540565b506001600160a01b03851660009081526001840160209081526040909120805460ff19169055825161161f91600286019190850190613b98565b505050505b505050565b60006116368484846111a6565b6116ac8461164261326f565b6116a785604051806060016040528060288152602001613e33602891396001600160a01b038a1660009081526001602052604081209061168061326f565b6001600160a01b03168152602081019190915260400160002054919063ffffffff61317016565b613273565b5060019392505050565b60055460ff1690565b60006113b86116cc61326f565b846116a785600160006116dd61326f565b6001600160a01b03908116825260208083019390935260409182016000908120918c16815292529020549063ffffffff61110a16565b6007546001600160a01b031681565b600554600160a81b900460ff1690565b60135460009060ff161561177b576040805162461bcd60e51b815260206004820152601e6024820152600080516020613ee4833981519152604482015290519081900360640190fd5b6000600e54116117bc5760405162461bcd60e51b8152600401808060200182810382526026815260200180613dc06026913960400191505060405180910390fd5b600e546117d090839063ffffffff6110c816565b90505b919050565b60135460009060ff1615611821576040805162461bcd60e51b815260206004820152601e6024820152600080516020613ee4833981519152604482015290519081900360640190fd5b50600b5490565b60085481565b60135460ff1615611874576040805162461bcd60e51b815260206004820152601e6024820152600080516020613ee4833981519152604482015290519081900360640190fd5b61187c61326f565b60055461010090046001600160a01b039081169116146118d1576040805162461bcd60e51b81526020600482018190526024820152600080516020613e5b833981519152604482015290519081900360640190fd5b600d546001600160a01b03161561192f576118f4826001600160a01b0316613608565b61192f5760405162461bcd60e51b815260040180806020018281038252602b815260200180613cb6602b913960400191505060405180910390fd5b600d80546001600160a01b0319166001600160a01b038481169190911791829055600e839055161561197757600c80546001600160a01b0319166001600160a01b0384161790555b5050565b60006117d06119898361360e565b6001600160a01b0384166000908152602081905260409020549063ffffffff61110a16565b6119b661326f565b60055461010090046001600160a01b03908116911614611a0b576040805162461bcd60e51b81526020600482018190526024820152600080516020613e5b833981519152604482015290519081900360640190fd5b60055460405160009161010090046001600160a01b0316907f8be0079c531659141344cd1fd0a4f28419497f9722a3daafe3b4186f6b6457e0908390a360058054610100600160a81b0319169055565b60135460ff1615611aa1576040805162461bcd60e51b815260206004820152601e6024820152600080516020613ee4833981519152604482015290519081900360640190fd5b611aa961326f565b60055461010090046001600160a01b03908116911614611afe576040805162461bcd60e51b81526020600482018190526024820152600080516020613e5b833981519152604482015290519081900360640190fd5b60008111611b3d5760405162461bcd60e51b815260040180806020018281038252602b815260200180613d4b602b913960400191505060405180910390fd5b600b55565b6001600160e01b031981166000908152600660209081526040808320338452600101909152902054606090829060ff16611bad5760405162461bcd60e51b8152600401808060200182810382526028815260200180613f286028913960400191505060405180910390fd5b6001600160e01b0319831660009081526006602090815260409182902060020180548351818402810184019094528084529091830182828015611c1957602002820191906000526020600020905b81546001600160a01b03168152600190910190602001808311611bfb575b5050505050915050919050565b6001600160e01b031982166000908152600660209081526040808320338452600101909152902054829060ff16611c8e5760405162461bcd60e51b8152600401808060200182810382526028815260200180613f286028913960400191505060405180910390fd5b611c9783613614565b611ca057611624565b506001600160e01b03199190911660009081526006602090815260408083206001600160a01b0390941680845260018086018452918420805460ff191683179055600290940180549182018155835291200180546001600160a01b0319169091179055565b60135460ff1615611d4b576040805162461bcd60e51b815260206004820152601e6024820152600080516020613ee4833981519152604482015290519081900360640190fd5b611d5361326f565b60055461010090046001600160a01b03908116911614611da8576040805162461bcd60e51b81526020600482018190526024820152600080516020613e5b833981519152604482015290519081900360640190fd5b600d80546001600160a01b0319169055565b60055461010090046001600160a01b031690565b600f546001600160a01b031690565b60048054604080516020601f60026000196101006001881615020190951694909404938401819004810282018101909252828152606093909290918301828280156113995780601f1061136e57610100808354040283529160200191611399565b611e4661326f565b60055461010090046001600160a01b03908116911614611e9b576040805162461bcd60e51b81526020600482018190526024820152600080516020613e5b833981519152604482015290519081900360640190fd5b601b5460ff1615611eab57600080fd5b601b805460ff19166001179055828114611ec457600080fd5b6000805b84811015611ffa576000848483818110611ede57fe5b90506020020135905060008111611ef457600080fd5b601c6000888885818110611f0457fe5b905060200201356001600160a01b03166001600160a01b03166001600160a01b0316815260200190815260200160002060000154600014611f4457600080fd5b611f54838263ffffffff61110a16565b9250604051806060016040528082815260200160008152602001611f8960195461039a6009548661106690919063ffffffff16565b9052601c6000898986818110611f9b57fe5b905060200201356001600160a01b03166001600160a01b03166001600160a01b03168152602001908152602001600020600082015181600001556020820151816001015560408201518160020155905050508080600101915050611ec8565b50601954811461203b5760405162461bcd60e51b8152600401808060200182810382526036815260200180613c5d6036913960400191505060405180910390fd5b5050505050565b60135460ff1615612088576040805162461bcd60e51b815260206004820152601e6024820152600080516020613ee4833981519152604482015290519081900360640190fd5b6000600e54116120c95760405162461bcd60e51b8152600401808060200182810382526026815260200180613dc06026913960400191505060405180910390fd5b600f5460075460408051636eb1769f60e11b815233600482018190526001600160a01b039384166024830152915191938593169163dd62ed3e91604480820192602092909190829003018186803b15801561212357600080fd5b505afa158015612137573d6000803e3d6000fd5b505050506040513d602081101561214d57600080fd5b5051101561218c5760405162461bcd60e51b815260040180806020018281038252602c815260200180613de6602c913960400191505060405180910390fd5b60006121a3600e54846110c890919063ffffffff16565b905060006121bf61043f600e548461106690919063ffffffff16565b905080156121da576121d7848263ffffffff61116416565b93505b600f54600754604080516323b872dd60e01b81526001600160a01b038781166004830152928316602482015260448101889052905191909216916323b872dd9160648083019260209291908290030181600087803b15801561223b57600080fd5b505af115801561224f573d6000803e3d6000fd5b505050506040513d602081101561226557600080fd5b505060075461227e906001600160a01b031684846111a6565b50505050565b60006113b861229161326f565b846116a785604051806060016040528060258152602001613f7460259139600160006122bb61326f565b6001600160a01b03908116825260208083019390935260409182016000908120918d1681529252902054919063ffffffff61317016565b60006113b86122ff61326f565b84846111a6565b33600081815260176020526040902054612367576040805162461bcd60e51b815260206004820152601b60248201527f4369746164656c496e766573746f72733a207465616d206f6e6c790000000000604482015290519081900360640190fd5b6001600160a01b038116600090815260176020908152604080832081516060810183528154815260018201548185015260029091015481830152601454601580548451818702810187019095528085526123f895939492938301828280156123ee57602002820191906000526020600020905b8154815260200190600101908083116123da575b50505050506138a5565b90508083111561244f576040805162461bcd60e51b815260206004820181905260248201527f4369746164656c496e766573746f72733a20746f6f2062696720616d6f756e74604482015290519081900360640190fd5b6001600160a01b03821660009081526017602052604090206001015461247b908463ffffffff61110a16565b6001600160a01b0383166000908152601760205260409020600181018290555410156124a657600080fd5b6013546116249061010090046001600160a01b031683856111a6565b60135460ff1615612508576040805162461bcd60e51b815260206004820152601e6024820152600080516020613ee4833981519152604482015290519081900360640190fd5b61251061326f565b60055461010090046001600160a01b03908116911614612565576040805162461bcd60e51b81526020600482018190526024820152600080516020613e5b833981519152604482015290519081900360640190fd5b612577816001600160a01b0316613608565b6125b25760405162461bcd60e51b815260040180806020018281038252602b815260200180613cb6602b913960400191505060405180910390fd5b600f80546001600160a01b0319166001600160a01b0392909216919091179055565b60095481565b60135460009060ff1615612623576040805162461bcd60e51b815260206004820152601e6024820152600080516020613ee4833981519152604482015290519081900360640190fd5b600d546001600160a01b03161561269257600061263e610fb8565b50505091505060006126636305f5e10061039a600e548561106690919063ffffffff16565b90506000612677858363ffffffff6110c816565b905060105481111561268857506010545b92506117d3915050565b600b54156105115760006126b1600b54846110c890919063ffffffff16565b90506010548111156126c257506010545b90506117d3565b60135460ff161561270f576040805162461bcd60e51b815260206004820152601e6024820152600080516020613ee4833981519152604482015290519081900360640190fd5b61271761326f565b60055461010090046001600160a01b0390811691161461276c576040805162461bcd60e51b81526020600482018190526024820152600080516020613e5b833981519152604482015290519081900360640190fd5b6010541561278d5760075460105461278d916001600160a01b031690613a0c565b6013805460ff19166001179055565b336000818152601c60205260409020546127fd576040805162461bcd60e51b815260206004820152601f60248201527f4369746164656c496e766573746f72733a20696e766573746f72206f6e6c7900604482015290519081900360640190fd5b6001600160a01b0381166000908152601c6020908152604080832081516060810183528154815260018201548185015260029091015481830152601954601a805484518187028101870190955280855261288c95939492938301828280156123ee57602002820191906000526020600020908154815260200190600101908083116123da5750505050506138a5565b9050808311156128e3576040805162461bcd60e51b815260206004820181905260248201527f4369746164656c496e766573746f72733a20746f6f2062696720616d6f756e74604482015290519081900360640190fd5b6001600160a01b0382166000908152601c602052604090206001015461290f908463ffffffff61110a16565b6001600160a01b0383166000908152601c602052604090206001810182905554101561293a57600080fd5b601854611624906001600160a01b031683856111a6565b3360009081527fabbac90b0ac1d0b62c8cc740fe447a12292688b6fd9930dbc5ac385793ac7b38602052604090205461232360f11b9060ff166129c55760405162461bcd60e51b8152600401808060200182810382526028815260200180613f286028913960400191505060405180910390fd5b6129d361232360f11b613614565b6129dc57611624565b600f54600754604080516323b872dd60e01b81526001600160a01b039283166004820152868316602482015260448101869052905191909216916323b872dd9160648083019260209291908290030181600087803b158015612a3d57600080fd5b505af1158015612a51573d6000803e3d6000fd5b505050506040513d602081101561203b57600080fd5b601354600090819060ff1615612ab2576040805162461bcd60e51b815260206004820152601e6024820152600080516020613ee4833981519152604482015290519081900360640190fd5b5050600d54600e546001600160a01b0390911691565b60105481565b6001600160a01b03918216600090815260016020908152604080832093909416825291909152205490565b60135460ff1615612b3f576040805162461bcd60e51b815260206004820152601e6024820152600080516020613ee4833981519152604482015290519081900360640190fd5b612b4761326f565b60055461010090046001600160a01b03908116911614612b9c576040805162461bcd60e51b81526020600482018190526024820152600080516020613e5b833981519152604482015290519081900360640190fd5b601155565b3360009081527fabbac90b0ac1d0b62c8cc740fe447a12292688b6fd9930dbc5ac385793ac7b38602052604090205461232360f11b9060ff16612c155760405162461bcd60e51b8152600401808060200182810382526028815260200180613f286028913960400191505060405180910390fd5b612c2361232360f11b613614565b612c2c57611624565b6040516001600160a01b0384169083156108fc029084906000818181858888f1935050505015801561227e573d6000803e3d6000fd5b612c6a61326f565b60055461010090046001600160a01b03908116911614612cbf576040805162461bcd60e51b81526020600482018190526024820152600080516020613e5b833981519152604482015290519081900360640190fd5b60165460ff1615612ccf57600080fd5b6016805460ff19166001179055828114612ce857600080fd5b6000805b84811015612e1e576000848483818110612d0257fe5b90506020020135905060008111612d1857600080fd5b60176000888885818110612d2857fe5b905060200201356001600160a01b03166001600160a01b03166001600160a01b0316815260200190815260200160002060000154600014612d6857600080fd5b612d78838263ffffffff61110a16565b9250604051806060016040528082815260200160008152602001612dad60145461039a6009548661106690919063ffffffff16565b905260176000898986818110612dbf57fe5b905060200201356001600160a01b03166001600160a01b03166001600160a01b03168152602001908152602001600020600082015181600001556020820151816001015560408201518160020155905050508080600101915050612cec565b50601454811461203b5760405162461bcd60e51b8152600401808060200182810382526036815260200180613c5d6036913960400191505060405180910390fd5b60135460ff1690565b612e7061326f565b60055461010090046001600160a01b03908116911614612ec5576040805162461bcd60e51b81526020600482018190526024820152600080516020613e5b833981519152604482015290519081900360640190fd5b6001600160a01b038116612f0a5760405162461bcd60e51b8152600401808060200182810382526026815260200180613d036026913960400191505060405180910390fd5b6005546040516001600160a01b0380841692610100900416907f8be0079c531659141344cd1fd0a4f28419497f9722a3daafe3b4186f6b6457e090600090a3600580546001600160a01b0390921661010002610100600160a81b0319909216919091179055565b60085490565b6008546001600160a01b0382166000908152601c60209081526040808320805460018201546002909201548351606081018552828152808601849052808501829052601954601a80548751818a0281018a019098528088529499959897939642969096039561301d959394929390928301828280156123ee57602002820191906000526020600020908154815260200190600101908083116123da5750505050506138a5565b925091939590929450565b6008546001600160a01b0382166000908152601760209081526040808320805460018201546002909201548351606081018552828152808601849052808501829052601454601580548751818a0281018a019098528088529499959897939642969096039561301d959394929390928301828280156123ee57602002820191906000526020600020908154815260200190600101908083116123da5750505050506138a5565b6000818361315a5760405162461bcd60e51b81526004018080602001828103825283818151815260200191508051906020019080838360005b8381101561311f578181015183820152602001613107565b50505050905090810190601f16801561314c5780820380516001836020036101000a031916815260200191505b509250505060405180910390fd5b50600083858161316657fe5b0495945050505050565b600081848411156131c25760405162461bcd60e51b815260206004820181815283516024840152835190928392604490910191908501908083836000831561311f578181015183820152602001613107565b505050900390565b6131d5838383611624565b6103e8331161322b576040805162461bcd60e51b815260206004820152601960248201527f4369746164656c546f6b656e3a2066616b652073656e64657200000000000000604482015290519081900360640190fd5b613233611722565b156116245760405162461bcd60e51b815260040180806020018281038252602a815260200180613f99602a913960400191505060405180910390fd5b3390565b6001600160a01b0383166132b85760405162461bcd60e51b8152600401808060200182810382526024815260200180613f046024913960400191505060405180910390fd5b6001600160a01b0382166132fd5760405162461bcd60e51b8152600401808060200182810382526022815260200180613d296022913960400191505060405180910390fd5b6001600160a01b03808416600081815260016020908152604080832094871680845294825291829020859055815185815291517f8c5be1e5ebec7d5bd14f71427d1e84f3dd0314c0f7b2291e5b200ac8c7c3b9259281900390910190a3505050565b6001600160e01b0319811660009081526006602052604081208054600282015481141561338b57600019015b600080356001600160e01b03191690506000803660405180838380828437604080519190930181900390206001600160e01b03198816600090815260038b01602052929092206001015491955050159250613548915050576001600160e01b0319821660009081526003850160205260409020548114156134d15760005b6001600160e01b03198316600090815260038601602052604090206002015481101561348d576001600160e01b031983166000908152600386016020526040902060020180543391908390811061345c57fe5b6000918252602090912001546001600160a01b03161415613485576000955050505050506117d3565b600101613409565b506001600160e01b03198216600090815260038501602090815260408220600201805460018101825590835291200180546001600160a01b03191633179055613543565b6001600160e01b031982166000908152600385016020526040812082815542600182015561350491600290910190613bfd565b6001600160e01b03198216600090815260038501602090815260408220600201805460018101825590835291200180546001600160a01b031916331790555b613594565b6001600160e01b0319821660009081526003850160209081526040822083815542600180830191909155600290910180549182018155835291200180546001600160a01b031916331790555b6001600160e01b03198216600090815260038501602052604090206002015483116135fb576001600160e01b031982166000908152600385016020526040812081815560018101829055906135ec6002830182613bfd565b505060019450505050506117d3565b60009450505050506117d3565b3b151590565b50600090565b6001600160e01b031980821660009081526006602052604080822090519192909183359091169083908190369080838380828437604080519190930181900390206001600160e01b03198816600090815260038a016020529290922060010154919550501592506137e6915050576001600160e01b03198216600090815260038401602052604090205481141561376f5760005b6001600160e01b03198316600090815260038501602052604090206002015481101561372b576001600160e01b03198316600090815260038501602052604090206002018054339190839081106136fb57fe5b6000918252602090912001546001600160a01b031614156137235760009450505050506117d3565b6001016136a8565b506001600160e01b03198216600090815260038401602090815260408220600201805460018101825590835291200180546001600160a01b031916331790556137e1565b6001600160e01b03198216600090815260038401602052604081208281554260018201556137a291600290910190613bfd565b6001600160e01b03198216600090815260038401602090815260408220600201805460018101825590835291200180546001600160a01b031916331790555b613832565b6001600160e01b0319821660009081526003840160209081526040822083815542600180830191909155600290910180549182018155835291200180546001600160a01b031916331790555b82546001600160e01b03198316600090815260038501602052604090206002015410613899576001600160e01b0319821660009081526003840160205260408120818155600181018290559061388b6002830182613bfd565b5050600193505050506117d3565b600093505050506117d3565b6000806138b142613b14565b9050600084905081845111156139bf5760008083116138d15760006138d6565b600183035b9050613903606461039a8784815181106138ec57fe5b60200260200101518961106690919063ffffffff16565b9150821561398f5760006139488361393c606461039a8a898151811061392557fe5b60200260200101518c61106690919063ffffffff16565b9063ffffffff61116416565b90506139756301e1338061039a6301e1338060085442038161396657fe5b8591900663ffffffff61106616565b9050613987838263ffffffff61110a16565b9250506139bd565b6139ba6301e1338061039a6301e133806008544203816139ab57fe5b8691900663ffffffff61106616565b91505b505b6139dc60095461039a88604001518461106690919063ffffffff16565b86519091508111156139ec575084515b6020860151613a0290829063ffffffff61116416565b9695505050505050565b6001600160a01b038216613a515760405162461bcd60e51b8152600401808060200182810382526021815260200180613e7b6021913960400191505060405180910390fd5b613a5d826000836131ca565b613aa081604051806060016040528060228152602001613ce1602291396001600160a01b038516600090815260208190526040902054919063ffffffff61317016565b6001600160a01b038316600090815260208190526040902055600254613acc908263ffffffff61116416565b6002556040805182815290516000916001600160a01b038516917fddf252ad1be2c89b69c2b068fc378daa952ba7f163c4a11628f55a4df523b3ef9181900360200190a35050565b600080613b496301e1338061039a6402540be400613b3d6008548861116490919063ffffffff16565b9063ffffffff61106616565b9050600081118015613b6057506402540be4008106155b15613b7c57613b7981633b9aca0063ffffffff61116416565b90505b613b91816402540be40063ffffffff6110c816565b9392505050565b828054828255906000526020600020908101928215613bed579160200282015b82811115613bed57825182546001600160a01b0319166001600160a01b03909116178255602090920191600190910190613bb8565b50613bf9929150613c1e565b5090565b5080546000825590600052602060002090810190613c1b9190613c42565b50565b6113a191905b80821115613bf95780546001600160a01b0319168155600101613c24565b6113a191905b80821115613bf95760008155600101613c4856fe4369746164656c496e766573746f72733a20746f74616c20616d6f756e74206d75737420626520657175616c207465616d207061727445524332303a207472616e7366657220746f20746865207a65726f20616464726573734369746164656c45786368616e67653a20616464726573732073686f756c6420626520636f6e747261637445524332303a206275726e20616d6f756e7420657863656564732062616c616e63654f776e61626c653a206e6577206f776e657220697320746865207a65726f206164647265737345524332303a20617070726f766520746f20746865207a65726f20616464726573734369746164656c45786368616e67653a20627579696e6720726174652063616e6e6f74206265207a65726f45524332303a207472616e7366657220616d6f756e7420657863656564732062616c616e63654369746164656c45786368616e67653a2062757965722072656163686564206c696d69744369746164656c45786368616e67653a20756e646566696e6564206d61726b657420726174654369746164656c45786368616e67653a20616c6c6f77207573207472616e7366657220796f75722075736474536166654d6174683a206d756c7469706c69636174696f6e206f766572666c6f7745524332303a207472616e7366657220616d6f756e74206578636565647320616c6c6f77616e63654f776e61626c653a2063616c6c6572206973206e6f7420746865206f776e657245524332303a206275726e2066726f6d20746865207a65726f20616464726573734d756c74697369673a20616c7265616479206d696e696d756d2061646472657373657345524332303a207472616e736665722066726f6d20746865207a65726f20616464726573734369746164656c45786368616e67653a206d61726b657420636c6f736564000045524332303a20617070726f76652066726f6d20746865207a65726f20616464726573734d756c74697369673a20596f752063616e6e6f7420657865637574652074686973206d6574686f644369746164656c45786368616e67653a20746f6b656e7320616c726561647920736f6c6445524332303a2064656372656173656420616c6c6f77616e63652062656c6f77207a65726f45524332305061757361626c653a20746f6b656e207472616e73666572207768696c6520706175736564a2646970667358221220da488b0b977fe2f69dabc4eb41216a54f865416fbdb16ab46d54aee01304cf2264736f6c63430006020033",
  "source": "// SPDX-License-Identifier: GPL-3.0\npragma solidity 0.6.2;\n\nimport \"./CitadelExchange.sol\";\n\n\ncontract CitadelInvestors is CitadelExchange {\n\n    struct Person {\n        uint limit;\n        uint used;\n        uint percent;\n    }\n\n    address private _addressTeam;\n    uint private _totalTeam;\n    uint[] private _stagesTeam;\n    bool private _setTeam;\n    mapping (address => Person) private _team;\n\n    address private _addressInvestors;\n    uint private _totalInvestors;\n    uint[] private _stagesInvestors;\n    bool private _setInvestors;\n    mapping (address => Person) private _investors;\n\n    function setTeam(address[] calldata persons, uint[] calldata amounts) external onlyOwner {\n        require(!_setTeam);\n        _setTeam = true;\n        require(persons.length == amounts.length);\n        uint countTotal;\n        for (uint i = 0; i < persons.length; i++) {\n            uint amount = amounts[i];\n            require(amount > 0);\n            require(_team[persons[i]].limit == 0);\n            countTotal = countTotal.add(amount);\n            _team[persons[i]] = Person(amount, 0, amount.mul(percentDecimal).div(_totalTeam));\n        }\n        require(countTotal == _totalTeam, \"CitadelInvestors: total amount must be equal team part\");\n    }\n\n    function setInvestors(address[] calldata persons, uint[] calldata amounts) external onlyOwner {\n        require(!_setInvestors);\n        _setInvestors = true;\n        require(persons.length == amounts.length);\n        uint countTotal;\n        for (uint i = 0; i < persons.length; i++) {\n            uint amount = amounts[i];\n            require(amount > 0);\n            require(_investors[persons[i]].limit == 0);\n            countTotal = countTotal.add(amount);\n            _investors[persons[i]] = Person(amount, 0, amount.mul(percentDecimal).div(_totalInvestors));\n        }\n        require(countTotal == _totalInvestors, \"CitadelInvestors: total amount must be equal team part\");\n    }\n\n    function claimTeam (uint256 amount) external {\n        address account = msg.sender;\n        require(_team[account].limit > 0, \"CitadelInvestors: team only\");\n\n        uint available = _getAvailableSum(_team[account], _totalTeam, _stagesTeam);\n\n        require(amount <= available, \"CitadelInvestors: too big amount\");\n\n        _team[account].used = _team[account].used.add(amount);\n        require(_team[account].used <= _team[account].limit);\n\n        _transfer(_addressTeam, account, amount);\n    }\n\n    function claimInvestor (uint256 amount) external {\n        address account = msg.sender;\n        require(_investors[account].limit > 0, \"CitadelInvestors: investor only\");\n\n        uint available = _getAvailableSum(_investors[account], _totalInvestors, _stagesInvestors);\n\n        require(amount <= available, \"CitadelInvestors: too big amount\");\n\n        _investors[account].used = _investors[account].used.add(amount);\n        require(_investors[account].used <= _investors[account].limit);\n\n        _transfer(_addressInvestors, account, amount);\n    }\n\n    function getTeamInfoOf (address addr) external view\n    returns (\n        uint limit,\n        uint used,\n        uint available,\n        uint percent,\n        uint time\n    ) {\n        time = block.timestamp - deployDate;\n        limit = _team[addr].limit;\n        used = _team[addr].used;\n        percent = _team[addr].percent;\n        available = _getAvailableSum(_team[addr], _totalTeam, _stagesTeam);\n    }\n\n    function getInvestorInfoOf (address addr) external view\n    returns (\n        uint limit,\n        uint used,\n        uint available,\n        uint percent,\n        uint time\n    ) {\n        time = block.timestamp - deployDate;\n        limit = _investors[addr].limit;\n        used = _investors[addr].used;\n        percent = _investors[addr].percent;\n        available = _getAvailableSum(_investors[addr], _totalInvestors, _stagesInvestors);\n    }\n\n    function _getAvailableSum (Person memory person, uint totalBudget, uint[] memory stages) private view\n    returns (uint) {\n        uint lastYears = _lifeYears(block.timestamp);\n        uint total = totalBudget;\n        if (stages.length > lastYears) {\n            uint index = lastYears > 0 ? lastYears - 1 : 0;\n            total = totalBudget.mul(stages[index]).div(100);\n            if (lastYears > 0) {\n                uint more = totalBudget.mul(stages[lastYears]).div(100).sub(total);\n                more = more.mul((block.timestamp - deployDate) % 365 days).div(365 days);\n                total = total.add(more);\n            } else {\n                total = total.mul((block.timestamp - deployDate) % 365 days).div(365 days);\n            }\n        }\n        total = total.mul(person.percent).div(percentDecimal);\n        if (total > person.limit) total = person.limit;\n        return total.sub(person.used);\n    }\n\n    function _initTeam(address addr, uint amount, uint[] memory stages) internal {\n        require(_totalTeam == 0);\n        _addressTeam = addr;\n        _totalTeam = amount;\n        _stagesTeam = stages;\n    }\n\n    function _initInvestors(address addr, uint amount, uint[] memory stages) internal {\n        require(_totalInvestors == 0);\n        _addressInvestors = addr;\n        _totalInvestors = amount;\n        _stagesInvestors = stages;\n    }\n\n}\n",
  "sourcePath": "/home/pirat/Desktop/DAO/contracts/Token/CitadelInvestors.sol",
  "compiler": {
    "name": "solc",
    "version": "0.6.2+commit.bacdbe57.Emscripten.clang"
  },
  "schemaVersion": "3.2.5",
  "updatedAt": "2020-12-28T08:47:25.027Z",
  "devdoc": {
    "methods": {
      "allowance(address,address)": {
        "details": "See {IERC20-allowance}."
      },
      "approve(address,uint256)": {
        "details": "See {IERC20-approve}.     * Requirements:     * - `spender` cannot be the zero address."
      },
      "balanceOf(address)": {
        "details": "See {IERC20-balanceOf}."
      },
      "decimals()": {
        "details": "Returns the number of decimals used to get its user representation. For example, if `decimals` equals `2`, a balance of `505` tokens should be displayed to a user as `5,05` (`505 / 10 ** 2`).     * Tokens usually opt for a value of 18, imitating the relationship between Ether and Wei. This is the value {ERC20} uses, unless {_setupDecimals} is called.     * NOTE: This information is only used for _display_ purposes: it in no way affects any of the arithmetic of the contract, including {IERC20-balanceOf} and {IERC20-transfer}."
      },
      "decreaseAllowance(address,uint256)": {
        "details": "Atomically decreases the allowance granted to `spender` by the caller.     * This is an alternative to {approve} that can be used as a mitigation for problems described in {IERC20-approve}.     * Emits an {Approval} event indicating the updated allowance.     * Requirements:     * - `spender` cannot be the zero address. - `spender` must have allowance for the caller of at least `subtractedValue`."
      },
      "increaseAllowance(address,uint256)": {
        "details": "Atomically increases the allowance granted to `spender` by the caller.     * This is an alternative to {approve} that can be used as a mitigation for problems described in {IERC20-approve}.     * Emits an {Approval} event indicating the updated allowance.     * Requirements:     * - `spender` cannot be the zero address."
      },
      "name()": {
        "details": "Returns the name of the token."
      },
      "owner()": {
        "details": "Returns the address of the current owner."
      },
      "paused()": {
        "details": "Returns true if the contract is paused, and false otherwise."
      },
      "renounceOwnership()": {
        "details": "Leaves the contract without owner. It will not be possible to call `onlyOwner` functions anymore. Can only be called by the current owner.     * NOTE: Renouncing ownership will leave the contract without an owner, thereby removing any functionality that is only available to the owner."
      },
      "symbol()": {
        "details": "Returns the symbol of the token, usually a shorter version of the name."
      },
      "totalSupply()": {
        "details": "See {IERC20-totalSupply}."
      },
      "transfer(address,uint256)": {
        "details": "See {IERC20-transfer}.     * Requirements:     * - `recipient` cannot be the zero address. - the caller must have a balance of at least `amount`."
      },
      "transferFrom(address,address,uint256)": {
        "details": "See {IERC20-transferFrom}.     * Emits an {Approval} event indicating the updated allowance. This is not required by the EIP. See the note at the beginning of {ERC20};     * Requirements: - `sender` and `recipient` cannot be the zero address. - `sender` must have a balance of at least `amount`. - the caller must have allowance for ``sender``'s tokens of at least `amount`."
      },
      "transferOwnership(address)": {
        "details": "Transfers ownership of the contract to a new account (`newOwner`). Can only be called by the current owner."
      }
    }
  },
  "userdoc": {
    "methods": {}
  }
}