{
  "contractName": "CitadelTest",
  "abi": [
    {
      "inputs": [
        {
          "internalType": "uint256",
          "name": "initialSupply",
          "type": "uint256"
        }
      ],
      "stateMutability": "nonpayable",
      "type": "constructor"
    },
    {
      "anonymous": false,
      "inputs": [
        {
          "indexed": true,
          "internalType": "address",
          "name": "owner",
          "type": "address"
        },
        {
          "indexed": true,
          "internalType": "address",
          "name": "spender",
          "type": "address"
        },
        {
          "indexed": false,
          "internalType": "uint256",
          "name": "value",
          "type": "uint256"
        }
      ],
      "name": "Approval",
      "type": "event"
    },
    {
      "anonymous": false,
      "inputs": [
        {
          "indexed": true,
          "internalType": "uint256",
          "name": "issueId",
          "type": "uint256"
        },
        {
          "indexed": false,
          "internalType": "uint256",
          "name": "pct",
          "type": "uint256"
        }
      ],
      "name": "ChangeInflation",
      "type": "event"
    },
    {
      "anonymous": false,
      "inputs": [
        {
          "indexed": true,
          "internalType": "uint256",
          "name": "issueId",
          "type": "uint256"
        },
        {
          "indexed": false,
          "internalType": "uint256",
          "name": "pct",
          "type": "uint256"
        }
      ],
      "name": "ChangeVesting",
      "type": "event"
    },
    {
      "anonymous": false,
      "inputs": [
        {
          "indexed": true,
          "internalType": "address",
          "name": "previousOwner",
          "type": "address"
        },
        {
          "indexed": true,
          "internalType": "address",
          "name": "newOwner",
          "type": "address"
        }
      ],
      "name": "OwnershipTransferred",
      "type": "event"
    },
    {
      "anonymous": false,
      "inputs": [
        {
          "indexed": false,
          "internalType": "address",
          "name": "account",
          "type": "address"
        }
      ],
      "name": "Paused",
      "type": "event"
    },
    {
      "anonymous": false,
      "inputs": [
        {
          "indexed": true,
          "internalType": "address",
          "name": "from",
          "type": "address"
        },
        {
          "indexed": true,
          "internalType": "address",
          "name": "to",
          "type": "address"
        },
        {
          "indexed": false,
          "internalType": "uint256",
          "name": "value",
          "type": "uint256"
        }
      ],
      "name": "Transfer",
      "type": "event"
    },
    {
      "anonymous": false,
      "inputs": [
        {
          "indexed": false,
          "internalType": "address",
          "name": "account",
          "type": "address"
        }
      ],
      "name": "Unpaused",
      "type": "event"
    },
    {
      "inputs": [],
      "name": "_bankAddress",
      "outputs": [
        {
          "internalType": "address",
          "name": "",
          "type": "address"
        }
      ],
      "stateMutability": "view",
      "type": "function"
    },
    {
      "inputs": [
        {
          "internalType": "address",
          "name": "owner",
          "type": "address"
        },
        {
          "internalType": "address",
          "name": "spender",
          "type": "address"
        }
      ],
      "name": "allowance",
      "outputs": [
        {
          "internalType": "uint256",
          "name": "",
          "type": "uint256"
        }
      ],
      "stateMutability": "view",
      "type": "function"
    },
    {
      "inputs": [
        {
          "internalType": "address",
          "name": "spender",
          "type": "address"
        },
        {
          "internalType": "uint256",
          "name": "amount",
          "type": "uint256"
        }
      ],
      "name": "approve",
      "outputs": [
        {
          "internalType": "bool",
          "name": "",
          "type": "bool"
        }
      ],
      "stateMutability": "nonpayable",
      "type": "function"
    },
    {
      "inputs": [
        {
          "internalType": "address",
          "name": "account",
          "type": "address"
        }
      ],
      "name": "balanceOf",
      "outputs": [
        {
          "internalType": "uint256",
          "name": "",
          "type": "uint256"
        }
      ],
      "stateMutability": "view",
      "type": "function"
    },
    {
      "inputs": [
        {
          "internalType": "uint256",
          "name": "amount",
          "type": "uint256"
        }
      ],
      "name": "burn",
      "outputs": [],
      "stateMutability": "nonpayable",
      "type": "function"
    },
    {
      "inputs": [],
      "name": "countInflationPoints",
      "outputs": [
        {
          "internalType": "uint256",
          "name": "",
          "type": "uint256"
        }
      ],
      "stateMutability": "view",
      "type": "function"
    },
    {
      "inputs": [],
      "name": "decimals",
      "outputs": [
        {
          "internalType": "uint8",
          "name": "",
          "type": "uint8"
        }
      ],
      "stateMutability": "view",
      "type": "function"
    },
    {
      "inputs": [
        {
          "internalType": "address",
          "name": "spender",
          "type": "address"
        },
        {
          "internalType": "uint256",
          "name": "subtractedValue",
          "type": "uint256"
        }
      ],
      "name": "decreaseAllowance",
      "outputs": [
        {
          "internalType": "bool",
          "name": "",
          "type": "bool"
        }
      ],
      "stateMutability": "nonpayable",
      "type": "function"
    },
    {
      "inputs": [
        {
          "internalType": "address",
          "name": "from",
          "type": "address"
        },
        {
          "internalType": "uint256",
          "name": "amount",
          "type": "uint256"
        }
      ],
      "name": "delegateToDAO",
      "outputs": [],
      "stateMutability": "nonpayable",
      "type": "function"
    },
    {
      "inputs": [
        {
          "internalType": "address",
          "name": "to",
          "type": "address"
        },
        {
          "internalType": "uint256",
          "name": "amount",
          "type": "uint256"
        }
      ],
      "name": "delegateTokens",
      "outputs": [],
      "stateMutability": "nonpayable",
      "type": "function"
    },
    {
      "inputs": [],
      "name": "deployDate",
      "outputs": [
        {
          "internalType": "uint256",
          "name": "",
          "type": "uint256"
        }
      ],
      "stateMutability": "view",
      "type": "function"
    },
    {
      "inputs": [],
      "name": "deployed",
      "outputs": [
        {
          "internalType": "uint256",
          "name": "",
          "type": "uint256"
        }
      ],
      "stateMutability": "view",
      "type": "function"
    },
    {
      "inputs": [],
      "name": "getDaoAddress",
      "outputs": [
        {
          "internalType": "address",
          "name": "",
          "type": "address"
        }
      ],
      "stateMutability": "view",
      "type": "function"
    },
    {
      "inputs": [],
      "name": "getInflationStartDate",
      "outputs": [
        {
          "internalType": "uint256",
          "name": "",
          "type": "uint256"
        }
      ],
      "stateMutability": "view",
      "type": "function"
    },
    {
      "inputs": [],
      "name": "getMaxSupply",
      "outputs": [
        {
          "internalType": "uint256",
          "name": "",
          "type": "uint256"
        }
      ],
      "stateMutability": "view",
      "type": "function"
    },
    {
      "inputs": [],
      "name": "getSavedInflationYear",
      "outputs": [
        {
          "internalType": "uint256",
          "name": "",
          "type": "uint256"
        }
      ],
      "stateMutability": "view",
      "type": "function"
    },
    {
      "inputs": [],
      "name": "getVestingAddress",
      "outputs": [
        {
          "internalType": "address",
          "name": "",
          "type": "address"
        }
      ],
      "stateMutability": "view",
      "type": "function"
    },
    {
      "inputs": [
        {
          "internalType": "address",
          "name": "spender",
          "type": "address"
        },
        {
          "internalType": "uint256",
          "name": "addedValue",
          "type": "uint256"
        }
      ],
      "name": "increaseAllowance",
      "outputs": [
        {
          "internalType": "bool",
          "name": "",
          "type": "bool"
        }
      ],
      "stateMutability": "nonpayable",
      "type": "function"
    },
    {
      "inputs": [
        {
          "internalType": "uint256",
          "name": "index",
          "type": "uint256"
        }
      ],
      "name": "inflationPoint",
      "outputs": [
        {
          "components": [
            {
              "internalType": "uint256",
              "name": "inflationPct",
              "type": "uint256"
            },
            {
              "internalType": "uint256",
              "name": "stakingPct",
              "type": "uint256"
            },
            {
              "internalType": "uint256",
              "name": "currentSupply",
              "type": "uint256"
            },
            {
              "internalType": "uint256",
              "name": "yearlySupply",
              "type": "uint256"
            },
            {
              "internalType": "uint256",
              "name": "date",
              "type": "uint256"
            }
          ],
          "internalType": "struct CitadelInflation.InflationValues",
          "name": "",
          "type": "tuple"
        }
      ],
      "stateMutability": "view",
      "type": "function"
    },
    {
      "inputs": [
        {
          "internalType": "address",
          "name": "daoAddress",
          "type": "address"
        }
      ],
      "name": "initDaoTransport",
      "outputs": [],
      "stateMutability": "nonpayable",
      "type": "function"
    },
    {
      "inputs": [
        {
          "internalType": "address",
          "name": "vestAddress",
          "type": "address"
        }
      ],
      "name": "initVestingTransport",
      "outputs": [],
      "stateMutability": "nonpayable",
      "type": "function"
    },
    {
      "inputs": [
        {
          "internalType": "address",
          "name": "addr",
          "type": "address"
        },
        {
          "internalType": "uint256",
          "name": "index",
          "type": "uint256"
        }
      ],
      "name": "lockHistory",
      "outputs": [
        {
          "internalType": "uint256",
          "name": "value",
          "type": "uint256"
        },
        {
          "internalType": "uint256",
          "name": "date",
          "type": "uint256"
        }
      ],
      "stateMutability": "view",
      "type": "function"
    },
    {
      "inputs": [
        {
          "internalType": "address",
          "name": "addr",
          "type": "address"
        }
      ],
      "name": "lockHistoryCount",
      "outputs": [
        {
          "internalType": "uint256",
          "name": "",
          "type": "uint256"
        }
      ],
      "stateMutability": "view",
      "type": "function"
    },
    {
      "inputs": [
        {
          "internalType": "address",
          "name": "account",
          "type": "address"
        }
      ],
      "name": "lockedBalanceOf",
      "outputs": [
        {
          "internalType": "uint256",
          "name": "",
          "type": "uint256"
        }
      ],
      "stateMutability": "view",
      "type": "function"
    },
    {
      "inputs": [
        {
          "internalType": "address",
          "name": "",
          "type": "address"
        }
      ],
      "name": "lockedCoins",
      "outputs": [
        {
          "internalType": "uint256",
          "name": "",
          "type": "uint256"
        }
      ],
      "stateMutability": "view",
      "type": "function"
    },
    {
      "inputs": [],
      "name": "lockedSupply",
      "outputs": [
        {
          "internalType": "uint256",
          "name": "",
          "type": "uint256"
        }
      ],
      "stateMutability": "view",
      "type": "function"
    },
    {
      "inputs": [],
      "name": "name",
      "outputs": [
        {
          "internalType": "string",
          "name": "",
          "type": "string"
        }
      ],
      "stateMutability": "view",
      "type": "function"
    },
    {
      "inputs": [],
      "name": "owner",
      "outputs": [
        {
          "internalType": "address",
          "name": "",
          "type": "address"
        }
      ],
      "stateMutability": "view",
      "type": "function"
    },
    {
      "inputs": [],
      "name": "paused",
      "outputs": [
        {
          "internalType": "bool",
          "name": "",
          "type": "bool"
        }
      ],
      "stateMutability": "view",
      "type": "function"
    },
    {
      "inputs": [],
      "name": "percentDecimal",
      "outputs": [
        {
          "internalType": "uint256",
          "name": "",
          "type": "uint256"
        }
      ],
      "stateMutability": "view",
      "type": "function"
    },
    {
      "inputs": [
        {
          "internalType": "address",
          "name": "to",
          "type": "address"
        },
        {
          "internalType": "uint256",
          "name": "amount",
          "type": "uint256"
        }
      ],
      "name": "redeemFromDAO",
      "outputs": [],
      "stateMutability": "nonpayable",
      "type": "function"
    },
    {
      "inputs": [],
      "name": "renounceOwnership",
      "outputs": [],
      "stateMutability": "nonpayable",
      "type": "function"
    },
    {
      "inputs": [],
      "name": "restake",
      "outputs": [],
      "stateMutability": "nonpayable",
      "type": "function"
    },
    {
      "inputs": [
        {
          "internalType": "uint256",
          "name": "amount",
          "type": "uint256"
        }
      ],
      "name": "stake",
      "outputs": [],
      "stateMutability": "nonpayable",
      "type": "function"
    },
    {
      "inputs": [],
      "name": "startInflation",
      "outputs": [],
      "stateMutability": "nonpayable",
      "type": "function"
    },
    {
      "inputs": [
        {
          "internalType": "uint256",
          "name": "date",
          "type": "uint256"
        }
      ],
      "name": "startInflationTo",
      "outputs": [],
      "stateMutability": "nonpayable",
      "type": "function"
    },
    {
      "inputs": [],
      "name": "symbol",
      "outputs": [
        {
          "internalType": "string",
          "name": "",
          "type": "string"
        }
      ],
      "stateMutability": "view",
      "type": "function"
    },
    {
      "inputs": [],
      "name": "totalSupply",
      "outputs": [
        {
          "internalType": "uint256",
          "name": "",
          "type": "uint256"
        }
      ],
      "stateMutability": "view",
      "type": "function"
    },
    {
      "inputs": [
        {
          "internalType": "uint256",
          "name": "index",
          "type": "uint256"
        }
      ],
      "name": "totalSupplyHistory",
      "outputs": [
        {
          "internalType": "uint256",
          "name": "value",
          "type": "uint256"
        },
        {
          "internalType": "uint256",
          "name": "date",
          "type": "uint256"
        }
      ],
      "stateMutability": "view",
      "type": "function"
    },
    {
      "inputs": [],
      "name": "totalSupplyHistoryCount",
      "outputs": [
        {
          "internalType": "uint256",
          "name": "",
          "type": "uint256"
        }
      ],
      "stateMutability": "view",
      "type": "function"
    },
    {
      "inputs": [
        {
          "internalType": "address",
          "name": "recipient",
          "type": "address"
        },
        {
          "internalType": "uint256",
          "name": "amount",
          "type": "uint256"
        }
      ],
      "name": "transfer",
      "outputs": [
        {
          "internalType": "bool",
          "name": "",
          "type": "bool"
        }
      ],
      "stateMutability": "nonpayable",
      "type": "function"
    },
    {
      "inputs": [
        {
          "internalType": "address",
          "name": "sender",
          "type": "address"
        },
        {
          "internalType": "address",
          "name": "recipient",
          "type": "address"
        },
        {
          "internalType": "uint256",
          "name": "amount",
          "type": "uint256"
        }
      ],
      "name": "transferFrom",
      "outputs": [
        {
          "internalType": "bool",
          "name": "",
          "type": "bool"
        }
      ],
      "stateMutability": "nonpayable",
      "type": "function"
    },
    {
      "inputs": [
        {
          "internalType": "address",
          "name": "newOwner",
          "type": "address"
        }
      ],
      "name": "transferOwnership",
      "outputs": [],
      "stateMutability": "nonpayable",
      "type": "function"
    },
    {
      "inputs": [
        {
          "internalType": "uint256",
          "name": "amount",
          "type": "uint256"
        }
      ],
      "name": "unstake",
      "outputs": [],
      "stateMutability": "nonpayable",
      "type": "function"
    },
    {
      "inputs": [
        {
          "internalType": "uint256",
          "name": "issueId",
          "type": "uint256"
        },
        {
          "internalType": "uint256",
          "name": "pct",
          "type": "uint256"
        }
      ],
      "name": "updateInflation",
      "outputs": [],
      "stateMutability": "nonpayable",
      "type": "function"
    },
    {
      "inputs": [
        {
          "internalType": "uint256",
          "name": "issueId",
          "type": "uint256"
        },
        {
          "internalType": "uint256",
          "name": "pct",
          "type": "uint256"
        }
      ],
      "name": "updateVesting",
      "outputs": [],
      "stateMutability": "nonpayable",
      "type": "function"
    },
    {
      "inputs": [
        {
          "internalType": "address",
          "name": "to",
          "type": "address"
        },
        {
          "internalType": "uint256",
          "name": "amount",
          "type": "uint256"
        }
      ],
      "name": "withdraw",
      "outputs": [],
      "stateMutability": "nonpayable",
      "type": "function"
    },
    {
      "inputs": [
        {
          "internalType": "uint256",
          "name": "date",
          "type": "uint256"
        }
      ],
      "name": "setTimestamp",
      "outputs": [],
      "stateMutability": "nonpayable",
      "type": "function"
    },
    {
      "inputs": [
        {
          "internalType": "uint256",
          "name": "pct",
          "type": "uint256"
        }
      ],
      "name": "setInflation",
      "outputs": [],
      "stateMutability": "nonpayable",
      "type": "function"
    }
  ],
  "bytecode": "0x60806040523480156200001157600080fd5b506040516200307f3803806200307f8339810160408190526200003491620005ea565b604080518082018252600b81526a4369746164656c2e6f6e6560a81b602080830191825283518085019094526003808552621610d560ea1b91850191909152825185949262000084929162000548565b5080516200009a90600490602084019062000548565b50506005805460ff19166012179055506000620000bf6001600160e01b036200023b16565b60058054610100600160a81b0319166101006001600160a01b03841690810291909117909155604051919250906000907f8be0079c531659141344cd1fd0a4f28419497f9722a3daafe3b4186f6b6457e0908290a3506005805460ff60a81b19169055600680546001600160a01b031916301781554260075566038d7ea4c6800060085562000157906001600160e01b036200024016565b60006200017a620f4240631dcd65006200025660201b620027f41790919060201c565b9050620001926001826001600160e01b03620002a816565b620001ac818061032060286001600160e01b036200039416565b620001c160026001600160e01b036200044d16565b620001f630620001e7620f4240631dcd65006200025660201b620027f41790919060201c565b6001600160e01b03620002a816565b62000213620f4240836200025660201b620027f41790919060201c565b620002266001600160e01b036200049016565b146200022e57fe5b505042601755506200073c565b335b90565b6005805460ff191660ff92909216919091179055565b6000826200026757506000620002a2565b828202828482816200027557fe5b04146200029f5760405162461bcd60e51b815260040162000296906200063a565b60405180910390fd5b90505b92915050565b6001600160a01b038216620002d15760405162461bcd60e51b81526004016200029690620006b2565b620002e8600083836001600160e01b036200049616565b62000304816002546200050a60201b62001c961790919060201c565b6002556001600160a01b038216600090815260208181526040909120546200033791839062001c966200050a821b17901c565b6001600160a01b0383166000818152602081905260408082209390935591519091907fddf252ad1be2c89b69c2b068fc378daa952ba7f163c4a11628f55a4df523b3ef906200038890859062000733565b60405180910390a35050565b600d5460ff1615620003a557600080fd5b600d805460ff19166001179055838301600e55600f84905560118490556040805160a081018252838152602081018390529081018590526060810185905260129060808101620003fd6001600160e01b036200053216565b905281546001818101845560009384526020938490208351600590930201918255928201519281019290925560408101516002830155606081015160038301556080015160049091015550505050565b60145460ff16156200045e57600080fd5b601480546001600160a01b0390921661010002610100600160a81b031960ff1990931660011792909216919091179055565b60025490565b620004ae8383836200050560201b6200204f1760201c565b6103e83311620004d25760405162461bcd60e51b815260040162000296906200067b565b620004e56001600160e01b036200053816565b15620005055760405162461bcd60e51b81526004016200029690620006e9565b505050565b6000828201838110156200029f5760405162461bcd60e51b8152600401620002969062000603565b60175490565b600554600160a81b900460ff1690565b828054600181600116156101000203166002900490600052602060002090601f016020900481019282601f106200058b57805160ff1916838001178555620005bb565b82800160010185558215620005bb579182015b82811115620005bb5782518255916020019190600101906200059e565b50620005c9929150620005cd565b5090565b6200023d91905b80821115620005c95760008155600101620005d4565b600060208284031215620005fc578081fd5b5051919050565b6020808252601b908201527f536166654d6174683a206164646974696f6e206f766572666c6f770000000000604082015260600190565b60208082526021908201527f536166654d6174683a206d756c7469706c69636174696f6e206f766572666c6f6040820152607760f81b606082015260800190565b60208082526019908201527f4369746164656c546f6b656e3a2066616b652073656e64657200000000000000604082015260600190565b6020808252601f908201527f45524332303a206d696e7420746f20746865207a65726f206164647265737300604082015260600190565b6020808252602a908201527f45524332305061757361626c653a20746f6b656e207472616e736665722077686040820152691a5b19481c185d5cd95960b21b606082015260800190565b90815260200190565b612933806200074c6000396000f3fe608060405234801561001057600080fd5b50600436106102bb5760003560e01c806370a0823111610182578063bf17282a116100e9578063e0a8ed52116100a2578063f3fef3a31161007c578063f3fef3a3146105b8578063f905c15a146105cb578063f9b7ce02146105d3578063ff1764a4146105db576102bb565b8063e0a8ed5214610572578063f1474bd814610585578063f2fde38b146105a5576102bb565b8063bf17282a1461050b578063c108a4021461051e578063c2ad5b7414610531578063c686781d14610544578063ca5c7b9114610557578063dd62ed3e1461055f576102bb565b8063a0a2b5731161013b578063a0a2b573146104a4578063a457c2d7146104b7578063a694fc3a146104ca578063a9059cbb146104dd578063ac3cd7c6146104f0578063ba1a681f14610503576102bb565b806370a0823114610453578063715018a6146104665780637fa7faf81461046e57806389bb6081146104815780638da5cb5b1461049457806395d89b411461049c576102bb565b806344c404641161022657806353d168e7116101df57806353d168e71461040d57806355b28b3714610415578063593557361461041d5780635c975abb146104305780636641d9a01461043857806369668fe91461044b576102bb565b806344c40464146103b95780634ab68e14146103cc5780634b45aa12146103d45780634c0f38c2146103dc5780634cf54195146103e45780634f91440d14610405576102bb565b80632e17de78116102785780632e17de7814610343578063313ce56714610358578063395093511461036d5780633ba71a151461038057806342966c681461039357806344263fcb146103a6576102bb565b806306fdde03146102c0578063095ea7b3146102de57806318160ddd146102fe5780631d0a67e1146103135780631d68702d1461031b57806323b872dd14610330575b600080fd5b6102c86105e3565b6040516102d591906121e0565b60405180910390f35b6102f16102ec366004612146565b610679565b6040516102d591906121d5565b610306610697565b6040516102d591906127ba565b61030661069d565b6103236106a3565b6040516102d591906121c1565b6102f161033e366004612106565b6106b2565b610356610351366004612170565b61073f565b005b610360610899565b6040516102d591906127d1565b6102f161037b366004612146565b6108a2565b61035661038e366004612146565b6108f6565b6103566103a1366004612170565b610962565b6103566103b43660046120b7565b6109b5565b6103566103c7366004612146565b610a11565b610306610a5d565b610306610a63565b610306610a69565b6103f76103f2366004612146565b610a6f565b6040516102d59291906127c3565b610356610b2b565b610323610c62565b610306610c71565b61030661042b3660046120b7565b610c77565b6102f1610c92565b6103f7610446366004612170565b610ca2565b610306610d0f565b6103066104613660046120b7565b610d15565b610356610d30565b61035661047c3660046120b7565b610dba565b61030661048f3660046120b7565b610e16565b610323610e31565b6102c8610e45565b6103566104b2366004612170565b610ea6565b6102f16104c5366004612146565b610ee5565b6103566104d8366004612170565b610f53565b6102f16104eb366004612146565b610faf565b6103566104fe3660046121a0565b610fc3565b6103066110f3565b6103066105193660046120b7565b6110f9565b61035661052c3660046121a0565b61110b565b61035661053f366004612146565b61122e565b610356610552366004612170565b611277565b61030661133c565b61030661056d3660046120d2565b61134b565b610356610580366004612170565b611376565b610598610593366004612170565b6113f0565b6040516102d59190612780565b6103566105b33660046120b7565b611478565b6103566105c6366004612146565b61153f565b61030661157f565b610356611585565b610323611615565b60038054604080516020601f600260001961010060018816150201909516949094049384018190048102820181019092528281526060939092909183018282801561066f5780601f106106445761010080835404028352916020019161066f565b820191906000526020600020905b81548152906001019060200180831161065257829003601f168201915b5050505050905090565b600061068d610686611624565b8484611628565b5060015b92915050565b60025490565b60105490565b600a546001600160a01b031690565b60006106bf8484846116dc565b610735846106cb611624565b610730856040518060600160405280602881526020016128b1602891396001600160a01b038a16600090815260016020526040812090610709611624565b6001600160a01b03168152602081019190915260400160002054919063ffffffff6117fd16565b611628565b5060019392505050565b6000600c5411801561075a5750610754611829565b600c5411155b61077f5760405162461bcd60e51b8152600401610776906124d3565b60405180910390fd5b3360009081526013602052604090205481111561079b57600080fd5b6107a361182f565b6014546107bf9061010090046001600160a01b031633836116dc565b336000908152601360205260409020546107df908263ffffffff611b4716565b336000908152601360205260409081902091909155805180820190915260159080610808611b90565b8152602001610815611829565b905281546001818101845560009384526020808520845160029094020192835592830151910155338252601681526040808320815180830183526013845291909320548152908101610865611829565b9052815460018181018455600093845260209384902083516002909302019182559290910151910155610896611bad565b50565b60055460ff1690565b600061068d6108af611624565b8461073085600160006108c0611624565b6001600160a01b03908116825260208083019390935260409182016000908120918c16815292529020549063ffffffff611c9616565b600a546001600160a01b0316331461090d57600080fd5b610919600a83836116dc565b6001600160a01b0382166000908152600b6020526040902054610942908263ffffffff611b4716565b6001600160a01b039092166000908152600b602052604090209190915550565b6103e833116109835760405162461bcd60e51b81526004016107769061253f565b8061098d33610d15565b10156109ab5760405162461bcd60e51b815260040161077690612307565b6108963382611cbb565b6109bd611624565b60055461010090046001600160a01b039081169116146109ef5760405162461bcd60e51b81526004016107769061250a565b600a80546001600160a01b0319166001600160a01b0392909216919091179055565b600a546001600160a01b03163314610a2857600080fd5b610a3482600a836116dc565b6001600160a01b0382166000908152600b6020526040902054610942908263ffffffff611c9616565b60155490565b60125490565b600e5490565b6001600160a01b03821660009081526016602052604081205481908310610aa85760405162461bcd60e51b81526004016107769061244a565b6001600160a01b0384166000908152601660205260409020805484908110610acc57fe5b906000526020600020906002020160000154915060166000856001600160a01b03166001600160a01b031681526020019081526020016000208381548110610b1057fe5b90600052602060002090600202016001015490509250929050565b6000600c54118015610b465750610b40611829565b600c5411155b610b625760405162461bcd60e51b8152600401610776906124d3565b6009546001600160a01b0316610b8a5760405162461bcd60e51b815260040161077690612233565b60095460405163ddeae03360e01b81526000916001600160a01b03169063ddeae03390610bbb9033906004016121c1565b602060405180830381600087803b158015610bd557600080fd5b505af1158015610be9573d6000803e3d6000fd5b505050506040513d601f19601f82011682018060405250610c0d9190810190612188565b905060008111610c1c57600080fd5b610c2461182f565b601454610c429060019061010090046001600160a01b0316836116dc565b336000908152601360205260409020546107df908263ffffffff611c9616565b6006546001600160a01b031681565b600c5490565b6001600160a01b031660009081526013602052604090205490565b600554600160a81b900460ff1690565b60155460009081908310610cc85760405162461bcd60e51b81526004016107769061244a565b60158381548110610cd557fe5b906000526020600020906002020160000154915060158381548110610cf657fe5b9060005260206000209060020201600101549050915091565b60075481565b6001600160a01b031660009081526020819052604090205490565b610d38611624565b60055461010090046001600160a01b03908116911614610d6a5760405162461bcd60e51b81526004016107769061250a565b60055460405160009161010090046001600160a01b0316907f8be0079c531659141344cd1fd0a4f28419497f9722a3daafe3b4186f6b6457e0908390a360058054610100600160a81b0319169055565b610dc2611624565b60055461010090046001600160a01b03908116911614610df45760405162461bcd60e51b81526004016107769061250a565b600980546001600160a01b0319166001600160a01b0392909216919091179055565b6001600160a01b031660009081526016602052604090205490565b60055461010090046001600160a01b031690565b60048054604080516020601f600260001961010060018816150201909516949094049384018190048102820181019092528281526060939092909183018282801561066f5780601f106106445761010080835404028352916020019161066f565b610eae611624565b60055461010090046001600160a01b03908116911614610ee05760405162461bcd60e51b81526004016107769061250a565b601755565b600061068d610ef2611624565b84610730856040518060600160405280602581526020016128d96025913960016000610f1c611624565b6001600160a01b03908116825260208083019390935260409182016000908120918d1681529252902054919063ffffffff6117fd16565b6000600c54118015610f6e5750610f68611829565b600c5411155b610f8a5760405162461bcd60e51b8152600401610776906124d3565b610f9261182f565b601454610c4290339061010090046001600160a01b0316836116dc565b600061068d610fbc611624565b84846116dc565b600a546001600160a01b03163314610fda57600080fd5b600a8110158015610fec5750605a8111155b6110085760405162461bcd60e51b8152600401610776906126a4565b611010612071565b60128054600019810190811061102257fe5b90600052602060002090600502016040518060a00160405290816000820154815260200160018201548152602001600282015481526020016003820154815260200160048201548152505090506000816080015161107e611829565b03905062278d008110156110a45760405162461bcd60e51b8152600401610776906126ea565b6110ac61182f565b6110b583611da9565b837f96a647810411309169e354743b6a4e9d05e3c777f5fae278e65f6168fe7279ba846040516110e591906127ba565b60405180910390a250505050565b60085481565b60136020526000908152604090205481565b600a546001600160a01b0316331461112257600080fd5b60c881101580156111355750610bb88111155b6111515760405162461bcd60e51b81526004016107769061248e565b611159612071565b60128054600019810190811061116b57fe5b90600052602060002090600502016040518060a0016040529081600082015481526020016001820154815260200160028201548152602001600382015481526020016004820154815250509050600081608001516111c7611829565b03905062278d008110156111ed5760405162461bcd60e51b8152600401610776906126ea565b6111f561182f565b6111fe83611ee9565b837f8f4db2ceeda2c579bf7d6f7036f9f300565d76719308713e3c85d3484b4ebb30846040516110e591906127ba565b611236611624565b60055461010090046001600160a01b039081169116146112685760405162461bcd60e51b81526004016107769061250a565b6112733083836116dc565b5050565b61127f611624565b60055461010090046001600160a01b039081169116146112b15760405162461bcd60e51b81526004016107769061250a565b600c5415806112c857506112c3611829565b600c54115b6112e45760405162461bcd60e51b8152600401610776906125fc565b6112ec611829565b811161130a5760405162461bcd60e51b8152600401610776906122c4565b600c81905560108190556012805482919060009061132457fe5b90600052602060002090600502016004018190555050565b6000611346611b90565b905090565b6001600160a01b03918216600090815260016020908152604080832093909416825291909152205490565b61137e611624565b60055461010090046001600160a01b039081169116146113b05760405162461bcd60e51b81526004016107769061250a565b60c881101580156113c35750610bb88111155b6113df5760405162461bcd60e51b81526004016107769061248e565b6113e761182f565b61089681611ee9565b6113f8612071565b60125482106114195760405162461bcd60e51b815260040161077690612408565b6012828154811061142657fe5b90600052602060002090600502016040518060a0016040529081600082015481526020016001820154815260200160028201548152602001600382015481526020016004820154815250509050919050565b611480611624565b60055461010090046001600160a01b039081169116146114b25760405162461bcd60e51b81526004016107769061250a565b6001600160a01b0381166114d85760405162461bcd60e51b815260040161077690612349565b6005546040516001600160a01b0380841692610100900416907f8be0079c531659141344cd1fd0a4f28419497f9722a3daafe3b4186f6b6457e090600090a3600580546001600160a01b0390921661010002610100600160a81b0319909216919091179055565b6009546001600160a01b03163314806115625750600a546001600160a01b031633145b61156b57600080fd5b61157361182f565b611273600183836116dc565b60075490565b61158d611624565b60055461010090046001600160a01b039081169116146115bf5760405162461bcd60e51b81526004016107769061250a565b600c54156115df5760405162461bcd60e51b8152600401610776906125fc565b6115e7611829565b600c8190556010819055601280546000906115fe57fe5b906000526020600020906005020160040181905550565b6009546001600160a01b031690565b3390565b6001600160a01b03831661164e5760405162461bcd60e51b815260040161077690612633565b6001600160a01b0382166116745760405162461bcd60e51b81526004016107769061238f565b6001600160a01b0380841660008181526001602090815260408083209487168084529490915290819020849055517f8c5be1e5ebec7d5bd14f71427d1e84f3dd0314c0f7b2291e5b200ac8c7c3b925906116cf9085906127ba565b60405180910390a3505050565b6001600160a01b0383166117025760405162461bcd60e51b8152600401610776906125b7565b6001600160a01b0382166117285760405162461bcd60e51b815260040161077690612281565b611733838383611ffe565b6117768160405180606001604052806026815260200161288b602691396001600160a01b038616600090815260208190526040902054919063ffffffff6117fd16565b6001600160a01b0380851660009081526020819052604080822093909355908416815220546117ab908263ffffffff611c9616565b6001600160a01b0380841660008181526020819052604090819020939093559151908516907fddf252ad1be2c89b69c2b068fc378daa952ba7f163c4a11628f55a4df523b3ef906116cf9085906127ba565b600081848411156118215760405162461bcd60e51b815260040161077691906121e0565b505050900390565b60175490565b600f54600e54141561184057611b45565b600060105461184d611829565b0390506301e133808110156118625750611b45565b61186a612071565b60128054600019810190811061187c57fe5b600091825260208083206040805160a0810182526005909402909101805480855260018201549385019390935260028101549184019190915260038101546060840152600401546080830152909250905b6301e133808404811015611b3a576301e1338060106000828254019250508190555060006127106301e133808560800151601054038560115402028161190f57fe5b048161191757fe5b049050600e54600f54820110158061192f575060c883105b156119c357600e54600f8190555060126040518060a00160405280611952612054565b815260208781015181830152600f54604080840182905260608085019290925260105460809485015285546001818101885560009788529684902086516005909202019081559285015195830195909555938301516002820155928201516003840155015160049091015550611b3a565b600f80548201905560c8831115611a06576032831180156119e7575060c860328403115b156119f3576032830392505b60c8831015611a015760c892505b611a2a565b8260c81415611a2a576000611a19612054565b905060c8811015611a28578093505b505b506040805160a081018252838152602085810151908201908152600f549282018381526060830193845260105460808401908152601280546001808201835560009290925294517fbb8a6a4669ba250d26cd7a459eca9d215f8307e33aebe50379bc5a3617ec344460059096029586015592517fbb8a6a4669ba250d26cd7a459eca9d215f8307e33aebe50379bc5a3617ec344585015590517fbb8a6a4669ba250d26cd7a459eca9d215f8307e33aebe50379bc5a3617ec344684015592517fbb8a6a4669ba250d26cd7a459eca9d215f8307e33aebe50379bc5a3617ec344783015591517fbb8a6a4669ba250d26cd7a459eca9d215f8307e33aebe50379bc5a3617ec344890910155016118cd565b5050600f5460115550505b565b6000611b8983836040518060400160405280601e81526020017f536166654d6174683a207375627472616374696f6e206f766572666c6f7700008152506117fd565b9392505050565b6014546000906113469061010090046001600160a01b0316610d15565b600a546001600160a01b031615611c2157600a5460405163070c88f360e41b81526001600160a01b03909116906370c88f3090611bee9033906004016121c1565b600060405180830381600087803b158015611c0857600080fd5b505af1158015611c1c573d6000803e3d6000fd5b505050505b6009546001600160a01b031615611b45576009546040516303d9eba760e41b81526001600160a01b0390911690633d9eba7090611c629033906004016121c1565b600060405180830381600087803b158015611c7c57600080fd5b505af1158015611c90573d6000803e3d6000fd5b50505050565b600082820183811015611b895760405162461bcd60e51b8152600401610776906123d1565b6001600160a01b038216611ce15760405162461bcd60e51b815260040161077690612576565b611ced82600083611ffe565b611d3081604051806060016040528060228152602001612869602291396001600160a01b038516600090815260208190526040902054919063ffffffff6117fd16565b6001600160a01b038316600090815260208190526040902055600254611d5c908263ffffffff611b4716565b6002556040516000906001600160a01b038416907fddf252ad1be2c89b69c2b068fc378daa952ba7f163c4a11628f55a4df523b3ef90611d9d9085906127ba565b60405180910390a35050565b600f54600e541415611dba57600080fd5b611dc2612071565b601280546000198101908110611dd457fe5b90600052602060002090600502016040518060a001604052908160008201548152602001600182015481526020016002820154815260200160038201548152602001600482015481525050905060008160800151611e30611829565b0390506127106301e13380828460000151601154020281611e4d57fe5b0481611e5557fe5b04600f6000828254019250508190555060126040518060a0016040528084600001518152602001858152602001600f5481526020016011548152602001611e9a611829565b9052815460018181018455600093845260209384902083516005909302019182559282015192810192909255604081015160028301556060810151600383015560800151600490910155505050565b600f54600e541415611efa57600080fd5b611f02612071565b601280546000198101908110611f1457fe5b90600052602060002090600502016040518060a001604052908160008201548152602001600182015481526020016002820154815260200160038201548152602001600482015481525050905060008160800151611f70611829565b0390506127106301e13380828460000151601154020281611f8d57fe5b0481611f9557fe5b600f8054929091049091019055611faa612054565b831115611fc95760405162461bcd60e51b815260040161077690612677565b60126040518060a0016040528085815260200184602001518152602001600f5481526020016011548152602001611e9a611829565b61200983838361204f565b6103e8331161202a5760405162461bcd60e51b81526004016107769061253f565b612032610c92565b1561204f5760405162461bcd60e51b815260040161077690612736565b505050565b6000600f54600f54600e5403612710028161206b57fe5b04905090565b6040518060a0016040528060008152602001600081526020016000815260200160008152602001600081525090565b80356001600160a01b038116811461069157600080fd5b6000602082840312156120c8578081fd5b611b8983836120a0565b600080604083850312156120e4578081fd5b6120ee84846120a0565b91506120fd84602085016120a0565b90509250929050565b60008060006060848603121561211a578081fd5b8335612125816127df565b92506020840135612135816127df565b929592945050506040919091013590565b60008060408385031215612158578182fd5b61216284846120a0565b946020939093013593505050565b600060208284031215612181578081fd5b5035919050565b600060208284031215612199578081fd5b5051919050565b600080604083850312156121b2578182fd5b50508035926020909101359150565b6001600160a01b0391909116815260200190565b901515815260200190565b6000602080835283518082850152825b8181101561220c578581018301518582016040015282016121f0565b8181111561221d5783604083870101525b50601f01601f1916929092016040019392505050565b6020808252602e908201527f4369746164656c546f6b656e4c6f636b65723a2076657374696e6720636f6e7460408201526d1c9858dd081d5b9919599a5b995960921b606082015260800190565b60208082526023908201527f45524332303a207472616e7366657220746f20746865207a65726f206164647260408201526265737360e81b606082015260800190565b60208082526023908201527f5374617274696e672064617465206d75737420626520696e207468652066757460408201526275726560e81b606082015260800190565b60208082526022908201527f4369746164656c546f6b656e3a20696e73756666696369656e742062616c616e604082015261636560f01b606082015260800190565b60208082526026908201527f4f776e61626c653a206e6577206f776e657220697320746865207a65726f206160408201526564647265737360d01b606082015260800190565b60208082526022908201527f45524332303a20617070726f766520746f20746865207a65726f206164647265604082015261737360f01b606082015260800190565b6020808252601b908201527f536166654d6174683a206164646974696f6e206f766572666c6f770000000000604082015260600190565b60208082526022908201527f4369746164656c496e666c6174696f6e3a20756e657870656374656420696e646040820152610caf60f31b606082015260800190565b60208082526024908201527f4369746164656c546f6b656e4c6f636b65723a20756e657870656374656420696040820152630dcc8caf60e31b606082015260800190565b60208082526025908201527f50657263656e74616765206d757374206265206265747765656e20322520616e604082015264642033302560d81b606082015260800190565b6020808252601d908201527f4369746164656c496e666c6174696f6e3a20636f6d696e6720736f6f6e000000604082015260600190565b6020808252818101527f4f776e61626c653a2063616c6c6572206973206e6f7420746865206f776e6572604082015260600190565b60208082526019908201527f4369746164656c546f6b656e3a2066616b652073656e64657200000000000000604082015260600190565b60208082526021908201527f45524332303a206275726e2066726f6d20746865207a65726f206164647265736040820152607360f81b606082015260800190565b60208082526025908201527f45524332303a207472616e736665722066726f6d20746865207a65726f206164604082015264647265737360d81b606082015260800190565b6020808252601c908201527f496e666c6174696f6e20697320616c7265616479207374617274656400000000604082015260600190565b60208082526024908201527f45524332303a20617070726f76652066726f6d20746865207a65726f206164646040820152637265737360e01b606082015260800190565b602080825260139082015272546f6f20686967682070657263656e7461676560681b604082015260600190565b60208082526026908201527f50657263656e74616765206d757374206265206265747765656e2031302520616040820152656e642039302560d01b606082015260800190565b6020808252602c908201527f596f75206861766520746f20776169742033302064617973206166746572206c60408201526b617374206368616e67696e6760a01b606082015260800190565b6020808252602a908201527f45524332305061757361626c653a20746f6b656e207472616e736665722077686040820152691a5b19481c185d5cd95960b21b606082015260800190565b600060a082019050825182526020830151602083015260408301516040830152606083015160608301526080830151608083015292915050565b90815260200190565b918252602082015260400190565b60ff91909116815260200190565b6001600160a01b038116811461089657600080fd5b60008261280357506000610691565b8282028284828161281057fe5b0414611b895760405162461bcd60e51b815260206004820152602160248201527f536166654d6174683a206d756c7469706c69636174696f6e206f766572666c6f6044820152607760f81b606482015260840161077656fe45524332303a206275726e20616d6f756e7420657863656564732062616c616e636545524332303a207472616e7366657220616d6f756e7420657863656564732062616c616e636545524332303a207472616e7366657220616d6f756e74206578636565647320616c6c6f77616e636545524332303a2064656372656173656420616c6c6f77616e63652062656c6f77207a65726fa26469706673582212201130fee8180252bf29bf869e447dc1cf420771d7387de9afa4c8f55aa990a70464736f6c63430006020033",
  "source": "// SPDX-License-Identifier: GPL-3.0\npragma solidity 0.6.2;\npragma experimental ABIEncoderV2;\n\n\nimport \"./Citadel.sol\";\n\n\ncontract CitadelTest is Citadel {\n\n    uint private _fakeTime;\n\n    constructor (\n        uint initialSupply\n    )\n    Citadel(initialSupply)\n    public {\n        _fakeTime = block.timestamp;\n    }\n\n    function setTimestamp(uint date) external onlyOwner {\n        _fakeTime = date;\n    }\n\n    function _timestamp() internal override view returns (uint) {\n        return _fakeTime;\n    }\n\n    function setInflation(uint pct) external onlyOwner {\n        require(pct >= 200 && pct <= 3000, \"Percentage must be between 2% and 30%\");\n        _makeInflationSnapshot();\n        _updateInflation(pct);\n    }\n\n}\n",
  "sourcePath": "/home/pirat/Desktop/DAO/contracts/CitadelTest.sol",
  "compiler": {
    "name": "solc",
    "version": "0.6.2+commit.bacdbe57.Emscripten.clang"
  },
  "schemaVersion": "3.2.5",
  "updatedAt": "2021-06-17T16:05:32.684Z",
  "devdoc": {
    "methods": {
      "allowance(address,address)": {
        "details": "See {IERC20-allowance}."
      },
      "approve(address,uint256)": {
        "details": "See {IERC20-approve}.     * Requirements:     * - `spender` cannot be the zero address."
      },
      "balanceOf(address)": {
        "details": "See {IERC20-balanceOf}."
      },
      "decimals()": {
        "details": "Returns the number of decimals used to get its user representation. For example, if `decimals` equals `2`, a balance of `505` tokens should be displayed to a user as `5,05` (`505 / 10 ** 2`).     * Tokens usually opt for a value of 18, imitating the relationship between Ether and Wei. This is the value {ERC20} uses, unless {_setupDecimals} is called.     * NOTE: This information is only used for _display_ purposes: it in no way affects any of the arithmetic of the contract, including {IERC20-balanceOf} and {IERC20-transfer}."
      },
      "decreaseAllowance(address,uint256)": {
        "details": "Atomically decreases the allowance granted to `spender` by the caller.     * This is an alternative to {approve} that can be used as a mitigation for problems described in {IERC20-approve}.     * Emits an {Approval} event indicating the updated allowance.     * Requirements:     * - `spender` cannot be the zero address. - `spender` must have allowance for the caller of at least `subtractedValue`."
      },
      "increaseAllowance(address,uint256)": {
        "details": "Atomically increases the allowance granted to `spender` by the caller.     * This is an alternative to {approve} that can be used as a mitigation for problems described in {IERC20-approve}.     * Emits an {Approval} event indicating the updated allowance.     * Requirements:     * - `spender` cannot be the zero address."
      },
      "name()": {
        "details": "Returns the name of the token."
      },
      "owner()": {
        "details": "Returns the address of the current owner."
      },
      "paused()": {
        "details": "Returns true if the contract is paused, and false otherwise."
      },
      "renounceOwnership()": {
        "details": "Leaves the contract without owner. It will not be possible to call `onlyOwner` functions anymore. Can only be called by the current owner.     * NOTE: Renouncing ownership will leave the contract without an owner, thereby removing any functionality that is only available to the owner."
      },
      "symbol()": {
        "details": "Returns the symbol of the token, usually a shorter version of the name."
      },
      "totalSupply()": {
        "details": "See {IERC20-totalSupply}."
      },
      "transfer(address,uint256)": {
        "details": "See {IERC20-transfer}.     * Requirements:     * - `recipient` cannot be the zero address. - the caller must have a balance of at least `amount`."
      },
      "transferFrom(address,address,uint256)": {
        "details": "See {IERC20-transferFrom}.     * Emits an {Approval} event indicating the updated allowance. This is not required by the EIP. See the note at the beginning of {ERC20};     * Requirements: - `sender` and `recipient` cannot be the zero address. - `sender` must have a balance of at least `amount`. - the caller must have allowance for ``sender``'s tokens of at least `amount`."
      },
      "transferOwnership(address)": {
        "details": "Transfers ownership of the contract to a new account (`newOwner`). Can only be called by the current owner."
      }
    }
  },
  "userdoc": {
    "methods": {}
  }
}