{
  "contractName": "CitadelVesting",
  "abi": [
    {
      "inputs": [
        {
          "internalType": "address",
          "name": "addressOfToken",
          "type": "address"
        },
        {
          "internalType": "bool",
          "name": "isTest_",
          "type": "bool"
        }
      ],
      "stateMutability": "nonpayable",
      "type": "constructor"
    },
    {
      "anonymous": false,
      "inputs": [
        {
          "indexed": true,
          "internalType": "address",
          "name": "previousOwner",
          "type": "address"
        },
        {
          "indexed": true,
          "internalType": "address",
          "name": "newOwner",
          "type": "address"
        }
      ],
      "name": "OwnershipTransferred",
      "type": "event"
    },
    {
      "inputs": [],
      "name": "owner",
      "outputs": [
        {
          "internalType": "address",
          "name": "",
          "type": "address"
        }
      ],
      "stateMutability": "view",
      "type": "function"
    },
    {
      "inputs": [],
      "name": "renounceOwnership",
      "outputs": [],
      "stateMutability": "nonpayable",
      "type": "function"
    },
    {
      "inputs": [
        {
          "internalType": "address",
          "name": "newOwner",
          "type": "address"
        }
      ],
      "name": "transferOwnership",
      "outputs": [],
      "stateMutability": "nonpayable",
      "type": "function"
    },
    {
      "inputs": [
        {
          "internalType": "uint256",
          "name": "timestamp",
          "type": "uint256"
        }
      ],
      "name": "setTestTimestamp",
      "outputs": [],
      "stateMutability": "nonpayable",
      "type": "function"
    },
    {
      "inputs": [],
      "name": "getYearVesting",
      "outputs": [
        {
          "internalType": "uint256",
          "name": "",
          "type": "uint256"
        }
      ],
      "stateMutability": "view",
      "type": "function"
    },
    {
      "inputs": [
        {
          "internalType": "uint256",
          "name": "value",
          "type": "uint256"
        }
      ],
      "name": "updateInflationPct",
      "outputs": [],
      "stateMutability": "nonpayable",
      "type": "function"
    },
    {
      "inputs": [
        {
          "internalType": "address",
          "name": "userAddress",
          "type": "address"
        }
      ],
      "name": "userFrozeCoins",
      "outputs": [],
      "stateMutability": "nonpayable",
      "type": "function"
    },
    {
      "inputs": [
        {
          "internalType": "address",
          "name": "userAddress",
          "type": "address"
        }
      ],
      "name": "userUnfrozeCoins",
      "outputs": [],
      "stateMutability": "nonpayable",
      "type": "function"
    },
    {
      "inputs": [],
      "name": "getVestingPct",
      "outputs": [
        {
          "internalType": "uint256",
          "name": "",
          "type": "uint256"
        }
      ],
      "stateMutability": "view",
      "type": "function"
    },
    {
      "inputs": [
        {
          "internalType": "address",
          "name": "userAddress",
          "type": "address"
        }
      ],
      "name": "availableVestOf",
      "outputs": [
        {
          "internalType": "uint256",
          "name": "",
          "type": "uint256"
        }
      ],
      "stateMutability": "view",
      "type": "function"
    },
    {
      "inputs": [],
      "name": "version",
      "outputs": [
        {
          "internalType": "string",
          "name": "",
          "type": "string"
        }
      ],
      "stateMutability": "pure",
      "type": "function"
    }
  ],
  "bytecode": "0x608060405234801561001057600080fd5b50604051610f71380380610f718339818101604052604081101561003357600080fd5b508051602090910151600061004f6001600160e01b0361029f16565b600080546001600160a01b0319166001600160a01b0383169081178255604051929350917f8be0079c531659141344cd1fd0a4f28419497f9722a3daafe3b4186f6b6457e0908290a350600180546001600160a01b0319166001600160a01b03848116919091179182905560408051637c82e0ad60e11b81529051929091169163f905c15a91600480820192602092909190829003018186803b1580156100f557600080fd5b505afa158015610109573d6000803e3d6000fd5b505050506040513d602081101561011f57600080fd5b50516002556001546040805162dc25a360e81b815290516000926001600160a01b03169163dc25a300916004808301926080929190829003018186803b15801561016857600080fd5b505afa15801561017c573d6000803e3d6000fd5b505050506040513d608081101561019257600080fd5b506020908101516040805180820182529182524282840181815260058054600181810183556000928352955160029182027f036b6384b5eca791c62761152d0c79bb0604c104a5fb6f4eb0703f3154bb3db081019190915592517f036b6384b5eca791c62761152d0c79bb0604c104a5fb6f4eb0703f3154bb3db19093019290925583518085019094528084529483019182526006805494850181559094529051919092027ff652222313e28459528d920b65115c16c04f3efc82aaedc97be59f3f377c0d3f81019190915590517ff652222313e28459528d920b65115c16c04f3efc82aaedc97be59f3f377c0d4090910155506003805491151560ff19909216919091179055506102a3565b3390565b610cbf806102b26000396000f3fe608060405234801561001057600080fd5b50600436106100a95760003560e01c80638b0a49a7116100715780638b0a49a71461017d5780638da5cb5b1461019a5780638e74b871146101be578063ab29effb146101e4578063f2fde38b14610201578063fd230a79146101be576100a9565b806331b108ac146100ae57806354fd4d50146100e65780635e281e8a1461016357806370ae51381461016b578063715018a614610173575b600080fd5b6100d4600480360360208110156100c457600080fd5b50356001600160a01b0316610227565b60408051918252519081900360200190f35b6100ee610275565b6040805160208082528351818301528351919283929083019185019080838360005b83811015610128578181015183820152602001610110565b50505050905090810190601f1680156101555780820380516001836020036101000a031916815260200191505b509250505060405180910390f35b6100d4610295565b6100d46102ac565b61017b6102d9565b005b61017b6004803603602081101561019357600080fd5b503561038d565b6101a26103a1565b604080516001600160a01b039092168252519081900360200190f35b61017b600480360360208110156101d457600080fd5b50356001600160a01b03166103b0565b61017b600480360360208110156101fa57600080fd5b503561048d565b61017b6004803603602081101561021757600080fd5b50356001600160a01b03166104eb565b6001600160a01b03811660009081526007602052604081206005015461024f57506000610270565b610257610c13565b610260836105f5565b6080810151606090910151039150505b919050565b6040805180820190915260058152640302e312e360dc1b60208201525b90565b60006102a76102a261099d565b6109c9565b905090565b600580546000919060001981019081106102c257fe5b906000526020600020906002020160000154905090565b6102e1610a81565b6000546001600160a01b03908116911614610343576040805162461bcd60e51b815260206004820181905260248201527f4f776e61626c653a2063616c6c6572206973206e6f7420746865206f776e6572604482015290519081900360640190fd5b600080546040516001600160a01b03909116907f8be0079c531659141344cd1fd0a4f28419497f9722a3daafe3b4186f6b6457e0908390a3600080546001600160a01b0319169055565b60035460ff1661039c57600080fd5b600455565b6000546001600160a01b031690565b6001546001600160a01b031633146103c757600080fd5b6001546040805163ca5c7b9160e01b815290516000926001600160a01b03169163ca5c7b91916004808301926020929190829003018186803b15801561040c57600080fd5b505afa158015610420573d6000803e3d6000fd5b505050506040513d602081101561043657600080fd5b5051604080518082019091528181529091506006906020810161045761099d565b905281546001818101845560009384526020938490208351600290930201918255929091015191015561048982610a85565b5050565b6001546001600160a01b031633146104a457600080fd5b600560405180604001604052808381526020016104bf61099d565b905281546001818101845560009384526020938490208351600290930201918255929091015191015550565b6104f3610a81565b6000546001600160a01b03908116911614610555576040805162461bcd60e51b815260206004820181905260248201527f4f776e61626c653a2063616c6c6572206973206e6f7420746865206f776e6572604482015290519081900360640190fd5b6001600160a01b03811661059a5760405162461bcd60e51b8152600401808060200182810382526026815260200180610c646026913960400191505060405180910390fd5b600080546040516001600160a01b03808516939216917f8be0079c531659141344cd1fd0a4f28419497f9722a3daafe3b4186f6b6457e091a3600080546001600160a01b0319166001600160a01b0392909216919091179055565b6105fd610c13565b60015460408051632c9aab9b60e11b81526001600160a01b03858116600483015291516000939290921691635935573691602480820192602092909190829003018186803b15801561064e57600080fd5b505afa158015610662573d6000803e3d6000fd5b505050506040513d602081101561067857600080fd5b50516001600160a01b038416600090815260076020908152604091829020825160c08101845281548152600182015492810192909252600281015492820192909252600382015460608201526004820154608082015260059091015460a08201529091506106e590610ae3565b60408101519092501561097157600554600654600019918201910160005a90505b61070e610c49565b610716610c49565b865185111561076357600587600001516001018154811061073357fe5b90600052602060002090600202016040518060400160405290816000820154815260200160018201548152505091505b83876020015110156107b357600687602001516001018154811061078357fe5b90600052602060002090600202016040518060400160405290816000820154815260200160018201548152505090505b6000806107c08484610b37565b90925090506001600160f81b031982166107df576107dc61099d565b90505b60006301e133806002548b60a0015103816107f657fe5b046001016301e1338002600254019050600060058b600001518154811061081957fe5b9060005260206000209060020201600001549050600060068c602001518154811061084057fe5b9060005260206000209060020201600001548c6040015166038d7ea4c68000028161086757fe5b0490508383101561087a578293506108be565b6001600160f81b03198516600160fc1b141561089c578b516001018c526108be565b6001600160f81b03198516600160fd1b14156108be5760208c01805160010190525b60006108ca8584610b87565b60a08e0151909150850366038d7ea4c680006301e13380848402830204048e6060018181510191508181525050858e60a001818152505060005a8b03905062030d4081118061091c5750806127104503105b156109305750505050505050505050610969565b50505050505050505050828560000151108061094f5750818560200151105b80610964575061095d61099d565b8560a00151105b610706575b505050610993565b600554600019908101835260065401602083015261098d61099d565b60a08301525b6040820152919050565b60035460009060ff1680156109b457506000600454115b156109c25750600454610292565b5042610292565b60015460408051636c3ef2c360e01b815260048101849052905160009283926001600160a01b0390911691636c3ef2c391602480820192602092909190829003018186803b158015610a1a57600080fd5b505afa158015610a2e573d6000803e3d6000fd5b505050506040513d6020811015610a4457600080fd5b5051600580549192506064916000198101908110610a5e57fe5b906000526020600020906002020160000154820281610a7957fe5b049392505050565b3390565b610a8e816105f5565b6001600160a01b0390911660009081526007602090815260409182902083518155908301516001820155908201516002820155606082015160038201556080820151600482015560a090910151600590910155565b610aeb610c13565b6040518060c0016040528083600001518152602001836020015181526020018360400151815260200183606001518152602001836080015181526020018360a001518152509050919050565b6020808301519082015160009182918115610b5757819250601060f81b93505b600081118015610b6e575082811080610b6e575082155b15610b7e57600160fd1b93509150815b50509250929050565b60015460408051636c3ef2c360e01b815260048101859052905160009283926001600160a01b0390911691636c3ef2c391602480820192602092909190829003018186803b158015610bd857600080fd5b505afa158015610bec573d6000803e3d6000fd5b505050506040513d6020811015610c0257600080fd5b505160649302929092049392505050565b6040518060c001604052806000815260200160008152602001600081526020016000815260200160008152602001600081525090565b60405180604001604052806000815260200160008152509056fe4f776e61626c653a206e6577206f776e657220697320746865207a65726f2061646472657373a2646970667358221220adb64ad41c4ff5da24a3a930d8e8fae974054a300237b2ee6aaeef0d29d99e9964736f6c63430006020033",
  "source": "// SPDX-License-Identifier: GPL-3.0\npragma solidity 0.6.2;\n\nimport \"../node_modules/openzeppelin-solidity/contracts/access/Ownable.sol\";\nimport \"./ICitadelVestingTransport.sol\";\n\n\ncontract CitadelVesting is Ownable {\n\n    ICitadelVestingTransport private _Token;\n    uint private _tokenDeployed;\n    bool private _isTest;\n    uint private _testTimestamp;\n\n    struct Option {\n        uint value;\n        uint date;\n    }\n\n    Option[] private _inflationsPct; // inflation %\n    Option[] private _totalSupplyHistory;\n\n    struct UserSnapshot {\n        uint indexInflation;\n        uint indexSupplyHistory;\n        uint frozen;\n        uint vested;\n        uint claimed;\n        uint dateUpdate;\n    }\n\n    mapping (address => UserSnapshot) private _userSnapshots;\n\n    byte private constant NEXT_NOTHING = 0x00;\n    byte private constant NEXT_INFLATION = 0x10;\n    byte private constant NEXT_SUPPLY = 0x20;\n\n    modifier onlyToken() {\n        require(msg.sender == address(_Token));\n        _;\n    }\n\n    constructor (\n        address addressOfToken,\n        bool isTest_\n    ) public {\n        _Token = ICitadelVestingTransport(addressOfToken);\n        _tokenDeployed = _Token.deployed();\n        ( , uint inflationPct, , ) = _Token.getVestingInfo();\n        _inflationsPct.push(Option(inflationPct, block.timestamp));\n        _totalSupplyHistory.push(Option(0, block.timestamp));\n        _isTest = isTest_;\n    }\n\n    function setTestTimestamp(uint timestamp) external {\n        require(_isTest);\n        _testTimestamp = timestamp;\n    }\n\n    function getYearVesting() external view returns (uint) {\n        return _yearVestingBudget(_timestamp());\n    }\n\n    function _yearVestingBudget(uint timestamp) internal view returns (uint) {\n        uint yearEmission = _Token.yearInflationEmission(timestamp);\n        return yearEmission * _inflationsPct[_inflationsPct.length-1].value / 100;\n    }\n\n    function _yearVestingBudget(uint timestamp, uint pct) internal view returns (uint) {\n        uint yearEmission = _Token.yearInflationEmission(timestamp);\n        return yearEmission * pct / 100;\n    }\n\n    function updateInflationPct(uint value) external onlyToken {\n        _inflationsPct.push(Option(value, _timestamp()));\n    }\n\n    function userFrozeCoins(address userAddress) external onlyToken {\n        uint totalSupply = _Token.lockedSupply();\n        _totalSupplyHistory.push(Option(totalSupply, _timestamp()));\n        _writeUserSnapshot(userAddress);\n    }\n\n    function userUnfrozeCoins(address userAddress) external onlyToken {\n        uint totalSupply = _Token.lockedSupply();\n        _totalSupplyHistory.push(Option(totalSupply, _timestamp()));\n        _writeUserSnapshot(userAddress);\n    }\n\n    function getVestingPct() external view returns (uint) {\n        return _inflationsPct[_inflationsPct.length-1].value;\n    }\n\n    function availableVestOf(address userAddress) external view returns (uint) {\n        if (_userSnapshots[userAddress].dateUpdate == 0) return 0;\n        UserSnapshot memory snapshot = _makeUserSnapshot(userAddress);\n        return snapshot.vested - snapshot.claimed;\n    }\n\n    function _writeUserSnapshot(address userAddress) private {\n        _userSnapshots[userAddress] = _makeUserSnapshot(userAddress);\n    }\n\n    function _makeUserSnapshot(address userAddress) private view returns (UserSnapshot memory snapshot) {\n        uint frozenCurrent = _Token.lockedBalanceOf(userAddress);\n        snapshot = _cloneUserSnapshot(_userSnapshots[userAddress]);\n        if (snapshot.frozen > 0) {\n            // if we have already staked\n            uint lastIndexInflation = _inflationsPct.length - 1;\n            uint lastIndexSupplyHistory = _totalSupplyHistory.length - 1;\n            uint startGas = gasleft();\n            do {\n                // check next options\n                Option memory nextInflation;\n                Option memory nextSupply;\n                if (snapshot.indexInflation < lastIndexInflation) {\n                    nextInflation = _inflationsPct[snapshot.indexInflation + 1];\n                }\n                if (snapshot.indexSupplyHistory < lastIndexSupplyHistory) {\n                    nextSupply = _totalSupplyHistory[snapshot.indexSupplyHistory + 1];\n                }\n                (byte nextStep, uint time) = _findNextStep(nextInflation, nextSupply);\n                if (nextStep == NEXT_NOTHING) time = _timestamp();\n                // check new year\n                uint happyNewYear = _tokenDeployed + ((snapshot.dateUpdate - _tokenDeployed) / 365 days + 1) * 365 days;\n                // save vesting inflation\n                uint vestInflPct = _inflationsPct[snapshot.indexInflation].value;\n                // save user percent\n                uint userPct = (snapshot.frozen * 1e15 / _totalSupplyHistory[snapshot.indexSupplyHistory].value);\n                // calculate\n                if (happyNewYear < time) {\n                    time = happyNewYear;\n                } else if (nextStep == NEXT_INFLATION) {\n                    snapshot.indexInflation++;\n                } else if (nextStep == NEXT_SUPPLY) {\n                    snapshot.indexSupplyHistory++;\n                }\n                uint vestInfl = _yearVestingBudget(time, vestInflPct);\n                uint period = time - snapshot.dateUpdate; // seconds\n                snapshot.vested += vestInfl * userPct * period / 365 days / 1e15;\n                snapshot.dateUpdate = time;\n                // check gas limit\n                uint gasUsed = startGas - gasleft();\n                if (gasUsed > 200000 || block.gaslimit - 10000 < gasUsed) break;\n            } while (\n                snapshot.indexInflation < lastIndexInflation ||\n                snapshot.indexSupplyHistory < lastIndexSupplyHistory ||\n                snapshot.dateUpdate < _timestamp()\n            );\n        } else {\n            // first staking, just fixing indexes\n            snapshot.indexInflation = _inflationsPct.length - 1;\n            snapshot.indexSupplyHistory = _totalSupplyHistory.length - 1;\n            snapshot.dateUpdate = _timestamp();\n        }\n        // final update\n        snapshot.frozen = frozenCurrent;\n    }\n\n    function _findNextStep(\n        Option memory nextInflation,\n        Option memory nextSupply\n    ) private pure returns (byte lastByte, uint minDate) {\n\n        uint dateInf = nextInflation.date;\n        uint dateSup = nextSupply.date;\n\n        lastByte = NEXT_NOTHING;\n\n        if (dateInf > 0) {\n            minDate = dateInf;\n            lastByte = NEXT_INFLATION;\n        }\n        if (dateSup > 0 && (dateSup < minDate || minDate == 0)) {\n            minDate = dateSup;\n            lastByte = NEXT_SUPPLY;\n        }\n\n    }\n\n    function _cloneUserSnapshot(UserSnapshot memory snapshot) private pure returns (UserSnapshot memory) {\n        return UserSnapshot(\n            snapshot.indexInflation,\n            snapshot.indexSupplyHistory,\n            snapshot.frozen,\n            snapshot.vested,\n            snapshot.claimed,\n            snapshot.dateUpdate\n        );\n    }\n\n    function _timestamp() private view returns (uint) {\n        if (_isTest && _testTimestamp > 0) {\n            return _testTimestamp;\n        } else {\n            return block.timestamp;\n        }\n    }\n\n    function version() external pure returns (string memory) {\n        return '0.1.0';\n    }\n\n}\n",
  "sourcePath": "/home/pirat/Desktop/DAO/contracts/CitadelVesting.sol",
  "compiler": {
    "name": "solc",
    "version": "0.6.2+commit.bacdbe57.Emscripten.clang"
  },
  "schemaVersion": "3.2.5",
  "updatedAt": "2021-06-01T14:37:58.617Z",
  "devdoc": {
    "methods": {
      "owner()": {
        "details": "Returns the address of the current owner."
      },
      "renounceOwnership()": {
        "details": "Leaves the contract without owner. It will not be possible to call `onlyOwner` functions anymore. Can only be called by the current owner.     * NOTE: Renouncing ownership will leave the contract without an owner, thereby removing any functionality that is only available to the owner."
      },
      "transferOwnership(address)": {
        "details": "Transfers ownership of the contract to a new account (`newOwner`). Can only be called by the current owner."
      }
    }
  },
  "userdoc": {
    "methods": {}
  }
}