{
  "contractName": "Citadel",
  "abi": [
    {
      "inputs": [
        {
          "components": [
            {
              "internalType": "bytes4",
              "name": "id",
              "type": "bytes4"
            },
            {
              "internalType": "address[]",
              "name": "whitelist",
              "type": "address[]"
            },
            {
              "internalType": "uint256",
              "name": "threshold",
              "type": "uint256"
            }
          ],
          "internalType": "struct Citadel.MultisigData[]",
          "name": "multisigs",
          "type": "tuple[]"
        },
        {
          "internalType": "uint256",
          "name": "initialSupply",
          "type": "uint256"
        }
      ],
      "stateMutability": "nonpayable",
      "type": "constructor"
    },
    {
      "inputs": [
        {
          "internalType": "uint256",
          "name": "stakingPct",
          "type": "uint256"
        },
        {
          "internalType": "uint256",
          "name": "vestingPct",
          "type": "uint256"
        }
      ],
      "name": "changeInflationRatio",
      "outputs": [],
      "stateMutability": "nonpayable",
      "type": "function"
    },
    {
      "inputs": [],
      "name": "getDaoAddress",
      "outputs": [
        {
          "internalType": "address",
          "name": "",
          "type": "address"
        }
      ],
      "stateMutability": "view",
      "type": "function",
      "constant": true
    },
    {
      "inputs": [
        {
          "internalType": "address",
          "name": "daoAddress_",
          "type": "address"
        }
      ],
      "name": "initDaoTransport",
      "outputs": [],
      "stateMutability": "nonpayable",
      "type": "function"
    }
  ],
  "bytecode": "0x608060405234801561001057600080fd5b5060405161037638038061037683398101604081905261002f9161011e565b50506101f6565b600060608284031215610047578081fd5b61005160606101b1565b82519091506001600160e01b03198116811461006c57600080fd5b81526020828101516001600160401b0381111561008857600080fd5b80840185601f82011261009a57600080fd5b805191506100af6100aa836101d7565b6101b1565b82815283810190828501858502840186018910156100cc57600080fd5b60009350835b858110156101025781516001600160a01b03811681146100f0578586fd5b845292860192908601906001016100d2565b5050808587015250505050506040820151604082015292915050565b60008060408385031215610130578182fd5b82516001600160401b03811115610145578283fd5b80840185601f820112610156578384fd5b805191506101666100aa836101d7565b82815260208082019190838101875b8681101561019e5761018c8b848451890101610036565b85529382019390820190600101610175565b5050969096015195979596505050505050565b6040518181016001600160401b03811182821017156101cf57600080fd5b604052919050565b60006001600160401b038211156101ec578081fd5b5060209081020190565b610171806102056000396000f3fe608060405234801561001057600080fd5b50600436106100415760003560e01c80631d68702d1461004657806344263fcb14610064578063aa6b3f1114610079575b600080fd5b61004e61008c565b60405161005b9190610127565b60405180910390f35b6100776100723660046100d8565b61009b565b005b610077610087366004610106565b6100bd565b6000546001600160a01b031690565b600080546001600160a01b0319166001600160a01b0392909216919091179055565b6000546001600160a01b031633146100d457600080fd5b5050565b6000602082840312156100e9578081fd5b81356001600160a01b03811681146100ff578182fd5b9392505050565b60008060408385031215610118578081fd5b50508035926020909101359150565b6001600160a01b039190911681526020019056fea26469706673582212200a8cc31175dcae8c64d4a01bc6782e349a92022e079e0a8b196530eb3bc82c2564736f6c63430006020033",
  "source": "// SPDX-License-Identifier: GPL-3.0\npragma solidity 0.6.2;\npragma experimental ABIEncoderV2;\n\n\nimport \"./Token/CitadelDaoTransport.sol\";\n\n\ncontract Citadel is CitadelDaoTransport {\n\n    struct MultisigData {\n        bytes4 id;\n        address[] whitelist;\n        uint threshold;\n    }\n\n    constructor (\n        MultisigData[] memory multisigs,\n        uint initialSupply\n    )\n    public {\n        /*for (uint i = 0; i < multisigs.length; i++) {\n            MultisigData memory ms = multisigs[i];\n            _initMultisigWhitelist(ms.id, ms.whitelist, ms.threshold);\n        }*/\n\n        // mint inflation\n        //!!!uint inflation = uint(500000000).mul(1e6);\n        //!!!_mint(address(1), inflation);\n\n        //initialSupply = initialSupply.mul(1e6);\n        \n        //_mint(_bankAddress, initialSupply.mul(10).div(100));\n\n        //uint256 publicSaleLimit = initialSupply;\n        //uint256 value = 0;\n\n        //uint256 vestingBudget = initialSupply.mul(60).div(100);\n        //publicSaleLimit = publicSaleLimit.sub(vestingBudget);\n        //!!!_initInflation(inflation, inflation, 800, 40, 60);\n        //_mint(address(3), vestingBudget.mul(60).div(100));\n        //_mint(address(4), vestingBudget.mul(40).div(100));\n\n        //!!!_initCitadelTokenLocker(address(5));\n\n        //value = initialSupply.mul(15).div(100);\n        //publicSaleLimit = publicSaleLimit.sub(value);\n        //_initTeam(address(6), value, _teamUnlockPct);\n        //_mint(address(6), value);\n\n        //value = initialSupply.mul(10).div(100);\n        //publicSaleLimit = publicSaleLimit.sub(value);\n        //_initInvestors(address(7), value, _investorsUnlockPct);\n        //_mint(address(7), value);\n\n    /*\n        // mint team\n        _mint(address(this), uint(147250000).mul(1e6));\n\n        // mint advisors\n        _mint(address(this), uint(2750000).mul(1e6));\n\n        // mint private sale 1\n        _mint(address(this), uint(2500000).mul(1e6));\n\n        // mint private sale 2\n        _mint(address(this), uint(48333333).mul(1e6));\n\n        // mint private eco fund\n        _mint(address(this), uint(196666667).mul(1e6));\n\n        // mint private found fund\n        _mint(address(this), uint(40000000).mul(1e6));\n\n        // mint private community fund\n        _mint(address(this), uint(50000000).mul(1e6));\n\n        // mint public & market sale\n        _mint(address(this), uint(12500000).mul(1e6));\n    */\n\n        //!!!_mint(address(this), uint(500000000).mul(1e6));\n\n        //!!assert(totalSupply() == initialSupply);\n\n    }\n\n    /*!!!function delegateTokens (address to, uint amount) external onlyOwner {\n        _transfer(address(this), to, amount);\n    }*/\n\n}\n",
  "sourcePath": "/home/pirat/Desktop/DAO/contracts/Citadel.sol",
  "compiler": {
    "name": "solc",
    "version": "0.6.2+commit.bacdbe57.Emscripten.clang"
  },
  "schemaVersion": "3.2.5",
  "updatedAt": "2021-06-01T14:38:46.587Z",
  "networkType": "ethereum",
  "devdoc": {
    "methods": {}
  },
  "userdoc": {
    "methods": {}
  }
}