{
  "contractName": "CitadelRewardsTest",
  "abi": [
    {
      "inputs": [
        {
          "internalType": "address",
          "name": "addressOfToken",
          "type": "address"
        }
      ],
      "stateMutability": "nonpayable",
      "type": "constructor"
    },
    {
      "anonymous": false,
      "inputs": [
        {
          "indexed": true,
          "internalType": "address",
          "name": "previousOwner",
          "type": "address"
        },
        {
          "indexed": true,
          "internalType": "address",
          "name": "newOwner",
          "type": "address"
        }
      ],
      "name": "OwnershipTransferred",
      "type": "event"
    },
    {
      "inputs": [],
      "name": "claim",
      "outputs": [
        {
          "internalType": "uint256",
          "name": "amount",
          "type": "uint256"
        }
      ],
      "stateMutability": "nonpayable",
      "type": "function"
    },
    {
      "inputs": [
        {
          "internalType": "address",
          "name": "account",
          "type": "address"
        }
      ],
      "name": "claimFor",
      "outputs": [
        {
          "internalType": "uint256",
          "name": "amount",
          "type": "uint256"
        }
      ],
      "stateMutability": "nonpayable",
      "type": "function"
    },
    {
      "inputs": [
        {
          "internalType": "address",
          "name": "account",
          "type": "address"
        }
      ],
      "name": "claimable",
      "outputs": [
        {
          "internalType": "uint256",
          "name": "",
          "type": "uint256"
        }
      ],
      "stateMutability": "view",
      "type": "function"
    },
    {
      "inputs": [],
      "name": "owner",
      "outputs": [
        {
          "internalType": "address",
          "name": "",
          "type": "address"
        }
      ],
      "stateMutability": "view",
      "type": "function"
    },
    {
      "inputs": [],
      "name": "renounceOwnership",
      "outputs": [],
      "stateMutability": "nonpayable",
      "type": "function"
    },
    {
      "inputs": [
        {
          "internalType": "address",
          "name": "account",
          "type": "address"
        }
      ],
      "name": "totalClaimedOf",
      "outputs": [
        {
          "internalType": "uint256",
          "name": "",
          "type": "uint256"
        }
      ],
      "stateMutability": "view",
      "type": "function"
    },
    {
      "inputs": [
        {
          "internalType": "address",
          "name": "account",
          "type": "address"
        }
      ],
      "name": "totalVestedOf",
      "outputs": [
        {
          "internalType": "uint256",
          "name": "",
          "type": "uint256"
        }
      ],
      "stateMutability": "view",
      "type": "function"
    },
    {
      "inputs": [
        {
          "internalType": "address",
          "name": "newOwner",
          "type": "address"
        }
      ],
      "name": "transferOwnership",
      "outputs": [],
      "stateMutability": "nonpayable",
      "type": "function"
    },
    {
      "inputs": [
        {
          "internalType": "address",
          "name": "account",
          "type": "address"
        }
      ],
      "name": "updateSnapshot",
      "outputs": [],
      "stateMutability": "nonpayable",
      "type": "function"
    },
    {
      "inputs": [],
      "name": "version",
      "outputs": [
        {
          "internalType": "string",
          "name": "",
          "type": "string"
        }
      ],
      "stateMutability": "pure",
      "type": "function"
    },
    {
      "inputs": [
        {
          "internalType": "uint256",
          "name": "date",
          "type": "uint256"
        }
      ],
      "name": "setTimestamp",
      "outputs": [],
      "stateMutability": "nonpayable",
      "type": "function"
    }
  ],
  "bytecode": "0x60806040523480156200001157600080fd5b50604051620014c8380380620014c88339810160408190526200003491620001c3565b8060006200004a6001600160e01b03620001bf16565b600080546001600160a01b0319166001600160a01b0383169081178255604051929350917f8be0079c531659141344cd1fd0a4f28419497f9722a3daafe3b4186f6b6457e0908290a350600180546001600160a01b0319166001600160a01b03838116919091179182905560408051637c82e0ad60e11b81529051929091169163f905c15a91600480820192602092909190829003018186803b158015620000f157600080fd5b505afa15801562000106573d6000803e3d6000fd5b505050506040513d601f19601f820116820180604052506200012c9190810190620001f3565b600255600154604080516326079c6160e11b815290516001600160a01b0390921691634c0f38c291600480820192602092909190829003018186803b1580156200017557600080fd5b505afa1580156200018a573d6000803e3d6000fd5b505050506040513d601f19601f82011682018060405250620001b09190810190620001f3565b6003555050426005556200020c565b3390565b600060208284031215620001d5578081fd5b81516001600160a01b0381168114620001ec578182fd5b9392505050565b60006020828403121562000205578081fd5b5051919050565b6112ac806200021c6000396000f3fe608060405234801561001057600080fd5b50600436106100a95760003560e01c80638da5cb5b116100715780638da5cb5b14610111578063913f9d9114610126578063a0a2b57314610139578063d6d789b71461014c578063ddeae0331461015f578063f2fde38b14610172576100a9565b80633d9eba70146100ae578063402914f5146100c35780634e71d92d146100ec57806354fd4d50146100f4578063715018a614610109575b600080fd5b6100c16100bc366004611058565b610185565b005b6100d66100d1366004611058565b6101a8565b6040516100e3919061126d565b60405180910390f35b6100d66101f6565b6100fc6102d4565b6040516100e39190611171565b6100c16102f3565b610119610372565b6040516100e39190611144565b6100d6610134366004611058565b610381565b6100c16101473660046110f1565b6103c5565b6100d661015a366004611058565b6103ff565b6100d661016d366004611058565b61041e565b6100c1610180366004611058565b6104ac565b6001546001600160a01b0316331461019c57600080fd5b6101a581610562565b50565b6001600160a01b0381166000908152600460205260408120600501546101d0575060006101f1565b6101d8610fd9565b6101e1836105bf565b6080810151606090910151039150505b919050565b60003361020281610562565b6001600160a01b038116600090815260046020819052604090912090810154600390910154039150816102505760405162461bcd60e51b81526004016102479061120a565b60405180910390fd5b6001600160a01b03808216600090815260046020819052604091829020600381015490820155600154915163f3fef3a360e01b8152919092169163f3fef3a39161029e918591879101611158565b600060405180830381600087803b1580156102b857600080fd5b505af11580156102cc573d6000803e3d6000fd5b505050505090565b6040805180820190915260058152640312e302e360dc1b602082015290565b6102fb610f2b565b6000546001600160a01b039081169116146103285760405162461bcd60e51b815260040161024790611238565b600080546040516001600160a01b03909116907f8be0079c531659141344cd1fd0a4f28419497f9722a3daafe3b4186f6b6457e0908390a3600080546001600160a01b0319169055565b6000546001600160a01b031690565b6001600160a01b0381166000908152600460205260408120600501546103a9575060006101f1565b6103b1610fd9565b6103ba836105bf565b606001519392505050565b6103cd610f2b565b6000546001600160a01b039081169116146103fa5760405162461bcd60e51b815260040161024790611238565b600555565b6001600160a01b03166000908152600460208190526040909120015490565b6001546000906001600160a01b0316331461043857600080fd5b61044182610562565b506001600160a01b03811660009081526004602081905260409091209081015460039091015403806104855760405162461bcd60e51b81526004016102479061120a565b6001600160a01b039091166000908152600460208190526040909120600381015491015590565b6104b4610f2b565b6000546001600160a01b039081169116146104e15760405162461bcd60e51b815260040161024790611238565b6001600160a01b0381166105075760405162461bcd60e51b8152600401610247906111c4565b600080546040516001600160a01b03808516939216917f8be0079c531659141344cd1fd0a4f28419497f9722a3daafe3b4186f6b6457e091a3600080546001600160a01b0319166001600160a01b0392909216919091179055565b61056b816105bf565b6001600160a01b03909116600090815260046020818152604092839020845181559084015160018201559183015160028301556060830151600383015560808301519082015560a090910151600590910155565b6105c7610fd9565b600154604051632c9aab9b60e11b81526000916001600160a01b0316906359355736906105f8908690600401611144565b60206040518083038186803b15801561061057600080fd5b505afa158015610624573d6000803e3d6000fd5b505050506040513d601f19601f820116820180604052506106489190810190611109565b90506106be60046000856001600160a01b03166001600160a01b031681526020019081526020016000206040518060c00160405290816000820154815260200160018201548152602001600282015481526020016003820154815260200160048201548152602001600582015481525050610f2f565b91508160400151600014156107f25760018060009054906101000a90046001600160a01b03166001600160a01b0316634b45aa126040518163ffffffff1660e01b815260040160206040518083038186803b15801561071c57600080fd5b505afa158015610730573d6000803e3d6000fd5b505050506040513d601f19601f820116820180604052506107549190810190611109565b03825260018054604080516312ada38560e21b815290516001600160a01b0390921691634ab68e1491600480820192602092909190829003018186803b15801561079d57600080fd5b505afa1580156107b1573d6000803e3d6000fd5b505050506040513d601f19601f820116820180604052506107d59190810190611109565b0360208301526107e3610f83565b60a083015260408201526101f1565b60015460408051631d0a67e160e01b815290516000926001600160a01b031691631d0a67e1916004808301926020929190829003018186803b15801561083757600080fd5b505afa15801561084b573d6000803e3d6000fd5b505050506040513d601f19601f8201168201806040525061086f9190810190611109565b9050600060018060009054906101000a90046001600160a01b03166001600160a01b0316634b45aa126040518163ffffffff1660e01b815260040160206040518083038186803b1580156108c257600080fd5b505afa1580156108d6573d6000803e3d6000fd5b505050506040513d601f19601f820116820180604052506108fa9190810190611109565b039050600060018060009054906101000a90046001600160a01b03166001600160a01b0316634ab68e146040518163ffffffff1660e01b815260040160206040518083038186803b15801561094e57600080fd5b505afa158015610962573d6000803e3d6000fd5b505050506040513d601f19601f820116820180604052506109869190810190611109565b03905061099161100f565b6001548651604051631e28e97b60e31b81526001600160a01b039092169163f1474bd8916109c19160040161126d565b60a06040518083038186803b1580156109d957600080fd5b505afa1580156109ed573d6000803e3d6000fd5b505050506040513d601f19601f82011682018060405250610a119190810190611086565b60015460208801516040516303320ecd60e51b81529293506000926001600160a01b0390921691636641d9a091610a4a9160040161126d565b604080518083038186803b158015610a6157600080fd5b505afa158015610a75573d6000803e3d6000fd5b505050506040513d601f19601f82011682018060405250610a999190810190611121565b50875190915084148015610ab257506003548260400151145b15610ac357506101f1945050505050565b610acb61100f565b610ad361103e565b8851861115610b6457600180548a51604051631e28e97b60e31b81526001600160a01b039092169263f1474bd892610b11929091019060040161126d565b60a06040518083038186803b158015610b2957600080fd5b505afa158015610b3d573d6000803e3d6000fd5b505050506040513d601f19601f82011682018060405250610b619190810190611086565b91505b8489602001511015610bff576001805460208b01516040516303320ecd60e51b81526001600160a01b0390921692636641d9a092610ba8929091019060040161126d565b604080518083038186803b158015610bbf57600080fd5b505afa158015610bd3573d6000803e3d6000fd5b505050506040513d601f19601f82011682018060405250610bf79190810190611121565b602083015281525b600080610c0c8484610f89565b90925090506001600160f81b03198216610c2b57610c28610f83565b90505b6001600160f81b03198216600160fc1b14801590610c4857508881115b8015610c5a57506301e1338089820310155b15610d3e57601060f81b91506301e133808901985088905060006127106301e1338088608001518c0389600001518a60600151020281610c9657fe5b0481610c9e57fe5b049050898760800181815250506003548188604001510110610cc7576003546040880152610d3c565b604087810151908601526020808801519086015286516060808901516127109281029290920490910190860152865160c814610d375786516032108015610d15575060c86032886000015103115b15610d235786516031190185525b865160c81115610d325760c885525b610d3c565b865185525b505b60035486604001511415610dad5760008b60a0015182038c60400151886020015189606001518a6040015103020202905060646301e13380878381610d7f57fe5b0481610d8757fe5b0481610d8f57fe5b60608e0180519290910490910190525060a08b015250610f1c915050565b600060c887600001511015610e03578b60a0015182038c604001518860200151896060015160035403020202905060646301e13380878381610deb57fe5b0481610df357fe5b0481610dfb57fe5b049050610e50565b5060a08b015160408c01516020880151885160608a01510202029082030260646127106301e13380888481610e3457fe5b0481610e3c57fe5b0481610e4457fe5b0481610e4c57fe5b0490505b60608c0180518201905260a08c018290526001600160f81b03198316600160fc1b1415610eac5784518752602080860151908801526040808601519088015260608086015190880152608087018290528b516001018c52610ed2565b6001600160f81b03198316600160fd1b1415610ed257835160208d018051600101905295505b5a61753045031015610ee8575050505050610f1c565b50505050508387600001511080610f025750828760200151105b80610f175750610f10610f83565b8760a00151105b610ac3575b50505050506040820152919050565b3390565b610f37610fd9565b6040518060c0016040528083600001518152602001836020015181526020018360400151815260200183606001518152602001836080015181526020018360a001518152509050919050565b60055490565b6080820151602082015160009182918115610fa957819250601060f81b93505b600081118015610fc0575082811080610fc0575082155b15610fd057600160fd1b93509150815b50509250929050565b6040518060c001604052806000815260200160008152602001600081526020016000815260200160008152602001600081525090565b6040518060a0016040528060008152602001600081526020016000815260200160008152602001600081525090565b604051806040016040528060008152602001600081525090565b600060208284031215611069578081fd5b81356001600160a01b038116811461107f578182fd5b9392505050565b600060a08284031215611097578081fd5b60405160a0810181811067ffffffffffffffff821117156110b6578283fd5b806040525082518152602083015160208201526040830151604082015260608301516060820152608083015160808201528091505092915050565b600060208284031215611102578081fd5b5035919050565b60006020828403121561111a578081fd5b5051919050565b60008060408385031215611133578081fd5b505080516020909101519092909150565b6001600160a01b0391909116815260200190565b6001600160a01b03929092168252602082015260400190565b6000602080835283518082850152825b8181101561119d57858101830151858201604001528201611181565b818111156111ae5783604083870101525b50601f01601f1916929092016040019392505050565b60208082526026908201527f4f776e61626c653a206e6577206f776e657220697320746865207a65726f206160408201526564647265737360d01b606082015260800190565b6020808252601490820152735a65726f20616d6f756e7420746f20636c61696d60601b604082015260600190565b6020808252818101527f4f776e61626c653a2063616c6c6572206973206e6f7420746865206f776e6572604082015260600190565b9081526020019056fea264697066735822122033c61753e45984ef5d4368f6c111fae19ddb91cae69bfeb5e9d7d287f9ce5c6a64736f6c63430006020033",
  "source": "// SPDX-License-Identifier: GPL-3.0\npragma solidity 0.6.2;\npragma experimental ABIEncoderV2;\n\nimport \"./CitadelRewards.sol\";\n\n\ncontract CitadelRewardsTest is CitadelRewards {\n\n    uint private _fakeTime;\n\n    constructor (\n        address addressOfToken\n    )\n    CitadelRewards(\n        addressOfToken\n    )\n    public {\n        _fakeTime = block.timestamp;\n    }\n\n    function setTimestamp(uint date) external onlyOwner {\n        _fakeTime = date;\n    }\n\n    function _timestamp() internal override view returns (uint) {\n        return _fakeTime;\n    }\n}",
  "sourcePath": "/home/pirat/Desktop/DAO/contracts/CitadelRewardsTest.sol",
  "compiler": {
    "name": "solc",
    "version": "0.6.2+commit.bacdbe57.Emscripten.clang"
  },
  "schemaVersion": "3.2.5",
  "updatedAt": "2021-06-17T16:12:27.021Z",
  "devdoc": {
    "methods": {
      "owner()": {
        "details": "Returns the address of the current owner."
      },
      "renounceOwnership()": {
        "details": "Leaves the contract without owner. It will not be possible to call `onlyOwner` functions anymore. Can only be called by the current owner.     * NOTE: Renouncing ownership will leave the contract without an owner, thereby removing any functionality that is only available to the owner."
      },
      "transferOwnership(address)": {
        "details": "Transfers ownership of the contract to a new account (`newOwner`). Can only be called by the current owner."
      }
    }
  },
  "userdoc": {
    "methods": {}
  }
}