{
  "contractName": "CitadelInflation",
  "abi": [
    {
      "anonymous": false,
      "inputs": [
        {
          "indexed": true,
          "internalType": "address",
          "name": "owner",
          "type": "address"
        },
        {
          "indexed": true,
          "internalType": "address",
          "name": "spender",
          "type": "address"
        },
        {
          "indexed": false,
          "internalType": "uint256",
          "name": "value",
          "type": "uint256"
        }
      ],
      "name": "Approval",
      "type": "event"
    },
    {
      "anonymous": false,
      "inputs": [
        {
          "indexed": true,
          "internalType": "uint256",
          "name": "issueId",
          "type": "uint256"
        },
        {
          "indexed": false,
          "internalType": "uint256",
          "name": "pct",
          "type": "uint256"
        }
      ],
      "name": "ChangeInflation",
      "type": "event"
    },
    {
      "anonymous": false,
      "inputs": [
        {
          "indexed": true,
          "internalType": "uint256",
          "name": "issueId",
          "type": "uint256"
        },
        {
          "indexed": false,
          "internalType": "uint256",
          "name": "pct",
          "type": "uint256"
        }
      ],
      "name": "ChangeVesting",
      "type": "event"
    },
    {
      "anonymous": false,
      "inputs": [
        {
          "indexed": true,
          "internalType": "address",
          "name": "previousOwner",
          "type": "address"
        },
        {
          "indexed": true,
          "internalType": "address",
          "name": "newOwner",
          "type": "address"
        }
      ],
      "name": "OwnershipTransferred",
      "type": "event"
    },
    {
      "anonymous": false,
      "inputs": [
        {
          "indexed": false,
          "internalType": "address",
          "name": "account",
          "type": "address"
        }
      ],
      "name": "Paused",
      "type": "event"
    },
    {
      "anonymous": false,
      "inputs": [
        {
          "indexed": true,
          "internalType": "address",
          "name": "from",
          "type": "address"
        },
        {
          "indexed": true,
          "internalType": "address",
          "name": "to",
          "type": "address"
        },
        {
          "indexed": false,
          "internalType": "uint256",
          "name": "value",
          "type": "uint256"
        }
      ],
      "name": "Transfer",
      "type": "event"
    },
    {
      "anonymous": false,
      "inputs": [
        {
          "indexed": false,
          "internalType": "address",
          "name": "account",
          "type": "address"
        }
      ],
      "name": "Unpaused",
      "type": "event"
    },
    {
      "inputs": [],
      "name": "_bankAddress",
      "outputs": [
        {
          "internalType": "address",
          "name": "",
          "type": "address"
        }
      ],
      "stateMutability": "view",
      "type": "function"
    },
    {
      "inputs": [
        {
          "internalType": "address",
          "name": "owner",
          "type": "address"
        },
        {
          "internalType": "address",
          "name": "spender",
          "type": "address"
        }
      ],
      "name": "allowance",
      "outputs": [
        {
          "internalType": "uint256",
          "name": "",
          "type": "uint256"
        }
      ],
      "stateMutability": "view",
      "type": "function"
    },
    {
      "inputs": [
        {
          "internalType": "address",
          "name": "spender",
          "type": "address"
        },
        {
          "internalType": "uint256",
          "name": "amount",
          "type": "uint256"
        }
      ],
      "name": "approve",
      "outputs": [
        {
          "internalType": "bool",
          "name": "",
          "type": "bool"
        }
      ],
      "stateMutability": "nonpayable",
      "type": "function"
    },
    {
      "inputs": [
        {
          "internalType": "address",
          "name": "account",
          "type": "address"
        }
      ],
      "name": "balanceOf",
      "outputs": [
        {
          "internalType": "uint256",
          "name": "",
          "type": "uint256"
        }
      ],
      "stateMutability": "view",
      "type": "function"
    },
    {
      "inputs": [
        {
          "internalType": "uint256",
          "name": "amount",
          "type": "uint256"
        }
      ],
      "name": "burn",
      "outputs": [],
      "stateMutability": "nonpayable",
      "type": "function"
    },
    {
      "inputs": [],
      "name": "decimals",
      "outputs": [
        {
          "internalType": "uint8",
          "name": "",
          "type": "uint8"
        }
      ],
      "stateMutability": "view",
      "type": "function"
    },
    {
      "inputs": [
        {
          "internalType": "address",
          "name": "spender",
          "type": "address"
        },
        {
          "internalType": "uint256",
          "name": "subtractedValue",
          "type": "uint256"
        }
      ],
      "name": "decreaseAllowance",
      "outputs": [
        {
          "internalType": "bool",
          "name": "",
          "type": "bool"
        }
      ],
      "stateMutability": "nonpayable",
      "type": "function"
    },
    {
      "inputs": [
        {
          "internalType": "address",
          "name": "from",
          "type": "address"
        },
        {
          "internalType": "uint256",
          "name": "amount",
          "type": "uint256"
        }
      ],
      "name": "delegateToDAO",
      "outputs": [],
      "stateMutability": "nonpayable",
      "type": "function"
    },
    {
      "inputs": [],
      "name": "deployDate",
      "outputs": [
        {
          "internalType": "uint256",
          "name": "",
          "type": "uint256"
        }
      ],
      "stateMutability": "view",
      "type": "function"
    },
    {
      "inputs": [],
      "name": "deployed",
      "outputs": [
        {
          "internalType": "uint256",
          "name": "",
          "type": "uint256"
        }
      ],
      "stateMutability": "view",
      "type": "function"
    },
    {
      "inputs": [],
      "name": "getDaoAddress",
      "outputs": [
        {
          "internalType": "address",
          "name": "",
          "type": "address"
        }
      ],
      "stateMutability": "view",
      "type": "function"
    },
    {
      "inputs": [],
      "name": "getVestingAddress",
      "outputs": [
        {
          "internalType": "address",
          "name": "",
          "type": "address"
        }
      ],
      "stateMutability": "view",
      "type": "function"
    },
    {
      "inputs": [
        {
          "internalType": "address",
          "name": "spender",
          "type": "address"
        },
        {
          "internalType": "uint256",
          "name": "addedValue",
          "type": "uint256"
        }
      ],
      "name": "increaseAllowance",
      "outputs": [
        {
          "internalType": "bool",
          "name": "",
          "type": "bool"
        }
      ],
      "stateMutability": "nonpayable",
      "type": "function"
    },
    {
      "inputs": [
        {
          "internalType": "address",
          "name": "daoAddress",
          "type": "address"
        }
      ],
      "name": "initDaoTransport",
      "outputs": [],
      "stateMutability": "nonpayable",
      "type": "function"
    },
    {
      "inputs": [
        {
          "internalType": "address",
          "name": "vestAddress",
          "type": "address"
        }
      ],
      "name": "initVestingTransport",
      "outputs": [],
      "stateMutability": "nonpayable",
      "type": "function"
    },
    {
      "inputs": [],
      "name": "name",
      "outputs": [
        {
          "internalType": "string",
          "name": "",
          "type": "string"
        }
      ],
      "stateMutability": "view",
      "type": "function"
    },
    {
      "inputs": [],
      "name": "owner",
      "outputs": [
        {
          "internalType": "address",
          "name": "",
          "type": "address"
        }
      ],
      "stateMutability": "view",
      "type": "function"
    },
    {
      "inputs": [],
      "name": "paused",
      "outputs": [
        {
          "internalType": "bool",
          "name": "",
          "type": "bool"
        }
      ],
      "stateMutability": "view",
      "type": "function"
    },
    {
      "inputs": [],
      "name": "percentDecimal",
      "outputs": [
        {
          "internalType": "uint256",
          "name": "",
          "type": "uint256"
        }
      ],
      "stateMutability": "view",
      "type": "function"
    },
    {
      "inputs": [
        {
          "internalType": "address",
          "name": "to",
          "type": "address"
        },
        {
          "internalType": "uint256",
          "name": "amount",
          "type": "uint256"
        }
      ],
      "name": "redeemFromDAO",
      "outputs": [],
      "stateMutability": "nonpayable",
      "type": "function"
    },
    {
      "inputs": [],
      "name": "renounceOwnership",
      "outputs": [],
      "stateMutability": "nonpayable",
      "type": "function"
    },
    {
      "inputs": [],
      "name": "symbol",
      "outputs": [
        {
          "internalType": "string",
          "name": "",
          "type": "string"
        }
      ],
      "stateMutability": "view",
      "type": "function"
    },
    {
      "inputs": [],
      "name": "totalSupply",
      "outputs": [
        {
          "internalType": "uint256",
          "name": "",
          "type": "uint256"
        }
      ],
      "stateMutability": "view",
      "type": "function"
    },
    {
      "inputs": [
        {
          "internalType": "address",
          "name": "recipient",
          "type": "address"
        },
        {
          "internalType": "uint256",
          "name": "amount",
          "type": "uint256"
        }
      ],
      "name": "transfer",
      "outputs": [
        {
          "internalType": "bool",
          "name": "",
          "type": "bool"
        }
      ],
      "stateMutability": "nonpayable",
      "type": "function"
    },
    {
      "inputs": [
        {
          "internalType": "address",
          "name": "sender",
          "type": "address"
        },
        {
          "internalType": "address",
          "name": "recipient",
          "type": "address"
        },
        {
          "internalType": "uint256",
          "name": "amount",
          "type": "uint256"
        }
      ],
      "name": "transferFrom",
      "outputs": [
        {
          "internalType": "bool",
          "name": "",
          "type": "bool"
        }
      ],
      "stateMutability": "nonpayable",
      "type": "function"
    },
    {
      "inputs": [
        {
          "internalType": "address",
          "name": "newOwner",
          "type": "address"
        }
      ],
      "name": "transferOwnership",
      "outputs": [],
      "stateMutability": "nonpayable",
      "type": "function"
    },
    {
      "inputs": [],
      "name": "getInflationStartDate",
      "outputs": [
        {
          "internalType": "uint256",
          "name": "",
          "type": "uint256"
        }
      ],
      "stateMutability": "view",
      "type": "function"
    },
    {
      "inputs": [],
      "name": "getSavedInflationYear",
      "outputs": [
        {
          "internalType": "uint256",
          "name": "",
          "type": "uint256"
        }
      ],
      "stateMutability": "view",
      "type": "function"
    },
    {
      "inputs": [],
      "name": "getMaxSupply",
      "outputs": [
        {
          "internalType": "uint256",
          "name": "",
          "type": "uint256"
        }
      ],
      "stateMutability": "view",
      "type": "function"
    },
    {
      "inputs": [
        {
          "internalType": "uint256",
          "name": "index",
          "type": "uint256"
        }
      ],
      "name": "inflationPoint",
      "outputs": [
        {
          "components": [
            {
              "internalType": "uint256",
              "name": "inflationPct",
              "type": "uint256"
            },
            {
              "internalType": "uint256",
              "name": "stakingPct",
              "type": "uint256"
            },
            {
              "internalType": "uint256",
              "name": "currentSupply",
              "type": "uint256"
            },
            {
              "internalType": "uint256",
              "name": "yearlySupply",
              "type": "uint256"
            },
            {
              "internalType": "uint256",
              "name": "date",
              "type": "uint256"
            }
          ],
          "internalType": "struct CitadelInflation.InflationValues",
          "name": "",
          "type": "tuple"
        }
      ],
      "stateMutability": "view",
      "type": "function"
    },
    {
      "inputs": [],
      "name": "countInflationPoints",
      "outputs": [
        {
          "internalType": "uint256",
          "name": "",
          "type": "uint256"
        }
      ],
      "stateMutability": "view",
      "type": "function"
    },
    {
      "inputs": [],
      "name": "startInflation",
      "outputs": [],
      "stateMutability": "nonpayable",
      "type": "function"
    },
    {
      "inputs": [
        {
          "internalType": "uint256",
          "name": "date",
          "type": "uint256"
        }
      ],
      "name": "startInflationTo",
      "outputs": [],
      "stateMutability": "nonpayable",
      "type": "function"
    },
    {
      "inputs": [
        {
          "internalType": "address",
          "name": "to",
          "type": "address"
        },
        {
          "internalType": "uint256",
          "name": "amount",
          "type": "uint256"
        }
      ],
      "name": "withdraw",
      "outputs": [],
      "stateMutability": "nonpayable",
      "type": "function"
    },
    {
      "inputs": [
        {
          "internalType": "uint256",
          "name": "issueId",
          "type": "uint256"
        },
        {
          "internalType": "uint256",
          "name": "pct",
          "type": "uint256"
        }
      ],
      "name": "updateInflation",
      "outputs": [],
      "stateMutability": "nonpayable",
      "type": "function"
    },
    {
      "inputs": [
        {
          "internalType": "uint256",
          "name": "issueId",
          "type": "uint256"
        },
        {
          "internalType": "uint256",
          "name": "pct",
          "type": "uint256"
        }
      ],
      "name": "updateVesting",
      "outputs": [],
      "stateMutability": "nonpayable",
      "type": "function"
    }
  ],
  "bytecode": "0x600b60808181526a4369746164656c2e6f6e6560a81b60a0908152610100604052600360c0818152621610d560ea1b60e05292936200003f929062000133565b5080516200005590600490602084019062000133565b50506005805460ff191660121790555060006200007a6001600160e01b036200011816565b60058054610100600160a81b0319166101006001600160a01b03841690810291909117909155604051919250906000907f8be0079c531659141344cd1fd0a4f28419497f9722a3daafe3b4186f6b6457e0908290a3506005805460ff60a81b19169055600680546001600160a01b031916301781554260075566038d7ea4c6800060085562000112906001600160e01b036200011d16565b620001d5565b335b90565b6005805460ff191660ff92909216919091179055565b828054600181600116156101000203166002900490600052602060002090601f016020900481019282601f106200017657805160ff1916838001178555620001a6565b82800160010185558215620001a6579182015b82811115620001a657825182559160200191906001019062000189565b50620001b4929150620001b8565b5090565b6200011a91905b80821115620001b45760008155600101620001bf565b611fe080620001e56000396000f3fe608060405234801561001057600080fd5b506004361061021c5760003560e01c806370a0823111610125578063c108a402116100ad578063f2fde38b1161007c578063f2fde38b14610422578063f3fef3a314610435578063f905c15a14610448578063f9b7ce0214610450578063ff1764a4146104585761021c565b8063c108a402146103c9578063c686781d146103dc578063dd62ed3e146103ef578063f1474bd8146104025761021c565b806395d89b41116100f457806395d89b4114610380578063a457c2d714610388578063a9059cbb1461039b578063ac3cd7c6146103ae578063ba1a681f146103c15761021c565b806370a082311461034a578063715018a61461035d5780637fa7faf8146103655780638da5cb5b146103785761021c565b806342966c68116101a85780634c0f38c2116101775780634c0f38c21461032257806353d168e71461032a57806355b28b37146103325780635c975abb1461033a57806369668fe9146103425761021c565b806342966c68146102e157806344263fcb146102f457806344c40464146103075780634b45aa121461031a5761021c565b80631d68702d116101ef5780631d68702d1461027c57806323b872dd14610291578063313ce567146102a457806339509351146102b95780633ba71a15146102cc5761021c565b806306fdde0314610221578063095ea7b31461023f57806318160ddd1461025f5780631d0a67e114610274575b600080fd5b610229610460565b60405161023691906119d8565b60405180910390f35b61025261024d366004611956565b6104f6565b60405161023691906119cd565b610267610514565b6040516102369190611ee9565b61026761051a565b610284610520565b60405161023691906119b9565b61025261029f366004611916565b61052f565b6102ac6105bc565b6040516102369190611ef2565b6102526102c7366004611956565b6105c5565b6102df6102da366004611956565b610619565b005b6102df6102ef366004611980565b610685565b6102df6103023660046118c7565b6106e4565b6102df610315366004611956565b610740565b61026761078c565b610267610792565b610284610798565b6102676107a7565b6102526107ad565b6102676107bd565b6102676103583660046118c7565b6107c3565b6102df6107de565b6102df6103733660046118c7565b610868565b6102846108c4565b6102296108d8565b610252610396366004611956565b610939565b6102526103a9366004611956565b6109a7565b6102df6103bc366004611998565b6109bb565b610267610aeb565b6102df6103d7366004611998565b610af1565b6102df6103ea366004611980565b610c14565b6102676103fd3660046118e2565b610cd9565b610415610410366004611980565b610d04565b6040516102369190611eaf565b6102df6104303660046118c7565b610d8c565b6102df610443366004611956565b610e53565b610267610e97565b6102df610e9d565b610284610f2d565b60038054604080516020601f60026000196101006001881615020190951694909404938401819004810282018101909252828152606093909290918301828280156104ec5780601f106104c1576101008083540402835291602001916104ec565b820191906000526020600020905b8154815290600101906020018083116104cf57829003601f168201915b5050505050905090565b600061050a610503610f3c565b8484610f40565b5060015b92915050565b60025490565b60105490565b600a546001600160a01b031690565b600061053c848484610ff4565b6105b284610548610f3c565b6105ad85604051806060016040528060288152602001611f5e602891396001600160a01b038a16600090815260016020526040812090610586610f3c565b6001600160a01b03168152602081019190915260400160002054919063ffffffff61111516565b610f40565b5060019392505050565b60055460ff1690565b600061050a6105d2610f3c565b846105ad85600160006105e3610f3c565b6001600160a01b03908116825260208083019390935260409182016000908120918c16815292529020549063ffffffff61114116565b600a546001600160a01b0316331461063057600080fd5b61063c600a8383610ff4565b6001600160a01b0382166000908152600b6020526040902054610665908263ffffffff61116d16565b6001600160a01b039092166000908152600b602052604090209190915550565b6103e833116106af5760405162461bcd60e51b81526004016106a690611c6e565b60405180910390fd5b806106b9336107c3565b10156106d75760405162461bcd60e51b81526004016106a690611ab1565b6106e133826111af565b50565b6106ec610f3c565b60055461010090046001600160a01b0390811691161461071e5760405162461bcd60e51b81526004016106a690611c39565b600a80546001600160a01b0319166001600160a01b0392909216919091179055565b600a546001600160a01b0316331461075757600080fd5b61076382600a83610ff4565b6001600160a01b0382166000908152600b6020526040902054610665908263ffffffff61114116565b60125490565b600e5490565b6006546001600160a01b031681565b600c5490565b600554600160a81b900460ff1690565b60075481565b6001600160a01b031660009081526020819052604090205490565b6107e6610f3c565b60055461010090046001600160a01b039081169116146108185760405162461bcd60e51b81526004016106a690611c39565b60055460405160009161010090046001600160a01b0316907f8be0079c531659141344cd1fd0a4f28419497f9722a3daafe3b4186f6b6457e0908390a360058054610100600160a81b0319169055565b610870610f3c565b60055461010090046001600160a01b039081169116146108a25760405162461bcd60e51b81526004016106a690611c39565b600980546001600160a01b0319166001600160a01b0392909216919091179055565b60055461010090046001600160a01b031690565b60048054604080516020601f60026000196101006001881615020190951694909404938401819004810282018101909252828152606093909290918301828280156104ec5780601f106104c1576101008083540402835291602001916104ec565b600061050a610946610f3c565b846105ad85604051806060016040528060258152602001611f866025913960016000610970610f3c565b6001600160a01b03908116825260208083019390935260409182016000908120918d1681529252902054919063ffffffff61111516565b600061050a6109b4610f3c565b8484610ff4565b600a546001600160a01b031633146109d257600080fd5b600a81101580156109e45750605a8111155b610a005760405162461bcd60e51b81526004016106a690611dd3565b610a08611881565b601280546000198101908110610a1a57fe5b90600052602060002090600502016040518060a001604052908160008201548152602001600182015481526020016002820154815260200160038201548152602001600482015481525050905060008160800151610a7661129d565b03905062278d00811015610a9c5760405162461bcd60e51b81526004016106a690611e19565b610aa46112a1565b610aad836115b9565b837f96a647810411309169e354743b6a4e9d05e3c777f5fae278e65f6168fe7279ba84604051610add9190611ee9565b60405180910390a250505050565b60085481565b600a546001600160a01b03163314610b0857600080fd5b60c88110158015610b1b5750610bb88111155b610b375760405162461bcd60e51b81526004016106a690611bf4565b610b3f611881565b601280546000198101908110610b5157fe5b90600052602060002090600502016040518060a001604052908160008201548152602001600182015481526020016002820154815260200160038201548152602001600482015481525050905060008160800151610bad61129d565b03905062278d00811015610bd35760405162461bcd60e51b81526004016106a690611e19565b610bdb6112a1565b610be4836116f9565b837f8f4db2ceeda2c579bf7d6f7036f9f300565d76719308713e3c85d3484b4ebb3084604051610add9190611ee9565b610c1c610f3c565b60055461010090046001600160a01b03908116911614610c4e5760405162461bcd60e51b81526004016106a690611c39565b600c541580610c655750610c6061129d565b600c54115b610c815760405162461bcd60e51b81526004016106a690611d2b565b610c8961129d565b8111610ca75760405162461bcd60e51b81526004016106a690611a6e565b600c819055601081905560128054829190600090610cc157fe5b90600052602060002090600502016004018190555050565b6001600160a01b03918216600090815260016020908152604080832093909416825291909152205490565b610d0c611881565b6012548210610d2d5760405162461bcd60e51b81526004016106a690611bb2565b60128281548110610d3a57fe5b90600052602060002090600502016040518060a0016040529081600082015481526020016001820154815260200160028201548152602001600382015481526020016004820154815250509050919050565b610d94610f3c565b60055461010090046001600160a01b03908116911614610dc65760405162461bcd60e51b81526004016106a690611c39565b6001600160a01b038116610dec5760405162461bcd60e51b81526004016106a690611af3565b6005546040516001600160a01b0380841692610100900416907f8be0079c531659141344cd1fd0a4f28419497f9722a3daafe3b4186f6b6457e090600090a3600580546001600160a01b0390921661010002610100600160a81b0319909216919091179055565b6009546001600160a01b0316331480610e765750600a546001600160a01b031633145b610e7f57600080fd5b610e876112a1565b610e9360018383610ff4565b5050565b60075490565b610ea5610f3c565b60055461010090046001600160a01b03908116911614610ed75760405162461bcd60e51b81526004016106a690611c39565b600c5415610ef75760405162461bcd60e51b81526004016106a690611d2b565b610eff61129d565b600c819055601081905560128054600090610f1657fe5b906000526020600020906005020160040181905550565b6009546001600160a01b031690565b3390565b6001600160a01b038316610f665760405162461bcd60e51b81526004016106a690611d62565b6001600160a01b038216610f8c5760405162461bcd60e51b81526004016106a690611b39565b6001600160a01b0380841660008181526001602090815260408083209487168084529490915290819020849055517f8c5be1e5ebec7d5bd14f71427d1e84f3dd0314c0f7b2291e5b200ac8c7c3b92590610fe7908590611ee9565b60405180910390a3505050565b6001600160a01b03831661101a5760405162461bcd60e51b81526004016106a690611ce6565b6001600160a01b0382166110405760405162461bcd60e51b81526004016106a690611a2b565b61104b83838361180e565b61108e81604051806060016040528060268152602001611f38602691396001600160a01b038616600090815260208190526040902054919063ffffffff61111516565b6001600160a01b0380851660009081526020819052604080822093909355908416815220546110c3908263ffffffff61114116565b6001600160a01b0380841660008181526020819052604090819020939093559151908516907fddf252ad1be2c89b69c2b068fc378daa952ba7f163c4a11628f55a4df523b3ef90610fe7908590611ee9565b600081848411156111395760405162461bcd60e51b81526004016106a691906119d8565b505050900390565b6000828201838110156111665760405162461bcd60e51b81526004016106a690611b7b565b9392505050565b600061116683836040518060400160405280601e81526020017f536166654d6174683a207375627472616374696f6e206f766572666c6f770000815250611115565b6001600160a01b0382166111d55760405162461bcd60e51b81526004016106a690611ca5565b6111e18260008361180e565b61122481604051806060016040528060228152602001611f16602291396001600160a01b038516600090815260208190526040902054919063ffffffff61111516565b6001600160a01b038316600090815260208190526040902055600254611250908263ffffffff61116d16565b6002556040516000906001600160a01b038416907fddf252ad1be2c89b69c2b068fc378daa952ba7f163c4a11628f55a4df523b3ef90611291908590611ee9565b60405180910390a35050565b4290565b600f54600e5414156112b2576115b7565b60006010546112bf61129d565b0390506301e133808110156112d457506115b7565b6112dc611881565b6012805460001981019081106112ee57fe5b600091825260208083206040805160a0810182526005909402909101805480855260018201549385019390935260028101549184019190915260038101546060840152600401546080830152909250905b6301e1338084048110156115ac576301e1338060106000828254019250508190555060006127106301e133808560800151601054038560115402028161138157fe5b048161138957fe5b049050600e54600f5482011015806113a1575060c883105b1561143557600e54600f8190555060126040518060a001604052806113c4611864565b815260208781015181830152600f546040808401829052606080850192909252601054608094850152855460018181018855600097885296849020865160059092020190815592850151958301959095559383015160028201559282015160038401550151600490910155506115ac565b600f80548201905560c883111561147857603283118015611459575060c860328403115b15611465576032830392505b60c88310156114735760c892505b61149c565b8260c8141561149c57600061148b611864565b905060c881101561149a578093505b505b506040805160a081018252838152602085810151908201908152600f549282018381526060830193845260105460808401908152601280546001808201835560009290925294517fbb8a6a4669ba250d26cd7a459eca9d215f8307e33aebe50379bc5a3617ec344460059096029586015592517fbb8a6a4669ba250d26cd7a459eca9d215f8307e33aebe50379bc5a3617ec344585015590517fbb8a6a4669ba250d26cd7a459eca9d215f8307e33aebe50379bc5a3617ec344684015592517fbb8a6a4669ba250d26cd7a459eca9d215f8307e33aebe50379bc5a3617ec344783015591517fbb8a6a4669ba250d26cd7a459eca9d215f8307e33aebe50379bc5a3617ec3448909101550161133f565b5050600f5460115550505b565b600f54600e5414156115ca57600080fd5b6115d2611881565b6012805460001981019081106115e457fe5b90600052602060002090600502016040518060a00160405290816000820154815260200160018201548152602001600282015481526020016003820154815260200160048201548152505090506000816080015161164061129d565b0390506127106301e1338082846000015160115402028161165d57fe5b048161166557fe5b04600f6000828254019250508190555060126040518060a0016040528084600001518152602001858152602001600f54815260200160115481526020016116aa61129d565b9052815460018181018455600093845260209384902083516005909302019182559282015192810192909255604081015160028301556060810151600383015560800151600490910155505050565b600f54600e54141561170a57600080fd5b611712611881565b60128054600019810190811061172457fe5b90600052602060002090600502016040518060a00160405290816000820154815260200160018201548152602001600282015481526020016003820154815260200160048201548152505090506000816080015161178061129d565b0390506127106301e1338082846000015160115402028161179d57fe5b04816117a557fe5b600f80549290910490910190556117ba611864565b8311156117d95760405162461bcd60e51b81526004016106a690611da6565b60126040518060a0016040528085815260200184602001518152602001600f54815260200160115481526020016116aa61129d565b61181983838361185f565b6103e8331161183a5760405162461bcd60e51b81526004016106a690611c6e565b6118426107ad565b1561185f5760405162461bcd60e51b81526004016106a690611e65565b505050565b6000600f54600f54600e5403612710028161187b57fe5b04905090565b6040518060a0016040528060008152602001600081526020016000815260200160008152602001600081525090565b80356001600160a01b038116811461050e57600080fd5b6000602082840312156118d8578081fd5b61116683836118b0565b600080604083850312156118f4578081fd5b6118fe84846118b0565b915061190d84602085016118b0565b90509250929050565b60008060006060848603121561192a578081fd5b833561193581611f00565b9250602084013561194581611f00565b929592945050506040919091013590565b60008060408385031215611968578182fd5b61197284846118b0565b946020939093013593505050565b600060208284031215611991578081fd5b5035919050565b600080604083850312156119aa578182fd5b50508035926020909101359150565b6001600160a01b0391909116815260200190565b901515815260200190565b6000602080835283518082850152825b81811015611a04578581018301518582016040015282016119e8565b81811115611a155783604083870101525b50601f01601f1916929092016040019392505050565b60208082526023908201527f45524332303a207472616e7366657220746f20746865207a65726f206164647260408201526265737360e81b606082015260800190565b60208082526023908201527f5374617274696e672064617465206d75737420626520696e207468652066757460408201526275726560e81b606082015260800190565b60208082526022908201527f4369746164656c546f6b656e3a20696e73756666696369656e742062616c616e604082015261636560f01b606082015260800190565b60208082526026908201527f4f776e61626c653a206e6577206f776e657220697320746865207a65726f206160408201526564647265737360d01b606082015260800190565b60208082526022908201527f45524332303a20617070726f766520746f20746865207a65726f206164647265604082015261737360f01b606082015260800190565b6020808252601b908201527f536166654d6174683a206164646974696f6e206f766572666c6f770000000000604082015260600190565b60208082526022908201527f4369746164656c496e666c6174696f6e3a20756e657870656374656420696e646040820152610caf60f31b606082015260800190565b60208082526025908201527f50657263656e74616765206d757374206265206265747765656e20322520616e604082015264642033302560d81b606082015260800190565b6020808252818101527f4f776e61626c653a2063616c6c6572206973206e6f7420746865206f776e6572604082015260600190565b60208082526019908201527f4369746164656c546f6b656e3a2066616b652073656e64657200000000000000604082015260600190565b60208082526021908201527f45524332303a206275726e2066726f6d20746865207a65726f206164647265736040820152607360f81b606082015260800190565b60208082526025908201527f45524332303a207472616e736665722066726f6d20746865207a65726f206164604082015264647265737360d81b606082015260800190565b6020808252601c908201527f496e666c6174696f6e20697320616c7265616479207374617274656400000000604082015260600190565b60208082526024908201527f45524332303a20617070726f76652066726f6d20746865207a65726f206164646040820152637265737360e01b606082015260800190565b602080825260139082015272546f6f20686967682070657263656e7461676560681b604082015260600190565b60208082526026908201527f50657263656e74616765206d757374206265206265747765656e2031302520616040820152656e642039302560d01b606082015260800190565b6020808252602c908201527f596f75206861766520746f20776169742033302064617973206166746572206c60408201526b617374206368616e67696e6760a01b606082015260800190565b6020808252602a908201527f45524332305061757361626c653a20746f6b656e207472616e736665722077686040820152691a5b19481c185d5cd95960b21b606082015260800190565b600060a082019050825182526020830151602083015260408301516040830152606083015160608301526080830151608083015292915050565b90815260200190565b60ff91909116815260200190565b6001600160a01b03811681146106e157600080fdfe45524332303a206275726e20616d6f756e7420657863656564732062616c616e636545524332303a207472616e7366657220616d6f756e7420657863656564732062616c616e636545524332303a207472616e7366657220616d6f756e74206578636565647320616c6c6f77616e636545524332303a2064656372656173656420616c6c6f77616e63652062656c6f77207a65726fa264697066735822122036cabaea5500332a69c4c6278f332c09d06b781ab01f881a8184e069d742da5864736f6c63430006020033",
  "source": "// SPDX-License-Identifier: GPL-3.0\npragma solidity 0.6.2;\npragma experimental ABIEncoderV2;\n\nimport \"./CitadelToken.sol\";\n\ncontract CitadelInflation is CitadelToken {\n\n    struct InflationValues {\n        uint inflationPct;\n        uint stakingPct;\n        uint currentSupply;\n        uint yearlySupply;\n        uint date;\n    }\n\n    uint internal startInflationDate;\n\n    bool private _isInitialized;\n    uint private _maxSupply;\n    uint private _unlockedSupply;\n    uint private _savedInflationYear;\n    uint private _yearUnlockedBudget;\n\n    InflationValues[] private _inflationHistory;\n\n    event ChangeInflation(uint indexed issueId, uint pct);\n    event ChangeVesting(uint indexed issueId, uint pct);\n\n    modifier activeInflation(){\n        require(startInflationDate > 0 && startInflationDate <= _timestamp(), \"CitadelInflation: coming soon\");\n        _;\n    }\n\n    function getInflationStartDate() external view\n    returns (uint) {\n        return startInflationDate;\n    }\n\n    function getSavedInflationYear() external view\n    returns (uint) {\n        return _savedInflationYear;\n    }\n\n    function getMaxSupply() external view\n    returns (uint) {\n        return _maxSupply;\n    }\n\n    function inflationPoint(uint index) external view\n    returns (InflationValues memory) {\n        require(index < _inflationHistory.length, \"CitadelInflation: unexpected index\");\n        return _inflationHistory[index];\n    }\n\n    function countInflationPoints() external view\n    returns (uint) {\n        return _inflationHistory.length;\n    }\n\n    function startInflation() external onlyOwner {\n        require (startInflationDate == 0, \"Inflation is already started\");\n        startInflationDate = _timestamp();\n        _savedInflationYear = startInflationDate;\n        _inflationHistory[0].date = _savedInflationYear;\n    }\n\n    function startInflationTo(uint date) external onlyOwner {\n        require (startInflationDate == 0 || startInflationDate > _timestamp(), \"Inflation is already started\");\n        require (date > _timestamp(), \"Starting date must be in the future\");\n        startInflationDate = date;\n        _savedInflationYear = startInflationDate;\n        _inflationHistory[0].date = _savedInflationYear;\n    }\n\n    function withdraw(address to, uint amount) external onlyVestingOrDaoContracts {\n        _makeInflationSnapshot();\n        _transfer(address(1), to, amount);\n    }\n\n    function updateInflation(uint issueId, uint pct) external onlyDaoContract {\n        require(pct >= 200 && pct <= 3000, \"Percentage must be between 2% and 30%\");\n        \n        InflationValues memory lastPoint = _inflationHistory[_inflationHistory.length - 1];\n        uint spentTime = _timestamp() - lastPoint.date;\n        require(spentTime >= 30 days, \"You have to wait 30 days after last changing\");\n\n        _makeInflationSnapshot();\n        _updateInflation(pct);\n        emit ChangeInflation(issueId, pct);\n    }\n\n    function updateVesting(uint issueId, uint pct) external onlyDaoContract {\n        require(pct >= 10 && pct <= 90, \"Percentage must be between 10% and 90%\");\n        \n        InflationValues memory lastPoint = _inflationHistory[_inflationHistory.length - 1];\n        uint spentTime = _timestamp() - lastPoint.date;\n        require(spentTime >= 30 days, \"You have to wait 30 days after last changing\");\n\n        _makeInflationSnapshot();\n        _updateVesting(pct);\n        emit ChangeVesting(issueId, pct);\n    }\n\n    function _updateInflation(uint pct) internal {\n        require(_maxSupply != _unlockedSupply);\n\n        InflationValues memory lastPoint = _inflationHistory[_inflationHistory.length - 1];\n        uint spentTime = _timestamp() - lastPoint.date;\n\n        _unlockedSupply += _yearUnlockedBudget * lastPoint.inflationPct * spentTime / 365 days / 10000;\n\n        require(pct <= _restInflPct(), \"Too high percentage\");\n\n        _inflationHistory.push(InflationValues(pct, lastPoint.stakingPct, _unlockedSupply, _yearUnlockedBudget, _timestamp()));\n    }\n\n    function _updateVesting(uint pct) internal {\n        require(_maxSupply != _unlockedSupply);\n\n        InflationValues memory lastPoint = _inflationHistory[_inflationHistory.length - 1];\n        uint spentTime = _timestamp() - lastPoint.date;\n\n        _unlockedSupply += _yearUnlockedBudget * lastPoint.inflationPct * spentTime / 365 days / 10000;\n\n        _inflationHistory.push(InflationValues(lastPoint.inflationPct, pct, _unlockedSupply, _yearUnlockedBudget, _timestamp()));\n    }\n\n    function _makeInflationSnapshot() internal {\n        if (_maxSupply == _unlockedSupply) return;\n\n        uint spentTime = _timestamp() - _savedInflationYear;\n        if (spentTime < 365 days) return;\n\n        InflationValues memory lastPoint = _inflationHistory[_inflationHistory.length - 1];\n\n        uint infl = lastPoint.inflationPct;\n        for (uint y = 0; y < spentTime / 365 days; y++) {\n            _savedInflationYear += 365 days;\n            uint updateUnlock = _yearUnlockedBudget * infl * (_savedInflationYear - lastPoint.date) / 365 days / 10000;\n            if (updateUnlock + _unlockedSupply >= _maxSupply || infl < 200) {\n                _unlockedSupply = _maxSupply;\n                _inflationHistory.push(InflationValues(_restInflPct(), lastPoint.stakingPct, _unlockedSupply, _unlockedSupply, _savedInflationYear));\n                break;\n            } else {\n                _unlockedSupply += updateUnlock;\n                if (infl > 200) {\n                    if (infl > 50 && infl - 50 > 200) infl -= 50; // -0.5% each year\n                    if (infl < 200) infl = 200; // 2% is minimum\n                } else if (infl == 200) {\n                    uint rest = _restInflPct();\n                    if (rest < 200) infl = rest;\n                }\n                _inflationHistory.push(InflationValues(infl, lastPoint.stakingPct, _unlockedSupply, _unlockedSupply, _savedInflationYear));\n            }\n\n        }\n        _yearUnlockedBudget = _unlockedSupply;\n    }\n\n    function _initInflation(\n        uint otherSum,\n        uint totalAmount,\n        uint inflationPct,\n        uint stakingPct\n    ) internal {\n\n        require(!_isInitialized);\n\n        _isInitialized = true;\n\n        _maxSupply = otherSum + totalAmount;\n        _unlockedSupply = otherSum;\n        _yearUnlockedBudget = otherSum;\n\n        _inflationHistory.push(InflationValues(inflationPct, stakingPct, _unlockedSupply, _yearUnlockedBudget, _timestamp()));\n\n    }\n\n    function _restInflPct() private view returns (uint) {\n        return (_maxSupply - _unlockedSupply) * 10000 / _unlockedSupply;\n    }\n\n}\n",
  "sourcePath": "/home/pirat/Desktop/DAO/contracts/Token/CitadelInflation.sol",
  "compiler": {
    "name": "solc",
    "version": "0.6.2+commit.bacdbe57.Emscripten.clang"
  },
  "schemaVersion": "3.2.5",
  "updatedAt": "2021-06-17T16:12:27.170Z",
  "devdoc": {
    "methods": {
      "allowance(address,address)": {
        "details": "See {IERC20-allowance}."
      },
      "approve(address,uint256)": {
        "details": "See {IERC20-approve}.     * Requirements:     * - `spender` cannot be the zero address."
      },
      "balanceOf(address)": {
        "details": "See {IERC20-balanceOf}."
      },
      "decimals()": {
        "details": "Returns the number of decimals used to get its user representation. For example, if `decimals` equals `2`, a balance of `505` tokens should be displayed to a user as `5,05` (`505 / 10 ** 2`).     * Tokens usually opt for a value of 18, imitating the relationship between Ether and Wei. This is the value {ERC20} uses, unless {_setupDecimals} is called.     * NOTE: This information is only used for _display_ purposes: it in no way affects any of the arithmetic of the contract, including {IERC20-balanceOf} and {IERC20-transfer}."
      },
      "decreaseAllowance(address,uint256)": {
        "details": "Atomically decreases the allowance granted to `spender` by the caller.     * This is an alternative to {approve} that can be used as a mitigation for problems described in {IERC20-approve}.     * Emits an {Approval} event indicating the updated allowance.     * Requirements:     * - `spender` cannot be the zero address. - `spender` must have allowance for the caller of at least `subtractedValue`."
      },
      "increaseAllowance(address,uint256)": {
        "details": "Atomically increases the allowance granted to `spender` by the caller.     * This is an alternative to {approve} that can be used as a mitigation for problems described in {IERC20-approve}.     * Emits an {Approval} event indicating the updated allowance.     * Requirements:     * - `spender` cannot be the zero address."
      },
      "name()": {
        "details": "Returns the name of the token."
      },
      "owner()": {
        "details": "Returns the address of the current owner."
      },
      "paused()": {
        "details": "Returns true if the contract is paused, and false otherwise."
      },
      "renounceOwnership()": {
        "details": "Leaves the contract without owner. It will not be possible to call `onlyOwner` functions anymore. Can only be called by the current owner.     * NOTE: Renouncing ownership will leave the contract without an owner, thereby removing any functionality that is only available to the owner."
      },
      "symbol()": {
        "details": "Returns the symbol of the token, usually a shorter version of the name."
      },
      "totalSupply()": {
        "details": "See {IERC20-totalSupply}."
      },
      "transfer(address,uint256)": {
        "details": "See {IERC20-transfer}.     * Requirements:     * - `recipient` cannot be the zero address. - the caller must have a balance of at least `amount`."
      },
      "transferFrom(address,address,uint256)": {
        "details": "See {IERC20-transferFrom}.     * Emits an {Approval} event indicating the updated allowance. This is not required by the EIP. See the note at the beginning of {ERC20};     * Requirements: - `sender` and `recipient` cannot be the zero address. - `sender` must have a balance of at least `amount`. - the caller must have allowance for ``sender``'s tokens of at least `amount`."
      },
      "transferOwnership(address)": {
        "details": "Transfers ownership of the contract to a new account (`newOwner`). Can only be called by the current owner."
      }
    }
  },
  "userdoc": {
    "methods": {}
  }
}