{
  "contractName": "CitadelFoundationFund",
  "abi": [
    {
      "anonymous": false,
      "inputs": [
        {
          "indexed": true,
          "internalType": "address",
          "name": "owner",
          "type": "address"
        },
        {
          "indexed": true,
          "internalType": "address",
          "name": "spender",
          "type": "address"
        },
        {
          "indexed": false,
          "internalType": "uint256",
          "name": "value",
          "type": "uint256"
        }
      ],
      "name": "Approval",
      "type": "event"
    },
    {
      "anonymous": false,
      "inputs": [
        {
          "indexed": true,
          "internalType": "address",
          "name": "previousOwner",
          "type": "address"
        },
        {
          "indexed": true,
          "internalType": "address",
          "name": "newOwner",
          "type": "address"
        }
      ],
      "name": "OwnershipTransferred",
      "type": "event"
    },
    {
      "anonymous": false,
      "inputs": [
        {
          "indexed": false,
          "internalType": "address",
          "name": "account",
          "type": "address"
        }
      ],
      "name": "Paused",
      "type": "event"
    },
    {
      "anonymous": false,
      "inputs": [
        {
          "indexed": true,
          "internalType": "address",
          "name": "from",
          "type": "address"
        },
        {
          "indexed": true,
          "internalType": "address",
          "name": "to",
          "type": "address"
        },
        {
          "indexed": false,
          "internalType": "uint256",
          "name": "value",
          "type": "uint256"
        }
      ],
      "name": "Transfer",
      "type": "event"
    },
    {
      "anonymous": false,
      "inputs": [
        {
          "indexed": false,
          "internalType": "address",
          "name": "account",
          "type": "address"
        }
      ],
      "name": "Unpaused",
      "type": "event"
    },
    {
      "inputs": [],
      "name": "_bankAddress",
      "outputs": [
        {
          "internalType": "address",
          "name": "",
          "type": "address"
        }
      ],
      "stateMutability": "view",
      "type": "function"
    },
    {
      "inputs": [],
      "name": "_publicSaleLimit",
      "outputs": [
        {
          "internalType": "uint256",
          "name": "",
          "type": "uint256"
        }
      ],
      "stateMutability": "view",
      "type": "function"
    },
    {
      "inputs": [
        {
          "internalType": "address",
          "name": "owner",
          "type": "address"
        },
        {
          "internalType": "address",
          "name": "spender",
          "type": "address"
        }
      ],
      "name": "allowance",
      "outputs": [
        {
          "internalType": "uint256",
          "name": "",
          "type": "uint256"
        }
      ],
      "stateMutability": "view",
      "type": "function"
    },
    {
      "inputs": [
        {
          "internalType": "address",
          "name": "spender",
          "type": "address"
        },
        {
          "internalType": "uint256",
          "name": "amount",
          "type": "uint256"
        }
      ],
      "name": "approve",
      "outputs": [
        {
          "internalType": "bool",
          "name": "",
          "type": "bool"
        }
      ],
      "stateMutability": "nonpayable",
      "type": "function"
    },
    {
      "inputs": [
        {
          "internalType": "address",
          "name": "account",
          "type": "address"
        }
      ],
      "name": "balanceOf",
      "outputs": [
        {
          "internalType": "uint256",
          "name": "",
          "type": "uint256"
        }
      ],
      "stateMutability": "view",
      "type": "function"
    },
    {
      "inputs": [
        {
          "internalType": "uint256",
          "name": "amount",
          "type": "uint256"
        }
      ],
      "name": "buyViaUSDT",
      "outputs": [],
      "stateMutability": "nonpayable",
      "type": "function"
    },
    {
      "inputs": [
        {
          "internalType": "uint256",
          "name": "amount",
          "type": "uint256"
        }
      ],
      "name": "calculateTokensEther",
      "outputs": [
        {
          "internalType": "uint256",
          "name": "",
          "type": "uint256"
        }
      ],
      "stateMutability": "view",
      "type": "function"
    },
    {
      "inputs": [
        {
          "internalType": "uint256",
          "name": "amount",
          "type": "uint256"
        }
      ],
      "name": "calculateTokensUSD",
      "outputs": [
        {
          "internalType": "uint256",
          "name": "",
          "type": "uint256"
        }
      ],
      "stateMutability": "view",
      "type": "function"
    },
    {
      "inputs": [
        {
          "internalType": "uint256",
          "name": "buyerLimit_",
          "type": "uint256"
        }
      ],
      "name": "changeBuyerLimit",
      "outputs": [],
      "stateMutability": "nonpayable",
      "type": "function"
    },
    {
      "inputs": [
        {
          "internalType": "address",
          "name": "marketContract_",
          "type": "address"
        },
        {
          "internalType": "uint256",
          "name": "marketRate_",
          "type": "uint256"
        }
      ],
      "name": "changeMarketContract",
      "outputs": [],
      "stateMutability": "nonpayable",
      "type": "function"
    },
    {
      "inputs": [
        {
          "internalType": "uint256",
          "name": "rate_",
          "type": "uint256"
        }
      ],
      "name": "changeRate",
      "outputs": [],
      "stateMutability": "nonpayable",
      "type": "function"
    },
    {
      "inputs": [
        {
          "internalType": "address",
          "name": "usdtContract_",
          "type": "address"
        }
      ],
      "name": "changeUSDTContract",
      "outputs": [],
      "stateMutability": "nonpayable",
      "type": "function"
    },
    {
      "inputs": [
        {
          "internalType": "uint256",
          "name": "amount",
          "type": "uint256"
        }
      ],
      "name": "claimInvestor",
      "outputs": [],
      "stateMutability": "nonpayable",
      "type": "function"
    },
    {
      "inputs": [
        {
          "internalType": "uint256",
          "name": "amount",
          "type": "uint256"
        }
      ],
      "name": "claimTeam",
      "outputs": [],
      "stateMutability": "nonpayable",
      "type": "function"
    },
    {
      "inputs": [],
      "name": "closeMarket",
      "outputs": [],
      "stateMutability": "nonpayable",
      "type": "function"
    },
    {
      "inputs": [],
      "name": "decimals",
      "outputs": [
        {
          "internalType": "uint8",
          "name": "",
          "type": "uint8"
        }
      ],
      "stateMutability": "view",
      "type": "function"
    },
    {
      "inputs": [
        {
          "internalType": "address",
          "name": "spender",
          "type": "address"
        },
        {
          "internalType": "uint256",
          "name": "subtractedValue",
          "type": "uint256"
        }
      ],
      "name": "decreaseAllowance",
      "outputs": [
        {
          "internalType": "bool",
          "name": "",
          "type": "bool"
        }
      ],
      "stateMutability": "nonpayable",
      "type": "function"
    },
    {
      "inputs": [],
      "name": "deployDate",
      "outputs": [
        {
          "internalType": "uint256",
          "name": "",
          "type": "uint256"
        }
      ],
      "stateMutability": "view",
      "type": "function"
    },
    {
      "inputs": [],
      "name": "deployed",
      "outputs": [
        {
          "internalType": "uint256",
          "name": "",
          "type": "uint256"
        }
      ],
      "stateMutability": "view",
      "type": "function"
    },
    {
      "inputs": [],
      "name": "getBuyerLimit",
      "outputs": [
        {
          "internalType": "uint256",
          "name": "",
          "type": "uint256"
        }
      ],
      "stateMutability": "view",
      "type": "function"
    },
    {
      "inputs": [
        {
          "internalType": "address",
          "name": "addr",
          "type": "address"
        }
      ],
      "name": "getInvestorInfoOf",
      "outputs": [
        {
          "internalType": "uint256",
          "name": "limit",
          "type": "uint256"
        },
        {
          "internalType": "uint256",
          "name": "used",
          "type": "uint256"
        },
        {
          "internalType": "uint256",
          "name": "available",
          "type": "uint256"
        },
        {
          "internalType": "uint256",
          "name": "percent",
          "type": "uint256"
        },
        {
          "internalType": "uint256",
          "name": "time",
          "type": "uint256"
        }
      ],
      "stateMutability": "view",
      "type": "function"
    },
    {
      "inputs": [],
      "name": "getMarketContract",
      "outputs": [
        {
          "internalType": "address",
          "name": "marketContract",
          "type": "address"
        },
        {
          "internalType": "uint256",
          "name": "marketRate",
          "type": "uint256"
        }
      ],
      "stateMutability": "view",
      "type": "function"
    },
    {
      "inputs": [],
      "name": "getRate",
      "outputs": [
        {
          "internalType": "uint256",
          "name": "",
          "type": "uint256"
        }
      ],
      "stateMutability": "view",
      "type": "function"
    },
    {
      "inputs": [
        {
          "internalType": "address",
          "name": "addr",
          "type": "address"
        }
      ],
      "name": "getTeamInfoOf",
      "outputs": [
        {
          "internalType": "uint256",
          "name": "limit",
          "type": "uint256"
        },
        {
          "internalType": "uint256",
          "name": "used",
          "type": "uint256"
        },
        {
          "internalType": "uint256",
          "name": "available",
          "type": "uint256"
        },
        {
          "internalType": "uint256",
          "name": "percent",
          "type": "uint256"
        },
        {
          "internalType": "uint256",
          "name": "time",
          "type": "uint256"
        }
      ],
      "stateMutability": "view",
      "type": "function"
    },
    {
      "inputs": [],
      "name": "getUSDTContract",
      "outputs": [
        {
          "internalType": "address",
          "name": "",
          "type": "address"
        }
      ],
      "stateMutability": "view",
      "type": "function"
    },
    {
      "inputs": [
        {
          "internalType": "address",
          "name": "spender",
          "type": "address"
        },
        {
          "internalType": "uint256",
          "name": "addedValue",
          "type": "uint256"
        }
      ],
      "name": "increaseAllowance",
      "outputs": [
        {
          "internalType": "bool",
          "name": "",
          "type": "bool"
        }
      ],
      "stateMutability": "nonpayable",
      "type": "function"
    },
    {
      "inputs": [],
      "name": "isClosedMarket",
      "outputs": [
        {
          "internalType": "bool",
          "name": "",
          "type": "bool"
        }
      ],
      "stateMutability": "view",
      "type": "function"
    },
    {
      "inputs": [
        {
          "internalType": "bytes4",
          "name": "groupId",
          "type": "bytes4"
        }
      ],
      "name": "multisigWhitelist",
      "outputs": [
        {
          "internalType": "address[]",
          "name": "",
          "type": "address[]"
        }
      ],
      "stateMutability": "view",
      "type": "function"
    },
    {
      "inputs": [
        {
          "internalType": "bytes4",
          "name": "groupId",
          "type": "bytes4"
        },
        {
          "internalType": "address",
          "name": "account",
          "type": "address"
        }
      ],
      "name": "multisigWhitelistAdd",
      "outputs": [],
      "stateMutability": "nonpayable",
      "type": "function"
    },
    {
      "inputs": [
        {
          "internalType": "bytes4",
          "name": "groupId",
          "type": "bytes4"
        },
        {
          "internalType": "address",
          "name": "account",
          "type": "address"
        }
      ],
      "name": "multisigWhitelistRemove",
      "outputs": [],
      "stateMutability": "nonpayable",
      "type": "function"
    },
    {
      "inputs": [],
      "name": "name",
      "outputs": [
        {
          "internalType": "string",
          "name": "",
          "type": "string"
        }
      ],
      "stateMutability": "view",
      "type": "function"
    },
    {
      "inputs": [],
      "name": "owner",
      "outputs": [
        {
          "internalType": "address",
          "name": "",
          "type": "address"
        }
      ],
      "stateMutability": "view",
      "type": "function"
    },
    {
      "inputs": [],
      "name": "paused",
      "outputs": [
        {
          "internalType": "bool",
          "name": "",
          "type": "bool"
        }
      ],
      "stateMutability": "view",
      "type": "function"
    },
    {
      "inputs": [],
      "name": "percentDecimal",
      "outputs": [
        {
          "internalType": "uint256",
          "name": "",
          "type": "uint256"
        }
      ],
      "stateMutability": "view",
      "type": "function"
    },
    {
      "inputs": [],
      "name": "removeMarketContract",
      "outputs": [],
      "stateMutability": "nonpayable",
      "type": "function"
    },
    {
      "inputs": [],
      "name": "renounceOwnership",
      "outputs": [],
      "stateMutability": "nonpayable",
      "type": "function"
    },
    {
      "inputs": [
        {
          "internalType": "address[]",
          "name": "persons",
          "type": "address[]"
        },
        {
          "internalType": "uint256[]",
          "name": "amounts",
          "type": "uint256[]"
        }
      ],
      "name": "setInvestors",
      "outputs": [],
      "stateMutability": "nonpayable",
      "type": "function"
    },
    {
      "inputs": [
        {
          "internalType": "address[]",
          "name": "persons",
          "type": "address[]"
        },
        {
          "internalType": "uint256[]",
          "name": "amounts",
          "type": "uint256[]"
        }
      ],
      "name": "setTeam",
      "outputs": [],
      "stateMutability": "nonpayable",
      "type": "function"
    },
    {
      "inputs": [],
      "name": "symbol",
      "outputs": [
        {
          "internalType": "string",
          "name": "",
          "type": "string"
        }
      ],
      "stateMutability": "view",
      "type": "function"
    },
    {
      "inputs": [],
      "name": "totalSupply",
      "outputs": [
        {
          "internalType": "uint256",
          "name": "",
          "type": "uint256"
        }
      ],
      "stateMutability": "view",
      "type": "function"
    },
    {
      "inputs": [
        {
          "internalType": "address",
          "name": "recipient",
          "type": "address"
        },
        {
          "internalType": "uint256",
          "name": "amount",
          "type": "uint256"
        }
      ],
      "name": "transfer",
      "outputs": [
        {
          "internalType": "bool",
          "name": "",
          "type": "bool"
        }
      ],
      "stateMutability": "nonpayable",
      "type": "function"
    },
    {
      "inputs": [
        {
          "internalType": "address payable",
          "name": "account",
          "type": "address"
        },
        {
          "internalType": "uint256",
          "name": "amount",
          "type": "uint256"
        }
      ],
      "name": "transferEth",
      "outputs": [],
      "stateMutability": "nonpayable",
      "type": "function"
    },
    {
      "inputs": [
        {
          "internalType": "address",
          "name": "sender",
          "type": "address"
        },
        {
          "internalType": "address",
          "name": "recipient",
          "type": "address"
        },
        {
          "internalType": "uint256",
          "name": "amount",
          "type": "uint256"
        }
      ],
      "name": "transferFrom",
      "outputs": [
        {
          "internalType": "bool",
          "name": "",
          "type": "bool"
        }
      ],
      "stateMutability": "nonpayable",
      "type": "function"
    },
    {
      "inputs": [
        {
          "internalType": "address",
          "name": "newOwner",
          "type": "address"
        }
      ],
      "name": "transferOwnership",
      "outputs": [],
      "stateMutability": "nonpayable",
      "type": "function"
    },
    {
      "inputs": [
        {
          "internalType": "address",
          "name": "account",
          "type": "address"
        },
        {
          "internalType": "uint256",
          "name": "amount",
          "type": "uint256"
        }
      ],
      "name": "transferUSDT",
      "outputs": [],
      "stateMutability": "nonpayable",
      "type": "function"
    },
    {
      "stateMutability": "payable",
      "type": "receive"
    },
    {
      "inputs": [],
      "name": "getFFInfo",
      "outputs": [
        {
          "internalType": "address",
          "name": "addr",
          "type": "address"
        },
        {
          "internalType": "uint256",
          "name": "startDate",
          "type": "uint256"
        },
        {
          "internalType": "uint256",
          "name": "budget",
          "type": "uint256"
        },
        {
          "internalType": "uint256",
          "name": "badgeUsed",
          "type": "uint256"
        },
        {
          "internalType": "uint256",
          "name": "badgeClaimed",
          "type": "uint256"
        },
        {
          "internalType": "uint256",
          "name": "steps",
          "type": "uint256"
        },
        {
          "internalType": "uint256",
          "name": "available",
          "type": "uint256"
        }
      ],
      "stateMutability": "view",
      "type": "function"
    },
    {
      "inputs": [],
      "name": "claimFF",
      "outputs": [],
      "stateMutability": "nonpayable",
      "type": "function"
    },
    {
      "inputs": [
        {
          "internalType": "address",
          "name": "account",
          "type": "address"
        },
        {
          "internalType": "uint256",
          "name": "amount",
          "type": "uint256"
        }
      ],
      "name": "transferFF",
      "outputs": [],
      "stateMutability": "nonpayable",
      "type": "function"
    }
  ],
  "bytecode": "0x600760808181526610da5d1859195b60ca1b60a0908152610100604052600360c0818152621610d560ea1b60e05292936200003b929062000130565b5080516200005190600490602084019062000130565b50506005805460ff19166012179055506000620000766001600160e01b036200011516565b60058054610100600160a81b0319166101006001600160a01b03841690810291909117909155604051919250906000907f8be0079c531659141344cd1fd0a4f28419497f9722a3daafe3b4186f6b6457e0908290a3506005805460ff60a81b19169055600780546001600160a01b031916301790554260085566038d7ea4c680006009556200010f60066001600160e01b036200011a16565b620001d2565b335b90565b6005805460ff191660ff92909216919091179055565b828054600181600116156101000203166002900490600052602060002090601f016020900481019282601f106200017357805160ff1916838001178555620001a3565b82800160010185558215620001a3579182015b82811115620001a357825182559160200191906001019062000186565b50620001b1929150620001b5565b5090565b6200011791905b80821115620001b15760008155600101620001bc565b61439380620001e26000396000f3fe6080604052600436106102975760003560e01c80639038a3ce1161015a578063d015ed6a116100c1578063f05491331161007a578063f054913314610ec5578063f0e169a814610f90578063f2fde38b14610fa5578063f905c15a14610fd8578063fcd6f77914610fed578063fefa83f31461104b57610656565b8063d015ed6a14610da1578063d263941e14610dda578063dcb1701514610e12578063dd62ed3e14610e27578063e2ad914414610e62578063e9bb84c214610e8c57610656565b8063a9c8822a11610113578063a9c8822a14610cc6578063aa20a3a814610cf0578063ba1a681f14610d23578063bb40f3c614610d38578063c511ed5e14610d62578063cf6b60b814610d7757610656565b80639038a3ce14610b3557806395d89b4114610b4a57806397464f6114610b5f5780639f7fd8f214610c2a578063a457c2d714610c54578063a9059cbb14610c8d57610656565b8063605418cd116101fe57806374e7493b116101b757806374e7493b146109e1578063791b8a7814610a0b5780637c465e0914610a8f5780638b54b2bf14610ad25780638d08c8a514610b0b5780638da5cb5b14610b2057610656565b8063605418cd1461090c578063679aefce1461093657806369668fe91461094b5780636fe640ea1461096057806370a0823114610999578063715018a6146109cc57610656565b806323b872dd1161025057806323b872dd146107c8578063313ce5671461080b578063395093511461083657806353d168e71461086f5780635a509f64146108a05780635c975abb146108f757610656565b806306fdde031461065b578063095ea7b3146106e557806317abbc2f1461073257806318160ddd146107595780631d4ab1201461076e5780631fe740f0146107b357610656565b366106565760135460ff16156102e2576040805162461bcd60e51b815260206004820152601e602482015260008051602061427f833981519152604482015290519081900360640190fd5b6000601054116103235760405162461bcd60e51b81526004018080602001828103825260248152602001806142eb6024913960400191505060405180910390fd5b60115433600090815260126020526040902054106103725760405162461bcd60e51b81526004018080602001828103825260248152602001806141376024913960400191505060405180910390fd5b600d543390600090349082906001600160a01b03161561047657600061039661107e565b50505091505060006103c76305f5e1006103bb600e548561112c90919063ffffffff16565b9063ffffffff61118e16565b90506103d9848263ffffffff61118e16565b6011546001600160a01b03881660009081526012602052604090205491965090610409908763ffffffff6111d016565b111561043d576001600160a01b03861660009081526012602052604090205460115461043a9163ffffffff61122a16565b94505b60105485111561044d5760105494505b61046d610460868363ffffffff61112c16565b859063ffffffff61122a16565b92505050610569565b600b541561053257600b5461049290839063ffffffff61118e16565b6011546001600160a01b038616600090815260126020526040902054919450906104c2908563ffffffff6111d016565b11156104f6576001600160a01b0384166000908152601260205260409020546011546104f39163ffffffff61122a16565b92505b6010548311156105065760105492505b61052b61051e600b548561112c90919063ffffffff16565b839063ffffffff61122a16565b9050610569565b60405162461bcd60e51b815260040180806020018281038252602b8152602001806140c6602b913960400191505060405180910390fd5b600083116105be576040805162461bcd60e51b815260206004820152601f60248201527f4369746164656c45786368616e67653a20746f6f206c6f7720616d6f756e7400604482015290519081900360640190fd5b80156105f357604051339082156108fc029083906000818181858888f193505050501580156105f1573d6000803e3d6000fd5b505b60075461060a906001600160a01b0316858561126c565b3360009081526012602052604090205461062a908463ffffffff6111d016565b3360009081526012602052604090205560105461064d908463ffffffff61122a16565b60105550505050005b600080fd5b34801561066757600080fd5b506106706113d3565b6040805160208082528351818301528351919283929083019185019080838360005b838110156106aa578181015183820152602001610692565b50505050905090810190601f1680156106d75780820380516001836020036101000a031916815260200191505b509250505060405180910390f35b3480156106f157600080fd5b5061071e6004803603604081101561070857600080fd5b506001600160a01b03813516906020013561146a565b604080519115158252519081900360200190f35b34801561073e57600080fd5b50610747611487565b60408051918252519081900360200190f35b34801561076557600080fd5b506107476114d7565b34801561077a57600080fd5b506107b16004803603604081101561079157600080fd5b5080356001600160e01b03191690602001356001600160a01b03166114dd565b005b3480156107bf57600080fd5b506107b16116ef565b3480156107d457600080fd5b5061071e600480360360608110156107eb57600080fd5b506001600160a01b038135811691602081013590911690604001356117f1565b34801561081757600080fd5b5061082061187e565b6040805160ff9092168252519081900360200190f35b34801561084257600080fd5b5061071e6004803603604081101561085957600080fd5b506001600160a01b038135169060200135611887565b34801561087b57600080fd5b506108846118db565b604080516001600160a01b039092168252519081900360200190f35b3480156108ac57600080fd5b506108b56118ea565b604080516001600160a01b0390981688526020880196909652868601949094526060860192909252608085015260a084015260c0830152519081900360e00190f35b34801561090357600080fd5b5061071e6119dc565b34801561091857600080fd5b506107476004803603602081101561092f57600080fd5b50356119ec565b34801561094257600080fd5b50610747611a92565b34801561095757600080fd5b50610747611ae2565b34801561096c57600080fd5b506107b16004803603604081101561098357600080fd5b506001600160a01b038135169060200135611ae8565b3480156109a557600080fd5b50610747600480360360208110156109bc57600080fd5b50356001600160a01b0316611c35565b3480156109d857600080fd5b506107b1611c68565b3480156109ed57600080fd5b506107b160048036036020811015610a0457600080fd5b5035611d15565b348015610a1757600080fd5b50610a3f60048036036020811015610a2e57600080fd5b50356001600160e01b031916611dfc565b60408051602080825283518183015283519192839290830191858101910280838360005b83811015610a7b578181015183820152602001610a63565b505050509050019250505060405180910390f35b348015610a9b57600080fd5b506107b160048036036040811015610ab257600080fd5b5080356001600160e01b03191690602001356001600160a01b0316611ee0565b348015610ade57600080fd5b506107b160048036036040811015610af557600080fd5b506001600160a01b038135169060200135611fbf565b348015610b1757600080fd5b506107b1612075565b348015610b2c57600080fd5b5061088461212a565b348015610b4157600080fd5b5061088461213e565b348015610b5657600080fd5b5061067061214d565b348015610b6b57600080fd5b506107b160048036036040811015610b8257600080fd5b810190602081018135600160201b811115610b9c57600080fd5b820183602082011115610bae57600080fd5b803590602001918460208302840111600160201b83111715610bcf57600080fd5b919390929091602081019035600160201b811115610bec57600080fd5b820183602082011115610bfe57600080fd5b803590602001918460208302840111600160201b83111715610c1f57600080fd5b5090925090506121ae565b348015610c3657600080fd5b506107b160048036036020811015610c4d57600080fd5b50356123b2565b348015610c6057600080fd5b5061071e60048036036040811015610c7757600080fd5b506001600160a01b0381351690602001356125f4565b348015610c9957600080fd5b5061071e60048036036040811015610cb057600080fd5b506001600160a01b038135169060200135612662565b348015610cd257600080fd5b506107b160048036036020811015610ce957600080fd5b5035612676565b348015610cfc57600080fd5b506107b160048036036020811015610d1357600080fd5b50356001600160a01b0316612832565b348015610d2f57600080fd5b50610747612944565b348015610d4457600080fd5b5061074760048036036020811015610d5b57600080fd5b503561294a565b348015610d6e57600080fd5b506107b1612a39565b348015610d8357600080fd5b506107b160048036036020811015610d9a57600080fd5b5035612b0c565b348015610dad57600080fd5b506107b160048036036040811015610dc457600080fd5b506001600160a01b038135169060200135612cc1565b348015610de657600080fd5b50610def612dc5565b604080516001600160a01b03909316835260208301919091528051918290030190f35b348015610e1e57600080fd5b50610747612e26565b348015610e3357600080fd5b5061074760048036036040811015610e4a57600080fd5b506001600160a01b0381358116916020013516612e2c565b348015610e6e57600080fd5b506107b160048036036020811015610e8557600080fd5b5035612e57565b348015610e9857600080fd5b506107b160048036036040811015610eaf57600080fd5b506001600160a01b038135169060200135612eff565b348015610ed157600080fd5b506107b160048036036040811015610ee857600080fd5b810190602081018135600160201b811115610f0257600080fd5b820183602082011115610f1457600080fd5b803590602001918460208302840111600160201b83111715610f3557600080fd5b919390929091602081019035600160201b811115610f5257600080fd5b820183602082011115610f6457600080fd5b803590602001918460208302840111600160201b83111715610f8557600080fd5b509092509050612fae565b348015610f9c57600080fd5b5061071e6131ab565b348015610fb157600080fd5b506107b160048036036020811015610fc857600080fd5b50356001600160a01b03166131b4565b348015610fe457600080fd5b506107476132bd565b348015610ff957600080fd5b506110206004803603602081101561101057600080fd5b50356001600160a01b03166132c3565b6040805195865260208601949094528484019290925260608401526080830152519081900360a00190f35b34801561105757600080fd5b506110206004803603602081101561106e57600080fd5b50356001600160a01b0316613374565b60008060008060008060009050600c60009054906101000a90046001600160a01b03166001600160a01b031663feaf968c6040518163ffffffff1660e01b815260040160a06040518083038186803b1580156110d957600080fd5b505afa1580156110ed573d6000803e3d6000fd5b505050506040513d60a081101561110357600080fd5b508051602082015160408301516060840151608090940151929a91995097509195509350915050565b60008261113b57506000611188565b8282028284828161114857fe5b04146111855760405162461bcd60e51b81526004018080602001828103825260218152602001806141ad6021913960400191505060405180910390fd5b90505b92915050565b600061118583836040518060400160405280601a81526020017f536166654d6174683a206469766973696f6e206279207a65726f00000000000081525061341a565b600082820183811015611185576040805162461bcd60e51b815260206004820152601b60248201527f536166654d6174683a206164646974696f6e206f766572666c6f770000000000604482015290519081900360640190fd5b600061118583836040518060400160405280601e81526020017f536166654d6174683a207375627472616374696f6e206f766572666c6f7700008152506134bc565b6001600160a01b0383166112b15760405162461bcd60e51b815260040180806020018281038252602581526020018061425a6025913960400191505060405180910390fd5b6001600160a01b0382166112f65760405162461bcd60e51b815260040180806020018281038252602381526020018061400e6023913960400191505060405180910390fd5b611301838383613516565b61134481604051806060016040528060268152602001614111602691396001600160a01b038616600090815260208190526040902054919063ffffffff6134bc16565b6001600160a01b038085166000908152602081905260408082209390935590841681522054611379908263ffffffff6111d016565b6001600160a01b038084166000818152602081815260409182902094909455805185815290519193928716927fddf252ad1be2c89b69c2b068fc378daa952ba7f163c4a11628f55a4df523b3ef92918290030190a3505050565b60038054604080516020601f600260001961010060018816150201909516949094049384018190048102820181019092528281526060939092909183018282801561145f5780601f106114345761010080835404028352916020019161145f565b820191906000526020600020905b81548152906001019060200180831161144257829003601f168201915b505050505090505b90565b600061147e6114776135bb565b84846135bf565b50600192915050565b60135460009060ff16156114d0576040805162461bcd60e51b815260206004820152601e602482015260008051602061427f833981519152604482015290519081900360640190fd5b5060115490565b60025490565b6001600160e01b031982166000908152600660209081526040808320338452600101909152902054829060ff166115455760405162461bcd60e51b81526004018080602001828103825260288152602001806142c36028913960400191505060405180910390fd5b6001600160e01b031983166000908152600660205260409020600280820154116115a05760405162461bcd60e51b81526004018080602001828103825260238152602001806142376023913960400191505060405180910390fd5b6115a9846136ab565b6115b357506116ea565b6002810154815414156115c95780546000190181555b606060018260020180549050036040519080825280602002602001820160405280156115ff578160200160208202803883390190505b5090506000805b60028401548110156116ab57856001600160a01b031684600201828154811061162b57fe5b6000918252602090912001546001600160a01b0316141561164b576116a3565b83600201818154811061165a57fe5b9060005260206000200160009054906101000a90046001600160a01b031683838151811061168457fe5b6001600160a01b03909216602092830291909101909101526001909101905b600101611606565b506001600160a01b03851660009081526001840160209081526040909120805460ff1916905582516116e591600286019190850190613f13565b505050505b505050565b3360009081526000805160206140f1833981519152602052604090205461232360f11b9060ff166117515760405162461bcd60e51b81526004018080602001828103825260288152602001806142c36028913960400191505060405180910390fd5b60008061175c613954565b905060215481141561178457601f54601e5461177d9163ffffffff61122a16565b91506117ae565b6117ab601f5461179f8360225461112c90919063ffffffff16565b9063ffffffff61122a16565b91505b81156116ea57600754601d546117d6916001600160a01b03908116916101009004168461126c565b601f546117e9908363ffffffff6111d016565b601f55505050565b60006117fe84848461126c565b6118748461180a6135bb565b61186f856040518060600160405280602881526020016141ce602891396001600160a01b038a166000908152600160205260408120906118486135bb565b6001600160a01b03168152602081019190915260400160002054919063ffffffff6134bc16565b6135bf565b5060019392505050565b60055460ff1690565b600061147e6118946135bb565b8461186f85600160006118a56135bb565b6001600160a01b03908116825260208083019390935260409182016000908120918c16815292529020549063ffffffff6111d016565b6007546001600160a01b031681565b3360009081526000805160206140f1833981519152602052604081205481908190819081908190819061232360f11b9060ff166119585760405162461bcd60e51b81526004018080602001828103825260288152602001806142c36028913960400191505060405180910390fd5b601d60019054906101000a90046001600160a01b031697506008549650601e5495506020549450601f54935061198c613954565b92506021548314156119b457601f54601e546119ad9163ffffffff61122a16565b91506119d2565b6119cf601f5461179f8560225461112c90919063ffffffff16565b91505b5090919293949596565b600554600160a81b900460ff1690565b60135460009060ff1615611a35576040805162461bcd60e51b815260206004820152601e602482015260008051602061427f833981519152604482015290519081900360640190fd5b6000600e5411611a765760405162461bcd60e51b815260040180806020018281038252602681526020018061415b6026913960400191505060405180910390fd5b600e54611a8a90839063ffffffff61118e16565b90505b919050565b60135460009060ff1615611adb576040805162461bcd60e51b815260206004820152601e602482015260008051602061427f833981519152604482015290519081900360640190fd5b50600b5490565b60085481565b60135460ff1615611b2e576040805162461bcd60e51b815260206004820152601e602482015260008051602061427f833981519152604482015290519081900360640190fd5b611b366135bb565b60055461010090046001600160a01b03908116911614611b8b576040805162461bcd60e51b815260206004820181905260248201526000805160206141f6833981519152604482015290519081900360640190fd5b600d546001600160a01b031615611be957611bae826001600160a01b031661398f565b611be95760405162461bcd60e51b815260040180806020018281038252602b815260200180614031602b913960400191505060405180910390fd5b600d80546001600160a01b0319166001600160a01b038481169190911791829055600e8390551615611c3157600c80546001600160a01b0319166001600160a01b0384161790555b5050565b6000611a8a611c4383613995565b6001600160a01b0384166000908152602081905260409020549063ffffffff6111d016565b611c706135bb565b60055461010090046001600160a01b03908116911614611cc5576040805162461bcd60e51b815260206004820181905260248201526000805160206141f6833981519152604482015290519081900360640190fd5b60055460405160009161010090046001600160a01b0316907f8be0079c531659141344cd1fd0a4f28419497f9722a3daafe3b4186f6b6457e0908390a360058054610100600160a81b0319169055565b60135460ff1615611d5b576040805162461bcd60e51b815260206004820152601e602482015260008051602061427f833981519152604482015290519081900360640190fd5b611d636135bb565b60055461010090046001600160a01b03908116911614611db8576040805162461bcd60e51b815260206004820181905260248201526000805160206141f6833981519152604482015290519081900360640190fd5b60008111611df75760405162461bcd60e51b815260040180806020018281038252602b8152602001806140c6602b913960400191505060405180910390fd5b600b55565b6001600160e01b031981166000908152600660209081526040808320338452600101909152902054606090829060ff16611e675760405162461bcd60e51b81526004018080602001828103825260288152602001806142c36028913960400191505060405180910390fd5b6001600160e01b0319831660009081526006602090815260409182902060020180548351818402810184019094528084529091830182828015611ed357602002820191906000526020600020905b81546001600160a01b03168152600190910190602001808311611eb5575b5050505050915050919050565b6001600160e01b031982166000908152600660209081526040808320338452600101909152902054829060ff16611f485760405162461bcd60e51b81526004018080602001828103825260288152602001806142c36028913960400191505060405180910390fd5b611f518361399b565b611f5a576116ea565b506001600160e01b03199190911660009081526006602090815260408083206001600160a01b0390941680845260018086018452918420805460ff191683179055600290940180549182018155835291200180546001600160a01b0319169091179055565b3360009081526000805160206140f1833981519152602052604090205461232360f11b9060ff166120215760405162461bcd60e51b81526004018080602001828103825260288152602001806142c36028913960400191505060405180910390fd5b61202f61232360f11b61399b565b612038576116ea565b81156116ea57601d5461205a9061010090046001600160a01b0316848461126c565b60205461206d908363ffffffff6111d016565b602055505050565b60135460ff16156120bb576040805162461bcd60e51b815260206004820152601e602482015260008051602061427f833981519152604482015290519081900360640190fd5b6120c36135bb565b60055461010090046001600160a01b03908116911614612118576040805162461bcd60e51b815260206004820181905260248201526000805160206141f6833981519152604482015290519081900360640190fd5b600d80546001600160a01b0319169055565b60055461010090046001600160a01b031690565b600f546001600160a01b031690565b60048054604080516020601f600260001961010060018816150201909516949094049384018190048102820181019092528281526060939092909183018282801561145f5780601f106114345761010080835404028352916020019161145f565b6121b66135bb565b60055461010090046001600160a01b0390811691161461220b576040805162461bcd60e51b815260206004820181905260248201526000805160206141f6833981519152604482015290519081900360640190fd5b601b5460ff161561221b57600080fd5b601b805460ff1916600117905582811461223457600080fd5b6000805b8481101561236a57600084848381811061224e57fe5b9050602002013590506000811161226457600080fd5b601c600088888581811061227457fe5b905060200201356001600160a01b03166001600160a01b03166001600160a01b03168152602001908152602001600020600001546000146122b457600080fd5b6122c4838263ffffffff6111d016565b92506040518060600160405280828152602001600081526020016122f96019546103bb6009548661112c90919063ffffffff16565b9052601c600089898681811061230b57fe5b905060200201356001600160a01b03166001600160a01b03166001600160a01b03168152602001908152602001600020600082015181600001556020820151816001015560408201518160020155905050508080600101915050612238565b5060195481146123ab5760405162461bcd60e51b8152600401808060200182810382526036815260200180613fd86036913960400191505060405180910390fd5b5050505050565b60135460ff16156123f8576040805162461bcd60e51b815260206004820152601e602482015260008051602061427f833981519152604482015290519081900360640190fd5b6000600e54116124395760405162461bcd60e51b815260040180806020018281038252602681526020018061415b6026913960400191505060405180910390fd5b600f5460075460408051636eb1769f60e11b815233600482018190526001600160a01b039384166024830152915191938593169163dd62ed3e91604480820192602092909190829003018186803b15801561249357600080fd5b505afa1580156124a7573d6000803e3d6000fd5b505050506040513d60208110156124bd57600080fd5b505110156124fc5760405162461bcd60e51b815260040180806020018281038252602c815260200180614181602c913960400191505060405180910390fd5b6000612513600e548461118e90919063ffffffff16565b9050600061252f610460600e548461112c90919063ffffffff16565b9050801561254a57612547848263ffffffff61122a16565b93505b600f54600754604080516323b872dd60e01b81526001600160a01b038781166004830152928316602482015260448101889052905191909216916323b872dd9160648083019260209291908290030181600087803b1580156125ab57600080fd5b505af11580156125bf573d6000803e3d6000fd5b505050506040513d60208110156125d557600080fd5b50506007546125ee906001600160a01b0316848461126c565b50505050565b600061147e6126016135bb565b8461186f8560405180606001604052806025815260200161430f602591396001600061262b6135bb565b6001600160a01b03908116825260208083019390935260409182016000908120918d1681529252902054919063ffffffff6134bc16565b600061147e61266f6135bb565b848461126c565b336000818152601760205260409020546126d7576040805162461bcd60e51b815260206004820152601b60248201527f4369746164656c496e766573746f72733a207465616d206f6e6c790000000000604482015290519081900360640190fd5b6001600160a01b03811660009081526017602090815260408083208151606081018352815481526001820154818501526002909101548183015260145460158054845181870281018701909552808552612768959394929383018282801561275e57602002820191906000526020600020905b81548152602001906001019080831161274a575b5050505050613c2c565b9050808311156127bf576040805162461bcd60e51b815260206004820181905260248201527f4369746164656c496e766573746f72733a20746f6f2062696720616d6f756e74604482015290519081900360640190fd5b6001600160a01b0382166000908152601760205260409020600101546127eb908463ffffffff6111d016565b6001600160a01b03831660009081526017602052604090206001810182905554101561281657600080fd5b6013546116ea9061010090046001600160a01b0316838561126c565b60135460ff1615612878576040805162461bcd60e51b815260206004820152601e602482015260008051602061427f833981519152604482015290519081900360640190fd5b6128806135bb565b60055461010090046001600160a01b039081169116146128d5576040805162461bcd60e51b815260206004820181905260248201526000805160206141f6833981519152604482015290519081900360640190fd5b6128e7816001600160a01b031661398f565b6129225760405162461bcd60e51b815260040180806020018281038252602b815260200180614031602b913960400191505060405180910390fd5b600f80546001600160a01b0319166001600160a01b0392909216919091179055565b60095481565b60135460009060ff1615612993576040805162461bcd60e51b815260206004820152601e602482015260008051602061427f833981519152604482015290519081900360640190fd5b600d546001600160a01b031615612a025760006129ae61107e565b50505091505060006129d36305f5e1006103bb600e548561112c90919063ffffffff16565b905060006129e7858363ffffffff61118e16565b90506010548111156129f857506010545b9250611a8d915050565b600b5415610532576000612a21600b548461118e90919063ffffffff16565b9050601054811115612a3257506010545b9050611a8d565b60135460ff1615612a7f576040805162461bcd60e51b815260206004820152601e602482015260008051602061427f833981519152604482015290519081900360640190fd5b612a876135bb565b60055461010090046001600160a01b03908116911614612adc576040805162461bcd60e51b815260206004820181905260248201526000805160206141f6833981519152604482015290519081900360640190fd5b60105415612afd57600754601054612afd916001600160a01b031690613d87565b6013805460ff19166001179055565b336000818152601c6020526040902054612b6d576040805162461bcd60e51b815260206004820152601f60248201527f4369746164656c496e766573746f72733a20696e766573746f72206f6e6c7900604482015290519081900360640190fd5b6001600160a01b0381166000908152601c6020908152604080832081516060810183528154815260018201548185015260029091015481830152601954601a8054845181870281018701909552808552612bfc959394929383018282801561275e576020028201919060005260206000209081548152602001906001019080831161274a575050505050613c2c565b905080831115612c53576040805162461bcd60e51b815260206004820181905260248201527f4369746164656c496e766573746f72733a20746f6f2062696720616d6f756e74604482015290519081900360640190fd5b6001600160a01b0382166000908152601c6020526040902060010154612c7f908463ffffffff6111d016565b6001600160a01b0383166000908152601c6020526040902060018101829055541015612caa57600080fd5b6018546116ea906001600160a01b0316838561126c565b3360009081526000805160206140f1833981519152602052604090205461232360f11b9060ff16612d235760405162461bcd60e51b81526004018080602001828103825260288152602001806142c36028913960400191505060405180910390fd5b612d3161232360f11b61399b565b612d3a576116ea565b600f54600754604080516323b872dd60e01b81526001600160a01b039283166004820152868316602482015260448101869052905191909216916323b872dd9160648083019260209291908290030181600087803b158015612d9b57600080fd5b505af1158015612daf573d6000803e3d6000fd5b505050506040513d60208110156123ab57600080fd5b601354600090819060ff1615612e10576040805162461bcd60e51b815260206004820152601e602482015260008051602061427f833981519152604482015290519081900360640190fd5b5050600d54600e546001600160a01b0390911691565b60105481565b6001600160a01b03918216600090815260016020908152604080832093909416825291909152205490565b60135460ff1615612e9d576040805162461bcd60e51b815260206004820152601e602482015260008051602061427f833981519152604482015290519081900360640190fd5b612ea56135bb565b60055461010090046001600160a01b03908116911614612efa576040805162461bcd60e51b815260206004820181905260248201526000805160206141f6833981519152604482015290519081900360640190fd5b601155565b3360009081526000805160206140f1833981519152602052604090205461232360f11b9060ff16612f615760405162461bcd60e51b81526004018080602001828103825260288152602001806142c36028913960400191505060405180910390fd5b612f6f61232360f11b61399b565b612f78576116ea565b6040516001600160a01b0384169083156108fc029084906000818181858888f193505050501580156125ee573d6000803e3d6000fd5b612fb66135bb565b60055461010090046001600160a01b0390811691161461300b576040805162461bcd60e51b815260206004820181905260248201526000805160206141f6833981519152604482015290519081900360640190fd5b60165460ff161561301b57600080fd5b6016805460ff1916600117905582811461303457600080fd5b6000805b8481101561316a57600084848381811061304e57fe5b9050602002013590506000811161306457600080fd5b6017600088888581811061307457fe5b905060200201356001600160a01b03166001600160a01b03166001600160a01b03168152602001908152602001600020600001546000146130b457600080fd5b6130c4838263ffffffff6111d016565b92506040518060600160405280828152602001600081526020016130f96014546103bb6009548661112c90919063ffffffff16565b90526017600089898681811061310b57fe5b905060200201356001600160a01b03166001600160a01b03166001600160a01b03168152602001908152602001600020600082015181600001556020820151816001015560408201518160020155905050508080600101915050613038565b5060145481146123ab5760405162461bcd60e51b8152600401808060200182810382526036815260200180613fd86036913960400191505060405180910390fd5b60135460ff1690565b6131bc6135bb565b60055461010090046001600160a01b03908116911614613211576040805162461bcd60e51b815260206004820181905260248201526000805160206141f6833981519152604482015290519081900360640190fd5b6001600160a01b0381166132565760405162461bcd60e51b815260040180806020018281038252602681526020018061407e6026913960400191505060405180910390fd5b6005546040516001600160a01b0380841692610100900416907f8be0079c531659141344cd1fd0a4f28419497f9722a3daafe3b4186f6b6457e090600090a3600580546001600160a01b0390921661010002610100600160a81b0319909216919091179055565b60085490565b6008546001600160a01b0382166000908152601c60209081526040808320805460018201546002909201548351606081018552828152808601849052808501829052601954601a80548751818a0281018a01909852808852949995989793964296909603956133699593949293909283018282801561275e576020028201919060005260206000209081548152602001906001019080831161274a575050505050613c2c565b925091939590929450565b6008546001600160a01b0382166000908152601760209081526040808320805460018201546002909201548351606081018552828152808601849052808501829052601454601580548751818a0281018a01909852808852949995989793964296909603956133699593949293909283018282801561275e576020028201919060005260206000209081548152602001906001019080831161274a575050505050613c2c565b600081836134a65760405162461bcd60e51b81526004018080602001828103825283818151815260200191508051906020019080838360005b8381101561346b578181015183820152602001613453565b50505050905090810190601f1680156134985780820380516001836020036101000a031916815260200191505b509250505060405180910390fd5b5060008385816134b257fe5b0495945050505050565b6000818484111561350e5760405162461bcd60e51b815260206004820181815283516024840152835190928392604490910191908501908083836000831561346b578181015183820152602001613453565b505050900390565b6135218383836116ea565b6103e83311613577576040805162461bcd60e51b815260206004820152601960248201527f4369746164656c546f6b656e3a2066616b652073656e64657200000000000000604482015290519081900360640190fd5b61357f6119dc565b156116ea5760405162461bcd60e51b815260040180806020018281038252602a815260200180614334602a913960400191505060405180910390fd5b3390565b6001600160a01b0383166136045760405162461bcd60e51b815260040180806020018281038252602481526020018061429f6024913960400191505060405180910390fd5b6001600160a01b0382166136495760405162461bcd60e51b81526004018080602001828103825260228152602001806140a46022913960400191505060405180910390fd5b6001600160a01b03808416600081815260016020908152604080832094871680845294825291829020859055815185815291517f8c5be1e5ebec7d5bd14f71427d1e84f3dd0314c0f7b2291e5b200ac8c7c3b9259281900390910190a3505050565b6001600160e01b031981166000908152600660205260408120805460028201548114156136d757600019015b600080356001600160e01b03191690506000803660405180838380828437604080519190930181900390206001600160e01b03198816600090815260038b01602052929092206001015491955050159250613894915050576001600160e01b03198216600090815260038501602052604090205481141561381d5760005b6001600160e01b0319831660009081526003860160205260409020600201548110156137d9576001600160e01b03198316600090815260038601602052604090206002018054339190839081106137a857fe5b6000918252602090912001546001600160a01b031614156137d157600095505050505050611a8d565b600101613755565b506001600160e01b03198216600090815260038501602090815260408220600201805460018101825590835291200180546001600160a01b0319163317905561388f565b6001600160e01b031982166000908152600385016020526040812082815542600182015561385091600290910190613f78565b6001600160e01b03198216600090815260038501602090815260408220600201805460018101825590835291200180546001600160a01b031916331790555b6138e0565b6001600160e01b0319821660009081526003850160209081526040822083815542600180830191909155600290910180549182018155835291200180546001600160a01b031916331790555b6001600160e01b0319821660009081526003850160205260409020600201548311613947576001600160e01b031982166000908152600385016020526040812081815560018101829055906139386002830182613f78565b50506001945050505050611a8d565b6000945050505050611a8d565b600080600854420390506000602354828161396b57fe5b04905060215481106139835760215492505050611467565b60010191506114679050565b3b151590565b50600090565b6001600160e01b031980821660009081526006602052604080822090519192909183359091169083908190369080838380828437604080519190930181900390206001600160e01b03198816600090815260038a01602052929092206001015491955050159250613b6d915050576001600160e01b031982166000908152600384016020526040902054811415613af65760005b6001600160e01b031983166000908152600385016020526040902060020154811015613ab2576001600160e01b0319831660009081526003850160205260409020600201805433919083908110613a8257fe5b6000918252602090912001546001600160a01b03161415613aaa576000945050505050611a8d565b600101613a2f565b506001600160e01b03198216600090815260038401602090815260408220600201805460018101825590835291200180546001600160a01b03191633179055613b68565b6001600160e01b0319821660009081526003840160205260408120828155426001820155613b2991600290910190613f78565b6001600160e01b03198216600090815260038401602090815260408220600201805460018101825590835291200180546001600160a01b031916331790555b613bb9565b6001600160e01b0319821660009081526003840160209081526040822083815542600180830191909155600290910180549182018155835291200180546001600160a01b031916331790555b82546001600160e01b03198316600090815260038501602052604090206002015410613c20576001600160e01b03198216600090815260038401602052604081208181556001810182905590613c126002830182613f78565b505060019350505050611a8d565b60009350505050611a8d565b600080613c3842613e8f565b905060008490508184511115613d3a576000808311613c58576000613c5d565b600183035b9050613c8a60646103bb878481518110613c7357fe5b60200260200101518961112c90919063ffffffff16565b91508215613d0a576000613cc38361179f60646103bb8a8981518110613cac57fe5b60200260200101518c61112c90919063ffffffff16565b9050613cf06301e133806103bb6301e13380600854420381613ce157fe5b8591900663ffffffff61112c16565b9050613d02838263ffffffff6111d016565b925050613d38565b613d356301e133806103bb6301e13380600854420381613d2657fe5b8691900663ffffffff61112c16565b91505b505b613d576009546103bb88604001518461112c90919063ffffffff16565b8651909150811115613d67575084515b6020860151613d7d90829063ffffffff61122a16565b9695505050505050565b6001600160a01b038216613dcc5760405162461bcd60e51b81526004018080602001828103825260218152602001806142166021913960400191505060405180910390fd5b613dd882600083613516565b613e1b8160405180606001604052806022815260200161405c602291396001600160a01b038516600090815260208190526040902054919063ffffffff6134bc16565b6001600160a01b038316600090815260208190526040902055600254613e47908263ffffffff61122a16565b6002556040805182815290516000916001600160a01b038516917fddf252ad1be2c89b69c2b068fc378daa952ba7f163c4a11628f55a4df523b3ef9181900360200190a35050565b600080613ec46301e133806103bb6402540be400613eb86008548861122a90919063ffffffff16565b9063ffffffff61112c16565b9050600081118015613edb57506402540be4008106155b15613ef757613ef481633b9aca0063ffffffff61122a16565b90505b613f0c816402540be40063ffffffff61118e16565b9392505050565b828054828255906000526020600020908101928215613f68579160200282015b82811115613f6857825182546001600160a01b0319166001600160a01b03909116178255602090920191600190910190613f33565b50613f74929150613f99565b5090565b5080546000825590600052602060002090810190613f969190613fbd565b50565b61146791905b80821115613f745780546001600160a01b0319168155600101613f9f565b61146791905b80821115613f745760008155600101613fc356fe4369746164656c496e766573746f72733a20746f74616c20616d6f756e74206d75737420626520657175616c207465616d207061727445524332303a207472616e7366657220746f20746865207a65726f20616464726573734369746164656c45786368616e67653a20616464726573732073686f756c6420626520636f6e747261637445524332303a206275726e20616d6f756e7420657863656564732062616c616e63654f776e61626c653a206e6577206f776e657220697320746865207a65726f206164647265737345524332303a20617070726f766520746f20746865207a65726f20616464726573734369746164656c45786368616e67653a20627579696e6720726174652063616e6e6f74206265207a65726fabbac90b0ac1d0b62c8cc740fe447a12292688b6fd9930dbc5ac385793ac7b3845524332303a207472616e7366657220616d6f756e7420657863656564732062616c616e63654369746164656c45786368616e67653a2062757965722072656163686564206c696d69744369746164656c45786368616e67653a20756e646566696e6564206d61726b657420726174654369746164656c45786368616e67653a20616c6c6f77207573207472616e7366657220796f75722075736474536166654d6174683a206d756c7469706c69636174696f6e206f766572666c6f7745524332303a207472616e7366657220616d6f756e74206578636565647320616c6c6f77616e63654f776e61626c653a2063616c6c6572206973206e6f7420746865206f776e657245524332303a206275726e2066726f6d20746865207a65726f20616464726573734d756c74697369673a20616c7265616479206d696e696d756d2061646472657373657345524332303a207472616e736665722066726f6d20746865207a65726f20616464726573734369746164656c45786368616e67653a206d61726b657420636c6f736564000045524332303a20617070726f76652066726f6d20746865207a65726f20616464726573734d756c74697369673a20596f752063616e6e6f7420657865637574652074686973206d6574686f644369746164656c45786368616e67653a20746f6b656e7320616c726561647920736f6c6445524332303a2064656372656173656420616c6c6f77616e63652062656c6f77207a65726f45524332305061757361626c653a20746f6b656e207472616e73666572207768696c6520706175736564a264697066735822122061808f9c7849594603170ba1555c85b75f406e33a3d07b5c09958261b10d2c1c64736f6c63430006020033",
  "source": "// SPDX-License-Identifier: GPL-3.0\npragma solidity 0.6.2;\n\nimport \"./CitadelInvestors.sol\";\n\n\ncontract CitadelFoundationFund is CitadelInvestors {\n\n    bool private _isInitialized;\n    address private _addressFF;\n    uint256 private _budget;\n    uint256 private _budgetClaimed;\n    uint256 private _budgetUsed;\n    uint private _stepsTotal;\n    uint256 private _stepPrice;\n    uint private _stepPeriod;\n\n    function getFFInfo() external view multisig(bytes4(\"FF\")) returns (\n        address addr,\n        uint startDate,\n        uint256 budget,\n        uint256 badgeUsed,\n        uint256 badgeClaimed,\n        uint steps,\n        uint256 available\n    ) {\n        addr = _addressFF;\n        startDate = deployDate;\n        budget = _budget;\n        badgeUsed = _budgetUsed;\n        badgeClaimed = _budgetClaimed;\n        steps = countSteps();\n        if (steps == _stepsTotal) {\n            available = _budget.sub(_budgetClaimed);\n        } else {\n            available = _stepPrice.mul(steps).sub(_budgetClaimed);\n        }\n    }\n\n    function claimFF() external multisig(bytes4(\"FF\")) {\n        uint256 available;\n        uint steps = countSteps();\n        if (steps == _stepsTotal) {\n            available = _budget.sub(_budgetClaimed);\n        } else {\n            available = _stepPrice.mul(steps).sub(_budgetClaimed);\n        }\n        if (available > 0) {\n            _transfer(_bankAddress, _addressFF, available);\n            _budgetClaimed = _budgetClaimed.add(available);\n        }\n    }\n\n    function transferFF(address account, uint256 amount) external multisig(bytes4(\"FF\")) {\n        if (!_isMultisigReady(bytes4(\"FF\"))) return;\n        if (amount > 0) {\n            _transfer(_addressFF, account, amount);\n            _budgetUsed = _budgetUsed.add(amount);\n        }\n    }\n\n    function _initFFBudget(address addr, uint256 budget) internal {\n\n        require(!_isInitialized);\n        require(addr != address(0), \"CitadelFoundationFund: incorrect address\");\n        require(budget > 0, \"CitadelFoundationFund: empty budget\");\n\n        _isInitialized = true;\n        _addressFF = addr;\n        _budget = budget;\n        _stepsTotal = 4;\n        _stepPrice = budget.div(_stepsTotal);\n        _stepPeriod = 365 days;\n\n    }\n\n    function countSteps() private view returns (uint) {\n        uint diff = block.timestamp - deployDate;\n        uint steps = diff / _stepPeriod;\n        if (steps >= _stepsTotal) {\n            return _stepsTotal;\n        } else {\n            return steps + 1;\n        }\n    }\n\n}\n",
  "sourcePath": "/home/pirat/Desktop/DAO/contracts/Token/CitadelFoundationFund.sol",
  "compiler": {
    "name": "solc",
    "version": "0.6.2+commit.bacdbe57.Emscripten.clang"
  },
  "schemaVersion": "3.2.5",
  "updatedAt": "2020-12-28T08:47:25.009Z",
  "devdoc": {
    "methods": {
      "allowance(address,address)": {
        "details": "See {IERC20-allowance}."
      },
      "approve(address,uint256)": {
        "details": "See {IERC20-approve}.     * Requirements:     * - `spender` cannot be the zero address."
      },
      "balanceOf(address)": {
        "details": "See {IERC20-balanceOf}."
      },
      "decimals()": {
        "details": "Returns the number of decimals used to get its user representation. For example, if `decimals` equals `2`, a balance of `505` tokens should be displayed to a user as `5,05` (`505 / 10 ** 2`).     * Tokens usually opt for a value of 18, imitating the relationship between Ether and Wei. This is the value {ERC20} uses, unless {_setupDecimals} is called.     * NOTE: This information is only used for _display_ purposes: it in no way affects any of the arithmetic of the contract, including {IERC20-balanceOf} and {IERC20-transfer}."
      },
      "decreaseAllowance(address,uint256)": {
        "details": "Atomically decreases the allowance granted to `spender` by the caller.     * This is an alternative to {approve} that can be used as a mitigation for problems described in {IERC20-approve}.     * Emits an {Approval} event indicating the updated allowance.     * Requirements:     * - `spender` cannot be the zero address. - `spender` must have allowance for the caller of at least `subtractedValue`."
      },
      "increaseAllowance(address,uint256)": {
        "details": "Atomically increases the allowance granted to `spender` by the caller.     * This is an alternative to {approve} that can be used as a mitigation for problems described in {IERC20-approve}.     * Emits an {Approval} event indicating the updated allowance.     * Requirements:     * - `spender` cannot be the zero address."
      },
      "name()": {
        "details": "Returns the name of the token."
      },
      "owner()": {
        "details": "Returns the address of the current owner."
      },
      "paused()": {
        "details": "Returns true if the contract is paused, and false otherwise."
      },
      "renounceOwnership()": {
        "details": "Leaves the contract without owner. It will not be possible to call `onlyOwner` functions anymore. Can only be called by the current owner.     * NOTE: Renouncing ownership will leave the contract without an owner, thereby removing any functionality that is only available to the owner."
      },
      "symbol()": {
        "details": "Returns the symbol of the token, usually a shorter version of the name."
      },
      "totalSupply()": {
        "details": "See {IERC20-totalSupply}."
      },
      "transfer(address,uint256)": {
        "details": "See {IERC20-transfer}.     * Requirements:     * - `recipient` cannot be the zero address. - the caller must have a balance of at least `amount`."
      },
      "transferFrom(address,address,uint256)": {
        "details": "See {IERC20-transferFrom}.     * Emits an {Approval} event indicating the updated allowance. This is not required by the EIP. See the note at the beginning of {ERC20};     * Requirements: - `sender` and `recipient` cannot be the zero address. - `sender` must have a balance of at least `amount`. - the caller must have allowance for ``sender``'s tokens of at least `amount`."
      },
      "transferOwnership(address)": {
        "details": "Transfers ownership of the contract to a new account (`newOwner`). Can only be called by the current owner."
      }
    }
  },
  "userdoc": {
    "methods": {}
  }
}