{
  "contractName": "CitadelInflation",
  "abi": [
    {
      "anonymous": false,
      "inputs": [
        {
          "indexed": true,
          "internalType": "address",
          "name": "owner",
          "type": "address"
        },
        {
          "indexed": true,
          "internalType": "address",
          "name": "spender",
          "type": "address"
        },
        {
          "indexed": false,
          "internalType": "uint256",
          "name": "value",
          "type": "uint256"
        }
      ],
      "name": "Approval",
      "type": "event"
    },
    {
      "anonymous": false,
      "inputs": [
        {
          "indexed": true,
          "internalType": "uint256",
          "name": "issueId",
          "type": "uint256"
        },
        {
          "indexed": false,
          "internalType": "uint256",
          "name": "pct",
          "type": "uint256"
        }
      ],
      "name": "ChangeInflation",
      "type": "event"
    },
    {
      "anonymous": false,
      "inputs": [
        {
          "indexed": true,
          "internalType": "uint256",
          "name": "issueId",
          "type": "uint256"
        },
        {
          "indexed": false,
          "internalType": "uint256",
          "name": "pct",
          "type": "uint256"
        }
      ],
      "name": "ChangeVesting",
      "type": "event"
    },
    {
      "anonymous": false,
      "inputs": [
        {
          "indexed": false,
          "internalType": "uint256",
          "name": "index",
          "type": "uint256"
        }
      ],
      "name": "InflationUpdated",
      "type": "event"
    },
    {
      "anonymous": false,
      "inputs": [
        {
          "indexed": false,
          "internalType": "address",
          "name": "addr",
          "type": "address"
        }
      ],
      "name": "NewDaoTransport",
      "type": "event"
    },
    {
      "anonymous": false,
      "inputs": [
        {
          "indexed": false,
          "internalType": "address",
          "name": "addr",
          "type": "address"
        }
      ],
      "name": "NewVestingTransport",
      "type": "event"
    },
    {
      "anonymous": false,
      "inputs": [
        {
          "indexed": true,
          "internalType": "address",
          "name": "previousOwner",
          "type": "address"
        },
        {
          "indexed": true,
          "internalType": "address",
          "name": "newOwner",
          "type": "address"
        }
      ],
      "name": "OwnershipTransferred",
      "type": "event"
    },
    {
      "anonymous": false,
      "inputs": [
        {
          "indexed": false,
          "internalType": "address",
          "name": "account",
          "type": "address"
        }
      ],
      "name": "Paused",
      "type": "event"
    },
    {
      "anonymous": false,
      "inputs": [
        {
          "indexed": false,
          "internalType": "uint256",
          "name": "date",
          "type": "uint256"
        }
      ],
      "name": "SetInflationStart",
      "type": "event"
    },
    {
      "anonymous": false,
      "inputs": [
        {
          "indexed": true,
          "internalType": "address",
          "name": "from",
          "type": "address"
        },
        {
          "indexed": true,
          "internalType": "address",
          "name": "to",
          "type": "address"
        },
        {
          "indexed": false,
          "internalType": "uint256",
          "name": "value",
          "type": "uint256"
        }
      ],
      "name": "Transfer",
      "type": "event"
    },
    {
      "anonymous": false,
      "inputs": [
        {
          "indexed": false,
          "internalType": "address",
          "name": "account",
          "type": "address"
        }
      ],
      "name": "Unpaused",
      "type": "event"
    },
    {
      "inputs": [
        {
          "internalType": "address",
          "name": "owner",
          "type": "address"
        },
        {
          "internalType": "address",
          "name": "spender",
          "type": "address"
        }
      ],
      "name": "allowance",
      "outputs": [
        {
          "internalType": "uint256",
          "name": "",
          "type": "uint256"
        }
      ],
      "stateMutability": "view",
      "type": "function"
    },
    {
      "inputs": [
        {
          "internalType": "address",
          "name": "spender",
          "type": "address"
        },
        {
          "internalType": "uint256",
          "name": "amount",
          "type": "uint256"
        }
      ],
      "name": "approve",
      "outputs": [
        {
          "internalType": "bool",
          "name": "",
          "type": "bool"
        }
      ],
      "stateMutability": "nonpayable",
      "type": "function"
    },
    {
      "inputs": [
        {
          "internalType": "address",
          "name": "account",
          "type": "address"
        }
      ],
      "name": "balanceOf",
      "outputs": [
        {
          "internalType": "uint256",
          "name": "",
          "type": "uint256"
        }
      ],
      "stateMutability": "view",
      "type": "function"
    },
    {
      "inputs": [
        {
          "internalType": "uint256",
          "name": "amount",
          "type": "uint256"
        }
      ],
      "name": "burn",
      "outputs": [],
      "stateMutability": "nonpayable",
      "type": "function"
    },
    {
      "inputs": [],
      "name": "decimals",
      "outputs": [
        {
          "internalType": "uint8",
          "name": "",
          "type": "uint8"
        }
      ],
      "stateMutability": "view",
      "type": "function"
    },
    {
      "inputs": [
        {
          "internalType": "address",
          "name": "spender",
          "type": "address"
        },
        {
          "internalType": "uint256",
          "name": "subtractedValue",
          "type": "uint256"
        }
      ],
      "name": "decreaseAllowance",
      "outputs": [
        {
          "internalType": "bool",
          "name": "",
          "type": "bool"
        }
      ],
      "stateMutability": "nonpayable",
      "type": "function"
    },
    {
      "inputs": [
        {
          "internalType": "address",
          "name": "from",
          "type": "address"
        },
        {
          "internalType": "uint256",
          "name": "amount",
          "type": "uint256"
        }
      ],
      "name": "delegateToDAO",
      "outputs": [],
      "stateMutability": "nonpayable",
      "type": "function"
    },
    {
      "inputs": [],
      "name": "deployDate",
      "outputs": [
        {
          "internalType": "uint256",
          "name": "",
          "type": "uint256"
        }
      ],
      "stateMutability": "view",
      "type": "function"
    },
    {
      "inputs": [],
      "name": "deployed",
      "outputs": [
        {
          "internalType": "uint256",
          "name": "",
          "type": "uint256"
        }
      ],
      "stateMutability": "view",
      "type": "function"
    },
    {
      "inputs": [],
      "name": "getDaoAddress",
      "outputs": [
        {
          "internalType": "address",
          "name": "",
          "type": "address"
        }
      ],
      "stateMutability": "view",
      "type": "function"
    },
    {
      "inputs": [],
      "name": "getVestingAddress",
      "outputs": [
        {
          "internalType": "address",
          "name": "",
          "type": "address"
        }
      ],
      "stateMutability": "view",
      "type": "function"
    },
    {
      "inputs": [
        {
          "internalType": "address",
          "name": "spender",
          "type": "address"
        },
        {
          "internalType": "uint256",
          "name": "addedValue",
          "type": "uint256"
        }
      ],
      "name": "increaseAllowance",
      "outputs": [
        {
          "internalType": "bool",
          "name": "",
          "type": "bool"
        }
      ],
      "stateMutability": "nonpayable",
      "type": "function"
    },
    {
      "inputs": [
        {
          "internalType": "address",
          "name": "daoAddress",
          "type": "address"
        }
      ],
      "name": "initDaoTransport",
      "outputs": [],
      "stateMutability": "nonpayable",
      "type": "function"
    },
    {
      "inputs": [
        {
          "internalType": "address",
          "name": "vestAddress",
          "type": "address"
        }
      ],
      "name": "initVestingTransport",
      "outputs": [],
      "stateMutability": "nonpayable",
      "type": "function"
    },
    {
      "inputs": [],
      "name": "name",
      "outputs": [
        {
          "internalType": "string",
          "name": "",
          "type": "string"
        }
      ],
      "stateMutability": "view",
      "type": "function"
    },
    {
      "inputs": [],
      "name": "owner",
      "outputs": [
        {
          "internalType": "address",
          "name": "",
          "type": "address"
        }
      ],
      "stateMutability": "view",
      "type": "function"
    },
    {
      "inputs": [],
      "name": "paused",
      "outputs": [
        {
          "internalType": "bool",
          "name": "",
          "type": "bool"
        }
      ],
      "stateMutability": "view",
      "type": "function"
    },
    {
      "inputs": [
        {
          "internalType": "address",
          "name": "to",
          "type": "address"
        },
        {
          "internalType": "uint256",
          "name": "amount",
          "type": "uint256"
        }
      ],
      "name": "redeemFromDAO",
      "outputs": [],
      "stateMutability": "nonpayable",
      "type": "function"
    },
    {
      "inputs": [],
      "name": "renounceOwnership",
      "outputs": [],
      "stateMutability": "nonpayable",
      "type": "function"
    },
    {
      "inputs": [],
      "name": "symbol",
      "outputs": [
        {
          "internalType": "string",
          "name": "",
          "type": "string"
        }
      ],
      "stateMutability": "view",
      "type": "function"
    },
    {
      "inputs": [],
      "name": "totalSupply",
      "outputs": [
        {
          "internalType": "uint256",
          "name": "",
          "type": "uint256"
        }
      ],
      "stateMutability": "view",
      "type": "function"
    },
    {
      "inputs": [
        {
          "internalType": "address",
          "name": "recipient",
          "type": "address"
        },
        {
          "internalType": "uint256",
          "name": "amount",
          "type": "uint256"
        }
      ],
      "name": "transfer",
      "outputs": [
        {
          "internalType": "bool",
          "name": "",
          "type": "bool"
        }
      ],
      "stateMutability": "nonpayable",
      "type": "function"
    },
    {
      "inputs": [
        {
          "internalType": "address",
          "name": "sender",
          "type": "address"
        },
        {
          "internalType": "address",
          "name": "recipient",
          "type": "address"
        },
        {
          "internalType": "uint256",
          "name": "amount",
          "type": "uint256"
        }
      ],
      "name": "transferFrom",
      "outputs": [
        {
          "internalType": "bool",
          "name": "",
          "type": "bool"
        }
      ],
      "stateMutability": "nonpayable",
      "type": "function"
    },
    {
      "inputs": [
        {
          "internalType": "address",
          "name": "newOwner",
          "type": "address"
        }
      ],
      "name": "transferOwnership",
      "outputs": [],
      "stateMutability": "nonpayable",
      "type": "function"
    },
    {
      "inputs": [],
      "name": "getInflationStartDate",
      "outputs": [
        {
          "internalType": "uint256",
          "name": "",
          "type": "uint256"
        }
      ],
      "stateMutability": "view",
      "type": "function"
    },
    {
      "inputs": [],
      "name": "getSavedInflationYear",
      "outputs": [
        {
          "internalType": "uint256",
          "name": "",
          "type": "uint256"
        }
      ],
      "stateMutability": "view",
      "type": "function"
    },
    {
      "inputs": [],
      "name": "getMaxSupply",
      "outputs": [
        {
          "internalType": "uint256",
          "name": "",
          "type": "uint256"
        }
      ],
      "stateMutability": "view",
      "type": "function"
    },
    {
      "inputs": [
        {
          "internalType": "uint256",
          "name": "index",
          "type": "uint256"
        }
      ],
      "name": "inflationPoint",
      "outputs": [
        {
          "components": [
            {
              "internalType": "uint256",
              "name": "inflationPct",
              "type": "uint256"
            },
            {
              "internalType": "uint256",
              "name": "stakingPct",
              "type": "uint256"
            },
            {
              "internalType": "uint256",
              "name": "currentSupply",
              "type": "uint256"
            },
            {
              "internalType": "uint256",
              "name": "yearlySupply",
              "type": "uint256"
            },
            {
              "internalType": "uint256",
              "name": "date",
              "type": "uint256"
            }
          ],
          "internalType": "struct CitadelInflation.InflationValues",
          "name": "",
          "type": "tuple"
        }
      ],
      "stateMutability": "view",
      "type": "function"
    },
    {
      "inputs": [],
      "name": "countInflationPoints",
      "outputs": [
        {
          "internalType": "uint256",
          "name": "",
          "type": "uint256"
        }
      ],
      "stateMutability": "view",
      "type": "function"
    },
    {
      "inputs": [],
      "name": "startInflation",
      "outputs": [],
      "stateMutability": "nonpayable",
      "type": "function"
    },
    {
      "inputs": [
        {
          "internalType": "uint256",
          "name": "date",
          "type": "uint256"
        }
      ],
      "name": "startInflationTo",
      "outputs": [],
      "stateMutability": "nonpayable",
      "type": "function"
    },
    {
      "inputs": [
        {
          "internalType": "address",
          "name": "to",
          "type": "address"
        },
        {
          "internalType": "uint256",
          "name": "amount",
          "type": "uint256"
        }
      ],
      "name": "withdraw",
      "outputs": [],
      "stateMutability": "nonpayable",
      "type": "function"
    },
    {
      "inputs": [],
      "name": "updateSnapshot",
      "outputs": [],
      "stateMutability": "nonpayable",
      "type": "function"
    },
    {
      "inputs": [
        {
          "internalType": "uint256",
          "name": "issueId",
          "type": "uint256"
        },
        {
          "internalType": "uint256",
          "name": "pct",
          "type": "uint256"
        }
      ],
      "name": "updateInflation",
      "outputs": [],
      "stateMutability": "nonpayable",
      "type": "function"
    },
    {
      "inputs": [
        {
          "internalType": "uint256",
          "name": "issueId",
          "type": "uint256"
        },
        {
          "internalType": "uint256",
          "name": "pct",
          "type": "uint256"
        }
      ],
      "name": "updateVesting",
      "outputs": [],
      "stateMutability": "nonpayable",
      "type": "function"
    }
  ],
  "bytecode": "0x600b60808181526a4369746164656c2e6f6e6560a81b60a0908152610100604052600360c0818152621610d560ea1b60e05292936200003f929062000118565b5080516200005590600490602084019062000118565b50506005805460ff191660121790555060006200007a6001600160e01b03620000fd16565b60058054610100600160a81b0319166101006001600160a01b03841690810291909117909155604051919250906000907f8be0079c531659141344cd1fd0a4f28419497f9722a3daafe3b4186f6b6457e0908290a3506005805460ff60a81b19169055426006908155620000f7906001600160e01b036200010216565b620001ba565b335b90565b6005805460ff191660ff92909216919091179055565b828054600181600116156101000203166002900490600052602060002090601f016020900481019282601f106200015b57805160ff19168380011785556200018b565b828001600101855582156200018b579182015b828111156200018b5782518255916020019190600101906200016e565b50620001999291506200019d565b5090565b620000ff91905b80821115620001995760008155600101620001a4565b61216f80620001ca6000396000f3fe608060405234801561001057600080fd5b50600436106102115760003560e01c806369668fe911610125578063c108a402116100ad578063f2fde38b1161007c578063f2fde38b1461040f578063f3fef3a314610422578063f905c15a14610435578063f9b7ce021461043d578063ff1764a41461044557610211565b8063c108a402146103b6578063c686781d146103c9578063dd62ed3e146103dc578063f1474bd8146103ef57610211565b80638da5cb5b116100f45780638da5cb5b1461036d57806395d89b4114610375578063a457c2d71461037d578063a9059cbb14610390578063ac3cd7c6146103a357610211565b806369668fe91461033757806370a082311461033f578063715018a6146103525780637fa7faf81461035a57610211565b80633ba71a15116101a85780634b45aa12116101775780634b45aa121461030f5780634c0f38c21461031757806355b28b371461031f5780635c975abb14610327578063692404261461032f57610211565b80633ba71a15146102c157806342966c68146102d657806344263fcb146102e957806344c40464146102fc57610211565b80631d68702d116101e45780631d68702d1461027157806323b872dd14610286578063313ce5671461029957806339509351146102ae57610211565b806306fdde0314610216578063095ea7b31461023457806318160ddd146102545780631d0a67e114610269575b600080fd5b61021e61044d565b60405161022b9190611b38565b60405180910390f35b610247610242366004611ab6565b6104e3565b60405161022b9190611b2d565b61025c610501565b60405161022b9190612078565b61025c610507565b61027961050d565b60405161022b9190611b19565b610247610294366004611a76565b61051c565b6102a16105a9565b60405161022b9190612081565b6102476102bc366004611ab6565b6105b2565b6102d46102cf366004611ab6565b610606565b005b6102d46102e4366004611ae0565b61062d565b6102d46102f7366004611a27565b61068c565b6102d461030a366004611ab6565b61071c565b61025c61073f565b61025c610745565b61025c61074b565b610247610751565b6102d4610761565b61025c610797565b61025c61034d366004611a27565b61079d565b6102d46107b8565b6102d4610368366004611a27565b610842565b6102796108c7565b61021e6108db565b61024761038b366004611ab6565b61093c565b61024761039e366004611ab6565b6109aa565b6102d46103b1366004611af8565b6109be565b6102d46103c4366004611af8565b610aee565b6102d46103d7366004611ae0565b610c11565b61025c6103ea366004611a42565b610d04565b6104026103fd366004611ae0565b610d2f565b60405161022b919061203e565b6102d461041d366004611a27565b610db7565b6102d4610430366004611ab6565b610e7e565b61025c610ebe565b6102d4610ec4565b610279610f8d565b60038054604080516020601f60026000196101006001881615020190951694909404938401819004810282018101909252828152606093909290918301828280156104d95780601f106104ae576101008083540402835291602001916104d9565b820191906000526020600020905b8154815290600101906020018083116104bc57829003601f168201915b5050505050905090565b60006104f76104f0610f9c565b8484610fa0565b5060015b92915050565b60025490565b600d5490565b6008546001600160a01b031690565b6000610529848484611054565b61059f84610535610f9c565b61059a856040518060600160405280602881526020016120ed602891396001600160a01b038a16600090815260016020526040812090610573610f9c565b6001600160a01b03168152602081019190915260400160002054919063ffffffff61117516565b610fa0565b5060019392505050565b60055460ff1690565b60006104f76105bf610f9c565b8461059a85600160006105d0610f9c565b6001600160a01b03908116825260208083019390935260409182016000908120918c16815292529020549063ffffffff6111a116565b6008546001600160a01b0316331461061d57600080fd5b610629600a8383611054565b5050565b6103e833116106575760405162461bcd60e51b815260040161064e90611dfd565b60405180910390fd5b806106613361079d565b101561067f5760405162461bcd60e51b815260040161064e90611c40565b61068933826111cd565b50565b610694610f9c565b60055461010090046001600160a01b039081169116146106c65760405162461bcd60e51b815260040161064e90611dc8565b600880546001600160a01b0319166001600160a01b0383161790556040517f9e006baa245780a8a3d4098c11dd27a97c8d0c2e25b998fa057c6ab8eb07919190610711908390611b19565b60405180910390a150565b6008546001600160a01b0316331461073357600080fd5b61062982600a83611054565b600f5490565b600b5490565b60095490565b600554600160a81b900460ff1690565b6007546001600160a01b031633148061078457506008546001600160a01b031633145b61078d57600080fd5b6107956112bb565b565b60065481565b6001600160a01b031660009081526020819052604090205490565b6107c0610f9c565b60055461010090046001600160a01b039081169116146107f25760405162461bcd60e51b815260040161064e90611dc8565b60055460405160009161010090046001600160a01b0316907f8be0079c531659141344cd1fd0a4f28419497f9722a3daafe3b4186f6b6457e0908390a360058054610100600160a81b0319169055565b61084a610f9c565b60055461010090046001600160a01b0390811691161461087c5760405162461bcd60e51b815260040161064e90611dc8565b600780546001600160a01b0319166001600160a01b0383161790556040517f68e937a920bca55a7c599d782170d8606e7d5fe31c1c9cdc4c1fd7c74ca1de1c90610711908390611b19565b60055461010090046001600160a01b031690565b60048054604080516020601f60026000196101006001881615020190951694909404938401819004810282018101909252828152606093909290918301828280156104d95780601f106104ae576101008083540402835291602001916104d9565b60006104f7610949610f9c565b8461059a856040518060600160405280602581526020016121156025913960016000610973610f9c565b6001600160a01b03908116825260208083019390935260409182016000908120918d1681529252902054919063ffffffff61117516565b60006104f76109b7610f9c565b8484611054565b6008546001600160a01b031633146109d557600080fd5b600a81101580156109e75750605a8111155b610a035760405162461bcd60e51b815260040161064e90611f62565b610a0b6119e1565b600f80546000198101908110610a1d57fe5b90600052602060002090600502016040518060a001604052908160008201548152602001600182015481526020016002820154815260200160038201548152602001600482015481525050905060008160800151610a79611644565b03905062278d00811015610a9f5760405162461bcd60e51b815260040161064e90611fa8565b610aa76112bb565b610ab083611648565b837f96a647810411309169e354743b6a4e9d05e3c777f5fae278e65f6168fe7279ba84604051610ae09190612078565b60405180910390a250505050565b6008546001600160a01b03163314610b0557600080fd5b60c88110158015610b185750610bb88111155b610b345760405162461bcd60e51b815260040161064e90611d83565b610b3c6119e1565b600f80546000198101908110610b4e57fe5b90600052602060002090600502016040518060a001604052908160008201548152602001600182015481526020016002820154815260200160038201548152602001600482015481525050905060008160800151610baa611644565b03905062278d00811015610bd05760405162461bcd60e51b815260040161064e90611fa8565b610bd86112bb565b610be1836117f1565b837f8f4db2ceeda2c579bf7d6f7036f9f300565d76719308713e3c85d3484b4ebb3084604051610ae09190612078565b610c19610f9c565b60055461010090046001600160a01b03908116911614610c4b5760405162461bcd60e51b815260040161064e90611dc8565b6009541580610c625750610c5d611644565b600954115b610c7e5760405162461bcd60e51b815260040161064e90611eba565b610c86611644565b8111610ca45760405162461bcd60e51b815260040161064e90611bce565b6009819055600d819055600f8054829190600090610cbe57fe5b9060005260206000209060050201600401819055507f9fc22fadaf2a60d0fc0b55f067aab3d342cd367b0ab3ffb49d3a4f8420768a3c6009546040516107119190612078565b6001600160a01b03918216600090815260016020908152604080832093909416825291909152205490565b610d376119e1565b600f548210610d585760405162461bcd60e51b815260040161064e90611d41565b600f8281548110610d6557fe5b90600052602060002090600502016040518060a0016040529081600082015481526020016001820154815260200160028201548152602001600382015481526020016004820154815250509050919050565b610dbf610f9c565b60055461010090046001600160a01b03908116911614610df15760405162461bcd60e51b815260040161064e90611dc8565b6001600160a01b038116610e175760405162461bcd60e51b815260040161064e90611c82565b6005546040516001600160a01b0380841692610100900416907f8be0079c531659141344cd1fd0a4f28419497f9722a3daafe3b4186f6b6457e090600090a3600580546001600160a01b0390921661010002610100600160a81b0319909216919091179055565b6007546001600160a01b0316331480610ea157506008546001600160a01b031633145b610eaa57600080fd5b610eb26112bb565b61062960018383611054565b60065490565b610ecc610f9c565b60055461010090046001600160a01b03908116911614610efe5760405162461bcd60e51b815260040161064e90611dc8565b60095415610f1e5760405162461bcd60e51b815260040161064e90611eba565b610f26611644565b6009819055600d819055600f8054600090610f3d57fe5b9060005260206000209060050201600401819055507f9fc22fadaf2a60d0fc0b55f067aab3d342cd367b0ab3ffb49d3a4f8420768a3c600954604051610f839190612078565b60405180910390a1565b6007546001600160a01b031690565b3390565b6001600160a01b038316610fc65760405162461bcd60e51b815260040161064e90611ef1565b6001600160a01b038216610fec5760405162461bcd60e51b815260040161064e90611cc8565b6001600160a01b0380841660008181526001602090815260408083209487168084529490915290819020849055517f8c5be1e5ebec7d5bd14f71427d1e84f3dd0314c0f7b2291e5b200ac8c7c3b92590611047908590612078565b60405180910390a3505050565b6001600160a01b03831661107a5760405162461bcd60e51b815260040161064e90611e75565b6001600160a01b0382166110a05760405162461bcd60e51b815260040161064e90611b8b565b6110ab83838361192c565b6110ee816040518060600160405280602681526020016120c7602691396001600160a01b038616600090815260208190526040902054919063ffffffff61117516565b6001600160a01b038085166000908152602081905260408082209390935590841681522054611123908263ffffffff6111a116565b6001600160a01b0380841660008181526020819052604090819020939093559151908516907fddf252ad1be2c89b69c2b068fc378daa952ba7f163c4a11628f55a4df523b3ef90611047908590612078565b600081848411156111995760405162461bcd60e51b815260040161064e9190611b38565b505050900390565b6000828201838110156111c65760405162461bcd60e51b815260040161064e90611d0a565b9392505050565b6001600160a01b0382166111f35760405162461bcd60e51b815260040161064e90611e34565b6111ff8260008361192c565b611242816040518060600160405280602281526020016120a5602291396001600160a01b038516600090815260208190526040902054919063ffffffff61117516565b6001600160a01b03831660009081526020819052604090205560025461126e908263ffffffff61198216565b6002556040516000906001600160a01b038416907fddf252ad1be2c89b69c2b068fc378daa952ba7f163c4a11628f55a4df523b3ef906112af908590612078565b60405180910390a35050565b600c54600b54116112cb57610795565b6000600d546112d8611644565b0390506301e133808110156112ed5750610795565b6112f56119e1565b600f8054600019810190811061130757fe5b600091825260208083206040805160a0810182526005909402909101805480855260018201549385019390935260028101549184019190915260038101546060840152600401546080830152909250905b6301e133808404811015611638576301e13380600d6000828254019250508190555060006127106301e133808560800151600d540385600e5402028161139a57fe5b04816113a257fe5b049050600d54846080018181525050600b54600c5482011015806113c6575060c883105b1561149a57600b54600c81905550600f6040518060a001604052806113e96119c4565b815260208781015181830152600c546040808401829052606080850192909252600d54608094850152855460018181018855600097885296849020865160059092020190815592850151958301959095558385015160028301558301516003820155910151600490910155600f5490517fedc524a2d3f6ca20c1a24894433e36a31d7a2e9c37b78d9ab1c758bf83072d049161148c916000199190910190612078565b60405180910390a150611638565b600c80548201905560c88311156114c45760328303925060c88310156114bf5760c892505b6114e8565b8260c814156114e85760006114d76119c4565b905060c88110156114e6578093505b505b6040805160a081018252848152602086810151908201908152600c5482840181815260608401918252600d5460808501908152600f8054600181018255600082905295517f8d1108e10bcb7c27dddfc02ed9d693a074039d026cf4ea4240b40f7d581ac80260059097029687015593517f8d1108e10bcb7c27dddfc02ed9d693a074039d026cf4ea4240b40f7d581ac80386015590517f8d1108e10bcb7c27dddfc02ed9d693a074039d026cf4ea4240b40f7d581ac80485015590517f8d1108e10bcb7c27dddfc02ed9d693a074039d026cf4ea4240b40f7d581ac805840155517f8d1108e10bcb7c27dddfc02ed9d693a074039d026cf4ea4240b40f7d581ac806909201919091555490517fedc524a2d3f6ca20c1a24894433e36a31d7a2e9c37b78d9ab1c758bf83072d0491611627916000199190910190612078565b60405180910390a150600101611358565b5050600c54600e555050565b4290565b600c54600b54141561165957600080fd5b6116616119e1565b600f8054600019810190811061167357fe5b90600052602060002090600502016040518060a0016040529081600082015481526020016001820154815260200160028201548152602001600382015481526020016004820154815250509050600081608001516116cf611644565b0390506127106301e13380828460000151600e540202816116ec57fe5b04816116f457fe5b04600c60008282540192505081905550600b54600c54106117275760405162461bcd60e51b815260040161064e90611c11565b600f6040518060a0016040528084600001518152602001858152602001600c548152602001600e54815260200161175c611644565b9052815460018181018455600093845260209384902083516005909302019182559282015192810192909255604080820151600284015560608201516003840155608090910151600490920191909155600f5490517fedc524a2d3f6ca20c1a24894433e36a31d7a2e9c37b78d9ab1c758bf83072d04916117e4916000199190910190612078565b60405180910390a1505050565b600c54600b54141561180257600080fd5b61180a6119e1565b600f8054600019810190811061181c57fe5b90600052602060002090600502016040518060a001604052908160008201548152602001600182015481526020016002820154815260200160038201548152602001600482015481525050905060008160800151611878611644565b0390506127106301e13380828460000151600e5402028161189557fe5b048161189d57fe5b04600c60008282540192505081905550600b54600c54106118d05760405162461bcd60e51b815260040161064e90611c11565b6118d86119c4565b8311156118f75760405162461bcd60e51b815260040161064e90611f35565b600f6040518060a0016040528085815260200184602001518152602001600c548152602001600e54815260200161175c611644565b61193783838361197d565b6103e833116119585760405162461bcd60e51b815260040161064e90611dfd565b611960610751565b1561197d5760405162461bcd60e51b815260040161064e90611ff4565b505050565b60006111c683836040518060400160405280601e81526020017f536166654d6174683a207375627472616374696f6e206f766572666c6f770000815250611175565b6000600c54600c54600b540361271002816119db57fe5b04905090565b6040518060a0016040528060008152602001600081526020016000815260200160008152602001600081525090565b80356001600160a01b03811681146104fb57600080fd5b600060208284031215611a38578081fd5b6111c68383611a10565b60008060408385031215611a54578081fd5b611a5e8484611a10565b9150611a6d8460208501611a10565b90509250929050565b600080600060608486031215611a8a578081fd5b8335611a958161208f565b92506020840135611aa58161208f565b929592945050506040919091013590565b60008060408385031215611ac8578182fd5b611ad28484611a10565b946020939093013593505050565b600060208284031215611af1578081fd5b5035919050565b60008060408385031215611b0a578182fd5b50508035926020909101359150565b6001600160a01b0391909116815260200190565b901515815260200190565b6000602080835283518082850152825b81811015611b6457858101830151858201604001528201611b48565b81811115611b755783604083870101525b50601f01601f1916929092016040019392505050565b60208082526023908201527f45524332303a207472616e7366657220746f20746865207a65726f206164647260408201526265737360e81b606082015260800190565b60208082526023908201527f5374617274696e672064617465206d75737420626520696e207468652066757460408201526275726560e81b606082015260800190565b60208082526015908201527413585e081cdd5c1c1b1e481a5cc81c995858da1959605a1b604082015260600190565b60208082526022908201527f4369746164656c546f6b656e3a20696e73756666696369656e742062616c616e604082015261636560f01b606082015260800190565b60208082526026908201527f4f776e61626c653a206e6577206f776e657220697320746865207a65726f206160408201526564647265737360d01b606082015260800190565b60208082526022908201527f45524332303a20617070726f766520746f20746865207a65726f206164647265604082015261737360f01b606082015260800190565b6020808252601b908201527f536166654d6174683a206164646974696f6e206f766572666c6f770000000000604082015260600190565b60208082526022908201527f4369746164656c496e666c6174696f6e3a20756e657870656374656420696e646040820152610caf60f31b606082015260800190565b60208082526025908201527f50657263656e74616765206d757374206265206265747765656e20322520616e604082015264642033302560d81b606082015260800190565b6020808252818101527f4f776e61626c653a2063616c6c6572206973206e6f7420746865206f776e6572604082015260600190565b60208082526019908201527f4369746164656c546f6b656e3a2066616b652073656e64657200000000000000604082015260600190565b60208082526021908201527f45524332303a206275726e2066726f6d20746865207a65726f206164647265736040820152607360f81b606082015260800190565b60208082526025908201527f45524332303a207472616e736665722066726f6d20746865207a65726f206164604082015264647265737360d81b606082015260800190565b6020808252601c908201527f496e666c6174696f6e20697320616c7265616479207374617274656400000000604082015260600190565b60208082526024908201527f45524332303a20617070726f76652066726f6d20746865207a65726f206164646040820152637265737360e01b606082015260800190565b602080825260139082015272546f6f20686967682070657263656e7461676560681b604082015260600190565b60208082526026908201527f50657263656e74616765206d757374206265206265747765656e2031302520616040820152656e642039302560d01b606082015260800190565b6020808252602c908201527f596f75206861766520746f20776169742033302064617973206166746572206c60408201526b617374206368616e67696e6760a01b606082015260800190565b6020808252602a908201527f45524332305061757361626c653a20746f6b656e207472616e736665722077686040820152691a5b19481c185d5cd95960b21b606082015260800190565b600060a082019050825182526020830151602083015260408301516040830152606083015160608301526080830151608083015292915050565b90815260200190565b60ff91909116815260200190565b6001600160a01b038116811461068957600080fdfe45524332303a206275726e20616d6f756e7420657863656564732062616c616e636545524332303a207472616e7366657220616d6f756e7420657863656564732062616c616e636545524332303a207472616e7366657220616d6f756e74206578636565647320616c6c6f77616e636545524332303a2064656372656173656420616c6c6f77616e63652062656c6f77207a65726fa264697066735822122030557afd28d57e035950d4e680d69f123cb1ce9d02af8dec7aaefc8275ca61b564736f6c63430006020033",
  "source": "// SPDX-License-Identifier: GPL-3.0\npragma solidity 0.6.2;\npragma experimental ABIEncoderV2;\n\nimport \"./CitadelToken.sol\";\n\ncontract CitadelInflation is CitadelToken {\n\n    struct InflationValues {\n        uint inflationPct;\n        uint stakingPct;\n        uint currentSupply;\n        uint yearlySupply;\n        uint date;\n    }\n\n    uint internal startInflationDate;\n\n    bool private _isInitialized;\n    uint private _maxSupply;\n    uint private _unlockedSupply;\n    uint private _savedInflationYear;\n    uint private _yearUnlockedBudget;\n\n    InflationValues[] private _inflationHistory;\n\n    event SetInflationStart(uint date);\n    event InflationUpdated(uint index);\n    event ChangeInflation(uint indexed issueId, uint pct);\n    event ChangeVesting(uint indexed issueId, uint pct);\n\n    modifier activeInflation(){\n        require(startInflationDate > 0 && startInflationDate <= _timestamp(), \"CitadelInflation: coming soon\");\n        _;\n    }\n\n    function getInflationStartDate() external view\n    returns (uint) {\n        return startInflationDate;\n    }\n\n    function getSavedInflationYear() external view\n    returns (uint) {\n        return _savedInflationYear;\n    }\n\n    function getMaxSupply() external view\n    returns (uint) {\n        return _maxSupply;\n    }\n\n    function inflationPoint(uint index) external view\n    returns (InflationValues memory) {\n        require(index < _inflationHistory.length, \"CitadelInflation: unexpected index\");\n        return _inflationHistory[index];\n    }\n\n    function countInflationPoints() external view\n    returns (uint) {\n        return _inflationHistory.length;\n    }\n\n    function startInflation() external onlyOwner {\n        require (startInflationDate == 0, \"Inflation is already started\");\n        startInflationDate = _timestamp();\n        _savedInflationYear = startInflationDate;\n        _inflationHistory[0].date = _savedInflationYear;\n        emit SetInflationStart(startInflationDate);\n    }\n\n    function startInflationTo(uint date) external onlyOwner {\n        require (startInflationDate == 0 || startInflationDate > _timestamp(), \"Inflation is already started\");\n        require (date > _timestamp(), \"Starting date must be in the future\");\n        startInflationDate = date;\n        _savedInflationYear = startInflationDate;\n        _inflationHistory[0].date = _savedInflationYear;\n        emit SetInflationStart(startInflationDate);\n    }\n\n    function withdraw(address to, uint amount) external onlyVestingOrDaoContracts {\n        _makeInflationSnapshot();\n        _transfer(address(1), to, amount);\n    }\n\n    function updateSnapshot() external onlyVestingOrDaoContracts {\n        _makeInflationSnapshot();\n    }\n\n    function updateInflation(uint issueId, uint pct) external onlyDaoContract {\n        require(pct >= 200 && pct <= 3000, \"Percentage must be between 2% and 30%\");\n        \n        InflationValues memory lastPoint = _inflationHistory[_inflationHistory.length - 1];\n        uint spentTime = _timestamp() - lastPoint.date;\n        require(spentTime >= 30 days, \"You have to wait 30 days after last changing\");\n\n        _makeInflationSnapshot();\n        _updateInflation(pct);\n        emit ChangeInflation(issueId, pct);\n    }\n\n    function updateVesting(uint issueId, uint pct) external onlyDaoContract {\n        require(pct >= 10 && pct <= 90, \"Percentage must be between 10% and 90%\");\n        \n        InflationValues memory lastPoint = _inflationHistory[_inflationHistory.length - 1];\n        uint spentTime = _timestamp() - lastPoint.date;\n        require(spentTime >= 30 days, \"You have to wait 30 days after last changing\");\n\n        _makeInflationSnapshot();\n        _updateVesting(pct);\n        emit ChangeVesting(issueId, pct);\n    }\n\n    function _updateInflation(uint pct) internal {\n        require(_maxSupply != _unlockedSupply);\n\n        InflationValues memory lastPoint = _inflationHistory[_inflationHistory.length - 1];\n        uint spentTime = _timestamp() - lastPoint.date;\n\n        _unlockedSupply += _yearUnlockedBudget * lastPoint.inflationPct * spentTime / 365 days / 10000;\n\n        require(_unlockedSupply < _maxSupply, \"Max supply is reached\");\n\n        require(pct <= _restInflPct(), \"Too high percentage\");\n\n        _inflationHistory.push(InflationValues(pct, lastPoint.stakingPct, _unlockedSupply, _yearUnlockedBudget, _timestamp()));\n        emit InflationUpdated(_inflationHistory.length - 1);\n    }\n\n    function _updateVesting(uint pct) internal {\n        require(_maxSupply != _unlockedSupply);\n\n        InflationValues memory lastPoint = _inflationHistory[_inflationHistory.length - 1];\n        uint spentTime = _timestamp() - lastPoint.date;\n\n        _unlockedSupply += _yearUnlockedBudget * lastPoint.inflationPct * spentTime / 365 days / 10000;\n\n        require(_unlockedSupply < _maxSupply, \"Max supply is reached\");\n\n        _inflationHistory.push(InflationValues(lastPoint.inflationPct, pct, _unlockedSupply, _yearUnlockedBudget, _timestamp()));\n        emit InflationUpdated(_inflationHistory.length - 1);\n    }\n\n    function _makeInflationSnapshot() internal {\n        if (_maxSupply <= _unlockedSupply) return;\n\n        uint spentTime = _timestamp() - _savedInflationYear;\n        if (spentTime < 365 days) return;\n\n        InflationValues memory lastPoint = _inflationHistory[_inflationHistory.length - 1];\n\n        uint infl = lastPoint.inflationPct;\n        for (uint y = 0; y < spentTime / 365 days; y++) {\n            _savedInflationYear += 365 days;\n            uint updateUnlock = _yearUnlockedBudget * infl * (_savedInflationYear - lastPoint.date) / 365 days / 10000;\n            lastPoint.date = _savedInflationYear;\n            if (updateUnlock + _unlockedSupply >= _maxSupply || infl < 200) {\n                _unlockedSupply = _maxSupply;\n                _inflationHistory.push(InflationValues(_restInflPct(), lastPoint.stakingPct, _unlockedSupply, _unlockedSupply, _savedInflationYear));\n                emit InflationUpdated(_inflationHistory.length - 1);\n                break;\n            } else {\n                _unlockedSupply += updateUnlock;\n                if (infl > 200) {\n                    infl -= 50; // -0.5% each year\n                    if (infl < 200) infl = 200; // 2% is minimum\n                } else if (infl == 200) {\n                    uint rest = _restInflPct();\n                    if (rest < 200) infl = rest;\n                }\n                _inflationHistory.push(InflationValues(infl, lastPoint.stakingPct, _unlockedSupply, _unlockedSupply, _savedInflationYear));\n                emit InflationUpdated(_inflationHistory.length - 1);\n            }\n\n        }\n        _yearUnlockedBudget = _unlockedSupply;\n    }\n\n    function _initInflation(\n        uint otherSum,\n        uint totalAmount,\n        uint inflationPct,\n        uint stakingPct\n    ) internal {\n\n        require(!_isInitialized);\n\n        _isInitialized = true;\n\n        _maxSupply = otherSum + totalAmount;\n        _unlockedSupply = otherSum;\n        _yearUnlockedBudget = otherSum;\n\n        _inflationHistory.push(InflationValues(inflationPct, stakingPct, _unlockedSupply, _yearUnlockedBudget, _timestamp()));\n        emit InflationUpdated(_inflationHistory.length - 1);\n\n    }\n\n    function _restInflPct() private view returns (uint) {\n        return (_maxSupply - _unlockedSupply) * 10000 / _unlockedSupply;\n    }\n\n}\n",
  "sourcePath": "/home/pirat/Desktop/DAO_update/DAO/contracts/Token/CitadelInflation.sol",
  "compiler": {
    "name": "solc",
    "version": "0.6.2+commit.bacdbe57.Emscripten.clang"
  },
  "schemaVersion": "3.2.5",
  "updatedAt": "2021-08-16T15:52:52.812Z",
  "devdoc": {
    "methods": {
      "allowance(address,address)": {
        "details": "See {IERC20-allowance}."
      },
      "approve(address,uint256)": {
        "details": "See {IERC20-approve}.     * Requirements:     * - `spender` cannot be the zero address."
      },
      "balanceOf(address)": {
        "details": "See {IERC20-balanceOf}."
      },
      "decimals()": {
        "details": "Returns the number of decimals used to get its user representation. For example, if `decimals` equals `2`, a balance of `505` tokens should be displayed to a user as `5,05` (`505 / 10 ** 2`).     * Tokens usually opt for a value of 18, imitating the relationship between Ether and Wei. This is the value {ERC20} uses, unless {_setupDecimals} is called.     * NOTE: This information is only used for _display_ purposes: it in no way affects any of the arithmetic of the contract, including {IERC20-balanceOf} and {IERC20-transfer}."
      },
      "decreaseAllowance(address,uint256)": {
        "details": "Atomically decreases the allowance granted to `spender` by the caller.     * This is an alternative to {approve} that can be used as a mitigation for problems described in {IERC20-approve}.     * Emits an {Approval} event indicating the updated allowance.     * Requirements:     * - `spender` cannot be the zero address. - `spender` must have allowance for the caller of at least `subtractedValue`."
      },
      "increaseAllowance(address,uint256)": {
        "details": "Atomically increases the allowance granted to `spender` by the caller.     * This is an alternative to {approve} that can be used as a mitigation for problems described in {IERC20-approve}.     * Emits an {Approval} event indicating the updated allowance.     * Requirements:     * - `spender` cannot be the zero address."
      },
      "name()": {
        "details": "Returns the name of the token."
      },
      "owner()": {
        "details": "Returns the address of the current owner."
      },
      "paused()": {
        "details": "Returns true if the contract is paused, and false otherwise."
      },
      "renounceOwnership()": {
        "details": "Leaves the contract without owner. It will not be possible to call `onlyOwner` functions anymore. Can only be called by the current owner.     * NOTE: Renouncing ownership will leave the contract without an owner, thereby removing any functionality that is only available to the owner."
      },
      "symbol()": {
        "details": "Returns the symbol of the token, usually a shorter version of the name."
      },
      "totalSupply()": {
        "details": "See {IERC20-totalSupply}."
      },
      "transfer(address,uint256)": {
        "details": "See {IERC20-transfer}.     * Requirements:     * - `recipient` cannot be the zero address. - the caller must have a balance of at least `amount`."
      },
      "transferFrom(address,address,uint256)": {
        "details": "See {IERC20-transferFrom}.     * Emits an {Approval} event indicating the updated allowance. This is not required by the EIP. See the note at the beginning of {ERC20};     * Requirements: - `sender` and `recipient` cannot be the zero address. - `sender` must have a balance of at least `amount`. - the caller must have allowance for ``sender``'s tokens of at least `amount`."
      },
      "transferOwnership(address)": {
        "details": "Transfers ownership of the contract to a new account (`newOwner`). Can only be called by the current owner."
      }
    }
  },
  "userdoc": {
    "methods": {}
  }
}