{
  "contractName": "CitadelToken",
  "abi": [
    {
      "inputs": [],
      "stateMutability": "nonpayable",
      "type": "constructor"
    },
    {
      "anonymous": false,
      "inputs": [
        {
          "indexed": true,
          "internalType": "address",
          "name": "owner",
          "type": "address"
        },
        {
          "indexed": true,
          "internalType": "address",
          "name": "spender",
          "type": "address"
        },
        {
          "indexed": false,
          "internalType": "uint256",
          "name": "value",
          "type": "uint256"
        }
      ],
      "name": "Approval",
      "type": "event"
    },
    {
      "anonymous": false,
      "inputs": [
        {
          "indexed": false,
          "internalType": "address",
          "name": "addr",
          "type": "address"
        }
      ],
      "name": "NewDaoTransport",
      "type": "event"
    },
    {
      "anonymous": false,
      "inputs": [
        {
          "indexed": false,
          "internalType": "address",
          "name": "addr",
          "type": "address"
        }
      ],
      "name": "NewVestingTransport",
      "type": "event"
    },
    {
      "anonymous": false,
      "inputs": [
        {
          "indexed": true,
          "internalType": "address",
          "name": "previousOwner",
          "type": "address"
        },
        {
          "indexed": true,
          "internalType": "address",
          "name": "newOwner",
          "type": "address"
        }
      ],
      "name": "OwnershipTransferred",
      "type": "event"
    },
    {
      "anonymous": false,
      "inputs": [
        {
          "indexed": false,
          "internalType": "address",
          "name": "account",
          "type": "address"
        }
      ],
      "name": "Paused",
      "type": "event"
    },
    {
      "anonymous": false,
      "inputs": [
        {
          "indexed": true,
          "internalType": "address",
          "name": "from",
          "type": "address"
        },
        {
          "indexed": true,
          "internalType": "address",
          "name": "to",
          "type": "address"
        },
        {
          "indexed": false,
          "internalType": "uint256",
          "name": "value",
          "type": "uint256"
        }
      ],
      "name": "Transfer",
      "type": "event"
    },
    {
      "anonymous": false,
      "inputs": [
        {
          "indexed": false,
          "internalType": "address",
          "name": "account",
          "type": "address"
        }
      ],
      "name": "Unpaused",
      "type": "event"
    },
    {
      "inputs": [
        {
          "internalType": "address",
          "name": "owner",
          "type": "address"
        },
        {
          "internalType": "address",
          "name": "spender",
          "type": "address"
        }
      ],
      "name": "allowance",
      "outputs": [
        {
          "internalType": "uint256",
          "name": "",
          "type": "uint256"
        }
      ],
      "stateMutability": "view",
      "type": "function"
    },
    {
      "inputs": [
        {
          "internalType": "address",
          "name": "spender",
          "type": "address"
        },
        {
          "internalType": "uint256",
          "name": "amount",
          "type": "uint256"
        }
      ],
      "name": "approve",
      "outputs": [
        {
          "internalType": "bool",
          "name": "",
          "type": "bool"
        }
      ],
      "stateMutability": "nonpayable",
      "type": "function"
    },
    {
      "inputs": [
        {
          "internalType": "address",
          "name": "account",
          "type": "address"
        }
      ],
      "name": "balanceOf",
      "outputs": [
        {
          "internalType": "uint256",
          "name": "",
          "type": "uint256"
        }
      ],
      "stateMutability": "view",
      "type": "function"
    },
    {
      "inputs": [],
      "name": "decimals",
      "outputs": [
        {
          "internalType": "uint8",
          "name": "",
          "type": "uint8"
        }
      ],
      "stateMutability": "view",
      "type": "function"
    },
    {
      "inputs": [
        {
          "internalType": "address",
          "name": "spender",
          "type": "address"
        },
        {
          "internalType": "uint256",
          "name": "subtractedValue",
          "type": "uint256"
        }
      ],
      "name": "decreaseAllowance",
      "outputs": [
        {
          "internalType": "bool",
          "name": "",
          "type": "bool"
        }
      ],
      "stateMutability": "nonpayable",
      "type": "function"
    },
    {
      "inputs": [],
      "name": "deployDate",
      "outputs": [
        {
          "internalType": "uint256",
          "name": "",
          "type": "uint256"
        }
      ],
      "stateMutability": "view",
      "type": "function"
    },
    {
      "inputs": [
        {
          "internalType": "address",
          "name": "spender",
          "type": "address"
        },
        {
          "internalType": "uint256",
          "name": "addedValue",
          "type": "uint256"
        }
      ],
      "name": "increaseAllowance",
      "outputs": [
        {
          "internalType": "bool",
          "name": "",
          "type": "bool"
        }
      ],
      "stateMutability": "nonpayable",
      "type": "function"
    },
    {
      "inputs": [],
      "name": "name",
      "outputs": [
        {
          "internalType": "string",
          "name": "",
          "type": "string"
        }
      ],
      "stateMutability": "view",
      "type": "function"
    },
    {
      "inputs": [],
      "name": "owner",
      "outputs": [
        {
          "internalType": "address",
          "name": "",
          "type": "address"
        }
      ],
      "stateMutability": "view",
      "type": "function"
    },
    {
      "inputs": [],
      "name": "paused",
      "outputs": [
        {
          "internalType": "bool",
          "name": "",
          "type": "bool"
        }
      ],
      "stateMutability": "view",
      "type": "function"
    },
    {
      "inputs": [],
      "name": "renounceOwnership",
      "outputs": [],
      "stateMutability": "nonpayable",
      "type": "function"
    },
    {
      "inputs": [],
      "name": "symbol",
      "outputs": [
        {
          "internalType": "string",
          "name": "",
          "type": "string"
        }
      ],
      "stateMutability": "view",
      "type": "function"
    },
    {
      "inputs": [],
      "name": "totalSupply",
      "outputs": [
        {
          "internalType": "uint256",
          "name": "",
          "type": "uint256"
        }
      ],
      "stateMutability": "view",
      "type": "function"
    },
    {
      "inputs": [
        {
          "internalType": "address",
          "name": "recipient",
          "type": "address"
        },
        {
          "internalType": "uint256",
          "name": "amount",
          "type": "uint256"
        }
      ],
      "name": "transfer",
      "outputs": [
        {
          "internalType": "bool",
          "name": "",
          "type": "bool"
        }
      ],
      "stateMutability": "nonpayable",
      "type": "function"
    },
    {
      "inputs": [
        {
          "internalType": "address",
          "name": "sender",
          "type": "address"
        },
        {
          "internalType": "address",
          "name": "recipient",
          "type": "address"
        },
        {
          "internalType": "uint256",
          "name": "amount",
          "type": "uint256"
        }
      ],
      "name": "transferFrom",
      "outputs": [
        {
          "internalType": "bool",
          "name": "",
          "type": "bool"
        }
      ],
      "stateMutability": "nonpayable",
      "type": "function"
    },
    {
      "inputs": [
        {
          "internalType": "address",
          "name": "newOwner",
          "type": "address"
        }
      ],
      "name": "transferOwnership",
      "outputs": [],
      "stateMutability": "nonpayable",
      "type": "function"
    },
    {
      "inputs": [],
      "name": "deployed",
      "outputs": [
        {
          "internalType": "uint256",
          "name": "",
          "type": "uint256"
        }
      ],
      "stateMutability": "view",
      "type": "function"
    },
    {
      "inputs": [
        {
          "internalType": "uint256",
          "name": "amount",
          "type": "uint256"
        }
      ],
      "name": "burn",
      "outputs": [],
      "stateMutability": "nonpayable",
      "type": "function"
    },
    {
      "inputs": [
        {
          "internalType": "address",
          "name": "vestAddress",
          "type": "address"
        }
      ],
      "name": "initVestingTransport",
      "outputs": [],
      "stateMutability": "nonpayable",
      "type": "function"
    },
    {
      "inputs": [],
      "name": "getVestingAddress",
      "outputs": [
        {
          "internalType": "address",
          "name": "",
          "type": "address"
        }
      ],
      "stateMutability": "view",
      "type": "function"
    },
    {
      "inputs": [
        {
          "internalType": "address",
          "name": "daoAddress",
          "type": "address"
        }
      ],
      "name": "initDaoTransport",
      "outputs": [],
      "stateMutability": "nonpayable",
      "type": "function"
    },
    {
      "inputs": [],
      "name": "getDaoAddress",
      "outputs": [
        {
          "internalType": "address",
          "name": "",
          "type": "address"
        }
      ],
      "stateMutability": "view",
      "type": "function"
    },
    {
      "inputs": [
        {
          "internalType": "address",
          "name": "from",
          "type": "address"
        },
        {
          "internalType": "uint256",
          "name": "amount",
          "type": "uint256"
        }
      ],
      "name": "delegateToDAO",
      "outputs": [],
      "stateMutability": "nonpayable",
      "type": "function"
    },
    {
      "inputs": [
        {
          "internalType": "address",
          "name": "to",
          "type": "address"
        },
        {
          "internalType": "uint256",
          "name": "amount",
          "type": "uint256"
        }
      ],
      "name": "redeemFromDAO",
      "outputs": [],
      "stateMutability": "nonpayable",
      "type": "function"
    }
  ],
  "bytecode": "0x60806040523480156200001157600080fd5b506040518060400160405280600b81526020016a4369746164656c2e6f6e6560a81b815250604051806040016040528060038152602001621610d560ea1b81525081600390805190602001906200006a92919062000143565b5080516200008090600490602084019062000143565b50506005805460ff19166012179055506000620000a56001600160e01b036200012816565b60058054610100600160a81b0319166101006001600160a01b03841690810291909117909155604051919250906000907f8be0079c531659141344cd1fd0a4f28419497f9722a3daafe3b4186f6b6457e0908290a3506005805460ff60a81b1916905542600690815562000122906001600160e01b036200012d16565b620001e5565b335b90565b6005805460ff191660ff92909216919091179055565b828054600181600116156101000203166002900490600052602060002090601f016020900481019282601f106200018657805160ff1916838001178555620001b6565b82800160010185558215620001b6579182015b82811115620001b657825182559160200191906001019062000199565b50620001c4929150620001c8565b5090565b6200012a91905b80821115620001c45760008155600101620001cf565b6111ee80620001f56000396000f3fe608060405234801561001057600080fd5b50600436106101585760003560e01c806369668fe9116100c3578063a457c2d71161007c578063a457c2d71461029c578063a9059cbb146102af578063dd62ed3e146102c2578063f2fde38b146102d5578063f905c15a146102e8578063ff1764a4146102f057610158565b806369668fe91461025657806370a082311461025e578063715018a6146102715780637fa7faf8146102795780638da5cb5b1461028c57806395d89b411461029457610158565b8063395093511161011557806339509351146101ed5780633ba71a151461020057806342966c681461021557806344263fcb1461022857806344c404641461023b5780635c975abb1461024e57610158565b806306fdde031461015d578063095ea7b31461017b57806318160ddd1461019b5780631d68702d146101b057806323b872dd146101c5578063313ce567146101d8575b600080fd5b6101656102f8565b6040516101729190610de0565b60405180910390f35b61018e610189366004610d7f565b61038e565b6040516101729190610dd5565b6101a36103ac565b60405161017291906110f7565b6101b86103b2565b6040516101729190610dc1565b61018e6101d3366004610d3f565b6103c1565b6101e061044e565b6040516101729190611100565b61018e6101fb366004610d7f565b610457565b61021361020e366004610d7f565b6104ab565b005b610213610223366004610da9565b6104d2565b610213610236366004610cf0565b610531565b610213610249366004610d7f565b6105c1565b61018e6105e4565b6101a36105f4565b6101a361026c366004610cf0565b6105fa565b610213610615565b610213610287366004610cf0565b61069f565b6101b8610724565b610165610738565b61018e6102aa366004610d7f565b610799565b61018e6102bd366004610d7f565b610807565b6101a36102d0366004610d0b565b61081b565b6102136102e3366004610cf0565b610846565b6101a361090d565b6101b8610913565b60038054604080516020601f60026000196101006001881615020190951694909404938401819004810282018101909252828152606093909290918301828280156103845780601f1061035957610100808354040283529160200191610384565b820191906000526020600020905b81548152906001019060200180831161036757829003601f168201915b5050505050905090565b60006103a261039b610922565b8484610926565b5060015b92915050565b60025490565b6008546001600160a01b031690565b60006103ce8484846109da565b610444846103da610922565b61043f8560405180606001604052806028815260200161116c602891396001600160a01b038a16600090815260016020526040812090610418610922565b6001600160a01b03168152602081019190915260400160002054919063ffffffff610afb16565b610926565b5060019392505050565b60055460ff1690565b60006103a2610464610922565b8461043f8560016000610475610922565b6001600160a01b03908116825260208083019390935260409182016000908120918c16815292529020549063ffffffff610b2716565b6008546001600160a01b031633146104c257600080fd5b6104ce600a83836109da565b5050565b6103e833116104fc5760405162461bcd60e51b81526004016104f390610fac565b60405180910390fd5b80610506336105fa565b10156105245760405162461bcd60e51b81526004016104f390610e76565b61052e3382610b53565b50565b610539610922565b60055461010090046001600160a01b0390811691161461056b5760405162461bcd60e51b81526004016104f390610f77565b600880546001600160a01b0319166001600160a01b0383161790556040517f9e006baa245780a8a3d4098c11dd27a97c8d0c2e25b998fa057c6ab8eb079191906105b6908390610dc1565b60405180910390a150565b6008546001600160a01b031633146105d857600080fd5b6104ce82600a836109da565b600554600160a81b900460ff1690565b60065481565b6001600160a01b031660009081526020819052604090205490565b61061d610922565b60055461010090046001600160a01b0390811691161461064f5760405162461bcd60e51b81526004016104f390610f77565b60055460405160009161010090046001600160a01b0316907f8be0079c531659141344cd1fd0a4f28419497f9722a3daafe3b4186f6b6457e0908390a360058054610100600160a81b0319169055565b6106a7610922565b60055461010090046001600160a01b039081169116146106d95760405162461bcd60e51b81526004016104f390610f77565b600780546001600160a01b0319166001600160a01b0383161790556040517f68e937a920bca55a7c599d782170d8606e7d5fe31c1c9cdc4c1fd7c74ca1de1c906105b6908390610dc1565b60055461010090046001600160a01b031690565b60048054604080516020601f60026000196101006001881615020190951694909404938401819004810282018101909252828152606093909290918301828280156103845780601f1061035957610100808354040283529160200191610384565b60006103a26107a6610922565b8461043f8560405180606001604052806025815260200161119460259139600160006107d0610922565b6001600160a01b03908116825260208083019390935260409182016000908120918d1681529252902054919063ffffffff610afb16565b60006103a2610814610922565b84846109da565b6001600160a01b03918216600090815260016020908152604080832093909416825291909152205490565b61084e610922565b60055461010090046001600160a01b039081169116146108805760405162461bcd60e51b81526004016104f390610f77565b6001600160a01b0381166108a65760405162461bcd60e51b81526004016104f390610eb8565b6005546040516001600160a01b0380841692610100900416907f8be0079c531659141344cd1fd0a4f28419497f9722a3daafe3b4186f6b6457e090600090a3600580546001600160a01b0390921661010002610100600160a81b0319909216919091179055565b60065490565b6007546001600160a01b031690565b3390565b6001600160a01b03831661094c5760405162461bcd60e51b81526004016104f390611069565b6001600160a01b0382166109725760405162461bcd60e51b81526004016104f390610efe565b6001600160a01b0380841660008181526001602090815260408083209487168084529490915290819020849055517f8c5be1e5ebec7d5bd14f71427d1e84f3dd0314c0f7b2291e5b200ac8c7c3b925906109cd9085906110f7565b60405180910390a3505050565b6001600160a01b038316610a005760405162461bcd60e51b81526004016104f390611024565b6001600160a01b038216610a265760405162461bcd60e51b81526004016104f390610e33565b610a31838383610c41565b610a7481604051806060016040528060268152602001611146602691396001600160a01b038616600090815260208190526040902054919063ffffffff610afb16565b6001600160a01b038085166000908152602081905260408082209390935590841681522054610aa9908263ffffffff610b2716565b6001600160a01b0380841660008181526020819052604090819020939093559151908516907fddf252ad1be2c89b69c2b068fc378daa952ba7f163c4a11628f55a4df523b3ef906109cd9085906110f7565b60008184841115610b1f5760405162461bcd60e51b81526004016104f39190610de0565b505050900390565b600082820183811015610b4c5760405162461bcd60e51b81526004016104f390610f40565b9392505050565b6001600160a01b038216610b795760405162461bcd60e51b81526004016104f390610fe3565b610b8582600083610c41565b610bc881604051806060016040528060228152602001611124602291396001600160a01b038516600090815260208190526040902054919063ffffffff610afb16565b6001600160a01b038316600090815260208190526040902055600254610bf4908263ffffffff610c9716565b6002556040516000906001600160a01b038416907fddf252ad1be2c89b69c2b068fc378daa952ba7f163c4a11628f55a4df523b3ef90610c359085906110f7565b60405180910390a35050565b610c4c838383610c92565b6103e83311610c6d5760405162461bcd60e51b81526004016104f390610fac565b610c756105e4565b15610c925760405162461bcd60e51b81526004016104f3906110ad565b505050565b6000610b4c83836040518060400160405280601e81526020017f536166654d6174683a207375627472616374696f6e206f766572666c6f770000815250610afb565b80356001600160a01b03811681146103a657600080fd5b600060208284031215610d01578081fd5b610b4c8383610cd9565b60008060408385031215610d1d578081fd5b610d278484610cd9565b9150610d368460208501610cd9565b90509250929050565b600080600060608486031215610d53578081fd5b8335610d5e8161110e565b92506020840135610d6e8161110e565b929592945050506040919091013590565b60008060408385031215610d91578182fd5b610d9b8484610cd9565b946020939093013593505050565b600060208284031215610dba578081fd5b5035919050565b6001600160a01b0391909116815260200190565b901515815260200190565b6000602080835283518082850152825b81811015610e0c57858101830151858201604001528201610df0565b81811115610e1d5783604083870101525b50601f01601f1916929092016040019392505050565b60208082526023908201527f45524332303a207472616e7366657220746f20746865207a65726f206164647260408201526265737360e81b606082015260800190565b60208082526022908201527f4369746164656c546f6b656e3a20696e73756666696369656e742062616c616e604082015261636560f01b606082015260800190565b60208082526026908201527f4f776e61626c653a206e6577206f776e657220697320746865207a65726f206160408201526564647265737360d01b606082015260800190565b60208082526022908201527f45524332303a20617070726f766520746f20746865207a65726f206164647265604082015261737360f01b606082015260800190565b6020808252601b908201527f536166654d6174683a206164646974696f6e206f766572666c6f770000000000604082015260600190565b6020808252818101527f4f776e61626c653a2063616c6c6572206973206e6f7420746865206f776e6572604082015260600190565b60208082526019908201527f4369746164656c546f6b656e3a2066616b652073656e64657200000000000000604082015260600190565b60208082526021908201527f45524332303a206275726e2066726f6d20746865207a65726f206164647265736040820152607360f81b606082015260800190565b60208082526025908201527f45524332303a207472616e736665722066726f6d20746865207a65726f206164604082015264647265737360d81b606082015260800190565b60208082526024908201527f45524332303a20617070726f76652066726f6d20746865207a65726f206164646040820152637265737360e01b606082015260800190565b6020808252602a908201527f45524332305061757361626c653a20746f6b656e207472616e736665722077686040820152691a5b19481c185d5cd95960b21b606082015260800190565b90815260200190565b60ff91909116815260200190565b6001600160a01b038116811461052e57600080fdfe45524332303a206275726e20616d6f756e7420657863656564732062616c616e636545524332303a207472616e7366657220616d6f756e7420657863656564732062616c616e636545524332303a207472616e7366657220616d6f756e74206578636565647320616c6c6f77616e636545524332303a2064656372656173656420616c6c6f77616e63652062656c6f77207a65726fa2646970667358221220ee5b1fec551dedb70469947db0b0e07177fa62dafd45700c3130f711b32f81c464736f6c63430006020033",
  "source": "// SPDX-License-Identifier: GPL-3.0\npragma solidity 0.6.2;\npragma experimental ABIEncoderV2;\n\nimport \"../../node_modules/openzeppelin-solidity/contracts/token/ERC20/ERC20.sol\";\nimport \"../../node_modules/openzeppelin-solidity/contracts/access/Ownable.sol\";\nimport \"../../node_modules/openzeppelin-solidity/contracts/utils/Pausable.sol\";\nimport \"../ICitadelVesting.sol\";\nimport \"../ICitadelDao.sol\";\n\n\ncontract CitadelToken is ERC20(\"Citadel.one\", \"XCT\"), Ownable, Pausable {\n\n    uint public deployDate;\n    ICitadelVesting internal _vesting;\n    ICitadelDao internal _dao;\n    address constant internal addressForDelegations = address(10);\n\n    event NewDaoTransport(address addr);\n    event NewVestingTransport(address addr);\n\n    modifier onlyVestingContract() {\n        require(msg.sender == address(_vesting));\n        _;\n    }\n\n    modifier onlyDaoContract() {\n        require(msg.sender == address(_dao));\n        _;\n    }\n\n    modifier onlyVestingOrDaoContracts() {\n        require(msg.sender == address(_vesting) || msg.sender == address(_dao));\n        _;\n    }\n\n    constructor () public {\n\n        deployDate = block.timestamp;\n\n        _setupDecimals(6);\n\n    }\n\n    function deployed() external view returns (uint) {\n        return deployDate;\n    }\n\n    function burn(uint amount) external {\n        require(uint(msg.sender) > 1000, \"CitadelToken: fake sender\");\n        require(balanceOf(msg.sender) >= amount, \"CitadelToken: insufficient balance\");\n        _burn(msg.sender, amount);\n    }\n\n    function initVestingTransport(address vestAddress) external onlyOwner {\n        _vesting = ICitadelVesting(vestAddress);\n        emit NewVestingTransport(vestAddress);\n    }\n\n    function getVestingAddress() external view returns (address) {\n        return address(_vesting);\n    }\n\n    function initDaoTransport(address daoAddress) external onlyOwner {\n        _dao = ICitadelDao(daoAddress);\n        emit NewDaoTransport(daoAddress);\n    }\n\n    function getDaoAddress() external view returns (address) {\n        return address(_dao);\n    }\n\n    function delegateToDAO(address from, uint amount) external onlyDaoContract {\n        _transfer(from, addressForDelegations, amount);\n    }\n\n    function redeemFromDAO(address to, uint amount) external onlyDaoContract {\n        _transfer(addressForDelegations, to, amount);\n    }\n\n    function _beforeTokenTransfer(address from, address to, uint256 amount) internal virtual override {\n        super._beforeTokenTransfer(from, to, amount);\n\n        require(uint(msg.sender) > 1000, \"CitadelToken: fake sender\");\n        require(!paused(), \"ERC20Pausable: token transfer while paused\");\n    }\n\n    function _timestamp() internal virtual view returns (uint) {\n        return block.timestamp;\n    }\n\n}\n",
  "sourcePath": "/home/pirat/Desktop/DAO_update/DAO/contracts/Token/CitadelToken.sol",
  "compiler": {
    "name": "solc",
    "version": "0.6.2+commit.bacdbe57.Emscripten.clang"
  },
  "schemaVersion": "3.2.5",
  "updatedAt": "2021-08-16T15:52:52.826Z",
  "devdoc": {
    "methods": {
      "allowance(address,address)": {
        "details": "See {IERC20-allowance}."
      },
      "approve(address,uint256)": {
        "details": "See {IERC20-approve}.     * Requirements:     * - `spender` cannot be the zero address."
      },
      "balanceOf(address)": {
        "details": "See {IERC20-balanceOf}."
      },
      "decimals()": {
        "details": "Returns the number of decimals used to get its user representation. For example, if `decimals` equals `2`, a balance of `505` tokens should be displayed to a user as `5,05` (`505 / 10 ** 2`).     * Tokens usually opt for a value of 18, imitating the relationship between Ether and Wei. This is the value {ERC20} uses, unless {_setupDecimals} is called.     * NOTE: This information is only used for _display_ purposes: it in no way affects any of the arithmetic of the contract, including {IERC20-balanceOf} and {IERC20-transfer}."
      },
      "decreaseAllowance(address,uint256)": {
        "details": "Atomically decreases the allowance granted to `spender` by the caller.     * This is an alternative to {approve} that can be used as a mitigation for problems described in {IERC20-approve}.     * Emits an {Approval} event indicating the updated allowance.     * Requirements:     * - `spender` cannot be the zero address. - `spender` must have allowance for the caller of at least `subtractedValue`."
      },
      "increaseAllowance(address,uint256)": {
        "details": "Atomically increases the allowance granted to `spender` by the caller.     * This is an alternative to {approve} that can be used as a mitigation for problems described in {IERC20-approve}.     * Emits an {Approval} event indicating the updated allowance.     * Requirements:     * - `spender` cannot be the zero address."
      },
      "name()": {
        "details": "Returns the name of the token."
      },
      "owner()": {
        "details": "Returns the address of the current owner."
      },
      "paused()": {
        "details": "Returns true if the contract is paused, and false otherwise."
      },
      "renounceOwnership()": {
        "details": "Leaves the contract without owner. It will not be possible to call `onlyOwner` functions anymore. Can only be called by the current owner.     * NOTE: Renouncing ownership will leave the contract without an owner, thereby removing any functionality that is only available to the owner."
      },
      "symbol()": {
        "details": "Returns the symbol of the token, usually a shorter version of the name."
      },
      "totalSupply()": {
        "details": "See {IERC20-totalSupply}."
      },
      "transfer(address,uint256)": {
        "details": "See {IERC20-transfer}.     * Requirements:     * - `recipient` cannot be the zero address. - the caller must have a balance of at least `amount`."
      },
      "transferFrom(address,address,uint256)": {
        "details": "See {IERC20-transferFrom}.     * Emits an {Approval} event indicating the updated allowance. This is not required by the EIP. See the note at the beginning of {ERC20};     * Requirements: - `sender` and `recipient` cannot be the zero address. - `sender` must have a balance of at least `amount`. - the caller must have allowance for ``sender``'s tokens of at least `amount`."
      },
      "transferOwnership(address)": {
        "details": "Transfers ownership of the contract to a new account (`newOwner`). Can only be called by the current owner."
      }
    }
  },
  "userdoc": {
    "methods": {}
  }
}