{
  "contractName": "Citadel",
  "abi": [
    {
      "inputs": [
        {
          "internalType": "uint256",
          "name": "initialSupply",
          "type": "uint256"
        }
      ],
      "stateMutability": "nonpayable",
      "type": "constructor"
    },
    {
      "anonymous": false,
      "inputs": [
        {
          "indexed": true,
          "internalType": "address",
          "name": "owner",
          "type": "address"
        },
        {
          "indexed": true,
          "internalType": "address",
          "name": "spender",
          "type": "address"
        },
        {
          "indexed": false,
          "internalType": "uint256",
          "name": "value",
          "type": "uint256"
        }
      ],
      "name": "Approval",
      "type": "event"
    },
    {
      "anonymous": false,
      "inputs": [
        {
          "indexed": true,
          "internalType": "uint256",
          "name": "issueId",
          "type": "uint256"
        },
        {
          "indexed": false,
          "internalType": "uint256",
          "name": "pct",
          "type": "uint256"
        }
      ],
      "name": "ChangeInflation",
      "type": "event"
    },
    {
      "anonymous": false,
      "inputs": [
        {
          "indexed": true,
          "internalType": "uint256",
          "name": "issueId",
          "type": "uint256"
        },
        {
          "indexed": false,
          "internalType": "uint256",
          "name": "pct",
          "type": "uint256"
        }
      ],
      "name": "ChangeVesting",
      "type": "event"
    },
    {
      "anonymous": false,
      "inputs": [
        {
          "indexed": true,
          "internalType": "address",
          "name": "previousOwner",
          "type": "address"
        },
        {
          "indexed": true,
          "internalType": "address",
          "name": "newOwner",
          "type": "address"
        }
      ],
      "name": "OwnershipTransferred",
      "type": "event"
    },
    {
      "anonymous": false,
      "inputs": [
        {
          "indexed": false,
          "internalType": "address",
          "name": "account",
          "type": "address"
        }
      ],
      "name": "Paused",
      "type": "event"
    },
    {
      "anonymous": false,
      "inputs": [
        {
          "indexed": true,
          "internalType": "address",
          "name": "from",
          "type": "address"
        },
        {
          "indexed": true,
          "internalType": "address",
          "name": "to",
          "type": "address"
        },
        {
          "indexed": false,
          "internalType": "uint256",
          "name": "value",
          "type": "uint256"
        }
      ],
      "name": "Transfer",
      "type": "event"
    },
    {
      "anonymous": false,
      "inputs": [
        {
          "indexed": false,
          "internalType": "address",
          "name": "account",
          "type": "address"
        }
      ],
      "name": "Unpaused",
      "type": "event"
    },
    {
      "inputs": [],
      "name": "_bankAddress",
      "outputs": [
        {
          "internalType": "address",
          "name": "",
          "type": "address"
        }
      ],
      "stateMutability": "view",
      "type": "function"
    },
    {
      "inputs": [
        {
          "internalType": "address",
          "name": "owner",
          "type": "address"
        },
        {
          "internalType": "address",
          "name": "spender",
          "type": "address"
        }
      ],
      "name": "allowance",
      "outputs": [
        {
          "internalType": "uint256",
          "name": "",
          "type": "uint256"
        }
      ],
      "stateMutability": "view",
      "type": "function"
    },
    {
      "inputs": [
        {
          "internalType": "address",
          "name": "spender",
          "type": "address"
        },
        {
          "internalType": "uint256",
          "name": "amount",
          "type": "uint256"
        }
      ],
      "name": "approve",
      "outputs": [
        {
          "internalType": "bool",
          "name": "",
          "type": "bool"
        }
      ],
      "stateMutability": "nonpayable",
      "type": "function"
    },
    {
      "inputs": [
        {
          "internalType": "address",
          "name": "account",
          "type": "address"
        }
      ],
      "name": "balanceOf",
      "outputs": [
        {
          "internalType": "uint256",
          "name": "",
          "type": "uint256"
        }
      ],
      "stateMutability": "view",
      "type": "function"
    },
    {
      "inputs": [
        {
          "internalType": "uint256",
          "name": "amount",
          "type": "uint256"
        }
      ],
      "name": "burn",
      "outputs": [],
      "stateMutability": "nonpayable",
      "type": "function"
    },
    {
      "inputs": [],
      "name": "countInflationPoints",
      "outputs": [
        {
          "internalType": "uint256",
          "name": "",
          "type": "uint256"
        }
      ],
      "stateMutability": "view",
      "type": "function"
    },
    {
      "inputs": [],
      "name": "decimals",
      "outputs": [
        {
          "internalType": "uint8",
          "name": "",
          "type": "uint8"
        }
      ],
      "stateMutability": "view",
      "type": "function"
    },
    {
      "inputs": [
        {
          "internalType": "address",
          "name": "spender",
          "type": "address"
        },
        {
          "internalType": "uint256",
          "name": "subtractedValue",
          "type": "uint256"
        }
      ],
      "name": "decreaseAllowance",
      "outputs": [
        {
          "internalType": "bool",
          "name": "",
          "type": "bool"
        }
      ],
      "stateMutability": "nonpayable",
      "type": "function"
    },
    {
      "inputs": [
        {
          "internalType": "address",
          "name": "from",
          "type": "address"
        },
        {
          "internalType": "uint256",
          "name": "amount",
          "type": "uint256"
        }
      ],
      "name": "delegateToDAO",
      "outputs": [],
      "stateMutability": "nonpayable",
      "type": "function"
    },
    {
      "inputs": [],
      "name": "deployDate",
      "outputs": [
        {
          "internalType": "uint256",
          "name": "",
          "type": "uint256"
        }
      ],
      "stateMutability": "view",
      "type": "function"
    },
    {
      "inputs": [],
      "name": "deployed",
      "outputs": [
        {
          "internalType": "uint256",
          "name": "",
          "type": "uint256"
        }
      ],
      "stateMutability": "view",
      "type": "function"
    },
    {
      "inputs": [],
      "name": "getDaoAddress",
      "outputs": [
        {
          "internalType": "address",
          "name": "",
          "type": "address"
        }
      ],
      "stateMutability": "view",
      "type": "function"
    },
    {
      "inputs": [],
      "name": "getInflationStartDate",
      "outputs": [
        {
          "internalType": "uint256",
          "name": "",
          "type": "uint256"
        }
      ],
      "stateMutability": "view",
      "type": "function"
    },
    {
      "inputs": [],
      "name": "getMaxSupply",
      "outputs": [
        {
          "internalType": "uint256",
          "name": "",
          "type": "uint256"
        }
      ],
      "stateMutability": "view",
      "type": "function"
    },
    {
      "inputs": [],
      "name": "getSavedInflationYear",
      "outputs": [
        {
          "internalType": "uint256",
          "name": "",
          "type": "uint256"
        }
      ],
      "stateMutability": "view",
      "type": "function"
    },
    {
      "inputs": [],
      "name": "getVestingAddress",
      "outputs": [
        {
          "internalType": "address",
          "name": "",
          "type": "address"
        }
      ],
      "stateMutability": "view",
      "type": "function"
    },
    {
      "inputs": [
        {
          "internalType": "address",
          "name": "spender",
          "type": "address"
        },
        {
          "internalType": "uint256",
          "name": "addedValue",
          "type": "uint256"
        }
      ],
      "name": "increaseAllowance",
      "outputs": [
        {
          "internalType": "bool",
          "name": "",
          "type": "bool"
        }
      ],
      "stateMutability": "nonpayable",
      "type": "function"
    },
    {
      "inputs": [
        {
          "internalType": "uint256",
          "name": "index",
          "type": "uint256"
        }
      ],
      "name": "inflationPoint",
      "outputs": [
        {
          "components": [
            {
              "internalType": "uint256",
              "name": "inflationPct",
              "type": "uint256"
            },
            {
              "internalType": "uint256",
              "name": "stakingPct",
              "type": "uint256"
            },
            {
              "internalType": "uint256",
              "name": "currentSupply",
              "type": "uint256"
            },
            {
              "internalType": "uint256",
              "name": "yearlySupply",
              "type": "uint256"
            },
            {
              "internalType": "uint256",
              "name": "date",
              "type": "uint256"
            }
          ],
          "internalType": "struct CitadelInflation.InflationValues",
          "name": "",
          "type": "tuple"
        }
      ],
      "stateMutability": "view",
      "type": "function"
    },
    {
      "inputs": [
        {
          "internalType": "address",
          "name": "daoAddress",
          "type": "address"
        }
      ],
      "name": "initDaoTransport",
      "outputs": [],
      "stateMutability": "nonpayable",
      "type": "function"
    },
    {
      "inputs": [
        {
          "internalType": "address",
          "name": "vestAddress",
          "type": "address"
        }
      ],
      "name": "initVestingTransport",
      "outputs": [],
      "stateMutability": "nonpayable",
      "type": "function"
    },
    {
      "inputs": [
        {
          "internalType": "address",
          "name": "addr",
          "type": "address"
        },
        {
          "internalType": "uint256",
          "name": "index",
          "type": "uint256"
        }
      ],
      "name": "lockHistory",
      "outputs": [
        {
          "internalType": "uint256",
          "name": "value",
          "type": "uint256"
        },
        {
          "internalType": "uint256",
          "name": "date",
          "type": "uint256"
        }
      ],
      "stateMutability": "view",
      "type": "function"
    },
    {
      "inputs": [
        {
          "internalType": "address",
          "name": "addr",
          "type": "address"
        }
      ],
      "name": "lockHistoryCount",
      "outputs": [
        {
          "internalType": "uint256",
          "name": "",
          "type": "uint256"
        }
      ],
      "stateMutability": "view",
      "type": "function"
    },
    {
      "inputs": [
        {
          "internalType": "address",
          "name": "account",
          "type": "address"
        }
      ],
      "name": "lockedBalanceOf",
      "outputs": [
        {
          "internalType": "uint256",
          "name": "",
          "type": "uint256"
        }
      ],
      "stateMutability": "view",
      "type": "function"
    },
    {
      "inputs": [
        {
          "internalType": "address",
          "name": "",
          "type": "address"
        }
      ],
      "name": "lockedCoins",
      "outputs": [
        {
          "internalType": "uint256",
          "name": "",
          "type": "uint256"
        }
      ],
      "stateMutability": "view",
      "type": "function"
    },
    {
      "inputs": [],
      "name": "lockedSupply",
      "outputs": [
        {
          "internalType": "uint256",
          "name": "",
          "type": "uint256"
        }
      ],
      "stateMutability": "view",
      "type": "function"
    },
    {
      "inputs": [],
      "name": "name",
      "outputs": [
        {
          "internalType": "string",
          "name": "",
          "type": "string"
        }
      ],
      "stateMutability": "view",
      "type": "function"
    },
    {
      "inputs": [],
      "name": "owner",
      "outputs": [
        {
          "internalType": "address",
          "name": "",
          "type": "address"
        }
      ],
      "stateMutability": "view",
      "type": "function"
    },
    {
      "inputs": [],
      "name": "paused",
      "outputs": [
        {
          "internalType": "bool",
          "name": "",
          "type": "bool"
        }
      ],
      "stateMutability": "view",
      "type": "function"
    },
    {
      "inputs": [],
      "name": "percentDecimal",
      "outputs": [
        {
          "internalType": "uint256",
          "name": "",
          "type": "uint256"
        }
      ],
      "stateMutability": "view",
      "type": "function"
    },
    {
      "inputs": [
        {
          "internalType": "address",
          "name": "to",
          "type": "address"
        },
        {
          "internalType": "uint256",
          "name": "amount",
          "type": "uint256"
        }
      ],
      "name": "redeemFromDAO",
      "outputs": [],
      "stateMutability": "nonpayable",
      "type": "function"
    },
    {
      "inputs": [],
      "name": "renounceOwnership",
      "outputs": [],
      "stateMutability": "nonpayable",
      "type": "function"
    },
    {
      "inputs": [],
      "name": "restake",
      "outputs": [],
      "stateMutability": "nonpayable",
      "type": "function"
    },
    {
      "inputs": [
        {
          "internalType": "uint256",
          "name": "amount",
          "type": "uint256"
        }
      ],
      "name": "stake",
      "outputs": [],
      "stateMutability": "nonpayable",
      "type": "function"
    },
    {
      "inputs": [],
      "name": "startInflation",
      "outputs": [],
      "stateMutability": "nonpayable",
      "type": "function"
    },
    {
      "inputs": [
        {
          "internalType": "uint256",
          "name": "date",
          "type": "uint256"
        }
      ],
      "name": "startInflationTo",
      "outputs": [],
      "stateMutability": "nonpayable",
      "type": "function"
    },
    {
      "inputs": [],
      "name": "symbol",
      "outputs": [
        {
          "internalType": "string",
          "name": "",
          "type": "string"
        }
      ],
      "stateMutability": "view",
      "type": "function"
    },
    {
      "inputs": [],
      "name": "totalSupply",
      "outputs": [
        {
          "internalType": "uint256",
          "name": "",
          "type": "uint256"
        }
      ],
      "stateMutability": "view",
      "type": "function"
    },
    {
      "inputs": [
        {
          "internalType": "uint256",
          "name": "index",
          "type": "uint256"
        }
      ],
      "name": "totalSupplyHistory",
      "outputs": [
        {
          "internalType": "uint256",
          "name": "value",
          "type": "uint256"
        },
        {
          "internalType": "uint256",
          "name": "date",
          "type": "uint256"
        }
      ],
      "stateMutability": "view",
      "type": "function"
    },
    {
      "inputs": [],
      "name": "totalSupplyHistoryCount",
      "outputs": [
        {
          "internalType": "uint256",
          "name": "",
          "type": "uint256"
        }
      ],
      "stateMutability": "view",
      "type": "function"
    },
    {
      "inputs": [
        {
          "internalType": "address",
          "name": "recipient",
          "type": "address"
        },
        {
          "internalType": "uint256",
          "name": "amount",
          "type": "uint256"
        }
      ],
      "name": "transfer",
      "outputs": [
        {
          "internalType": "bool",
          "name": "",
          "type": "bool"
        }
      ],
      "stateMutability": "nonpayable",
      "type": "function"
    },
    {
      "inputs": [
        {
          "internalType": "address",
          "name": "sender",
          "type": "address"
        },
        {
          "internalType": "address",
          "name": "recipient",
          "type": "address"
        },
        {
          "internalType": "uint256",
          "name": "amount",
          "type": "uint256"
        }
      ],
      "name": "transferFrom",
      "outputs": [
        {
          "internalType": "bool",
          "name": "",
          "type": "bool"
        }
      ],
      "stateMutability": "nonpayable",
      "type": "function"
    },
    {
      "inputs": [
        {
          "internalType": "address",
          "name": "newOwner",
          "type": "address"
        }
      ],
      "name": "transferOwnership",
      "outputs": [],
      "stateMutability": "nonpayable",
      "type": "function"
    },
    {
      "inputs": [
        {
          "internalType": "uint256",
          "name": "amount",
          "type": "uint256"
        }
      ],
      "name": "unstake",
      "outputs": [],
      "stateMutability": "nonpayable",
      "type": "function"
    },
    {
      "inputs": [
        {
          "internalType": "uint256",
          "name": "issueId",
          "type": "uint256"
        },
        {
          "internalType": "uint256",
          "name": "pct",
          "type": "uint256"
        }
      ],
      "name": "updateInflation",
      "outputs": [],
      "stateMutability": "nonpayable",
      "type": "function"
    },
    {
      "inputs": [
        {
          "internalType": "uint256",
          "name": "issueId",
          "type": "uint256"
        },
        {
          "internalType": "uint256",
          "name": "pct",
          "type": "uint256"
        }
      ],
      "name": "updateVesting",
      "outputs": [],
      "stateMutability": "nonpayable",
      "type": "function"
    },
    {
      "inputs": [
        {
          "internalType": "address",
          "name": "to",
          "type": "address"
        },
        {
          "internalType": "uint256",
          "name": "amount",
          "type": "uint256"
        }
      ],
      "name": "withdraw",
      "outputs": [],
      "stateMutability": "nonpayable",
      "type": "function"
    },
    {
      "inputs": [
        {
          "internalType": "address",
          "name": "to",
          "type": "address"
        },
        {
          "internalType": "uint256",
          "name": "amount",
          "type": "uint256"
        }
      ],
      "name": "delegateTokens",
      "outputs": [],
      "stateMutability": "nonpayable",
      "type": "function"
    }
  ],
  "bytecode": "0x60806040523480156200001157600080fd5b5060405162002f7938038062002f798339810160408190526200003491620005eb565b6040518060400160405280600b81526020016a4369746164656c2e6f6e6560a81b815250604051806040016040528060038152602001621610d560ea1b81525081600390805190602001906200008c92919062000549565b508051620000a290600490602084019062000549565b50506005805460ff19166012179055506000620000c76001600160e01b036200023e16565b60058054610100600160a81b0319166101006001600160a01b03841690810291909117909155604051919250906000907f8be0079c531659141344cd1fd0a4f28419497f9722a3daafe3b4186f6b6457e0908290a3506005805460ff60a81b19169055600680546001600160a01b031916301781554260075566038d7ea4c680006008556200015f906001600160e01b036200024316565b600062000182620f4240631dcd65006200025960201b620026ed1790919060201c565b90506200019a6001826001600160e01b03620002ab16565b620001b4818061032060286001600160e01b036200039716565b620001c960026001600160e01b036200045016565b620001fe30620001ef620f4240631dcd65006200025960201b620026ed1790919060201c565b6001600160e01b03620002ab16565b6200021b620f4240836200025960201b620026ed1790919060201c565b6200022e6001600160e01b036200049316565b146200023657fe5b50506200073d565b335b90565b6005805460ff191660ff92909216919091179055565b6000826200026a57506000620002a5565b828202828482816200027857fe5b0414620002a25760405162461bcd60e51b815260040162000299906200063b565b60405180910390fd5b90505b92915050565b6001600160a01b038216620002d45760405162461bcd60e51b81526004016200029990620006b3565b620002eb600083836001600160e01b036200049916565b62000307816002546200050d60201b62001b8f1790919060201c565b6002556001600160a01b038216600090815260208181526040909120546200033a91839062001b8f6200050d821b17901c565b6001600160a01b0383166000818152602081905260408082209390935591519091907fddf252ad1be2c89b69c2b068fc378daa952ba7f163c4a11628f55a4df523b3ef906200038b90859062000734565b60405180910390a35050565b600d5460ff1615620003a857600080fd5b600d805460ff19166001179055838301600e55600f84905560118490556040805160a081018252838152602081018390529081018590526060810185905260129060808101620004006001600160e01b036200053516565b905281546001818101845560009384526020938490208351600590930201918255928201519281019290925560408101516002830155606081015160038301556080015160049091015550505050565b60145460ff16156200046157600080fd5b601480546001600160a01b0390921661010002610100600160a81b031960ff1990931660011792909216919091179055565b60025490565b620004b18383836200050860201b62001f481760201c565b6103e83311620004d55760405162461bcd60e51b815260040162000299906200067c565b620004e86001600160e01b036200053916565b15620005085760405162461bcd60e51b81526004016200029990620006ea565b505050565b600082820183811015620002a25760405162461bcd60e51b8152600401620002999062000604565b4290565b600554600160a81b900460ff1690565b828054600181600116156101000203166002900490600052602060002090601f016020900481019282601f106200058c57805160ff1916838001178555620005bc565b82800160010185558215620005bc579182015b82811115620005bc5782518255916020019190600101906200059f565b50620005ca929150620005ce565b5090565b6200024091905b80821115620005ca5760008155600101620005d5565b600060208284031215620005fd578081fd5b5051919050565b6020808252601b908201527f536166654d6174683a206164646974696f6e206f766572666c6f770000000000604082015260600190565b60208082526021908201527f536166654d6174683a206d756c7469706c69636174696f6e206f766572666c6f6040820152607760f81b606082015260800190565b60208082526019908201527f4369746164656c546f6b656e3a2066616b652073656e64657200000000000000604082015260600190565b6020808252601f908201527f45524332303a206d696e7420746f20746865207a65726f206164647265737300604082015260600190565b6020808252602a908201527f45524332305061757361626c653a20746f6b656e207472616e736665722077686040820152691a5b19481c185d5cd95960b21b606082015260800190565b90815260200190565b61282c806200074d6000396000f3fe608060405234801561001057600080fd5b50600436106102955760003560e01c806369668fe911610167578063bf17282a116100ce578063f1474bd811610087578063f1474bd814610539578063f2fde38b14610559578063f3fef3a31461056c578063f905c15a1461057f578063f9b7ce0214610587578063ff1764a41461058f57610295565b8063bf17282a146104d2578063c108a402146104e5578063c2ad5b74146104f8578063c686781d1461050b578063ca5c7b911461051e578063dd62ed3e1461052657610295565b806395d89b411161012057806395d89b4114610476578063a457c2d71461047e578063a694fc3a14610491578063a9059cbb146104a4578063ac3cd7c6146104b7578063ba1a681f146104ca57610295565b806369668fe91461042557806370a082311461042d578063715018a6146104405780637fa7faf81461044857806389bb60811461045b5780638da5cb5b1461046e57610295565b806344263fcb1161020b5780634f91440d116101c45780634f91440d146103df57806353d168e7146103e757806355b28b37146103ef57806359355736146103f75780635c975abb1461040a5780636641d9a01461041257610295565b806344263fcb1461038057806344c40464146103935780634ab68e14146103a65780634b45aa12146103ae5780634c0f38c2146103b65780634cf54195146103be57610295565b806323b872dd1161025d57806323b872dd1461030a5780632e17de781461031d578063313ce5671461033257806339509351146103475780633ba71a151461035a57806342966c681461036d57610295565b806306fdde031461029a578063095ea7b3146102b857806318160ddd146102d85780631d0a67e1146102ed5780631d68702d146102f5575b600080fd5b6102a2610597565b6040516102af91906120d9565b60405180910390f35b6102cb6102c636600461203f565b61062d565b6040516102af91906120ce565b6102e061064b565b6040516102af91906126b3565b6102e0610651565b6102fd610657565b6040516102af91906120ba565b6102cb610318366004611fff565b610666565b61033061032b366004612069565b6106f3565b005b61033a61084d565b6040516102af91906126ca565b6102cb61035536600461203f565b610856565b61033061036836600461203f565b6108aa565b61033061037b366004612069565b610916565b61033061038e366004611fb0565b610969565b6103306103a136600461203f565b6109c5565b6102e0610a11565b6102e0610a17565b6102e0610a1d565b6103d16103cc36600461203f565b610a23565b6040516102af9291906126bc565b610330610adf565b6102fd610c16565b6102e0610c25565b6102e0610405366004611fb0565b610c2b565b6102cb610c46565b6103d1610420366004612069565b610c56565b6102e0610cc3565b6102e061043b366004611fb0565b610cc9565b610330610ce4565b610330610456366004611fb0565b610d6e565b6102e0610469366004611fb0565b610dca565b6102fd610de5565b6102a2610df9565b6102cb61048c36600461203f565b610e5a565b61033061049f366004612069565b610ec8565b6102cb6104b236600461203f565b610f24565b6103306104c5366004612099565b610f38565b6102e0611068565b6102e06104e0366004611fb0565b61106e565b6103306104f3366004612099565b611080565b61033061050636600461203f565b6111a3565b610330610519366004612069565b6111ec565b6102e06112b1565b6102e0610534366004611fcb565b6112c0565b61054c610547366004612069565b6112eb565b6040516102af9190612679565b610330610567366004611fb0565b611373565b61033061057a36600461203f565b61143a565b6102e061147a565b610330611480565b6102fd611510565b60038054604080516020601f60026000196101006001881615020190951694909404938401819004810282018101909252828152606093909290918301828280156106235780601f106105f857610100808354040283529160200191610623565b820191906000526020600020905b81548152906001019060200180831161060657829003601f168201915b5050505050905090565b600061064161063a61151f565b8484611523565b5060015b92915050565b60025490565b60105490565b600a546001600160a01b031690565b60006106738484846115d7565b6106e98461067f61151f565b6106e4856040518060600160405280602881526020016127aa602891396001600160a01b038a166000908152600160205260408120906106bd61151f565b6001600160a01b03168152602081019190915260400160002054919063ffffffff6116f816565b611523565b5060019392505050565b6000600c5411801561070e5750610708611724565b600c5411155b6107335760405162461bcd60e51b815260040161072a906123cc565b60405180910390fd5b3360009081526013602052604090205481111561074f57600080fd5b610757611728565b6014546107739061010090046001600160a01b031633836115d7565b33600090815260136020526040902054610793908263ffffffff611a4016565b3360009081526013602052604090819020919091558051808201909152601590806107bc611a89565b81526020016107c9611724565b905281546001818101845560009384526020808520845160029094020192835592830151910155338252601681526040808320815180830183526013845291909320548152908101610819611724565b905281546001818101845560009384526020938490208351600290930201918255929091015191015561084a611aa6565b50565b60055460ff1690565b600061064161086361151f565b846106e4856001600061087461151f565b6001600160a01b03908116825260208083019390935260409182016000908120918c16815292529020549063ffffffff611b8f16565b600a546001600160a01b031633146108c157600080fd5b6108cd600a83836115d7565b6001600160a01b0382166000908152600b60205260409020546108f6908263ffffffff611a4016565b6001600160a01b039092166000908152600b602052604090209190915550565b6103e833116109375760405162461bcd60e51b815260040161072a90612438565b8061094133610cc9565b101561095f5760405162461bcd60e51b815260040161072a90612200565b61084a3382611bb4565b61097161151f565b60055461010090046001600160a01b039081169116146109a35760405162461bcd60e51b815260040161072a90612403565b600a80546001600160a01b0319166001600160a01b0392909216919091179055565b600a546001600160a01b031633146109dc57600080fd5b6109e882600a836115d7565b6001600160a01b0382166000908152600b60205260409020546108f6908263ffffffff611b8f16565b60155490565b60125490565b600e5490565b6001600160a01b03821660009081526016602052604081205481908310610a5c5760405162461bcd60e51b815260040161072a90612343565b6001600160a01b0384166000908152601660205260409020805484908110610a8057fe5b906000526020600020906002020160000154915060166000856001600160a01b03166001600160a01b031681526020019081526020016000208381548110610ac457fe5b90600052602060002090600202016001015490509250929050565b6000600c54118015610afa5750610af4611724565b600c5411155b610b165760405162461bcd60e51b815260040161072a906123cc565b6009546001600160a01b0316610b3e5760405162461bcd60e51b815260040161072a9061212c565b60095460405163ddeae03360e01b81526000916001600160a01b03169063ddeae03390610b6f9033906004016120ba565b602060405180830381600087803b158015610b8957600080fd5b505af1158015610b9d573d6000803e3d6000fd5b505050506040513d601f19601f82011682018060405250610bc19190810190612081565b905060008111610bd057600080fd5b610bd8611728565b601454610bf69060019061010090046001600160a01b0316836115d7565b33600090815260136020526040902054610793908263ffffffff611b8f16565b6006546001600160a01b031681565b600c5490565b6001600160a01b031660009081526013602052604090205490565b600554600160a81b900460ff1690565b60155460009081908310610c7c5760405162461bcd60e51b815260040161072a90612343565b60158381548110610c8957fe5b906000526020600020906002020160000154915060158381548110610caa57fe5b9060005260206000209060020201600101549050915091565b60075481565b6001600160a01b031660009081526020819052604090205490565b610cec61151f565b60055461010090046001600160a01b03908116911614610d1e5760405162461bcd60e51b815260040161072a90612403565b60055460405160009161010090046001600160a01b0316907f8be0079c531659141344cd1fd0a4f28419497f9722a3daafe3b4186f6b6457e0908390a360058054610100600160a81b0319169055565b610d7661151f565b60055461010090046001600160a01b03908116911614610da85760405162461bcd60e51b815260040161072a90612403565b600980546001600160a01b0319166001600160a01b0392909216919091179055565b6001600160a01b031660009081526016602052604090205490565b60055461010090046001600160a01b031690565b60048054604080516020601f60026000196101006001881615020190951694909404938401819004810282018101909252828152606093909290918301828280156106235780601f106105f857610100808354040283529160200191610623565b6000610641610e6761151f565b846106e4856040518060600160405280602581526020016127d26025913960016000610e9161151f565b6001600160a01b03908116825260208083019390935260409182016000908120918d1681529252902054919063ffffffff6116f816565b6000600c54118015610ee35750610edd611724565b600c5411155b610eff5760405162461bcd60e51b815260040161072a906123cc565b610f07611728565b601454610bf690339061010090046001600160a01b0316836115d7565b6000610641610f3161151f565b84846115d7565b600a546001600160a01b03163314610f4f57600080fd5b600a8110158015610f615750605a8111155b610f7d5760405162461bcd60e51b815260040161072a9061259d565b610f85611f6a565b601280546000198101908110610f9757fe5b90600052602060002090600502016040518060a001604052908160008201548152602001600182015481526020016002820154815260200160038201548152602001600482015481525050905060008160800151610ff3611724565b03905062278d008110156110195760405162461bcd60e51b815260040161072a906125e3565b611021611728565b61102a83611ca2565b837f96a647810411309169e354743b6a4e9d05e3c777f5fae278e65f6168fe7279ba8460405161105a91906126b3565b60405180910390a250505050565b60085481565b60136020526000908152604090205481565b600a546001600160a01b0316331461109757600080fd5b60c881101580156110aa5750610bb88111155b6110c65760405162461bcd60e51b815260040161072a90612387565b6110ce611f6a565b6012805460001981019081106110e057fe5b90600052602060002090600502016040518060a00160405290816000820154815260200160018201548152602001600282015481526020016003820154815260200160048201548152505090506000816080015161113c611724565b03905062278d008110156111625760405162461bcd60e51b815260040161072a906125e3565b61116a611728565b61117383611de2565b837f8f4db2ceeda2c579bf7d6f7036f9f300565d76719308713e3c85d3484b4ebb308460405161105a91906126b3565b6111ab61151f565b60055461010090046001600160a01b039081169116146111dd5760405162461bcd60e51b815260040161072a90612403565b6111e83083836115d7565b5050565b6111f461151f565b60055461010090046001600160a01b039081169116146112265760405162461bcd60e51b815260040161072a90612403565b600c54158061123d5750611238611724565b600c54115b6112595760405162461bcd60e51b815260040161072a906124f5565b611261611724565b811161127f5760405162461bcd60e51b815260040161072a906121bd565b600c81905560108190556012805482919060009061129957fe5b90600052602060002090600502016004018190555050565b60006112bb611a89565b905090565b6001600160a01b03918216600090815260016020908152604080832093909416825291909152205490565b6112f3611f6a565b60125482106113145760405162461bcd60e51b815260040161072a90612301565b6012828154811061132157fe5b90600052602060002090600502016040518060a0016040529081600082015481526020016001820154815260200160028201548152602001600382015481526020016004820154815250509050919050565b61137b61151f565b60055461010090046001600160a01b039081169116146113ad5760405162461bcd60e51b815260040161072a90612403565b6001600160a01b0381166113d35760405162461bcd60e51b815260040161072a90612242565b6005546040516001600160a01b0380841692610100900416907f8be0079c531659141344cd1fd0a4f28419497f9722a3daafe3b4186f6b6457e090600090a3600580546001600160a01b0390921661010002610100600160a81b0319909216919091179055565b6009546001600160a01b031633148061145d5750600a546001600160a01b031633145b61146657600080fd5b61146e611728565b6111e8600183836115d7565b60075490565b61148861151f565b60055461010090046001600160a01b039081169116146114ba5760405162461bcd60e51b815260040161072a90612403565b600c54156114da5760405162461bcd60e51b815260040161072a906124f5565b6114e2611724565b600c8190556010819055601280546000906114f957fe5b906000526020600020906005020160040181905550565b6009546001600160a01b031690565b3390565b6001600160a01b0383166115495760405162461bcd60e51b815260040161072a9061252c565b6001600160a01b03821661156f5760405162461bcd60e51b815260040161072a90612288565b6001600160a01b0380841660008181526001602090815260408083209487168084529490915290819020849055517f8c5be1e5ebec7d5bd14f71427d1e84f3dd0314c0f7b2291e5b200ac8c7c3b925906115ca9085906126b3565b60405180910390a3505050565b6001600160a01b0383166115fd5760405162461bcd60e51b815260040161072a906124b0565b6001600160a01b0382166116235760405162461bcd60e51b815260040161072a9061217a565b61162e838383611ef7565b61167181604051806060016040528060268152602001612784602691396001600160a01b038616600090815260208190526040902054919063ffffffff6116f816565b6001600160a01b0380851660009081526020819052604080822093909355908416815220546116a6908263ffffffff611b8f16565b6001600160a01b0380841660008181526020819052604090819020939093559151908516907fddf252ad1be2c89b69c2b068fc378daa952ba7f163c4a11628f55a4df523b3ef906115ca9085906126b3565b6000818484111561171c5760405162461bcd60e51b815260040161072a91906120d9565b505050900390565b4290565b600f54600e54141561173957611a3e565b6000601054611746611724565b0390506301e1338081101561175b5750611a3e565b611763611f6a565b60128054600019810190811061177557fe5b600091825260208083206040805160a0810182526005909402909101805480855260018201549385019390935260028101549184019190915260038101546060840152600401546080830152909250905b6301e133808404811015611a33576301e1338060106000828254019250508190555060006127106301e133808560800151601054038560115402028161180857fe5b048161181057fe5b049050600e54600f548201101580611828575060c883105b156118bc57600e54600f8190555060126040518060a0016040528061184b611f4d565b815260208781015181830152600f54604080840182905260608085019290925260105460809485015285546001818101885560009788529684902086516005909202019081559285015195830195909555938301516002820155928201516003840155015160049091015550611a33565b600f80548201905560c88311156118ff576032831180156118e0575060c860328403115b156118ec576032830392505b60c88310156118fa5760c892505b611923565b8260c81415611923576000611912611f4d565b905060c8811015611921578093505b505b506040805160a081018252838152602085810151908201908152600f549282018381526060830193845260105460808401908152601280546001808201835560009290925294517fbb8a6a4669ba250d26cd7a459eca9d215f8307e33aebe50379bc5a3617ec344460059096029586015592517fbb8a6a4669ba250d26cd7a459eca9d215f8307e33aebe50379bc5a3617ec344585015590517fbb8a6a4669ba250d26cd7a459eca9d215f8307e33aebe50379bc5a3617ec344684015592517fbb8a6a4669ba250d26cd7a459eca9d215f8307e33aebe50379bc5a3617ec344783015591517fbb8a6a4669ba250d26cd7a459eca9d215f8307e33aebe50379bc5a3617ec344890910155016117c6565b5050600f5460115550505b565b6000611a8283836040518060400160405280601e81526020017f536166654d6174683a207375627472616374696f6e206f766572666c6f7700008152506116f8565b9392505050565b6014546000906112bb9061010090046001600160a01b0316610cc9565b600a546001600160a01b031615611b1a57600a5460405163070c88f360e41b81526001600160a01b03909116906370c88f3090611ae79033906004016120ba565b600060405180830381600087803b158015611b0157600080fd5b505af1158015611b15573d6000803e3d6000fd5b505050505b6009546001600160a01b031615611a3e576009546040516303d9eba760e41b81526001600160a01b0390911690633d9eba7090611b5b9033906004016120ba565b600060405180830381600087803b158015611b7557600080fd5b505af1158015611b89573d6000803e3d6000fd5b50505050565b600082820183811015611a825760405162461bcd60e51b815260040161072a906122ca565b6001600160a01b038216611bda5760405162461bcd60e51b815260040161072a9061246f565b611be682600083611ef7565b611c2981604051806060016040528060228152602001612762602291396001600160a01b038516600090815260208190526040902054919063ffffffff6116f816565b6001600160a01b038316600090815260208190526040902055600254611c55908263ffffffff611a4016565b6002556040516000906001600160a01b038416907fddf252ad1be2c89b69c2b068fc378daa952ba7f163c4a11628f55a4df523b3ef90611c969085906126b3565b60405180910390a35050565b600f54600e541415611cb357600080fd5b611cbb611f6a565b601280546000198101908110611ccd57fe5b90600052602060002090600502016040518060a001604052908160008201548152602001600182015481526020016002820154815260200160038201548152602001600482015481525050905060008160800151611d29611724565b0390506127106301e13380828460000151601154020281611d4657fe5b0481611d4e57fe5b04600f6000828254019250508190555060126040518060a0016040528084600001518152602001858152602001600f5481526020016011548152602001611d93611724565b9052815460018181018455600093845260209384902083516005909302019182559282015192810192909255604081015160028301556060810151600383015560800151600490910155505050565b600f54600e541415611df357600080fd5b611dfb611f6a565b601280546000198101908110611e0d57fe5b90600052602060002090600502016040518060a001604052908160008201548152602001600182015481526020016002820154815260200160038201548152602001600482015481525050905060008160800151611e69611724565b0390506127106301e13380828460000151601154020281611e8657fe5b0481611e8e57fe5b600f8054929091049091019055611ea3611f4d565b831115611ec25760405162461bcd60e51b815260040161072a90612570565b60126040518060a0016040528085815260200184602001518152602001600f5481526020016011548152602001611d93611724565b611f02838383611f48565b6103e83311611f235760405162461bcd60e51b815260040161072a90612438565b611f2b610c46565b15611f485760405162461bcd60e51b815260040161072a9061262f565b505050565b6000600f54600f54600e54036127100281611f6457fe5b04905090565b6040518060a0016040528060008152602001600081526020016000815260200160008152602001600081525090565b80356001600160a01b038116811461064557600080fd5b600060208284031215611fc1578081fd5b611a828383611f99565b60008060408385031215611fdd578081fd5b611fe78484611f99565b9150611ff68460208501611f99565b90509250929050565b600080600060608486031215612013578081fd5b833561201e816126d8565b9250602084013561202e816126d8565b929592945050506040919091013590565b60008060408385031215612051578182fd5b61205b8484611f99565b946020939093013593505050565b60006020828403121561207a578081fd5b5035919050565b600060208284031215612092578081fd5b5051919050565b600080604083850312156120ab578182fd5b50508035926020909101359150565b6001600160a01b0391909116815260200190565b901515815260200190565b6000602080835283518082850152825b81811015612105578581018301518582016040015282016120e9565b818111156121165783604083870101525b50601f01601f1916929092016040019392505050565b6020808252602e908201527f4369746164656c546f6b656e4c6f636b65723a2076657374696e6720636f6e7460408201526d1c9858dd081d5b9919599a5b995960921b606082015260800190565b60208082526023908201527f45524332303a207472616e7366657220746f20746865207a65726f206164647260408201526265737360e81b606082015260800190565b60208082526023908201527f5374617274696e672064617465206d75737420626520696e207468652066757460408201526275726560e81b606082015260800190565b60208082526022908201527f4369746164656c546f6b656e3a20696e73756666696369656e742062616c616e604082015261636560f01b606082015260800190565b60208082526026908201527f4f776e61626c653a206e6577206f776e657220697320746865207a65726f206160408201526564647265737360d01b606082015260800190565b60208082526022908201527f45524332303a20617070726f766520746f20746865207a65726f206164647265604082015261737360f01b606082015260800190565b6020808252601b908201527f536166654d6174683a206164646974696f6e206f766572666c6f770000000000604082015260600190565b60208082526022908201527f4369746164656c496e666c6174696f6e3a20756e657870656374656420696e646040820152610caf60f31b606082015260800190565b60208082526024908201527f4369746164656c546f6b656e4c6f636b65723a20756e657870656374656420696040820152630dcc8caf60e31b606082015260800190565b60208082526025908201527f50657263656e74616765206d757374206265206265747765656e20322520616e604082015264642033302560d81b606082015260800190565b6020808252601d908201527f4369746164656c496e666c6174696f6e3a20636f6d696e6720736f6f6e000000604082015260600190565b6020808252818101527f4f776e61626c653a2063616c6c6572206973206e6f7420746865206f776e6572604082015260600190565b60208082526019908201527f4369746164656c546f6b656e3a2066616b652073656e64657200000000000000604082015260600190565b60208082526021908201527f45524332303a206275726e2066726f6d20746865207a65726f206164647265736040820152607360f81b606082015260800190565b60208082526025908201527f45524332303a207472616e736665722066726f6d20746865207a65726f206164604082015264647265737360d81b606082015260800190565b6020808252601c908201527f496e666c6174696f6e20697320616c7265616479207374617274656400000000604082015260600190565b60208082526024908201527f45524332303a20617070726f76652066726f6d20746865207a65726f206164646040820152637265737360e01b606082015260800190565b602080825260139082015272546f6f20686967682070657263656e7461676560681b604082015260600190565b60208082526026908201527f50657263656e74616765206d757374206265206265747765656e2031302520616040820152656e642039302560d01b606082015260800190565b6020808252602c908201527f596f75206861766520746f20776169742033302064617973206166746572206c60408201526b617374206368616e67696e6760a01b606082015260800190565b6020808252602a908201527f45524332305061757361626c653a20746f6b656e207472616e736665722077686040820152691a5b19481c185d5cd95960b21b606082015260800190565b600060a082019050825182526020830151602083015260408301516040830152606083015160608301526080830151608083015292915050565b90815260200190565b918252602082015260400190565b60ff91909116815260200190565b6001600160a01b038116811461084a57600080fd5b6000826126fc57506000610645565b8282028284828161270957fe5b0414611a825760405162461bcd60e51b815260206004820152602160248201527f536166654d6174683a206d756c7469706c69636174696f6e206f766572666c6f6044820152607760f81b606482015260840161072a56fe45524332303a206275726e20616d6f756e7420657863656564732062616c616e636545524332303a207472616e7366657220616d6f756e7420657863656564732062616c616e636545524332303a207472616e7366657220616d6f756e74206578636565647320616c6c6f77616e636545524332303a2064656372656173656420616c6c6f77616e63652062656c6f77207a65726fa2646970667358221220c83f9d84f75404013676f52f7834c5a5e7082ba039f2c09d6a60c019e1a397a764736f6c63430006020033",
  "source": "// SPDX-License-Identifier: GPL-3.0\npragma solidity 0.6.2;\npragma experimental ABIEncoderV2;\n\n\nimport \"./Token/CitadelTokenLocker.sol\";\n\n\ncontract Citadel is CitadelTokenLocker {\n\n    constructor (\n        uint initialSupply\n    )\n    public {\n        // mint inflation\n        uint inflation = uint(500000000).mul(1e6);\n        _mint(address(1), inflation);\n\n        _initInflation(inflation, inflation, 800, 40);\n\n        _initCitadelTokenLocker(address(2));\n\n        _mint(address(this), uint(500000000).mul(1e6));\n\n        assert(totalSupply() == initialSupply.mul(1e6));\n\n    }\n\n    function delegateTokens (address to, uint amount) external onlyOwner {\n        _transfer(address(this), to, amount);\n    }\n\n}\n",
  "sourcePath": "/home/pirat/Desktop/DAO/contracts/Citadel.sol",
  "compiler": {
    "name": "solc",
    "version": "0.6.2+commit.bacdbe57.Emscripten.clang"
  },
  "schemaVersion": "3.2.5",
  "updatedAt": "2021-06-17T16:12:26.996Z",
  "devdoc": {
    "methods": {
      "allowance(address,address)": {
        "details": "See {IERC20-allowance}."
      },
      "approve(address,uint256)": {
        "details": "See {IERC20-approve}.     * Requirements:     * - `spender` cannot be the zero address."
      },
      "balanceOf(address)": {
        "details": "See {IERC20-balanceOf}."
      },
      "decimals()": {
        "details": "Returns the number of decimals used to get its user representation. For example, if `decimals` equals `2`, a balance of `505` tokens should be displayed to a user as `5,05` (`505 / 10 ** 2`).     * Tokens usually opt for a value of 18, imitating the relationship between Ether and Wei. This is the value {ERC20} uses, unless {_setupDecimals} is called.     * NOTE: This information is only used for _display_ purposes: it in no way affects any of the arithmetic of the contract, including {IERC20-balanceOf} and {IERC20-transfer}."
      },
      "decreaseAllowance(address,uint256)": {
        "details": "Atomically decreases the allowance granted to `spender` by the caller.     * This is an alternative to {approve} that can be used as a mitigation for problems described in {IERC20-approve}.     * Emits an {Approval} event indicating the updated allowance.     * Requirements:     * - `spender` cannot be the zero address. - `spender` must have allowance for the caller of at least `subtractedValue`."
      },
      "increaseAllowance(address,uint256)": {
        "details": "Atomically increases the allowance granted to `spender` by the caller.     * This is an alternative to {approve} that can be used as a mitigation for problems described in {IERC20-approve}.     * Emits an {Approval} event indicating the updated allowance.     * Requirements:     * - `spender` cannot be the zero address."
      },
      "name()": {
        "details": "Returns the name of the token."
      },
      "owner()": {
        "details": "Returns the address of the current owner."
      },
      "paused()": {
        "details": "Returns true if the contract is paused, and false otherwise."
      },
      "renounceOwnership()": {
        "details": "Leaves the contract without owner. It will not be possible to call `onlyOwner` functions anymore. Can only be called by the current owner.     * NOTE: Renouncing ownership will leave the contract without an owner, thereby removing any functionality that is only available to the owner."
      },
      "symbol()": {
        "details": "Returns the symbol of the token, usually a shorter version of the name."
      },
      "totalSupply()": {
        "details": "See {IERC20-totalSupply}."
      },
      "transfer(address,uint256)": {
        "details": "See {IERC20-transfer}.     * Requirements:     * - `recipient` cannot be the zero address. - the caller must have a balance of at least `amount`."
      },
      "transferFrom(address,address,uint256)": {
        "details": "See {IERC20-transferFrom}.     * Emits an {Approval} event indicating the updated allowance. This is not required by the EIP. See the note at the beginning of {ERC20};     * Requirements: - `sender` and `recipient` cannot be the zero address. - `sender` must have a balance of at least `amount`. - the caller must have allowance for ``sender``'s tokens of at least `amount`."
      },
      "transferOwnership(address)": {
        "details": "Transfers ownership of the contract to a new account (`newOwner`). Can only be called by the current owner."
      }
    }
  },
  "userdoc": {
    "methods": {}
  }
}