{
  "contractName": "CitadelInflation",
  "abi": [
    {
      "anonymous": false,
      "inputs": [
        {
          "indexed": true,
          "internalType": "address",
          "name": "owner",
          "type": "address"
        },
        {
          "indexed": true,
          "internalType": "address",
          "name": "spender",
          "type": "address"
        },
        {
          "indexed": false,
          "internalType": "uint256",
          "name": "value",
          "type": "uint256"
        }
      ],
      "name": "Approval",
      "type": "event"
    },
    {
      "anonymous": false,
      "inputs": [
        {
          "indexed": false,
          "internalType": "uint256",
          "name": "inflationPct",
          "type": "uint256"
        },
        {
          "indexed": false,
          "internalType": "uint256",
          "name": "stakingPct",
          "type": "uint256"
        }
      ],
      "name": "CitadelInflationRatio",
      "type": "event"
    },
    {
      "anonymous": false,
      "inputs": [
        {
          "indexed": true,
          "internalType": "address",
          "name": "previousOwner",
          "type": "address"
        },
        {
          "indexed": true,
          "internalType": "address",
          "name": "newOwner",
          "type": "address"
        }
      ],
      "name": "OwnershipTransferred",
      "type": "event"
    },
    {
      "anonymous": false,
      "inputs": [
        {
          "indexed": false,
          "internalType": "address",
          "name": "account",
          "type": "address"
        }
      ],
      "name": "Paused",
      "type": "event"
    },
    {
      "anonymous": false,
      "inputs": [
        {
          "indexed": true,
          "internalType": "address",
          "name": "from",
          "type": "address"
        },
        {
          "indexed": true,
          "internalType": "address",
          "name": "to",
          "type": "address"
        },
        {
          "indexed": false,
          "internalType": "uint256",
          "name": "value",
          "type": "uint256"
        }
      ],
      "name": "Transfer",
      "type": "event"
    },
    {
      "anonymous": false,
      "inputs": [
        {
          "indexed": false,
          "internalType": "address",
          "name": "account",
          "type": "address"
        }
      ],
      "name": "Unpaused",
      "type": "event"
    },
    {
      "inputs": [],
      "name": "_bankAddress",
      "outputs": [
        {
          "internalType": "address",
          "name": "",
          "type": "address"
        }
      ],
      "stateMutability": "view",
      "type": "function"
    },
    {
      "inputs": [
        {
          "internalType": "address",
          "name": "owner",
          "type": "address"
        },
        {
          "internalType": "address",
          "name": "spender",
          "type": "address"
        }
      ],
      "name": "allowance",
      "outputs": [
        {
          "internalType": "uint256",
          "name": "",
          "type": "uint256"
        }
      ],
      "stateMutability": "view",
      "type": "function"
    },
    {
      "inputs": [
        {
          "internalType": "address",
          "name": "spender",
          "type": "address"
        },
        {
          "internalType": "uint256",
          "name": "amount",
          "type": "uint256"
        }
      ],
      "name": "approve",
      "outputs": [
        {
          "internalType": "bool",
          "name": "",
          "type": "bool"
        }
      ],
      "stateMutability": "nonpayable",
      "type": "function"
    },
    {
      "inputs": [
        {
          "internalType": "address",
          "name": "account",
          "type": "address"
        }
      ],
      "name": "balanceOf",
      "outputs": [
        {
          "internalType": "uint256",
          "name": "",
          "type": "uint256"
        }
      ],
      "stateMutability": "view",
      "type": "function"
    },
    {
      "inputs": [],
      "name": "decimals",
      "outputs": [
        {
          "internalType": "uint8",
          "name": "",
          "type": "uint8"
        }
      ],
      "stateMutability": "view",
      "type": "function"
    },
    {
      "inputs": [
        {
          "internalType": "address",
          "name": "spender",
          "type": "address"
        },
        {
          "internalType": "uint256",
          "name": "subtractedValue",
          "type": "uint256"
        }
      ],
      "name": "decreaseAllowance",
      "outputs": [
        {
          "internalType": "bool",
          "name": "",
          "type": "bool"
        }
      ],
      "stateMutability": "nonpayable",
      "type": "function"
    },
    {
      "inputs": [],
      "name": "deployDate",
      "outputs": [
        {
          "internalType": "uint256",
          "name": "",
          "type": "uint256"
        }
      ],
      "stateMutability": "view",
      "type": "function"
    },
    {
      "inputs": [],
      "name": "deployed",
      "outputs": [
        {
          "internalType": "uint256",
          "name": "",
          "type": "uint256"
        }
      ],
      "stateMutability": "view",
      "type": "function"
    },
    {
      "inputs": [
        {
          "internalType": "address",
          "name": "spender",
          "type": "address"
        },
        {
          "internalType": "uint256",
          "name": "addedValue",
          "type": "uint256"
        }
      ],
      "name": "increaseAllowance",
      "outputs": [
        {
          "internalType": "bool",
          "name": "",
          "type": "bool"
        }
      ],
      "stateMutability": "nonpayable",
      "type": "function"
    },
    {
      "inputs": [],
      "name": "name",
      "outputs": [
        {
          "internalType": "string",
          "name": "",
          "type": "string"
        }
      ],
      "stateMutability": "view",
      "type": "function"
    },
    {
      "inputs": [],
      "name": "owner",
      "outputs": [
        {
          "internalType": "address",
          "name": "",
          "type": "address"
        }
      ],
      "stateMutability": "view",
      "type": "function"
    },
    {
      "inputs": [],
      "name": "paused",
      "outputs": [
        {
          "internalType": "bool",
          "name": "",
          "type": "bool"
        }
      ],
      "stateMutability": "view",
      "type": "function"
    },
    {
      "inputs": [],
      "name": "percentDecimal",
      "outputs": [
        {
          "internalType": "uint256",
          "name": "",
          "type": "uint256"
        }
      ],
      "stateMutability": "view",
      "type": "function"
    },
    {
      "inputs": [],
      "name": "renounceOwnership",
      "outputs": [],
      "stateMutability": "nonpayable",
      "type": "function"
    },
    {
      "inputs": [],
      "name": "symbol",
      "outputs": [
        {
          "internalType": "string",
          "name": "",
          "type": "string"
        }
      ],
      "stateMutability": "view",
      "type": "function"
    },
    {
      "inputs": [],
      "name": "totalSupply",
      "outputs": [
        {
          "internalType": "uint256",
          "name": "",
          "type": "uint256"
        }
      ],
      "stateMutability": "view",
      "type": "function"
    },
    {
      "inputs": [
        {
          "internalType": "address",
          "name": "recipient",
          "type": "address"
        },
        {
          "internalType": "uint256",
          "name": "amount",
          "type": "uint256"
        }
      ],
      "name": "transfer",
      "outputs": [
        {
          "internalType": "bool",
          "name": "",
          "type": "bool"
        }
      ],
      "stateMutability": "nonpayable",
      "type": "function"
    },
    {
      "inputs": [
        {
          "internalType": "address",
          "name": "sender",
          "type": "address"
        },
        {
          "internalType": "address",
          "name": "recipient",
          "type": "address"
        },
        {
          "internalType": "uint256",
          "name": "amount",
          "type": "uint256"
        }
      ],
      "name": "transferFrom",
      "outputs": [
        {
          "internalType": "bool",
          "name": "",
          "type": "bool"
        }
      ],
      "stateMutability": "nonpayable",
      "type": "function"
    },
    {
      "inputs": [
        {
          "internalType": "address",
          "name": "newOwner",
          "type": "address"
        }
      ],
      "name": "transferOwnership",
      "outputs": [],
      "stateMutability": "nonpayable",
      "type": "function"
    },
    {
      "inputs": [],
      "name": "startInflation",
      "outputs": [],
      "stateMutability": "nonpayable",
      "type": "function"
    },
    {
      "inputs": [
        {
          "internalType": "uint256",
          "name": "date",
          "type": "uint256"
        }
      ],
      "name": "startInflationTo",
      "outputs": [],
      "stateMutability": "nonpayable",
      "type": "function"
    },
    {
      "inputs": [],
      "name": "getInflationStartDate",
      "outputs": [
        {
          "internalType": "uint256",
          "name": "",
          "type": "uint256"
        }
      ],
      "stateMutability": "view",
      "type": "function"
    },
    {
      "inputs": [],
      "name": "getSavedInflationYear",
      "outputs": [
        {
          "internalType": "uint256",
          "name": "",
          "type": "uint256"
        }
      ],
      "stateMutability": "view",
      "type": "function"
    },
    {
      "inputs": [],
      "name": "getMaxSupply",
      "outputs": [
        {
          "internalType": "uint256",
          "name": "",
          "type": "uint256"
        }
      ],
      "stateMutability": "view",
      "type": "function"
    },
    {
      "inputs": [
        {
          "internalType": "uint256",
          "name": "index",
          "type": "uint256"
        }
      ],
      "name": "inflationPoint",
      "outputs": [
        {
          "internalType": "uint256",
          "name": "inflationPct",
          "type": "uint256"
        },
        {
          "internalType": "uint256",
          "name": "stakingPct",
          "type": "uint256"
        },
        {
          "internalType": "uint256",
          "name": "currentSupply",
          "type": "uint256"
        },
        {
          "internalType": "uint256",
          "name": "yearlySupply",
          "type": "uint256"
        },
        {
          "internalType": "uint256",
          "name": "date",
          "type": "uint256"
        }
      ],
      "stateMutability": "view",
      "type": "function"
    },
    {
      "inputs": [],
      "name": "countInflationPoints",
      "outputs": [
        {
          "internalType": "uint256",
          "name": "",
          "type": "uint256"
        }
      ],
      "stateMutability": "view",
      "type": "function"
    },
    {
      "inputs": [
        {
          "internalType": "address",
          "name": "to",
          "type": "address"
        },
        {
          "internalType": "uint256",
          "name": "amount",
          "type": "uint256"
        }
      ],
      "name": "withdraw",
      "outputs": [],
      "stateMutability": "nonpayable",
      "type": "function"
    },
    {
      "inputs": [
        {
          "internalType": "uint256",
          "name": "pct",
          "type": "uint256"
        }
      ],
      "name": "updateInflation",
      "outputs": [],
      "stateMutability": "nonpayable",
      "type": "function"
    }
  ],
  "bytecode": "0x600b60808181526a4369746164656c2e6f6e6560a81b60a0908152610100604052600360c0818152621610d560ea1b60e05292936200003f929062000133565b5080516200005590600490602084019062000133565b50506005805460ff191660121790555060006200007a6001600160e01b036200011816565b60058054610100600160a81b0319166101006001600160a01b03841690810291909117909155604051919250906000907f8be0079c531659141344cd1fd0a4f28419497f9722a3daafe3b4186f6b6457e0908290a3506005805460ff60a81b19169055600680546001600160a01b031916301781554260075566038d7ea4c6800060085562000112906001600160e01b036200011d16565b620001d5565b335b90565b6005805460ff191660ff92909216919091179055565b828054600181600116156101000203166002900490600052602060002090601f016020900481019282601f106200017657805160ff1916838001178555620001a6565b82800160010185558215620001a6579182015b82811115620001a657825182559160200191906001019062000189565b50620001b4929150620001b8565b5090565b6200011a91905b80821115620001b45760008155600101620001bf565b61187c80620001e56000396000f3fe608060405234801561001057600080fd5b50600436106101c45760003560e01c806370a08231116100f9578063c686781d11610097578063f2fde38b11610071578063f2fde38b14610354578063f3fef3a314610367578063f905c15a1461037a578063f9b7ce0214610382576101c4565b8063c686781d1461030a578063dd62ed3e1461031d578063f1474bd814610330576101c4565b806395d89b41116100d357806395d89b41146102d4578063a457c2d7146102dc578063a9059cbb146102ef578063ba1a681f14610302576101c4565b806370a08231146102b1578063715018a6146102c45780638da5cb5b146102cc576101c4565b8063395093511161016657806353d168e71161014057806353d168e71461028457806355b28b37146102995780635c975abb146102a157806369668fe9146102a9576101c4565b806339509351146102615780634b45aa12146102745780634c0f38c21461027c576101c4565b80631d0a67e1116101a25780631d0a67e11461021c57806323b872dd146102245780632ad3b3c314610237578063313ce5671461024c576101c4565b806306fdde03146101c9578063095ea7b3146101e757806318160ddd14610207575b600080fd5b6101d161038a565b6040516101de91906113c2565b60405180910390f35b6101fa6101f5366004611361565b610420565b6040516101de91906113b7565b61020f61043e565b6040516101de9190611784565b61020f610444565b6101fa610232366004611321565b61044a565b61024a61024536600461138b565b6104d7565b005b610254610523565b6040516101de91906117b0565b6101fa61026f366004611361565b61052c565b61020f610580565b61020f610586565b61028c61058c565b6040516101de91906113a3565b61020f61059b565b6101fa6105a1565b61020f6105b1565b61020f6102bf3660046112d2565b6105b7565b61024a6105ea565b61028c610674565b6101d1610688565b6101fa6102ea366004611361565b6106e9565b6101fa6102fd366004611361565b610757565b61020f61076b565b61024a61031836600461138b565b610771565b61020f61032b3660046112ed565b610828565b61034361033e36600461138b565b610853565b6040516101de95949392919061178d565b61024a6103623660046112d2565b61092d565b61024a610375366004611361565b6109f4565b61020f610a0c565b61024a610a12565b60038054604080516020601f60026000196101006001881615020190951694909404938401819004810282018101909252828152606093909290918301828280156104165780601f106103eb57610100808354040283529160200191610416565b820191906000526020600020905b8154815290600101906020018083116103f957829003601f168201915b5050505050905090565b600061043461042d610a9b565b8484610a9f565b5060015b92915050565b60025490565b600d5490565b6000610457848484610b53565b6104cd84610463610a9b565b6104c8856040518060600160405280602881526020016117fa602891396001600160a01b038a166000908152600160205260408120906104a1610a9b565b6001600160a01b03168152602081019190915260400160002054919063ffffffff610c7416565b610a9f565b5060019392505050565b60c881101580156104ea5750610bb88111155b61050f5760405162461bcd60e51b81526004016105069061159c565b60405180910390fd5b610517610ca0565b61052081611003565b50565b60055460ff1690565b6000610434610539610a9b565b846104c8856001600061054a610a9b565b6001600160a01b03908116825260208083019390935260409182016000908120918c16815292529020549063ffffffff6111e716565b600f5490565b600b5490565b6006546001600160a01b031681565b60095490565b600554600160a81b900460ff1690565b60075481565b60006104386105c583611213565b6001600160a01b0384166000908152602081905260409020549063ffffffff6111e716565b6105f2610a9b565b60055461010090046001600160a01b039081169116146106245760405162461bcd60e51b8152600401610506906115e1565b60055460405160009161010090046001600160a01b0316907f8be0079c531659141344cd1fd0a4f28419497f9722a3daafe3b4186f6b6457e0908390a360058054610100600160a81b0319169055565b60055461010090046001600160a01b031690565b60048054604080516020601f60026000196101006001881615020190951694909404938401819004810282018101909252828152606093909290918301828280156104165780601f106103eb57610100808354040283529160200191610416565b60006104346106f6610a9b565b846104c8856040518060600160405280602581526020016118226025913960016000610720610a9b565b6001600160a01b03908116825260208083019390935260409182016000908120918d1681529252902054919063ffffffff610c7416565b6000610434610764610a9b565b8484610b53565b60085481565b610779610a9b565b60055461010090046001600160a01b039081169116146107ab5760405162461bcd60e51b8152600401610506906115e1565b60095415806107bb575042600954115b6107d75760405162461bcd60e51b815260040161050690611692565b4281116107f65760405162461bcd60e51b815260040161050690611458565b6009819055600d819055600f805482919060009061081057fe5b90600052602060002090600502016004018190555050565b6001600160a01b03918216600090815260016020908152604080832093909416825291909152205490565b6000806000806000600f80549050861061087f5760405162461bcd60e51b81526004016105069061155a565b600f868154811061088c57fe5b9060005260206000209060050201600001549450600f86815481106108ad57fe5b9060005260206000209060050201600101549350600f86815481106108ce57fe5b9060005260206000209060050201600201549250600f86815481106108ef57fe5b9060005260206000209060050201600301549150600f868154811061091057fe5b906000526020600020906005020160040154905091939590929450565b610935610a9b565b60055461010090046001600160a01b039081169116146109675760405162461bcd60e51b8152600401610506906115e1565b6001600160a01b03811661098d5760405162461bcd60e51b81526004016105069061149b565b6005546040516001600160a01b0380841692610100900416907f8be0079c531659141344cd1fd0a4f28419497f9722a3daafe3b4186f6b6457e090600090a3600580546001600160a01b0390921661010002610100600160a81b0319909216919091179055565b6109fc610ca0565b610a0860018383610b53565b5050565b60075490565b610a1a610a9b565b60055461010090046001600160a01b03908116911614610a4c5760405162461bcd60e51b8152600401610506906115e1565b60095415610a6c5760405162461bcd60e51b815260040161050690611692565b426009819055600d819055600f8054600090610a8457fe5b906000526020600020906005020160040181905550565b3390565b6001600160a01b038316610ac55760405162461bcd60e51b8152600401610506906116c9565b6001600160a01b038216610aeb5760405162461bcd60e51b8152600401610506906114e1565b6001600160a01b0380841660008181526001602090815260408083209487168084529490915290819020849055517f8c5be1e5ebec7d5bd14f71427d1e84f3dd0314c0f7b2291e5b200ac8c7c3b92590610b46908590611784565b60405180910390a3505050565b6001600160a01b038316610b795760405162461bcd60e51b81526004016105069061164d565b6001600160a01b038216610b9f5760405162461bcd60e51b815260040161050690611415565b610baa838383611219565b610bed816040518060600160405280602681526020016117d4602691396001600160a01b038616600090815260208190526040902054919063ffffffff610c7416565b6001600160a01b038085166000908152602081905260408082209390935590841681522054610c22908263ffffffff6111e716565b6001600160a01b0380841660008181526020819052604090819020939093559151908516907fddf252ad1be2c89b69c2b068fc378daa952ba7f163c4a11628f55a4df523b3ef90610b46908590611784565b60008184841115610c985760405162461bcd60e51b815260040161050691906113c2565b505050900390565b600c54600b541415610cb157611001565b600d5442036301e13380811015610cc85750611001565b610cd061128c565b600f80546000198101908110610ce257fe5b600091825260208083206040805160a0810182526005909402909101805480855260018201549385019390935260028101549184019190915260038101546060840152600401546080830152909250905b6301e133808404811015610ff6576301e13380600d6000828254019250508190555060006127106301e133808560800151600d540385600e54020281610d7557fe5b0481610d7d57fe5b049050600b54600c54820110610ea957610d9561126f565b600b54600c8190556040805160a08101825283815260208881015190820190815291810183815260608201938452600d5460808301908152600f805460018101825560009190915292517f8d1108e10bcb7c27dddfc02ed9d693a074039d026cf4ea4240b40f7d581ac80260059094029384015592517f8d1108e10bcb7c27dddfc02ed9d693a074039d026cf4ea4240b40f7d581ac803830155517f8d1108e10bcb7c27dddfc02ed9d693a074039d026cf4ea4240b40f7d581ac80482015591517f8d1108e10bcb7c27dddfc02ed9d693a074039d026cf4ea4240b40f7d581ac805830155517f8d1108e10bcb7c27dddfc02ed9d693a074039d026cf4ea4240b40f7d581ac806909101559250610ff69050565b600c80548201905560c88314610ee657603283118015610ecc575060c860328403115b15610ed8576032830392505b60c8831015610ee65760c892505b506040805160a081018252838152602085810151908201908152600c5492820183815260608301938452600d5460808401908152600f80546001808201835560009290925294517f8d1108e10bcb7c27dddfc02ed9d693a074039d026cf4ea4240b40f7d581ac80260059096029586015592517f8d1108e10bcb7c27dddfc02ed9d693a074039d026cf4ea4240b40f7d581ac80385015590517f8d1108e10bcb7c27dddfc02ed9d693a074039d026cf4ea4240b40f7d581ac80484015592517f8d1108e10bcb7c27dddfc02ed9d693a074039d026cf4ea4240b40f7d581ac80583015591517f8d1108e10bcb7c27dddfc02ed9d693a074039d026cf4ea4240b40f7d581ac8069091015501610d33565b5050600c54600e5550505b565b600c54600b54141561101457600080fd5b61101c61128c565b600f8054600019810190811061102e57fe5b90600052602060002090600502016040518060a0016040529081600082015481526020016001820154815260200160028201548152602001600382015481526020016004820154815250509050600081608001514203905062278d0081101561109657600080fd5b8151600e54612710916301e133809102830204600c80549290910490910190556110be61126f565b8311156110dd5760405162461bcd60e51b81526004016105069061170d565b506040805160a081018252928352602091820151918301918252600c54908301908152600e54606084019081524260808501908152600f805460018101825560009190915294517f8d1108e10bcb7c27dddfc02ed9d693a074039d026cf4ea4240b40f7d581ac80260059096029586015592517f8d1108e10bcb7c27dddfc02ed9d693a074039d026cf4ea4240b40f7d581ac80385015590517f8d1108e10bcb7c27dddfc02ed9d693a074039d026cf4ea4240b40f7d581ac804840155517f8d1108e10bcb7c27dddfc02ed9d693a074039d026cf4ea4240b40f7d581ac805830155517f8d1108e10bcb7c27dddfc02ed9d693a074039d026cf4ea4240b40f7d581ac80690910155565b60008282018381101561120c5760405162461bcd60e51b815260040161050690611523565b9392505050565b50600090565b61122483838361126a565b6103e833116112455760405162461bcd60e51b815260040161050690611616565b61124d6105a1565b1561126a5760405162461bcd60e51b81526004016105069061173a565b505050565b6000600b54600c54600b5403612710028161128657fe5b04905090565b6040518060a0016040528060008152602001600081526020016000815260200160008152602001600081525090565b80356001600160a01b038116811461043857600080fd5b6000602082840312156112e3578081fd5b61120c83836112bb565b600080604083850312156112ff578081fd5b61130984846112bb565b915061131884602085016112bb565b90509250929050565b600080600060608486031215611335578081fd5b8335611340816117be565b92506020840135611350816117be565b929592945050506040919091013590565b60008060408385031215611373578182fd5b61137d84846112bb565b946020939093013593505050565b60006020828403121561139c578081fd5b5035919050565b6001600160a01b0391909116815260200190565b901515815260200190565b6000602080835283518082850152825b818110156113ee578581018301518582016040015282016113d2565b818111156113ff5783604083870101525b50601f01601f1916929092016040019392505050565b60208082526023908201527f45524332303a207472616e7366657220746f20746865207a65726f206164647260408201526265737360e81b606082015260800190565b60208082526023908201527f5374617274696e672064617465206d75737420626520696e207468652066757460408201526275726560e81b606082015260800190565b60208082526026908201527f4f776e61626c653a206e6577206f776e657220697320746865207a65726f206160408201526564647265737360d01b606082015260800190565b60208082526022908201527f45524332303a20617070726f766520746f20746865207a65726f206164647265604082015261737360f01b606082015260800190565b6020808252601b908201527f536166654d6174683a206164646974696f6e206f766572666c6f770000000000604082015260600190565b60208082526022908201527f4369746164656c496e666c6174696f6e3a20756e657870656374656420696e646040820152610caf60f31b606082015260800190565b60208082526025908201527f50657263656e74616765206d757374206265206265747765656e20322520616e604082015264642033302560d81b606082015260800190565b6020808252818101527f4f776e61626c653a2063616c6c6572206973206e6f7420746865206f776e6572604082015260600190565b60208082526019908201527f4369746164656c546f6b656e3a2066616b652073656e64657200000000000000604082015260600190565b60208082526025908201527f45524332303a207472616e736665722066726f6d20746865207a65726f206164604082015264647265737360d81b606082015260800190565b6020808252601c908201527f496e666c6174696f6e20697320616c7265616479207374617274656400000000604082015260600190565b60208082526024908201527f45524332303a20617070726f76652066726f6d20746865207a65726f206164646040820152637265737360e01b606082015260800190565b602080825260139082015272546f6f20686967682070657263656e7461676560681b604082015260600190565b6020808252602a908201527f45524332305061757361626c653a20746f6b656e207472616e736665722077686040820152691a5b19481c185d5cd95960b21b606082015260800190565b90815260200190565b948552602085019390935260408401919091526060830152608082015260a00190565b60ff91909116815260200190565b6001600160a01b038116811461052057600080fdfe45524332303a207472616e7366657220616d6f756e7420657863656564732062616c616e636545524332303a207472616e7366657220616d6f756e74206578636565647320616c6c6f77616e636545524332303a2064656372656173656420616c6c6f77616e63652062656c6f77207a65726fa26469706673582212209f1673882908db87f06c668f713f8ca3c5eda7bcaf238c1b68aba1ee6a51052f64736f6c63430006020033",
  "source": "// SPDX-License-Identifier: GPL-3.0\npragma solidity 0.6.2;\npragma experimental ABIEncoderV2;\n\nimport \"./CitadelToken.sol\";\n\n\ncontract CitadelInflation is CitadelToken {\n\n    uint internal startInflationDate;\n\n    bool private _isInitialized;\n    //uint private _otherSum;\n    //uint private _budgetAmount;\n    uint private _maxSupply;\n    uint private _unlockedSupply;\n    uint private _savedInflationYear;\n    uint private _yearUnlockedBudget;\n\n    struct InflationValues {\n        uint inflationPct;\n        uint stakingPct;\n        uint currentSupply;\n        uint yearlySupply;\n        uint date;\n    }\n\n    InflationValues[] _inflationHistory;\n\n    event CitadelInflationRatio(uint inflationPct, uint stakingPct);\n\n    function startInflation() external onlyOwner {\n        require (startInflationDate == 0, \"Inflation is already started\");\n        startInflationDate = block.timestamp;\n        _savedInflationYear = startInflationDate;\n        _inflationHistory[0].date = _savedInflationYear;\n    }\n\n    function startInflationTo(uint date) external onlyOwner {\n        require (startInflationDate == 0 || startInflationDate > block.timestamp, \"Inflation is already started\");\n        require (date > block.timestamp, \"Starting date must be in the future\");\n        startInflationDate = date;\n        _savedInflationYear = startInflationDate;\n        _inflationHistory[0].date = _savedInflationYear;\n    }\n\n    function getInflationStartDate() external view\n    returns (uint) {\n        return startInflationDate;\n    }\n\n    function getSavedInflationYear() external view\n    returns (uint) {\n        return _savedInflationYear;\n    }\n\n    function getMaxSupply() external view\n    returns (uint) {\n        return _maxSupply;\n    }\n\n    /*function calc() external view\n    returns (uint) {\n\n    }*/\n\n    /*function yearInflationEmission(uint timestamp) external view\n    returns (uint) {\n        (uint yem,) = _inflationEmission(_lifeYears(timestamp));\n        return yem;\n    }\n\n    function inflationEmission(uint lastYears) external pure\n    returns (uint year, uint emission) {\n        (year, emission) = _inflationEmission(lastYears);\n    }\n\n    function _inflationEmission(uint lastYears) internal pure\n    returns (uint year, uint emission) {\n        if (lastYears > 22) return (0, 0);\n        uint circulatingSupply = 100000000;\n        uint emissionPool = 600000000;\n        // for 22 years\n        for(uint y = 0; y <= lastYears+1; y++){\n            if(y > 0){\n                year = _countEmission(emissionPool, circulatingSupply);\n                emissionPool -= year;\n                emission += year;\n                circulatingSupply += year;\n            }\n            // team unlock + private sale unlock\n            if(y == 1) circulatingSupply += 15000000 + 15000000;\n            if(y == 2) circulatingSupply += 37500000 + 20000000;\n            if(y == 3) circulatingSupply += 45000000 + 30000000;\n            if(y == 4) circulatingSupply += 52500000 + 35000000;\n            // Foundation Fund unlock\n            if(y < 5) circulatingSupply += 10000000;\n        }\n        year = year.mul(1e6);\n        emission = emission.mul(1e6);\n    }*/\n\n    function _countEmission(uint emissionPool, uint circulatingSupply) private pure\n    returns (uint){\n        if(emissionPool < circulatingSupply * 2 / 100){\n            return emissionPool;\n        }else{\n            // choose max amount\n            uint a = emissionPool / 10;\n            uint b = circulatingSupply * 2 / 100;\n            return a > b ? a : b;\n        }\n    }\n\n    function inflationPoint(uint index) external view\n    returns (\n        uint inflationPct,\n        uint stakingPct,\n        uint currentSupply,\n        uint yearlySupply,\n        uint date\n    ) {\n        require(index < _inflationHistory.length, \"CitadelInflation: unexpected index\");\n        inflationPct = _inflationHistory[index].inflationPct;\n        stakingPct = _inflationHistory[index].stakingPct;\n        currentSupply = _inflationHistory[index].currentSupply;\n        yearlySupply = _inflationHistory[index].yearlySupply;\n        date = _inflationHistory[index].date;\n    }\n\n    /*function inflationPoint(uint index) external view\n    returns (InflationValues memory) {\n        require(index < _inflationHistory.length, \"CitadelInflation: unexpected index\");\n        return _inflationHistory[index];\n    }*/\n\n    function countInflationPoints() external view\n    returns (uint) {\n        return _inflationHistory.length;\n    }\n\n    function _changeInflationRatio(uint stakingPct, uint vestingPct) internal {\n        require((stakingPct + vestingPct) == 100, \"CitadelInflation: incorrect percentages\");\n\n        //uint256 stakingAmount = _budgetAmount.mul(stakingPct).div(100);\n        //uint256 vestingAmount = _budgetAmount.sub(stakingAmount);\n        /*if (stakingPct < _stakingPct) {\n            require(stakingAmount >= _stakingUsed, \"CitadelInflation: new staking budget less than already used\");\n            uint256 diff = _stakingAmount.sub(stakingAmount);\n            if (diff > 0) _transfer(_addressStaking, _addressVesting, diff);\n        } else {\n            require(vestingAmount >= _vestingUsed, \"CitadelInflation: new vesting budget less than already used\");\n            uint256 diff = _vestingAmount.sub(vestingAmount);\n            if (diff > 0) _transfer(_addressVesting, _addressStaking, diff);\n        }*/\n        //_stakingPct = stakingPct;\n        //_stakingAmount = stakingAmount;\n        //_vestingPct = vestingPct;\n        //_vestingAmount = vestingAmount;\n\n        InflationValues memory last = _inflationHistory[_inflationHistory.length - 1];\n\n        emit CitadelInflationRatio(last.inflationPct, stakingPct);\n        _inflationHistory.push(InflationValues(last.inflationPct, stakingPct, _unlockedSupply, _yearUnlockedBudget, block.timestamp));\n        _updatedInflationRatio(vestingPct);\n    }\n\n    // add checking address of contract\n    function withdraw(address to, uint amount) external {\n        _makeInflationSnapshot();\n        _transfer(address(1), to, amount);\n    }\n\n    // add checking address of contract\n    function updateInflation(uint pct) external {\n        require(pct >= 200 && pct <= 3000, \"Percentage must be between 2% and 30%\");\n        _makeInflationSnapshot();\n        _updateInflation(pct);\n    }\n\n    function _updateInflation(uint pct) private {\n        require(_maxSupply != _unlockedSupply);\n\n        InflationValues memory lastPoint = _inflationHistory[_inflationHistory.length - 1];\n        uint spentTime = block.timestamp - lastPoint.date;\n        require(spentTime >= 30 days);\n\n        _unlockedSupply += _yearUnlockedBudget * lastPoint.inflationPct * spentTime / 365 days / 10000;\n\n        require(pct <= _restInflPct(), \"Too high percentage\");\n\n        _inflationHistory.push(InflationValues(pct, lastPoint.stakingPct, _unlockedSupply, _yearUnlockedBudget, block.timestamp));\n    }\n\n    function _makeInflationSnapshot() private {\n        if (_maxSupply == _unlockedSupply) return;\n\n        uint spentTime = block.timestamp - _savedInflationYear;\n        if (spentTime < 365 days) return;\n\n        InflationValues memory lastPoint = _inflationHistory[_inflationHistory.length - 1];\n\n        uint infl = lastPoint.inflationPct;\n        for (uint y = 0; y < spentTime / 365 days; y++) {\n            _savedInflationYear += 365 days;\n            uint updateUnlock = _yearUnlockedBudget * infl * (_savedInflationYear - lastPoint.date) / 365 days / 10000;\n            if (updateUnlock + _unlockedSupply >= _maxSupply) {\n                infl = _restInflPct();\n                _unlockedSupply = _maxSupply;\n                _inflationHistory.push(InflationValues(infl, lastPoint.stakingPct, _unlockedSupply, _unlockedSupply, _savedInflationYear));\n                break;\n            } else {\n                _unlockedSupply += updateUnlock;\n                if (infl != 200) {\n                    if (infl > 50 && infl - 50 > 200) infl -= 50; // -0.5% each year\n                    if (infl < 200) infl = 200; // 2% is minimum\n                }\n                _inflationHistory.push(InflationValues(infl, lastPoint.stakingPct, _unlockedSupply, _unlockedSupply, _savedInflationYear));\n            }\n        }\n        _yearUnlockedBudget = _unlockedSupply;\n    }\n\n    function _restInflPct() private view returns (uint) {\n        return (_maxSupply - _unlockedSupply) * 10000 / _maxSupply;\n    }\n\n    function _updatedInflationRatio(uint vestingAmount) internal virtual { }\n\n    function _initInflation(\n        uint otherSum,\n        uint totalAmount,\n        uint inflationPct,\n        uint stakingPct,\n        uint vestingPct // has to be removed\n    ) internal {\n\n        require(!_isInitialized);\n        require((stakingPct + vestingPct) == 100, \"CitadelInflation: incorrect percentages\");\n\n        _isInitialized = true;\n\n        //_otherSum = otherSum;\n        //_budgetAmount = totalAmount;\n\n        _maxSupply = otherSum + totalAmount;\n        _unlockedSupply = otherSum;\n        _yearUnlockedBudget = otherSum;\n\n        emit CitadelInflationRatio(inflationPct, stakingPct);\n        _inflationHistory.push(InflationValues(inflationPct, stakingPct, _unlockedSupply, _yearUnlockedBudget, block.timestamp));\n\n    }\n\n}\n",
  "sourcePath": "/home/pirat/Desktop/DAO/contracts/Token/CitadelInflation.sol",
  "compiler": {
    "name": "solc",
    "version": "0.6.2+commit.bacdbe57.Emscripten.clang"
  },
  "schemaVersion": "3.2.5",
  "updatedAt": "2021-06-01T14:37:58.638Z",
  "devdoc": {
    "methods": {
      "allowance(address,address)": {
        "details": "See {IERC20-allowance}."
      },
      "approve(address,uint256)": {
        "details": "See {IERC20-approve}.     * Requirements:     * - `spender` cannot be the zero address."
      },
      "balanceOf(address)": {
        "details": "See {IERC20-balanceOf}."
      },
      "decimals()": {
        "details": "Returns the number of decimals used to get its user representation. For example, if `decimals` equals `2`, a balance of `505` tokens should be displayed to a user as `5,05` (`505 / 10 ** 2`).     * Tokens usually opt for a value of 18, imitating the relationship between Ether and Wei. This is the value {ERC20} uses, unless {_setupDecimals} is called.     * NOTE: This information is only used for _display_ purposes: it in no way affects any of the arithmetic of the contract, including {IERC20-balanceOf} and {IERC20-transfer}."
      },
      "decreaseAllowance(address,uint256)": {
        "details": "Atomically decreases the allowance granted to `spender` by the caller.     * This is an alternative to {approve} that can be used as a mitigation for problems described in {IERC20-approve}.     * Emits an {Approval} event indicating the updated allowance.     * Requirements:     * - `spender` cannot be the zero address. - `spender` must have allowance for the caller of at least `subtractedValue`."
      },
      "increaseAllowance(address,uint256)": {
        "details": "Atomically increases the allowance granted to `spender` by the caller.     * This is an alternative to {approve} that can be used as a mitigation for problems described in {IERC20-approve}.     * Emits an {Approval} event indicating the updated allowance.     * Requirements:     * - `spender` cannot be the zero address."
      },
      "name()": {
        "details": "Returns the name of the token."
      },
      "owner()": {
        "details": "Returns the address of the current owner."
      },
      "paused()": {
        "details": "Returns true if the contract is paused, and false otherwise."
      },
      "renounceOwnership()": {
        "details": "Leaves the contract without owner. It will not be possible to call `onlyOwner` functions anymore. Can only be called by the current owner.     * NOTE: Renouncing ownership will leave the contract without an owner, thereby removing any functionality that is only available to the owner."
      },
      "symbol()": {
        "details": "Returns the symbol of the token, usually a shorter version of the name."
      },
      "totalSupply()": {
        "details": "See {IERC20-totalSupply}."
      },
      "transfer(address,uint256)": {
        "details": "See {IERC20-transfer}.     * Requirements:     * - `recipient` cannot be the zero address. - the caller must have a balance of at least `amount`."
      },
      "transferFrom(address,address,uint256)": {
        "details": "See {IERC20-transferFrom}.     * Emits an {Approval} event indicating the updated allowance. This is not required by the EIP. See the note at the beginning of {ERC20};     * Requirements: - `sender` and `recipient` cannot be the zero address. - `sender` must have a balance of at least `amount`. - the caller must have allowance for ``sender``'s tokens of at least `amount`."
      },
      "transferOwnership(address)": {
        "details": "Transfers ownership of the contract to a new account (`newOwner`). Can only be called by the current owner."
      }
    }
  },
  "userdoc": {
    "methods": {}
  }
}