{
  "contractName": "Managing",
  "abi": [
    {
      "inputs": [],
      "stateMutability": "nonpayable",
      "type": "constructor"
    },
    {
      "anonymous": false,
      "inputs": [
        {
          "indexed": true,
          "internalType": "address",
          "name": "previousOwner",
          "type": "address"
        },
        {
          "indexed": true,
          "internalType": "address",
          "name": "newOwner",
          "type": "address"
        }
      ],
      "name": "OwnershipTransferred",
      "type": "event"
    },
    {
      "anonymous": false,
      "inputs": [
        {
          "indexed": true,
          "internalType": "bytes32",
          "name": "role",
          "type": "bytes32"
        },
        {
          "indexed": true,
          "internalType": "bytes32",
          "name": "previousAdminRole",
          "type": "bytes32"
        },
        {
          "indexed": true,
          "internalType": "bytes32",
          "name": "newAdminRole",
          "type": "bytes32"
        }
      ],
      "name": "RoleAdminChanged",
      "type": "event"
    },
    {
      "anonymous": false,
      "inputs": [
        {
          "indexed": true,
          "internalType": "bytes32",
          "name": "role",
          "type": "bytes32"
        },
        {
          "indexed": true,
          "internalType": "address",
          "name": "account",
          "type": "address"
        },
        {
          "indexed": true,
          "internalType": "address",
          "name": "sender",
          "type": "address"
        }
      ],
      "name": "RoleGranted",
      "type": "event"
    },
    {
      "anonymous": false,
      "inputs": [
        {
          "indexed": true,
          "internalType": "bytes32",
          "name": "role",
          "type": "bytes32"
        },
        {
          "indexed": true,
          "internalType": "address",
          "name": "account",
          "type": "address"
        },
        {
          "indexed": true,
          "internalType": "address",
          "name": "sender",
          "type": "address"
        }
      ],
      "name": "RoleRevoked",
      "type": "event"
    },
    {
      "inputs": [],
      "name": "ADMIN_ROLE",
      "outputs": [
        {
          "internalType": "bytes32",
          "name": "",
          "type": "bytes32"
        }
      ],
      "stateMutability": "view",
      "type": "function"
    },
    {
      "inputs": [],
      "name": "DEFAULT_ADMIN_ROLE",
      "outputs": [
        {
          "internalType": "bytes32",
          "name": "",
          "type": "bytes32"
        }
      ],
      "stateMutability": "view",
      "type": "function"
    },
    {
      "inputs": [],
      "name": "VOTING_ROLE",
      "outputs": [
        {
          "internalType": "bytes32",
          "name": "",
          "type": "bytes32"
        }
      ],
      "stateMutability": "view",
      "type": "function"
    },
    {
      "inputs": [
        {
          "internalType": "bytes32",
          "name": "role",
          "type": "bytes32"
        }
      ],
      "name": "getRoleAdmin",
      "outputs": [
        {
          "internalType": "bytes32",
          "name": "",
          "type": "bytes32"
        }
      ],
      "stateMutability": "view",
      "type": "function"
    },
    {
      "inputs": [
        {
          "internalType": "bytes32",
          "name": "role",
          "type": "bytes32"
        },
        {
          "internalType": "uint256",
          "name": "index",
          "type": "uint256"
        }
      ],
      "name": "getRoleMember",
      "outputs": [
        {
          "internalType": "address",
          "name": "",
          "type": "address"
        }
      ],
      "stateMutability": "view",
      "type": "function"
    },
    {
      "inputs": [
        {
          "internalType": "bytes32",
          "name": "role",
          "type": "bytes32"
        }
      ],
      "name": "getRoleMemberCount",
      "outputs": [
        {
          "internalType": "uint256",
          "name": "",
          "type": "uint256"
        }
      ],
      "stateMutability": "view",
      "type": "function"
    },
    {
      "inputs": [
        {
          "internalType": "bytes32",
          "name": "role",
          "type": "bytes32"
        },
        {
          "internalType": "address",
          "name": "account",
          "type": "address"
        }
      ],
      "name": "grantRole",
      "outputs": [],
      "stateMutability": "nonpayable",
      "type": "function"
    },
    {
      "inputs": [
        {
          "internalType": "bytes32",
          "name": "role",
          "type": "bytes32"
        },
        {
          "internalType": "address",
          "name": "account",
          "type": "address"
        }
      ],
      "name": "hasRole",
      "outputs": [
        {
          "internalType": "bool",
          "name": "",
          "type": "bool"
        }
      ],
      "stateMutability": "view",
      "type": "function"
    },
    {
      "inputs": [],
      "name": "owner",
      "outputs": [
        {
          "internalType": "address",
          "name": "",
          "type": "address"
        }
      ],
      "stateMutability": "view",
      "type": "function"
    },
    {
      "inputs": [],
      "name": "renounceOwnership",
      "outputs": [],
      "stateMutability": "nonpayable",
      "type": "function"
    },
    {
      "inputs": [
        {
          "internalType": "bytes32",
          "name": "role",
          "type": "bytes32"
        },
        {
          "internalType": "address",
          "name": "account",
          "type": "address"
        }
      ],
      "name": "renounceRole",
      "outputs": [],
      "stateMutability": "nonpayable",
      "type": "function"
    },
    {
      "inputs": [
        {
          "internalType": "bytes32",
          "name": "role",
          "type": "bytes32"
        },
        {
          "internalType": "address",
          "name": "account",
          "type": "address"
        }
      ],
      "name": "revokeRole",
      "outputs": [],
      "stateMutability": "nonpayable",
      "type": "function"
    },
    {
      "inputs": [
        {
          "internalType": "address",
          "name": "newOwner",
          "type": "address"
        }
      ],
      "name": "transferOwnership",
      "outputs": [],
      "stateMutability": "nonpayable",
      "type": "function"
    },
    {
      "inputs": [
        {
          "internalType": "address",
          "name": "account",
          "type": "address"
        }
      ],
      "name": "addAdmin",
      "outputs": [],
      "stateMutability": "nonpayable",
      "type": "function"
    }
  ],
  "bytecode": "0x608060405234801561001057600080fd5b5060006100246001600160e01b0361010416565b600080546001600160a01b0319166001600160a01b0383169081178255604051929350917f8be0079c531659141344cd1fd0a4f28419497f9722a3daafe3b4186f6b6457e0908290a350604080516941444d494e5f524f4c4560b01b808252825191829003600a908101832091835292519182900390920190206100b191906001600160e01b0361010816565b604080516a564f54494e475f524f4c4560a81b8152815190819003600b0181206941444d494e5f524f4c4560b01b8252915190819003600a0190206100ff91906001600160e01b0361010816565b61015a565b3390565b600082815260016020526040808220600201549051839285917fbd79b86ffe0ab8e8776151514217cd7cacd52c909f66475c3af44e129f0b00ff9190a460009182526001602052604090912060020155565b610acc806101696000396000f3fe608060405234801561001057600080fd5b50600436106100ea5760003560e01c80638da5cb5b1161008c578063a217fddf11610066578063a217fddf1461023d578063ca15c87314610245578063d547741f14610262578063f2fde38b1461028e576100ea565b80638da5cb5b146101b65780639010d07c146101da57806391d14854146101fd576100ea565b806336568abe116100c857806336568abe146101545780637048027514610180578063715018a6146101a657806375b238fc146101ae576100ea565b806312a70f0b146100ef578063248a9ca3146101095780632f2ff15d14610126575b600080fd5b6100f76102b4565b60408051918252519081900360200190f35b6100f76004803603602081101561011f57600080fd5b50356102d7565b6101526004803603604081101561013c57600080fd5b50803590602001356001600160a01b03166102ec565b005b6101526004803603604081101561016a57600080fd5b50803590602001356001600160a01b0316610358565b6101526004803603602081101561019657600080fd5b50356001600160a01b03166103b9565b61015261044f565b6100f7610503565b6101be610525565b604080516001600160a01b039092168252519081900360200190f35b6101be600480360360408110156101f057600080fd5b5080359060200135610534565b6102296004803603604081101561021357600080fd5b50803590602001356001600160a01b031661055b565b604080519115158252519081900360200190f35b6100f7610579565b6100f76004803603602081101561025b57600080fd5b503561057e565b6101526004803603604081101561027857600080fd5b50803590602001356001600160a01b0316610595565b610152600480360360208110156102a457600080fd5b50356001600160a01b03166105ee565b604080516a564f54494e475f524f4c4560a81b8152905190819003600b01902081565b60009081526001602052604090206002015490565b60008281526001602052604090206002015461030f9061030a6106f8565b61055b565b61034a5760405162461bcd60e51b815260040180806020018281038252602f8152602001806109e3602f913960400191505060405180910390fd5b61035482826106fc565b5050565b6103606106f8565b6001600160a01b0316816001600160a01b0316146103af5760405162461bcd60e51b815260040180806020018281038252602f815260200180610a68602f913960400191505060405180910390fd5b610354828261076b565b6103c16106f8565b6000546001600160a01b03908116911614610423576040805162461bcd60e51b815260206004820181905260248201527f4f776e61626c653a2063616c6c6572206973206e6f7420746865206f776e6572604482015290519081900360640190fd5b604080516941444d494e5f524f4c4560b01b8152905190819003600a01902061044c908261034a565b50565b6104576106f8565b6000546001600160a01b039081169116146104b9576040805162461bcd60e51b815260206004820181905260248201527f4f776e61626c653a2063616c6c6572206973206e6f7420746865206f776e6572604482015290519081900360640190fd5b600080546040516001600160a01b03909116907f8be0079c531659141344cd1fd0a4f28419497f9722a3daafe3b4186f6b6457e0908390a3600080546001600160a01b0319169055565b604080516941444d494e5f524f4c4560b01b8152905190819003600a01902081565b6000546001600160a01b031690565b6000828152600160205260408120610552908363ffffffff6107da16565b90505b92915050565b6000828152600160205260408120610552908363ffffffff6107e616565b600081565b6000818152600160205260408120610555906107fb565b6000828152600160205260409020600201546105b39061030a6106f8565b6103af5760405162461bcd60e51b8152600401808060200182810382526030815260200180610a386030913960400191505060405180910390fd5b6105f66106f8565b6000546001600160a01b03908116911614610658576040805162461bcd60e51b815260206004820181905260248201527f4f776e61626c653a2063616c6c6572206973206e6f7420746865206f776e6572604482015290519081900360640190fd5b6001600160a01b03811661069d5760405162461bcd60e51b8152600401808060200182810382526026815260200180610a126026913960400191505060405180910390fd5b600080546040516001600160a01b03808516939216917f8be0079c531659141344cd1fd0a4f28419497f9722a3daafe3b4186f6b6457e091a3600080546001600160a01b0319166001600160a01b0392909216919091179055565b3390565b600082815260016020526040902061071a908263ffffffff61080616565b15610354576107276106f8565b6001600160a01b0316816001600160a01b0316837f2f8788117e7eff1d82e926ec794901d17c78024a50270940304540a733656f0d60405160405180910390a45050565b6000828152600160205260409020610789908263ffffffff61081b16565b15610354576107966106f8565b6001600160a01b0316816001600160a01b0316837ff6391f5c32d9c69d2a47ea670b442974b53935d1edc7fd64eb21e047a839171b60405160405180910390a45050565b60006105528383610830565b6000610552836001600160a01b038416610894565b6000610555826108ac565b6000610552836001600160a01b0384166108b0565b6000610552836001600160a01b0384166108fa565b815460009082106108725760405162461bcd60e51b81526004018080602001828103825260228152602001806109c16022913960400191505060405180910390fd5b82600001828154811061088157fe5b9060005260206000200154905092915050565b60009081526001919091016020526040902054151590565b5490565b60006108bc8383610894565b6108f257508154600181810184556000848152602080822090930184905584548482528286019093526040902091909155610555565b506000610555565b600081815260018301602052604081205480156109b6578354600019808301919081019060009087908390811061092d57fe5b906000526020600020015490508087600001848154811061094a57fe5b60009182526020808320909101929092558281526001898101909252604090209084019055865487908061097a57fe5b60019003818190600052602060002001600090559055866001016000878152602001908152602001600020600090556001945050505050610555565b600091505061055556fe456e756d657261626c655365743a20696e646578206f7574206f6620626f756e6473416363657373436f6e74726f6c3a2073656e646572206d75737420626520616e2061646d696e20746f206772616e744f776e61626c653a206e6577206f776e657220697320746865207a65726f2061646472657373416363657373436f6e74726f6c3a2073656e646572206d75737420626520616e2061646d696e20746f207265766f6b65416363657373436f6e74726f6c3a2063616e206f6e6c792072656e6f756e636520726f6c657320666f722073656c66a2646970667358221220d62bc01bf35c0261ea9ef3fcb60a575bec3cf38ab447a0b5762aee412662ed6564736f6c63430006020033",
  "source": "// SPDX-License-Identifier: GPL-3.0\npragma solidity 0.6.2;\n\nimport \"../../node_modules/openzeppelin-solidity/contracts/access/AccessControl.sol\";\nimport \"../../node_modules/openzeppelin-solidity/contracts/access/Ownable.sol\";\nimport \"../ICitadelDaoTransport.sol\";\n\n\ncontract Managing is Ownable, AccessControl {\n\n    ICitadelDaoTransport internal _Token;\n\n    bytes32 public constant ADMIN_ROLE = keccak256(\"ADMIN_ROLE\");\n    bytes32 public constant VOTING_ROLE = keccak256(\"VOTING_ROLE\");\n\n    constructor () public {\n        _setRoleAdmin(ADMIN_ROLE, ADMIN_ROLE);\n        _setRoleAdmin(VOTING_ROLE, ADMIN_ROLE);\n    }\n\n    function addAdmin(address account) public onlyOwner {\n        _setupRole(ADMIN_ROLE, account);\n    }\n\n    function _timestamp() internal virtual view returns (uint) {\n        return block.timestamp;\n    }\n\n}\n",
  "sourcePath": "/home/pirat/Desktop/DAO/contracts/DAO/Managing.sol",
  "compiler": {
    "name": "solc",
    "version": "0.6.2+commit.bacdbe57.Emscripten.clang"
  },
  "schemaVersion": "3.2.5",
  "updatedAt": "2021-06-17T16:05:32.781Z",
  "devdoc": {
    "methods": {
      "getRoleAdmin(bytes32)": {
        "details": "Returns the admin role that controls `role`. See {grantRole} and {revokeRole}.     * To change a role's admin, use {_setRoleAdmin}."
      },
      "getRoleMember(bytes32,uint256)": {
        "details": "Returns one of the accounts that have `role`. `index` must be a value between 0 and {getRoleMemberCount}, non-inclusive.     * Role bearers are not sorted in any particular way, and their ordering may change at any point.     * WARNING: When using {getRoleMember} and {getRoleMemberCount}, make sure you perform all queries on the same block. See the following https://forum.openzeppelin.com/t/iterating-over-elements-on-enumerableset-in-openzeppelin-contracts/2296[forum post] for more information."
      },
      "getRoleMemberCount(bytes32)": {
        "details": "Returns the number of accounts that have `role`. Can be used together with {getRoleMember} to enumerate all bearers of a role."
      },
      "grantRole(bytes32,address)": {
        "details": "Grants `role` to `account`.     * If `account` had not been already granted `role`, emits a {RoleGranted} event.     * Requirements:     * - the caller must have ``role``'s admin role."
      },
      "hasRole(bytes32,address)": {
        "details": "Returns `true` if `account` has been granted `role`."
      },
      "owner()": {
        "details": "Returns the address of the current owner."
      },
      "renounceOwnership()": {
        "details": "Leaves the contract without owner. It will not be possible to call `onlyOwner` functions anymore. Can only be called by the current owner.     * NOTE: Renouncing ownership will leave the contract without an owner, thereby removing any functionality that is only available to the owner."
      },
      "renounceRole(bytes32,address)": {
        "details": "Revokes `role` from the calling account.     * Roles are often managed via {grantRole} and {revokeRole}: this function's purpose is to provide a mechanism for accounts to lose their privileges if they are compromised (such as when a trusted device is misplaced).     * If the calling account had been granted `role`, emits a {RoleRevoked} event.     * Requirements:     * - the caller must be `account`."
      },
      "revokeRole(bytes32,address)": {
        "details": "Revokes `role` from `account`.     * If `account` had been granted `role`, emits a {RoleRevoked} event.     * Requirements:     * - the caller must have ``role``'s admin role."
      },
      "transferOwnership(address)": {
        "details": "Transfers ownership of the contract to a new account (`newOwner`). Can only be called by the current owner."
      }
    }
  },
  "userdoc": {
    "methods": {}
  }
}