{
  "contractName": "MultisigSingle",
  "abi": [
    {
      "anonymous": false,
      "inputs": [
        {
          "indexed": false,
          "internalType": "address",
          "name": "who",
          "type": "address"
        }
      ],
      "name": "AddMultisigAddress",
      "type": "event"
    },
    {
      "anonymous": false,
      "inputs": [
        {
          "indexed": false,
          "internalType": "address",
          "name": "who",
          "type": "address"
        }
      ],
      "name": "RemoveMultisigAddress",
      "type": "event"
    },
    {
      "anonymous": false,
      "inputs": [
        {
          "indexed": false,
          "internalType": "uint256",
          "name": "num",
          "type": "uint256"
        }
      ],
      "name": "SetThreshold",
      "type": "event"
    },
    {
      "inputs": [
        {
          "internalType": "address",
          "name": "",
          "type": "address"
        }
      ],
      "name": "_whitelist",
      "outputs": [
        {
          "internalType": "bool",
          "name": "",
          "type": "bool"
        }
      ],
      "stateMutability": "view",
      "type": "function"
    },
    {
      "inputs": [],
      "name": "multisigWhitelist",
      "outputs": [
        {
          "internalType": "address[]",
          "name": "",
          "type": "address[]"
        }
      ],
      "stateMutability": "view",
      "type": "function"
    },
    {
      "inputs": [],
      "name": "getThreshold",
      "outputs": [
        {
          "internalType": "uint256",
          "name": "",
          "type": "uint256"
        }
      ],
      "stateMutability": "view",
      "type": "function"
    },
    {
      "inputs": [
        {
          "internalType": "uint256",
          "name": "num",
          "type": "uint256"
        }
      ],
      "name": "setThreshold",
      "outputs": [],
      "stateMutability": "nonpayable",
      "type": "function"
    },
    {
      "inputs": [
        {
          "internalType": "address",
          "name": "account",
          "type": "address"
        }
      ],
      "name": "multisigWhitelistAdd",
      "outputs": [],
      "stateMutability": "nonpayable",
      "type": "function"
    },
    {
      "inputs": [
        {
          "internalType": "address",
          "name": "account",
          "type": "address"
        }
      ],
      "name": "multisigWhitelistRemove",
      "outputs": [],
      "stateMutability": "nonpayable",
      "type": "function"
    }
  ],
  "bytecode": "0x608060405234801561001057600080fd5b50610d43806100206000396000f3fe608060405234801561001057600080fd5b50600436106100625760003560e01c8063298f811c14610067578063384a56091461008f5780635f29c369146100e7578063960bfe041461010d578063cfdb63ac1461012a578063e75235b814610164575b600080fd5b61008d6004803603602081101561007d57600080fd5b50356001600160a01b031661017e565b005b6100976102cb565b60408051602080825283518183015283519192839290830191858101910280838360005b838110156100d35781810151838201526020016100bb565b505050509050019250505060405180910390f35b61008d600480360360208110156100fd57600080fd5b50356001600160a01b031661032e565b61008d6004803603602081101561012357600080fd5b5035610571565b6101506004803603602081101561014057600080fd5b50356001600160a01b031661066c565b604080519115158252519081900360200190f35b61016c610681565b60408051918252519081900360200190f35b3360009081526020819052604090205460ff166101cc5760405162461bcd60e51b8152600401808060200182810382526028815260200180610ce66028913960400191505060405180910390fd5b60006101d6610687565b509050806101e457506102c8565b600354600254141561022e57600280546001019081905560408051918252517f46e8115bf463f9c29a9424fe152addef1bfaf2b43180d19bb7c2c78cc0ff1ebf9181900360200190a15b6001600160a01b038216600081815260208181526040808320805460ff191660019081179091556003805491820181559093527fc2575a0e9e593c00f959f8c92f12db2869c3395a3b0502d05e2516446f71f85b90920180546001600160a01b03191684179055815192835290517f1ead7aae0c0f997bd574bd2e78f654421a1e582f39ed4276dcaeb23c5ab3b0009281900390910190a1505b50565b6060600380548060200260200160405190810160405280929190818152602001828054801561032357602002820191906000526020600020905b81546001600160a01b03168152600190910190602001808311610305575b505050505090505b90565b3360009081526020819052604090205460ff1661037c5760405162461bcd60e51b8152600401808060200182810382526028815260200180610ce66028913960400191505060405180910390fd5b6003546002106103bd5760405162461bcd60e51b8152600401808060200182810382526023815260200180610cc36023913960400191505060405180910390fd5b60006103c761093c565b509050806103d557506102c8565b60035460025414156104205760028054600019019081905560408051918252517f46e8115bf463f9c29a9424fe152addef1bfaf2b43180d19bb7c2c78cc0ff1ebf9181900360200190a15b6060600160038054905003604051908082528060200260200182016040528015610454578160200160208202803883390190505b5090506000805b6003548110156104fa57846001600160a01b03166003828154811061047c57fe5b6000918252602090912001546001600160a01b0316141561049c576104f2565b600381815481106104a957fe5b9060005260206000200160009054906101000a90046001600160a01b03168383815181106104d357fe5b6001600160a01b03909216602092830291909101909101526001909101905b60010161045b565b506001600160a01b038416600090815260208181526040909120805460ff19169055825161052e9160039190850190610c01565b50604080516001600160a01b038616815290517f1f7245751f91a3735fa2bd56a6ae2b6023b2096be605463fb5519d67d099369c9181900360200190a150505050565b3360009081526020819052604090205460ff166105bf5760405162461bcd60e51b8152600401808060200182810382526028815260200180610ce66028913960400191505060405180910390fd5b6001811180156105d157506003548111155b610618576040805162461bcd60e51b8152602060048201526013602482015272125b98dbdc9c9958dd081d1a1c995cda1bdb19606a1b604482015290519081900360640190fd5b6000610622610687565b5090508061063057506102c8565b60028290556040805183815290517f46e8115bf463f9c29a9424fe152addef1bfaf2b43180d19bb7c2c78cc0ff1ebf9181900360200190a15050565b60006020819052908152604090205460ff1681565b60025490565b600080600080356001600160e01b03191690506000803660405180838380828437604080519190930181900390206001600160e01b0319881660009081526004602052929092206002015491955050159250610862915050576001600160e01b031982166000908152600460205260409020600101548114156107e05760005b6001600160e01b0319831660009081526004602052604090206003015481101561079e576001600160e01b03198316600090815260046020526040902060030180543391908390811061075657fe5b6000918252602090912001546001600160a01b031614156107965750506001600160e01b0319166000908152600460205260408120549092509050610938565b600101610707565b506001600160e01b0319821660009081526004602090815260408220600301805460018101825590835291200180546001600160a01b0319163317905561085d565b6001805481018082556001600160e01b03198416600090815260046020526040812091825591810183905542600282015561082091600390910190610c66565b6001600160e01b0319821660009081526004602090815260408220600301805460018101825590835291200180546001600160a01b031916331790555b6108b6565b6001805481018082556001600160e01b03198416600090815260046020908152604082209283558284018590554260028401556003909201805493840181558152200180546001600160a01b031916331790555b6001600160e01b031982166000908152600460205260409020805460025460039092015490911161092a576001600160e01b0319831660009081526004602052604081208181556001810182905560028101829055906109196003830182610c66565b505060018194509450505050610938565b600094509250610938915050565b9091565b600254600354600091829181141561095357600019015b600080356001600160e01b03191690506000803660405180838380828437604080519190930181900390206001600160e01b0319881660009081526004602052929092206002015491955050159250610b2d915050576001600160e01b03198216600090815260046020526040902060010154811415610aab5760005b6001600160e01b03198316600090815260046020526040902060030154811015610a69576001600160e01b031983166000908152600460205260409020600301805433919083908110610a1f57fe5b6000918252602090912001546001600160a01b03161415610a615750506001600160e01b03191660009081526004602052604081205490935091506109389050565b6001016109d0565b506001600160e01b0319821660009081526004602090815260408220600301805460018101825590835291200180546001600160a01b03191633179055610b28565b6001805481018082556001600160e01b031984166000908152600460205260408120918255918101839055426002820155610aeb91600390910190610c66565b6001600160e01b0319821660009081526004602090815260408220600301805460018101825590835291200180546001600160a01b031916331790555b610b81565b6001805481018082556001600160e01b03198416600090815260046020908152604082209283558284018590554260028401556003909201805493840181558152200180546001600160a01b031916331790555b6001600160e01b03198216600090815260046020526040902080546003909101548411610bf2576001600160e01b031983166000908152600460205260408120818155600181018290556002810182905590610be06003830182610c66565b50506001819550955050505050610938565b60009550935061093892505050565b828054828255906000526020600020908101928215610c56579160200282015b82811115610c5657825182546001600160a01b0319166001600160a01b03909116178255602090920191600190910190610c21565b50610c62929150610c84565b5090565b50805460008255906000526020600020908101906102c89190610ca8565b61032b91905b80821115610c625780546001600160a01b0319168155600101610c8a565b61032b91905b80821115610c625760008155600101610cae56fe4d756c74697369673a20616c7265616479206d696e696d756d206164647265737365734d756c74697369673a20596f752063616e6e6f7420657865637574652074686973206d6574686f64a264697066735822122017ad1ac9861ae497a76f4f7f68ba47c5617cf71c6353d6af9031b23c2174cd0964736f6c63430006020033",
  "source": "// SPDX-License-Identifier: GPL-3.0\npragma solidity 0.6.2;\n\n\ncontract MultisigSingle {\n\n    struct SigProcess {\n        uint id;\n        bytes32 data;\n        uint created;\n        address[] sigs;\n    }\n\n    mapping (address => bool) public _whitelist;\n    uint private _id;\n    uint private _threshold;\n    address[] private _whitelistArr;\n    mapping (bytes4 => SigProcess) private _processing;\n\n    event AddMultisigAddress(address who);\n    event RemoveMultisigAddress(address who);\n    event SetThreshold(uint num);\n\n    modifier multisig() {\n        require(_whitelist[msg.sender], \"Multisig: You cannot execute this method\");\n        _;\n    }\n\n    function multisigWhitelist() external view returns (address[] memory) {\n        return _whitelistArr;\n    }\n\n    function getThreshold() external view returns (uint) {\n        return _threshold;\n    }\n\n    function setThreshold(uint num) external multisig() {\n        require(num > 1 && num <= _whitelistArr.length, \"Incorrect threshold\");\n\n        (bool isReady, ) = _isMultisigReady();\n        if (!isReady) return;\n\n        _threshold = num;\n        emit SetThreshold(num);\n    }\n\n    function multisigWhitelistAdd(address account) external multisig() {\n        (bool isReady, ) = _isMultisigReady();\n        if (!isReady) return;\n\n        if (_threshold == _whitelistArr.length) {\n            _threshold++;\n            emit SetThreshold(_threshold);\n        }\n\n        _whitelist[account] = true;\n        _whitelistArr.push(account);\n        emit AddMultisigAddress(account);\n    }\n\n    function multisigWhitelistRemove(address account) external multisig() {\n        require(_whitelistArr.length > 2, \"Multisig: already minimum addresses\");\n        (bool isReady, ) = _isReadyToRemove();\n        if (!isReady) return;\n\n        if (_threshold == _whitelistArr.length) {\n            _threshold--;\n            emit SetThreshold(_threshold);\n        }\n\n        address[] memory replaceWhitelistArr = new address[](_whitelistArr.length-1);\n\n        uint n = 0;\n        for (uint i = 0; i < _whitelistArr.length; i++) {\n            if (_whitelistArr[i] == account) continue;\n            replaceWhitelistArr[n] = _whitelistArr[i];\n            n++;\n        }\n\n        delete _whitelist[account];\n        _whitelistArr = replaceWhitelistArr;\n        emit RemoveMultisigAddress(account);\n    }\n\n    function _isMultisigReady() internal returns (bool, uint) {\n        bytes4 fn = msg.sig;\n        bytes32 data = keccak256(msg.data);\n\n        if (_processing[fn].created > 0) {\n            if (_processing[fn].data == data) {\n                // check repeating\n                for (uint i = 0; i < _processing[fn].sigs.length; i++) {\n                    if (_processing[fn].sigs[i] == msg.sender) {\n                        uint id = _processing[fn].id;\n                        return (false, id);\n                    }\n                }\n                // put your sig\n                _processing[fn].sigs.push(msg.sender);\n            } else {\n                _id++;\n                _processing[fn].id = _id;\n                _processing[fn].data = data;\n                _processing[fn].created = block.timestamp;\n                delete _processing[fn].sigs;\n                _processing[fn].sigs.push(msg.sender);\n            }\n        } else {\n            _id++;\n            _processing[fn].id = _id;\n            _processing[fn].data = data;\n            _processing[fn].created = block.timestamp;\n            _processing[fn].sigs.push(msg.sender);\n        }\n\n        uint id = _processing[fn].id;\n\n        if (_processing[fn].sigs.length >= _threshold) {    \n            delete _processing[fn];\n            return (true, id);\n        } else {\n            return (false, id);\n        }\n    }\n\n    function _initMultisigWhitelist(address[] memory wallets, uint threshold_) internal {\n        require(_threshold == 0, \"Multisig: whitelist already initialized\");\n        require(threshold_ <= wallets.length && threshold_ > 1, \"Multisig: invalid init threshold\");\n        _threshold = threshold_;\n        emit SetThreshold(_threshold);\n        for (uint i = 0; i < wallets.length; i++) {\n            _whitelist[wallets[i]] = true;\n            _whitelistArr.push(wallets[i]);\n            emit AddMultisigAddress(wallets[i]);\n        }\n    }\n\n    function _isReadyToRemove() private returns (bool, uint) {\n        uint threshold = _threshold;\n        if (threshold == _whitelistArr.length) threshold--;\n        bytes4 fn = msg.sig;\n        bytes32 data = keccak256(msg.data);\n\n        if (_processing[fn].created > 0) {\n            if (_processing[fn].data == data) {\n                // check repeating\n                for (uint i = 0; i < _processing[fn].sigs.length; i++) {\n                    if (_processing[fn].sigs[i] == msg.sender) {\n                        uint id = _processing[fn].id;\n                        return (false, id);\n                    }\n                }\n                // put your sig\n                _processing[fn].sigs.push(msg.sender);\n            } else {\n                _id++;\n                _processing[fn].id = _id;\n                _processing[fn].data = data;\n                _processing[fn].created = block.timestamp;\n                delete _processing[fn].sigs;\n                _processing[fn].sigs.push(msg.sender);\n            }\n        } else {\n            _id++;\n            _processing[fn].id = _id;\n            _processing[fn].data = data;\n            _processing[fn].created = block.timestamp;\n            _processing[fn].sigs.push(msg.sender);\n        }\n\n        uint id = _processing[fn].id;\n\n        if (_processing[fn].sigs.length >= threshold) {\n            delete _processing[fn];\n            return (true, id);\n        } else {\n            return (false, id);\n        }\n    }\n\n}\n",
  "sourcePath": "/home/pirat/Desktop/DAO_update/DAO/contracts/MultisigSingle.sol",
  "compiler": {
    "name": "solc",
    "version": "0.6.2+commit.bacdbe57.Emscripten.clang"
  },
  "schemaVersion": "3.2.5",
  "updatedAt": "2021-08-16T15:52:52.798Z",
  "devdoc": {
    "methods": {}
  },
  "userdoc": {
    "methods": {}
  }
}