{
  "contractName": "Multisig",
  "abi": [
    {
      "inputs": [
        {
          "internalType": "bytes4",
          "name": "groupId",
          "type": "bytes4"
        }
      ],
      "name": "multisigWhitelist",
      "outputs": [
        {
          "internalType": "address[]",
          "name": "",
          "type": "address[]"
        }
      ],
      "stateMutability": "view",
      "type": "function"
    },
    {
      "inputs": [
        {
          "internalType": "bytes4",
          "name": "groupId",
          "type": "bytes4"
        },
        {
          "internalType": "address",
          "name": "account",
          "type": "address"
        }
      ],
      "name": "multisigWhitelistAdd",
      "outputs": [],
      "stateMutability": "nonpayable",
      "type": "function"
    },
    {
      "inputs": [
        {
          "internalType": "bytes4",
          "name": "groupId",
          "type": "bytes4"
        },
        {
          "internalType": "address",
          "name": "account",
          "type": "address"
        }
      ],
      "name": "multisigWhitelistRemove",
      "outputs": [],
      "stateMutability": "nonpayable",
      "type": "function"
    }
  ],
  "bytecode": "0x608060405234801561001057600080fd5b50610b79806100206000396000f3fe608060405234801561001057600080fd5b50600436106100415760003560e01c80631d4ab12014610046578063791b8a781461007e5780637c465e09146100f5575b600080fd5b61007c6004803603604081101561005c57600080fd5b5080356001600160e01b03191690602001356001600160a01b031661012b565b005b6100a56004803603602081101561009457600080fd5b50356001600160e01b03191661033b565b60408051602080825283518183015283519192839290830191858101910280838360005b838110156100e15781810151838201526020016100c9565b505050509050019250505060405180910390f35b61007c6004803603604081101561010b57600080fd5b5080356001600160e01b03191690602001356001600160a01b031661041b565b6001600160e01b03198216600090815260208181526040808320338452600101909152902054829060ff166101915760405162461bcd60e51b8152600401808060200182810382526028815260200180610b1c6028913960400191505060405180910390fd5b6001600160e01b031983166000908152602081905260409020600280820154116101ec5760405162461bcd60e51b8152600401808060200182810382526023815260200180610af96023913960400191505060405180910390fd5b6101f5846104f6565b6101ff5750610336565b6002810154815414156102155780546000190181555b6060600182600201805490500360405190808252806020026020018201604052801561024b578160200160208202803883390190505b5090506000805b60028401548110156102f757856001600160a01b031684600201828154811061027757fe5b6000918252602090912001546001600160a01b03161415610297576102ef565b8360020181815481106102a657fe5b9060005260206000200160009054906101000a90046001600160a01b03168383815181106102d057fe5b6001600160a01b03909216602092830291909101909101526001909101905b600101610252565b506001600160a01b03851660009081526001840160209081526040909120805460ff19169055825161033191600286019190850190610a31565b505050505b505050565b6001600160e01b03198116600090815260208181526040808320338452600101909152902054606090829060ff166103a45760405162461bcd60e51b8152600401808060200182810382526028815260200180610b1c6028913960400191505060405180910390fd5b6001600160e01b03198316600090815260208181526040918290206002018054835181840281018401909452808452909183018282801561040e57602002820191906000526020600020905b81546001600160a01b031681526001909101906020018083116103f0575b5050505050915050919050565b6001600160e01b03198216600090815260208181526040808320338452600101909152902054829060ff166104815760405162461bcd60e51b8152600401808060200182810382526028815260200180610b1c6028913960400191505060405180910390fd5b61048a836107a0565b61049357610336565b506001600160e01b0319919091166000908152602081815260408083206001600160a01b0390941680845260018086018452918420805460ff191683179055600290940180549182018155835291200180546001600160a01b0319169091179055565b6001600160e01b0319811660009081526020819052604081208054600282015481141561052257600019015b600080356001600160e01b03191690506000803660405180838380828437604080519190930181900390206001600160e01b03198816600090815260038b016020529290922060010154919550501592506106df915050576001600160e01b0319821660009081526003850160205260409020548114156106685760005b6001600160e01b031983166000908152600386016020526040902060020154811015610624576001600160e01b03198316600090815260038601602052604090206002018054339190839081106105f357fe5b6000918252602090912001546001600160a01b0316141561061c5760009550505050505061079b565b6001016105a0565b506001600160e01b03198216600090815260038501602090815260408220600201805460018101825590835291200180546001600160a01b031916331790556106da565b6001600160e01b031982166000908152600385016020526040812082815542600182015561069b91600290910190610a96565b6001600160e01b03198216600090815260038501602090815260408220600201805460018101825590835291200180546001600160a01b031916331790555b61072b565b6001600160e01b0319821660009081526003850160209081526040822083815542600180830191909155600290910180549182018155835291200180546001600160a01b031916331790555b6001600160e01b0319821660009081526003850160205260409020600201548311610792576001600160e01b031982166000908152600385016020526040812081815560018101829055906107836002830182610a96565b5050600194505050505061079b565b60009450505050505b919050565b6001600160e01b031980821660009081526020819052604080822090519192909183359091169083908190369080838380828437604080519190930181900390206001600160e01b03198816600090815260038a01602052929092206001015491955050159250610972915050576001600160e01b0319821660009081526003840160205260409020548114156108fb5760005b6001600160e01b0319831660009081526003850160205260409020600201548110156108b7576001600160e01b031983166000908152600385016020526040902060020180543391908390811061088757fe5b6000918252602090912001546001600160a01b031614156108af57600094505050505061079b565b600101610834565b506001600160e01b03198216600090815260038401602090815260408220600201805460018101825590835291200180546001600160a01b0319163317905561096d565b6001600160e01b031982166000908152600384016020526040812082815542600182015561092e91600290910190610a96565b6001600160e01b03198216600090815260038401602090815260408220600201805460018101825590835291200180546001600160a01b031916331790555b6109be565b6001600160e01b0319821660009081526003840160209081526040822083815542600180830191909155600290910180549182018155835291200180546001600160a01b031916331790555b82546001600160e01b03198316600090815260038501602052604090206002015410610a25576001600160e01b03198216600090815260038401602052604081208181556001810182905590610a176002830182610a96565b50506001935050505061079b565b6000935050505061079b565b828054828255906000526020600020908101928215610a86579160200282015b82811115610a8657825182546001600160a01b0319166001600160a01b03909116178255602090920191600190910190610a51565b50610a92929150610ab7565b5090565b5080546000825590600052602060002090810190610ab49190610ade565b50565b610adb91905b80821115610a925780546001600160a01b0319168155600101610abd565b90565b610adb91905b80821115610a925760008155600101610ae456fe4d756c74697369673a20616c7265616479206d696e696d756d206164647265737365734d756c74697369673a20596f752063616e6e6f7420657865637574652074686973206d6574686f64a2646970667358221220a2218335253e7c93b84c7f51d7a9721f76d19749290be460118ec673c595980364736f6c63430006020033",
  "source": "// SPDX-License-Identifier: GPL-3.0\npragma solidity 0.6.2;\n\n\ncontract Multisig {\n\n    struct SigProcess {\n        bytes32 data;\n        uint created;\n        address[] sigs;\n    }\n\n    struct SigGroup {\n        uint threshold;\n        mapping (address => bool) whitelist;\n        address[] whitelistArr;\n        mapping (bytes4 => SigProcess) processing;\n    }\n\n    mapping (bytes4 => SigGroup) private _groups;\n\n    modifier multisig(bytes4 groupId) {\n        require(_groups[groupId].whitelist[msg.sender], \"Multisig: You cannot execute this method\");\n        _;\n    }\n\n    function multisigWhitelist(bytes4 groupId) external view multisig(groupId) returns (address[] memory){\n        return _groups[groupId].whitelistArr;\n    }\n\n    function multisigWhitelistAdd(bytes4 groupId, address account) external multisig(groupId) {\n        if (!_isMultisigReady(groupId)) return;\n        SigGroup storage group = _groups[groupId];\n        group.whitelist[account] = true;\n        group.whitelistArr.push(account);\n    }\n\n    function multisigWhitelistRemove(bytes4 groupId, address account) external multisig(groupId) {\n        SigGroup storage group = _groups[groupId];\n        require(group.whitelistArr.length > 2, \"Multisig: already minimum addresses\");\n        if (!_isReadyToRemove(groupId)) return;\n\n        if (group.threshold == group.whitelistArr.length) group.threshold--;\n\n        address[] memory replaceWhitelistArr = new address[](group.whitelistArr.length-1);\n\n        uint n = 0;\n        for (uint i = 0; i < group.whitelistArr.length; i++) {\n            if (group.whitelistArr[i] == account) continue;\n            replaceWhitelistArr[n] = group.whitelistArr[i];\n            n++;\n        }\n\n        delete group.whitelist[account];\n        group.whitelistArr = replaceWhitelistArr;\n    }\n\n    function _isMultisigReady(bytes4 groupId) internal returns (bool) {\n        SigGroup storage group = _groups[groupId];\n        bytes4 fn = msg.sig;\n        bytes32 data = keccak256(msg.data);\n\n        if (group.processing[fn].created > 0) {\n            if (group.processing[fn].data == data) {\n                // check repeating\n                for (uint i = 0; i < group.processing[fn].sigs.length; i++) {\n                    if (group.processing[fn].sigs[i] == msg.sender) {\n                        return false;\n                    }\n                }\n                // put your sig\n                group.processing[fn].sigs.push(msg.sender);\n            } else {\n                group.processing[fn].data = data;\n                group.processing[fn].created = block.timestamp;\n                delete group.processing[fn].sigs;\n                group.processing[fn].sigs.push(msg.sender);\n            }\n        } else {\n            group.processing[fn].data = data;\n            group.processing[fn].created = block.timestamp;\n            group.processing[fn].sigs.push(msg.sender);\n        }\n\n        if (group.processing[fn].sigs.length >= group.threshold) {\n            delete group.processing[fn];\n            return true;\n        } else {\n            return false;\n        }\n    }\n\n    function _initMultisigWhitelist(bytes4 groupId, address[] memory wallets, uint threshold_) internal {\n        SigGroup storage group = _groups[groupId];\n        require(group.threshold == 0, \"Multisig: whitelist already initialized\");\n        require(threshold_ <= wallets.length && threshold_ > 1, \"Multisig: invalid init threshold\");\n        group.threshold = threshold_;\n        for (uint i = 0; i < wallets.length; i++) {\n            group.whitelist[wallets[i]] = true;\n            group.whitelistArr.push(wallets[i]);\n        }\n    }\n\n    function _isReadyToRemove(bytes4 groupId) private returns (bool) {\n        SigGroup storage group = _groups[groupId];\n        uint threshold = group.threshold;\n        if (threshold == group.whitelistArr.length) threshold--;\n        bytes4 fn = msg.sig;\n        bytes32 data = keccak256(msg.data);\n\n        if (group.processing[fn].created > 0) {\n            if (group.processing[fn].data == data) {\n                // check repeating\n                for (uint i = 0; i < group.processing[fn].sigs.length; i++) {\n                    if (group.processing[fn].sigs[i] == msg.sender) {\n                        return false;\n                    }\n                }\n                // put your sig\n                group.processing[fn].sigs.push(msg.sender);\n            } else {\n                group.processing[fn].data = data;\n                group.processing[fn].created = block.timestamp;\n                delete group.processing[fn].sigs;\n                group.processing[fn].sigs.push(msg.sender);\n            }\n        } else {\n            group.processing[fn].data = data;\n            group.processing[fn].created = block.timestamp;\n            group.processing[fn].sigs.push(msg.sender);\n        }\n\n        if (group.processing[fn].sigs.length >= threshold) {\n            delete group.processing[fn];\n            return true;\n        } else {\n            return false;\n        }\n    }\n\n}\n",
  "sourcePath": "/home/pirat/Desktop/DAO/contracts/Multisig.sol",
  "compiler": {
    "name": "solc",
    "version": "0.6.2+commit.bacdbe57.Emscripten.clang"
  },
  "schemaVersion": "3.2.5",
  "updatedAt": "2021-06-17T16:05:32.883Z",
  "devdoc": {
    "methods": {}
  },
  "userdoc": {
    "methods": {}
  }
}