{
  "contractName": "MultisigSingle",
  "abi": [
    {
      "inputs": [
        {
          "internalType": "address",
          "name": "",
          "type": "address"
        }
      ],
      "name": "_whitelist",
      "outputs": [
        {
          "internalType": "bool",
          "name": "",
          "type": "bool"
        }
      ],
      "stateMutability": "view",
      "type": "function"
    },
    {
      "inputs": [],
      "name": "multisigWhitelist",
      "outputs": [
        {
          "internalType": "address[]",
          "name": "",
          "type": "address[]"
        }
      ],
      "stateMutability": "view",
      "type": "function"
    },
    {
      "inputs": [
        {
          "internalType": "address",
          "name": "account",
          "type": "address"
        }
      ],
      "name": "multisigWhitelistAdd",
      "outputs": [],
      "stateMutability": "nonpayable",
      "type": "function"
    },
    {
      "inputs": [
        {
          "internalType": "address",
          "name": "account",
          "type": "address"
        }
      ],
      "name": "multisigWhitelistRemove",
      "outputs": [],
      "stateMutability": "nonpayable",
      "type": "function"
    }
  ],
  "bytecode": "0x608060405234801561001057600080fd5b50610b0e806100206000396000f3fe608060405234801561001057600080fd5b506004361061004c5760003560e01c8063298f811c14610051578063384a5609146100795780635f29c369146100d1578063cfdb63ac146100f7575b600080fd5b6100776004803603602081101561006757600080fd5b50356001600160a01b0316610131565b005b610081610201565b60408051602080825283518183015283519192839290830191858101910280838360005b838110156100bd5781810151838201526020016100a5565b505050509050019250505060405180910390f35b610077600480360360208110156100e757600080fd5b50356001600160a01b0316610264565b61011d6004803603602081101561010d57600080fd5b50356001600160a01b0316610439565b604080519115158252519081900360200190f35b3360009081526002602052604090205460ff1661017f5760405162461bcd60e51b8152600401808060200182810382526028815260200180610ab16028913960400191505060405180910390fd5b600061018961044e565b5090508061019757506101fe565b506001600160a01b0381166000818152600260205260408120805460ff191660019081179091556003805491820181559091527fc2575a0e9e593c00f959f8c92f12db2869c3395a3b0502d05e2516446f71f85b0180546001600160a01b03191690911790555b50565b6060600380548060200260200160405190810160405280929190818152602001828054801561025957602002820191906000526020600020905b81546001600160a01b0316815260019091019060200180831161023b575b505050505090505b90565b3360009081526002602052604090205460ff166102b25760405162461bcd60e51b8152600401808060200182810382526028815260200180610ab16028913960400191505060405180910390fd5b6003546002106102f35760405162461bcd60e51b8152600401808060200182810382526023815260200180610a8e6023913960400191505060405180910390fd5b60006102fd610705565b5090508061030b57506101fe565b600354600154141561032257600180546000190190555b6060600160038054905003604051908082528060200260200182016040528015610356578160200160208202803883390190505b5090506000805b6003548110156103fc57846001600160a01b03166003828154811061037e57fe5b6000918252602090912001546001600160a01b0316141561039e576103f4565b600381815481106103ab57fe5b9060005260206000200160009054906101000a90046001600160a01b03168383815181106103d557fe5b6001600160a01b03909216602092830291909101909101526001909101905b60010161035d565b506001600160a01b0384166000908152600260209081526040909120805460ff19169055825161043291600391908501906109cc565b5050505050565b60026020526000908152604090205460ff1681565b600080600080356001600160e01b03191690506000803660405180838380828437604080519190930181900390206001600160e01b0319881660009081526004602052929092206002015491955050159250610629915050576001600160e01b031982166000908152600460205260409020600101548114156105a75760005b6001600160e01b03198316600090815260046020526040902060030154811015610565576001600160e01b03198316600090815260046020526040902060030180543391908390811061051d57fe5b6000918252602090912001546001600160a01b0316141561055d5750506001600160e01b0319166000908152600460205260408120549092509050610701565b6001016104ce565b506001600160e01b0319821660009081526004602090815260408220600301805460018101825590835291200180546001600160a01b03191633179055610624565b6000805460019081018083556001600160e01b0319851683526004602052604083209081559081018390554260028201556105e791600390910190610a31565b6001600160e01b0319821660009081526004602090815260408220600301805460018101825590835291200180546001600160a01b031916331790555b61067f565b6000805460019081018083556001600160e01b031985168352600460209081526040842091825581830185905542600283015560039091018054928301815583529091200180546001600160a01b031916331790555b6001600160e01b03198216600090815260046020526040902080546001546003909201549091116106f3576001600160e01b0319831660009081526004602052604081208181556001810182905560028101829055906106e26003830182610a31565b505060018194509450505050610701565b600094509250610701915050565b9091565b600154600354600091829181141561071c57600019015b600080356001600160e01b03191690506000803660405180838380828437604080519190930181900390206001600160e01b03198816600090815260046020529290922060020154919550501592506108f6915050576001600160e01b031982166000908152600460205260409020600101548114156108745760005b6001600160e01b03198316600090815260046020526040902060030154811015610832576001600160e01b0319831660009081526004602052604090206003018054339190839081106107e857fe5b6000918252602090912001546001600160a01b0316141561082a5750506001600160e01b03191660009081526004602052604081205490935091506107019050565b600101610799565b506001600160e01b0319821660009081526004602090815260408220600301805460018101825590835291200180546001600160a01b031916331790556108f1565b6000805460019081018083556001600160e01b0319851683526004602052604083209081559081018390554260028201556108b491600390910190610a31565b6001600160e01b0319821660009081526004602090815260408220600301805460018101825590835291200180546001600160a01b031916331790555b61094c565b6000805460019081018083556001600160e01b031985168352600460209081526040842091825581830185905542600283015560039091018054928301815583529091200180546001600160a01b031916331790555b6001600160e01b031982166000908152600460205260409020805460039091015484116109bd576001600160e01b0319831660009081526004602052604081208181556001810182905560028101829055906109ab6003830182610a31565b50506001819550955050505050610701565b60009550935061070192505050565b828054828255906000526020600020908101928215610a21579160200282015b82811115610a2157825182546001600160a01b0319166001600160a01b039091161782556020909201916001909101906109ec565b50610a2d929150610a4f565b5090565b50805460008255906000526020600020908101906101fe9190610a73565b61026191905b80821115610a2d5780546001600160a01b0319168155600101610a55565b61026191905b80821115610a2d5760008155600101610a7956fe4d756c74697369673a20616c7265616479206d696e696d756d206164647265737365734d756c74697369673a20596f752063616e6e6f7420657865637574652074686973206d6574686f64a26469706673582212209c91185709c9fae59ec6c429b9abf9ddfc95f41a9b990414aa3d22d3b581ce1b64736f6c63430006020033",
  "source": "// SPDX-License-Identifier: GPL-3.0\npragma solidity 0.6.2;\n\n\ncontract MultisigSingle {\n\n    struct SigProcess {\n        uint id;\n        bytes32 data;\n        uint created;\n        address[] sigs;\n    }\n\n    uint private _id;\n    uint private _threshold;\n    mapping (address => bool) public _whitelist;\n    address[] private _whitelistArr;\n    mapping (bytes4 => SigProcess) private _processing;\n\n    modifier multisig() {\n        require(_whitelist[msg.sender], \"Multisig: You cannot execute this method\");\n        _;\n    }\n\n    function multisigWhitelist() external view returns (address[] memory){\n        return _whitelistArr;\n    }\n\n    function multisigWhitelistAdd(address account) external multisig() {\n        (bool isReady, ) = _isMultisigReady();\n        if (!isReady) return;\n        _whitelist[account] = true;\n        _whitelistArr.push(account);\n    }\n\n    function multisigWhitelistRemove(address account) external multisig() {\n        require(_whitelistArr.length > 2, \"Multisig: already minimum addresses\");\n        (bool isReady, ) = _isReadyToRemove();\n        if (!isReady) return;\n\n        if (_threshold == _whitelistArr.length) _threshold--;\n\n        address[] memory replaceWhitelistArr = new address[](_whitelistArr.length-1);\n\n        uint n = 0;\n        for (uint i = 0; i < _whitelistArr.length; i++) {\n            if (_whitelistArr[i] == account) continue;\n            replaceWhitelistArr[n] = _whitelistArr[i];\n            n++;\n        }\n\n        delete _whitelist[account];\n        _whitelistArr = replaceWhitelistArr;\n    }\n\n    function _isMultisigReady() internal returns (bool, uint) {\n        bytes4 fn = msg.sig;\n        bytes32 data = keccak256(msg.data);\n\n        if (_processing[fn].created > 0) {\n            if (_processing[fn].data == data) {\n                // check repeating\n                for (uint i = 0; i < _processing[fn].sigs.length; i++) {\n                    if (_processing[fn].sigs[i] == msg.sender) {\n                        uint id = _processing[fn].id;\n                        return (false, id);\n                    }\n                }\n                // put your sig\n                _processing[fn].sigs.push(msg.sender);\n            } else {\n                _id++;\n                _processing[fn].id = _id;\n                _processing[fn].data = data;\n                _processing[fn].created = block.timestamp;\n                delete _processing[fn].sigs;\n                _processing[fn].sigs.push(msg.sender);\n            }\n        } else {\n            _id++;\n            _processing[fn].id = _id;\n            _processing[fn].data = data;\n            _processing[fn].created = block.timestamp;\n            _processing[fn].sigs.push(msg.sender);\n        }\n\n        uint id = _processing[fn].id;\n\n        if (_processing[fn].sigs.length >= _threshold) {    \n            delete _processing[fn];\n            return (true, id);\n        } else {\n            return (false, id);\n        }\n    }\n\n    function _initMultisigWhitelist(address[] memory wallets, uint threshold_) internal {\n        require(_threshold == 0, \"Multisig: whitelist already initialized\");\n        require(threshold_ <= wallets.length && threshold_ > 1, \"Multisig: invalid init threshold\");\n        _threshold = threshold_;\n        for (uint i = 0; i < wallets.length; i++) {\n            _whitelist[wallets[i]] = true;\n            _whitelistArr.push(wallets[i]);\n        }\n    }\n\n    function _isReadyToRemove() private returns (bool, uint) {\n        uint threshold = _threshold;\n        if (threshold == _whitelistArr.length) threshold--;\n        bytes4 fn = msg.sig;\n        bytes32 data = keccak256(msg.data);\n\n        if (_processing[fn].created > 0) {\n            if (_processing[fn].data == data) {\n                // check repeating\n                for (uint i = 0; i < _processing[fn].sigs.length; i++) {\n                    if (_processing[fn].sigs[i] == msg.sender) {\n                        uint id = _processing[fn].id;\n                        return (false, id);\n                    }\n                }\n                // put your sig\n                _processing[fn].sigs.push(msg.sender);\n            } else {\n                _id++;\n                _processing[fn].id = _id;\n                _processing[fn].data = data;\n                _processing[fn].created = block.timestamp;\n                delete _processing[fn].sigs;\n                _processing[fn].sigs.push(msg.sender);\n            }\n        } else {\n            _id++;\n            _processing[fn].id = _id;\n            _processing[fn].data = data;\n            _processing[fn].created = block.timestamp;\n            _processing[fn].sigs.push(msg.sender);\n        }\n\n        uint id = _processing[fn].id;\n\n        if (_processing[fn].sigs.length >= threshold) {\n            delete _processing[fn];\n            return (true, id);\n        } else {\n            return (false, id);\n        }\n    }\n\n}\n",
  "sourcePath": "/home/pirat/Desktop/DAO/contracts/MultisigSingle.sol",
  "compiler": {
    "name": "solc",
    "version": "0.6.2+commit.bacdbe57.Emscripten.clang"
  },
  "schemaVersion": "3.2.5",
  "updatedAt": "2021-06-01T14:37:58.629Z",
  "devdoc": {
    "methods": {}
  },
  "userdoc": {
    "methods": {}
  }
}