{
  "contractName": "Rewarding",
  "abi": [
    {
      "anonymous": false,
      "inputs": [
        {
          "indexed": true,
          "internalType": "address",
          "name": "recipient",
          "type": "address"
        },
        {
          "indexed": false,
          "internalType": "uint256",
          "name": "amount",
          "type": "uint256"
        }
      ],
      "name": "ClaimStakingReward",
      "type": "event"
    },
    {
      "anonymous": false,
      "inputs": [
        {
          "indexed": true,
          "internalType": "uint256",
          "name": "issueId",
          "type": "uint256"
        },
        {
          "indexed": true,
          "internalType": "enum Voting.ProposalUpdater",
          "name": "category",
          "type": "uint8"
        },
        {
          "indexed": true,
          "internalType": "address",
          "name": "initialized",
          "type": "address"
        }
      ],
      "name": "ExecProposal",
      "type": "event"
    },
    {
      "anonymous": false,
      "inputs": [
        {
          "indexed": true,
          "internalType": "uint256",
          "name": "issueId",
          "type": "uint256"
        },
        {
          "indexed": true,
          "internalType": "address",
          "name": "creator",
          "type": "address"
        },
        {
          "indexed": true,
          "internalType": "enum Voting.ProposalType",
          "name": "votingType",
          "type": "uint8"
        },
        {
          "indexed": false,
          "internalType": "enum Voting.ProposalUpdater",
          "name": "votingUpdater",
          "type": "uint8"
        }
      ],
      "name": "NewProposal",
      "type": "event"
    },
    {
      "anonymous": false,
      "inputs": [
        {
          "indexed": true,
          "internalType": "uint256",
          "name": "issueId",
          "type": "uint256"
        },
        {
          "indexed": true,
          "internalType": "address",
          "name": "from",
          "type": "address"
        },
        {
          "indexed": true,
          "internalType": "uint256",
          "name": "option",
          "type": "uint256"
        },
        {
          "indexed": false,
          "internalType": "uint256",
          "name": "weight",
          "type": "uint256"
        }
      ],
      "name": "OnVote",
      "type": "event"
    },
    {
      "anonymous": false,
      "inputs": [
        {
          "indexed": true,
          "internalType": "address",
          "name": "previousOwner",
          "type": "address"
        },
        {
          "indexed": true,
          "internalType": "address",
          "name": "newOwner",
          "type": "address"
        }
      ],
      "name": "OwnershipTransferred",
      "type": "event"
    },
    {
      "anonymous": false,
      "inputs": [
        {
          "indexed": true,
          "internalType": "bytes32",
          "name": "role",
          "type": "bytes32"
        },
        {
          "indexed": true,
          "internalType": "bytes32",
          "name": "previousAdminRole",
          "type": "bytes32"
        },
        {
          "indexed": true,
          "internalType": "bytes32",
          "name": "newAdminRole",
          "type": "bytes32"
        }
      ],
      "name": "RoleAdminChanged",
      "type": "event"
    },
    {
      "anonymous": false,
      "inputs": [
        {
          "indexed": true,
          "internalType": "bytes32",
          "name": "role",
          "type": "bytes32"
        },
        {
          "indexed": true,
          "internalType": "address",
          "name": "account",
          "type": "address"
        },
        {
          "indexed": true,
          "internalType": "address",
          "name": "sender",
          "type": "address"
        }
      ],
      "name": "RoleGranted",
      "type": "event"
    },
    {
      "anonymous": false,
      "inputs": [
        {
          "indexed": true,
          "internalType": "bytes32",
          "name": "role",
          "type": "bytes32"
        },
        {
          "indexed": true,
          "internalType": "address",
          "name": "account",
          "type": "address"
        },
        {
          "indexed": true,
          "internalType": "address",
          "name": "sender",
          "type": "address"
        }
      ],
      "name": "RoleRevoked",
      "type": "event"
    },
    {
      "anonymous": false,
      "inputs": [
        {
          "indexed": false,
          "internalType": "bool",
          "name": "isAvailable",
          "type": "bool"
        },
        {
          "indexed": false,
          "internalType": "uint256",
          "name": "minStaked",
          "type": "uint256"
        }
      ],
      "name": "SetProposalAvailability",
      "type": "event"
    },
    {
      "anonymous": false,
      "inputs": [
        {
          "indexed": false,
          "internalType": "address",
          "name": "addr",
          "type": "address"
        }
      ],
      "name": "SetVerifyRewardAddress",
      "type": "event"
    },
    {
      "anonymous": false,
      "inputs": [
        {
          "indexed": true,
          "internalType": "enum Voting.ProposalUpdater",
          "name": "updater",
          "type": "uint8"
        },
        {
          "indexed": false,
          "internalType": "uint256",
          "name": "quorumPct",
          "type": "uint256"
        },
        {
          "indexed": false,
          "internalType": "uint256",
          "name": "supportPct",
          "type": "uint256"
        }
      ],
      "name": "UpdatedProposalConfig",
      "type": "event"
    },
    {
      "inputs": [],
      "name": "ADMIN_ROLE",
      "outputs": [
        {
          "internalType": "bytes32",
          "name": "",
          "type": "bytes32"
        }
      ],
      "stateMutability": "view",
      "type": "function"
    },
    {
      "inputs": [],
      "name": "DEFAULT_ADMIN_ROLE",
      "outputs": [
        {
          "internalType": "bytes32",
          "name": "",
          "type": "bytes32"
        }
      ],
      "stateMutability": "view",
      "type": "function"
    },
    {
      "inputs": [],
      "name": "VOTING_ROLE",
      "outputs": [
        {
          "internalType": "bytes32",
          "name": "",
          "type": "bytes32"
        }
      ],
      "stateMutability": "view",
      "type": "function"
    },
    {
      "inputs": [
        {
          "internalType": "address",
          "name": "account",
          "type": "address"
        }
      ],
      "name": "addAdmin",
      "outputs": [],
      "stateMutability": "nonpayable",
      "type": "function"
    },
    {
      "inputs": [
        {
          "internalType": "address",
          "name": "account",
          "type": "address"
        }
      ],
      "name": "availableToCreateProposals",
      "outputs": [
        {
          "internalType": "bool",
          "name": "",
          "type": "bool"
        }
      ],
      "stateMutability": "view",
      "type": "function"
    },
    {
      "inputs": [
        {
          "internalType": "uint256",
          "name": "issueId",
          "type": "uint256"
        },
        {
          "internalType": "address",
          "name": "addr",
          "type": "address"
        }
      ],
      "name": "ballotOf",
      "outputs": [
        {
          "internalType": "uint256",
          "name": "",
          "type": "uint256"
        }
      ],
      "stateMutability": "view",
      "type": "function"
    },
    {
      "inputs": [
        {
          "internalType": "uint256",
          "name": "issueId",
          "type": "uint256"
        }
      ],
      "name": "countOptions",
      "outputs": [
        {
          "internalType": "uint256",
          "name": "",
          "type": "uint256"
        }
      ],
      "stateMutability": "view",
      "type": "function"
    },
    {
      "inputs": [],
      "name": "countProposals",
      "outputs": [
        {
          "internalType": "uint256",
          "name": "",
          "type": "uint256"
        }
      ],
      "stateMutability": "view",
      "type": "function"
    },
    {
      "inputs": [
        {
          "internalType": "bool",
          "name": "isAvailable",
          "type": "bool"
        },
        {
          "internalType": "uint256",
          "name": "minStaked",
          "type": "uint256"
        }
      ],
      "name": "createProposalAvailability",
      "outputs": [],
      "stateMutability": "nonpayable",
      "type": "function"
    },
    {
      "inputs": [
        {
          "internalType": "address",
          "name": "creator",
          "type": "address"
        },
        {
          "internalType": "uint256",
          "name": "issueId",
          "type": "uint256"
        }
      ],
      "name": "depositedForProposal",
      "outputs": [
        {
          "internalType": "uint256",
          "name": "",
          "type": "uint256"
        }
      ],
      "stateMutability": "view",
      "type": "function"
    },
    {
      "inputs": [
        {
          "internalType": "uint256",
          "name": "issueId",
          "type": "uint256"
        }
      ],
      "name": "execProposal",
      "outputs": [],
      "stateMutability": "nonpayable",
      "type": "function"
    },
    {
      "inputs": [],
      "name": "executionTime",
      "outputs": [
        {
          "internalType": "uint256",
          "name": "",
          "type": "uint256"
        }
      ],
      "stateMutability": "view",
      "type": "function"
    },
    {
      "inputs": [],
      "name": "getNewestProposal",
      "outputs": [
        {
          "internalType": "uint256",
          "name": "issueId",
          "type": "uint256"
        },
        {
          "internalType": "string",
          "name": "title",
          "type": "string"
        },
        {
          "internalType": "enum Voting.ProposalType",
          "name": "votingType",
          "type": "uint8"
        },
        {
          "internalType": "enum Voting.ProposalUpdater",
          "name": "votingUpdater",
          "type": "uint8"
        }
      ],
      "stateMutability": "view",
      "type": "function"
    },
    {
      "inputs": [
        {
          "internalType": "bytes32",
          "name": "role",
          "type": "bytes32"
        }
      ],
      "name": "getRoleAdmin",
      "outputs": [
        {
          "internalType": "bytes32",
          "name": "",
          "type": "bytes32"
        }
      ],
      "stateMutability": "view",
      "type": "function"
    },
    {
      "inputs": [
        {
          "internalType": "bytes32",
          "name": "role",
          "type": "bytes32"
        },
        {
          "internalType": "uint256",
          "name": "index",
          "type": "uint256"
        }
      ],
      "name": "getRoleMember",
      "outputs": [
        {
          "internalType": "address",
          "name": "",
          "type": "address"
        }
      ],
      "stateMutability": "view",
      "type": "function"
    },
    {
      "inputs": [
        {
          "internalType": "bytes32",
          "name": "role",
          "type": "bytes32"
        }
      ],
      "name": "getRoleMemberCount",
      "outputs": [
        {
          "internalType": "uint256",
          "name": "",
          "type": "uint256"
        }
      ],
      "stateMutability": "view",
      "type": "function"
    },
    {
      "inputs": [
        {
          "internalType": "bytes32",
          "name": "role",
          "type": "bytes32"
        },
        {
          "internalType": "address",
          "name": "account",
          "type": "address"
        }
      ],
      "name": "grantRole",
      "outputs": [],
      "stateMutability": "nonpayable",
      "type": "function"
    },
    {
      "inputs": [
        {
          "internalType": "bytes32",
          "name": "role",
          "type": "bytes32"
        },
        {
          "internalType": "address",
          "name": "account",
          "type": "address"
        }
      ],
      "name": "hasRole",
      "outputs": [
        {
          "internalType": "bool",
          "name": "",
          "type": "bool"
        }
      ],
      "stateMutability": "view",
      "type": "function"
    },
    {
      "inputs": [],
      "name": "isOpenProposals",
      "outputs": [
        {
          "internalType": "bool",
          "name": "",
          "type": "bool"
        }
      ],
      "stateMutability": "view",
      "type": "function"
    },
    {
      "inputs": [
        {
          "internalType": "uint256",
          "name": "issueId",
          "type": "uint256"
        }
      ],
      "name": "issueDescription",
      "outputs": [
        {
          "internalType": "string",
          "name": "",
          "type": "string"
        }
      ],
      "stateMutability": "view",
      "type": "function"
    },
    {
      "inputs": [],
      "name": "minAmountToCreate",
      "outputs": [
        {
          "internalType": "uint256",
          "name": "",
          "type": "uint256"
        }
      ],
      "stateMutability": "view",
      "type": "function"
    },
    {
      "inputs": [
        {
          "internalType": "string",
          "name": "title",
          "type": "string"
        },
        {
          "internalType": "string",
          "name": "description",
          "type": "string"
        },
        {
          "internalType": "uint256",
          "name": "expiryTime",
          "type": "uint256"
        },
        {
          "internalType": "string[]",
          "name": "options",
          "type": "string[]"
        },
        {
          "internalType": "enum Voting.ProposalUpdater",
          "name": "votingUpdater",
          "type": "uint8"
        }
      ],
      "name": "newMultiProposal",
      "outputs": [],
      "stateMutability": "nonpayable",
      "type": "function"
    },
    {
      "inputs": [
        {
          "internalType": "string",
          "name": "title",
          "type": "string"
        },
        {
          "internalType": "string",
          "name": "description",
          "type": "string"
        },
        {
          "internalType": "uint256",
          "name": "expiryTime",
          "type": "uint256"
        },
        {
          "internalType": "string",
          "name": "updateData",
          "type": "string"
        },
        {
          "internalType": "enum Voting.ProposalUpdater",
          "name": "votingUpdater",
          "type": "uint8"
        }
      ],
      "name": "newProposal",
      "outputs": [],
      "stateMutability": "nonpayable",
      "type": "function"
    },
    {
      "inputs": [
        {
          "internalType": "uint256",
          "name": "issueId",
          "type": "uint256"
        },
        {
          "internalType": "uint256",
          "name": "option",
          "type": "uint256"
        }
      ],
      "name": "optionInfo",
      "outputs": [
        {
          "internalType": "string",
          "name": "name",
          "type": "string"
        },
        {
          "internalType": "uint256",
          "name": "count",
          "type": "uint256"
        },
        {
          "internalType": "uint256",
          "name": "weight",
          "type": "uint256"
        }
      ],
      "stateMutability": "view",
      "type": "function"
    },
    {
      "inputs": [
        {
          "internalType": "uint256",
          "name": "issueId",
          "type": "uint256"
        },
        {
          "internalType": "uint256",
          "name": "option",
          "type": "uint256"
        }
      ],
      "name": "optionName",
      "outputs": [
        {
          "internalType": "string",
          "name": "",
          "type": "string"
        }
      ],
      "stateMutability": "view",
      "type": "function"
    },
    {
      "inputs": [],
      "name": "owner",
      "outputs": [
        {
          "internalType": "address",
          "name": "",
          "type": "address"
        }
      ],
      "stateMutability": "view",
      "type": "function"
    },
    {
      "inputs": [
        {
          "internalType": "string",
          "name": "_value",
          "type": "string"
        }
      ],
      "name": "parseInt",
      "outputs": [
        {
          "internalType": "uint256",
          "name": "_ret",
          "type": "uint256"
        }
      ],
      "stateMutability": "pure",
      "type": "function"
    },
    {
      "inputs": [
        {
          "internalType": "uint256",
          "name": "issueId",
          "type": "uint256"
        }
      ],
      "name": "proposalConfig",
      "outputs": [
        {
          "internalType": "address",
          "name": "creator",
          "type": "address"
        },
        {
          "internalType": "uint256",
          "name": "quorumPct",
          "type": "uint256"
        },
        {
          "internalType": "uint256",
          "name": "supportPct",
          "type": "uint256"
        },
        {
          "internalType": "uint256",
          "name": "voters",
          "type": "uint256"
        },
        {
          "internalType": "string",
          "name": "updateData",
          "type": "string"
        },
        {
          "internalType": "bool",
          "name": "executed",
          "type": "bool"
        }
      ],
      "stateMutability": "view",
      "type": "function"
    },
    {
      "inputs": [
        {
          "internalType": "enum Voting.ProposalUpdater",
          "name": "conf",
          "type": "uint8"
        }
      ],
      "name": "proposalConfigRates",
      "outputs": [
        {
          "internalType": "uint256",
          "name": "quorumPct",
          "type": "uint256"
        },
        {
          "internalType": "uint256",
          "name": "supportPct",
          "type": "uint256"
        }
      ],
      "stateMutability": "view",
      "type": "function"
    },
    {
      "inputs": [
        {
          "internalType": "uint256",
          "name": "issueId",
          "type": "uint256"
        }
      ],
      "name": "proposalInfo",
      "outputs": [
        {
          "internalType": "string",
          "name": "title",
          "type": "string"
        },
        {
          "internalType": "enum Voting.ProposalType",
          "name": "votingType",
          "type": "uint8"
        },
        {
          "internalType": "enum Voting.ProposalUpdater",
          "name": "votingUpdater",
          "type": "uint8"
        },
        {
          "internalType": "uint256",
          "name": "nay",
          "type": "uint256"
        },
        {
          "internalType": "uint256",
          "name": "yea",
          "type": "uint256"
        },
        {
          "internalType": "bool",
          "name": "hasQuorum",
          "type": "bool"
        },
        {
          "internalType": "bool",
          "name": "accepted",
          "type": "bool"
        },
        {
          "internalType": "uint256",
          "name": "expiryTime",
          "type": "uint256"
        }
      ],
      "stateMutability": "view",
      "type": "function"
    },
    {
      "inputs": [
        {
          "internalType": "uint256",
          "name": "issueId",
          "type": "uint256"
        }
      ],
      "name": "redeemDepositFromProposal",
      "outputs": [],
      "stateMutability": "nonpayable",
      "type": "function"
    },
    {
      "inputs": [],
      "name": "renounceOwnership",
      "outputs": [],
      "stateMutability": "nonpayable",
      "type": "function"
    },
    {
      "inputs": [
        {
          "internalType": "bytes32",
          "name": "role",
          "type": "bytes32"
        },
        {
          "internalType": "address",
          "name": "account",
          "type": "address"
        }
      ],
      "name": "renounceRole",
      "outputs": [],
      "stateMutability": "nonpayable",
      "type": "function"
    },
    {
      "inputs": [
        {
          "internalType": "bytes32",
          "name": "role",
          "type": "bytes32"
        },
        {
          "internalType": "address",
          "name": "account",
          "type": "address"
        }
      ],
      "name": "revokeRole",
      "outputs": [],
      "stateMutability": "nonpayable",
      "type": "function"
    },
    {
      "inputs": [
        {
          "internalType": "address",
          "name": "newOwner",
          "type": "address"
        }
      ],
      "name": "transferOwnership",
      "outputs": [],
      "stateMutability": "nonpayable",
      "type": "function"
    },
    {
      "inputs": [
        {
          "internalType": "address",
          "name": "holder",
          "type": "address"
        }
      ],
      "name": "updatedStake",
      "outputs": [],
      "stateMutability": "nonpayable",
      "type": "function"
    },
    {
      "inputs": [
        {
          "internalType": "enum Voting.ProposalUpdater",
          "name": "votingUpdater",
          "type": "uint8"
        },
        {
          "internalType": "string",
          "name": "updateData",
          "type": "string"
        }
      ],
      "name": "updaterValidateData",
      "outputs": [
        {
          "internalType": "bool",
          "name": "",
          "type": "bool"
        }
      ],
      "stateMutability": "pure",
      "type": "function"
    },
    {
      "inputs": [
        {
          "internalType": "uint256",
          "name": "issueId",
          "type": "uint256"
        },
        {
          "internalType": "bytes4",
          "name": "option",
          "type": "bytes4"
        }
      ],
      "name": "vote",
      "outputs": [
        {
          "internalType": "bool",
          "name": "",
          "type": "bool"
        }
      ],
      "stateMutability": "nonpayable",
      "type": "function"
    },
    {
      "inputs": [
        {
          "internalType": "uint256",
          "name": "issueId",
          "type": "uint256"
        },
        {
          "internalType": "uint256",
          "name": "option",
          "type": "uint256"
        }
      ],
      "name": "vote",
      "outputs": [
        {
          "internalType": "bool",
          "name": "",
          "type": "bool"
        }
      ],
      "stateMutability": "nonpayable",
      "type": "function"
    },
    {
      "inputs": [
        {
          "internalType": "uint256",
          "name": "issueId",
          "type": "uint256"
        },
        {
          "internalType": "address",
          "name": "addr",
          "type": "address"
        }
      ],
      "name": "weightOf",
      "outputs": [
        {
          "internalType": "uint256",
          "name": "",
          "type": "uint256"
        }
      ],
      "stateMutability": "view",
      "type": "function"
    },
    {
      "inputs": [
        {
          "internalType": "uint256",
          "name": "issueId",
          "type": "uint256"
        },
        {
          "internalType": "uint256",
          "name": "option",
          "type": "uint256"
        }
      ],
      "name": "weightedVoteCountsOf",
      "outputs": [
        {
          "internalType": "uint256",
          "name": "",
          "type": "uint256"
        }
      ],
      "stateMutability": "view",
      "type": "function"
    },
    {
      "inputs": [
        {
          "internalType": "address",
          "name": "rewardAddress",
          "type": "address"
        }
      ],
      "name": "setRewardAddress",
      "outputs": [],
      "stateMutability": "nonpayable",
      "type": "function"
    },
    {
      "inputs": [
        {
          "internalType": "uint256",
          "name": "reward",
          "type": "uint256"
        },
        {
          "internalType": "uint256",
          "name": "nonceId",
          "type": "uint256"
        },
        {
          "internalType": "bytes32",
          "name": "hash",
          "type": "bytes32"
        },
        {
          "internalType": "bytes",
          "name": "signature",
          "type": "bytes"
        }
      ],
      "name": "claimReward",
      "outputs": [
        {
          "internalType": "bool",
          "name": "",
          "type": "bool"
        }
      ],
      "stateMutability": "nonpayable",
      "type": "function"
    }
  ],
  "bytecode": "0x60806040526402540be40060035562278d006004556000620000296001600160e01b036200044016565b600080546001600160a01b0319166001600160a01b0383169081178255604051929350917f8be0079c531659141344cd1fd0a4f28419497f9722a3daafe3b4186f6b6457e0908290a350620000b36040516200008590620004ad565b60405180910390206040516200009b90620004ad565b6040519081900390206001600160e01b036200044416565b620000c5604051620000859062000496565b604080518082018252614e2080825261c35160208084018281526000808052600590925293517f05b8ccbb9d4d8fb16ea74ce3c29a41f1b461fbdaff4714a0d9a8eb05499746bc5592517f05b8ccbb9d4d8fb16ea74ce3c29a41f1b461fbdaff4714a0d9a8eb05499746bd5592519092919060008051602062005da483398151915290620001579085908590620004c3565b60405180910390a2604080518082018252838152602080820184815260016000819052600590925291517f1471eb6eb2c5e789fc3de43f8ce62938c7d1836ec861730447e2ada8fd81017b5590517f1471eb6eb2c5e789fc3de43f8ce62938c7d1836ec861730447e2ada8fd81017c55905160008051602062005da483398151915290620001e99085908590620004c3565b60405180910390a2604080518082018252838152602080820184815260026000819052600590925291517f89832631fb3c3307a103ba2c84ab569c64d6182a18893dcd163f0f1c2090733a5590517f89832631fb3c3307a103ba2c84ab569c64d6182a18893dcd163f0f1c2090733b55905160008051602062005da4833981519152906200027b9085908590620004c3565b60405180910390a2604080518082018252838152602080820184815260036000819052600590925291517fa9bc9a3a348c357ba16b37005d7e6b3236198c0e939f4af8c5f19b8deeb8ebc05590517fa9bc9a3a348c357ba16b37005d7e6b3236198c0e939f4af8c5f19b8deeb8ebc155905160008051602062005da4833981519152906200030d9085908590620004c3565b60405180910390a2604080518082018252838152602080820184815260046000819052600590925291517f3eec716f11ba9e820c81ca75eb978ffb45831ef8b7a53e5e422c26008e1ca6d55590517f3eec716f11ba9e820c81ca75eb978ffb45831ef8b7a53e5e422c26008e1ca6d655905160008051602062005da4833981519152906200039f9085908590620004c3565b60405180910390a26040805180820182528381526020808201848152600560008190529182905291517f458b30c2d72bfd2c6317304a4594ecbafe5f729d3111b65fdc3a33bd48e5432d5590517f458b30c2d72bfd2c6317304a4594ecbafe5f729d3111b65fdc3a33bd48e5432e55905160008051602062005da483398151915290620004309085908590620004c3565b60405180910390a25050620004d1565b3390565b600082815260016020526040808220600201549051839285917fbd79b86ffe0ab8e8776151514217cd7cacd52c909f66475c3af44e129f0b00ff9190a460009182526001602052604090912060020155565b6a564f54494e475f524f4c4560a81b8152600b0190565b6941444d494e5f524f4c4560b01b8152600a0190565b918252602082015260400190565b6158c380620004e16000396000f3fe608060405234801561001057600080fd5b50600436106102685760003560e01c806375b238fc11610151578063ae092e89116100c3578063e0136a7911610087578063e0136a7914610548578063eaac697a14610560578063f0464a2b14610573578063f2fde38b14610586578063f3da049e14610599578063f6621dc3146105a157610268565b8063ae092e89146104e0578063b384abef14610507578063c9c3d42e1461051a578063ca15c87314610522578063d547741f1461053557610268565b80639010d07c116101155780639010d07c1461047957806391d148541461048c578063933c13061461049f5780639d91cf9a146104b2578063a1629f92146104c5578063a217fddf146104d857610268565b806375b238fc1461042e578063761bbd8a146104365780638935ced51461043e5780638da5cb5b146104515780638e0a13721461046657610268565b80634883a6a8116101ea5780635e00e679116101ae5780635e00e679146103c75780636e6a1dc3146103da5780636f963fa1146103ed578063704802751461040057806370c88f3014610413578063715018a61461042657610268565b80634883a6a8146103595780634ba241d81461036c5780634c461f5a1461038e57806350381451146103a157806353c2d479146103b457610268565b806331aab8881161023157806331aab888146102f357806332ec991c1461031857806336568abe1461032b57806342346c5e1461033e57806346c6211e1461035157610268565b8062fe1bff1461026d57806312a70f0b146102965780631e01a172146102ab578063248a9ca3146102cb5780632f2ff15d146102de575b600080fd5b61028061027b366004614b85565b6105c2565b60405161028d9190614f88565b60405180910390f35b61029e61087b565b60405161028d9190614fa3565b6102be6102b9366004614af7565b610892565b60405161028d9190614fdf565b61029e6102d9366004614af7565b610970565b6102f16102ec366004614b0f565b610988565b005b610306610301366004614af7565b6109d0565b60405161028d96959493929190614f40565b61029e610326366004614db6565b610a1c565b6102f1610339366004614b0f565b610a7b565b61029e61034c366004614d63565b610abd565b61029e610b4c565b610280610367366004614de2565b610b53565b61037f61037a366004614b49565b610c3f565b60405161028d93929190615051565b6102f161039c366004614ad6565b610d77565b6102f16103af366004614cad565b610e1f565b6102f16103c2366004614bd2565b6114c5565b6102f16103d5366004614a91565b611c1f565b61029e6103e8366004614b49565b611caa565b6102806103fb366004614a91565b611d13565b6102f161040e366004614a91565b611e06565b6102f1610421366004614a91565b611e5b565b6102f1612237565b61029e6122b6565b61029e6122c2565b61029e61044c366004614db6565b6122c8565b610459612323565b60405161028d9190614f13565b610280610474366004614e12565b612332565b610459610487366004614b49565b612485565b61028061049a366004614b0f565b6124aa565b6102f16104ad366004614af7565b6124c8565b61029e6104c0366004614aac565b612a9a565b6102f16104d3366004614af7565b612ac2565b61029e612bcb565b6104f36104ee366004614af7565b612bd0565b60405161028d989796959493929190614ff2565b610280610515366004614b49565b612c35565b61029e613043565b61029e610530366004614af7565b613049565b6102f1610543366004614b0f565b613060565b61055061309a565b60405161028d9493929190615827565b6102be61056e366004614b49565b613167565b61029e610581366004614af7565b613286565b6102f1610594366004614a91565b6132ce565b610280613384565b6105b46105af366004614b6a565b613394565b60405161028d929190615869565b6000808360058111156105d157fe5b14156105df57506001610875565b60018360058111156105ed57fe5b141561061a5760006105fe83610abd565b905060c881101580156106125750610bb881105b915050610875565b600283600581111561062857fe5b141561065257600061063983610abd565b9050600a81101580156106125750605a10159050610875565b600383600581111561066057fe5b141561067c57600061067183610abd565b151591506108759050565b600483600581111561068a57fe5b14156108475781518290600d146106a057600080fd5b604080516001808252818301909252606091602082018180388339505060408051600680825281830190925292935060609291506020820181803883395050604080516006808252818301909252929350606092915060208201818038833901905050905060005b84518110156107d057600181101561075b578460008151811061072757fe5b602001015160f81c60f81b8460008151811061073f57fe5b60200101906001600160f81b031916908160001a9053506107c8565b600781101561078a5784818151811061077057fe5b602001015160f81c60f81b83600183038151811061073f57fe5b84818151811061079657fe5b602001015160f81c60f81b8260078303815181106107b057fe5b60200101906001600160f81b031916908160001a9053505b600101610708565b5060006107dc83610abd565b905060006107e983610abd565b9050600080831180156107ff5750620186a08311155b905080801561080e5750600082115b801561081d5750620186a08211155b90508080156108385750600461083287610abd565b60ff1611155b97506108759650505050505050565b600583600581111561085557fe5b1415610871576201518061086883610abd565b10159050610875565b5060005b92915050565b60405161088790614ee6565b604051809103902081565b6060816000811180156108a75750600b548111155b6108cc5760405162461bcd60e51b81526004016108c39061527e565b60405180910390fd5b6000838152600660209081526040918290206002908101805484516001821615610100026000190190911692909204601f8101849004840283018401909452838252909290918301828280156109635780601f1061093857610100808354040283529160200191610963565b820191906000526020600020905b81548152906001019060200180831161094657829003601f168201915b5050505050915050919050565b6000818152600160205260409020600201545b919050565b6000828152600160205260409020600201546109a69061049a6133f0565b6109c25760405162461bcd60e51b81526004016108c3906150ef565b6109cc82826133f4565b5050565b600080600080606060006109e2614709565b6109eb88613463565b8051602082015160408301516060840151608085015160a090950151939d929c50909a509850919650945092505050565b600082600081118015610a315750600b548111155b610a4d5760405162461bcd60e51b81526004016108c39061527e565b6001600160a01b038316600090815260096020908152604080832087845290915290205491505b5092915050565b610a836133f0565b6001600160a01b0316816001600160a01b031614610ab35760405162461bcd60e51b81526004016108c390615797565b6109cc828261389a565b80516000908290600190600019015b8251811015610b44576030838281518110610ae357fe5b016020015160f81c10801590610b0d57506039838281518110610b0257fe5b016020015160f81c11155b610b1357fe5b816030848381518110610b2257fe5b016020015160f81c0360ff16029390930192600a919091029060001901610acc565b505050919050565b6003545b90565b600082600081118015610b685750600b548111155b610b845760405162461bcd60e51b81526004016108c39061527e565b6279656160e81b626e617960e81b6001600160e01b03198516821480610bb657506001600160e01b0319858116908216145b610bd25760405162461bcd60e51b81526004016108c3906157e6565b60008681526006602052604081206003015460ff166001811115610bf257fe5b14610c0f5760405162461bcd60e51b81526004016108c390615329565b60006001600160e01b03198681169084161415610c2a575060015b610c348782613909565b979650505050505050565b606060008084600081118015610c575750600b548111155b610c735760405162461bcd60e51b81526004016108c39061527e565b6000868152600660205260409020600801548510610ca35760405162461bcd60e51b81526004016108c3906154a3565b6000868152600660205260408120600801805487908110610cc057fe5b60009182526020918290206003919091020180546040805160026001841615610100026000190190931692909204601f810185900485028301850190915280825291935091839190830182828015610d595780601f10610d2e57610100808354040283529160200191610d59565b820191906000526020600020905b815481529060010190602001808311610d3c57829003601f168201915b50505050509450806001015493508060020154925050509250925092565b610d94604051610d8690614ee6565b6040518091039020336124aa565b80610da95750610da9604051610d8690614efd565b610dc55760405162461bcd60e51b81526004016108c3906156e1565b6002805460ff60a01b1916600160a01b8415150217905560038190556040517f07b2940585ef57a3c794dd4c4e539be91c190416b66127b5a590330c140aac0290610e139084908490614f93565b60405180910390a15050565b610e2e604051610d8690614ee6565b80610e435750610e43604051610d8690614efd565b156111255786610e655760405162461bcd60e51b81526004016108c390615723565b610e6d613c30565b8411610e8b5760405162461bcd60e51b81526004016108c3906151ac565b600b805460010190819055610e9f90613c34565b600b546000908152600660205260409020610eb861474a565b60056000846005811115610ec857fe5b60ff16815260208082019290925260409081016000208151808301909252805482526001908101549282019290925283546001600160a01b031916331784559150610f169083018b8b614764565b50610f25600283018989614764565b508051600583810191909155602082015160078401556009830187905560038301805460ff1981168255859261ffff1990911690610100908490811115610f6857fe5b02179055506000836005811115610f7b57fe5b14610fec57610fc08386868080601f0160208091040260200160405190810160405280939291908181526020018383808284376000920191909152506105c292505050565b610fdc5760405162461bcd60e51b81526004016108c39061542a565b610fea600483018686614764565b505b6040805160a081018252600360608201818152626e617960e81b60808401528252600060208084018290529383018190526008860180546001810182559082529084902083518051949592909302019261104992849201906147e2565b50602082810151600180840191909155604093840151600290930192909255825160a0810184526003606082018181526279656160e81b60808401528252600082840181905294820185905260088701805494850181558552938290208151805192959490940201926110c09284929101906147e2565b506020820151600182015560409091015160029091015560005b336001600160a01b0316600b547f22910aa3d36b7721f45dfd4a366dd228fb8e9f8b0752b5cf6557acba94d2edd9866040516111169190614fca565b60405180910390a450506114bb565b600254600160a01b900460ff16156114a3576002546040516370a0823160e01b81526000916001600160a01b0316906370a0823190611168903390600401614f13565b60206040518083038186803b15801561118057600080fd5b505afa158015611194573d6000803e3d6000fd5b505050506040513d601f19601f820116820180604052506111b89190810190614d9e565b905060035481106114a157876111e05760405162461bcd60e51b81526004016108c390615723565b6111e8613c30565b85116112065760405162461bcd60e51b81526004016108c3906151ac565b600b80546001019081905561121a90613c34565b600b54600090815260066020526040902061123361474a565b6005600085600581111561124357fe5b60ff16815260208082019290925260409081016000208151808301909252805482526001908101549282019290925283546001600160a01b0319163317845591506112919083018c8c614764565b506112a0600283018a8a614764565b508051600583810191909155602082015160078401556009830188905560038301805460ff1981168255869261ffff19909116906101009084908111156112e357fe5b021790555060008460058111156112f657fe5b146113675761133b8487878080601f0160208091040260200160405190810160405280939291908181526020018383808284376000920191909152506105c292505050565b6113575760405162461bcd60e51b81526004016108c39061542a565b611365600483018787614764565b505b6040805160a081018252600360608201818152626e617960e81b6080840152825260006020808401829052938301819052600886018054600181018255908252908490208351805194959290930201926113c492849201906147e2565b50602082810151600180840191909155604093840151600290930192909255825160a0810184526003606082018181526279656160e81b608084015282526000828401819052948201859052600887018054948501815585529382902081518051929594909402019261143b9284929101906147e2565b506020820151600182015560409091015160029091015560005b336001600160a01b0316600b547f22910aa3d36b7721f45dfd4a366dd228fb8e9f8b0752b5cf6557acba94d2edd9876040516114919190614fca565b60405180910390a45050506114bb565b505b60405162461bcd60e51b81526004016108c3906156e1565b5050505050505050565b6114d4604051610d8690614ee6565b806114e957506114e9604051610d8690614efd565b1561187a578661150b5760405162461bcd60e51b81526004016108c390615723565b611513613c30565b84116115315760405162461bcd60e51b81526004016108c3906151ac565b600182116115515760405162461bcd60e51b81526004016108c39061523a565b600b80546001019081905561156590613c34565b600b54600090815260066020526040902061157e61474a565b6005600084600581111561158e57fe5b60ff16815260208082019290925260409081016000208151808301909252805482526001908101549282019290925283546001600160a01b0319163317845591506115dc9083018b8b614764565b506115eb600283018989614764565b508051600583810191909155602082015160078401556009830187905560038301805460ff1916600117808255859261ff00199091169061010090849081111561163157fe5b02179055506040805160a081018252600460608201908152630536b69760e41b60808301528152600060208083018290529282018190526008850180546001810182559082529083902082518051939460039093029091019261169792849201906147e2565b506020820151600182015560409091015160029091015560005b848110156118725760008460058111156116c757fe5b1461177d57611761848787848181106116dc57fe5b602002820190508035601e19368490030181126116f857600080fd5b9091016020810191503567ffffffffffffffff81111561171757600080fd5b3681900382131561172757600080fd5b8080601f0160208091040260200160405190810160405280939291908181526020018383808284376000920191909152506105c292505050565b61177d5760405162461bcd60e51b81526004016108c39061542a565b82600801604051806060016040528088888581811061179857fe5b602002820190508035601e19368490030181126117b457600080fd5b9091016020810191503567ffffffffffffffff8111156117d357600080fd5b368190038213156117e357600080fd5b8080601f01602080910402602001604051908101604052809392919081815260200183838082843760009201829052509385525050506020808301829052604090920181905283546001810185559381528190208251805193946003029091019261185192849201906147e2565b506020820151600180830191909155604090920151600290910155016116b1565b5060016110da565b600254600160a01b900460ff16156114a3576002546040516370a0823160e01b81526000916001600160a01b0316906370a08231906118bd903390600401614f13565b60206040518083038186803b1580156118d557600080fd5b505afa1580156118e9573d6000803e3d6000fd5b505050506040513d601f19601f8201168201806040525061190d9190810190614d9e565b905060035481106114a157876119355760405162461bcd60e51b81526004016108c390615723565b61193d613c30565b851161195b5760405162461bcd60e51b81526004016108c3906151ac565b6001831161197b5760405162461bcd60e51b81526004016108c39061523a565b600b80546001019081905561198f90613c34565b600b5460009081526006602052604090206119a861474a565b600560008560058111156119b857fe5b60ff16815260208082019290925260409081016000208151808301909252805482526001908101549282019290925283546001600160a01b031916331784559150611a069083018c8c614764565b50611a15600283018a8a614764565b508051600583810191909155602082015160078401556009830188905560038301805460ff1916600117808255869261ff001990911690610100908490811115611a5b57fe5b02179055506040805160a081018252600460608201908152630536b69760e41b608083015281526000602080830182905292820181905260088501805460018101825590825290839020825180519394600390930290910192611ac192849201906147e2565b506020820151600182015560409091015160029091015560005b85811015611c17576000856005811115611af157fe5b14611b2257611b06858888848181106116dc57fe5b611b225760405162461bcd60e51b81526004016108c39061542a565b826008016040518060600160405280898985818110611b3d57fe5b602002820190508035601e1936849003018112611b5957600080fd5b9091016020810191503567ffffffffffffffff811115611b7857600080fd5b36819003821315611b8857600080fd5b8080601f016020809104026020016040519081016040528093929190818152602001838380828437600092018290525093855250505060208083018290526040909201819052835460018101855593815281902082518051939460030290910192611bf692849201906147e2565b50602082015160018083019190915560409092015160029091015501611adb565b506001611455565b611c276133f0565b6000546001600160a01b03908116911614611c545760405162461bcd60e51b81526004016108c39061559c565b600c80546001600160a01b0319166001600160a01b0383161790556040517f9dcd13554f22035bbc407c5a35cbb867a5184edbfe7a2a57fe805a10ef8a094d90611c9f908390614f13565b60405180910390a150565b600082600081118015611cbf5750600b548111155b611cdb5760405162461bcd60e51b81526004016108c39061527e565b6000848152600660205260409020600801805484908110611cf857fe5b90600052602060002090600302016001015491505092915050565b6000611d32604051611d2490614ee6565b6040518091039020836124aa565b80611d475750611d47604051611d2490614efd565b15611d5457506001610983565b600254600160a01b900460ff1615611dfe57600254604051632c9aab9b60e11b81526000916001600160a01b031690635935573690611d97908690600401614f13565b60206040518083038186803b158015611daf57600080fd5b505afa158015611dc3573d6000803e3d6000fd5b505050506040513d601f19601f82011682018060405250611de79190810190614d9e565b90506003548110611dfc576001915050610983565b505b506000919050565b611e0e6133f0565b6000546001600160a01b03908116911614611e3b5760405162461bcd60e51b81526004016108c39061559c565b611e58604051611e4a90614efd565b6040518091039020826109c2565b50565b6002546001600160a01b03163314611e7257600080fd5b6001600160a01b0381166000908152600a6020908152604091829020805483518184028101840190945280845260609392830182828015611ed257602002820191906000526020600020905b815481526020019060010190808311611ebe575b50505050509050805160001415611ee95750611e58565b6002546040805163ca5c7b9160e01b815290516000926001600160a01b03169163ca5c7b91916004808301926020929190829003018186803b158015611f2e57600080fd5b505afa158015611f42573d6000803e3d6000fd5b505050506040513d601f19601f82011682018060405250611f669190810190614d9e565b600254604051632c9aab9b60e11b81529192506000916001600160a01b0390911690635935573690611f9c908790600401614f13565b60206040518083038186803b158015611fb457600080fd5b505afa158015611fc8573d6000803e3d6000fd5b505050506040513d601f19601f82011682018060405250611fec9190810190614d9e565b905060606000805b855181101561220457600086828151811061200b57fe5b602002602001015190506000600660008381526020019081526020016000209050612034613c30565b816009015410156120465750506121fc565b6001600160a01b038916600090815260096020908152604080832085845290915290208661212757600b82018054600019019055600181018054600a8401805491909103905554815460088401805490919081106120a057fe5b906000526020600020906003020160020160008282540392505081905550816008018160000154815481106120d157fe5b6000918252602082206001600390920201810180546000190190558201556005820154600a8301548990620186a0028161210757fe5b6006909401805460ff191691909404919091101517909155506121fc9050565b868160010154111561216d57868160010154038260080182600001548154811061214d57fe5b6000918252602090912060026003909202010180549190910390556121a2565b806001015487038260080182600001548154811061218757fe5b60009182526020909120600260039092020101805490910190555b600181018790556005820154600a8301548990620186a002816121c157fe5b60068501805460ff1916929091049290921015179055855183908790879081106121e757fe5b60209081029190910101525050600190920191505b600101611ff4565b506001600160a01b0386166000908152600a60209081526040909120835161222e92850190614850565b50505050505050565b61223f6133f0565b6000546001600160a01b0390811691161461226c5760405162461bcd60e51b81526004016108c39061559c565b600080546040516001600160a01b03909116907f8be0079c531659141344cd1fd0a4f28419497f9722a3daafe3b4186f6b6457e0908390a3600080546001600160a01b0319169055565b60405161088790614efd565b600b5490565b6000826000811180156122dd5750600b548111155b6122f95760405162461bcd60e51b81526004016108c39061527e565b50506001600160a01b03166000908152600960209081526040808320938352929052206001015490565b6000546001600160a01b031690565b336000908152600d602052604081205485146123605760405162461bcd60e51b81526004016108c39061513e565b6123a286868686868080601f016020809104026020016040519081016040528093929190818152602001838380828437600092019190915250613ce992505050565b6123be5760405162461bcd60e51b81526004016108c3906153a8565b336000818152600d60205260409081902080546001019055600254905163f3fef3a360e01b81526001600160a01b039091169163f3fef3a39161240691908a90600401614f27565b600060405180830381600087803b15801561242057600080fd5b505af1158015612434573d6000803e3d6000fd5b50505050336001600160a01b03167fb52d0e0c45bba15833f7d429ccdcc4c2bfa8eea764774706120027b76734a44f876040516124719190614fa3565b60405180910390a250600195945050505050565b60008281526001602052604081206124a3908363ffffffff613d6216565b9392505050565b60008281526001602052604081206124a3908363ffffffff613d6e16565b6124d0614709565b6124d982613463565b80519091506001600160a01b03163314806124fe57506124fe604051610d8690614ee6565b806125135750612513604051610d8690614efd565b61252f5760405162461bcd60e51b81526004016108c3906156e1565b8060a00151156125515760405162461bcd60e51b81526004016108c390615523565b61255961488a565b61256283613d83565b905060008160400151600581111561257657fe5b14156125945760405162461bcd60e51b81526004016108c390615750565b61259c613c30565b816101200151106125bf5760405162461bcd60e51b81526004016108c390615620565b6125c7613c30565b60045482610120015101116125ee5760405162461bcd60e51b81526004016108c390615669565b8060c0015161260f5760405162461bcd60e51b81526004016108c3906152e4565b82600760008360400151600581111561262457fe5b60ff1660ff1681526020019081526020016000205411156126575760405162461bcd60e51b81526004016108c3906155d1565b606060018260200151600181111561266b57fe5b141561273557600660008581526020019081526020016000206008018260e001518154811061269657fe5b6000918252602091829020600390910201805460408051601f60026000196101006001871615020190941693909304928301859004850281018501909152818152928301828280156127295780601f106126fe57610100808354040283529160200191612729565b820191906000526020600020905b81548152906001019060200180831161270c57829003601f168201915b5050505050905061273c565b5060808201515b60018260400151600581111561274e57fe5b14156127c3576002546001600160a01b031663c108a4028561276f84610abd565b6040518363ffffffff1660e01b815260040161278c929190615869565b600060405180830381600087803b1580156127a657600080fd5b505af11580156127ba573d6000803e3d6000fd5b50505050612a07565b6002826040015160058111156127d557fe5b14156127f6576002546001600160a01b031663ac3cd7c68561276f84610abd565b60038260400151600581111561280857fe5b141561281f5761281781610abd565b600355612a07565b60048260400151600581111561283157fe5b14156129e25760408051600180825281830190925282916060919060208201818038833950506040805160068082528183019092529293506060929150602082018180388339505060408051600680825281830190925292935060609291506020820181803883390190505090508351600d146128ad57600080fd5b60005b845181101561297857600181101561290357846000815181106128cf57fe5b602001015160f81c60f81b846000815181106128e757fe5b60200101906001600160f81b031916908160001a905350612970565b60078110156129325784818151811061291857fe5b602001015160f81c60f81b8360018303815181106128e757fe5b84818151811061293e57fe5b602001015160f81c60f81b82600783038151811061295857fe5b60200101906001600160f81b031916908160001a9053505b6001016128b0565b50600061298483610abd565b9050600061299183610abd565b9050604051806040016040528083815260200182815250600560006129b588610abd565b60ff1681526020808201929092526040016000208251815591015160019091015550612a07945050505050565b6005826040015160058111156129f457fe5b1415612a0757612a0381610abd565b6004555b600084815260066020526040808220600c01805460ff1916600117905583015185916007916005811115612a3757fe5b60ff1660ff16815260200190815260200160002081905550336001600160a01b031682604001516005811115612a6957fe5b60405186907f76ddf1c56562a7f2299089b84bd25caab82ee275576eb7984361159f17d63eac90600090a450505050565b6001600160a01b03919091166000908152600860209081526040808320938352929052205490565b80600081118015612ad55750600b548111155b612af15760405162461bcd60e51b81526004016108c39061527e565b6000828152600660205260409020546001600160a01b03163314612b275760405162461bcd60e51b81526004016108c3906156e1565b336000908152600860209081526040808320858452909152902054612b5e5760405162461bcd60e51b81526004016108c3906152b5565b612b6661488a565b612b6f83613d83565b9050612b79613c30565b81610120015110612b9c5760405162461bcd60e51b81526004016108c390615620565b8060c00151612bbd5760405162461bcd60e51b81526004016108c3906152e4565b612bc68361436b565b505050565b600081565b60606000806000806000806000612be561488a565b612bee8a613d83565b905080600001519850806020015197508060400151965080606001519550806080015194508060a0015193508060c001519250806101200151915050919395975091939597565b600082600081118015612c4a5750600b548111155b612c665760405162461bcd60e51b81526004016108c39061527e565b612c6e6148e4565b60008581526006602090815260409182902082516101c08101845281546001600160a01b03168152600180830180548651600261010094831615949094026000190190911692909204601f8101869004860283018601909652858252919492938581019391929190830182828015612d275780601f10612cfc57610100808354040283529160200191612d27565b820191906000526020600020905b815481529060010190602001808311612d0a57829003601f168201915b5050509183525050600282810180546040805160206001841615610100026000190190931694909404601f81018390048302850183019091528084529381019390830182828015612db95780601f10612d8e57610100808354040283529160200191612db9565b820191906000526020600020905b815481529060010190602001808311612d9c57829003601f168201915b5050509183525050600382015460209091019060ff166001811115612dda57fe5b6001811115612de557fe5b81526020016003820160019054906101000a900460ff166005811115612e0757fe5b6005811115612e1257fe5b815260048201805460408051602060026001851615610100026000190190941693909304601f8101849004840282018401909252818152938201939291830182828015612ea05780601f10612e7557610100808354040283529160200191612ea0565b820191906000526020600020905b815481529060010190602001808311612e8357829003601f168201915b50505050508152602001600582015481526020016006820160009054906101000a900460ff161515151581526020016007820154815260200160088201805480602002602001604051908101604052809291908181526020016000905b82821015612fd25760008481526020908190206040805160038602909201805460026001821615610100026000190190911604601f8101859004909402830160809081019092526060830184815292939092849290918491840182828015612fa65780601f10612f7b57610100808354040283529160200191612fa6565b820191906000526020600020905b815481529060010190602001808311612f8957829003601f168201915b505050505081526020016001820154815260200160028201548152505081526020019060010190612efd565b5050509082525060098201546020820152600a8201546040820152600b8201546060820152600c9091015460ff1615156080909101526101208101515190915084106130305760405162461bcd60e51b81526004016108c3906154a3565b61303a8585613909565b95945050505050565b60045490565b600081815260016020526040812061087590614435565b60008281526001602052604090206002015461307e9061049a6133f0565b610ab35760405162461bcd60e51b81526004016108c3906154d3565b600b546000818152600660209081526040808320600190810180548351600293821615610100026000190190911692909204601f8101859004850283018501909352828252606094938493908301828280156131375780601f1061310c57610100808354040283529160200191613137565b820191906000526020600020905b81548152906001019060200180831161311a57829003601f168201915b5050506000878152600660205260409020600301549697929660ff80821697506101009091041694509192505050565b60608260008111801561317c5750600b548111155b6131985760405162461bcd60e51b81526004016108c39061527e565b60008481526006602052604090206008015483106131c85760405162461bcd60e51b81526004016108c3906154a3565b60008481526006602052604090206008018054849081106131e557fe5b6000918252602091829020600390910201805460408051601f60026000196101006001871615020190941693909304928301859004850281018501909152818152928301828280156132785780601f1061324d57610100808354040283529160200191613278565b820191906000526020600020905b81548152906001019060200180831161325b57829003601f168201915b505050505091505092915050565b60008160008111801561329b5750600b548111155b6132b75760405162461bcd60e51b81526004016108c39061527e565b505060009081526006602052604090206008015490565b6132d66133f0565b6000546001600160a01b039081169116146133035760405162461bcd60e51b81526004016108c39061559c565b6001600160a01b0381166133295760405162461bcd60e51b81526004016108c3906151f4565b600080546040516001600160a01b03808516939216917f8be0079c531659141344cd1fd0a4f28419497f9722a3daafe3b4186f6b6457e091a3600080546001600160a01b0319166001600160a01b0392909216919091179055565b600254600160a01b900460ff1690565b600080600560008460058111156133a757fe5b60ff1660ff168152602001908152602001600020600001549150600560008460058111156133d157fe5b60ff1660ff168152602001908152602001600020600101549050915091565b3390565b6000828152600160205260409020613412908263ffffffff61444016565b156109cc5761341f6133f0565b6001600160a01b0316816001600160a01b0316837f2f8788117e7eff1d82e926ec794901d17c78024a50270940304540a733656f0d60405160405180910390a45050565b61346b614709565b8160008111801561347e5750600b548111155b61349a5760405162461bcd60e51b81526004016108c39061527e565b6134a26148e4565b60008481526006602090815260409182902082516101c08101845281546001600160a01b03168152600180830180548651600261010094831615949094026000190190911692909204601f810186900486028301860190965285825291949293858101939192919083018282801561355b5780601f106135305761010080835404028352916020019161355b565b820191906000526020600020905b81548152906001019060200180831161353e57829003601f168201915b5050509183525050600282810180546040805160206001841615610100026000190190931694909404601f810183900483028501830190915280845293810193908301828280156135ed5780601f106135c2576101008083540402835291602001916135ed565b820191906000526020600020905b8154815290600101906020018083116135d057829003601f168201915b5050509183525050600382015460209091019060ff16600181111561360e57fe5b600181111561361957fe5b81526020016003820160019054906101000a900460ff16600581111561363b57fe5b600581111561364657fe5b815260048201805460408051602060026001851615610100026000190190941693909304601f81018490048402820184019092528181529382019392918301828280156136d45780601f106136a9576101008083540402835291602001916136d4565b820191906000526020600020905b8154815290600101906020018083116136b757829003601f168201915b50505050508152602001600582015481526020016006820160009054906101000a900460ff161515151581526020016007820154815260200160088201805480602002602001604051908101604052809291908181526020016000905b828210156138065760008481526020908190206040805160038602909201805460026001821615610100026000190190911604601f81018590049094028301608090810190925260608301848152929390928492909184918401828280156137da5780601f106137af576101008083540402835291602001916137da565b820191906000526020600020905b8154815290600101906020018083116137bd57829003601f168201915b505050505081526020016001820154815260200160028201548152505081526020019060010190613731565b505050908252506009820154602080830191909152600a830154604080840191909152600b840154606080850191909152600c9094015460ff16151560809384015284516001600160a01b0316885260c085015191880191909152610100840151908701526101808301519186019190915260a080830151918601919091526101a090910151151590840152509092915050565b60008281526001602052604090206138b8908263ffffffff61445516565b156109cc576138c56133f0565b6001600160a01b0316816001600160a01b0316837ff6391f5c32d9c69d2a47ea670b442974b53935d1edc7fd64eb21e047a839171b60405160405180910390a45050565b60008260008111801561391e5750600b548111155b61393a5760405162461bcd60e51b81526004016108c39061527e565b6000848152600660205260409020613950613c30565b81600901541015613965576000925050610a74565b600254604051632c9aab9b60e11b815233916000916001600160a01b039091169063593557369061399a908590600401614f13565b60206040518083038186803b1580156139b257600080fd5b505afa1580156139c6573d6000803e3d6000fd5b505050506040513d601f19601f820116820180604052506139ea9190810190614d9e565b905060008111613a0c5760405162461bcd60e51b81526004016108c3906153df565b6001600160a01b03821660009081526009602090815260408083208a845290915290206001015415613a505760405162461bcd60e51b81526004016108c390615371565b60408051808201825287815260208082018481526001600160a01b0386166000908152600983528481208c8252909252929020905181559051600191820155600b840180549091019055600a830180548201905560088301805487908110613ab457fe5b90600052602060002090600302016001016000815480929190600101919050555080836008018781548110613ae557fe5b6000918252602090912060026003909202010180549091019055600683015460ff16613bb9576002546040805163ca5c7b9160e01b815290516000926001600160a01b03169163ca5c7b91916004808301926020929190829003018186803b158015613b5057600080fd5b505afa158015613b64573d6000803e3d6000fd5b505050506040513d601f19601f82011682018060405250613b889190810190614d9e565b84600a0154620186a00281613b9957fe5b04905083600501548110613bb75760068401805460ff191660011790555b505b336000908152600a60209081526040808320805460018101825590845291909220018890555186906001600160a01b0384169089907f8eea3a81425aea5e440ed6b6289a8aea0db8025c75fdeb1434bd81650177034090613c1b908690614fa3565b60405180910390a45060019695505050505050565b4290565b613c43604051610d8690614ee6565b80613c585750613c58604051610d8690614efd565b15613c6257611e58565b600354336000818152600860209081526040808320868452909152908190208390556002549051631131011960e21b81526001600160a01b03909116926344c4046492613cb492909190600401614f27565b600060405180830381600087803b158015613cce57600080fd5b505af1158015613ce2573d6000803e3d6000fd5b5050505050565b600080338686604051602001613d0193929190614ebc565b604051602081830303815290604052805190602001209050808414613d385760405162461bcd60e51b81526004016108c3906156aa565b600c546001600160a01b0316613d4e858561446a565b6001600160a01b0316149695505050505050565b60006124a38383614598565b60006124a3836001600160a01b0384166145dd565b613d8b61488a565b81600081118015613d9e5750600b548111155b613dba5760405162461bcd60e51b81526004016108c39061527e565b613dc26148e4565b60008481526006602090815260409182902082516101c08101845281546001600160a01b03168152600180830180548651600261010094831615949094026000190190911692909204601f8101869004860283018601909652858252919492938581019391929190830182828015613e7b5780601f10613e5057610100808354040283529160200191613e7b565b820191906000526020600020905b815481529060010190602001808311613e5e57829003601f168201915b5050509183525050600282810180546040805160206001841615610100026000190190931694909404601f81018390048302850183019091528084529381019390830182828015613f0d5780601f10613ee257610100808354040283529160200191613f0d565b820191906000526020600020905b815481529060010190602001808311613ef057829003601f168201915b5050509183525050600382015460209091019060ff166001811115613f2e57fe5b6001811115613f3957fe5b81526020016003820160019054906101000a900460ff166005811115613f5b57fe5b6005811115613f6657fe5b815260048201805460408051602060026001851615610100026000190190941693909304601f8101849004840282018401909252818152938201939291830182828015613ff45780601f10613fc957610100808354040283529160200191613ff4565b820191906000526020600020905b815481529060010190602001808311613fd757829003601f168201915b50505050508152602001600582015481526020016006820160009054906101000a900460ff161515151581526020016007820154815260200160088201805480602002602001604051908101604052809291908181526020016000905b828210156141265760008481526020908190206040805160038602909201805460026001821615610100026000190190911604601f81018590049094028301608090810190925260608301848152929390928492909184918401828280156140fa5780601f106140cf576101008083540402835291602001916140fa565b820191906000526020600020905b8154815290600101906020018083116140dd57829003601f168201915b505050505081526020016001820154815260200160028201548152505081526020019060010190614051565b505050908252506009820154602080830191909152600a8301546040830152600b830154606080840191909152600c9093015460ff16151560809092019190915282810151865290820151919250840190600181111561418257fe5b9081600181111561418f57fe5b9052506080810151604084019060058111156141a757fe5b908160058111156141b457fe5b90525061014081015161012084015260e0810151151560a08401526000836020015160018111156141e157fe5b141561428f578061012001516000815181106141f957fe5b60200260200101516040015183606001818152505080610120015160018151811061422057fe5b60200260200101516040015183608001818152505061423d613c30565b83610120015110801561425157508260a001515b15614282578061016001518360800151620186a0028161426d57fe5b610100830151919004101560c084015261428a565b600060c08401525b614364565b614297613c30565b8361012001511080156142ab57508260a001515b1561435c576000805b82610120015151811015614337576142ca61496b565b83610120015182815181106142db57fe5b6020026020010151905082816040015111156143195760e086018290526040810151610100870151909350156143145760006101008701525b61432e565b828160400151141561432e5760016101008701525b506001016142b4565b5083610100015115801561434f575060008460e00151115b151560c085015250614364565b600060c08401525b5050919050565b61437a604051610d8690614ee6565b8061438f575061438f604051610d8690614efd565b1561439957611e58565b60025433600081815260086020908152604080832086845290915290819020549051633ba71a1560e01b81526001600160a01b0390931692633ba71a15926143e5929091600401614f27565b600060405180830381600087803b1580156143ff57600080fd5b505af1158015614413573d6000803e3d6000fd5b5050336000908152600860209081526040808320868452909152812055505050565b6000610875826145f5565b60006124a3836001600160a01b0384166145f9565b60006124a3836001600160a01b038416614643565b6000815160411461448d5760405162461bcd60e51b81526004016108c390615175565b60208201516040830151606084015160001a7f7fffffffffffffffffffffffffffffff5d576e7357a4501ddfe92f46681b20a08211156144df5760405162461bcd60e51b81526004016108c390615461565b8060ff16601b141580156144f757508060ff16601c14155b156145145760405162461bcd60e51b81526004016108c39061555a565b6000600187838686604051600081526020016040526040516145399493929190614fac565b6020604051602081039080840390855afa15801561455b573d6000803e3d6000fd5b5050604051601f1901519150506001600160a01b03811661458e5760405162461bcd60e51b81526004016108c390615076565b9695505050505050565b815460009082106145bb5760405162461bcd60e51b81526004016108c3906150ad565b8260000182815481106145ca57fe5b9060005260206000200154905092915050565b60009081526001919091016020526040902054151590565b5490565b600061460583836145dd565b61463b57508154600181810184556000848152602080822090930184905584548482528286019093526040902091909155610875565b506000610875565b600081815260018301602052604081205480156146ff578354600019808301919081019060009087908390811061467657fe5b906000526020600020015490508087600001848154811061469357fe5b6000918252602080832090910192909255828152600189810190925260409020908401905586548790806146c357fe5b60019003818190600052602060002001600090559055866001016000878152602001908152602001600020600090556001945050505050610875565b6000915050610875565b6040518060c0016040528060006001600160a01b03168152602001600081526020016000815260200160008152602001606081526020016000151581525090565b604051806040016040528060008152602001600081525090565b828054600181600116156101000203166002900490600052602060002090601f016020900481019282601f106147a55782800160ff198235161785556147d2565b828001600101855582156147d2579182015b828111156147d25782358255916020019190600101906147b7565b506147de92915061498c565b5090565b828054600181600116156101000203166002900490600052602060002090601f016020900481019282601f1061482357805160ff19168380011785556147d2565b828001600101855582156147d2579182015b828111156147d2578251825591602001919060010190614835565b8280548282559060005260206000209081019282156147d257916020028201828111156147d2578251825591602001919060010190614835565b60408051610140810190915260608152602081016000815260200160008152602001600081526020016000815260200160001515815260200160001515815260200160008152602001600015158152602001600081525090565b604051806101c0016040528060006001600160a01b0316815260200160608152602001606081526020016000600181111561491b57fe5b815260200160008152602001606081526020016000815260200160001515815260200160008152602001606081526020016000815260200160008152602001600081526020016000151581525090565b60405180606001604052806060815260200160008152602001600081525090565b610b5091905b808211156147de5760008155600101614992565b80356001600160a01b038116811461087557600080fd5b60008083601f8401126149ce578182fd5b50813567ffffffffffffffff8111156149e5578182fd5b6020830191508360208285010111156149fd57600080fd5b9250929050565b80356006811061087557600080fd5b600082601f830112614a23578081fd5b813567ffffffffffffffff80821115614a3a578283fd5b604051601f8301601f191681016020018281118282101715614a5a578485fd5b604052828152925082848301602001861015614a7557600080fd5b8260208601602083013760006020848301015250505092915050565b600060208284031215614aa2578081fd5b6124a383836149a6565b60008060408385031215614abe578081fd5b614ac884846149a6565b946020939093013593505050565b60008060408385031215614ae8578182fd5b82358015158114614ac8578283fd5b600060208284031215614b08578081fd5b5035919050565b60008060408385031215614b21578182fd5b8235915060208301356001600160a01b0381168114614b3e578182fd5b809150509250929050565b60008060408385031215614b5b578182fd5b50508035926020909101359150565b600060208284031215614b7b578081fd5b6124a38383614a04565b60008060408385031215614b97578182fd5b614ba18484614a04565b9150602083013567ffffffffffffffff811115614bbc578182fd5b614bc885828601614a13565b9150509250929050565b60008060008060008060008060a0898b031215614bed578384fd5b883567ffffffffffffffff80821115614c04578586fd5b614c108c838d016149bd565b909a50985060208b0135915080821115614c28578586fd5b614c348c838d016149bd565b909850965060408b0135955060608b0135915080821115614c53578485fd5b818b018c601f820112614c64578586fd5b8035925081831115614c74578586fd5b8c60208085028301011115614c87578586fd5b6020019450909250614c9e90508a60808b01614a04565b90509295985092959890939650565b60008060008060008060008060a0898b031215614cc8578384fd5b883567ffffffffffffffff80821115614cdf578586fd5b614ceb8c838d016149bd565b909a50985060208b0135915080821115614d03578586fd5b614d0f8c838d016149bd565b909850965060408b0135955060608b0135915080821115614d2e578485fd5b50614d3b8b828c016149bd565b909450925050608089013560068110614d52578182fd5b809150509295985092959890939650565b600060208284031215614d74578081fd5b813567ffffffffffffffff811115614d8a578182fd5b614d9684828501614a13565b949350505050565b600060208284031215614daf578081fd5b5051919050565b60008060408385031215614dc8578182fd5b82359150614dd984602085016149a6565b90509250929050565b60008060408385031215614df4578182fd5b8235915060208301356001600160e01b031981168114614b3e578182fd5b600080600080600060808688031215614e29578283fd5b853594506020860135935060408601359250606086013567ffffffffffffffff811115614e54578182fd5b614e60888289016149bd565b969995985093965092949392505050565b60008151808452815b81811015614e9657602081850181015186830182015201614e7a565b81811115614ea75782602083870101525b50601f01601f19169290920160200192915050565b60609390931b6bffffffffffffffffffffffff191683526014830191909152603482015260540190565b6a564f54494e475f524f4c4560a81b8152600b0190565b6941444d494e5f524f4c4560b01b8152600a0190565b6001600160a01b0391909116815260200190565b6001600160a01b03929092168252602082015260400190565b600060018060a01b038816825286602083015285604083015284606083015260c06080830152614f7360c0830185614e71565b905082151560a0830152979650505050505050565b901515815260200190565b9115158252602082015260400190565b90815260200190565b93845260ff9290921660208401526040830152606082015260800190565b60208101614fd783615882565b825292915050565b6000602082526124a36020830184614e71565b60006101008083526150068184018c614e71565b91505061501289615877565b602083015261502088615882565b60408301526060820196909652608081019490945291151560a0840152151560c083015260e0909101529392505050565b6000606082526150646060830186614e71565b60208301949094525060400152919050565b60208082526018908201527f45434453413a20696e76616c6964207369676e61747572650000000000000000604082015260600190565b60208082526022908201527f456e756d657261626c655365743a20696e646578206f7574206f6620626f756e604082015261647360f01b606082015260800190565b6020808252602f908201527f416363657373436f6e74726f6c3a2073656e646572206d75737420626520616e60408201526e0818591b5a5b881d1bc819dc985b9d608a1b606082015260800190565b6020808252601c908201527f526577617264696e673a20696e636f7272656374206e6f6e6365496400000000604082015260600190565b6020808252601f908201527f45434453413a20696e76616c6964207369676e6174757265206c656e67746800604082015260600190565b60208082526028908201527f566f74696e673a2074696d65206d75737420626520626967676572207468616e6040820152670818dd5c9c995b9d60c21b606082015260800190565b60208082526026908201527f4f776e61626c653a206e6577206f776e657220697320746865207a65726f206160408201526564647265737360d01b606082015260800190565b60208082526024908201527f566f74696e673a206d757374206265206174206c656173742074776f206f7074604082015263696f6e7360e01b606082015260800190565b6020808252601f908201527f566f74696e673a2070726f706f73616c20646f6573206e6f7420657869737400604082015260600190565b602080825260159082015274159bdd1a5b99ce88195b5c1d1e4819195c1bdcda5d605a1b604082015260600190565b60208082526025908201527f566f74696e673a20746869732070726f706f73616c206974206e6f7420616363604082015264195c1d195960da1b606082015260800190565b60208082526028908201527f566f74696e673a20706c656173652063686f6f736520616e206f7074696f6e206040820152670c4f240d2dcc8caf60c31b606082015260800190565b6020808252601e908201527f566f74696e673a20796f75206861766520616c726561647920766f7465640000604082015260600190565b6020808252601e908201527f526577617264696e673a20696e636f7272656374207369676e61747572650000604082015260600190565b6020808252602b908201527f566f74696e673a20796f75206861766520746f206c6f636b20796f757220746f60408201526a6b656e73206265666f726560a81b606082015260800190565b6020808252601f908201527f566f74696e673a20696e636f7272656374207570646174696e67206461746100604082015260600190565b60208082526022908201527f45434453413a20696e76616c6964207369676e6174757265202773272076616c604082015261756560f01b606082015260800190565b602080825260169082015275566f74696e673a206f7574206f6620696e646578657360501b604082015260600190565b60208082526030908201527f416363657373436f6e74726f6c3a2073656e646572206d75737420626520616e60408201526f2061646d696e20746f207265766f6b6560801b606082015260800190565b60208082526018908201527f566f74696e673a20616c72656164792065786563757465640000000000000000604082015260600190565b60208082526022908201527f45434453413a20696e76616c6964207369676e6174757265202776272076616c604082015261756560f01b606082015260800190565b6020808252818101527f4f776e61626c653a2063616c6c6572206973206e6f7420746865206f776e6572604082015260600190565b6020808252602f908201527f566f74696e673a2064656e69656420746f20657865637574652074686520726560408201526e1c1b1858d959081c1c9bdc1bdcd85b608a1b606082015260800190565b60208082526029908201527f566f74696e673a20766f74696e6720706572696f64206973206e6f742066696e6040820152681a5cda1959081e595d60ba1b606082015260800190565b60208082526021908201527f566f74696e673a20657865637574696f6e2074696d65206973206578706972656040820152601960fa1b606082015260800190565b60208082526019908201527f526577617264696e673a20696e636f7272656374206861736800000000000000604082015260600190565b60208082526022908201527f566f74696e673a20796f7520646f206e6f742068617665207065726d6973736960408201526137b760f11b606082015260800190565b602080825260139082015272566f74696e673a20656d707479207469746c6560681b604082015260600190565b60208082526027908201527f566f74696e673a20746869732070726f706f73616c206973206e6f742065786560408201526663757461626c6560c81b606082015260800190565b6020808252602f908201527f416363657373436f6e74726f6c3a2063616e206f6e6c792072656e6f756e636560408201526e103937b632b9903337b91039b2b63360891b606082015260800190565b60208082526021908201527f566f74696e673a20796f752073686f756c642073617920796561206f72206e616040820152607960f81b606082015260800190565b6000858252608060208301526158406080830186614e71565b905061584b84615877565b60408301526006831061585a57fe5b82606083015295945050505050565b918252602082015260400190565b806002811061098357fe5b806006811061098357fefea2646970667358221220f72c4724425bce483b08f569603d6d5b85b791c9f24fe283051c4970208d584a64736f6c63430006020033a8a1fd55aad9bd98e45291d680690c619e60f7931ecaeb384ba0bfb225cd25fe",
  "source": "// SPDX-License-Identifier: GPL-3.0\npragma solidity 0.6.2;\npragma experimental ABIEncoderV2;\n\nimport \"./Voting.sol\";\nimport \"../../node_modules/openzeppelin-solidity/contracts/cryptography/ECDSA.sol\";\n\n\ncontract Rewarding is Voting {\n\n    address private _verifyRewardAddress;\n\n    mapping (address => uint) private _nonces;\n\n    event SetVerifyRewardAddress(address addr);\n    event ClaimStakingReward(address indexed recipient, uint amount);\n\n    function setRewardAddress(address rewardAddress) external onlyOwner {\n        _verifyRewardAddress = rewardAddress;\n        emit SetVerifyRewardAddress(rewardAddress);\n    }\n\n    function claimReward(\n        uint reward,\n        uint nonceId,\n        bytes32 hash,\n        bytes calldata signature\n    ) external returns (bool) {\n        require(nonceId == _nonces[msg.sender], \"Rewarding: incorrect nonceId\");\n        require(verifyReward(reward, nonceId, hash, signature), \"Rewarding: incorrect signature\");\n        _nonces[msg.sender]++;\n        _Token.withdraw(msg.sender, reward);\n        emit ClaimStakingReward(msg.sender, reward);\n        return true;\n    }\n\n    function verifyReward(\n        uint reward,\n        uint nonceId,\n        bytes32 hash,\n        bytes memory signature\n    )\n    internal view\n    returns (bool) {\n        bytes32 verifyHash = keccak256(abi.encodePacked(msg.sender, reward, nonceId));\n        require(hash == verifyHash, \"Rewarding: incorrect hash\");\n        return ECDSA.recover(hash, signature) == _verifyRewardAddress;\n    }\n\n}\n",
  "sourcePath": "/home/pirat/Desktop/DAO_update/DAO/contracts/DAO/Rewarding.sol",
  "compiler": {
    "name": "solc",
    "version": "0.6.2+commit.bacdbe57.Emscripten.clang"
  },
  "schemaVersion": "3.2.5",
  "updatedAt": "2021-08-16T15:52:52.509Z",
  "devdoc": {
    "methods": {
      "getRoleAdmin(bytes32)": {
        "details": "Returns the admin role that controls `role`. See {grantRole} and {revokeRole}.     * To change a role's admin, use {_setRoleAdmin}."
      },
      "getRoleMember(bytes32,uint256)": {
        "details": "Returns one of the accounts that have `role`. `index` must be a value between 0 and {getRoleMemberCount}, non-inclusive.     * Role bearers are not sorted in any particular way, and their ordering may change at any point.     * WARNING: When using {getRoleMember} and {getRoleMemberCount}, make sure you perform all queries on the same block. See the following https://forum.openzeppelin.com/t/iterating-over-elements-on-enumerableset-in-openzeppelin-contracts/2296[forum post] for more information."
      },
      "getRoleMemberCount(bytes32)": {
        "details": "Returns the number of accounts that have `role`. Can be used together with {getRoleMember} to enumerate all bearers of a role."
      },
      "grantRole(bytes32,address)": {
        "details": "Grants `role` to `account`.     * If `account` had not been already granted `role`, emits a {RoleGranted} event.     * Requirements:     * - the caller must have ``role``'s admin role."
      },
      "hasRole(bytes32,address)": {
        "details": "Returns `true` if `account` has been granted `role`."
      },
      "owner()": {
        "details": "Returns the address of the current owner."
      },
      "renounceOwnership()": {
        "details": "Leaves the contract without owner. It will not be possible to call `onlyOwner` functions anymore. Can only be called by the current owner.     * NOTE: Renouncing ownership will leave the contract without an owner, thereby removing any functionality that is only available to the owner."
      },
      "renounceRole(bytes32,address)": {
        "details": "Revokes `role` from the calling account.     * Roles are often managed via {grantRole} and {revokeRole}: this function's purpose is to provide a mechanism for accounts to lose their privileges if they are compromised (such as when a trusted device is misplaced).     * If the calling account had been granted `role`, emits a {RoleRevoked} event.     * Requirements:     * - the caller must be `account`."
      },
      "revokeRole(bytes32,address)": {
        "details": "Revokes `role` from `account`.     * If `account` had been granted `role`, emits a {RoleRevoked} event.     * Requirements:     * - the caller must have ``role``'s admin role."
      },
      "transferOwnership(address)": {
        "details": "Transfers ownership of the contract to a new account (`newOwner`). Can only be called by the current owner."
      }
    }
  },
  "userdoc": {
    "methods": {}
  }
}