{
  "contractName": "Rewarding",
  "abi": [
    {
      "anonymous": false,
      "inputs": [
        {
          "indexed": true,
          "internalType": "address",
          "name": "recipient",
          "type": "address"
        },
        {
          "indexed": false,
          "internalType": "uint256",
          "name": "amount",
          "type": "uint256"
        }
      ],
      "name": "ClaimStakingReward",
      "type": "event"
    },
    {
      "anonymous": false,
      "inputs": [
        {
          "indexed": true,
          "internalType": "uint256",
          "name": "issueId",
          "type": "uint256"
        },
        {
          "indexed": true,
          "internalType": "address",
          "name": "initialized",
          "type": "address"
        }
      ],
      "name": "ExecProposal",
      "type": "event"
    },
    {
      "anonymous": false,
      "inputs": [
        {
          "indexed": true,
          "internalType": "uint256",
          "name": "issueId",
          "type": "uint256"
        },
        {
          "indexed": true,
          "internalType": "address",
          "name": "creator",
          "type": "address"
        },
        {
          "indexed": true,
          "internalType": "enum Voting.ProposalType",
          "name": "votingType",
          "type": "uint8"
        },
        {
          "indexed": false,
          "internalType": "enum Voting.ProposalUpdater",
          "name": "votingUpdater",
          "type": "uint8"
        }
      ],
      "name": "NewProposal",
      "type": "event"
    },
    {
      "anonymous": false,
      "inputs": [
        {
          "indexed": true,
          "internalType": "uint256",
          "name": "issueId",
          "type": "uint256"
        },
        {
          "indexed": true,
          "internalType": "address",
          "name": "from",
          "type": "address"
        },
        {
          "indexed": true,
          "internalType": "uint256",
          "name": "option",
          "type": "uint256"
        },
        {
          "indexed": false,
          "internalType": "uint256",
          "name": "weight",
          "type": "uint256"
        }
      ],
      "name": "OnVote",
      "type": "event"
    },
    {
      "anonymous": false,
      "inputs": [
        {
          "indexed": true,
          "internalType": "address",
          "name": "previousOwner",
          "type": "address"
        },
        {
          "indexed": true,
          "internalType": "address",
          "name": "newOwner",
          "type": "address"
        }
      ],
      "name": "OwnershipTransferred",
      "type": "event"
    },
    {
      "anonymous": false,
      "inputs": [
        {
          "indexed": true,
          "internalType": "bytes32",
          "name": "role",
          "type": "bytes32"
        },
        {
          "indexed": true,
          "internalType": "bytes32",
          "name": "previousAdminRole",
          "type": "bytes32"
        },
        {
          "indexed": true,
          "internalType": "bytes32",
          "name": "newAdminRole",
          "type": "bytes32"
        }
      ],
      "name": "RoleAdminChanged",
      "type": "event"
    },
    {
      "anonymous": false,
      "inputs": [
        {
          "indexed": true,
          "internalType": "bytes32",
          "name": "role",
          "type": "bytes32"
        },
        {
          "indexed": true,
          "internalType": "address",
          "name": "account",
          "type": "address"
        },
        {
          "indexed": true,
          "internalType": "address",
          "name": "sender",
          "type": "address"
        }
      ],
      "name": "RoleGranted",
      "type": "event"
    },
    {
      "anonymous": false,
      "inputs": [
        {
          "indexed": true,
          "internalType": "bytes32",
          "name": "role",
          "type": "bytes32"
        },
        {
          "indexed": true,
          "internalType": "address",
          "name": "account",
          "type": "address"
        },
        {
          "indexed": true,
          "internalType": "address",
          "name": "sender",
          "type": "address"
        }
      ],
      "name": "RoleRevoked",
      "type": "event"
    },
    {
      "anonymous": false,
      "inputs": [
        {
          "indexed": true,
          "internalType": "enum Voting.ProposalUpdater",
          "name": "updater",
          "type": "uint8"
        },
        {
          "indexed": false,
          "internalType": "uint256",
          "name": "quorumPct",
          "type": "uint256"
        },
        {
          "indexed": false,
          "internalType": "uint256",
          "name": "supportPct",
          "type": "uint256"
        }
      ],
      "name": "UpdatedProposalConfig",
      "type": "event"
    },
    {
      "inputs": [],
      "name": "ADMIN_ROLE",
      "outputs": [
        {
          "internalType": "bytes32",
          "name": "",
          "type": "bytes32"
        }
      ],
      "stateMutability": "view",
      "type": "function"
    },
    {
      "inputs": [],
      "name": "DEFAULT_ADMIN_ROLE",
      "outputs": [
        {
          "internalType": "bytes32",
          "name": "",
          "type": "bytes32"
        }
      ],
      "stateMutability": "view",
      "type": "function"
    },
    {
      "inputs": [],
      "name": "VOTING_ROLE",
      "outputs": [
        {
          "internalType": "bytes32",
          "name": "",
          "type": "bytes32"
        }
      ],
      "stateMutability": "view",
      "type": "function"
    },
    {
      "inputs": [
        {
          "internalType": "address",
          "name": "account",
          "type": "address"
        }
      ],
      "name": "addAdmin",
      "outputs": [],
      "stateMutability": "nonpayable",
      "type": "function"
    },
    {
      "inputs": [
        {
          "internalType": "address",
          "name": "account",
          "type": "address"
        }
      ],
      "name": "availableToCreateProposals",
      "outputs": [
        {
          "internalType": "bool",
          "name": "",
          "type": "bool"
        }
      ],
      "stateMutability": "view",
      "type": "function"
    },
    {
      "inputs": [
        {
          "internalType": "uint256",
          "name": "issueId",
          "type": "uint256"
        },
        {
          "internalType": "address",
          "name": "addr",
          "type": "address"
        }
      ],
      "name": "ballotOf",
      "outputs": [
        {
          "internalType": "uint256",
          "name": "",
          "type": "uint256"
        }
      ],
      "stateMutability": "view",
      "type": "function"
    },
    {
      "inputs": [
        {
          "internalType": "uint256",
          "name": "issueId",
          "type": "uint256"
        }
      ],
      "name": "countOptions",
      "outputs": [
        {
          "internalType": "uint256",
          "name": "",
          "type": "uint256"
        }
      ],
      "stateMutability": "view",
      "type": "function"
    },
    {
      "inputs": [],
      "name": "countProposals",
      "outputs": [
        {
          "internalType": "uint256",
          "name": "",
          "type": "uint256"
        }
      ],
      "stateMutability": "view",
      "type": "function"
    },
    {
      "inputs": [
        {
          "internalType": "bool",
          "name": "isAvailable",
          "type": "bool"
        },
        {
          "internalType": "uint256",
          "name": "minStaked",
          "type": "uint256"
        }
      ],
      "name": "createProposalAvailability",
      "outputs": [],
      "stateMutability": "nonpayable",
      "type": "function"
    },
    {
      "inputs": [
        {
          "internalType": "address",
          "name": "creator",
          "type": "address"
        },
        {
          "internalType": "uint256",
          "name": "issueId",
          "type": "uint256"
        }
      ],
      "name": "depositedForProposal",
      "outputs": [
        {
          "internalType": "uint256",
          "name": "",
          "type": "uint256"
        }
      ],
      "stateMutability": "view",
      "type": "function"
    },
    {
      "inputs": [
        {
          "internalType": "uint256",
          "name": "issueId",
          "type": "uint256"
        }
      ],
      "name": "execProposal",
      "outputs": [],
      "stateMutability": "nonpayable",
      "type": "function"
    },
    {
      "inputs": [],
      "name": "getNewestProposal",
      "outputs": [
        {
          "internalType": "uint256",
          "name": "issueId",
          "type": "uint256"
        },
        {
          "internalType": "string",
          "name": "title",
          "type": "string"
        },
        {
          "internalType": "enum Voting.ProposalType",
          "name": "votingType",
          "type": "uint8"
        },
        {
          "internalType": "enum Voting.ProposalUpdater",
          "name": "votingUpdater",
          "type": "uint8"
        }
      ],
      "stateMutability": "view",
      "type": "function"
    },
    {
      "inputs": [
        {
          "internalType": "bytes32",
          "name": "role",
          "type": "bytes32"
        }
      ],
      "name": "getRoleAdmin",
      "outputs": [
        {
          "internalType": "bytes32",
          "name": "",
          "type": "bytes32"
        }
      ],
      "stateMutability": "view",
      "type": "function"
    },
    {
      "inputs": [
        {
          "internalType": "bytes32",
          "name": "role",
          "type": "bytes32"
        },
        {
          "internalType": "uint256",
          "name": "index",
          "type": "uint256"
        }
      ],
      "name": "getRoleMember",
      "outputs": [
        {
          "internalType": "address",
          "name": "",
          "type": "address"
        }
      ],
      "stateMutability": "view",
      "type": "function"
    },
    {
      "inputs": [
        {
          "internalType": "bytes32",
          "name": "role",
          "type": "bytes32"
        }
      ],
      "name": "getRoleMemberCount",
      "outputs": [
        {
          "internalType": "uint256",
          "name": "",
          "type": "uint256"
        }
      ],
      "stateMutability": "view",
      "type": "function"
    },
    {
      "inputs": [
        {
          "internalType": "bytes32",
          "name": "role",
          "type": "bytes32"
        },
        {
          "internalType": "address",
          "name": "account",
          "type": "address"
        }
      ],
      "name": "grantRole",
      "outputs": [],
      "stateMutability": "nonpayable",
      "type": "function"
    },
    {
      "inputs": [
        {
          "internalType": "bytes32",
          "name": "role",
          "type": "bytes32"
        },
        {
          "internalType": "address",
          "name": "account",
          "type": "address"
        }
      ],
      "name": "hasRole",
      "outputs": [
        {
          "internalType": "bool",
          "name": "",
          "type": "bool"
        }
      ],
      "stateMutability": "view",
      "type": "function"
    },
    {
      "inputs": [],
      "name": "isOpenProposals",
      "outputs": [
        {
          "internalType": "bool",
          "name": "",
          "type": "bool"
        }
      ],
      "stateMutability": "view",
      "type": "function"
    },
    {
      "inputs": [
        {
          "internalType": "uint256",
          "name": "issueId",
          "type": "uint256"
        }
      ],
      "name": "issueDescription",
      "outputs": [
        {
          "internalType": "string",
          "name": "",
          "type": "string"
        }
      ],
      "stateMutability": "view",
      "type": "function"
    },
    {
      "inputs": [],
      "name": "minAmountToCreate",
      "outputs": [
        {
          "internalType": "uint256",
          "name": "",
          "type": "uint256"
        }
      ],
      "stateMutability": "view",
      "type": "function"
    },
    {
      "inputs": [
        {
          "internalType": "string",
          "name": "title",
          "type": "string"
        },
        {
          "internalType": "string",
          "name": "description",
          "type": "string"
        },
        {
          "internalType": "uint256",
          "name": "expiryTime",
          "type": "uint256"
        },
        {
          "internalType": "string[]",
          "name": "options",
          "type": "string[]"
        },
        {
          "internalType": "enum Voting.ProposalUpdater",
          "name": "votingUpdater",
          "type": "uint8"
        }
      ],
      "name": "newMultiProposal",
      "outputs": [],
      "stateMutability": "nonpayable",
      "type": "function"
    },
    {
      "inputs": [
        {
          "internalType": "string",
          "name": "title",
          "type": "string"
        },
        {
          "internalType": "string",
          "name": "description",
          "type": "string"
        },
        {
          "internalType": "uint256",
          "name": "expiryTime",
          "type": "uint256"
        },
        {
          "internalType": "string",
          "name": "updateData",
          "type": "string"
        },
        {
          "internalType": "enum Voting.ProposalUpdater",
          "name": "votingUpdater",
          "type": "uint8"
        }
      ],
      "name": "newProposal",
      "outputs": [],
      "stateMutability": "nonpayable",
      "type": "function"
    },
    {
      "inputs": [
        {
          "internalType": "uint256",
          "name": "issueId",
          "type": "uint256"
        },
        {
          "internalType": "uint256",
          "name": "option",
          "type": "uint256"
        }
      ],
      "name": "optionInfo",
      "outputs": [
        {
          "internalType": "string",
          "name": "name",
          "type": "string"
        },
        {
          "internalType": "uint256",
          "name": "count",
          "type": "uint256"
        },
        {
          "internalType": "uint256",
          "name": "weight",
          "type": "uint256"
        }
      ],
      "stateMutability": "view",
      "type": "function"
    },
    {
      "inputs": [
        {
          "internalType": "uint256",
          "name": "issueId",
          "type": "uint256"
        },
        {
          "internalType": "uint256",
          "name": "option",
          "type": "uint256"
        }
      ],
      "name": "optionName",
      "outputs": [
        {
          "internalType": "string",
          "name": "",
          "type": "string"
        }
      ],
      "stateMutability": "view",
      "type": "function"
    },
    {
      "inputs": [],
      "name": "owner",
      "outputs": [
        {
          "internalType": "address",
          "name": "",
          "type": "address"
        }
      ],
      "stateMutability": "view",
      "type": "function"
    },
    {
      "inputs": [
        {
          "internalType": "string",
          "name": "_value",
          "type": "string"
        }
      ],
      "name": "parseInt",
      "outputs": [
        {
          "internalType": "uint256",
          "name": "_ret",
          "type": "uint256"
        }
      ],
      "stateMutability": "pure",
      "type": "function"
    },
    {
      "inputs": [
        {
          "internalType": "uint256",
          "name": "issueId",
          "type": "uint256"
        }
      ],
      "name": "proposalConfig",
      "outputs": [
        {
          "internalType": "address",
          "name": "creator",
          "type": "address"
        },
        {
          "internalType": "uint256",
          "name": "quorumPct",
          "type": "uint256"
        },
        {
          "internalType": "uint256",
          "name": "supportPct",
          "type": "uint256"
        },
        {
          "internalType": "uint256",
          "name": "voters",
          "type": "uint256"
        },
        {
          "internalType": "string",
          "name": "updateData",
          "type": "string"
        },
        {
          "internalType": "bool",
          "name": "executed",
          "type": "bool"
        }
      ],
      "stateMutability": "view",
      "type": "function"
    },
    {
      "inputs": [
        {
          "internalType": "enum Voting.ProposalUpdater",
          "name": "conf",
          "type": "uint8"
        }
      ],
      "name": "proposalConfigRates",
      "outputs": [
        {
          "internalType": "uint256",
          "name": "quorumPct",
          "type": "uint256"
        },
        {
          "internalType": "uint256",
          "name": "supportPct",
          "type": "uint256"
        }
      ],
      "stateMutability": "view",
      "type": "function"
    },
    {
      "inputs": [
        {
          "internalType": "uint256",
          "name": "issueId",
          "type": "uint256"
        }
      ],
      "name": "proposalInfo",
      "outputs": [
        {
          "internalType": "string",
          "name": "title",
          "type": "string"
        },
        {
          "internalType": "enum Voting.ProposalType",
          "name": "votingType",
          "type": "uint8"
        },
        {
          "internalType": "enum Voting.ProposalUpdater",
          "name": "votingUpdater",
          "type": "uint8"
        },
        {
          "internalType": "uint256",
          "name": "nay",
          "type": "uint256"
        },
        {
          "internalType": "uint256",
          "name": "yea",
          "type": "uint256"
        },
        {
          "internalType": "bool",
          "name": "hasQuorum",
          "type": "bool"
        },
        {
          "internalType": "bool",
          "name": "accepted",
          "type": "bool"
        },
        {
          "internalType": "uint256",
          "name": "expiryTime",
          "type": "uint256"
        }
      ],
      "stateMutability": "view",
      "type": "function"
    },
    {
      "inputs": [
        {
          "internalType": "uint256",
          "name": "issueId",
          "type": "uint256"
        }
      ],
      "name": "redeemDepositFromProposal",
      "outputs": [],
      "stateMutability": "nonpayable",
      "type": "function"
    },
    {
      "inputs": [],
      "name": "renounceOwnership",
      "outputs": [],
      "stateMutability": "nonpayable",
      "type": "function"
    },
    {
      "inputs": [
        {
          "internalType": "bytes32",
          "name": "role",
          "type": "bytes32"
        },
        {
          "internalType": "address",
          "name": "account",
          "type": "address"
        }
      ],
      "name": "renounceRole",
      "outputs": [],
      "stateMutability": "nonpayable",
      "type": "function"
    },
    {
      "inputs": [
        {
          "internalType": "bytes32",
          "name": "role",
          "type": "bytes32"
        },
        {
          "internalType": "address",
          "name": "account",
          "type": "address"
        }
      ],
      "name": "revokeRole",
      "outputs": [],
      "stateMutability": "nonpayable",
      "type": "function"
    },
    {
      "inputs": [
        {
          "internalType": "address",
          "name": "newOwner",
          "type": "address"
        }
      ],
      "name": "transferOwnership",
      "outputs": [],
      "stateMutability": "nonpayable",
      "type": "function"
    },
    {
      "inputs": [
        {
          "internalType": "address",
          "name": "holder",
          "type": "address"
        }
      ],
      "name": "updatedStake",
      "outputs": [],
      "stateMutability": "nonpayable",
      "type": "function"
    },
    {
      "inputs": [
        {
          "internalType": "enum Voting.ProposalUpdater",
          "name": "votingUpdater",
          "type": "uint8"
        },
        {
          "internalType": "string",
          "name": "updateData",
          "type": "string"
        }
      ],
      "name": "updaterValidateData",
      "outputs": [
        {
          "internalType": "bool",
          "name": "",
          "type": "bool"
        }
      ],
      "stateMutability": "pure",
      "type": "function"
    },
    {
      "inputs": [
        {
          "internalType": "uint256",
          "name": "issueId",
          "type": "uint256"
        },
        {
          "internalType": "bytes4",
          "name": "option",
          "type": "bytes4"
        }
      ],
      "name": "vote",
      "outputs": [
        {
          "internalType": "bool",
          "name": "",
          "type": "bool"
        }
      ],
      "stateMutability": "nonpayable",
      "type": "function"
    },
    {
      "inputs": [
        {
          "internalType": "uint256",
          "name": "issueId",
          "type": "uint256"
        },
        {
          "internalType": "uint256",
          "name": "option",
          "type": "uint256"
        }
      ],
      "name": "vote",
      "outputs": [
        {
          "internalType": "bool",
          "name": "",
          "type": "bool"
        }
      ],
      "stateMutability": "nonpayable",
      "type": "function"
    },
    {
      "inputs": [
        {
          "internalType": "uint256",
          "name": "issueId",
          "type": "uint256"
        },
        {
          "internalType": "address",
          "name": "addr",
          "type": "address"
        }
      ],
      "name": "weightOf",
      "outputs": [
        {
          "internalType": "uint256",
          "name": "",
          "type": "uint256"
        }
      ],
      "stateMutability": "view",
      "type": "function"
    },
    {
      "inputs": [
        {
          "internalType": "uint256",
          "name": "issueId",
          "type": "uint256"
        },
        {
          "internalType": "uint256",
          "name": "option",
          "type": "uint256"
        }
      ],
      "name": "weightedVoteCountsOf",
      "outputs": [
        {
          "internalType": "uint256",
          "name": "",
          "type": "uint256"
        }
      ],
      "stateMutability": "view",
      "type": "function"
    },
    {
      "inputs": [
        {
          "internalType": "address",
          "name": "rewardAddress",
          "type": "address"
        }
      ],
      "name": "setRewardAddress",
      "outputs": [],
      "stateMutability": "nonpayable",
      "type": "function"
    },
    {
      "inputs": [
        {
          "internalType": "uint256",
          "name": "reward",
          "type": "uint256"
        },
        {
          "internalType": "uint256",
          "name": "nonceId",
          "type": "uint256"
        },
        {
          "internalType": "bytes32",
          "name": "hash",
          "type": "bytes32"
        },
        {
          "internalType": "bytes",
          "name": "signature",
          "type": "bytes"
        }
      ],
      "name": "claimReward",
      "outputs": [
        {
          "internalType": "bool",
          "name": "",
          "type": "bool"
        }
      ],
      "stateMutability": "nonpayable",
      "type": "function"
    }
  ],
  "bytecode": "0x60806040526402540be4006003556000620000226001600160e01b03620003a716565b600080546001600160a01b0319166001600160a01b0383169081178255604051929350917f8be0079c531659141344cd1fd0a4f28419497f9722a3daafe3b4186f6b6457e0908290a350620000ac6040516200007e9062000414565b6040518091039020604051620000949062000414565b6040519081900390206001600160e01b03620003ab16565b620000be6040516200007e90620003fd565b604080518082018252614e2080825261c35160208084018281526000808052600490925293517f17ef568e3e12ab5b9c7254a8d58478811de00f9e6eb34345acd53bf8fd09d3ec5592517f17ef568e3e12ab5b9c7254a8d58478811de00f9e6eb34345acd53bf8fd09d3ed5592519092919060008051602062005c6a833981519152906200015090859085906200042a565b60405180910390a2604080518082018252838152602080820184815260016000819052600490925291517fabd6e7cb50984ff9c2f3e18a2660c3353dadf4e3291deeb275dae2cd1e44fe055590517fabd6e7cb50984ff9c2f3e18a2660c3353dadf4e3291deeb275dae2cd1e44fe0655905160008051602062005c6a83398151915290620001e290859085906200042a565b60405180910390a2604080518082018252838152602080820184815260026000819052600490925291517f91da3fd0782e51c6b3986e9e672fd566868e71f3dbc2d6c2cd6fbb3e361af2a75590517f91da3fd0782e51c6b3986e9e672fd566868e71f3dbc2d6c2cd6fbb3e361af2a855905160008051602062005c6a833981519152906200027490859085906200042a565b60405180910390a2604080518082018252838152602080820184815260036000819052600490925291517f2e174c10e159ea99b867ce3205125c24a42d128804e4070ed6fcc8cc98166aa05590517f2e174c10e159ea99b867ce3205125c24a42d128804e4070ed6fcc8cc98166aa155905160008051602062005c6a833981519152906200030690859085906200042a565b60405180910390a26040805180820182528381526020808201848152600460008190529182905291517f1a1e6821cde7d0159c0d293177871e09677b4e42307c7db3ba94f8648a5a050f5590517f1a1e6821cde7d0159c0d293177871e09677b4e42307c7db3ba94f8648a5a051055905160008051602062005c6a833981519152906200039790859085906200042a565b60405180910390a2505062000438565b3390565b600082815260016020526040808220600201549051839285917fbd79b86ffe0ab8e8776151514217cd7cacd52c909f66475c3af44e129f0b00ff9190a460009182526001602052604090912060020155565b6a564f54494e475f524f4c4560a81b8152600b0190565b6941444d494e5f524f4c4560b01b8152600a0190565b918252602082015260400190565b61582280620004486000396000f3fe608060405234801561001057600080fd5b506004361061025d5760003560e01c806375b238fc11610146578063a217fddf116100c3578063e0136a7911610087578063e0136a7914610535578063eaac697a1461054d578063f0464a2b14610560578063f2fde38b14610573578063f3da049e14610586578063f6621dc31461058e5761025d565b8063a217fddf146104cd578063ae092e89146104d5578063b384abef146104fc578063ca15c8731461050f578063d547741f146105225761025d565b80639010d07c1161010a5780639010d07c1461046e57806391d1485414610481578063933c1306146104945780639d91cf9a146104a7578063a1629f92146104ba5761025d565b806375b238fc14610423578063761bbd8a1461042b5780638935ced5146104335780638da5cb5b146104465780638e0a13721461045b5761025d565b80634883a6a8116101df5780635e00e679116101a35780635e00e679146103bc5780636e6a1dc3146103cf5780636f963fa1146103e257806370480275146103f557806370c88f3014610408578063715018a61461041b5761025d565b80634883a6a81461034e5780634ba241d8146103615780634c461f5a14610383578063503814511461039657806353c2d479146103a95761025d565b806331aab8881161022657806331aab888146102e857806332ec991c1461030d57806336568abe1461032057806342346c5e1461033357806346c6211e146103465761025d565b8062fe1bff1461026257806312a70f0b1461028b5780631e01a172146102a0578063248a9ca3146102c05780632f2ff15d146102d3575b600080fd5b610275610270366004614b42565b6105af565b6040516102829190614f43565b60405180910390f35b61029361083e565b6040516102829190614f4e565b6102b36102ae366004614ab4565b610855565b6040516102829190614f89565b6102936102ce366004614ab4565b610933565b6102e66102e1366004614acc565b61094b565b005b6102fb6102f6366004614ab4565b610993565b60405161028296959493929190614efb565b61029361031b366004614d71565b6109df565b6102e661032e366004614acc565b610a3e565b610293610341366004614d1e565b610a80565b610293610b0f565b61027561035c366004614d9d565b610b16565b61037461036f366004614b06565b610c02565b60405161028293929190614ffe565b6102e6610391366004614a93565b610d3a565b6102e66103a4366004614c6b565b610daa565b6102e66103b7366004614b90565b611444565b6102e66103ca366004614a4e565b611b92565b6102936103dd366004614b06565b611be9565b6102756103f0366004614a4e565b611c52565b6102e6610403366004614a4e565b611d45565b6102e6610416366004614a4e565b611d9a565b6102e6612176565b6102936121f5565b610293612201565b610293610441366004614d71565b612207565b61044e612262565b6040516102829190614ece565b610275610469366004614dcd565b612271565b61044e61047c366004614b06565b6123c4565b61027561048f366004614acc565b6123e9565b6102e66104a2366004614ab4565b612407565b6102936104b5366004614a69565b612a6d565b6102e66104c8366004614ab4565b612a95565b610293612bbd565b6104e86104e3366004614ab4565b612bc2565b604051610282989796959493929190614f9c565b61027561050a366004614b06565b612c26565b61029361051d366004614ab4565b613034565b6102e6610530366004614acc565b61304b565b61053d613085565b604051610282949392919061577b565b6102b361055b366004614b06565b613152565b61029361056e366004614ab4565b613271565b6102e6610581366004614a4e565b6132b9565b61027561336f565b6105a161059c366004614b27565b61337f565b6040516102829291906157bd565b6000808360048111156105be57fe5b14156105cc57506001610838565b60018360048111156105da57fe5b14156106075760006105eb83610a80565b905060c881101580156105ff5750610bb881105b915050610838565b600283600481111561061557fe5b141561063f57600061062683610a80565b9050600a81101580156105ff5750605a10159050610838565b600383600481111561064d57fe5b141561066957600061065e83610a80565b151591506108389050565b600483600481111561067757fe5b14156108345781518290600d1461068d57600080fd5b604080516001808252818301909252606091602082018180388339505060408051600680825281830190925292935060609291506020820181803883395050604080516006808252818301909252929350606092915060208201818038833901905050905060005b84518110156107bd576001811015610748578460008151811061071457fe5b602001015160f81c60f81b8460008151811061072c57fe5b60200101906001600160f81b031916908160001a9053506107b5565b60078110156107775784818151811061075d57fe5b602001015160f81c60f81b83600183038151811061072c57fe5b84818151811061078357fe5b602001015160f81c60f81b82600783038151811061079d57fe5b60200101906001600160f81b031916908160001a9053505b6001016106f5565b5060006107c983610a80565b905060006107d683610a80565b9050600080831180156107ec5750620186a08311155b90508080156107fb5750600082115b801561080a5750620186a08211155b90508080156108255750600461081f87610a80565b60ff1611155b97506108389650505050505050565b5060005b92915050565b60405161084a90614ea1565b604051809103902081565b60608160008111801561086a57506009548111155b61088f5760405162461bcd60e51b815260040161088690615262565b60405180910390fd5b6000838152600560209081526040918290206002908101805484516001821615610100026000190190911692909204601f8101849004840283018401909452838252909290918301828280156109265780601f106108fb57610100808354040283529160200191610926565b820191906000526020600020905b81548152906001019060200180831161090957829003601f168201915b5050505050915050919050565b6000818152600160205260409020600201545b919050565b6000828152600160205260409020600201546109699061048f6133db565b6109855760405162461bcd60e51b81526004016108869061509c565b61098f82826133df565b5050565b600080600080606060006109a56146d6565b6109ae8861344e565b8051602082015160408301516060840151608085015160a090950151939d929c50909a509850919650945092505050565b6000826000811180156109f457506009548111155b610a105760405162461bcd60e51b815260040161088690615262565b6001600160a01b038316600090815260076020908152604080832087845290915290205491505b5092915050565b610a466133db565b6001600160a01b0316816001600160a01b031614610a765760405162461bcd60e51b8152600401610886906156eb565b61098f8282613885565b80516000908290600190600019015b8251811015610b07576030838281518110610aa657fe5b016020015160f81c10801590610ad057506039838281518110610ac557fe5b016020015160f81c11155b610ad657fe5b816030848381518110610ae557fe5b016020015160f81c0360ff16029390930192600a919091029060001901610a8f565b505050919050565b6003545b90565b600082600081118015610b2b57506009548111155b610b475760405162461bcd60e51b815260040161088690615262565b6279656160e81b626e617960e81b6001600160e01b03198516821480610b7957506001600160e01b0319858116908216145b610b955760405162461bcd60e51b81526004016108869061573a565b60008681526005602052604081206003015460ff166001811115610bb557fe5b14610bd25760405162461bcd60e51b81526004016108869061530d565b60006001600160e01b03198681169084161415610bed575060015b610bf787826138f4565b979650505050505050565b606060008084600081118015610c1a57506009548111155b610c365760405162461bcd60e51b815260040161088690615262565b6000868152600560205260409020600801548510610c665760405162461bcd60e51b815260040161088690615487565b6000868152600560205260408120600801805487908110610c8357fe5b60009182526020918290206003919091020180546040805160026001841615610100026000190190931692909204601f810185900485028301850190915280825291935091839190830182828015610d1c5780601f10610cf157610100808354040283529160200191610d1c565b820191906000526020600020905b815481529060010190602001808311610cff57829003601f168201915b50505050509450806001015493508060020154925050509250925092565b610d57604051610d4990614ea1565b6040518091039020336123e9565b80610d6c5750610d6c604051610d4990614eb8565b610d885760405162461bcd60e51b815260040161088690615635565b60028054921515600160a01b0260ff60a01b1990931692909217909155600355565b610db9604051610d4990614ea1565b80610dce5750610dce604051610d4990614eb8565b156110aa5786610df05760405162461bcd60e51b815260040161088690615677565b610df8613c1b565b8411610e165760405162461bcd60e51b815260040161088690615159565b6009805460010190819055610e2a90613c1f565b6009546000908152600560205260409020610e43614717565b60046000846004811115610e5357fe5b60ff16815260208082019290925260409081016000208151808301909252805482526001908101549282019290925283546001600160a01b031916331784559150610ea19083018b8b614731565b50610eb0600283018989614731565b5080516005830155602081015160078301556009820186905560038201805460ff198116825584919061ffff1916610100836004811115610eed57fe5b02179055506000836004811115610f0057fe5b14610f7157610f458386868080601f0160208091040260200160405190810160405280939291908181526020018383808284376000920191909152506105af92505050565b610f615760405162461bcd60e51b81526004016108869061540e565b610f6f600483018686614731565b505b6040805160a081018252600360608201818152626e617960e81b608084015282526000602080840182905293830181905260088601805460018101825590825290849020835180519495929093020192610fce92849201906147af565b50602082810151600180840191909155604093840151600290930192909255825160a0810184526003606082018181526279656160e81b60808401528252600082840181905294820185905260088701805494850181558552938290208151805192959490940201926110459284929101906147af565b506020820151600182015560409091015160029091015560005b336001600160a01b03166009547f22910aa3d36b7721f45dfd4a366dd228fb8e9f8b0752b5cf6557acba94d2edd98660405161109b9190614f75565b60405180910390a4505061143a565b600254600160a01b900460ff1615611422576002546040516370a0823160e01b81526000916001600160a01b0316906370a08231906110ed903390600401614ece565b60206040518083038186803b15801561110557600080fd5b505afa158015611119573d6000803e3d6000fd5b505050506040513d601f19601f8201168201806040525061113d9190810190614d59565b9050600354811061142057876111655760405162461bcd60e51b815260040161088690615677565b61116d613c1b565b851161118b5760405162461bcd60e51b815260040161088690615159565b600980546001019081905561119f90613c1f565b60095460009081526005602052604090206111b8614717565b600460008560048111156111c857fe5b60ff16815260208082019290925260409081016000208151808301909252805482526001908101549282019290925283546001600160a01b0319163317845591506112169083018c8c614731565b50611225600283018a8a614731565b5080516005830155602081015160078301556009820187905560038201805460ff198116825585919061ffff191661010083600481111561126257fe5b0217905550600084600481111561127557fe5b146112e6576112ba8487878080601f0160208091040260200160405190810160405280939291908181526020018383808284376000920191909152506105af92505050565b6112d65760405162461bcd60e51b81526004016108869061540e565b6112e4600483018787614731565b505b6040805160a081018252600360608201818152626e617960e81b60808401528252600060208084018290529383018190526008860180546001810182559082529084902083518051949592909302019261134392849201906147af565b50602082810151600180840191909155604093840151600290930192909255825160a0810184526003606082018181526279656160e81b60808401528252600082840181905294820185905260088701805494850181558552938290208151805192959490940201926113ba9284929101906147af565b506020820151600182015560409091015160029091015560005b336001600160a01b03166009547f22910aa3d36b7721f45dfd4a366dd228fb8e9f8b0752b5cf6557acba94d2edd9876040516114109190614f75565b60405180910390a450505061143a565b505b60405162461bcd60e51b815260040161088690615635565b5050505050505050565b611453604051610d4990614ea1565b806114685750611468604051610d4990614eb8565b156117f3578661148a5760405162461bcd60e51b815260040161088690615677565b611492613c1b565b84116114b05760405162461bcd60e51b815260040161088690615159565b600182116114d05760405162461bcd60e51b81526004016108869061521e565b60098054600101908190556114e490613c1f565b60095460009081526005602052604090206114fd614717565b6004600084600481111561150d57fe5b60ff16815260208082019290925260409081016000208151808301909252805482526001908101549282019290925283546001600160a01b03191633178455915061155b9083018b8b614731565b5061156a600283018989614731565b5080516005830155602081015160078301556009820186905560038201805460ff191660011780825584919061ff0019166101008360048111156115aa57fe5b02179055506040805160a081018252600460608201908152630536b69760e41b60808301528152600060208083018290529282018190526008850180546001810182559082529083902082518051939460039093029091019261161092849201906147af565b506020820151600182015560409091015160029091015560005b848110156117eb57600084600481111561164057fe5b146116f6576116da8487878481811061165557fe5b602002820190508035601e193684900301811261167157600080fd5b9091016020810191503567ffffffffffffffff81111561169057600080fd5b368190038213156116a057600080fd5b8080601f0160208091040260200160405190810160405280939291908181526020018383808284376000920191909152506105af92505050565b6116f65760405162461bcd60e51b81526004016108869061540e565b82600801604051806060016040528088888581811061171157fe5b602002820190508035601e193684900301811261172d57600080fd5b9091016020810191503567ffffffffffffffff81111561174c57600080fd5b3681900382131561175c57600080fd5b8080601f0160208091040260200160405190810160405280939291908181526020018383808284376000920182905250938552505050602080830182905260409092018190528354600181018555938152819020825180519394600302909101926117ca92849201906147af565b5060208201516001808301919091556040909201516002909101550161162a565b50600161105f565b600254600160a01b900460ff1615611422576002546040516370a0823160e01b81526000916001600160a01b0316906370a0823190611836903390600401614ece565b60206040518083038186803b15801561184e57600080fd5b505afa158015611862573d6000803e3d6000fd5b505050506040513d601f19601f820116820180604052506118869190810190614d59565b9050600354811061142057876118ae5760405162461bcd60e51b815260040161088690615677565b6118b6613c1b565b85116118d45760405162461bcd60e51b815260040161088690615159565b600183116118f45760405162461bcd60e51b81526004016108869061521e565b600980546001019081905561190890613c1f565b6009546000908152600560205260409020611921614717565b6004600085600481111561193157fe5b60ff16815260208082019290925260409081016000208151808301909252805482526001908101549282019290925283546001600160a01b03191633178455915061197f9083018c8c614731565b5061198e600283018a8a614731565b5080516005830155602081015160078301556009820187905560038201805460ff191660011780825585919061ff0019166101008360048111156119ce57fe5b02179055506040805160a081018252600460608201908152630536b69760e41b608083015281526000602080830182905292820181905260088501805460018101825590825290839020825180519394600390930290910192611a3492849201906147af565b506020820151600182015560409091015160029091015560005b85811015611b8a576000856004811115611a6457fe5b14611a9557611a798588888481811061165557fe5b611a955760405162461bcd60e51b81526004016108869061540e565b826008016040518060600160405280898985818110611ab057fe5b602002820190508035601e1936849003018112611acc57600080fd5b9091016020810191503567ffffffffffffffff811115611aeb57600080fd5b36819003821315611afb57600080fd5b8080601f016020809104026020016040519081016040528093929190818152602001838380828437600092018290525093855250505060208083018290526040909201819052835460018101855593815281902082518051939460030290910192611b6992849201906147af565b50602082015160018083019190915560409092015160029091015501611a4e565b5060016113d4565b611b9a6133db565b6000546001600160a01b03908116911614611bc75760405162461bcd60e51b815260040161088690615580565b600a80546001600160a01b0319166001600160a01b0392909216919091179055565b600082600081118015611bfe57506009548111155b611c1a5760405162461bcd60e51b815260040161088690615262565b6000848152600560205260409020600801805484908110611c3757fe5b90600052602060002090600302016001015491505092915050565b6000611c71604051611c6390614ea1565b6040518091039020836123e9565b80611c865750611c86604051611c6390614eb8565b15611c9357506001610946565b600254600160a01b900460ff1615611d3d57600254604051632c9aab9b60e11b81526000916001600160a01b031690635935573690611cd6908690600401614ece565b60206040518083038186803b158015611cee57600080fd5b505afa158015611d02573d6000803e3d6000fd5b505050506040513d601f19601f82011682018060405250611d269190810190614d59565b90506003548110611d3b576001915050610946565b505b506000919050565b611d4d6133db565b6000546001600160a01b03908116911614611d7a5760405162461bcd60e51b815260040161088690615580565b611d97604051611d8990614eb8565b604051809103902082610985565b50565b6002546001600160a01b03163314611db157600080fd5b6001600160a01b038116600090815260086020908152604091829020805483518184028101840190945280845260609392830182828015611e1157602002820191906000526020600020905b815481526020019060010190808311611dfd575b50505050509050805160001415611e285750611d97565b6002546040805163ca5c7b9160e01b815290516000926001600160a01b03169163ca5c7b91916004808301926020929190829003018186803b158015611e6d57600080fd5b505afa158015611e81573d6000803e3d6000fd5b505050506040513d601f19601f82011682018060405250611ea59190810190614d59565b600254604051632c9aab9b60e11b81529192506000916001600160a01b0390911690635935573690611edb908790600401614ece565b60206040518083038186803b158015611ef357600080fd5b505afa158015611f07573d6000803e3d6000fd5b505050506040513d601f19601f82011682018060405250611f2b9190810190614d59565b905060606000805b8551811015612143576000868281518110611f4a57fe5b602002602001015190506000600560008381526020019081526020016000209050611f73613c1b565b81600901541015611f8557505061213b565b6001600160a01b038916600090815260076020908152604080832085845290915290208661206657600b82018054600019019055600181018054600a840180549190910390555481546008840180549091908110611fdf57fe5b9060005260206000209060030201600201600082825403925050819055508160080181600001548154811061201057fe5b6000918252602082206001600390920201810180546000190190558201556005820154600a8301548990620186a0028161204657fe5b6006909401805460ff1916919094049190911015179091555061213b9050565b86816001015411156120ac57868160010154038260080182600001548154811061208c57fe5b6000918252602090912060026003909202010180549190910390556120e1565b80600101548703826008018260000154815481106120c657fe5b60009182526020909120600260039092020101805490910190555b600181018790556005820154600a8301548990620186a0028161210057fe5b60068501805460ff19169290910492909210151790558551839087908790811061212657fe5b60209081029190910101525050600190920191505b600101611f33565b506001600160a01b0386166000908152600860209081526040909120835161216d9285019061481d565b50505050505050565b61217e6133db565b6000546001600160a01b039081169116146121ab5760405162461bcd60e51b815260040161088690615580565b600080546040516001600160a01b03909116907f8be0079c531659141344cd1fd0a4f28419497f9722a3daafe3b4186f6b6457e0908390a3600080546001600160a01b0319169055565b60405161084a90614eb8565b60095490565b60008260008111801561221c57506009548111155b6122385760405162461bcd60e51b815260040161088690615262565b50506001600160a01b03166000908152600760209081526040808320938352929052206001015490565b6000546001600160a01b031690565b336000908152600b6020526040812054851461229f5760405162461bcd60e51b8152600401610886906150eb565b6122e186868686868080601f016020809104026020016040519081016040528093929190818152602001838380828437600092019190915250613cd492505050565b6122fd5760405162461bcd60e51b81526004016108869061538c565b336000818152600b60205260409081902080546001019055600254905163f3fef3a360e01b81526001600160a01b039091169163f3fef3a39161234591908a90600401614ee2565b600060405180830381600087803b15801561235f57600080fd5b505af1158015612373573d6000803e3d6000fd5b50505050336001600160a01b03167fb52d0e0c45bba15833f7d429ccdcc4c2bfa8eea764774706120027b76734a44f876040516123b09190614f4e565b60405180910390a250600195945050505050565b60008281526001602052604081206123e2908363ffffffff613d4d16565b9392505050565b60008281526001602052604081206123e2908363ffffffff613d5916565b61240f614857565b61241882613d6e565b90506124226146d6565b61242b8361344e565b80519091506001600160a01b03163314806124505750612450604051610d4990614ea1565b806124655750612465604051610d4990614eb8565b6124815760405162461bcd60e51b815260040161088690615635565b60008260400151600481111561249357fe5b14156124b15760405162461bcd60e51b8152600401610886906156a4565b6124b9613c1b565b8260e00151106124db5760405162461bcd60e51b8152600401610886906155b5565b6000826020015160018111156124ed57fe5b1415612514578160c001516125145760405162461bcd60e51b8152600401610886906152c8565b8060a00151156125365760405162461bcd60e51b815260040161088690615507565b606060018360200151600181111561254a57fe5b14156127795760008080805b60008881526005602052604090206008015481101561268f576125776148a1565b600089815260056020526040902060080180548390811061259457fe5b600091825260209182902060408051600393909302909101805460026001821615610100026000190190911604601f81018590049094028301608090810190925260608301848152929390928492909184918401828280156126375780601f1061260c57610100808354040283529160200191612637565b820191906000526020600020905b81548152906001019060200180831161261a57829003601f168201915b505050505081526020016001820154815260200160028201548152505090508381604001511115612675578194508060400151935060009250612686565b838160400151141561268657600192505b50600101612556565b508015801561269e5750600083115b6126ba5760405162461bcd60e51b8152600401610886906151e7565b60008781526005602052604090206008018054849081106126d757fe5b6000918252602091829020600390910201805460408051601f600260001961010060018716150201909416939093049283018590048502810185019091528181529283018282801561276a5780601f1061273f5761010080835404028352916020019161276a565b820191906000526020600020905b81548152906001019060200180831161274d57829003601f168201915b50505050509350505050612780565b5060808101515b60018360400151600481111561279257fe5b1415612807576002546001600160a01b031663c108a402856127b384610a80565b6040518363ffffffff1660e01b81526004016127d09291906157bd565b600060405180830381600087803b1580156127ea57600080fd5b505af11580156127fe573d6000803e3d6000fd5b50505050612a21565b60028360400151600481111561281957fe5b141561283a576002546001600160a01b031663ac3cd7c6856127b384610a80565b60038360400151600481111561284c57fe5b14156128635761285b81610a80565b600355612a21565b60048360400151600481111561287557fe5b1415612a215760408051600180825281830190925282916060919060208201818038833950506040805160068082528183019092529293506060929150602082018180388339505060408051600680825281830190925292935060609291506020820181803883390190505090508351600d146128f157600080fd5b60005b84518110156129bc576001811015612947578460008151811061291357fe5b602001015160f81c60f81b8460008151811061292b57fe5b60200101906001600160f81b031916908160001a9053506129b4565b60078110156129765784818151811061295c57fe5b602001015160f81c60f81b83600183038151811061292b57fe5b84818151811061298257fe5b602001015160f81c60f81b82600783038151811061299c57fe5b60200101906001600160f81b031916908160001a9053505b6001016128f4565b5060006129c883610a80565b905060006129d583610a80565b9050604051806040016040528083815260200182815250600460006129f988610a80565b60ff168152602080820192909252604001600020825181559101516001909101555050505050505b600084815260056020526040808220600c01805460ff1916600117905551339186917f3776071a1b606e078d8aec141249d4c30abe813f5e6752afe84d0c6a25f1388b9190a350505050565b6001600160a01b03919091166000908152600660209081526040808320938352929052205490565b80600081118015612aa857506009548111155b612ac45760405162461bcd60e51b815260040161088690615262565b612acc614857565b612ad583613d6e565b9050612adf6146d6565b612ae88461344e565b80519091506001600160a01b03163314612b145760405162461bcd60e51b815260040161088690615635565b612b1c613c1b565b8260e0015110612b3e5760405162461bcd60e51b8152600401610886906155b5565b600082602001516001811115612b5057fe5b1415612b77578160c00151612b775760405162461bcd60e51b8152600401610886906152c8565b336000908152600660209081526040808320878452909152902054612bae5760405162461bcd60e51b815260040161088690615299565b612bb784614338565b50505050565b600081565b60606000806000806000806000612bd7614857565b612be08a613d6e565b905080600001519850806020015197508060400151965080606001519550806080015194508060a0015193508060c0015192508060e00151915050919395975091939597565b600082600081118015612c3b57506009548111155b612c575760405162461bcd60e51b815260040161088690615262565b612c5f6148c2565b60008581526005602090815260409182902082516101c08101845281546001600160a01b03168152600180830180548651600261010094831615949094026000190190911692909204601f8101869004860283018601909652858252919492938581019391929190830182828015612d185780601f10612ced57610100808354040283529160200191612d18565b820191906000526020600020905b815481529060010190602001808311612cfb57829003601f168201915b5050509183525050600282810180546040805160206001841615610100026000190190931694909404601f81018390048302850183019091528084529381019390830182828015612daa5780601f10612d7f57610100808354040283529160200191612daa565b820191906000526020600020905b815481529060010190602001808311612d8d57829003601f168201915b5050509183525050600382015460209091019060ff166001811115612dcb57fe5b6001811115612dd657fe5b81526020016003820160019054906101000a900460ff166004811115612df857fe5b6004811115612e0357fe5b815260048201805460408051602060026001851615610100026000190190941693909304601f8101849004840282018401909252818152938201939291830182828015612e915780601f10612e6657610100808354040283529160200191612e91565b820191906000526020600020905b815481529060010190602001808311612e7457829003601f168201915b50505050508152602001600582015481526020016006820160009054906101000a900460ff161515151581526020016007820154815260200160088201805480602002602001604051908101604052809291908181526020016000905b82821015612fc35760008481526020908190206040805160038602909201805460026001821615610100026000190190911604601f8101859004909402830160809081019092526060830184815292939092849290918491840182828015612f975780601f10612f6c57610100808354040283529160200191612f97565b820191906000526020600020905b815481529060010190602001808311612f7a57829003601f168201915b505050505081526020016001820154815260200160028201548152505081526020019060010190612eee565b5050509082525060098201546020820152600a8201546040820152600b8201546060820152600c9091015460ff1615156080909101526101208101515190915084106130215760405162461bcd60e51b815260040161088690615487565b61302b85856138f4565b95945050505050565b600081815260016020526040812061083890614402565b6000828152600160205260409020600201546130699061048f6133db565b610a765760405162461bcd60e51b8152600401610886906154b7565b6009546000818152600560209081526040808320600190810180548351600293821615610100026000190190911692909204601f8101859004850283018501909352828252606094938493908301828280156131225780601f106130f757610100808354040283529160200191613122565b820191906000526020600020905b81548152906001019060200180831161310557829003601f168201915b5050506000878152600560205260409020600301549697929660ff80821697506101009091041694509192505050565b60608260008111801561316757506009548111155b6131835760405162461bcd60e51b815260040161088690615262565b60008481526005602052604090206008015483106131b35760405162461bcd60e51b815260040161088690615487565b60008481526005602052604090206008018054849081106131d057fe5b6000918252602091829020600390910201805460408051601f60026000196101006001871615020190941693909304928301859004850281018501909152818152928301828280156132635780601f1061323857610100808354040283529160200191613263565b820191906000526020600020905b81548152906001019060200180831161324657829003601f168201915b505050505091505092915050565b60008160008111801561328657506009548111155b6132a25760405162461bcd60e51b815260040161088690615262565b505060009081526005602052604090206008015490565b6132c16133db565b6000546001600160a01b039081169116146132ee5760405162461bcd60e51b815260040161088690615580565b6001600160a01b0381166133145760405162461bcd60e51b8152600401610886906151a1565b600080546040516001600160a01b03808516939216917f8be0079c531659141344cd1fd0a4f28419497f9722a3daafe3b4186f6b6457e091a3600080546001600160a01b0319166001600160a01b0392909216919091179055565b600254600160a01b900460ff1690565b6000806004600084600481111561339257fe5b60ff1660ff168152602001908152602001600020600001549150600460008460048111156133bc57fe5b60ff1660ff168152602001908152602001600020600101549050915091565b3390565b60008281526001602052604090206133fd908263ffffffff61440d16565b1561098f5761340a6133db565b6001600160a01b0316816001600160a01b0316837f2f8788117e7eff1d82e926ec794901d17c78024a50270940304540a733656f0d60405160405180910390a45050565b6134566146d6565b8160008111801561346957506009548111155b6134855760405162461bcd60e51b815260040161088690615262565b61348d6148c2565b60008481526005602090815260409182902082516101c08101845281546001600160a01b03168152600180830180548651600261010094831615949094026000190190911692909204601f81018690048602830186019096528582529194929385810193919291908301828280156135465780601f1061351b57610100808354040283529160200191613546565b820191906000526020600020905b81548152906001019060200180831161352957829003601f168201915b5050509183525050600282810180546040805160206001841615610100026000190190931694909404601f810183900483028501830190915280845293810193908301828280156135d85780601f106135ad576101008083540402835291602001916135d8565b820191906000526020600020905b8154815290600101906020018083116135bb57829003601f168201915b5050509183525050600382015460209091019060ff1660018111156135f957fe5b600181111561360457fe5b81526020016003820160019054906101000a900460ff16600481111561362657fe5b600481111561363157fe5b815260048201805460408051602060026001851615610100026000190190941693909304601f81018490048402820184019092528181529382019392918301828280156136bf5780601f10613694576101008083540402835291602001916136bf565b820191906000526020600020905b8154815290600101906020018083116136a257829003601f168201915b50505050508152602001600582015481526020016006820160009054906101000a900460ff161515151581526020016007820154815260200160088201805480602002602001604051908101604052809291908181526020016000905b828210156137f15760008481526020908190206040805160038602909201805460026001821615610100026000190190911604601f81018590049094028301608090810190925260608301848152929390928492909184918401828280156137c55780601f1061379a576101008083540402835291602001916137c5565b820191906000526020600020905b8154815290600101906020018083116137a857829003601f168201915b50505050508152602001600182015481526020016002820154815250508152602001906001019061371c565b505050908252506009820154602080830191909152600a830154604080840191909152600b840154606080850191909152600c9094015460ff16151560809384015284516001600160a01b0316885260c085015191880191909152610100840151908701526101808301519186019190915260a080830151918601919091526101a090910151151590840152509092915050565b60008281526001602052604090206138a3908263ffffffff61442216565b1561098f576138b06133db565b6001600160a01b0316816001600160a01b0316837ff6391f5c32d9c69d2a47ea670b442974b53935d1edc7fd64eb21e047a839171b60405160405180910390a45050565b60008260008111801561390957506009548111155b6139255760405162461bcd60e51b815260040161088690615262565b600084815260056020526040902061393b613c1b565b81600901541015613950576000925050610a37565b600254604051632c9aab9b60e11b815233916000916001600160a01b0390911690635935573690613985908590600401614ece565b60206040518083038186803b15801561399d57600080fd5b505afa1580156139b1573d6000803e3d6000fd5b505050506040513d601f19601f820116820180604052506139d59190810190614d59565b9050600081116139f75760405162461bcd60e51b8152600401610886906153c3565b6001600160a01b03821660009081526007602090815260408083208a845290915290206001015415613a3b5760405162461bcd60e51b815260040161088690615355565b60408051808201825287815260208082018481526001600160a01b0386166000908152600783528481208c8252909252929020905181559051600191820155600b840180549091019055600a830180548201905560088301805487908110613a9f57fe5b90600052602060002090600302016001016000815480929190600101919050555080836008018781548110613ad057fe5b6000918252602090912060026003909202010180549091019055600683015460ff16613ba4576002546040805163ca5c7b9160e01b815290516000926001600160a01b03169163ca5c7b91916004808301926020929190829003018186803b158015613b3b57600080fd5b505afa158015613b4f573d6000803e3d6000fd5b505050506040513d601f19601f82011682018060405250613b739190810190614d59565b84600a0154620186a00281613b8457fe5b04905083600501548110613ba25760068401805460ff191660011790555b505b336000908152600860209081526040808320805460018101825590845291909220018890555186906001600160a01b0384169089907f8eea3a81425aea5e440ed6b6289a8aea0db8025c75fdeb1434bd81650177034090613c06908690614f4e565b60405180910390a45060019695505050505050565b4290565b613c2e604051610d4990614ea1565b80613c435750613c43604051610d4990614eb8565b15613c4d57611d97565b600354336000818152600660209081526040808320868452909152908190208390556002549051631131011960e21b81526001600160a01b03909116926344c4046492613c9f92909190600401614ee2565b600060405180830381600087803b158015613cb957600080fd5b505af1158015613ccd573d6000803e3d6000fd5b5050505050565b600080338686604051602001613cec93929190614e77565b604051602081830303815290604052805190602001209050808414613d235760405162461bcd60e51b8152600401610886906155fe565b600a546001600160a01b0316613d398585614437565b6001600160a01b0316149695505050505050565b60006123e28383614565565b60006123e2836001600160a01b0384166145aa565b613d76614857565b81600081118015613d8957506009548111155b613da55760405162461bcd60e51b815260040161088690615262565b613dad6148c2565b60008481526005602090815260409182902082516101c08101845281546001600160a01b03168152600180830180548651600261010094831615949094026000190190911692909204601f8101869004860283018601909652858252919492938581019391929190830182828015613e665780601f10613e3b57610100808354040283529160200191613e66565b820191906000526020600020905b815481529060010190602001808311613e4957829003601f168201915b5050509183525050600282810180546040805160206001841615610100026000190190931694909404601f81018390048302850183019091528084529381019390830182828015613ef85780601f10613ecd57610100808354040283529160200191613ef8565b820191906000526020600020905b815481529060010190602001808311613edb57829003601f168201915b5050509183525050600382015460209091019060ff166001811115613f1957fe5b6001811115613f2457fe5b81526020016003820160019054906101000a900460ff166004811115613f4657fe5b6004811115613f5157fe5b815260048201805460408051602060026001851615610100026000190190941693909304601f8101849004840282018401909252818152938201939291830182828015613fdf5780601f10613fb457610100808354040283529160200191613fdf565b820191906000526020600020905b815481529060010190602001808311613fc257829003601f168201915b50505050508152602001600582015481526020016006820160009054906101000a900460ff161515151581526020016007820154815260200160088201805480602002602001604051908101604052809291908181526020016000905b828210156141115760008481526020908190206040805160038602909201805460026001821615610100026000190190911604601f81018590049094028301608090810190925260608301848152929390928492909184918401828280156140e55780601f106140ba576101008083540402835291602001916140e5565b820191906000526020600020905b8154815290600101906020018083116140c857829003601f168201915b50505050508152602001600182015481526020016002820154815250508152602001906001019061403c565b505050908252506009820154602080830191909152600a8301546040830152600b830154606080840191909152600c9093015460ff16151560809092019190915282810151865290820151919250840190600181111561416d57fe5b9081600181111561417a57fe5b90525060808101516040840190600481111561419257fe5b9081600481111561419f57fe5b90525061014081015160e080850191909152810151151560a08401526000836020015160018111156141cd57fe5b141561427a578061012001516000815181106141e557fe5b60200260200101516040015183606001818152505080610120015160018151811061420c57fe5b602002602001015160400151836080018181525050614229613c1b565b8360e0015110801561423c57508260a001515b1561426d578061016001518360800151620186a0028161425857fe5b610100830151919004101560c0840152614275565b600060c08401525b614331565b614282613c1b565b8360e0015110801561429557508260a001515b156143295760008080805b8461012001515181101561430a576142b66148a1565b85610120015182815181106142c757fe5b6020026020010151905083816040015111156142f0578194508060400151935060009250614301565b838160400151141561430157600192505b506001016142a0565b50801580156143195750600083115b151560c087015250614331915050565b600060c08401525b5050919050565b614347604051610d4990614ea1565b8061435c575061435c604051610d4990614eb8565b1561436657611d97565b60025433600081815260066020908152604080832086845290915290819020549051633ba71a1560e01b81526001600160a01b0390931692633ba71a15926143b2929091600401614ee2565b600060405180830381600087803b1580156143cc57600080fd5b505af11580156143e0573d6000803e3d6000fd5b5050336000908152600660209081526040808320868452909152812055505050565b6000610838826145c2565b60006123e2836001600160a01b0384166145c6565b60006123e2836001600160a01b038416614610565b6000815160411461445a5760405162461bcd60e51b815260040161088690615122565b60208201516040830151606084015160001a7f7fffffffffffffffffffffffffffffff5d576e7357a4501ddfe92f46681b20a08211156144ac5760405162461bcd60e51b815260040161088690615445565b8060ff16601b141580156144c457508060ff16601c14155b156144e15760405162461bcd60e51b81526004016108869061553e565b6000600187838686604051600081526020016040526040516145069493929190614f57565b6020604051602081039080840390855afa158015614528573d6000803e3d6000fd5b5050604051601f1901519150506001600160a01b03811661455b5760405162461bcd60e51b815260040161088690615023565b9695505050505050565b815460009082106145885760405162461bcd60e51b81526004016108869061505a565b82600001828154811061459757fe5b9060005260206000200154905092915050565b60009081526001919091016020526040902054151590565b5490565b60006145d283836145aa565b61460857508154600181810184556000848152602080822090930184905584548482528286019093526040902091909155610838565b506000610838565b600081815260018301602052604081205480156146cc578354600019808301919081019060009087908390811061464357fe5b906000526020600020015490508087600001848154811061466057fe5b60009182526020808320909101929092558281526001898101909252604090209084019055865487908061469057fe5b60019003818190600052602060002001600090559055866001016000878152602001908152602001600020600090556001945050505050610838565b6000915050610838565b6040518060c0016040528060006001600160a01b03168152602001600081526020016000815260200160008152602001606081526020016000151581525090565b604051806040016040528060008152602001600081525090565b828054600181600116156101000203166002900490600052602060002090601f016020900481019282601f106147725782800160ff1982351617855561479f565b8280016001018555821561479f579182015b8281111561479f578235825591602001919060010190614784565b506147ab929150614949565b5090565b828054600181600116156101000203166002900490600052602060002090601f016020900481019282601f106147f057805160ff191683800117855561479f565b8280016001018555821561479f579182015b8281111561479f578251825591602001919060010190614802565b82805482825590600052602060002090810192821561479f579160200282018281111561479f578251825591602001919060010190614802565b604080516101008101909152606081526020810160008152602001600081526020016000815260200160008152602001600015158152602001600015158152602001600081525090565b60405180606001604052806060815260200160008152602001600081525090565b604051806101c0016040528060006001600160a01b031681526020016060815260200160608152602001600060018111156148f957fe5b815260200160008152602001606081526020016000815260200160001515815260200160008152602001606081526020016000815260200160008152602001600081526020016000151581525090565b610b1391905b808211156147ab576000815560010161494f565b80356001600160a01b038116811461083857600080fd5b60008083601f84011261498b578182fd5b50813567ffffffffffffffff8111156149a2578182fd5b6020830191508360208285010111156149ba57600080fd5b9250929050565b80356005811061083857600080fd5b600082601f8301126149e0578081fd5b813567ffffffffffffffff808211156149f7578283fd5b604051601f8301601f191681016020018281118282101715614a17578485fd5b604052828152925082848301602001861015614a3257600080fd5b8260208601602083013760006020848301015250505092915050565b600060208284031215614a5f578081fd5b6123e28383614963565b60008060408385031215614a7b578081fd5b614a858484614963565b946020939093013593505050565b60008060408385031215614aa5578182fd5b82358015158114614a85578283fd5b600060208284031215614ac5578081fd5b5035919050565b60008060408385031215614ade578182fd5b8235915060208301356001600160a01b0381168114614afb578182fd5b809150509250929050565b60008060408385031215614b18578182fd5b50508035926020909101359150565b600060208284031215614b38578081fd5b6123e283836149c1565b60008060408385031215614b54578182fd5b8235614b5f816157df565b9150602083013567ffffffffffffffff811115614b7a578182fd5b614b86858286016149d0565b9150509250929050565b60008060008060008060008060a0898b031215614bab578384fd5b883567ffffffffffffffff80821115614bc2578586fd5b614bce8c838d0161497a565b909a50985060208b0135915080821115614be6578586fd5b614bf28c838d0161497a565b909850965060408b0135955060608b0135915080821115614c11578485fd5b818b018c601f820112614c22578586fd5b8035925081831115614c32578586fd5b8c60208085028301011115614c45578586fd5b6020019450909250614c5c90508a60808b016149c1565b90509295985092959890939650565b60008060008060008060008060a0898b031215614c86578384fd5b883567ffffffffffffffff80821115614c9d578586fd5b614ca98c838d0161497a565b909a50985060208b0135915080821115614cc1578586fd5b614ccd8c838d0161497a565b909850965060408b0135955060608b0135915080821115614cec578485fd5b50614cf98b828c0161497a565b9094509250506080890135614d0d816157df565b809150509295985092959890939650565b600060208284031215614d2f578081fd5b813567ffffffffffffffff811115614d45578182fd5b614d51848285016149d0565b949350505050565b600060208284031215614d6a578081fd5b5051919050565b60008060408385031215614d83578182fd5b82359150614d948460208501614963565b90509250929050565b60008060408385031215614daf578182fd5b8235915060208301356001600160e01b031981168114614afb578182fd5b600080600080600060808688031215614de4578283fd5b853594506020860135935060408601359250606086013567ffffffffffffffff811115614e0f578182fd5b614e1b8882890161497a565b969995985093965092949392505050565b60008151808452815b81811015614e5157602081850181015186830182015201614e35565b81811115614e625782602083870101525b50601f01601f19169290920160200192915050565b60609390931b6bffffffffffffffffffffffff191683526014830191909152603482015260540190565b6a564f54494e475f524f4c4560a81b8152600b0190565b6941444d494e5f524f4c4560b01b8152600a0190565b6001600160a01b0391909116815260200190565b6001600160a01b03929092168252602082015260400190565b600060018060a01b038816825286602083015285604083015284606083015260c06080830152614f2e60c0830185614e2c565b905082151560a0830152979650505050505050565b901515815260200190565b90815260200190565b93845260ff9290921660208401526040830152606082015260800190565b6020810160058310614f8357fe5b91905290565b6000602082526123e26020830184614e2c565b6000610100808352614fb08184018c614e2c565b915050614fbc896157cb565b886020830152614fcb886157d5565b60408201979097526060810195909552608085019390935290151560a0840152151560c083015260e09091015292915050565b6000606082526150116060830186614e2c565b60208301949094525060400152919050565b60208082526018908201527f45434453413a20696e76616c6964207369676e61747572650000000000000000604082015260600190565b60208082526022908201527f456e756d657261626c655365743a20696e646578206f7574206f6620626f756e604082015261647360f01b606082015260800190565b6020808252602f908201527f416363657373436f6e74726f6c3a2073656e646572206d75737420626520616e60408201526e0818591b5a5b881d1bc819dc985b9d608a1b606082015260800190565b6020808252601c908201527f526577617264696e673a20696e636f7272656374206e6f6e6365496400000000604082015260600190565b6020808252601f908201527f45434453413a20696e76616c6964207369676e6174757265206c656e67746800604082015260600190565b60208082526028908201527f566f74696e673a2074696d65206d75737420626520626967676572207468616e6040820152670818dd5c9c995b9d60c21b606082015260800190565b60208082526026908201527f4f776e61626c653a206e6577206f776e657220697320746865207a65726f206160408201526564647265737360d01b606082015260800190565b60208082526019908201527f566f74696e673a206e6f206c656164696e67206f7074696f6e00000000000000604082015260600190565b60208082526024908201527f566f74696e673a206d757374206265206174206c656173742074776f206f7074604082015263696f6e7360e01b606082015260800190565b6020808252601f908201527f566f74696e673a2070726f706f73616c20646f6573206e6f7420657869737400604082015260600190565b602080825260159082015274159bdd1a5b99ce88195b5c1d1e4819195c1bdcda5d605a1b604082015260600190565b60208082526025908201527f566f74696e673a20746869732070726f706f73616c206974206e6f7420616363604082015264195c1d195960da1b606082015260800190565b60208082526028908201527f566f74696e673a20706c656173652063686f6f736520616e206f7074696f6e206040820152670c4f240d2dcc8caf60c31b606082015260800190565b6020808252601e908201527f566f74696e673a20796f75206861766520616c726561647920766f7465640000604082015260600190565b6020808252601e908201527f526577617264696e673a20696e636f7272656374207369676e61747572650000604082015260600190565b6020808252602b908201527f566f74696e673a20796f75206861766520746f206c6f636b20796f757220746f60408201526a6b656e73206265666f726560a81b606082015260800190565b6020808252601f908201527f566f74696e673a20696e636f7272656374207570646174696e67206461746100604082015260600190565b60208082526022908201527f45434453413a20696e76616c6964207369676e6174757265202773272076616c604082015261756560f01b606082015260800190565b602080825260169082015275566f74696e673a206f7574206f6620696e646578657360501b604082015260600190565b60208082526030908201527f416363657373436f6e74726f6c3a2073656e646572206d75737420626520616e60408201526f2061646d696e20746f207265766f6b6560801b606082015260800190565b60208082526018908201527f566f74696e673a20616c72656164792065786563757465640000000000000000604082015260600190565b60208082526022908201527f45434453413a20696e76616c6964207369676e6174757265202776272076616c604082015261756560f01b606082015260800190565b6020808252818101527f4f776e61626c653a2063616c6c6572206973206e6f7420746865206f776e6572604082015260600190565b60208082526029908201527f566f74696e673a20766f74696e6720706572696f64206973206e6f742066696e6040820152681a5cda1959081e595d60ba1b606082015260800190565b60208082526019908201527f526577617264696e673a20696e636f7272656374206861736800000000000000604082015260600190565b60208082526022908201527f566f74696e673a20796f7520646f206e6f742068617665207065726d6973736960408201526137b760f11b606082015260800190565b602080825260139082015272566f74696e673a20656d707479207469746c6560681b604082015260600190565b60208082526027908201527f566f74696e673a20746869732070726f706f73616c206973206e6f742065786560408201526663757461626c6560c81b606082015260800190565b6020808252602f908201527f416363657373436f6e74726f6c3a2063616e206f6e6c792072656e6f756e636560408201526e103937b632b9903337b91039b2b63360891b606082015260800190565b60208082526021908201527f566f74696e673a20796f752073686f756c642073617920796561206f72206e616040820152607960f81b606082015260800190565b6000858252608060208301526157946080830186614e2c565b905061579f846157cb565b8360408301526157ae836157d5565b82606083015295945050505050565b918252602082015260400190565b60028110611d9757fe5b60058110611d9757fe5b60058110611d9757600080fdfea2646970667358221220bbc22d9a0ba8277d9006b60b2843284ce7ea634f055703be6a5fbed6dc60a2fa64736f6c63430006020033a8a1fd55aad9bd98e45291d680690c619e60f7931ecaeb384ba0bfb225cd25fe",
  "source": "// SPDX-License-Identifier: GPL-3.0\npragma solidity 0.6.2;\npragma experimental ABIEncoderV2;\n\nimport \"./Voting.sol\";\nimport \"../../node_modules/openzeppelin-solidity/contracts/cryptography/ECDSA.sol\";\n\n\ncontract Rewarding is Voting {\n\n    address private _verifyRewardAddress;\n\n    mapping (address => uint) private _nonces;\n\n    event ClaimStakingReward(address indexed recipient, uint amount);\n\n    function setRewardAddress(address rewardAddress) external onlyOwner {\n        _verifyRewardAddress = rewardAddress;\n    }\n\n    function claimReward(\n        uint reward,\n        uint nonceId,\n        bytes32 hash,\n        bytes calldata signature\n    ) external returns (bool) {\n        require(nonceId == _nonces[msg.sender], \"Rewarding: incorrect nonceId\");\n        require(verifyReward(reward, nonceId, hash, signature), \"Rewarding: incorrect signature\");\n        _nonces[msg.sender]++;\n        _Token.withdraw(msg.sender, reward);\n        emit ClaimStakingReward(msg.sender, reward);\n        return true;\n    }\n\n    function verifyReward(\n        uint reward,\n        uint nonceId,\n        bytes32 hash,\n        bytes memory signature\n    )\n    internal view\n    returns (bool) {\n        bytes32 verifyHash = keccak256(abi.encodePacked(msg.sender, reward, nonceId));\n        require(hash == verifyHash, \"Rewarding: incorrect hash\");\n        return ECDSA.recover(hash, signature) == _verifyRewardAddress;\n    }\n\n}\n",
  "sourcePath": "/home/pirat/Desktop/DAO/contracts/DAO/Rewarding.sol",
  "compiler": {
    "name": "solc",
    "version": "0.6.2+commit.bacdbe57.Emscripten.clang"
  },
  "schemaVersion": "3.2.5",
  "updatedAt": "2021-06-17T16:05:32.783Z",
  "devdoc": {
    "methods": {
      "getRoleAdmin(bytes32)": {
        "details": "Returns the admin role that controls `role`. See {grantRole} and {revokeRole}.     * To change a role's admin, use {_setRoleAdmin}."
      },
      "getRoleMember(bytes32,uint256)": {
        "details": "Returns one of the accounts that have `role`. `index` must be a value between 0 and {getRoleMemberCount}, non-inclusive.     * Role bearers are not sorted in any particular way, and their ordering may change at any point.     * WARNING: When using {getRoleMember} and {getRoleMemberCount}, make sure you perform all queries on the same block. See the following https://forum.openzeppelin.com/t/iterating-over-elements-on-enumerableset-in-openzeppelin-contracts/2296[forum post] for more information."
      },
      "getRoleMemberCount(bytes32)": {
        "details": "Returns the number of accounts that have `role`. Can be used together with {getRoleMember} to enumerate all bearers of a role."
      },
      "grantRole(bytes32,address)": {
        "details": "Grants `role` to `account`.     * If `account` had not been already granted `role`, emits a {RoleGranted} event.     * Requirements:     * - the caller must have ``role``'s admin role."
      },
      "hasRole(bytes32,address)": {
        "details": "Returns `true` if `account` has been granted `role`."
      },
      "owner()": {
        "details": "Returns the address of the current owner."
      },
      "renounceOwnership()": {
        "details": "Leaves the contract without owner. It will not be possible to call `onlyOwner` functions anymore. Can only be called by the current owner.     * NOTE: Renouncing ownership will leave the contract without an owner, thereby removing any functionality that is only available to the owner."
      },
      "renounceRole(bytes32,address)": {
        "details": "Revokes `role` from the calling account.     * Roles are often managed via {grantRole} and {revokeRole}: this function's purpose is to provide a mechanism for accounts to lose their privileges if they are compromised (such as when a trusted device is misplaced).     * If the calling account had been granted `role`, emits a {RoleRevoked} event.     * Requirements:     * - the caller must be `account`."
      },
      "revokeRole(bytes32,address)": {
        "details": "Revokes `role` from `account`.     * If `account` had been granted `role`, emits a {RoleRevoked} event.     * Requirements:     * - the caller must have ``role``'s admin role."
      },
      "transferOwnership(address)": {
        "details": "Transfers ownership of the contract to a new account (`newOwner`). Can only be called by the current owner."
      }
    }
  },
  "userdoc": {
    "methods": {}
  }
}