{
  "contractName": "Rewarding",
  "abi": [
    {
      "anonymous": false,
      "inputs": [
        {
          "indexed": true,
          "internalType": "address",
          "name": "recipient",
          "type": "address"
        },
        {
          "indexed": false,
          "internalType": "uint256",
          "name": "amount",
          "type": "uint256"
        }
      ],
      "name": "ClaimStakingReward",
      "type": "event"
    },
    {
      "anonymous": false,
      "inputs": [
        {
          "indexed": true,
          "internalType": "uint256",
          "name": "issueId",
          "type": "uint256"
        },
        {
          "indexed": true,
          "internalType": "address",
          "name": "initialized",
          "type": "address"
        }
      ],
      "name": "ExecProposal",
      "type": "event"
    },
    {
      "anonymous": false,
      "inputs": [
        {
          "indexed": true,
          "internalType": "uint256",
          "name": "issueId",
          "type": "uint256"
        },
        {
          "indexed": true,
          "internalType": "address",
          "name": "creator",
          "type": "address"
        },
        {
          "indexed": false,
          "internalType": "string",
          "name": "title",
          "type": "string"
        },
        {
          "indexed": true,
          "internalType": "enum Voting.ProposalType",
          "name": "votingType",
          "type": "uint8"
        },
        {
          "indexed": false,
          "internalType": "enum Voting.ProposalUpdater",
          "name": "votingUpdater",
          "type": "uint8"
        },
        {
          "indexed": false,
          "internalType": "uint256",
          "name": "quorumPct",
          "type": "uint256"
        },
        {
          "indexed": false,
          "internalType": "uint256",
          "name": "supportPct",
          "type": "uint256"
        },
        {
          "indexed": false,
          "internalType": "uint256",
          "name": "expiryTime",
          "type": "uint256"
        }
      ],
      "name": "NewProposal",
      "type": "event"
    },
    {
      "anonymous": false,
      "inputs": [
        {
          "indexed": true,
          "internalType": "uint256",
          "name": "issueId",
          "type": "uint256"
        },
        {
          "indexed": true,
          "internalType": "address",
          "name": "from",
          "type": "address"
        },
        {
          "indexed": true,
          "internalType": "uint256",
          "name": "option",
          "type": "uint256"
        },
        {
          "indexed": false,
          "internalType": "uint256",
          "name": "weight",
          "type": "uint256"
        }
      ],
      "name": "OnVote",
      "type": "event"
    },
    {
      "anonymous": false,
      "inputs": [
        {
          "indexed": true,
          "internalType": "address",
          "name": "previousOwner",
          "type": "address"
        },
        {
          "indexed": true,
          "internalType": "address",
          "name": "newOwner",
          "type": "address"
        }
      ],
      "name": "OwnershipTransferred",
      "type": "event"
    },
    {
      "anonymous": false,
      "inputs": [
        {
          "indexed": true,
          "internalType": "bytes32",
          "name": "role",
          "type": "bytes32"
        },
        {
          "indexed": true,
          "internalType": "bytes32",
          "name": "previousAdminRole",
          "type": "bytes32"
        },
        {
          "indexed": true,
          "internalType": "bytes32",
          "name": "newAdminRole",
          "type": "bytes32"
        }
      ],
      "name": "RoleAdminChanged",
      "type": "event"
    },
    {
      "anonymous": false,
      "inputs": [
        {
          "indexed": true,
          "internalType": "bytes32",
          "name": "role",
          "type": "bytes32"
        },
        {
          "indexed": true,
          "internalType": "address",
          "name": "account",
          "type": "address"
        },
        {
          "indexed": true,
          "internalType": "address",
          "name": "sender",
          "type": "address"
        }
      ],
      "name": "RoleGranted",
      "type": "event"
    },
    {
      "anonymous": false,
      "inputs": [
        {
          "indexed": true,
          "internalType": "bytes32",
          "name": "role",
          "type": "bytes32"
        },
        {
          "indexed": true,
          "internalType": "address",
          "name": "account",
          "type": "address"
        },
        {
          "indexed": true,
          "internalType": "address",
          "name": "sender",
          "type": "address"
        }
      ],
      "name": "RoleRevoked",
      "type": "event"
    },
    {
      "anonymous": false,
      "inputs": [
        {
          "indexed": true,
          "internalType": "enum Voting.ProposalUpdater",
          "name": "updater",
          "type": "uint8"
        },
        {
          "indexed": false,
          "internalType": "uint256",
          "name": "quorumPct",
          "type": "uint256"
        },
        {
          "indexed": false,
          "internalType": "uint256",
          "name": "supportPct",
          "type": "uint256"
        }
      ],
      "name": "UpdatedProposalConfig",
      "type": "event"
    },
    {
      "inputs": [],
      "name": "ADMIN_ROLE",
      "outputs": [
        {
          "internalType": "bytes32",
          "name": "",
          "type": "bytes32"
        }
      ],
      "stateMutability": "view",
      "type": "function"
    },
    {
      "inputs": [],
      "name": "DEFAULT_ADMIN_ROLE",
      "outputs": [
        {
          "internalType": "bytes32",
          "name": "",
          "type": "bytes32"
        }
      ],
      "stateMutability": "view",
      "type": "function"
    },
    {
      "inputs": [],
      "name": "VOTING_ROLE",
      "outputs": [
        {
          "internalType": "bytes32",
          "name": "",
          "type": "bytes32"
        }
      ],
      "stateMutability": "view",
      "type": "function"
    },
    {
      "inputs": [
        {
          "internalType": "address",
          "name": "account",
          "type": "address"
        }
      ],
      "name": "addAdmin",
      "outputs": [],
      "stateMutability": "nonpayable",
      "type": "function"
    },
    {
      "inputs": [],
      "name": "availableToCreateProposals",
      "outputs": [
        {
          "internalType": "bool",
          "name": "",
          "type": "bool"
        }
      ],
      "stateMutability": "view",
      "type": "function"
    },
    {
      "inputs": [
        {
          "internalType": "uint256",
          "name": "issueId",
          "type": "uint256"
        },
        {
          "internalType": "address",
          "name": "addr",
          "type": "address"
        }
      ],
      "name": "ballotOf",
      "outputs": [
        {
          "internalType": "uint256",
          "name": "",
          "type": "uint256"
        }
      ],
      "stateMutability": "view",
      "type": "function"
    },
    {
      "inputs": [
        {
          "internalType": "uint256",
          "name": "issueId",
          "type": "uint256"
        }
      ],
      "name": "countOptions",
      "outputs": [
        {
          "internalType": "uint256",
          "name": "",
          "type": "uint256"
        }
      ],
      "stateMutability": "view",
      "type": "function"
    },
    {
      "inputs": [],
      "name": "countProposals",
      "outputs": [
        {
          "internalType": "uint256",
          "name": "",
          "type": "uint256"
        }
      ],
      "stateMutability": "view",
      "type": "function"
    },
    {
      "inputs": [
        {
          "internalType": "bool",
          "name": "isAvailable",
          "type": "bool"
        },
        {
          "internalType": "uint256",
          "name": "minStaked",
          "type": "uint256"
        }
      ],
      "name": "createProposalAvailability",
      "outputs": [],
      "stateMutability": "nonpayable",
      "type": "function"
    },
    {
      "inputs": [
        {
          "internalType": "uint256",
          "name": "issueId",
          "type": "uint256"
        }
      ],
      "name": "execProposal",
      "outputs": [],
      "stateMutability": "nonpayable",
      "type": "function"
    },
    {
      "inputs": [],
      "name": "getNewestProposal",
      "outputs": [
        {
          "internalType": "uint256",
          "name": "issueId",
          "type": "uint256"
        },
        {
          "internalType": "string",
          "name": "title",
          "type": "string"
        },
        {
          "internalType": "enum Voting.ProposalType",
          "name": "votingType",
          "type": "uint8"
        },
        {
          "internalType": "enum Voting.ProposalUpdater",
          "name": "votingUpdater",
          "type": "uint8"
        }
      ],
      "stateMutability": "view",
      "type": "function"
    },
    {
      "inputs": [
        {
          "internalType": "bytes32",
          "name": "role",
          "type": "bytes32"
        }
      ],
      "name": "getRoleAdmin",
      "outputs": [
        {
          "internalType": "bytes32",
          "name": "",
          "type": "bytes32"
        }
      ],
      "stateMutability": "view",
      "type": "function"
    },
    {
      "inputs": [
        {
          "internalType": "bytes32",
          "name": "role",
          "type": "bytes32"
        },
        {
          "internalType": "uint256",
          "name": "index",
          "type": "uint256"
        }
      ],
      "name": "getRoleMember",
      "outputs": [
        {
          "internalType": "address",
          "name": "",
          "type": "address"
        }
      ],
      "stateMutability": "view",
      "type": "function"
    },
    {
      "inputs": [
        {
          "internalType": "bytes32",
          "name": "role",
          "type": "bytes32"
        }
      ],
      "name": "getRoleMemberCount",
      "outputs": [
        {
          "internalType": "uint256",
          "name": "",
          "type": "uint256"
        }
      ],
      "stateMutability": "view",
      "type": "function"
    },
    {
      "inputs": [
        {
          "internalType": "bytes32",
          "name": "role",
          "type": "bytes32"
        },
        {
          "internalType": "address",
          "name": "account",
          "type": "address"
        }
      ],
      "name": "grantRole",
      "outputs": [],
      "stateMutability": "nonpayable",
      "type": "function"
    },
    {
      "inputs": [
        {
          "internalType": "bytes32",
          "name": "role",
          "type": "bytes32"
        },
        {
          "internalType": "address",
          "name": "account",
          "type": "address"
        }
      ],
      "name": "hasRole",
      "outputs": [
        {
          "internalType": "bool",
          "name": "",
          "type": "bool"
        }
      ],
      "stateMutability": "view",
      "type": "function"
    },
    {
      "inputs": [
        {
          "internalType": "uint256",
          "name": "issueId",
          "type": "uint256"
        }
      ],
      "name": "issueDescription",
      "outputs": [
        {
          "internalType": "string",
          "name": "",
          "type": "string"
        }
      ],
      "stateMutability": "view",
      "type": "function"
    },
    {
      "inputs": [],
      "name": "minAmountToCreate",
      "outputs": [
        {
          "internalType": "uint256",
          "name": "",
          "type": "uint256"
        }
      ],
      "stateMutability": "view",
      "type": "function"
    },
    {
      "inputs": [
        {
          "internalType": "string",
          "name": "title",
          "type": "string"
        },
        {
          "internalType": "string",
          "name": "description",
          "type": "string"
        },
        {
          "internalType": "uint256",
          "name": "expiryTime",
          "type": "uint256"
        },
        {
          "internalType": "string[]",
          "name": "options",
          "type": "string[]"
        },
        {
          "internalType": "enum Voting.ProposalUpdater",
          "name": "votingUpdater",
          "type": "uint8"
        }
      ],
      "name": "newMultiProposal",
      "outputs": [],
      "stateMutability": "nonpayable",
      "type": "function"
    },
    {
      "inputs": [
        {
          "internalType": "string",
          "name": "title",
          "type": "string"
        },
        {
          "internalType": "string",
          "name": "description",
          "type": "string"
        },
        {
          "internalType": "uint256",
          "name": "expiryTime",
          "type": "uint256"
        },
        {
          "internalType": "enum Voting.ProposalUpdater",
          "name": "votingUpdater",
          "type": "uint8"
        },
        {
          "internalType": "string",
          "name": "updateData",
          "type": "string"
        }
      ],
      "name": "newProposal",
      "outputs": [],
      "stateMutability": "nonpayable",
      "type": "function"
    },
    {
      "inputs": [
        {
          "internalType": "uint256",
          "name": "issueId",
          "type": "uint256"
        },
        {
          "internalType": "uint256",
          "name": "option",
          "type": "uint256"
        }
      ],
      "name": "optionInfo",
      "outputs": [
        {
          "internalType": "string",
          "name": "name",
          "type": "string"
        },
        {
          "internalType": "uint256",
          "name": "count",
          "type": "uint256"
        },
        {
          "internalType": "uint256",
          "name": "weight",
          "type": "uint256"
        }
      ],
      "stateMutability": "view",
      "type": "function"
    },
    {
      "inputs": [
        {
          "internalType": "uint256",
          "name": "issueId",
          "type": "uint256"
        },
        {
          "internalType": "uint256",
          "name": "option",
          "type": "uint256"
        }
      ],
      "name": "optionName",
      "outputs": [
        {
          "internalType": "string",
          "name": "",
          "type": "string"
        }
      ],
      "stateMutability": "view",
      "type": "function"
    },
    {
      "inputs": [],
      "name": "owner",
      "outputs": [
        {
          "internalType": "address",
          "name": "",
          "type": "address"
        }
      ],
      "stateMutability": "view",
      "type": "function"
    },
    {
      "inputs": [
        {
          "internalType": "string",
          "name": "_value",
          "type": "string"
        }
      ],
      "name": "parseInt",
      "outputs": [
        {
          "internalType": "uint256",
          "name": "_ret",
          "type": "uint256"
        }
      ],
      "stateMutability": "pure",
      "type": "function"
    },
    {
      "inputs": [
        {
          "internalType": "uint256",
          "name": "issueId",
          "type": "uint256"
        }
      ],
      "name": "proposalConfig",
      "outputs": [
        {
          "internalType": "address",
          "name": "creator",
          "type": "address"
        },
        {
          "internalType": "uint256",
          "name": "quorumPct",
          "type": "uint256"
        },
        {
          "internalType": "uint256",
          "name": "supportPct",
          "type": "uint256"
        },
        {
          "internalType": "uint256",
          "name": "voters",
          "type": "uint256"
        },
        {
          "internalType": "string",
          "name": "updateData",
          "type": "string"
        }
      ],
      "stateMutability": "view",
      "type": "function"
    },
    {
      "inputs": [
        {
          "internalType": "enum Voting.ProposalUpdater",
          "name": "conf",
          "type": "uint8"
        }
      ],
      "name": "proposalConfigRates",
      "outputs": [
        {
          "internalType": "uint256",
          "name": "quorumPct",
          "type": "uint256"
        },
        {
          "internalType": "uint256",
          "name": "supportPct",
          "type": "uint256"
        }
      ],
      "stateMutability": "view",
      "type": "function"
    },
    {
      "inputs": [
        {
          "internalType": "uint256",
          "name": "issueId",
          "type": "uint256"
        }
      ],
      "name": "proposalInfo",
      "outputs": [
        {
          "internalType": "string",
          "name": "title",
          "type": "string"
        },
        {
          "internalType": "enum Voting.ProposalType",
          "name": "votingType",
          "type": "uint8"
        },
        {
          "internalType": "enum Voting.ProposalUpdater",
          "name": "votingUpdater",
          "type": "uint8"
        },
        {
          "internalType": "uint256",
          "name": "nay",
          "type": "uint256"
        },
        {
          "internalType": "uint256",
          "name": "yea",
          "type": "uint256"
        },
        {
          "internalType": "bool",
          "name": "hasQuorum",
          "type": "bool"
        },
        {
          "internalType": "bool",
          "name": "accepted",
          "type": "bool"
        },
        {
          "internalType": "uint256",
          "name": "expiryTime",
          "type": "uint256"
        }
      ],
      "stateMutability": "view",
      "type": "function"
    },
    {
      "inputs": [],
      "name": "renounceOwnership",
      "outputs": [],
      "stateMutability": "nonpayable",
      "type": "function"
    },
    {
      "inputs": [
        {
          "internalType": "bytes32",
          "name": "role",
          "type": "bytes32"
        },
        {
          "internalType": "address",
          "name": "account",
          "type": "address"
        }
      ],
      "name": "renounceRole",
      "outputs": [],
      "stateMutability": "nonpayable",
      "type": "function"
    },
    {
      "inputs": [
        {
          "internalType": "bytes32",
          "name": "role",
          "type": "bytes32"
        },
        {
          "internalType": "address",
          "name": "account",
          "type": "address"
        }
      ],
      "name": "revokeRole",
      "outputs": [],
      "stateMutability": "nonpayable",
      "type": "function"
    },
    {
      "inputs": [
        {
          "internalType": "address",
          "name": "newOwner",
          "type": "address"
        }
      ],
      "name": "transferOwnership",
      "outputs": [],
      "stateMutability": "nonpayable",
      "type": "function"
    },
    {
      "inputs": [
        {
          "internalType": "uint256",
          "name": "issueId",
          "type": "uint256"
        },
        {
          "internalType": "bytes4",
          "name": "option",
          "type": "bytes4"
        }
      ],
      "name": "vote",
      "outputs": [
        {
          "internalType": "bool",
          "name": "",
          "type": "bool"
        }
      ],
      "stateMutability": "nonpayable",
      "type": "function"
    },
    {
      "inputs": [
        {
          "internalType": "uint256",
          "name": "issueId",
          "type": "uint256"
        },
        {
          "internalType": "uint256",
          "name": "option",
          "type": "uint256"
        }
      ],
      "name": "vote",
      "outputs": [
        {
          "internalType": "bool",
          "name": "",
          "type": "bool"
        }
      ],
      "stateMutability": "nonpayable",
      "type": "function"
    },
    {
      "inputs": [
        {
          "internalType": "uint256",
          "name": "issueId",
          "type": "uint256"
        },
        {
          "internalType": "address",
          "name": "addr",
          "type": "address"
        }
      ],
      "name": "weightOf",
      "outputs": [
        {
          "internalType": "uint256",
          "name": "",
          "type": "uint256"
        }
      ],
      "stateMutability": "view",
      "type": "function"
    },
    {
      "inputs": [
        {
          "internalType": "uint256",
          "name": "issueId",
          "type": "uint256"
        },
        {
          "internalType": "uint256",
          "name": "option",
          "type": "uint256"
        }
      ],
      "name": "weightedVoteCountsOf",
      "outputs": [
        {
          "internalType": "uint256",
          "name": "",
          "type": "uint256"
        }
      ],
      "stateMutability": "view",
      "type": "function"
    },
    {
      "inputs": [
        {
          "internalType": "address",
          "name": "rewardAddress",
          "type": "address"
        }
      ],
      "name": "setRewardAddress",
      "outputs": [],
      "stateMutability": "nonpayable",
      "type": "function"
    },
    {
      "inputs": [
        {
          "internalType": "uint256",
          "name": "reward",
          "type": "uint256"
        },
        {
          "internalType": "uint256",
          "name": "timestamp",
          "type": "uint256"
        },
        {
          "internalType": "bytes32",
          "name": "hash",
          "type": "bytes32"
        },
        {
          "internalType": "bytes",
          "name": "signature",
          "type": "bytes"
        }
      ],
      "name": "claimReward",
      "outputs": [
        {
          "internalType": "bool",
          "name": "",
          "type": "bool"
        }
      ],
      "stateMutability": "nonpayable",
      "type": "function"
    }
  ],
  "bytecode": "0x60806040526000620000196001600160e01b03620001cb16565b600080546001600160a01b0319166001600160a01b0383169081178255604051929350917f8be0079c531659141344cd1fd0a4f28419497f9722a3daafe3b4186f6b6457e0908290a350620000a3604051620000759062000238565b60405180910390206040516200008b9062000238565b6040519081900390206001600160e01b03620001cf16565b620000b5604051620000759062000221565b60408051808201825261c350808252614e2060208084018281526000808052600890925293517f5eff886ea0ce6ca488a3d6e336d6c0f75f46d19b42c06ce5ee98e42c96d256c75592517f5eff886ea0ce6ca488a3d6e336d6c0f75f46d19b42c06ce5ee98e42c96d256c8559251909291907fa8a1fd55aad9bd98e45291d680690c619e60f7931ecaeb384ba0bfb225cd25fe906200015890859085906200024e565b60405180910390a260408051808201909152918252602080830191825260016000526008905290517fad67d757c34507f157cacfa2e3153e9f260a2244f30428821be7be64587ac55f55517fad67d757c34507f157cacfa2e3153e9f260a2244f30428821be7be64587ac560556200025c565b3390565b600082815260016020526040808220600201549051839285917fbd79b86ffe0ab8e8776151514217cd7cacd52c909f66475c3af44e129f0b00ff9190a460009182526001602052604090912060020155565b6a564f54494e475f524f4c4560a81b8152600b0190565b6941444d494e5f524f4c4560b01b8152600a0190565b918252602082015260400190565b614da3806200026c6000396000f3fe608060405234801561001057600080fd5b50600436106102275760003560e01c806375b238fc11610130578063ae092e89116100b8578063e0136a791161007c578063e0136a79146104a7578063eaac697a146104bf578063f0464a2b146104d2578063f2fde38b146104e5578063f6621dc3146104f857610227565b8063ae092e891461043f578063b384abef14610466578063ca15c87314610479578063d547741f1461048c578063d7eefea11461049f57610227565b80638e0a1372116100ff5780638e0a1372146103eb5780639010d07c146103fe57806391d1485414610411578063933c130614610424578063a217fddf1461043757610227565b806375b238fc146103b3578063761bbd8a146103bb5780638935ced5146103c35780638da5cb5b146103d657610227565b80634883a6a8116101b35780635e00e679116101825780635e00e6791461035f578063637a2e36146103725780636e6a1dc3146103855780637048027514610398578063715018a6146103ab57610227565b80634883a6a8146102f75780634ba241d8146103175780634c461f5a1461033957806353c2d4791461034c57610227565b806331aab888116101fa57806331aab8881461029257806332ec991c146102b657806336568abe146102c957806342346c5e146102dc57806346c6211e146102ef57610227565b806312a70f0b1461022c5780631e01a1721461024a578063248a9ca31461026a5780632f2ff15d1461027d575b600080fd5b610234610519565b6040516102419190614474565b60405180910390f35b61025d610258366004613fe3565b610530565b60405161024191906144f0565b610234610278366004613fe3565b61060e565b61029061028b366004613ffb565b610626565b005b6102a56102a0366004613fe3565b61066e565b604051610241959493929190614436565b6102346102c43660046142ac565b6106b0565b6102906102d7366004613ffb565b61070f565b6102346102ea366004614203565b610751565b6102346107e0565b61030a6103053660046142d8565b6107e7565b6040516102419190614469565b61032a610325366004614035565b6108d3565b60405161024193929190614562565b610290610347366004613fb4565b610a0b565b61029061035a366004614071565b610a70565b61029061036d366004613f99565b611158565b61029061038036600461414c565b6111af565b610234610393366004614035565b6117dd565b6102906103a6366004613f99565b611846565b61029061189b565b61023461191a565b610234611926565b6102346103d13660046142ac565b61192c565b6103de611987565b6040516102419190614409565b61030a6103f9366004614308565b611996565b6103de61040c366004614035565b611b2c565b61030a61041f366004613ffb565b611b53565b610290610432366004613fe3565b611b71565b61023461216c565b61045261044d366004613fe3565b612171565b604051610241989796959493929190614503565b61030a610474366004614035565b6121d5565b610234610487366004613fe3565b6125d2565b61029061049a366004613ffb565b6125e9565b61030a612623565b6104af6126ff565b6040516102419493929190614cdd565b61025d6104cd366004614035565b6127cd565b6102346104e0366004613fe3565b6128ec565b6102906104f3366004613f99565b612934565b61050b610506366004614056565b6129ea565b604051610241929190614d1d565b604051610525906143dc565b604051809103902081565b60608160008111801561054557506004548111155b61056a5760405162461bcd60e51b8152600401610561906147c6565b60405180910390fd5b6000838152600360209081526040918290206002908101805484516001821615610100026000190190911692909204601f8101849004840283018401909452838252909290918301828280156106015780601f106105d657610100808354040283529160200191610601565b820191906000526020600020905b8154815290600101906020018083116105e457829003601f168201915b5050505050915050919050565b6000818152600160205260409020600201545b919050565b6000828152600160205260409020600201546106449061041f612a46565b6106605760405162461bcd60e51b815260040161056190614600565b61066a8282612a4a565b5050565b600080600080606061067e613ceb565b61068787612ab9565b8051602082015160408301516060840151608090940151929b919a509850919650945092505050565b6000826000811180156106c557506004548111155b6106e15760405162461bcd60e51b8152600401610561906147c6565b6001600160a01b038316600090815260076020908152604080832087845290915290205491505b5092915050565b610717612a46565b6001600160a01b0316816001600160a01b0316146107475760405162461bcd60e51b815260040161056190614c4d565b61066a8282612ec9565b80516000908290600190600019015b82518110156107d857603083828151811061077757fe5b016020015160f81c108015906107a15750603983828151811061079657fe5b016020015160f81c11155b6107a757fe5b8160308483815181106107b657fe5b016020015160f81c0360ff16029390930192600a919091029060001901610760565b505050919050565b6006545b90565b6000826000811180156107fc57506004548111155b6108185760405162461bcd60e51b8152600401610561906147c6565b6279656160e81b626e617960e81b6001600160e01b0319851682148061084a57506001600160e01b0319858116908216145b6108665760405162461bcd60e51b815260040161056190614c9c565b60008681526003602081905260408220015460ff16600181111561088657fe5b146108a35760405162461bcd60e51b81526004016105619061486f565b60006001600160e01b031986811690841614156108be575060015b6108c88782612f38565b979650505050505050565b6060600080846000811180156108eb57506004548111155b6109075760405162461bcd60e51b8152600401610561906147c6565b60008681526003602052604090206008015485106109375760405162461bcd60e51b8152600401610561906149e9565b600086815260036020526040812060080180548790811061095457fe5b60009182526020918290206003919091020180546040805160026001841615610100026000190190931692909204601f8101859004850283018501909152808252919350918391908301828280156109ed5780601f106109c2576101008083540402835291602001916109ed565b820191906000526020600020905b8154815290600101906020018083116109d057829003601f168201915b50505050509450806001015493508060020154925050509250925092565b610a28604051610a1a906143dc565b604051809103902033611b53565b80610a3d5750610a3d604051610a1a906143f3565b610a595760405162461bcd60e51b815260040161056190614b97565b6005805460ff191692151592909217909155600655565b610a7f604051610a1a906143dc565b80610a945750610a94604051610a1a906143f3565b15610ddd5786610ab65760405162461bcd60e51b815260040161056190614bd9565b428411610ad55760405162461bcd60e51b815260040161056190614686565b60018211610af55760405162461bcd60e51b815260040161056190614782565b60048054600101908190556000908152600360205260409020610b16613d23565b60086000846003811115610b2657fe5b60ff16815260208082019290925260409081016000208151808301909252805482526001908101549282019290925283546001600160a01b031916331784559150610b749083018b8b613d3d565b50610b83600283018989613d3d565b508051600583015560208101516007830155600982018690556003808301805460ff1916600117808255859261ff001990911690610100908490811115610bc657fe5b021790555060005b84811015610d8f576000846003811115610be457fe5b14610c9a57610c7e84878784818110610bf957fe5b602002820190508035601e1936849003018112610c1557600080fd5b9091016020810191503567ffffffffffffffff811115610c3457600080fd5b36819003821315610c4457600080fd5b8080601f01602080910402602001604051908101604052809392919081815260200183838082843760009201919091525061323a92505050565b610c9a5760405162461bcd60e51b815260040161056190614970565b826008016040518060600160405280888885818110610cb557fe5b602002820190508035601e1936849003018112610cd157600080fd5b9091016020810191503567ffffffffffffffff811115610cf057600080fd5b36819003821315610d0057600080fd5b8080601f016020809104026020016040519081016040528093929190818152602001838380828437600092018290525093855250505060208083018290526040909201819052835460018101855593815281902082518051939460030290910192610d6e9284920190613dbb565b50602082015160018083019190915560409092015160029091015501610bce565b506001336001600160a01b0316600454600080516020614d4e8339815191528d8d88876000015188602001518e604051610dce9695949392919061449b565b60405180910390a4505061114e565b60055460ff161561113657600254604051632c9aab9b60e11b81526000916001600160a01b031690635935573690610e19903390600401614409565b60206040518083038186803b158015610e3157600080fd5b505afa158015610e45573d6000803e3d6000fd5b505050506040513d601f19601f82011682018060405250610e699190810190614294565b905060065481106111345787610e915760405162461bcd60e51b815260040161056190614bd9565b428511610eb05760405162461bcd60e51b815260040161056190614686565b60018311610ed05760405162461bcd60e51b815260040161056190614782565b60048054600101908190556000908152600360205260409020610ef1613d23565b60086000856003811115610f0157fe5b60ff16815260208082019290925260409081016000208151808301909252805482526001908101549282019290925283546001600160a01b031916331784559150610f4f9083018c8c613d3d565b50610f5e600283018a8a613d3d565b508051600583015560208101516007830155600982018790556003808301805460ff1916600117808255869261ff001990911690610100908490811115610fa157fe5b021790555060005b858110156110e5576000856003811115610fbf57fe5b14610ff057610fd485888884818110610bf957fe5b610ff05760405162461bcd60e51b815260040161056190614970565b82600801604051806060016040528089898581811061100b57fe5b602002820190508035601e193684900301811261102757600080fd5b9091016020810191503567ffffffffffffffff81111561104657600080fd5b3681900382131561105657600080fd5b8080601f0160208091040260200160405190810160405280939291908181526020018383808284376000920182905250938552505050602080830182905260409092018190528354600181018555938152819020825180519394600302909101926110c49284920190613dbb565b50602082015160018083019190915560409092015160029091015501610fa9565b506001336001600160a01b0316600454600080516020614d4e8339815191528e8e89876000015188602001518f6040516111249695949392919061449b565b60405180910390a450505061114e565b505b60405162461bcd60e51b815260040161056190614b97565b5050505050505050565b611160612a46565b6000546001600160a01b0390811691161461118d5760405162461bcd60e51b815260040161056190614aab565b600980546001600160a01b0319166001600160a01b0392909216919091179055565b6111be604051610a1a906143dc565b806111d357506111d3604051610a1a906143f3565b1561148f57866111f55760405162461bcd60e51b815260040161056190614bd9565b4284116112145760405162461bcd60e51b815260040161056190614686565b60048054600101908190556000908152600360205260409020611235613d23565b6008600086600381111561124557fe5b60ff16815260208082019290925260409081016000208151808301909252805482526001908101549282019290925283546001600160a01b0319163317845591506112939083018b8b613d3d565b506112a2600283018989613d3d565b508051600583015560208101516007830155600982018690556003808301805460ff1981168255879261ffff19909116906101009084908111156112e257fe5b021790555060008560038111156112f557fe5b146113665761133a8585858080601f01602080910402602001604051908101604052809392919081815260200183838082843760009201919091525061323a92505050565b6113565760405162461bcd60e51b815260040161056190614970565b611364600483018585613d3d565b505b6040805160a081018252600360608201818152626e617960e81b6080840152825260006020808401829052938301819052600886018054600181018255908252908490208351805194959290930201926113c39284920190613dbb565b50602082810151600180840191909155604093840151600290930192909255825160a0810184526003606082018181526279656160e81b608084015282526000828401819052948201859052600887018054948501815585529382902081518051929594909402019261143a928492910190613dbb565b50602082015160018201556040909101516002909101556000336001600160a01b0316600454600080516020614d4e8339815191528d8d8a876000015188602001518e604051610dce9695949392919061449b565b60055460ff161561113657600254604051632c9aab9b60e11b81526000916001600160a01b0316906359355736906114cb903390600401614409565b60206040518083038186803b1580156114e357600080fd5b505afa1580156114f7573d6000803e3d6000fd5b505050506040513d601f19601f8201168201806040525061151b9190810190614294565b9050600654811061113457876115435760405162461bcd60e51b815260040161056190614bd9565b4285116115625760405162461bcd60e51b815260040161056190614686565b60048054600101908190556000908152600360205260409020611583613d23565b6008600087600381111561159357fe5b60ff16815260208082019290925260409081016000208151808301909252805482526001908101549282019290925283546001600160a01b0319163317845591506115e19083018c8c613d3d565b506115f0600283018a8a613d3d565b508051600583015560208101516007830155600982018790556003808301805460ff1981168255889261ffff199091169061010090849081111561163057fe5b0217905550600086600381111561164357fe5b146116b4576116888686868080601f01602080910402602001604051908101604052809392919081815260200183838082843760009201919091525061323a92505050565b6116a45760405162461bcd60e51b815260040161056190614970565b6116b2600483018686613d3d565b505b6040805160a081018252600360608201818152626e617960e81b6080840152825260006020808401829052938301819052600886018054600181018255908252908490208351805194959290930201926117119284920190613dbb565b50602082810151600180840191909155604093840151600290930192909255825160a0810184526003606082018181526279656160e81b6080840152825260008284018190529482018590526008870180549485018155855293829020815180519295949094020192611788928492910190613dbb565b50602082015160018201556040909101516002909101556000336001600160a01b0316600454600080516020614d4e8339815191528e8e8b876000015188602001518f6040516111249695949392919061449b565b6000826000811180156117f257506004548111155b61180e5760405162461bcd60e51b8152600401610561906147c6565b600084815260036020526040902060080180548490811061182b57fe5b90600052602060002090600302016001015491505092915050565b61184e612a46565b6000546001600160a01b0390811691161461187b5760405162461bcd60e51b815260040161056190614aab565b61189860405161188a906143f3565b604051809103902082610660565b50565b6118a3612a46565b6000546001600160a01b039081169116146118d05760405162461bcd60e51b815260040161056190614aab565b600080546040516001600160a01b03909116907f8be0079c531659141344cd1fd0a4f28419497f9722a3daafe3b4186f6b6457e0908390a3600080546001600160a01b0319169055565b604051610525906143f3565b60045490565b60008260008111801561194157506004548111155b61195d5760405162461bcd60e51b8152600401610561906147c6565b50506001600160a01b03166000908152600760209081526040808320938352929052206001015490565b6000546001600160a01b031690565b6000605a4286106119b95760405162461bcd60e51b815260040161056190614ae0565b80864203106119da5760405162461bcd60e51b815260040161056190614842565b336000908152600a602052604090205442038110611a0a5760405162461bcd60e51b8152600401610561906146ce565b611a4c87878787878080601f01602080910402602001604051908101604052809392919081815260200183838082843760009201919091525061348d92505050565b611a685760405162461bcd60e51b8152600401610561906148ee565b336000818152600a6020526040908190204290556002549051637cc5857960e01b81526001600160a01b0390911691637cc5857991611aac91908b9060040161441d565b600060405180830381600087803b158015611ac657600080fd5b505af1158015611ada573d6000803e3d6000fd5b50505050336001600160a01b03167fb52d0e0c45bba15833f7d429ccdcc4c2bfa8eea764774706120027b76734a44f88604051611b179190614474565b60405180910390a25060019695505050505050565b6000828152600160205260408120611b4a908363ffffffff61350616565b90505b92915050565b6000828152600160205260408120611b4a908363ffffffff61351216565b611b79613e29565b611b8282613527565b9050611b8c613ceb565b611b9583612ab9565b80519091506001600160a01b0316331480611bba5750611bba604051610a1a906143dc565b80611bcf5750611bcf604051610a1a906143f3565b611beb5760405162461bcd60e51b815260040161056190614b97565b600082604001516003811115611bfd57fe5b1415611c1b5760405162461bcd60e51b815260040161056190614c06565b428260e0015110611c3e5760405162461bcd60e51b815260040161056190614b17565b600082602001516001811115611c5057fe5b1415611c77578160c00151611c775760405162461bcd60e51b8152600401610561906147fd565b6060600183602001516001811115611c8b57fe5b1415611eae5760008080805b600088815260036020526040902060080154811015611dd057611cb8613e73565b6000898152600360205260409020600801805483908110611cd557fe5b600091825260209182902060408051600393909302909101805460026001821615610100026000190190911604601f8101859004909402830160809081019092526060830184815292939092849290918491840182828015611d785780601f10611d4d57610100808354040283529160200191611d78565b820191906000526020600020905b815481529060010190602001808311611d5b57829003601f168201915b505050505081526020016001820154815260200160028201548152505090508381604001511115611db6578194508060400151935060009250611dc7565b8381604001511415611dc757600192505b50600101611c97565b508015611def5760405162461bcd60e51b81526004016105619061474b565b6000878152600360205260409020600801805484908110611e0c57fe5b6000918252602091829020600390910201805460408051601f6002600019610100600187161502019094169390930492830185900485028101850190915281815292830182828015611e9f5780601f10611e7457610100808354040283529160200191611e9f565b820191906000526020600020905b815481529060010190602001808311611e8257829003601f168201915b50505050509350505050611eb5565b5060808101515b600183604001516003811115611ec757fe5b1415611f52576000611ed882610751565b60025460405163aa6b3f1160e01b81529192506103e8808404929083028403916001600160a01b03169063aa6b3f1190611f189085908590600401614d1d565b600060405180830381600087803b158015611f3257600080fd5b505af1158015611f46573d6000803e3d6000fd5b50505050505050612139565b600283604001516003811115611f6457fe5b1415611f7b57611f7381610751565b600655612139565b600383604001516003811115611f8d57fe5b14156121395760408051600180825281830190925282916060919060208201818038833950506040805160068082528183019092529293506060929150602082018180388339505060408051600680825281830190925292935060609291506020820181803883390190505090508351600d1461200957600080fd5b60005b84518110156120d457600181101561205f578460008151811061202b57fe5b602001015160f81c60f81b8460008151811061204357fe5b60200101906001600160f81b031916908160001a9053506120cc565b600781101561208e5784818151811061207457fe5b602001015160f81c60f81b83600183038151811061204357fe5b84818151811061209a57fe5b602001015160f81c60f81b8260078303815181106120b457fe5b60200101906001600160f81b031916908160001a9053505b60010161200c565b5060006120e083610751565b905060006120ed83610751565b90506040518060400160405280838152602001828152506008600061211188610751565b60ff168152602080820192909252604001600020825181559101516001909101555050505050505b604051339085907f3776071a1b606e078d8aec141249d4c30abe813f5e6752afe84d0c6a25f1388b90600090a350505050565b600081565b60606000806000806000806000612186613e29565b61218f8a613527565b905080600001519850806020015197508060400151965080606001519550806080015194508060a0015193508060c0015192508060e00151915050919395975091939597565b6000826000811180156121ea57506004548111155b6122065760405162461bcd60e51b8152600401610561906147c6565b61220e613e94565b60008581526003602090815260409182902082516101a08101845281546001600160a01b03168152600180830180548651600261010094831615949094026000190190911692909204601f81018690048602830186019096528582529194929385810193919291908301828280156122c75780601f1061229c576101008083540402835291602001916122c7565b820191906000526020600020905b8154815290600101906020018083116122aa57829003601f168201915b5050509183525050600282810180546040805160206001841615610100026000190190931694909404601f810183900483028501830190915280845293810193908301828280156123595780601f1061232e57610100808354040283529160200191612359565b820191906000526020600020905b81548152906001019060200180831161233c57829003601f168201915b5050509183525050600382015460209091019060ff16600181111561237a57fe5b600181111561238557fe5b81526020016003820160019054906101000a900460ff1660038111156123a757fe5b60038111156123b257fe5b815260048201805460408051602060026001851615610100026000190190941693909304601f81018490048402820184019092528181529382019392918301828280156124405780601f1061241557610100808354040283529160200191612440565b820191906000526020600020905b81548152906001019060200180831161242357829003601f168201915b50505050508152602001600582015481526020016006820160009054906101000a900460ff161515151581526020016007820154815260200160088201805480602002602001604051908101604052809291908181526020016000905b828210156125725760008481526020908190206040805160038602909201805460026001821615610100026000190190911604601f81018590049094028301608090810190925260608301848152929390928492909184918401828280156125465780601f1061251b57610100808354040283529160200191612546565b820191906000526020600020905b81548152906001019060200180831161252957829003601f168201915b50505050508152602001600182015481526020016002820154815250508152602001906001019061249d565b50505050815260200160098201548152602001600a8201548152602001600b8201548152505090508381610120015151116125bf5760405162461bcd60e51b8152600401610561906149e9565b6125c98585612f38565b95945050505050565b6000818152600160205260408120611b4d90613a17565b6000828152600160205260409020600201546126079061041f612a46565b6107475760405162461bcd60e51b815260040161056190614a19565b6000612634604051610a1a906143dc565b806126495750612649604051610a1a906143f3565b15612656575060016107e4565b60055460ff16156126f957600254604051632c9aab9b60e11b81526000916001600160a01b031690635935573690612692903390600401614409565b60206040518083038186803b1580156126aa57600080fd5b505afa1580156126be573d6000803e3d6000fd5b505050506040513d601f19601f820116820180604052506126e29190810190614294565b905060065481106126f75760019150506107e4565b505b50600090565b6004546000818152600360209081526040808320600190810180548351600293821615610100026000190190911692909204601f81018590048502830185019093528282526060949384939083018282801561279c5780601f106127715761010080835404028352916020019161279c565b820191906000526020600020905b81548152906001019060200180831161277f57829003601f168201915b505050600087815260036020819052604090912001549697929660ff80821697506101009091041694509192505050565b6060826000811180156127e257506004548111155b6127fe5760405162461bcd60e51b8152600401610561906147c6565b600084815260036020526040902060080154831061282e5760405162461bcd60e51b8152600401610561906149e9565b600084815260036020526040902060080180548490811061284b57fe5b6000918252602091829020600390910201805460408051601f60026000196101006001871615020190941693909304928301859004850281018501909152818152928301828280156128de5780601f106128b3576101008083540402835291602001916128de565b820191906000526020600020905b8154815290600101906020018083116128c157829003601f168201915b505050505091505092915050565b60008160008111801561290157506004548111155b61291d5760405162461bcd60e51b8152600401610561906147c6565b505060009081526003602052604090206008015490565b61293c612a46565b6000546001600160a01b039081169116146129695760405162461bcd60e51b815260040161056190614aab565b6001600160a01b03811661298f5760405162461bcd60e51b815260040161056190614705565b600080546040516001600160a01b03808516939216917f8be0079c531659141344cd1fd0a4f28419497f9722a3daafe3b4186f6b6457e091a3600080546001600160a01b0319166001600160a01b0392909216919091179055565b600080600860008460038111156129fd57fe5b60ff1660ff16815260200190815260200160002060000154915060086000846003811115612a2757fe5b60ff1660ff168152602001908152602001600020600101549050915091565b3390565b6000828152600160205260409020612a68908263ffffffff613a2216565b1561066a57612a75612a46565b6001600160a01b0316816001600160a01b0316837f2f8788117e7eff1d82e926ec794901d17c78024a50270940304540a733656f0d60405160405180910390a45050565b612ac1613ceb565b81600081118015612ad457506004548111155b612af05760405162461bcd60e51b8152600401610561906147c6565b612af8613e94565b60008481526003602090815260409182902082516101a08101845281546001600160a01b03168152600180830180548651600261010094831615949094026000190190911692909204601f8101869004860283018601909652858252919492938581019391929190830182828015612bb15780601f10612b8657610100808354040283529160200191612bb1565b820191906000526020600020905b815481529060010190602001808311612b9457829003601f168201915b5050509183525050600282810180546040805160206001841615610100026000190190931694909404601f81018390048302850183019091528084529381019390830182828015612c435780601f10612c1857610100808354040283529160200191612c43565b820191906000526020600020905b815481529060010190602001808311612c2657829003601f168201915b5050509183525050600382015460209091019060ff166001811115612c6457fe5b6001811115612c6f57fe5b81526020016003820160019054906101000a900460ff166003811115612c9157fe5b6003811115612c9c57fe5b815260048201805460408051602060026001851615610100026000190190941693909304601f8101849004840282018401909252818152938201939291830182828015612d2a5780601f10612cff57610100808354040283529160200191612d2a565b820191906000526020600020905b815481529060010190602001808311612d0d57829003601f168201915b50505050508152602001600582015481526020016006820160009054906101000a900460ff161515151581526020016007820154815260200160088201805480602002602001604051908101604052809291908181526020016000905b82821015612e5c5760008481526020908190206040805160038602909201805460026001821615610100026000190190911604601f8101859004909402830160809081019092526060830184815292939092849290918491840182828015612e305780601f10612e0557610100808354040283529160200191612e30565b820191906000526020600020905b815481529060010190602001808311612e1357829003601f168201915b505050505081526020016001820154815260200160028201548152505081526020019060010190612d87565b505050908252506009820154602080830191909152600a830154604080840191909152600b9093015460609283015283516001600160a01b0316875260c084015190870152610100830151918601919091526101808201519085015260a001516080840152509092915050565b6000828152600160205260409020612ee7908263ffffffff613a3716565b1561066a57612ef4612a46565b6001600160a01b0316816001600160a01b0316837ff6391f5c32d9c69d2a47ea670b442974b53935d1edc7fd64eb21e047a839171b60405160405180910390a45050565b600082600081118015612f4d57506004548111155b612f695760405162461bcd60e51b8152600401610561906147c6565b60008481526003602052604090206009810154421115612f8d576000925050610708565b600254604051632c9aab9b60e11b815233916000916001600160a01b0390911690635935573690612fc2908590600401614409565b60206040518083038186803b158015612fda57600080fd5b505afa158015612fee573d6000803e3d6000fd5b505050506040513d601f19601f820116820180604052506130129190810190614294565b9050600081116130345760405162461bcd60e51b815260040161056190614925565b6001600160a01b03821660009081526007602090815260408083208a8452909152902060010154156130785760405162461bcd60e51b8152600401610561906148b7565b60408051808201825287815260208082018481526001600160a01b0386166000908152600783528481208c8252909252929020905181559051600191820155600b840180549091019055600a8301805482019055600883018054879081106130dc57fe5b9060005260206000209060030201600101600081548092919060010191905055508083600801878154811061310d57fe5b6000918252602090912060026003909202010180549091019055600683015460ff166131ea576002546040805163ca5c7b9160e01b815290516000926001600160a01b03169163ca5c7b91916004808301926020929190829003018186803b15801561317857600080fd5b505afa15801561318c573d6000803e3d6000fd5b505050506040513d601f19601f820116820180604052506131b09190810190614294565b600a850154909150620186a00260008282816131c857fe5b049050856005015481106131e65760068601805460ff191660011790555b5050505b85826001600160a01b0316887f8eea3a81425aea5e440ed6b6289a8aea0db8025c75fdeb1434bd816501770340846040516132259190614474565b60405180910390a45060019695505050505050565b60008083600381111561324957fe5b141561325757506001611b4d565b600183600381111561326557fe5b141561328f57600061327683610751565b6103e8808204908102909103016064149150611b4d9050565b600283600381111561329d57fe5b14156132b95760006132ae83610751565b15159150611b4d9050565b60038360038111156132c757fe5b14156134845781518290600d146132dd57600080fd5b604080516001808252818301909252606091602082018180388339505060408051600680825281830190925292935060609291506020820181803883395050604080516006808252818301909252929350606092915060208201818038833901905050905060005b845181101561340d576001811015613398578460008151811061336457fe5b602001015160f81c60f81b8460008151811061337c57fe5b60200101906001600160f81b031916908160001a905350613405565b60078110156133c7578481815181106133ad57fe5b602001015160f81c60f81b83600183038151811061337c57fe5b8481815181106133d357fe5b602001015160f81c60f81b8260078303815181106133ed57fe5b60200101906001600160f81b031916908160001a9053505b600101613345565b50600061341983610751565b9050600061342683610751565b90506000808311801561343c5750620186a08311155b905080801561344b5750600082115b801561345a5750620186a08211155b90508080156134755750600361346f87610751565b60ff1611155b9750611b4d9650505050505050565b50600092915050565b6000803386866040516020016134a5939291906143b2565b6040516020818303038152906040528051906020012090508084146134dc5760405162461bcd60e51b815260040161056190614b60565b6009546001600160a01b03166134f28585613a4c565b6001600160a01b0316149695505050505050565b6000611b4a8383613b7a565b6000611b4a836001600160a01b038416613bbf565b61352f613e29565b8160008111801561354257506004548111155b61355e5760405162461bcd60e51b8152600401610561906147c6565b613566613e94565b60008481526003602090815260409182902082516101a08101845281546001600160a01b03168152600180830180548651600261010094831615949094026000190190911692909204601f810186900486028301860190965285825291949293858101939192919083018282801561361f5780601f106135f45761010080835404028352916020019161361f565b820191906000526020600020905b81548152906001019060200180831161360257829003601f168201915b5050509183525050600282810180546040805160206001841615610100026000190190931694909404601f810183900483028501830190915280845293810193908301828280156136b15780601f10613686576101008083540402835291602001916136b1565b820191906000526020600020905b81548152906001019060200180831161369457829003601f168201915b5050509183525050600382015460209091019060ff1660018111156136d257fe5b60018111156136dd57fe5b81526020016003820160019054906101000a900460ff1660038111156136ff57fe5b600381111561370a57fe5b815260048201805460408051602060026001851615610100026000190190941693909304601f81018490048402820184019092528181529382019392918301828280156137985780601f1061376d57610100808354040283529160200191613798565b820191906000526020600020905b81548152906001019060200180831161377b57829003601f168201915b50505050508152602001600582015481526020016006820160009054906101000a900460ff161515151581526020016007820154815260200160088201805480602002602001604051908101604052809291908181526020016000905b828210156138ca5760008481526020908190206040805160038602909201805460026001821615610100026000190190911604601f810185900490940283016080908101909252606083018481529293909284929091849184018282801561389e5780601f106138735761010080835404028352916020019161389e565b820191906000526020600020905b81548152906001019060200180831161388157829003601f168201915b5050505050815260200160018201548152602001600282015481525050815260200190600101906137f5565b505050908252506009820154602080830191909152600a8301546040830152600b90920154606091820152828201518652820151919250840190600181111561390f57fe5b9081600181111561391c57fe5b90525060808101516040840190600381111561393457fe5b9081600381111561394157fe5b90525061014081015160e080850191909152810151151560a084015260008360200151600181111561396f57fe5b1415613a105780610120015160008151811061398757fe5b6020026020010151604001518360600181815250508061012001516001815181106139ae57fe5b602002602001015160400151836080018181525050428360e001511080156139d757508260a001515b15613a08578061016001518360800151620186a002816139f357fe5b610100830151919004101560c0840152613a10565b600060c08401525b5050919050565b6000611b4d82613bd7565b6000611b4a836001600160a01b038416613bdb565b6000611b4a836001600160a01b038416613c25565b60008151604114613a6f5760405162461bcd60e51b81526004016105619061464f565b60208201516040830151606084015160001a7f7fffffffffffffffffffffffffffffff5d576e7357a4501ddfe92f46681b20a0821115613ac15760405162461bcd60e51b8152600401610561906149a7565b8060ff16601b14158015613ad957508060ff16601c14155b15613af65760405162461bcd60e51b815260040161056190614a69565b600060018783868660405160008152602001604052604051613b1b949392919061447d565b6020604051602081039080840390855afa158015613b3d573d6000803e3d6000fd5b5050604051601f1901519150506001600160a01b038116613b705760405162461bcd60e51b815260040161056190614587565b9695505050505050565b81546000908210613b9d5760405162461bcd60e51b8152600401610561906145be565b826000018281548110613bac57fe5b9060005260206000200154905092915050565b60009081526001919091016020526040902054151590565b5490565b6000613be78383613bbf565b613c1d57508154600181810184556000848152602080822090930184905584548482528286019093526040902091909155611b4d565b506000611b4d565b60008181526001830160205260408120548015613ce15783546000198083019190810190600090879083908110613c5857fe5b9060005260206000200154905080876000018481548110613c7557fe5b600091825260208083209091019290925582815260018981019092526040902090840190558654879080613ca557fe5b60019003818190600052602060002001600090559055866001016000878152602001908152602001600020600090556001945050505050611b4d565b6000915050611b4d565b6040518060a0016040528060006001600160a01b03168152602001600081526020016000815260200160008152602001606081525090565b604051806040016040528060008152602001600081525090565b828054600181600116156101000203166002900490600052602060002090601f016020900481019282601f10613d7e5782800160ff19823516178555613dab565b82800160010185558215613dab579182015b82811115613dab578235825591602001919060010190613d90565b50613db7929150613f12565b5090565b828054600181600116156101000203166002900490600052602060002090601f016020900481019282601f10613dfc57805160ff1916838001178555613dab565b82800160010185558215613dab579182015b82811115613dab578251825591602001919060010190613e0e565b604080516101008101909152606081526020810160008152602001600081526020016000815260200160008152602001600015158152602001600015158152602001600081525090565b60405180606001604052806060815260200160008152602001600081525090565b604051806101a0016040528060006001600160a01b03168152602001606081526020016060815260200160006001811115613ecb57fe5b815260200160008152602001606081526020016000815260200160001515815260200160008152602001606081526020016000815260200160008152602001600081525090565b6107e491905b80821115613db75760008155600101613f18565b80356001600160a01b0381168114611b4d57600080fd5b60008083601f840112613f54578182fd5b50813567ffffffffffffffff811115613f6b578182fd5b602083019150836020828501011115613f8357600080fd5b9250929050565b803560048110611b4d57600080fd5b600060208284031215613faa578081fd5b611b4a8383613f2c565b60008060408385031215613fc6578081fd5b82358015158114613fd5578182fd5b946020939093013593505050565b600060208284031215613ff4578081fd5b5035919050565b6000806040838503121561400d578182fd5b8235915060208301356001600160a01b038116811461402a578182fd5b809150509250929050565b60008060408385031215614047578182fd5b50508035926020909101359150565b600060208284031215614067578081fd5b611b4a8383613f8a565b60008060008060008060008060a0898b03121561408c578384fd5b883567ffffffffffffffff808211156140a3578586fd5b6140af8c838d01613f43565b909a50985060208b01359150808211156140c7578586fd5b6140d38c838d01613f43565b909850965060408b0135955060608b01359150808211156140f2578485fd5b818b018c601f820112614103578586fd5b8035925081831115614113578586fd5b8c60208085028301011115614126578586fd5b602001945090925061413d90508a60808b01613f8a565b90509295985092959890939650565b60008060008060008060008060a0898b031215614167578384fd5b883567ffffffffffffffff8082111561417e578586fd5b61418a8c838d01613f43565b909a50985060208b01359150808211156141a2578586fd5b6141ae8c838d01613f43565b909850965060408b0135955060608b01359150600482106141cd578485fd5b90935060808a013590808211156141e2578384fd5b506141ef8b828c01613f43565b999c989b5096995094979396929594505050565b600060208284031215614214578081fd5b813567ffffffffffffffff8082111561422b578283fd5b81840185601f82011261423c578384fd5b803592508183111561424c578384fd5b604051601f8401601f19168101602001838111828210171561426c578586fd5b604052838152818401602001871015614283578485fd5b613b70846020830160208501614d41565b6000602082840312156142a5578081fd5b5051919050565b600080604083850312156142be578182fd5b823591506142cf8460208501613f2c565b90509250929050565b600080604083850312156142ea578182fd5b8235915060208301356001600160e01b03198116811461402a578182fd5b60008060008060006080868803121561431f578283fd5b853594506020860135935060408601359250606086013567ffffffffffffffff81111561434a578182fd5b61435688828901613f43565b969995985093965092949392505050565b60008151808452815b8181101561438c57602081850181015186830182015201614370565b8181111561439d5782602083870101525b50601f01601f19169290920160200192915050565b60609390931b6bffffffffffffffffffffffff191683526014830191909152603482015260540190565b6a564f54494e475f524f4c4560a81b8152600b0190565b6941444d494e5f524f4c4560b01b8152600a0190565b6001600160a01b0391909116815260200190565b6001600160a01b03929092168252602082015260400190565b600060018060a01b038716825285602083015284604083015283606083015260a060808301526108c860a0830184614367565b901515815260200190565b90815260200190565b93845260ff9290921660208401526040830152606082015260800190565b600060a082528660a0830152868860c08401378060c0888401015260c0601f19601f89011683010190506144ce86614d36565b6020830152846040830152836060830152826080830152979650505050505050565b600060208252611b4a6020830184614367565b60006101008083526145178184018c614367565b91505061452389614d2b565b602083015261453188614d36565b60408301526060820196909652608081019490945291151560a0840152151560c083015260e0909101529392505050565b6000606082526145756060830186614367565b60208301949094525060400152919050565b60208082526018908201527f45434453413a20696e76616c6964207369676e61747572650000000000000000604082015260600190565b60208082526022908201527f456e756d657261626c655365743a20696e646578206f7574206f6620626f756e604082015261647360f01b606082015260800190565b6020808252602f908201527f416363657373436f6e74726f6c3a2073656e646572206d75737420626520616e60408201526e0818591b5a5b881d1bc819dc985b9d608a1b606082015260800190565b6020808252601f908201527f45434453413a20696e76616c6964207369676e6174757265206c656e67746800604082015260600190565b60208082526028908201527f566f74696e673a2074696d65206d75737420626520626967676572207468616e6040820152670818dd5c9c995b9d60c21b606082015260800190565b60208082526018908201527f526577617264696e673a20667265657a6520706572696f640000000000000000604082015260600190565b60208082526026908201527f4f776e61626c653a206e6577206f776e657220697320746865207a65726f206160408201526564647265737360d01b606082015260800190565b60208082526019908201527f566f74696e673a206e6f206c656164696e67206f7074696f6e00000000000000604082015260600190565b60208082526024908201527f566f74696e673a206d757374206265206174206c656173742074776f206f7074604082015263696f6e7360e01b606082015260800190565b6020808252601f908201527f566f74696e673a2070726f706f73616c20646f6573206e6f7420657869737400604082015260600190565b60208082526025908201527f566f74696e673a20746869732070726f706f73616c206974206e6f7420616363604082015264195c1d195960da1b606082015260800190565b60208082526013908201527214995dd85c991a5b99ce88195e1c1a5c9a5959606a1b604082015260600190565b60208082526028908201527f566f74696e673a20706c656173652063686f6f736520616e206f7074696f6e206040820152670c4f240d2dcc8caf60c31b606082015260800190565b6020808252601e908201527f566f74696e673a20796f75206861766520616c726561647920766f7465640000604082015260600190565b6020808252601e908201527f526577617264696e673a20696e636f7272656374207369676e61747572650000604082015260600190565b6020808252602b908201527f566f74696e673a20796f75206861766520746f206c6f636b20796f757220746f60408201526a6b656e73206265666f726560a81b606082015260800190565b6020808252601f908201527f566f74696e673a20696e636f7272656374207570646174696e67206461746100604082015260600190565b60208082526022908201527f45434453413a20696e76616c6964207369676e6174757265202773272076616c604082015261756560f01b606082015260800190565b602080825260169082015275566f74696e673a206f7574206f6620696e646578657360501b604082015260600190565b60208082526030908201527f416363657373436f6e74726f6c3a2073656e646572206d75737420626520616e60408201526f2061646d696e20746f207265766f6b6560801b606082015260800190565b60208082526022908201527f45434453413a20696e76616c6964207369676e6174757265202776272076616c604082015261756560f01b606082015260800190565b6020808252818101527f4f776e61626c653a2063616c6c6572206973206e6f7420746865206f776e6572604082015260600190565b6020808252601e908201527f526577617264696e673a20696e636f72726563742074696d657374616d700000604082015260600190565b60208082526029908201527f566f74696e673a20766f74696e6720706572696f64206973206e6f742066696e6040820152681a5cda1959081e595d60ba1b606082015260800190565b60208082526019908201527f526577617264696e673a20696e636f7272656374206861736800000000000000604082015260600190565b60208082526022908201527f566f74696e673a20796f7520646f206e6f742068617665207065726d6973736960408201526137b760f11b606082015260800190565b602080825260139082015272566f74696e673a20656d707479207469746c6560681b604082015260600190565b60208082526027908201527f566f74696e673a20746869732070726f706f73616c206973206e6f742065786560408201526663757461626c6560c81b606082015260800190565b6020808252602f908201527f416363657373436f6e74726f6c3a2063616e206f6e6c792072656e6f756e636560408201526e103937b632b9903337b91039b2b63360891b606082015260800190565b60208082526021908201527f566f74696e673a20796f752073686f756c642073617920796561206f72206e616040820152607960f81b606082015260800190565b600085825260806020830152614cf66080830186614367565b9050614d0184614d2b565b6040830152614d0f83614d36565b606083015295945050505050565b918252602082015260400190565b806002811061062157fe5b806004811061062157fe5b8281833750600091015256fea58917be9e97f10d8f5ce9fb9644dc60d5e17d8279c0f60c764344720d2fde7ea2646970667358221220a347bd1a308121ca58fd3490dc87eb3d483fea0d60c6781dfdf6ec0b760882ea64736f6c63430006020033",
  "source": "// SPDX-License-Identifier: GPL-3.0\npragma solidity 0.6.2;\npragma experimental ABIEncoderV2;\n\nimport \"./Voting.sol\";\nimport \"../../node_modules/openzeppelin-solidity/contracts/cryptography/ECDSA.sol\";\n\n\ncontract Rewarding is Voting {\n\n    address private _verifyRewardAddress;\n\n    mapping (address => uint) private _logs;\n\n    event ClaimStakingReward(address indexed recipient, uint256 amount);\n\n    function setRewardAddress(address rewardAddress) external onlyOwner {\n        _verifyRewardAddress = rewardAddress;\n    }\n\n    function claimReward(\n        uint256 reward,\n        uint256 timestamp,\n        bytes32 hash,\n        bytes calldata signature\n    ) external returns (bool) {\n        uint to = 90;\n        require(timestamp < block.timestamp, \"Rewarding: incorrect timestamp\");\n        require(block.timestamp - timestamp < to, \"Rewarding: expiried\");\n        require(block.timestamp - _logs[msg.sender] > to, \"Rewarding: freeze period\");\n        require(verifyReward(reward, timestamp, hash, signature), \"Rewarding: incorrect signature\");\n        _logs[msg.sender] = block.timestamp;\n        _Token.transferStakingRewards(msg.sender, reward);\n        emit ClaimStakingReward(msg.sender, reward);\n        return true;\n    }\n\n    function verifyReward(\n        uint256 reward,\n        uint256 timestamp,\n        bytes32 hash,\n        bytes memory signature\n    )\n    internal view\n    returns (bool) {\n        bytes32 verifyHash = keccak256(abi.encodePacked(msg.sender, reward, timestamp));\n        require(hash == verifyHash, \"Rewarding: incorrect hash\");\n        return ECDSA.recover(hash, signature) == _verifyRewardAddress;\n    }\n\n}\n",
  "sourcePath": "/home/pirat/Desktop/DAO/contracts/DAO/Rewarding.sol",
  "compiler": {
    "name": "solc",
    "version": "0.6.2+commit.bacdbe57.Emscripten.clang"
  },
  "schemaVersion": "3.2.5",
  "updatedAt": "2020-12-28T08:47:24.942Z",
  "devdoc": {
    "methods": {
      "getRoleAdmin(bytes32)": {
        "details": "Returns the admin role that controls `role`. See {grantRole} and {revokeRole}.     * To change a role's admin, use {_setRoleAdmin}."
      },
      "getRoleMember(bytes32,uint256)": {
        "details": "Returns one of the accounts that have `role`. `index` must be a value between 0 and {getRoleMemberCount}, non-inclusive.     * Role bearers are not sorted in any particular way, and their ordering may change at any point.     * WARNING: When using {getRoleMember} and {getRoleMemberCount}, make sure you perform all queries on the same block. See the following https://forum.openzeppelin.com/t/iterating-over-elements-on-enumerableset-in-openzeppelin-contracts/2296[forum post] for more information."
      },
      "getRoleMemberCount(bytes32)": {
        "details": "Returns the number of accounts that have `role`. Can be used together with {getRoleMember} to enumerate all bearers of a role."
      },
      "grantRole(bytes32,address)": {
        "details": "Grants `role` to `account`.     * If `account` had not been already granted `role`, emits a {RoleGranted} event.     * Requirements:     * - the caller must have ``role``'s admin role."
      },
      "hasRole(bytes32,address)": {
        "details": "Returns `true` if `account` has been granted `role`."
      },
      "owner()": {
        "details": "Returns the address of the current owner."
      },
      "renounceOwnership()": {
        "details": "Leaves the contract without owner. It will not be possible to call `onlyOwner` functions anymore. Can only be called by the current owner.     * NOTE: Renouncing ownership will leave the contract without an owner, thereby removing any functionality that is only available to the owner."
      },
      "renounceRole(bytes32,address)": {
        "details": "Revokes `role` from the calling account.     * Roles are often managed via {grantRole} and {revokeRole}: this function's purpose is to provide a mechanism for accounts to lose their privileges if they are compromised (such as when a trusted device is misplaced).     * If the calling account had been granted `role`, emits a {RoleRevoked} event.     * Requirements:     * - the caller must be `account`."
      },
      "revokeRole(bytes32,address)": {
        "details": "Revokes `role` from `account`.     * If `account` had been granted `role`, emits a {RoleRevoked} event.     * Requirements:     * - the caller must have ``role``'s admin role."
      },
      "transferOwnership(address)": {
        "details": "Transfers ownership of the contract to a new account (`newOwner`). Can only be called by the current owner."
      }
    }
  },
  "userdoc": {
    "methods": {}
  }
}