{
  "contractName": "Voting",
  "abi": [
    {
      "inputs": [],
      "stateMutability": "nonpayable",
      "type": "constructor"
    },
    {
      "anonymous": false,
      "inputs": [
        {
          "indexed": true,
          "internalType": "uint256",
          "name": "issueId",
          "type": "uint256"
        },
        {
          "indexed": true,
          "internalType": "address",
          "name": "initialized",
          "type": "address"
        }
      ],
      "name": "ExecProposal",
      "type": "event"
    },
    {
      "anonymous": false,
      "inputs": [
        {
          "indexed": true,
          "internalType": "uint256",
          "name": "issueId",
          "type": "uint256"
        },
        {
          "indexed": true,
          "internalType": "address",
          "name": "creator",
          "type": "address"
        },
        {
          "indexed": true,
          "internalType": "enum Voting.ProposalType",
          "name": "votingType",
          "type": "uint8"
        },
        {
          "indexed": false,
          "internalType": "enum Voting.ProposalUpdater",
          "name": "votingUpdater",
          "type": "uint8"
        }
      ],
      "name": "NewProposal",
      "type": "event"
    },
    {
      "anonymous": false,
      "inputs": [
        {
          "indexed": true,
          "internalType": "uint256",
          "name": "issueId",
          "type": "uint256"
        },
        {
          "indexed": true,
          "internalType": "address",
          "name": "from",
          "type": "address"
        },
        {
          "indexed": true,
          "internalType": "uint256",
          "name": "option",
          "type": "uint256"
        },
        {
          "indexed": false,
          "internalType": "uint256",
          "name": "weight",
          "type": "uint256"
        }
      ],
      "name": "OnVote",
      "type": "event"
    },
    {
      "anonymous": false,
      "inputs": [
        {
          "indexed": true,
          "internalType": "address",
          "name": "previousOwner",
          "type": "address"
        },
        {
          "indexed": true,
          "internalType": "address",
          "name": "newOwner",
          "type": "address"
        }
      ],
      "name": "OwnershipTransferred",
      "type": "event"
    },
    {
      "anonymous": false,
      "inputs": [
        {
          "indexed": true,
          "internalType": "bytes32",
          "name": "role",
          "type": "bytes32"
        },
        {
          "indexed": true,
          "internalType": "bytes32",
          "name": "previousAdminRole",
          "type": "bytes32"
        },
        {
          "indexed": true,
          "internalType": "bytes32",
          "name": "newAdminRole",
          "type": "bytes32"
        }
      ],
      "name": "RoleAdminChanged",
      "type": "event"
    },
    {
      "anonymous": false,
      "inputs": [
        {
          "indexed": true,
          "internalType": "bytes32",
          "name": "role",
          "type": "bytes32"
        },
        {
          "indexed": true,
          "internalType": "address",
          "name": "account",
          "type": "address"
        },
        {
          "indexed": true,
          "internalType": "address",
          "name": "sender",
          "type": "address"
        }
      ],
      "name": "RoleGranted",
      "type": "event"
    },
    {
      "anonymous": false,
      "inputs": [
        {
          "indexed": true,
          "internalType": "bytes32",
          "name": "role",
          "type": "bytes32"
        },
        {
          "indexed": true,
          "internalType": "address",
          "name": "account",
          "type": "address"
        },
        {
          "indexed": true,
          "internalType": "address",
          "name": "sender",
          "type": "address"
        }
      ],
      "name": "RoleRevoked",
      "type": "event"
    },
    {
      "anonymous": false,
      "inputs": [
        {
          "indexed": true,
          "internalType": "enum Voting.ProposalUpdater",
          "name": "updater",
          "type": "uint8"
        },
        {
          "indexed": false,
          "internalType": "uint256",
          "name": "quorumPct",
          "type": "uint256"
        },
        {
          "indexed": false,
          "internalType": "uint256",
          "name": "supportPct",
          "type": "uint256"
        }
      ],
      "name": "UpdatedProposalConfig",
      "type": "event"
    },
    {
      "inputs": [],
      "name": "ADMIN_ROLE",
      "outputs": [
        {
          "internalType": "bytes32",
          "name": "",
          "type": "bytes32"
        }
      ],
      "stateMutability": "view",
      "type": "function"
    },
    {
      "inputs": [],
      "name": "DEFAULT_ADMIN_ROLE",
      "outputs": [
        {
          "internalType": "bytes32",
          "name": "",
          "type": "bytes32"
        }
      ],
      "stateMutability": "view",
      "type": "function"
    },
    {
      "inputs": [],
      "name": "VOTING_ROLE",
      "outputs": [
        {
          "internalType": "bytes32",
          "name": "",
          "type": "bytes32"
        }
      ],
      "stateMutability": "view",
      "type": "function"
    },
    {
      "inputs": [
        {
          "internalType": "address",
          "name": "account",
          "type": "address"
        }
      ],
      "name": "addAdmin",
      "outputs": [],
      "stateMutability": "nonpayable",
      "type": "function"
    },
    {
      "inputs": [
        {
          "internalType": "bytes32",
          "name": "role",
          "type": "bytes32"
        }
      ],
      "name": "getRoleAdmin",
      "outputs": [
        {
          "internalType": "bytes32",
          "name": "",
          "type": "bytes32"
        }
      ],
      "stateMutability": "view",
      "type": "function"
    },
    {
      "inputs": [
        {
          "internalType": "bytes32",
          "name": "role",
          "type": "bytes32"
        },
        {
          "internalType": "uint256",
          "name": "index",
          "type": "uint256"
        }
      ],
      "name": "getRoleMember",
      "outputs": [
        {
          "internalType": "address",
          "name": "",
          "type": "address"
        }
      ],
      "stateMutability": "view",
      "type": "function"
    },
    {
      "inputs": [
        {
          "internalType": "bytes32",
          "name": "role",
          "type": "bytes32"
        }
      ],
      "name": "getRoleMemberCount",
      "outputs": [
        {
          "internalType": "uint256",
          "name": "",
          "type": "uint256"
        }
      ],
      "stateMutability": "view",
      "type": "function"
    },
    {
      "inputs": [
        {
          "internalType": "bytes32",
          "name": "role",
          "type": "bytes32"
        },
        {
          "internalType": "address",
          "name": "account",
          "type": "address"
        }
      ],
      "name": "grantRole",
      "outputs": [],
      "stateMutability": "nonpayable",
      "type": "function"
    },
    {
      "inputs": [
        {
          "internalType": "bytes32",
          "name": "role",
          "type": "bytes32"
        },
        {
          "internalType": "address",
          "name": "account",
          "type": "address"
        }
      ],
      "name": "hasRole",
      "outputs": [
        {
          "internalType": "bool",
          "name": "",
          "type": "bool"
        }
      ],
      "stateMutability": "view",
      "type": "function"
    },
    {
      "inputs": [],
      "name": "owner",
      "outputs": [
        {
          "internalType": "address",
          "name": "",
          "type": "address"
        }
      ],
      "stateMutability": "view",
      "type": "function"
    },
    {
      "inputs": [],
      "name": "renounceOwnership",
      "outputs": [],
      "stateMutability": "nonpayable",
      "type": "function"
    },
    {
      "inputs": [
        {
          "internalType": "bytes32",
          "name": "role",
          "type": "bytes32"
        },
        {
          "internalType": "address",
          "name": "account",
          "type": "address"
        }
      ],
      "name": "renounceRole",
      "outputs": [],
      "stateMutability": "nonpayable",
      "type": "function"
    },
    {
      "inputs": [
        {
          "internalType": "bytes32",
          "name": "role",
          "type": "bytes32"
        },
        {
          "internalType": "address",
          "name": "account",
          "type": "address"
        }
      ],
      "name": "revokeRole",
      "outputs": [],
      "stateMutability": "nonpayable",
      "type": "function"
    },
    {
      "inputs": [
        {
          "internalType": "address",
          "name": "newOwner",
          "type": "address"
        }
      ],
      "name": "transferOwnership",
      "outputs": [],
      "stateMutability": "nonpayable",
      "type": "function"
    },
    {
      "inputs": [],
      "name": "isOpenProposals",
      "outputs": [
        {
          "internalType": "bool",
          "name": "",
          "type": "bool"
        }
      ],
      "stateMutability": "view",
      "type": "function"
    },
    {
      "inputs": [],
      "name": "minAmountToCreate",
      "outputs": [
        {
          "internalType": "uint256",
          "name": "",
          "type": "uint256"
        }
      ],
      "stateMutability": "view",
      "type": "function"
    },
    {
      "inputs": [
        {
          "internalType": "enum Voting.ProposalUpdater",
          "name": "conf",
          "type": "uint8"
        }
      ],
      "name": "proposalConfigRates",
      "outputs": [
        {
          "internalType": "uint256",
          "name": "quorumPct",
          "type": "uint256"
        },
        {
          "internalType": "uint256",
          "name": "supportPct",
          "type": "uint256"
        }
      ],
      "stateMutability": "view",
      "type": "function"
    },
    {
      "inputs": [
        {
          "internalType": "address",
          "name": "account",
          "type": "address"
        }
      ],
      "name": "availableToCreateProposals",
      "outputs": [
        {
          "internalType": "bool",
          "name": "",
          "type": "bool"
        }
      ],
      "stateMutability": "view",
      "type": "function"
    },
    {
      "inputs": [
        {
          "internalType": "address",
          "name": "creator",
          "type": "address"
        },
        {
          "internalType": "uint256",
          "name": "issueId",
          "type": "uint256"
        }
      ],
      "name": "depositedForProposal",
      "outputs": [
        {
          "internalType": "uint256",
          "name": "",
          "type": "uint256"
        }
      ],
      "stateMutability": "view",
      "type": "function"
    },
    {
      "inputs": [],
      "name": "getNewestProposal",
      "outputs": [
        {
          "internalType": "uint256",
          "name": "issueId",
          "type": "uint256"
        },
        {
          "internalType": "string",
          "name": "title",
          "type": "string"
        },
        {
          "internalType": "enum Voting.ProposalType",
          "name": "votingType",
          "type": "uint8"
        },
        {
          "internalType": "enum Voting.ProposalUpdater",
          "name": "votingUpdater",
          "type": "uint8"
        }
      ],
      "stateMutability": "view",
      "type": "function"
    },
    {
      "inputs": [],
      "name": "countProposals",
      "outputs": [
        {
          "internalType": "uint256",
          "name": "",
          "type": "uint256"
        }
      ],
      "stateMutability": "view",
      "type": "function"
    },
    {
      "inputs": [
        {
          "internalType": "uint256",
          "name": "issueId",
          "type": "uint256"
        }
      ],
      "name": "issueDescription",
      "outputs": [
        {
          "internalType": "string",
          "name": "",
          "type": "string"
        }
      ],
      "stateMutability": "view",
      "type": "function"
    },
    {
      "inputs": [
        {
          "internalType": "uint256",
          "name": "issueId",
          "type": "uint256"
        }
      ],
      "name": "countOptions",
      "outputs": [
        {
          "internalType": "uint256",
          "name": "",
          "type": "uint256"
        }
      ],
      "stateMutability": "view",
      "type": "function"
    },
    {
      "inputs": [
        {
          "internalType": "uint256",
          "name": "issueId",
          "type": "uint256"
        },
        {
          "internalType": "uint256",
          "name": "option",
          "type": "uint256"
        }
      ],
      "name": "optionName",
      "outputs": [
        {
          "internalType": "string",
          "name": "",
          "type": "string"
        }
      ],
      "stateMutability": "view",
      "type": "function"
    },
    {
      "inputs": [
        {
          "internalType": "uint256",
          "name": "issueId",
          "type": "uint256"
        },
        {
          "internalType": "uint256",
          "name": "option",
          "type": "uint256"
        }
      ],
      "name": "optionInfo",
      "outputs": [
        {
          "internalType": "string",
          "name": "name",
          "type": "string"
        },
        {
          "internalType": "uint256",
          "name": "count",
          "type": "uint256"
        },
        {
          "internalType": "uint256",
          "name": "weight",
          "type": "uint256"
        }
      ],
      "stateMutability": "view",
      "type": "function"
    },
    {
      "inputs": [
        {
          "internalType": "uint256",
          "name": "issueId",
          "type": "uint256"
        },
        {
          "internalType": "address",
          "name": "addr",
          "type": "address"
        }
      ],
      "name": "ballotOf",
      "outputs": [
        {
          "internalType": "uint256",
          "name": "",
          "type": "uint256"
        }
      ],
      "stateMutability": "view",
      "type": "function"
    },
    {
      "inputs": [
        {
          "internalType": "uint256",
          "name": "issueId",
          "type": "uint256"
        },
        {
          "internalType": "address",
          "name": "addr",
          "type": "address"
        }
      ],
      "name": "weightOf",
      "outputs": [
        {
          "internalType": "uint256",
          "name": "",
          "type": "uint256"
        }
      ],
      "stateMutability": "view",
      "type": "function"
    },
    {
      "inputs": [
        {
          "internalType": "uint256",
          "name": "issueId",
          "type": "uint256"
        },
        {
          "internalType": "uint256",
          "name": "option",
          "type": "uint256"
        }
      ],
      "name": "weightedVoteCountsOf",
      "outputs": [
        {
          "internalType": "uint256",
          "name": "",
          "type": "uint256"
        }
      ],
      "stateMutability": "view",
      "type": "function"
    },
    {
      "inputs": [
        {
          "internalType": "uint256",
          "name": "issueId",
          "type": "uint256"
        }
      ],
      "name": "proposalInfo",
      "outputs": [
        {
          "internalType": "string",
          "name": "title",
          "type": "string"
        },
        {
          "internalType": "enum Voting.ProposalType",
          "name": "votingType",
          "type": "uint8"
        },
        {
          "internalType": "enum Voting.ProposalUpdater",
          "name": "votingUpdater",
          "type": "uint8"
        },
        {
          "internalType": "uint256",
          "name": "nay",
          "type": "uint256"
        },
        {
          "internalType": "uint256",
          "name": "yea",
          "type": "uint256"
        },
        {
          "internalType": "bool",
          "name": "hasQuorum",
          "type": "bool"
        },
        {
          "internalType": "bool",
          "name": "accepted",
          "type": "bool"
        },
        {
          "internalType": "uint256",
          "name": "expiryTime",
          "type": "uint256"
        }
      ],
      "stateMutability": "view",
      "type": "function"
    },
    {
      "inputs": [
        {
          "internalType": "uint256",
          "name": "issueId",
          "type": "uint256"
        }
      ],
      "name": "proposalConfig",
      "outputs": [
        {
          "internalType": "address",
          "name": "creator",
          "type": "address"
        },
        {
          "internalType": "uint256",
          "name": "quorumPct",
          "type": "uint256"
        },
        {
          "internalType": "uint256",
          "name": "supportPct",
          "type": "uint256"
        },
        {
          "internalType": "uint256",
          "name": "voters",
          "type": "uint256"
        },
        {
          "internalType": "string",
          "name": "updateData",
          "type": "string"
        },
        {
          "internalType": "bool",
          "name": "executed",
          "type": "bool"
        }
      ],
      "stateMutability": "view",
      "type": "function"
    },
    {
      "inputs": [
        {
          "internalType": "bool",
          "name": "isAvailable",
          "type": "bool"
        },
        {
          "internalType": "uint256",
          "name": "minStaked",
          "type": "uint256"
        }
      ],
      "name": "createProposalAvailability",
      "outputs": [],
      "stateMutability": "nonpayable",
      "type": "function"
    },
    {
      "inputs": [
        {
          "internalType": "string",
          "name": "title",
          "type": "string"
        },
        {
          "internalType": "string",
          "name": "description",
          "type": "string"
        },
        {
          "internalType": "uint256",
          "name": "expiryTime",
          "type": "uint256"
        },
        {
          "internalType": "string",
          "name": "updateData",
          "type": "string"
        },
        {
          "internalType": "enum Voting.ProposalUpdater",
          "name": "votingUpdater",
          "type": "uint8"
        }
      ],
      "name": "newProposal",
      "outputs": [],
      "stateMutability": "nonpayable",
      "type": "function"
    },
    {
      "inputs": [
        {
          "internalType": "string",
          "name": "title",
          "type": "string"
        },
        {
          "internalType": "string",
          "name": "description",
          "type": "string"
        },
        {
          "internalType": "uint256",
          "name": "expiryTime",
          "type": "uint256"
        },
        {
          "internalType": "string[]",
          "name": "options",
          "type": "string[]"
        },
        {
          "internalType": "enum Voting.ProposalUpdater",
          "name": "votingUpdater",
          "type": "uint8"
        }
      ],
      "name": "newMultiProposal",
      "outputs": [],
      "stateMutability": "nonpayable",
      "type": "function"
    },
    {
      "inputs": [
        {
          "internalType": "uint256",
          "name": "issueId",
          "type": "uint256"
        },
        {
          "internalType": "bytes4",
          "name": "option",
          "type": "bytes4"
        }
      ],
      "name": "vote",
      "outputs": [
        {
          "internalType": "bool",
          "name": "",
          "type": "bool"
        }
      ],
      "stateMutability": "nonpayable",
      "type": "function"
    },
    {
      "inputs": [
        {
          "internalType": "uint256",
          "name": "issueId",
          "type": "uint256"
        },
        {
          "internalType": "uint256",
          "name": "option",
          "type": "uint256"
        }
      ],
      "name": "vote",
      "outputs": [
        {
          "internalType": "bool",
          "name": "",
          "type": "bool"
        }
      ],
      "stateMutability": "nonpayable",
      "type": "function"
    },
    {
      "inputs": [
        {
          "internalType": "uint256",
          "name": "issueId",
          "type": "uint256"
        }
      ],
      "name": "execProposal",
      "outputs": [],
      "stateMutability": "nonpayable",
      "type": "function"
    },
    {
      "inputs": [
        {
          "internalType": "uint256",
          "name": "issueId",
          "type": "uint256"
        }
      ],
      "name": "redeemDepositFromProposal",
      "outputs": [],
      "stateMutability": "nonpayable",
      "type": "function"
    },
    {
      "inputs": [
        {
          "internalType": "address",
          "name": "holder",
          "type": "address"
        }
      ],
      "name": "updatedStake",
      "outputs": [],
      "stateMutability": "nonpayable",
      "type": "function"
    },
    {
      "inputs": [
        {
          "internalType": "string",
          "name": "_value",
          "type": "string"
        }
      ],
      "name": "parseInt",
      "outputs": [
        {
          "internalType": "uint256",
          "name": "_ret",
          "type": "uint256"
        }
      ],
      "stateMutability": "pure",
      "type": "function"
    },
    {
      "inputs": [
        {
          "internalType": "enum Voting.ProposalUpdater",
          "name": "votingUpdater",
          "type": "uint8"
        },
        {
          "internalType": "string",
          "name": "updateData",
          "type": "string"
        }
      ],
      "name": "updaterValidateData",
      "outputs": [
        {
          "internalType": "bool",
          "name": "",
          "type": "bool"
        }
      ],
      "stateMutability": "pure",
      "type": "function"
    }
  ],
  "bytecode": "0x60806040526402540be4006003553480156200001a57600080fd5b506000620000306001600160e01b03620003b516565b600080546001600160a01b0319166001600160a01b0383169081178255604051929350917f8be0079c531659141344cd1fd0a4f28419497f9722a3daafe3b4186f6b6457e0908290a350620000ba6040516200008c9062000422565b6040518091039020604051620000a29062000422565b6040519081900390206001600160e01b03620003b916565b620000cc6040516200008c906200040b565b604080518082018252614e2080825261c35160208084018281526000808052600490925293517f17ef568e3e12ab5b9c7254a8d58478811de00f9e6eb34345acd53bf8fd09d3ec5592517f17ef568e3e12ab5b9c7254a8d58478811de00f9e6eb34345acd53bf8fd09d3ed55925190929190600080516020620056ad833981519152906200015e908590859062000438565b60405180910390a2604080518082018252838152602080820184815260016000819052600490925291517fabd6e7cb50984ff9c2f3e18a2660c3353dadf4e3291deeb275dae2cd1e44fe055590517fabd6e7cb50984ff9c2f3e18a2660c3353dadf4e3291deeb275dae2cd1e44fe06559051600080516020620056ad83398151915290620001f0908590859062000438565b60405180910390a2604080518082018252838152602080820184815260026000819052600490925291517f91da3fd0782e51c6b3986e9e672fd566868e71f3dbc2d6c2cd6fbb3e361af2a75590517f91da3fd0782e51c6b3986e9e672fd566868e71f3dbc2d6c2cd6fbb3e361af2a8559051600080516020620056ad8339815191529062000282908590859062000438565b60405180910390a2604080518082018252838152602080820184815260036000819052600490925291517f2e174c10e159ea99b867ce3205125c24a42d128804e4070ed6fcc8cc98166aa05590517f2e174c10e159ea99b867ce3205125c24a42d128804e4070ed6fcc8cc98166aa1559051600080516020620056ad8339815191529062000314908590859062000438565b60405180910390a26040805180820182528381526020808201848152600460008190529182905291517f1a1e6821cde7d0159c0d293177871e09677b4e42307c7db3ba94f8648a5a050f5590517f1a1e6821cde7d0159c0d293177871e09677b4e42307c7db3ba94f8648a5a0510559051600080516020620056ad83398151915290620003a5908590859062000438565b60405180910390a2505062000446565b3390565b600082815260016020526040808220600201549051839285917fbd79b86ffe0ab8e8776151514217cd7cacd52c909f66475c3af44e129f0b00ff9190a460009182526001602052604090912060020155565b6a564f54494e475f524f4c4560a81b8152600b0190565b6941444d494e5f524f4c4560b01b8152600a0190565b918252602082015260400190565b61525780620004566000396000f3fe608060405234801561001057600080fd5b50600436106102475760003560e01c806375b238fc1161013b578063ae092e89116100b8578063eaac697a1161007c578063eaac697a14610511578063f0464a2b14610524578063f2fde38b14610537578063f3da049e1461054a578063f6621dc31461055257610247565b8063ae092e8914610499578063b384abef146104c0578063ca15c873146104d3578063d547741f146104e6578063e0136a79146104f957610247565b806391d14854116100ff57806391d1485414610445578063933c1306146104585780639d91cf9a1461046b578063a1629f921461047e578063a217fddf1461049157610247565b806375b238fc146103fa578063761bbd8a146104025780638935ced51461040a5780638da5cb5b1461041d5780639010d07c1461043257610247565b80634883a6a8116101c95780636e6a1dc31161018d5780636e6a1dc3146103a65780636f963fa1146103b957806370480275146103cc57806370c88f30146103df578063715018a6146103f257610247565b80634883a6a8146103385780634ba241d81461034b5780634c461f5a1461036d578063503814511461038057806353c2d4791461039357610247565b806331aab8881161021057806331aab888146102d257806332ec991c146102f757806336568abe1461030a57806342346c5e1461031d57806346c6211e1461033057610247565b8062fe1bff1461024c57806312a70f0b146102755780631e01a1721461028a578063248a9ca3146102aa5780632f2ff15d146102bd575b600080fd5b61025f61025a3660046147b5565b610573565b60405161026c9190614b2d565b60405180910390f35b61027d610802565b60405161026c9190614b38565b61029d610298366004614727565b610819565b60405161026c9190614b55565b61027d6102b8366004614727565b6108f7565b6102d06102cb36600461473f565b61090f565b005b6102e56102e0366004614727565b610957565b60405161026c96959493929190614ae5565b61027d6103053660046149e4565b6109a3565b6102d061031836600461473f565b610a02565b61027d61032b366004614991565b610a44565b61027d610ad3565b61025f610346366004614a10565b610ada565b61035e610359366004614779565b610bc6565b60405161026c93929190614bca565b6102d061037b366004614706565b610cfe565b6102d061038e3660046148de565b610d6e565b6102d06103a1366004614803565b611408565b61027d6103b4366004614779565b611b56565b61025f6103c73660046146c1565b611bbf565b6102d06103da3660046146c1565b611cb2565b6102d06103ed3660046146c1565b611d07565b6102d06120e3565b61027d612162565b61027d61216e565b61027d6104183660046149e4565b612174565b6104256121cf565b60405161026c9190614ab8565b610425610440366004614779565b6121de565b61025f61045336600461473f565b612203565b6102d0610466366004614727565b612221565b61027d6104793660046146dc565b612887565b6102d061048c366004614727565b6128af565b61027d6129d7565b6104ac6104a7366004614727565b6129dc565b60405161026c989796959493929190614b68565b61025f6104ce366004614779565b612a40565b61027d6104e1366004614727565b612e4e565b6102d06104f436600461473f565b612e65565b610501612e9f565b60405161026c94939291906151b0565b61029d61051f366004614779565b612f6c565b61027d610532366004614727565b61308b565b6102d06105453660046146c1565b6130d3565b61025f613189565b61056561056036600461479a565b613199565b60405161026c9291906151f2565b60008083600481111561058257fe5b1415610590575060016107fc565b600183600481111561059e57fe5b14156105cb5760006105af83610a44565b905060c881101580156105c35750610bb881105b9150506107fc565b60028360048111156105d957fe5b14156106035760006105ea83610a44565b9050600a81101580156105c35750605a101590506107fc565b600383600481111561061157fe5b141561062d57600061062283610a44565b151591506107fc9050565b600483600481111561063b57fe5b14156107f85781518290600d1461065157600080fd5b604080516001808252818301909252606091602082018180388339505060408051600680825281830190925292935060609291506020820181803883395050604080516006808252818301909252929350606092915060208201818038833901905050905060005b845181101561078157600181101561070c57846000815181106106d857fe5b602001015160f81c60f81b846000815181106106f057fe5b60200101906001600160f81b031916908160001a905350610779565b600781101561073b5784818151811061072157fe5b602001015160f81c60f81b8360018303815181106106f057fe5b84818151811061074757fe5b602001015160f81c60f81b82600783038151811061076157fe5b60200101906001600160f81b031916908160001a9053505b6001016106b9565b50600061078d83610a44565b9050600061079a83610a44565b9050600080831180156107b05750620186a08311155b90508080156107bf5750600082115b80156107ce5750620186a08211155b90508080156107e9575060046107e387610a44565b60ff1611155b97506107fc9650505050505050565b5060005b92915050565b60405161080e90614a8b565b604051809103902081565b60608160008111801561082e57506009548111155b6108535760405162461bcd60e51b815260040161084a90614d89565b60405180910390fd5b6000838152600560209081526040918290206002908101805484516001821615610100026000190190911692909204601f8101849004840283018401909452838252909290918301828280156108ea5780601f106108bf576101008083540402835291602001916108ea565b820191906000526020600020905b8154815290600101906020018083116108cd57829003601f168201915b5050505050915050919050565b6000818152600160205260409020600201545b919050565b60008281526001602052604090206002015461092d906104536131f5565b6109495760405162461bcd60e51b815260040161084a90614c31565b61095382826131f9565b5050565b60008060008060606000610969614349565b61097288613268565b8051602082015160408301516060840151608085015160a090950151939d929c50909a509850919650945092505050565b6000826000811180156109b857506009548111155b6109d45760405162461bcd60e51b815260040161084a90614d89565b6001600160a01b038316600090815260076020908152604080832087845290915290205491505b5092915050565b610a0a6131f5565b6001600160a01b0316816001600160a01b031614610a3a5760405162461bcd60e51b815260040161084a90615120565b610953828261369f565b80516000908290600190600019015b8251811015610acb576030838281518110610a6a57fe5b016020015160f81c10801590610a9457506039838281518110610a8957fe5b016020015160f81c11155b610a9a57fe5b816030848381518110610aa957fe5b016020015160f81c0360ff16029390930192600a919091029060001901610a53565b505050919050565b6003545b90565b600082600081118015610aef57506009548111155b610b0b5760405162461bcd60e51b815260040161084a90614d89565b6279656160e81b626e617960e81b6001600160e01b03198516821480610b3d57506001600160e01b0319858116908216145b610b595760405162461bcd60e51b815260040161084a9061516f565b60008681526005602052604081206003015460ff166001811115610b7957fe5b14610b965760405162461bcd60e51b815260040161084a90614e34565b60006001600160e01b03198681169084161415610bb1575060015b610bbb878261370e565b979650505050505050565b606060008084600081118015610bde57506009548111155b610bfa5760405162461bcd60e51b815260040161084a90614d89565b6000868152600560205260409020600801548510610c2a5760405162461bcd60e51b815260040161084a90614f35565b6000868152600560205260408120600801805487908110610c4757fe5b60009182526020918290206003919091020180546040805160026001841615610100026000190190931692909204601f810185900485028301850190915280825291935091839190830182828015610ce05780601f10610cb557610100808354040283529160200191610ce0565b820191906000526020600020905b815481529060010190602001808311610cc357829003601f168201915b50505050509450806001015493508060020154925050509250925092565b610d1b604051610d0d90614a8b565b604051809103902033612203565b80610d305750610d30604051610d0d90614aa2565b610d4c5760405162461bcd60e51b815260040161084a9061506a565b60028054921515600160a01b0260ff60a01b1990931692909217909155600355565b610d7d604051610d0d90614a8b565b80610d925750610d92604051610d0d90614aa2565b1561106e5786610db45760405162461bcd60e51b815260040161084a906150ac565b610dbc613a35565b8411610dda5760405162461bcd60e51b815260040161084a90614c80565b6009805460010190819055610dee90613a39565b6009546000908152600560205260409020610e0761438a565b60046000846004811115610e1757fe5b60ff16815260208082019290925260409081016000208151808301909252805482526001908101549282019290925283546001600160a01b031916331784559150610e659083018b8b6143a4565b50610e746002830189896143a4565b5080516005830155602081015160078301556009820186905560038201805460ff198116825584919061ffff1916610100836004811115610eb157fe5b02179055506000836004811115610ec457fe5b14610f3557610f098386868080601f01602080910402602001604051908101604052809392919081815260200183838082843760009201919091525061057392505050565b610f255760405162461bcd60e51b815260040161084a90614efe565b610f336004830186866143a4565b505b6040805160a081018252600360608201818152626e617960e81b608084015282526000602080840182905293830181905260088601805460018101825590825290849020835180519495929093020192610f929284920190614422565b50602082810151600180840191909155604093840151600290930192909255825160a0810184526003606082018181526279656160e81b6080840152825260008284018190529482018590526008870180549485018155855293829020815180519295949094020192611009928492910190614422565b506020820151600182015560409091015160029091015560005b336001600160a01b03166009547f22910aa3d36b7721f45dfd4a366dd228fb8e9f8b0752b5cf6557acba94d2edd98660405161105f9190614b41565b60405180910390a450506113fe565b600254600160a01b900460ff16156113e6576002546040516370a0823160e01b81526000916001600160a01b0316906370a08231906110b1903390600401614ab8565b60206040518083038186803b1580156110c957600080fd5b505afa1580156110dd573d6000803e3d6000fd5b505050506040513d601f19601f8201168201806040525061110191908101906149cc565b905060035481106113e457876111295760405162461bcd60e51b815260040161084a906150ac565b611131613a35565b851161114f5760405162461bcd60e51b815260040161084a90614c80565b600980546001019081905561116390613a39565b600954600090815260056020526040902061117c61438a565b6004600085600481111561118c57fe5b60ff16815260208082019290925260409081016000208151808301909252805482526001908101549282019290925283546001600160a01b0319163317845591506111da9083018c8c6143a4565b506111e9600283018a8a6143a4565b5080516005830155602081015160078301556009820187905560038201805460ff198116825585919061ffff191661010083600481111561122657fe5b0217905550600084600481111561123957fe5b146112aa5761127e8487878080601f01602080910402602001604051908101604052809392919081815260200183838082843760009201919091525061057392505050565b61129a5760405162461bcd60e51b815260040161084a90614efe565b6112a86004830187876143a4565b505b6040805160a081018252600360608201818152626e617960e81b6080840152825260006020808401829052938301819052600886018054600181018255908252908490208351805194959290930201926113079284920190614422565b50602082810151600180840191909155604093840151600290930192909255825160a0810184526003606082018181526279656160e81b608084015282526000828401819052948201859052600887018054948501815585529382902081518051929594909402019261137e928492910190614422565b506020820151600182015560409091015160029091015560005b336001600160a01b03166009547f22910aa3d36b7721f45dfd4a366dd228fb8e9f8b0752b5cf6557acba94d2edd9876040516113d49190614b41565b60405180910390a45050506113fe565b505b60405162461bcd60e51b815260040161084a9061506a565b5050505050505050565b611417604051610d0d90614a8b565b8061142c575061142c604051610d0d90614aa2565b156117b7578661144e5760405162461bcd60e51b815260040161084a906150ac565b611456613a35565b84116114745760405162461bcd60e51b815260040161084a90614c80565b600182116114945760405162461bcd60e51b815260040161084a90614d45565b60098054600101908190556114a890613a39565b60095460009081526005602052604090206114c161438a565b600460008460048111156114d157fe5b60ff16815260208082019290925260409081016000208151808301909252805482526001908101549282019290925283546001600160a01b03191633178455915061151f9083018b8b6143a4565b5061152e6002830189896143a4565b5080516005830155602081015160078301556009820186905560038201805460ff191660011780825584919061ff00191661010083600481111561156e57fe5b02179055506040805160a081018252600460608201908152630536b69760e41b6080830152815260006020808301829052928201819052600885018054600181018255908252908390208251805193946003909302909101926115d49284920190614422565b506020820151600182015560409091015160029091015560005b848110156117af57600084600481111561160457fe5b146116ba5761169e8487878481811061161957fe5b602002820190508035601e193684900301811261163557600080fd5b9091016020810191503567ffffffffffffffff81111561165457600080fd5b3681900382131561166457600080fd5b8080601f01602080910402602001604051908101604052809392919081815260200183838082843760009201919091525061057392505050565b6116ba5760405162461bcd60e51b815260040161084a90614efe565b8260080160405180606001604052808888858181106116d557fe5b602002820190508035601e19368490030181126116f157600080fd5b9091016020810191503567ffffffffffffffff81111561171057600080fd5b3681900382131561172057600080fd5b8080601f01602080910402602001604051908101604052809392919081815260200183838082843760009201829052509385525050506020808301829052604090920181905283546001810185559381528190208251805193946003029091019261178e9284920190614422565b506020820151600180830191909155604090920151600290910155016115ee565b506001611023565b600254600160a01b900460ff16156113e6576002546040516370a0823160e01b81526000916001600160a01b0316906370a08231906117fa903390600401614ab8565b60206040518083038186803b15801561181257600080fd5b505afa158015611826573d6000803e3d6000fd5b505050506040513d601f19601f8201168201806040525061184a91908101906149cc565b905060035481106113e457876118725760405162461bcd60e51b815260040161084a906150ac565b61187a613a35565b85116118985760405162461bcd60e51b815260040161084a90614c80565b600183116118b85760405162461bcd60e51b815260040161084a90614d45565b60098054600101908190556118cc90613a39565b60095460009081526005602052604090206118e561438a565b600460008560048111156118f557fe5b60ff16815260208082019290925260409081016000208151808301909252805482526001908101549282019290925283546001600160a01b0319163317845591506119439083018c8c6143a4565b50611952600283018a8a6143a4565b5080516005830155602081015160078301556009820187905560038201805460ff191660011780825585919061ff00191661010083600481111561199257fe5b02179055506040805160a081018252600460608201908152630536b69760e41b6080830152815260006020808301829052928201819052600885018054600181018255908252908390208251805193946003909302909101926119f89284920190614422565b506020820151600182015560409091015160029091015560005b85811015611b4e576000856004811115611a2857fe5b14611a5957611a3d8588888481811061161957fe5b611a595760405162461bcd60e51b815260040161084a90614efe565b826008016040518060600160405280898985818110611a7457fe5b602002820190508035601e1936849003018112611a9057600080fd5b9091016020810191503567ffffffffffffffff811115611aaf57600080fd5b36819003821315611abf57600080fd5b8080601f016020809104026020016040519081016040528093929190818152602001838380828437600092018290525093855250505060208083018290526040909201819052835460018101855593815281902082518051939460030290910192611b2d9284920190614422565b50602082015160018083019190915560409092015160029091015501611a12565b506001611398565b600082600081118015611b6b57506009548111155b611b875760405162461bcd60e51b815260040161084a90614d89565b6000848152600560205260409020600801805484908110611ba457fe5b90600052602060002090600302016001015491505092915050565b6000611bde604051611bd090614a8b565b604051809103902083612203565b80611bf35750611bf3604051611bd090614aa2565b15611c005750600161090a565b600254600160a01b900460ff1615611caa57600254604051632c9aab9b60e11b81526000916001600160a01b031690635935573690611c43908690600401614ab8565b60206040518083038186803b158015611c5b57600080fd5b505afa158015611c6f573d6000803e3d6000fd5b505050506040513d601f19601f82011682018060405250611c9391908101906149cc565b90506003548110611ca857600191505061090a565b505b506000919050565b611cba6131f5565b6000546001600160a01b03908116911614611ce75760405162461bcd60e51b815260040161084a90614fec565b611d04604051611cf690614aa2565b604051809103902082610949565b50565b6002546001600160a01b03163314611d1e57600080fd5b6001600160a01b038116600090815260086020908152604091829020805483518184028101840190945280845260609392830182828015611d7e57602002820191906000526020600020905b815481526020019060010190808311611d6a575b50505050509050805160001415611d955750611d04565b6002546040805163ca5c7b9160e01b815290516000926001600160a01b03169163ca5c7b91916004808301926020929190829003018186803b158015611dda57600080fd5b505afa158015611dee573d6000803e3d6000fd5b505050506040513d601f19601f82011682018060405250611e1291908101906149cc565b600254604051632c9aab9b60e11b81529192506000916001600160a01b0390911690635935573690611e48908790600401614ab8565b60206040518083038186803b158015611e6057600080fd5b505afa158015611e74573d6000803e3d6000fd5b505050506040513d601f19601f82011682018060405250611e9891908101906149cc565b905060606000805b85518110156120b0576000868281518110611eb757fe5b602002602001015190506000600560008381526020019081526020016000209050611ee0613a35565b81600901541015611ef25750506120a8565b6001600160a01b0389166000908152600760209081526040808320858452909152902086611fd357600b82018054600019019055600181018054600a840180549190910390555481546008840180549091908110611f4c57fe5b90600052602060002090600302016002016000828254039250508190555081600801816000015481548110611f7d57fe5b6000918252602082206001600390920201810180546000190190558201556005820154600a8301548990620186a00281611fb357fe5b6006909401805460ff191691909404919091101517909155506120a89050565b8681600101541115612019578681600101540382600801826000015481548110611ff957fe5b60009182526020909120600260039092020101805491909103905561204e565b806001015487038260080182600001548154811061203357fe5b60009182526020909120600260039092020101805490910190555b600181018790556005820154600a8301548990620186a0028161206d57fe5b60068501805460ff19169290910492909210151790558551839087908790811061209357fe5b60209081029190910101525050600190920191505b600101611ea0565b506001600160a01b038616600090815260086020908152604090912083516120da92850190614490565b50505050505050565b6120eb6131f5565b6000546001600160a01b039081169116146121185760405162461bcd60e51b815260040161084a90614fec565b600080546040516001600160a01b03909116907f8be0079c531659141344cd1fd0a4f28419497f9722a3daafe3b4186f6b6457e0908390a3600080546001600160a01b0319169055565b60405161080e90614aa2565b60095490565b60008260008111801561218957506009548111155b6121a55760405162461bcd60e51b815260040161084a90614d89565b50506001600160a01b03166000908152600760209081526040808320938352929052206001015490565b6000546001600160a01b031690565b60008281526001602052604081206121fc908363ffffffff613aee16565b9392505050565b60008281526001602052604081206121fc908363ffffffff613afa16565b6122296144ca565b61223282613b0f565b905061223c614349565b61224583613268565b80519091506001600160a01b031633148061226a575061226a604051610d0d90614a8b565b8061227f575061227f604051610d0d90614aa2565b61229b5760405162461bcd60e51b815260040161084a9061506a565b6000826040015160048111156122ad57fe5b14156122cb5760405162461bcd60e51b815260040161084a906150d9565b6122d3613a35565b8260e00151106122f55760405162461bcd60e51b815260040161084a90615021565b60008260200151600181111561230757fe5b141561232e578160c0015161232e5760405162461bcd60e51b815260040161084a90614def565b8060a00151156123505760405162461bcd60e51b815260040161084a90614fb5565b606060018360200151600181111561236457fe5b14156125935760008080805b6000888152600560205260409020600801548110156124a957612391614514565b60008981526005602052604090206008018054839081106123ae57fe5b600091825260209182902060408051600393909302909101805460026001821615610100026000190190911604601f81018590049094028301608090810190925260608301848152929390928492909184918401828280156124515780601f1061242657610100808354040283529160200191612451565b820191906000526020600020905b81548152906001019060200180831161243457829003601f168201915b50505050508152602001600182015481526020016002820154815250509050838160400151111561248f5781945080604001519350600092506124a0565b83816040015114156124a057600192505b50600101612370565b50801580156124b85750600083115b6124d45760405162461bcd60e51b815260040161084a90614d0e565b60008781526005602052604090206008018054849081106124f157fe5b6000918252602091829020600390910201805460408051601f60026000196101006001871615020190941693909304928301859004850281018501909152818152928301828280156125845780601f1061255957610100808354040283529160200191612584565b820191906000526020600020905b81548152906001019060200180831161256757829003601f168201915b5050505050935050505061259a565b5060808101515b6001836040015160048111156125ac57fe5b1415612621576002546001600160a01b031663c108a402856125cd84610a44565b6040518363ffffffff1660e01b81526004016125ea9291906151f2565b600060405180830381600087803b15801561260457600080fd5b505af1158015612618573d6000803e3d6000fd5b5050505061283b565b60028360400151600481111561263357fe5b1415612654576002546001600160a01b031663ac3cd7c6856125cd84610a44565b60038360400151600481111561266657fe5b141561267d5761267581610a44565b60035561283b565b60048360400151600481111561268f57fe5b141561283b5760408051600180825281830190925282916060919060208201818038833950506040805160068082528183019092529293506060929150602082018180388339505060408051600680825281830190925292935060609291506020820181803883390190505090508351600d1461270b57600080fd5b60005b84518110156127d6576001811015612761578460008151811061272d57fe5b602001015160f81c60f81b8460008151811061274557fe5b60200101906001600160f81b031916908160001a9053506127ce565b60078110156127905784818151811061277657fe5b602001015160f81c60f81b83600183038151811061274557fe5b84818151811061279c57fe5b602001015160f81c60f81b8260078303815181106127b657fe5b60200101906001600160f81b031916908160001a9053505b60010161270e565b5060006127e283610a44565b905060006127ef83610a44565b90506040518060400160405280838152602001828152506004600061281388610a44565b60ff168152602080820192909252604001600020825181559101516001909101555050505050505b600084815260056020526040808220600c01805460ff1916600117905551339186917f3776071a1b606e078d8aec141249d4c30abe813f5e6752afe84d0c6a25f1388b9190a350505050565b6001600160a01b03919091166000908152600660209081526040808320938352929052205490565b806000811180156128c257506009548111155b6128de5760405162461bcd60e51b815260040161084a90614d89565b6128e66144ca565b6128ef83613b0f565b90506128f9614349565b61290284613268565b80519091506001600160a01b0316331461292e5760405162461bcd60e51b815260040161084a9061506a565b612936613a35565b8260e00151106129585760405162461bcd60e51b815260040161084a90615021565b60008260200151600181111561296a57fe5b1415612991578160c001516129915760405162461bcd60e51b815260040161084a90614def565b3360009081526006602090815260408083208784529091529020546129c85760405162461bcd60e51b815260040161084a90614dc0565b6129d1846140d9565b50505050565b600081565b606060008060008060008060006129f16144ca565b6129fa8a613b0f565b905080600001519850806020015197508060400151965080606001519550806080015194508060a0015193508060c0015192508060e00151915050919395975091939597565b600082600081118015612a5557506009548111155b612a715760405162461bcd60e51b815260040161084a90614d89565b612a79614535565b60008581526005602090815260409182902082516101c08101845281546001600160a01b03168152600180830180548651600261010094831615949094026000190190911692909204601f8101869004860283018601909652858252919492938581019391929190830182828015612b325780601f10612b0757610100808354040283529160200191612b32565b820191906000526020600020905b815481529060010190602001808311612b1557829003601f168201915b5050509183525050600282810180546040805160206001841615610100026000190190931694909404601f81018390048302850183019091528084529381019390830182828015612bc45780601f10612b9957610100808354040283529160200191612bc4565b820191906000526020600020905b815481529060010190602001808311612ba757829003601f168201915b5050509183525050600382015460209091019060ff166001811115612be557fe5b6001811115612bf057fe5b81526020016003820160019054906101000a900460ff166004811115612c1257fe5b6004811115612c1d57fe5b815260048201805460408051602060026001851615610100026000190190941693909304601f8101849004840282018401909252818152938201939291830182828015612cab5780601f10612c8057610100808354040283529160200191612cab565b820191906000526020600020905b815481529060010190602001808311612c8e57829003601f168201915b50505050508152602001600582015481526020016006820160009054906101000a900460ff161515151581526020016007820154815260200160088201805480602002602001604051908101604052809291908181526020016000905b82821015612ddd5760008481526020908190206040805160038602909201805460026001821615610100026000190190911604601f8101859004909402830160809081019092526060830184815292939092849290918491840182828015612db15780601f10612d8657610100808354040283529160200191612db1565b820191906000526020600020905b815481529060010190602001808311612d9457829003601f168201915b505050505081526020016001820154815260200160028201548152505081526020019060010190612d08565b5050509082525060098201546020820152600a8201546040820152600b8201546060820152600c9091015460ff161515608090910152610120810151519091508410612e3b5760405162461bcd60e51b815260040161084a90614f35565b612e45858561370e565b95945050505050565b60008181526001602052604081206107fc906141a3565b600082815260016020526040902060020154612e83906104536131f5565b610a3a5760405162461bcd60e51b815260040161084a90614f65565b6009546000818152600560209081526040808320600190810180548351600293821615610100026000190190911692909204601f810185900485028301850190935282825260609493849390830182828015612f3c5780601f10612f1157610100808354040283529160200191612f3c565b820191906000526020600020905b815481529060010190602001808311612f1f57829003601f168201915b5050506000878152600560205260409020600301549697929660ff80821697506101009091041694509192505050565b606082600081118015612f8157506009548111155b612f9d5760405162461bcd60e51b815260040161084a90614d89565b6000848152600560205260409020600801548310612fcd5760405162461bcd60e51b815260040161084a90614f35565b6000848152600560205260409020600801805484908110612fea57fe5b6000918252602091829020600390910201805460408051601f600260001961010060018716150201909416939093049283018590048502810185019091528181529283018282801561307d5780601f106130525761010080835404028352916020019161307d565b820191906000526020600020905b81548152906001019060200180831161306057829003601f168201915b505050505091505092915050565b6000816000811180156130a057506009548111155b6130bc5760405162461bcd60e51b815260040161084a90614d89565b505060009081526005602052604090206008015490565b6130db6131f5565b6000546001600160a01b039081169116146131085760405162461bcd60e51b815260040161084a90614fec565b6001600160a01b03811661312e5760405162461bcd60e51b815260040161084a90614cc8565b600080546040516001600160a01b03808516939216917f8be0079c531659141344cd1fd0a4f28419497f9722a3daafe3b4186f6b6457e091a3600080546001600160a01b0319166001600160a01b0392909216919091179055565b600254600160a01b900460ff1690565b600080600460008460048111156131ac57fe5b60ff1660ff168152602001908152602001600020600001549150600460008460048111156131d657fe5b60ff1660ff168152602001908152602001600020600101549050915091565b3390565b6000828152600160205260409020613217908263ffffffff6141ae16565b15610953576132246131f5565b6001600160a01b0316816001600160a01b0316837f2f8788117e7eff1d82e926ec794901d17c78024a50270940304540a733656f0d60405160405180910390a45050565b613270614349565b8160008111801561328357506009548111155b61329f5760405162461bcd60e51b815260040161084a90614d89565b6132a7614535565b60008481526005602090815260409182902082516101c08101845281546001600160a01b03168152600180830180548651600261010094831615949094026000190190911692909204601f81018690048602830186019096528582529194929385810193919291908301828280156133605780601f1061333557610100808354040283529160200191613360565b820191906000526020600020905b81548152906001019060200180831161334357829003601f168201915b5050509183525050600282810180546040805160206001841615610100026000190190931694909404601f810183900483028501830190915280845293810193908301828280156133f25780601f106133c7576101008083540402835291602001916133f2565b820191906000526020600020905b8154815290600101906020018083116133d557829003601f168201915b5050509183525050600382015460209091019060ff16600181111561341357fe5b600181111561341e57fe5b81526020016003820160019054906101000a900460ff16600481111561344057fe5b600481111561344b57fe5b815260048201805460408051602060026001851615610100026000190190941693909304601f81018490048402820184019092528181529382019392918301828280156134d95780601f106134ae576101008083540402835291602001916134d9565b820191906000526020600020905b8154815290600101906020018083116134bc57829003601f168201915b50505050508152602001600582015481526020016006820160009054906101000a900460ff161515151581526020016007820154815260200160088201805480602002602001604051908101604052809291908181526020016000905b8282101561360b5760008481526020908190206040805160038602909201805460026001821615610100026000190190911604601f81018590049094028301608090810190925260608301848152929390928492909184918401828280156135df5780601f106135b4576101008083540402835291602001916135df565b820191906000526020600020905b8154815290600101906020018083116135c257829003601f168201915b505050505081526020016001820154815260200160028201548152505081526020019060010190613536565b505050908252506009820154602080830191909152600a830154604080840191909152600b840154606080850191909152600c9094015460ff16151560809384015284516001600160a01b0316885260c085015191880191909152610100840151908701526101808301519186019190915260a080830151918601919091526101a090910151151590840152509092915050565b60008281526001602052604090206136bd908263ffffffff6141c316565b15610953576136ca6131f5565b6001600160a01b0316816001600160a01b0316837ff6391f5c32d9c69d2a47ea670b442974b53935d1edc7fd64eb21e047a839171b60405160405180910390a45050565b60008260008111801561372357506009548111155b61373f5760405162461bcd60e51b815260040161084a90614d89565b6000848152600560205260409020613755613a35565b8160090154101561376a5760009250506109fb565b600254604051632c9aab9b60e11b815233916000916001600160a01b039091169063593557369061379f908590600401614ab8565b60206040518083038186803b1580156137b757600080fd5b505afa1580156137cb573d6000803e3d6000fd5b505050506040513d601f19601f820116820180604052506137ef91908101906149cc565b9050600081116138115760405162461bcd60e51b815260040161084a90614eb3565b6001600160a01b03821660009081526007602090815260408083208a8452909152902060010154156138555760405162461bcd60e51b815260040161084a90614e7c565b60408051808201825287815260208082018481526001600160a01b0386166000908152600783528481208c8252909252929020905181559051600191820155600b840180549091019055600a8301805482019055600883018054879081106138b957fe5b906000526020600020906003020160010160008154809291906001019190505550808360080187815481106138ea57fe5b6000918252602090912060026003909202010180549091019055600683015460ff166139be576002546040805163ca5c7b9160e01b815290516000926001600160a01b03169163ca5c7b91916004808301926020929190829003018186803b15801561395557600080fd5b505afa158015613969573d6000803e3d6000fd5b505050506040513d601f19601f8201168201806040525061398d91908101906149cc565b84600a0154620186a0028161399e57fe5b049050836005015481106139bc5760068401805460ff191660011790555b505b336000908152600860209081526040808320805460018101825590845291909220018890555186906001600160a01b0384169089907f8eea3a81425aea5e440ed6b6289a8aea0db8025c75fdeb1434bd81650177034090613a20908690614b38565b60405180910390a45060019695505050505050565b4290565b613a48604051610d0d90614a8b565b80613a5d5750613a5d604051610d0d90614aa2565b15613a6757611d04565b600354336000818152600660209081526040808320868452909152908190208390556002549051631131011960e21b81526001600160a01b03909116926344c4046492613ab992909190600401614acc565b600060405180830381600087803b158015613ad357600080fd5b505af1158015613ae7573d6000803e3d6000fd5b5050505050565b60006121fc83836141d8565b60006121fc836001600160a01b03841661421d565b613b176144ca565b81600081118015613b2a57506009548111155b613b465760405162461bcd60e51b815260040161084a90614d89565b613b4e614535565b60008481526005602090815260409182902082516101c08101845281546001600160a01b03168152600180830180548651600261010094831615949094026000190190911692909204601f8101869004860283018601909652858252919492938581019391929190830182828015613c075780601f10613bdc57610100808354040283529160200191613c07565b820191906000526020600020905b815481529060010190602001808311613bea57829003601f168201915b5050509183525050600282810180546040805160206001841615610100026000190190931694909404601f81018390048302850183019091528084529381019390830182828015613c995780601f10613c6e57610100808354040283529160200191613c99565b820191906000526020600020905b815481529060010190602001808311613c7c57829003601f168201915b5050509183525050600382015460209091019060ff166001811115613cba57fe5b6001811115613cc557fe5b81526020016003820160019054906101000a900460ff166004811115613ce757fe5b6004811115613cf257fe5b815260048201805460408051602060026001851615610100026000190190941693909304601f8101849004840282018401909252818152938201939291830182828015613d805780601f10613d5557610100808354040283529160200191613d80565b820191906000526020600020905b815481529060010190602001808311613d6357829003601f168201915b50505050508152602001600582015481526020016006820160009054906101000a900460ff161515151581526020016007820154815260200160088201805480602002602001604051908101604052809291908181526020016000905b82821015613eb25760008481526020908190206040805160038602909201805460026001821615610100026000190190911604601f8101859004909402830160809081019092526060830184815292939092849290918491840182828015613e865780601f10613e5b57610100808354040283529160200191613e86565b820191906000526020600020905b815481529060010190602001808311613e6957829003601f168201915b505050505081526020016001820154815260200160028201548152505081526020019060010190613ddd565b505050908252506009820154602080830191909152600a8301546040830152600b830154606080840191909152600c9093015460ff161515608090920191909152828101518652908201519192508401906001811115613f0e57fe5b90816001811115613f1b57fe5b905250608081015160408401906004811115613f3357fe5b90816004811115613f4057fe5b90525061014081015160e080850191909152810151151560a0840152600083602001516001811115613f6e57fe5b141561401b57806101200151600081518110613f8657fe5b602002602001015160400151836060018181525050806101200151600181518110613fad57fe5b602002602001015160400151836080018181525050613fca613a35565b8360e00151108015613fdd57508260a001515b1561400e578061016001518360800151620186a00281613ff957fe5b610100830151919004101560c0840152614016565b600060c08401525b6140d2565b614023613a35565b8360e0015110801561403657508260a001515b156140ca5760008080805b846101200151518110156140ab57614057614514565b856101200151828151811061406857fe5b6020026020010151905083816040015111156140915781945080604001519350600092506140a2565b83816040015114156140a257600192505b50600101614041565b50801580156140ba5750600083115b151560c0870152506140d2915050565b600060c08401525b5050919050565b6140e8604051610d0d90614a8b565b806140fd57506140fd604051610d0d90614aa2565b1561410757611d04565b60025433600081815260066020908152604080832086845290915290819020549051633ba71a1560e01b81526001600160a01b0390931692633ba71a1592614153929091600401614acc565b600060405180830381600087803b15801561416d57600080fd5b505af1158015614181573d6000803e3d6000fd5b5050336000908152600660209081526040808320868452909152812055505050565b60006107fc82614235565b60006121fc836001600160a01b038416614239565b60006121fc836001600160a01b038416614283565b815460009082106141fb5760405162461bcd60e51b815260040161084a90614bef565b82600001828154811061420a57fe5b9060005260206000200154905092915050565b60009081526001919091016020526040902054151590565b5490565b6000614245838361421d565b61427b575081546001818101845560008481526020808220909301849055845484825282860190935260409020919091556107fc565b5060006107fc565b6000818152600183016020526040812054801561433f57835460001980830191908101906000908790839081106142b657fe5b90600052602060002001549050808760000184815481106142d357fe5b60009182526020808320909101929092558281526001898101909252604090209084019055865487908061430357fe5b600190038181906000526020600020016000905590558660010160008781526020019081526020016000206000905560019450505050506107fc565b60009150506107fc565b6040518060c0016040528060006001600160a01b03168152602001600081526020016000815260200160008152602001606081526020016000151581525090565b604051806040016040528060008152602001600081525090565b828054600181600116156101000203166002900490600052602060002090601f016020900481019282601f106143e55782800160ff19823516178555614412565b82800160010185558215614412579182015b828111156144125782358255916020019190600101906143f7565b5061441e9291506145bc565b5090565b828054600181600116156101000203166002900490600052602060002090601f016020900481019282601f1061446357805160ff1916838001178555614412565b82800160010185558215614412579182015b82811115614412578251825591602001919060010190614475565b8280548282559060005260206000209081019282156144125791602002820182811115614412578251825591602001919060010190614475565b604080516101008101909152606081526020810160008152602001600081526020016000815260200160008152602001600015158152602001600015158152602001600081525090565b60405180606001604052806060815260200160008152602001600081525090565b604051806101c0016040528060006001600160a01b0316815260200160608152602001606081526020016000600181111561456c57fe5b815260200160008152602001606081526020016000815260200160001515815260200160008152602001606081526020016000815260200160008152602001600081526020016000151581525090565b610ad791905b8082111561441e57600081556001016145c2565b80356001600160a01b03811681146107fc57600080fd5b8035600581106107fc57600080fd5b60008083601f84011261460d578182fd5b50813567ffffffffffffffff811115614624578182fd5b60208301915083602082850101111561463c57600080fd5b9250929050565b600082601f830112614653578081fd5b813567ffffffffffffffff8082111561466a578283fd5b604051601f8301601f19168101602001828111828210171561468a578485fd5b6040528281529250828483016020018610156146a557600080fd5b8260208601602083013760006020848301015250505092915050565b6000602082840312156146d2578081fd5b6121fc83836145d6565b600080604083850312156146ee578081fd5b6146f884846145d6565b946020939093013593505050565b60008060408385031215614718578182fd5b823580151581146146f8578283fd5b600060208284031215614738578081fd5b5035919050565b60008060408385031215614751578182fd5b8235915060208301356001600160a01b038116811461476e578182fd5b809150509250929050565b6000806040838503121561478b578182fd5b50508035926020909101359150565b6000602082840312156147ab578081fd5b6121fc83836145ed565b600080604083850312156147c7578182fd5b82356147d281615214565b9150602083013567ffffffffffffffff8111156147ed578182fd5b6147f985828601614643565b9150509250929050565b60008060008060008060008060a0898b03121561481e578384fd5b883567ffffffffffffffff80821115614835578586fd5b6148418c838d016145fc565b909a50985060208b0135915080821115614859578586fd5b6148658c838d016145fc565b909850965060408b0135955060608b0135915080821115614884578485fd5b818b018c601f820112614895578586fd5b80359250818311156148a5578586fd5b8c602080850283010111156148b8578586fd5b60200194509092506148cf90508a60808b016145ed565b90509295985092959890939650565b60008060008060008060008060a0898b0312156148f9578384fd5b883567ffffffffffffffff80821115614910578586fd5b61491c8c838d016145fc565b909a50985060208b0135915080821115614934578586fd5b6149408c838d016145fc565b909850965060408b0135955060608b013591508082111561495f578485fd5b5061496c8b828c016145fc565b909450925050608089013561498081615214565b809150509295985092959890939650565b6000602082840312156149a2578081fd5b813567ffffffffffffffff8111156149b8578182fd5b6149c484828501614643565b949350505050565b6000602082840312156149dd578081fd5b5051919050565b600080604083850312156149f6578182fd5b82359150614a0784602085016145d6565b90509250929050565b60008060408385031215614a22578182fd5b8235915060208301356001600160e01b03198116811461476e578182fd5b60008151808452815b81811015614a6557602081850181015186830182015201614a49565b81811115614a765782602083870101525b50601f01601f19169290920160200192915050565b6a564f54494e475f524f4c4560a81b8152600b0190565b6941444d494e5f524f4c4560b01b8152600a0190565b6001600160a01b0391909116815260200190565b6001600160a01b03929092168252602082015260400190565b600060018060a01b038816825286602083015285604083015284606083015260c06080830152614b1860c0830185614a40565b905082151560a0830152979650505050505050565b901515815260200190565b90815260200190565b6020810160058310614b4f57fe5b91905290565b6000602082526121fc6020830184614a40565b6000610100808352614b7c8184018c614a40565b915050614b8889615200565b886020830152614b978861520a565b60408201979097526060810195909552608085019390935290151560a0840152151560c083015260e09091015292915050565b600060608252614bdd6060830186614a40565b60208301949094525060400152919050565b60208082526022908201527f456e756d657261626c655365743a20696e646578206f7574206f6620626f756e604082015261647360f01b606082015260800190565b6020808252602f908201527f416363657373436f6e74726f6c3a2073656e646572206d75737420626520616e60408201526e0818591b5a5b881d1bc819dc985b9d608a1b606082015260800190565b60208082526028908201527f566f74696e673a2074696d65206d75737420626520626967676572207468616e6040820152670818dd5c9c995b9d60c21b606082015260800190565b60208082526026908201527f4f776e61626c653a206e6577206f776e657220697320746865207a65726f206160408201526564647265737360d01b606082015260800190565b60208082526019908201527f566f74696e673a206e6f206c656164696e67206f7074696f6e00000000000000604082015260600190565b60208082526024908201527f566f74696e673a206d757374206265206174206c656173742074776f206f7074604082015263696f6e7360e01b606082015260800190565b6020808252601f908201527f566f74696e673a2070726f706f73616c20646f6573206e6f7420657869737400604082015260600190565b602080825260159082015274159bdd1a5b99ce88195b5c1d1e4819195c1bdcda5d605a1b604082015260600190565b60208082526025908201527f566f74696e673a20746869732070726f706f73616c206974206e6f7420616363604082015264195c1d195960da1b606082015260800190565b60208082526028908201527f566f74696e673a20706c656173652063686f6f736520616e206f7074696f6e206040820152670c4f240d2dcc8caf60c31b606082015260800190565b6020808252601e908201527f566f74696e673a20796f75206861766520616c726561647920766f7465640000604082015260600190565b6020808252602b908201527f566f74696e673a20796f75206861766520746f206c6f636b20796f757220746f60408201526a6b656e73206265666f726560a81b606082015260800190565b6020808252601f908201527f566f74696e673a20696e636f7272656374207570646174696e67206461746100604082015260600190565b602080825260169082015275566f74696e673a206f7574206f6620696e646578657360501b604082015260600190565b60208082526030908201527f416363657373436f6e74726f6c3a2073656e646572206d75737420626520616e60408201526f2061646d696e20746f207265766f6b6560801b606082015260800190565b60208082526018908201527f566f74696e673a20616c72656164792065786563757465640000000000000000604082015260600190565b6020808252818101527f4f776e61626c653a2063616c6c6572206973206e6f7420746865206f776e6572604082015260600190565b60208082526029908201527f566f74696e673a20766f74696e6720706572696f64206973206e6f742066696e6040820152681a5cda1959081e595d60ba1b606082015260800190565b60208082526022908201527f566f74696e673a20796f7520646f206e6f742068617665207065726d6973736960408201526137b760f11b606082015260800190565b602080825260139082015272566f74696e673a20656d707479207469746c6560681b604082015260600190565b60208082526027908201527f566f74696e673a20746869732070726f706f73616c206973206e6f742065786560408201526663757461626c6560c81b606082015260800190565b6020808252602f908201527f416363657373436f6e74726f6c3a2063616e206f6e6c792072656e6f756e636560408201526e103937b632b9903337b91039b2b63360891b606082015260800190565b60208082526021908201527f566f74696e673a20796f752073686f756c642073617920796561206f72206e616040820152607960f81b606082015260800190565b6000858252608060208301526151c96080830186614a40565b90506151d484615200565b8360408301526151e38361520a565b82606083015295945050505050565b918252602082015260400190565b60028110611d0457fe5b60058110611d0457fe5b60058110611d0457600080fdfea2646970667358221220fd7b092af265c47bc26100719180b0e837067e54346176ab47cb73c6e3321f1664736f6c63430006020033a8a1fd55aad9bd98e45291d680690c619e60f7931ecaeb384ba0bfb225cd25fe",
  "source": "// SPDX-License-Identifier: GPL-3.0\npragma solidity 0.6.2;\npragma experimental ABIEncoderV2;\n\nimport \"./Managing.sol\";\n\n\ncontract Voting is Managing {\n\n    enum ProposalType {\n        Native,\n        Multi\n    }\n\n    enum ProposalUpdater {\n        Nothing,\n        Inflation,\n        Vesting,\n        CreateProposal,\n        UpdateConfig\n    }\n\n    struct ProposalConfig {\n        uint quorumPct;\n        uint supportPct;\n    }\n\n    struct Proposal {\n        address creator;\n        string title;\n        string description;\n        ProposalType votingType;\n        ProposalUpdater votingUpdater;\n        string updateData;\n        uint quorumPct;\n        bool hasQuorum;\n        uint supportPct;\n        ProposalOption[] options;\n        uint expiryTime;\n        uint totalVotingPower;\n        uint voters;\n        bool executed;\n    }\n\n    struct ProposalInfo {\n        string title;\n        ProposalType votingType;\n        ProposalUpdater votingUpdater;\n        uint nay;\n        uint yea;\n        bool hasQuorum;\n        bool accepted;\n        uint expiryTime;\n    }\n\n    struct ProposalInfoConfig {\n        address creator;\n        uint quorumPct;\n        uint supportPct;\n        uint voters;\n        string updateData;\n        bool executed;\n    }\n\n    struct ProposalOption {\n        string name;\n        uint256 count;\n        uint256 weight;\n    }\n\n    struct GotVote {\n        uint option;\n        uint amount;\n    }\n\n    bool private _everyoneCreateProposal;\n    uint private _minAmountToCreate = 10000e6;\n    mapping (uint8 => ProposalConfig) private _proposalConfigs;\n\n    mapping (uint => Proposal) private _proposals;\n    mapping (address => mapping (uint => uint)) private _deposited;\n    mapping (address => mapping(uint => GotVote)) private _voted;\n    mapping (address => uint[]) private _holderActiveVotes;\n    uint private _countProposals;\n\n    event NewProposal(\n        uint indexed issueId,\n        address indexed creator,\n        ProposalType indexed votingType,\n        ProposalUpdater votingUpdater\n    );\n    event ExecProposal(uint indexed issueId, address indexed initialized);\n    event OnVote(uint indexed issueId, address indexed from, uint indexed option, uint weight);\n    event UpdatedProposalConfig(ProposalUpdater indexed updater, uint quorumPct, uint supportPct);\n\n    modifier canCreateProposals() {\n        if (hasRole(VOTING_ROLE, msg.sender) || hasRole(ADMIN_ROLE, msg.sender)) {\n            _;\n            return;\n        }\n        if (_everyoneCreateProposal) {\n            uint balance = _Token.balanceOf(msg.sender);\n            if (balance >= _minAmountToCreate) {\n                _;\n                return;\n            }\n        }\n        revert(\"Voting: you do not have permission\");\n    }\n\n    modifier hasProposal(uint id) {\n        require(id > 0 && id <= _countProposals, \"Voting: proposal does not exist\");\n        _;\n    }\n\n    constructor () public {\n        uint quorumPct = 20 * 1000;\n        uint supportPct = 50 * 1000 + 1;\n        _proposalConfigs[uint8(ProposalUpdater.Nothing)] = ProposalConfig(quorumPct, supportPct);\n        emit UpdatedProposalConfig(ProposalUpdater.Nothing, quorumPct, supportPct);\n        _proposalConfigs[uint8(ProposalUpdater.Inflation)] = ProposalConfig(quorumPct, supportPct);\n        emit UpdatedProposalConfig(ProposalUpdater.Inflation, quorumPct, supportPct);\n        _proposalConfigs[uint8(ProposalUpdater.Vesting)] = ProposalConfig(quorumPct, supportPct);\n        emit UpdatedProposalConfig(ProposalUpdater.Vesting, quorumPct, supportPct);\n        _proposalConfigs[uint8(ProposalUpdater.CreateProposal)] = ProposalConfig(quorumPct, supportPct);\n        emit UpdatedProposalConfig(ProposalUpdater.CreateProposal, quorumPct, supportPct);\n        _proposalConfigs[uint8(ProposalUpdater.UpdateConfig)] = ProposalConfig(quorumPct, supportPct);\n        emit UpdatedProposalConfig(ProposalUpdater.UpdateConfig, quorumPct, supportPct);\n    }\n\n    // VIEW\n\n    function isOpenProposals() external view returns (bool) {\n        return _everyoneCreateProposal;\n    }\n\n    function minAmountToCreate() external view returns (uint) {\n        return _minAmountToCreate;\n    }\n\n    function proposalConfigRates(ProposalUpdater conf) external view\n    returns (uint quorumPct, uint supportPct) {\n        quorumPct = _proposalConfigs[uint8(conf)].quorumPct;\n        supportPct = _proposalConfigs[uint8(conf)].supportPct;\n    }\n\n    function availableToCreateProposals(address account) external view returns (bool) {\n        if (hasRole(VOTING_ROLE, account) || hasRole(ADMIN_ROLE, account)) {\n            return true;\n        }\n        if (_everyoneCreateProposal) {\n            uint staked = _Token.lockedBalanceOf(account);\n            if (staked >= _minAmountToCreate) {\n                return true;\n            }\n        }\n        return false;\n    }\n\n    function depositedForProposal(address creator, uint issueId) external view\n    returns (uint)\n    {\n        return _deposited[creator][issueId];\n    }\n\n    function getNewestProposal() external view\n    returns (\n        uint issueId,\n        string memory title,\n        ProposalType votingType,\n        ProposalUpdater votingUpdater\n    ) {\n        issueId = _countProposals;\n        title = _proposals[issueId].title;\n        votingType = _proposals[issueId].votingType;\n        votingUpdater = _proposals[issueId].votingUpdater;\n    }\n\n    function countProposals() external view returns (uint) {\n        return _countProposals;\n    }\n\n    function issueDescription(uint256 issueId) external view\n    hasProposal(issueId)// override\n    returns (string memory) {\n        return _proposals[issueId].description;\n    }\n\n    function countOptions(uint issueId) external view\n    hasProposal(issueId)// override\n    returns (uint) {\n        return _proposals[issueId].options.length;\n    }\n\n    function optionName(uint issueId, uint option) external view\n    hasProposal(issueId)// override\n    returns (string memory) {\n        require(_proposals[issueId].options.length > option, \"Voting: out of indexes\");\n        return _proposals[issueId].options[option].name;\n    }\n\n    function optionInfo(uint issueId, uint option) external view\n    hasProposal(issueId)// override\n    returns (string memory name, uint256 count, uint256 weight) {\n        require(_proposals[issueId].options.length > option, \"Voting: out of indexes\");\n        ProposalOption storage opt = _proposals[issueId].options[option];\n        name = opt.name;\n        count = opt.count;\n        weight = opt.weight;\n    }\n\n    function ballotOf(uint issueId, address addr) external view\n    hasProposal(issueId)// override\n    returns (uint) {\n        return _voted[addr][issueId].option;\n    }\n\n    function weightOf(uint issueId, address addr) external view\n    hasProposal(issueId)// override\n    returns (uint) {\n        return _voted[addr][issueId].amount;\n    }\n\n    function weightedVoteCountsOf(uint issueId, uint option) external view\n    hasProposal(issueId)// override\n    returns (uint) {\n        return _proposals[issueId].options[option].count;\n    }\n\n    function proposalInfo(uint issueId) external view\n    returns (\n        string memory title,\n        ProposalType votingType,\n        ProposalUpdater votingUpdater,\n        uint nay,\n        uint yea,\n        bool hasQuorum,\n        bool accepted,\n        uint expiryTime\n    ) {\n        ProposalInfo memory info = _proposalInfo(issueId);\n        title = info.title;\n        votingType = info.votingType;\n        votingUpdater = info.votingUpdater;\n        nay = info.nay;\n        yea = info.yea;\n        hasQuorum = info.hasQuorum;\n        accepted = info.accepted;\n        expiryTime = info.expiryTime;\n    }\n\n    function proposalConfig(uint issueId) external view\n    returns (\n        address creator,\n        uint quorumPct,\n        uint supportPct,\n        uint voters,\n        string memory updateData,\n        bool executed\n    ) {\n        ProposalInfoConfig memory info = _proposalConfig(issueId);\n        creator = info.creator;\n        quorumPct = info.quorumPct;\n        supportPct = info.supportPct;\n        voters = info.voters;\n        updateData = info.updateData;\n        executed = info.executed;\n    }\n\n    // EXTERNAL\n\n    function createProposalAvailability(bool isAvailable, uint minStaked) external {\n        require(hasRole(VOTING_ROLE, msg.sender) || hasRole(ADMIN_ROLE, msg.sender), \"Voting: you do not have permission\");\n        _everyoneCreateProposal = isAvailable;\n        _minAmountToCreate = minStaked;\n    }\n\n    function newProposal(\n        string calldata title,\n        string calldata description,\n        uint expiryTime,\n        string calldata updateData,\n        ProposalUpdater votingUpdater\n    ) external canCreateProposals {\n        require(bytes(title).length > 0, \"Voting: empty title\");\n        require(expiryTime > _timestamp(), \"Voting: time must be bigger than current\");\n\n        _countProposals++;\n\n        _delegateTokens(_countProposals);\n\n        Proposal storage proposal = _proposals[_countProposals];\n        ProposalConfig memory conf = _proposalConfigs[uint8(votingUpdater)];\n\n        proposal.creator = msg.sender;\n        proposal.title = title;\n        proposal.description = description;\n        proposal.quorumPct = conf.quorumPct;\n        proposal.supportPct = conf.supportPct;\n        proposal.expiryTime = expiryTime;\n        proposal.votingType = ProposalType.Native;\n        proposal.votingUpdater = votingUpdater;\n\n        if (votingUpdater != ProposalUpdater.Nothing) {\n            require(updaterValidateData(votingUpdater, updateData), \"Voting: incorrect updating data\");\n            proposal.updateData = updateData;\n        }\n\n        proposal.options.push(ProposalOption('nay', 0, 0));\n        proposal.options.push(ProposalOption('yea', 0, 0));\n\n        emit NewProposal(_countProposals, msg.sender, ProposalType.Native, votingUpdater);\n    }\n\n    function newMultiProposal(\n        string calldata title,\n        string calldata description,\n        uint expiryTime,\n        string[] calldata options,\n        ProposalUpdater votingUpdater\n    ) external canCreateProposals {\n        require(bytes(title).length > 0, \"Voting: empty title\");\n        require(expiryTime > _timestamp(), \"Voting: time must be bigger than current\");\n        require(options.length > 1, \"Voting: must be at least two options\");\n\n        _countProposals++;\n\n        _delegateTokens(_countProposals);\n\n        Proposal storage proposal = _proposals[_countProposals];\n        ProposalConfig memory conf = _proposalConfigs[uint8(votingUpdater)];\n\n        proposal.creator = msg.sender;\n        proposal.title = title;\n        proposal.description = description;\n        proposal.quorumPct = conf.quorumPct;\n        proposal.supportPct = conf.supportPct;\n        proposal.expiryTime = expiryTime;\n        proposal.votingType = ProposalType.Multi;\n        proposal.votingUpdater = votingUpdater;\n\n        proposal.options.push(ProposalOption(\"Skip\", 0, 0));\n        for (uint i = 0; i < options.length; i++) {\n            if (votingUpdater != ProposalUpdater.Nothing) {\n                require(updaterValidateData(votingUpdater, options[i]), \"Voting: incorrect updating data\");\n            }\n            proposal.options.push(ProposalOption(options[i], 0, 0));\n        }\n\n        emit NewProposal(_countProposals, msg.sender, ProposalType.Multi, votingUpdater);\n    }\n\n    function vote(uint issueId, bytes4 option) external\n    hasProposal(issueId)// override\n    returns (bool) {\n        bytes4 yea = bytes4(\"yea\");\n        bytes4 nay = bytes4(\"nay\");\n        require(option == yea || option == nay, \"Voting: you should say yea or nay\");\n        require(_proposals[issueId].votingType == ProposalType.Native, \"Voting: please choose an option by index\");\n        uint optionId = 0;\n        if (option == yea) optionId = 1;\n        return _vote(issueId, optionId);\n    }\n\n    function vote(uint issueId, uint option) external\n    hasProposal(issueId)// override\n    returns (bool) {\n        Proposal memory proposal = _proposals[issueId];\n        require(proposal.options.length > option, \"Voting: out of indexes\");\n        return _vote(issueId, option);\n    }\n\n    function execProposal(uint issueId) external {\n\n        ProposalInfo memory info = _proposalInfo(issueId);\n\n        ProposalInfoConfig memory infoConfig = _proposalConfig(issueId);\n\n        require(infoConfig.creator == msg.sender || hasRole(VOTING_ROLE, msg.sender) || hasRole(ADMIN_ROLE, msg.sender), \"Voting: you do not have permission\");\n        require(info.votingUpdater != ProposalUpdater.Nothing, \"Voting: this proposal is not executable\");\n        require(info.expiryTime < _timestamp(), \"Voting: voting period is not finished yet\");\n        if (info.votingType == ProposalType.Native){\n            require(info.accepted, \"Voting: this proposal it not accepted\");\n        }\n        require(!infoConfig.executed, \"Voting: already executed\");\n\n        string memory updateData;\n        if (info.votingType == ProposalType.Multi) {\n            uint maxIndex;\n            uint maxWeight;\n            bool tie;\n            for (uint i = 0; i < _proposals[issueId].options.length; i++) {\n                ProposalOption memory option = _proposals[issueId].options[i];\n                if (option.weight > maxWeight) {\n                    maxIndex = i;\n                    maxWeight = option.weight;\n                    tie = false;\n                } else if (option.weight == maxWeight) {\n                    tie = true;\n                }\n            }\n            require(!tie && maxIndex > 0, \"Voting: no leading option\");\n            updateData = _proposals[issueId].options[maxIndex].name;\n        } else {\n            updateData = infoConfig.updateData;\n        }\n\n        if (info.votingUpdater == ProposalUpdater.Inflation) {\n            _Token.updateInflation(issueId, parseInt(updateData));\n        } else if (info.votingUpdater == ProposalUpdater.Vesting) {\n            _Token.updateVesting(issueId, parseInt(updateData));\n        } else if (info.votingUpdater == ProposalUpdater.CreateProposal) {\n            _minAmountToCreate = parseInt(updateData);\n        } else if (info.votingUpdater == ProposalUpdater.UpdateConfig) {\n            bytes memory _bytes = bytes(updateData);\n            bytes memory confId = new bytes(1);\n            bytes memory quorumPctBts = new bytes(6);\n            bytes memory supportPctBts = new bytes(6);\n            require(_bytes.length == 13);\n            for(uint i = 0; i < _bytes.length; i++){\n                if (i < 1) {\n                    confId[0] = _bytes[0];\n                } else if (i < 7) {\n                    quorumPctBts[i - 1] = _bytes[i];\n                } else {\n                    supportPctBts[i - 7] = _bytes[i];\n                }\n            }\n            uint256 quorumPct = parseInt(string(quorumPctBts));\n            uint256 supportPct = parseInt(string(supportPctBts));\n            _proposalConfigs[uint8(parseInt(string(confId)))] = ProposalConfig(quorumPct, supportPct);\n        }\n\n        _proposals[issueId].executed = true;\n\n        emit ExecProposal(issueId, msg.sender);\n    }\n\n    function redeemDepositFromProposal(uint issueId) external\n    hasProposal(issueId)\n    {\n        ProposalInfo memory info = _proposalInfo(issueId);\n\n        ProposalInfoConfig memory infoConfig = _proposalConfig(issueId);\n\n        require(infoConfig.creator == msg.sender, \"Voting: you do not have permission\");\n        require(info.expiryTime < _timestamp(), \"Voting: voting period is not finished yet\");\n        if (info.votingType == ProposalType.Native){\n            require(info.accepted, \"Voting: this proposal it not accepted\");\n        }\n        require(_deposited[msg.sender][issueId] > 0, \"Voting: empty deposit\");\n\n        _redeemTokens(issueId);\n    }\n\n    // TOKEN ONLY\n\n    function updatedStake(address holder) external {\n        require(msg.sender == address(_Token));\n        uint[] memory list = _holderActiveVotes[holder];\n        if (list.length == 0) return;\n        uint supply = _Token.lockedSupply();\n        uint tokens = _Token.lockedBalanceOf(holder);\n        uint[] memory resetList;\n        uint newIndex;\n        for (uint i; i < list.length; i++) {\n            uint issueId = list[i];\n            Proposal storage proposal = _proposals[issueId];\n            if (proposal.expiryTime < _timestamp()) continue;\n            GotVote storage aVote = _voted[holder][issueId];\n            if (tokens == 0) {\n                proposal.voters--;\n                proposal.totalVotingPower -= aVote.amount;\n                proposal.options[aVote.option].weight -= aVote.amount;\n                proposal.options[aVote.option].count--;\n                aVote.amount = 0;\n                proposal.hasQuorum = proposal.totalVotingPower * 100000 / supply >= proposal.quorumPct;\n                continue;\n            }\n            if (aVote.amount > tokens) {\n                proposal.options[aVote.option].weight -= aVote.amount - tokens;\n            } else {\n                proposal.options[aVote.option].weight += tokens - aVote.amount;\n            }\n            aVote.amount = tokens;\n            proposal.hasQuorum = proposal.totalVotingPower * 100000 / supply >= proposal.quorumPct;\n            resetList[newIndex] = issueId;\n            newIndex++;\n        }\n        _holderActiveVotes[holder] = resetList;\n    }\n\n    // PUBLIC UTILS\n\n    function parseInt(\n        string memory _value\n    ) public pure returns (uint _ret) {\n        bytes memory _bytesValue = bytes(_value);\n        uint j = 1;\n        for(uint i = _bytesValue.length-1; i >= 0 && i < _bytesValue.length; i--) {\n            assert(uint8(_bytesValue[i]) >= 48 && uint8(_bytesValue[i]) <= 57);\n            _ret += (uint8(_bytesValue[i]) - 48)*j;\n            j*=10;\n        }\n    }\n\n    function updaterValidateData(\n        ProposalUpdater votingUpdater,\n        string memory updateData\n    ) public pure returns (bool) {\n        if (votingUpdater == ProposalUpdater.Nothing) return true;\n        if (votingUpdater == ProposalUpdater.Inflation) {\n            uint value = parseInt(updateData);\n            return value >= 200 && value < 3000;\n        } else if (votingUpdater == ProposalUpdater.Vesting) {\n            uint value = parseInt(updateData);\n            return value >= 10 && value <= 90;\n        } else if (votingUpdater == ProposalUpdater.CreateProposal) {\n            uint value = parseInt(updateData);\n            return value > 0;\n        } else if (votingUpdater == ProposalUpdater.UpdateConfig) {\n            bytes memory _bytes = bytes(updateData);\n            require(_bytes.length == 13);\n            bytes memory confId = new bytes(1);\n            bytes memory quorumPctBts = new bytes(6);\n            bytes memory supportPctBts = new bytes(6);\n            for(uint i = 0; i < _bytes.length; i++){\n                if (i < 1) {\n                    confId[0] = _bytes[0];\n                } else if (i < 7) {\n                    quorumPctBts[i - 1] = _bytes[i];\n                } else {\n                    supportPctBts[i - 7] = _bytes[i];\n                }\n            }\n            uint quorumPct = parseInt(string(quorumPctBts));\n            uint supportPct = parseInt(string(supportPctBts));\n            bool res = quorumPct > 0 && quorumPct <= 100*1000;\n            res = res && supportPct > 0 && supportPct <= 100*1000;\n            res = res && uint8(parseInt(string(confId))) <= uint8(ProposalUpdater.UpdateConfig);\n            return res;\n        }\n        return false;\n    }\n\n    // INTERNAL\n\n    function _proposalInfo(uint issueId) internal view\n    hasProposal(issueId)\n    returns (\n        ProposalInfo memory info\n    ) {\n        Proposal memory proposal = _proposals[issueId];\n\n        info.title = proposal.title;\n        info.votingType = proposal.votingType;\n        info.votingUpdater = proposal.votingUpdater;\n        info.expiryTime = proposal.expiryTime;\n        info.hasQuorum = proposal.hasQuorum;\n\n        if(info.votingType == ProposalType.Native){\n            info.nay = proposal.options[0].weight;\n            info.yea = proposal.options[1].weight;\n            if (info.expiryTime < _timestamp() && info.hasQuorum) {\n                info.accepted = proposal.supportPct <= (info.yea * 100000 / proposal.totalVotingPower);\n            } else {\n                info.accepted = false;\n            }\n        } else {\n            if (info.expiryTime < _timestamp() && info.hasQuorum) {\n                uint maxIndex;\n                uint maxWeight;\n                bool tie;\n                for (uint i = 0; i < proposal.options.length; i++) {\n                    ProposalOption memory option = proposal.options[i];\n                    if (option.weight > maxWeight) {\n                        maxIndex = i;\n                        maxWeight = option.weight;\n                        tie = false;\n                    } else if (option.weight == maxWeight) {\n                        tie = true;\n                    }\n                }\n                info.accepted = !tie && maxIndex > 0;\n            } else {\n                info.accepted = false;\n            }\n        }\n    }\n\n    function _proposalConfig(uint issueId) internal view\n    hasProposal(issueId)\n    returns (\n        ProposalInfoConfig memory info\n    ) {\n        Proposal memory proposal = _proposals[issueId];\n\n        info.creator = proposal.creator;\n        info.quorumPct = proposal.quorumPct;\n        info.supportPct = proposal.supportPct;\n        info.voters = proposal.voters;\n        info.updateData = proposal.updateData;\n        info.executed = proposal.executed;\n    }\n\n    // PRIVATE\n\n    function _vote(uint issueId, uint option) private\n    hasProposal(issueId)\n    returns (bool)\n    {\n        Proposal storage proposal = _proposals[issueId];\n        if (proposal.expiryTime < _timestamp()) return false;\n        address sender = msg.sender;\n        uint256 tokens = _Token.lockedBalanceOf(sender);\n        require(tokens > 0, \"Voting: you have to lock your tokens before\");\n        require(_voted[sender][issueId].amount == 0, \"Voting: you have already voted\");\n\n        _voted[sender][issueId] = GotVote(option, tokens);\n\n        proposal.voters++;\n        proposal.totalVotingPower += tokens;\n        proposal.options[option].count++;\n        proposal.options[option].weight += tokens;\n\n        if (!proposal.hasQuorum) {\n            uint quorumRctNow = proposal.totalVotingPower * 100000 / _Token.lockedSupply();\n\n            if (quorumRctNow >= proposal.quorumPct) {\n                proposal.hasQuorum = true;\n            }\n        }\n\n        _holderActiveVotes[msg.sender].push(issueId);\n\n        emit OnVote(issueId, sender, option, tokens);\n\n        return true;\n    }\n\n    function _delegateTokens(uint issueId) private {\n        if (hasRole(VOTING_ROLE, msg.sender) || hasRole(ADMIN_ROLE, msg.sender)) return;\n        _deposited[msg.sender][issueId] = _minAmountToCreate;\n        _Token.delegateToDAO(msg.sender, _minAmountToCreate);\n    }\n\n    function _redeemTokens(uint issueId) private {\n        if (hasRole(VOTING_ROLE, msg.sender) || hasRole(ADMIN_ROLE, msg.sender)) return;\n        _Token.redeemFromDAO(msg.sender, _deposited[msg.sender][issueId]);\n        _deposited[msg.sender][issueId] = 0;\n    }\n\n}\n",
  "sourcePath": "/home/pirat/Desktop/DAO/contracts/DAO/Voting.sol",
  "compiler": {
    "name": "solc",
    "version": "0.6.2+commit.bacdbe57.Emscripten.clang"
  },
  "schemaVersion": "3.2.5",
  "updatedAt": "2021-06-17T16:05:32.792Z",
  "devdoc": {
    "methods": {
      "getRoleAdmin(bytes32)": {
        "details": "Returns the admin role that controls `role`. See {grantRole} and {revokeRole}.     * To change a role's admin, use {_setRoleAdmin}."
      },
      "getRoleMember(bytes32,uint256)": {
        "details": "Returns one of the accounts that have `role`. `index` must be a value between 0 and {getRoleMemberCount}, non-inclusive.     * Role bearers are not sorted in any particular way, and their ordering may change at any point.     * WARNING: When using {getRoleMember} and {getRoleMemberCount}, make sure you perform all queries on the same block. See the following https://forum.openzeppelin.com/t/iterating-over-elements-on-enumerableset-in-openzeppelin-contracts/2296[forum post] for more information."
      },
      "getRoleMemberCount(bytes32)": {
        "details": "Returns the number of accounts that have `role`. Can be used together with {getRoleMember} to enumerate all bearers of a role."
      },
      "grantRole(bytes32,address)": {
        "details": "Grants `role` to `account`.     * If `account` had not been already granted `role`, emits a {RoleGranted} event.     * Requirements:     * - the caller must have ``role``'s admin role."
      },
      "hasRole(bytes32,address)": {
        "details": "Returns `true` if `account` has been granted `role`."
      },
      "owner()": {
        "details": "Returns the address of the current owner."
      },
      "renounceOwnership()": {
        "details": "Leaves the contract without owner. It will not be possible to call `onlyOwner` functions anymore. Can only be called by the current owner.     * NOTE: Renouncing ownership will leave the contract without an owner, thereby removing any functionality that is only available to the owner."
      },
      "renounceRole(bytes32,address)": {
        "details": "Revokes `role` from the calling account.     * Roles are often managed via {grantRole} and {revokeRole}: this function's purpose is to provide a mechanism for accounts to lose their privileges if they are compromised (such as when a trusted device is misplaced).     * If the calling account had been granted `role`, emits a {RoleRevoked} event.     * Requirements:     * - the caller must be `account`."
      },
      "revokeRole(bytes32,address)": {
        "details": "Revokes `role` from `account`.     * If `account` had been granted `role`, emits a {RoleRevoked} event.     * Requirements:     * - the caller must have ``role``'s admin role."
      },
      "transferOwnership(address)": {
        "details": "Transfers ownership of the contract to a new account (`newOwner`). Can only be called by the current owner."
      }
    }
  },
  "userdoc": {
    "methods": {}
  }
}