{
  "contractName": "Voting",
  "abi": [
    {
      "inputs": [],
      "stateMutability": "nonpayable",
      "type": "constructor"
    },
    {
      "anonymous": false,
      "inputs": [
        {
          "indexed": true,
          "internalType": "uint256",
          "name": "issueId",
          "type": "uint256"
        },
        {
          "indexed": true,
          "internalType": "enum Voting.ProposalUpdater",
          "name": "category",
          "type": "uint8"
        },
        {
          "indexed": true,
          "internalType": "address",
          "name": "initialized",
          "type": "address"
        }
      ],
      "name": "ExecProposal",
      "type": "event"
    },
    {
      "anonymous": false,
      "inputs": [
        {
          "indexed": true,
          "internalType": "uint256",
          "name": "issueId",
          "type": "uint256"
        },
        {
          "indexed": true,
          "internalType": "address",
          "name": "creator",
          "type": "address"
        },
        {
          "indexed": true,
          "internalType": "enum Voting.ProposalType",
          "name": "votingType",
          "type": "uint8"
        },
        {
          "indexed": false,
          "internalType": "enum Voting.ProposalUpdater",
          "name": "votingUpdater",
          "type": "uint8"
        }
      ],
      "name": "NewProposal",
      "type": "event"
    },
    {
      "anonymous": false,
      "inputs": [
        {
          "indexed": true,
          "internalType": "uint256",
          "name": "issueId",
          "type": "uint256"
        },
        {
          "indexed": true,
          "internalType": "address",
          "name": "from",
          "type": "address"
        },
        {
          "indexed": true,
          "internalType": "uint256",
          "name": "option",
          "type": "uint256"
        },
        {
          "indexed": false,
          "internalType": "uint256",
          "name": "weight",
          "type": "uint256"
        }
      ],
      "name": "OnVote",
      "type": "event"
    },
    {
      "anonymous": false,
      "inputs": [
        {
          "indexed": true,
          "internalType": "address",
          "name": "previousOwner",
          "type": "address"
        },
        {
          "indexed": true,
          "internalType": "address",
          "name": "newOwner",
          "type": "address"
        }
      ],
      "name": "OwnershipTransferred",
      "type": "event"
    },
    {
      "anonymous": false,
      "inputs": [
        {
          "indexed": true,
          "internalType": "bytes32",
          "name": "role",
          "type": "bytes32"
        },
        {
          "indexed": true,
          "internalType": "bytes32",
          "name": "previousAdminRole",
          "type": "bytes32"
        },
        {
          "indexed": true,
          "internalType": "bytes32",
          "name": "newAdminRole",
          "type": "bytes32"
        }
      ],
      "name": "RoleAdminChanged",
      "type": "event"
    },
    {
      "anonymous": false,
      "inputs": [
        {
          "indexed": true,
          "internalType": "bytes32",
          "name": "role",
          "type": "bytes32"
        },
        {
          "indexed": true,
          "internalType": "address",
          "name": "account",
          "type": "address"
        },
        {
          "indexed": true,
          "internalType": "address",
          "name": "sender",
          "type": "address"
        }
      ],
      "name": "RoleGranted",
      "type": "event"
    },
    {
      "anonymous": false,
      "inputs": [
        {
          "indexed": true,
          "internalType": "bytes32",
          "name": "role",
          "type": "bytes32"
        },
        {
          "indexed": true,
          "internalType": "address",
          "name": "account",
          "type": "address"
        },
        {
          "indexed": true,
          "internalType": "address",
          "name": "sender",
          "type": "address"
        }
      ],
      "name": "RoleRevoked",
      "type": "event"
    },
    {
      "anonymous": false,
      "inputs": [
        {
          "indexed": false,
          "internalType": "bool",
          "name": "isAvailable",
          "type": "bool"
        },
        {
          "indexed": false,
          "internalType": "uint256",
          "name": "minStaked",
          "type": "uint256"
        }
      ],
      "name": "SetProposalAvailability",
      "type": "event"
    },
    {
      "anonymous": false,
      "inputs": [
        {
          "indexed": true,
          "internalType": "enum Voting.ProposalUpdater",
          "name": "updater",
          "type": "uint8"
        },
        {
          "indexed": false,
          "internalType": "uint256",
          "name": "quorumPct",
          "type": "uint256"
        },
        {
          "indexed": false,
          "internalType": "uint256",
          "name": "supportPct",
          "type": "uint256"
        }
      ],
      "name": "UpdatedProposalConfig",
      "type": "event"
    },
    {
      "inputs": [],
      "name": "ADMIN_ROLE",
      "outputs": [
        {
          "internalType": "bytes32",
          "name": "",
          "type": "bytes32"
        }
      ],
      "stateMutability": "view",
      "type": "function"
    },
    {
      "inputs": [],
      "name": "DEFAULT_ADMIN_ROLE",
      "outputs": [
        {
          "internalType": "bytes32",
          "name": "",
          "type": "bytes32"
        }
      ],
      "stateMutability": "view",
      "type": "function"
    },
    {
      "inputs": [],
      "name": "VOTING_ROLE",
      "outputs": [
        {
          "internalType": "bytes32",
          "name": "",
          "type": "bytes32"
        }
      ],
      "stateMutability": "view",
      "type": "function"
    },
    {
      "inputs": [
        {
          "internalType": "address",
          "name": "account",
          "type": "address"
        }
      ],
      "name": "addAdmin",
      "outputs": [],
      "stateMutability": "nonpayable",
      "type": "function"
    },
    {
      "inputs": [
        {
          "internalType": "bytes32",
          "name": "role",
          "type": "bytes32"
        }
      ],
      "name": "getRoleAdmin",
      "outputs": [
        {
          "internalType": "bytes32",
          "name": "",
          "type": "bytes32"
        }
      ],
      "stateMutability": "view",
      "type": "function"
    },
    {
      "inputs": [
        {
          "internalType": "bytes32",
          "name": "role",
          "type": "bytes32"
        },
        {
          "internalType": "uint256",
          "name": "index",
          "type": "uint256"
        }
      ],
      "name": "getRoleMember",
      "outputs": [
        {
          "internalType": "address",
          "name": "",
          "type": "address"
        }
      ],
      "stateMutability": "view",
      "type": "function"
    },
    {
      "inputs": [
        {
          "internalType": "bytes32",
          "name": "role",
          "type": "bytes32"
        }
      ],
      "name": "getRoleMemberCount",
      "outputs": [
        {
          "internalType": "uint256",
          "name": "",
          "type": "uint256"
        }
      ],
      "stateMutability": "view",
      "type": "function"
    },
    {
      "inputs": [
        {
          "internalType": "bytes32",
          "name": "role",
          "type": "bytes32"
        },
        {
          "internalType": "address",
          "name": "account",
          "type": "address"
        }
      ],
      "name": "grantRole",
      "outputs": [],
      "stateMutability": "nonpayable",
      "type": "function"
    },
    {
      "inputs": [
        {
          "internalType": "bytes32",
          "name": "role",
          "type": "bytes32"
        },
        {
          "internalType": "address",
          "name": "account",
          "type": "address"
        }
      ],
      "name": "hasRole",
      "outputs": [
        {
          "internalType": "bool",
          "name": "",
          "type": "bool"
        }
      ],
      "stateMutability": "view",
      "type": "function"
    },
    {
      "inputs": [],
      "name": "owner",
      "outputs": [
        {
          "internalType": "address",
          "name": "",
          "type": "address"
        }
      ],
      "stateMutability": "view",
      "type": "function"
    },
    {
      "inputs": [],
      "name": "renounceOwnership",
      "outputs": [],
      "stateMutability": "nonpayable",
      "type": "function"
    },
    {
      "inputs": [
        {
          "internalType": "bytes32",
          "name": "role",
          "type": "bytes32"
        },
        {
          "internalType": "address",
          "name": "account",
          "type": "address"
        }
      ],
      "name": "renounceRole",
      "outputs": [],
      "stateMutability": "nonpayable",
      "type": "function"
    },
    {
      "inputs": [
        {
          "internalType": "bytes32",
          "name": "role",
          "type": "bytes32"
        },
        {
          "internalType": "address",
          "name": "account",
          "type": "address"
        }
      ],
      "name": "revokeRole",
      "outputs": [],
      "stateMutability": "nonpayable",
      "type": "function"
    },
    {
      "inputs": [
        {
          "internalType": "address",
          "name": "newOwner",
          "type": "address"
        }
      ],
      "name": "transferOwnership",
      "outputs": [],
      "stateMutability": "nonpayable",
      "type": "function"
    },
    {
      "inputs": [],
      "name": "isOpenProposals",
      "outputs": [
        {
          "internalType": "bool",
          "name": "",
          "type": "bool"
        }
      ],
      "stateMutability": "view",
      "type": "function"
    },
    {
      "inputs": [],
      "name": "minAmountToCreate",
      "outputs": [
        {
          "internalType": "uint256",
          "name": "",
          "type": "uint256"
        }
      ],
      "stateMutability": "view",
      "type": "function"
    },
    {
      "inputs": [],
      "name": "executionTime",
      "outputs": [
        {
          "internalType": "uint256",
          "name": "",
          "type": "uint256"
        }
      ],
      "stateMutability": "view",
      "type": "function"
    },
    {
      "inputs": [
        {
          "internalType": "enum Voting.ProposalUpdater",
          "name": "conf",
          "type": "uint8"
        }
      ],
      "name": "proposalConfigRates",
      "outputs": [
        {
          "internalType": "uint256",
          "name": "quorumPct",
          "type": "uint256"
        },
        {
          "internalType": "uint256",
          "name": "supportPct",
          "type": "uint256"
        }
      ],
      "stateMutability": "view",
      "type": "function"
    },
    {
      "inputs": [
        {
          "internalType": "address",
          "name": "account",
          "type": "address"
        }
      ],
      "name": "availableToCreateProposals",
      "outputs": [
        {
          "internalType": "bool",
          "name": "",
          "type": "bool"
        }
      ],
      "stateMutability": "view",
      "type": "function"
    },
    {
      "inputs": [
        {
          "internalType": "address",
          "name": "creator",
          "type": "address"
        },
        {
          "internalType": "uint256",
          "name": "issueId",
          "type": "uint256"
        }
      ],
      "name": "depositedForProposal",
      "outputs": [
        {
          "internalType": "uint256",
          "name": "",
          "type": "uint256"
        }
      ],
      "stateMutability": "view",
      "type": "function"
    },
    {
      "inputs": [],
      "name": "getNewestProposal",
      "outputs": [
        {
          "internalType": "uint256",
          "name": "issueId",
          "type": "uint256"
        },
        {
          "internalType": "string",
          "name": "title",
          "type": "string"
        },
        {
          "internalType": "enum Voting.ProposalType",
          "name": "votingType",
          "type": "uint8"
        },
        {
          "internalType": "enum Voting.ProposalUpdater",
          "name": "votingUpdater",
          "type": "uint8"
        }
      ],
      "stateMutability": "view",
      "type": "function"
    },
    {
      "inputs": [],
      "name": "countProposals",
      "outputs": [
        {
          "internalType": "uint256",
          "name": "",
          "type": "uint256"
        }
      ],
      "stateMutability": "view",
      "type": "function"
    },
    {
      "inputs": [
        {
          "internalType": "uint256",
          "name": "issueId",
          "type": "uint256"
        }
      ],
      "name": "issueDescription",
      "outputs": [
        {
          "internalType": "string",
          "name": "",
          "type": "string"
        }
      ],
      "stateMutability": "view",
      "type": "function"
    },
    {
      "inputs": [
        {
          "internalType": "uint256",
          "name": "issueId",
          "type": "uint256"
        }
      ],
      "name": "countOptions",
      "outputs": [
        {
          "internalType": "uint256",
          "name": "",
          "type": "uint256"
        }
      ],
      "stateMutability": "view",
      "type": "function"
    },
    {
      "inputs": [
        {
          "internalType": "uint256",
          "name": "issueId",
          "type": "uint256"
        },
        {
          "internalType": "uint256",
          "name": "option",
          "type": "uint256"
        }
      ],
      "name": "optionName",
      "outputs": [
        {
          "internalType": "string",
          "name": "",
          "type": "string"
        }
      ],
      "stateMutability": "view",
      "type": "function"
    },
    {
      "inputs": [
        {
          "internalType": "uint256",
          "name": "issueId",
          "type": "uint256"
        },
        {
          "internalType": "uint256",
          "name": "option",
          "type": "uint256"
        }
      ],
      "name": "optionInfo",
      "outputs": [
        {
          "internalType": "string",
          "name": "name",
          "type": "string"
        },
        {
          "internalType": "uint256",
          "name": "count",
          "type": "uint256"
        },
        {
          "internalType": "uint256",
          "name": "weight",
          "type": "uint256"
        }
      ],
      "stateMutability": "view",
      "type": "function"
    },
    {
      "inputs": [
        {
          "internalType": "uint256",
          "name": "issueId",
          "type": "uint256"
        },
        {
          "internalType": "address",
          "name": "addr",
          "type": "address"
        }
      ],
      "name": "ballotOf",
      "outputs": [
        {
          "internalType": "uint256",
          "name": "",
          "type": "uint256"
        }
      ],
      "stateMutability": "view",
      "type": "function"
    },
    {
      "inputs": [
        {
          "internalType": "uint256",
          "name": "issueId",
          "type": "uint256"
        },
        {
          "internalType": "address",
          "name": "addr",
          "type": "address"
        }
      ],
      "name": "weightOf",
      "outputs": [
        {
          "internalType": "uint256",
          "name": "",
          "type": "uint256"
        }
      ],
      "stateMutability": "view",
      "type": "function"
    },
    {
      "inputs": [
        {
          "internalType": "uint256",
          "name": "issueId",
          "type": "uint256"
        },
        {
          "internalType": "uint256",
          "name": "option",
          "type": "uint256"
        }
      ],
      "name": "weightedVoteCountsOf",
      "outputs": [
        {
          "internalType": "uint256",
          "name": "",
          "type": "uint256"
        }
      ],
      "stateMutability": "view",
      "type": "function"
    },
    {
      "inputs": [
        {
          "internalType": "uint256",
          "name": "issueId",
          "type": "uint256"
        }
      ],
      "name": "proposalInfo",
      "outputs": [
        {
          "internalType": "string",
          "name": "title",
          "type": "string"
        },
        {
          "internalType": "enum Voting.ProposalType",
          "name": "votingType",
          "type": "uint8"
        },
        {
          "internalType": "enum Voting.ProposalUpdater",
          "name": "votingUpdater",
          "type": "uint8"
        },
        {
          "internalType": "uint256",
          "name": "nay",
          "type": "uint256"
        },
        {
          "internalType": "uint256",
          "name": "yea",
          "type": "uint256"
        },
        {
          "internalType": "uint256",
          "name": "totalVotingPower",
          "type": "uint256"
        },
        {
          "internalType": "bool",
          "name": "hasQuorum",
          "type": "bool"
        },
        {
          "internalType": "bool",
          "name": "accepted",
          "type": "bool"
        },
        {
          "internalType": "uint256",
          "name": "expiryTime",
          "type": "uint256"
        }
      ],
      "stateMutability": "view",
      "type": "function"
    },
    {
      "inputs": [
        {
          "internalType": "uint256",
          "name": "issueId",
          "type": "uint256"
        }
      ],
      "name": "proposalConfig",
      "outputs": [
        {
          "internalType": "address",
          "name": "creator",
          "type": "address"
        },
        {
          "internalType": "uint256",
          "name": "quorumPct",
          "type": "uint256"
        },
        {
          "internalType": "uint256",
          "name": "supportPct",
          "type": "uint256"
        },
        {
          "internalType": "uint256",
          "name": "voters",
          "type": "uint256"
        },
        {
          "internalType": "string",
          "name": "updateData",
          "type": "string"
        },
        {
          "internalType": "bool",
          "name": "executed",
          "type": "bool"
        }
      ],
      "stateMutability": "view",
      "type": "function"
    },
    {
      "inputs": [
        {
          "internalType": "bool",
          "name": "isAvailable",
          "type": "bool"
        },
        {
          "internalType": "uint256",
          "name": "minStaked",
          "type": "uint256"
        }
      ],
      "name": "createProposalAvailability",
      "outputs": [],
      "stateMutability": "nonpayable",
      "type": "function"
    },
    {
      "inputs": [
        {
          "internalType": "string",
          "name": "title",
          "type": "string"
        },
        {
          "internalType": "string",
          "name": "description",
          "type": "string"
        },
        {
          "internalType": "uint256",
          "name": "expiryTime",
          "type": "uint256"
        },
        {
          "internalType": "string",
          "name": "updateData",
          "type": "string"
        },
        {
          "internalType": "enum Voting.ProposalUpdater",
          "name": "votingUpdater",
          "type": "uint8"
        }
      ],
      "name": "newProposal",
      "outputs": [],
      "stateMutability": "nonpayable",
      "type": "function"
    },
    {
      "inputs": [
        {
          "internalType": "string",
          "name": "title",
          "type": "string"
        },
        {
          "internalType": "string",
          "name": "description",
          "type": "string"
        },
        {
          "internalType": "uint256",
          "name": "expiryTime",
          "type": "uint256"
        },
        {
          "internalType": "string[]",
          "name": "options",
          "type": "string[]"
        },
        {
          "internalType": "enum Voting.ProposalUpdater",
          "name": "votingUpdater",
          "type": "uint8"
        }
      ],
      "name": "newMultiProposal",
      "outputs": [],
      "stateMutability": "nonpayable",
      "type": "function"
    },
    {
      "inputs": [
        {
          "internalType": "uint256",
          "name": "issueId",
          "type": "uint256"
        },
        {
          "internalType": "bytes4",
          "name": "option",
          "type": "bytes4"
        }
      ],
      "name": "vote",
      "outputs": [
        {
          "internalType": "bool",
          "name": "",
          "type": "bool"
        }
      ],
      "stateMutability": "nonpayable",
      "type": "function"
    },
    {
      "inputs": [
        {
          "internalType": "uint256",
          "name": "issueId",
          "type": "uint256"
        },
        {
          "internalType": "uint256",
          "name": "option",
          "type": "uint256"
        }
      ],
      "name": "vote",
      "outputs": [
        {
          "internalType": "bool",
          "name": "",
          "type": "bool"
        }
      ],
      "stateMutability": "nonpayable",
      "type": "function"
    },
    {
      "inputs": [
        {
          "internalType": "uint256",
          "name": "issueId",
          "type": "uint256"
        }
      ],
      "name": "execProposal",
      "outputs": [],
      "stateMutability": "nonpayable",
      "type": "function"
    },
    {
      "inputs": [
        {
          "internalType": "uint256",
          "name": "issueId",
          "type": "uint256"
        }
      ],
      "name": "redeemDepositFromProposal",
      "outputs": [],
      "stateMutability": "nonpayable",
      "type": "function"
    },
    {
      "inputs": [],
      "name": "burnLostTokens",
      "outputs": [],
      "stateMutability": "nonpayable",
      "type": "function"
    },
    {
      "inputs": [
        {
          "internalType": "address",
          "name": "holder",
          "type": "address"
        }
      ],
      "name": "updatedStake",
      "outputs": [],
      "stateMutability": "nonpayable",
      "type": "function"
    },
    {
      "inputs": [
        {
          "internalType": "string",
          "name": "_value",
          "type": "string"
        }
      ],
      "name": "parseInt",
      "outputs": [
        {
          "internalType": "uint256",
          "name": "_ret",
          "type": "uint256"
        }
      ],
      "stateMutability": "pure",
      "type": "function"
    },
    {
      "inputs": [
        {
          "internalType": "enum Voting.ProposalUpdater",
          "name": "votingUpdater",
          "type": "uint8"
        },
        {
          "internalType": "string",
          "name": "updateData",
          "type": "string"
        }
      ],
      "name": "updaterValidateData",
      "outputs": [
        {
          "internalType": "bool",
          "name": "",
          "type": "bool"
        }
      ],
      "stateMutability": "pure",
      "type": "function"
    }
  ],
  "bytecode": "0x60806040526402540be40060035562278d006004553480156200002157600080fd5b506000620000376001600160e01b036200044e16565b600080546001600160a01b0319166001600160a01b0383169081178255604051929350917f8be0079c531659141344cd1fd0a4f28419497f9722a3daafe3b4186f6b6457e0908290a350620000c16040516200009390620004bb565b6040518091039020604051620000a990620004bb565b6040519081900390206001600160e01b036200045216565b620000d36040516200009390620004a4565b604080518082018252614e2080825261c35160208084018281526000808052600590925293517f05b8ccbb9d4d8fb16ea74ce3c29a41f1b461fbdaff4714a0d9a8eb05499746bc5592517f05b8ccbb9d4d8fb16ea74ce3c29a41f1b461fbdaff4714a0d9a8eb05499746bd5592519092919060008051602062005e3583398151915290620001659085908590620004d1565b60405180910390a2604080518082018252838152602080820184815260016000819052600590925291517f1471eb6eb2c5e789fc3de43f8ce62938c7d1836ec861730447e2ada8fd81017b5590517f1471eb6eb2c5e789fc3de43f8ce62938c7d1836ec861730447e2ada8fd81017c55905160008051602062005e3583398151915290620001f79085908590620004d1565b60405180910390a2604080518082018252838152602080820184815260026000819052600590925291517f89832631fb3c3307a103ba2c84ab569c64d6182a18893dcd163f0f1c2090733a5590517f89832631fb3c3307a103ba2c84ab569c64d6182a18893dcd163f0f1c2090733b55905160008051602062005e3583398151915290620002899085908590620004d1565b60405180910390a2604080518082018252838152602080820184815260036000819052600590925291517fa9bc9a3a348c357ba16b37005d7e6b3236198c0e939f4af8c5f19b8deeb8ebc05590517fa9bc9a3a348c357ba16b37005d7e6b3236198c0e939f4af8c5f19b8deeb8ebc155905160008051602062005e35833981519152906200031b9085908590620004d1565b60405180910390a2604080518082018252838152602080820184815260046000819052600590925291517f3eec716f11ba9e820c81ca75eb978ffb45831ef8b7a53e5e422c26008e1ca6d55590517f3eec716f11ba9e820c81ca75eb978ffb45831ef8b7a53e5e422c26008e1ca6d655905160008051602062005e3583398151915290620003ad9085908590620004d1565b60405180910390a26040805180820182528381526020808201848152600560008190529182905291517f458b30c2d72bfd2c6317304a4594ecbafe5f729d3111b65fdc3a33bd48e5432d5590517f458b30c2d72bfd2c6317304a4594ecbafe5f729d3111b65fdc3a33bd48e5432e55905160008051602062005e35833981519152906200043e9085908590620004d1565b60405180910390a25050620004df565b3390565b600082815260016020526040808220600201549051839285917fbd79b86ffe0ab8e8776151514217cd7cacd52c909f66475c3af44e129f0b00ff9190a460009182526001602052604090912060020155565b6a564f54494e475f524f4c4560a81b8152600b0190565b6941444d494e5f524f4c4560b01b8152600a0190565b918252602082015260400190565b61594680620004ef6000396000f3fe608060405234801561001057600080fd5b506004361061025d5760003560e01c806375b238fc11610146578063ae092e89116100c3578063e0136a7911610087578063e0136a7914610520578063eaac697a14610538578063f0464a2b1461054b578063f2fde38b1461055e578063f3da049e14610571578063f6621dc3146105795761025d565b8063ae092e89146104b7578063b384abef146104df578063c9c3d42e146104f2578063ca15c873146104fa578063d547741f1461050d5761025d565b806391d148541161010a57806391d1485414610463578063933c1306146104765780639d91cf9a14610489578063a1629f921461049c578063a217fddf146104af5761025d565b806375b238fc14610418578063761bbd8a146104205780638935ced5146104285780638da5cb5b1461043b5780639010d07c146104505761025d565b806346c6211e116101df57806353c2d479116101a357806353c2d479146103b15780636e6a1dc3146103c45780636f963fa1146103d757806370480275146103ea57806370c88f30146103fd578063715018a6146104105761025d565b806346c6211e1461034e5780634883a6a8146103565780634ba241d8146103695780634c461f5a1461038b578063503814511461039e5761025d565b80632f2ff15d116102265780632f2ff15d146102dd57806331aab888146102f057806332ec991c1461031557806336568abe1461032857806342346c5e1461033b5761025d565b8062fe1bff1461026257806312a70f0b1461028b5780631e01a172146102a057806322368a08146102c0578063248a9ca3146102ca575b600080fd5b610275610270366004614e3e565b61059a565b60405161028291906151b8565b60405180910390f35b610293610853565b60405161028291906151d3565b6102b36102ae366004614db0565b61086a565b60405161028291906151f0565b6102c8610948565b005b6102936102d8366004614db0565b610afb565b6102c86102eb366004614dc8565b610b13565b6103036102fe366004614db0565b610b5b565b60405161028296959493929190615170565b61029361032336600461506f565b610ba7565b6102c8610336366004614dc8565b610c06565b61029361034936600461501c565b610c48565b610293610cd7565b61027561036436600461509b565b610cde565b61037c610377366004614e02565b610dca565b6040516102829392919061526d565b6102c8610399366004614d8f565b610f02565b6102c86103ac366004614f66565b610faa565b6102c86103bf366004614e8b565b611650565b6102936103d2366004614e02565b611daa565b6102756103e5366004614d4a565b611e13565b6102c86103f8366004614d4a565b611efd565b6102c861040b366004614d4a565b611f4f565b6102c861246e565b6102936124ed565b6102936124f9565b61029361043636600461506f565b6124ff565b61044361255a565b6040516102829190615143565b61044361045e366004614e02565b612569565b610275610471366004614dc8565b61258e565b6102c8610484366004614db0565b6125ac565b610293610497366004614d65565b612b7e565b6102c86104aa366004614db0565b612ba6565b610293612caf565b6104ca6104c5366004614db0565b612cb4565b60405161028299989796959493929190615203565b6102756104ed366004614e02565b6130ca565b6102936134d8565b610293610508366004614db0565b6134de565b6102c861051b366004614dc8565b6134f5565b61052861352f565b60405161028294939291906158ac565b6102b3610546366004614e02565b6135fc565b610293610559366004614db0565b61371b565b6102c861056c366004614d4a565b613763565b610275613819565b61058c610587366004614e23565b613829565b6040516102829291906158ee565b6000808360058111156105a957fe5b14156105b75750600161084d565b60018360058111156105c557fe5b14156105f25760006105d683610c48565b905060c881101580156105ea5750610bb881105b91505061084d565b600283600581111561060057fe5b141561062a57600061061183610c48565b9050600a81101580156105ea5750605a1015905061084d565b600383600581111561063857fe5b141561065457600061064983610c48565b1515915061084d9050565b600483600581111561066257fe5b141561081f5781518290600d1461067857600080fd5b604080516001808252818301909252606091602082018180388339505060408051600680825281830190925292935060609291506020820181803883395050604080516006808252818301909252929350606092915060208201818038833901905050905060005b84518110156107a857600181101561073357846000815181106106ff57fe5b602001015160f81c60f81b8460008151811061071757fe5b60200101906001600160f81b031916908160001a9053506107a0565b60078110156107625784818151811061074857fe5b602001015160f81c60f81b83600183038151811061071757fe5b84818151811061076e57fe5b602001015160f81c60f81b82600783038151811061078857fe5b60200101906001600160f81b031916908160001a9053505b6001016106e0565b5060006107b483610c48565b905060006107c183610c48565b9050600080831180156107d75750620186a08311155b90508080156107e65750600082115b80156107f55750620186a08211155b90508080156108105750600461080a87610c48565b60ff1611155b975061084d9650505050505050565b600583600581111561082d57fe5b1415610849576201518061084083610c48565b1015905061084d565b5060005b92915050565b60405161085f90615116565b604051809103902081565b60608160008111801561087f5750600b548111155b6108a45760405162461bcd60e51b815260040161089b906153f5565b60405180910390fd5b6000838152600660209081526040918290206002908101805484516001821615610100026000190190911692909204601f81018490048402830184019094528382529092909183018282801561093b5780601f106109105761010080835404028352916020019161093b565b820191906000526020600020905b81548152906001019060200180831161091e57829003601f168201915b5050505050915050919050565b610950613885565b6000546001600160a01b0390811691161461097d5760405162461bcd60e51b815260040161089b90615658565b600060015b600b548111610a2a576000818152600660209081526040808320546001600160a01b031680845260088352818420858552909252909120548015610a20576109c86149c2565b6109d184613889565b90508060c001511580156109f057506109e8613e71565b816101200151105b15610a1e576001600160a01b0383166000908152600860209081526040808320878452909152812055938101935b505b5050600101610982565b508015610af857600254604051633ba71a1560e01b81526001600160a01b0390911690633ba71a1590610a639030908590600401615157565b600060405180830381600087803b158015610a7d57600080fd5b505af1158015610a91573d6000803e3d6000fd5b5050600254604051630852cd8d60e31b81526001600160a01b0390911692506342966c689150610ac59084906004016151d3565b600060405180830381600087803b158015610adf57600080fd5b505af1158015610af3573d6000803e3d6000fd5b505050505b50565b6000818152600160205260409020600201545b919050565b600082815260016020526040902060020154610b3190610471613885565b610b4d5760405162461bcd60e51b815260040161089b906152d4565b610b578282613e75565b5050565b60008060008060606000610b6d614a1c565b610b7688613ee4565b8051602082015160408301516060840151608085015160a090950151939d929c50909a509850919650945092505050565b600082600081118015610bbc5750600b548111155b610bd85760405162461bcd60e51b815260040161089b906153f5565b6001600160a01b038316600090815260096020908152604080832087845290915290205491505b5092915050565b610c0e613885565b6001600160a01b0316816001600160a01b031614610c3e5760405162461bcd60e51b815260040161089b9061581c565b610b57828261431b565b80516000908290600190600019015b8251811015610ccf576030838281518110610c6e57fe5b016020015160f81c10801590610c9857506039838281518110610c8d57fe5b016020015160f81c11155b610c9e57fe5b816030848381518110610cad57fe5b016020015160f81c0360ff16029390930192600a919091029060001901610c57565b505050919050565b6003545b90565b600082600081118015610cf35750600b548111155b610d0f5760405162461bcd60e51b815260040161089b906153f5565b6279656160e81b626e617960e81b6001600160e01b03198516821480610d4157506001600160e01b0319858116908216145b610d5d5760405162461bcd60e51b815260040161089b9061586b565b60008681526006602052604081206003015460ff166001811115610d7d57fe5b14610d9a5760405162461bcd60e51b815260040161089b906154a0565b60006001600160e01b03198681169084161415610db5575060015b610dbf878261438a565b979650505050505050565b606060008084600081118015610de25750600b548111155b610dfe5760405162461bcd60e51b815260040161089b906153f5565b6000868152600660205260409020600801548510610e2e5760405162461bcd60e51b815260040161089b906155a1565b6000868152600660205260408120600801805487908110610e4b57fe5b60009182526020918290206003919091020180546040805160026001841615610100026000190190931692909204601f810185900485028301850190915280825291935091839190830182828015610ee45780601f10610eb957610100808354040283529160200191610ee4565b820191906000526020600020905b815481529060010190602001808311610ec757829003601f168201915b50505050509450806001015493508060020154925050509250925092565b610f1f604051610f1190615116565b60405180910390203361258e565b80610f345750610f34604051610f119061512d565b610f505760405162461bcd60e51b815260040161089b90615766565b6002805460ff60a01b1916600160a01b8415150217905560038190556040517f07b2940585ef57a3c794dd4c4e539be91c190416b66127b5a590330c140aac0290610f9e90849084906151c3565b60405180910390a15050565b610fb9604051610f1190615116565b80610fce5750610fce604051610f119061512d565b156112b05786610ff05760405162461bcd60e51b815260040161089b906157a8565b610ff8613e71565b84116110165760405162461bcd60e51b815260040161089b90615323565b600b80546001019081905561102a906146b1565b600b546000908152600660205260409020611043614a5d565b6005600084600581111561105357fe5b60ff16815260208082019290925260409081016000208151808301909252805482526001908101549282019290925283546001600160a01b0319163317845591506110a19083018b8b614a77565b506110b0600283018989614a77565b508051600583810191909155602082015160078401556009830187905560038301805460ff1981168255859261ffff19909116906101009084908111156110f357fe5b0217905550600083600581111561110657fe5b146111775761114b8386868080601f01602080910402602001604051908101604052809392919081815260200183838082843760009201919091525061059a92505050565b6111675760405162461bcd60e51b815260040161089b9061556a565b611175600483018686614a77565b505b6040805160a081018252600360608201818152626e617960e81b6080840152825260006020808401829052938301819052600886018054600181018255908252908490208351805194959290930201926111d49284920190614af5565b50602082810151600180840191909155604093840151600290930192909255825160a0810184526003606082018181526279656160e81b608084015282526000828401819052948201859052600887018054948501815585529382902081518051929594909402019261124b928492910190614af5565b506020820151600182015560409091015160029091015560005b336001600160a01b0316600b547f22910aa3d36b7721f45dfd4a366dd228fb8e9f8b0752b5cf6557acba94d2edd9866040516112a191906151dc565b60405180910390a45050611646565b600254600160a01b900460ff161561162e576002546040516370a0823160e01b81526000916001600160a01b0316906370a08231906112f3903390600401615143565b60206040518083038186803b15801561130b57600080fd5b505afa15801561131f573d6000803e3d6000fd5b505050506040513d601f19601f820116820180604052506113439190810190615057565b9050600354811061162c578761136b5760405162461bcd60e51b815260040161089b906157a8565b611373613e71565b85116113915760405162461bcd60e51b815260040161089b90615323565b600b8054600101908190556113a5906146b1565b600b5460009081526006602052604090206113be614a5d565b600560008560058111156113ce57fe5b60ff16815260208082019290925260409081016000208151808301909252805482526001908101549282019290925283546001600160a01b03191633178455915061141c9083018c8c614a77565b5061142b600283018a8a614a77565b508051600583810191909155602082015160078401556009830188905560038301805460ff1981168255869261ffff199091169061010090849081111561146e57fe5b0217905550600084600581111561148157fe5b146114f2576114c68487878080601f01602080910402602001604051908101604052809392919081815260200183838082843760009201919091525061059a92505050565b6114e25760405162461bcd60e51b815260040161089b9061556a565b6114f0600483018787614a77565b505b6040805160a081018252600360608201818152626e617960e81b60808401528252600060208084018290529383018190526008860180546001810182559082529084902083518051949592909302019261154f9284920190614af5565b50602082810151600180840191909155604093840151600290930192909255825160a0810184526003606082018181526279656160e81b60808401528252600082840181905294820185905260088701805494850181558552938290208151805192959490940201926115c6928492910190614af5565b506020820151600182015560409091015160029091015560005b336001600160a01b0316600b547f22910aa3d36b7721f45dfd4a366dd228fb8e9f8b0752b5cf6557acba94d2edd98760405161161c91906151dc565b60405180910390a4505050611646565b505b60405162461bcd60e51b815260040161089b90615766565b5050505050505050565b61165f604051610f1190615116565b806116745750611674604051610f119061512d565b15611a0557866116965760405162461bcd60e51b815260040161089b906157a8565b61169e613e71565b84116116bc5760405162461bcd60e51b815260040161089b90615323565b600182116116dc5760405162461bcd60e51b815260040161089b906153b1565b600b8054600101908190556116f0906146b1565b600b546000908152600660205260409020611709614a5d565b6005600084600581111561171957fe5b60ff16815260208082019290925260409081016000208151808301909252805482526001908101549282019290925283546001600160a01b0319163317845591506117679083018b8b614a77565b50611776600283018989614a77565b508051600583810191909155602082015160078401556009830187905560038301805460ff1916600117808255859261ff0019909116906101009084908111156117bc57fe5b02179055506040805160a081018252600460608201908152630536b69760e41b6080830152815260006020808301829052928201819052600885018054600181018255908252908390208251805193946003909302909101926118229284920190614af5565b506020820151600182015560409091015160029091015560005b848110156119fd57600084600581111561185257fe5b14611908576118ec8487878481811061186757fe5b602002820190508035601e193684900301811261188357600080fd5b9091016020810191503567ffffffffffffffff8111156118a257600080fd5b368190038213156118b257600080fd5b8080601f01602080910402602001604051908101604052809392919081815260200183838082843760009201919091525061059a92505050565b6119085760405162461bcd60e51b815260040161089b9061556a565b82600801604051806060016040528088888581811061192357fe5b602002820190508035601e193684900301811261193f57600080fd5b9091016020810191503567ffffffffffffffff81111561195e57600080fd5b3681900382131561196e57600080fd5b8080601f0160208091040260200160405190810160405280939291908181526020018383808284376000920182905250938552505050602080830182905260409092018190528354600181018555938152819020825180519394600302909101926119dc9284920190614af5565b5060208201516001808301919091556040909201516002909101550161183c565b506001611265565b600254600160a01b900460ff161561162e576002546040516370a0823160e01b81526000916001600160a01b0316906370a0823190611a48903390600401615143565b60206040518083038186803b158015611a6057600080fd5b505afa158015611a74573d6000803e3d6000fd5b505050506040513d601f19601f82011682018060405250611a989190810190615057565b9050600354811061162c5787611ac05760405162461bcd60e51b815260040161089b906157a8565b611ac8613e71565b8511611ae65760405162461bcd60e51b815260040161089b90615323565b60018311611b065760405162461bcd60e51b815260040161089b906153b1565b600b805460010190819055611b1a906146b1565b600b546000908152600660205260409020611b33614a5d565b60056000856005811115611b4357fe5b60ff16815260208082019290925260409081016000208151808301909252805482526001908101549282019290925283546001600160a01b031916331784559150611b919083018c8c614a77565b50611ba0600283018a8a614a77565b508051600583810191909155602082015160078401556009830188905560038301805460ff1916600117808255869261ff001990911690610100908490811115611be657fe5b02179055506040805160a081018252600460608201908152630536b69760e41b608083015281526000602080830182905292820181905260088501805460018101825590825290839020825180519394600390930290910192611c4c9284920190614af5565b506020820151600182015560409091015160029091015560005b85811015611da2576000856005811115611c7c57fe5b14611cad57611c918588888481811061186757fe5b611cad5760405162461bcd60e51b815260040161089b9061556a565b826008016040518060600160405280898985818110611cc857fe5b602002820190508035601e1936849003018112611ce457600080fd5b9091016020810191503567ffffffffffffffff811115611d0357600080fd5b36819003821315611d1357600080fd5b8080601f016020809104026020016040519081016040528093929190818152602001838380828437600092018290525093855250505060208083018290526040909201819052835460018101855593815281902082518051939460030290910192611d819284920190614af5565b50602082015160018083019190915560409092015160029091015501611c66565b5060016115e0565b600082600081118015611dbf5750600b548111155b611ddb5760405162461bcd60e51b815260040161089b906153f5565b6000848152600660205260409020600801805484908110611df857fe5b90600052602060002090600302016001015491505092915050565b6000611e32604051611e2490615116565b60405180910390208361258e565b80611e475750611e47604051611e249061512d565b15611e5457506001610b0e565b600254600160a01b900460ff1615611ef5576002546040516370a0823160e01b81526000916001600160a01b0316906370a0823190611e97908690600401615143565b60206040518083038186803b158015611eaf57600080fd5b505afa158015611ec3573d6000803e3d6000fd5b505050506040513d601f19601f82011682018060405250611ee79190810190615057565b60035411159150610b0e9050565b506000919050565b611f05613885565b6000546001600160a01b03908116911614611f325760405162461bcd60e51b815260040161089b90615658565b610af8604051611f419061512d565b604051809103902082610b4d565b6002546001600160a01b03163314611f6657600080fd5b6001600160a01b0381166000908152600a6020526040902054611f8857610af8565b6001600160a01b0381166000908152600a6020908152604091829020805483518184028101840190945280845260609392830182828015611fe857602002820191906000526020600020905b815481526020019060010190808311611fd4575b505050505090506000600260009054906101000a90046001600160a01b03166001600160a01b031663ca5c7b916040518163ffffffff1660e01b815260040160206040518083038186803b15801561203f57600080fd5b505afa158015612053573d6000803e3d6000fd5b505050506040513d601f19601f820116820180604052506120779190810190615057565b600254604051632c9aab9b60e11b81529192506000916001600160a01b03909116906359355736906120ad908790600401615143565b60206040518083038186803b1580156120c557600080fd5b505afa1580156120d9573d6000803e3d6000fd5b505050506040513d601f19601f820116820180604052506120fd9190810190615057565b90506000805b845181101561233757600085828151811061211a57fe5b602002602001015190506000600660008381526020019081526020016000209050612143613e71565b81600901541015612177578380600101945050600087848151811061216457fe5b602002602001018181525050505061232f565b6001600160a01b038816600090815260096020908152604080832085845290915290208561227a57600b82018054600019019055600181018054600a8401805491909103905554815460088401805490919081106121d157fe5b9060005260206000209060030201600201600082825403925050819055508160080181600001548154811061220257fe5b6000918252602082206001600390920201810180546000190190558201556005820154600a8301548890620186a0028161223857fe5b60068501805460ff191692909104929092101517905587516001959095019460009089908690811061226657fe5b60200260200101818152505050505061232f565b85816001015411156122c05785816001015403826008018260000154815481106122a057fe5b6000918252602090912060026003909202010180549190910390556122f5565b80600101548603826008018260000154815481106122da57fe5b60009182526020909120600260039092020101805490910190555b600181018690556005820154600a8301548890620186a0028161231457fe5b6006909401805460ff19169190940491909110151790915550505b600101612103565b508015610af3576001600160a01b0385166000908152600a60205260409020548114156123955760408051600080825260208083018085526001600160a01b038a168352600a909152929020905161238f9290614b63565b50610af3565b606081600a6000886001600160a01b03166001600160a01b0316815260200190815260200160002080549050036040519080825280602002602001820160405280156123eb578160200160208202803883390190505b5090506000805b865181101561244457600087828151811061240957fe5b60200260200101519050600081111561243b578084848151811061242957fe5b60209081029190910101526001909201915b506001016123f2565b506001600160a01b0387166000908152600a60209081526040909120835161164692850190614b63565b612476613885565b6000546001600160a01b039081169116146124a35760405162461bcd60e51b815260040161089b90615658565b600080546040516001600160a01b03909116907f8be0079c531659141344cd1fd0a4f28419497f9722a3daafe3b4186f6b6457e0908390a3600080546001600160a01b0319169055565b60405161085f9061512d565b600b5490565b6000826000811180156125145750600b548111155b6125305760405162461bcd60e51b815260040161089b906153f5565b50506001600160a01b03166000908152600960209081526040808320938352929052206001015490565b6000546001600160a01b031690565b6000828152600160205260408120612587908363ffffffff61473116565b9392505050565b6000828152600160205260408120612587908363ffffffff61473d16565b6125b4614a1c565b6125bd82613ee4565b80519091506001600160a01b03163314806125e257506125e2604051610f1190615116565b806125f757506125f7604051610f119061512d565b6126135760405162461bcd60e51b815260040161089b90615766565b8060a00151156126355760405162461bcd60e51b815260040161089b90615621565b61263d6149c2565b61264683613889565b905060008160400151600581111561265a57fe5b14156126785760405162461bcd60e51b815260040161089b906157d5565b612680613e71565b816101200151106126a35760405162461bcd60e51b815260040161089b906156dc565b6126ab613e71565b60045482610120015101116126d25760405162461bcd60e51b815260040161089b90615725565b8060c001516126f35760405162461bcd60e51b815260040161089b9061545b565b82600760008360400151600581111561270857fe5b60ff1660ff16815260200190815260200160002054111561273b5760405162461bcd60e51b815260040161089b9061568d565b606060018260200151600181111561274f57fe5b141561281957600660008581526020019081526020016000206008018260e001518154811061277a57fe5b6000918252602091829020600390910201805460408051601f600260001961010060018716150201909416939093049283018590048502810185019091528181529283018282801561280d5780601f106127e25761010080835404028352916020019161280d565b820191906000526020600020905b8154815290600101906020018083116127f057829003601f168201915b50505050509050612820565b5060808201515b60018260400151600581111561283257fe5b14156128a7576002546001600160a01b031663c108a4028561285384610c48565b6040518363ffffffff1660e01b81526004016128709291906158ee565b600060405180830381600087803b15801561288a57600080fd5b505af115801561289e573d6000803e3d6000fd5b50505050612aeb565b6002826040015160058111156128b957fe5b14156128da576002546001600160a01b031663ac3cd7c68561285384610c48565b6003826040015160058111156128ec57fe5b1415612903576128fb81610c48565b600355612aeb565b60048260400151600581111561291557fe5b1415612ac65760408051600180825281830190925282916060919060208201818038833950506040805160068082528183019092529293506060929150602082018180388339505060408051600680825281830190925292935060609291506020820181803883390190505090508351600d1461299157600080fd5b60005b8451811015612a5c5760018110156129e757846000815181106129b357fe5b602001015160f81c60f81b846000815181106129cb57fe5b60200101906001600160f81b031916908160001a905350612a54565b6007811015612a16578481815181106129fc57fe5b602001015160f81c60f81b8360018303815181106129cb57fe5b848181518110612a2257fe5b602001015160f81c60f81b826007830381518110612a3c57fe5b60200101906001600160f81b031916908160001a9053505b600101612994565b506000612a6883610c48565b90506000612a7583610c48565b905060405180604001604052808381526020018281525060056000612a9988610c48565b60ff1681526020808201929092526040016000208251815591015160019091015550612aeb945050505050565b600582604001516005811115612ad857fe5b1415612aeb57612ae781610c48565b6004555b600084815260066020526040808220600c01805460ff1916600117905583015185916007916005811115612b1b57fe5b60ff1660ff16815260200190815260200160002081905550336001600160a01b031682604001516005811115612b4d57fe5b60405186907f76ddf1c56562a7f2299089b84bd25caab82ee275576eb7984361159f17d63eac90600090a450505050565b6001600160a01b03919091166000908152600860209081526040808320938352929052205490565b80600081118015612bb95750600b548111155b612bd55760405162461bcd60e51b815260040161089b906153f5565b6000828152600660205260409020546001600160a01b03163314612c0b5760405162461bcd60e51b815260040161089b90615766565b336000908152600860209081526040808320858452909152902054612c425760405162461bcd60e51b815260040161089b9061542c565b612c4a6149c2565b612c5383613889565b9050612c5d613e71565b81610120015110612c805760405162461bcd60e51b815260040161089b906156dc565b8060c00151612ca15760405162461bcd60e51b815260040161089b9061545b565b612caa83614752565b505050565b600081565b6060600080600080600080600080612cca6149c2565b612cd38b613889565b905080600001519950806020015198508060400151975080606001519650806080015195508060a0015193508060c0015192508061012001519150612d16614b9d565b60008c81526006602090815260409182902082516101c08101845281546001600160a01b03168152600180830180548651600261010094831615949094026000190190911692909204601f8101869004860283018601909652858252919492938581019391929190830182828015612dcf5780601f10612da457610100808354040283529160200191612dcf565b820191906000526020600020905b815481529060010190602001808311612db257829003601f168201915b5050509183525050600282810180546040805160206001841615610100026000190190931694909404601f81018390048302850183019091528084529381019390830182828015612e615780601f10612e3657610100808354040283529160200191612e61565b820191906000526020600020905b815481529060010190602001808311612e4457829003601f168201915b5050509183525050600382015460209091019060ff166001811115612e8257fe5b6001811115612e8d57fe5b81526020016003820160019054906101000a900460ff166005811115612eaf57fe5b6005811115612eba57fe5b815260048201805460408051602060026001851615610100026000190190941693909304601f8101849004840282018401909252818152938201939291830182828015612f485780601f10612f1d57610100808354040283529160200191612f48565b820191906000526020600020905b815481529060010190602001808311612f2b57829003601f168201915b50505050508152602001600582015481526020016006820160009054906101000a900460ff161515151581526020016007820154815260200160088201805480602002602001604051908101604052809291908181526020016000905b8282101561307a5760008481526020908190206040805160038602909201805460026001821615610100026000190190911604601f810185900490940283016080908101909252606083018481529293909284929091849184018282801561304e5780601f106130235761010080835404028352916020019161304e565b820191906000526020600020905b81548152906001019060200180831161303157829003601f168201915b505050505081526020016001820154815260200160028201548152505081526020019060010190612fa5565b5050509082525060098201546020820152600a8201546040820152600b8201546060820152600c9091015460ff16151560809091015261016001519a9c999b509799969895975092949193509150565b6000826000811180156130df5750600b548111155b6130fb5760405162461bcd60e51b815260040161089b906153f5565b613103614b9d565b60008581526006602090815260409182902082516101c08101845281546001600160a01b03168152600180830180548651600261010094831615949094026000190190911692909204601f81018690048602830186019096528582529194929385810193919291908301828280156131bc5780601f10613191576101008083540402835291602001916131bc565b820191906000526020600020905b81548152906001019060200180831161319f57829003601f168201915b5050509183525050600282810180546040805160206001841615610100026000190190931694909404601f8101839004830285018301909152808452938101939083018282801561324e5780601f106132235761010080835404028352916020019161324e565b820191906000526020600020905b81548152906001019060200180831161323157829003601f168201915b5050509183525050600382015460209091019060ff16600181111561326f57fe5b600181111561327a57fe5b81526020016003820160019054906101000a900460ff16600581111561329c57fe5b60058111156132a757fe5b815260048201805460408051602060026001851615610100026000190190941693909304601f81018490048402820184019092528181529382019392918301828280156133355780601f1061330a57610100808354040283529160200191613335565b820191906000526020600020905b81548152906001019060200180831161331857829003601f168201915b50505050508152602001600582015481526020016006820160009054906101000a900460ff161515151581526020016007820154815260200160088201805480602002602001604051908101604052809291908181526020016000905b828210156134675760008481526020908190206040805160038602909201805460026001821615610100026000190190911604601f810185900490940283016080908101909252606083018481529293909284929091849184018282801561343b5780601f106134105761010080835404028352916020019161343b565b820191906000526020600020905b81548152906001019060200180831161341e57829003601f168201915b505050505081526020016001820154815260200160028201548152505081526020019060010190613392565b5050509082525060098201546020820152600a8201546040820152600b8201546060820152600c9091015460ff1615156080909101526101208101515190915084106134c55760405162461bcd60e51b815260040161089b906155a1565b6134cf858561438a565b95945050505050565b60045490565b600081815260016020526040812061084d9061481c565b60008281526001602052604090206002015461351390610471613885565b610c3e5760405162461bcd60e51b815260040161089b906155d1565b600b546000818152600660209081526040808320600190810180548351600293821615610100026000190190911692909204601f8101859004850283018501909352828252606094938493908301828280156135cc5780601f106135a1576101008083540402835291602001916135cc565b820191906000526020600020905b8154815290600101906020018083116135af57829003601f168201915b5050506000878152600660205260409020600301549697929660ff80821697506101009091041694509192505050565b6060826000811180156136115750600b548111155b61362d5760405162461bcd60e51b815260040161089b906153f5565b600084815260066020526040902060080154831061365d5760405162461bcd60e51b815260040161089b906155a1565b600084815260066020526040902060080180548490811061367a57fe5b6000918252602091829020600390910201805460408051601f600260001961010060018716150201909416939093049283018590048502810185019091528181529283018282801561370d5780601f106136e25761010080835404028352916020019161370d565b820191906000526020600020905b8154815290600101906020018083116136f057829003601f168201915b505050505091505092915050565b6000816000811180156137305750600b548111155b61374c5760405162461bcd60e51b815260040161089b906153f5565b505060009081526006602052604090206008015490565b61376b613885565b6000546001600160a01b039081169116146137985760405162461bcd60e51b815260040161089b90615658565b6001600160a01b0381166137be5760405162461bcd60e51b815260040161089b9061536b565b600080546040516001600160a01b03808516939216917f8be0079c531659141344cd1fd0a4f28419497f9722a3daafe3b4186f6b6457e091a3600080546001600160a01b0319166001600160a01b0392909216919091179055565b600254600160a01b900460ff1690565b6000806005600084600581111561383c57fe5b60ff1660ff1681526020019081526020016000206000015491506005600084600581111561386657fe5b60ff1660ff168152602001908152602001600020600101549050915091565b3390565b6138916149c2565b816000811180156138a45750600b548111155b6138c05760405162461bcd60e51b815260040161089b906153f5565b6138c8614b9d565b60008481526006602090815260409182902082516101c08101845281546001600160a01b03168152600180830180548651600261010094831615949094026000190190911692909204601f81018690048602830186019096528582529194929385810193919291908301828280156139815780601f1061395657610100808354040283529160200191613981565b820191906000526020600020905b81548152906001019060200180831161396457829003601f168201915b5050509183525050600282810180546040805160206001841615610100026000190190931694909404601f81018390048302850183019091528084529381019390830182828015613a135780601f106139e857610100808354040283529160200191613a13565b820191906000526020600020905b8154815290600101906020018083116139f657829003601f168201915b5050509183525050600382015460209091019060ff166001811115613a3457fe5b6001811115613a3f57fe5b81526020016003820160019054906101000a900460ff166005811115613a6157fe5b6005811115613a6c57fe5b815260048201805460408051602060026001851615610100026000190190941693909304601f8101849004840282018401909252818152938201939291830182828015613afa5780601f10613acf57610100808354040283529160200191613afa565b820191906000526020600020905b815481529060010190602001808311613add57829003601f168201915b50505050508152602001600582015481526020016006820160009054906101000a900460ff161515151581526020016007820154815260200160088201805480602002602001604051908101604052809291908181526020016000905b82821015613c2c5760008481526020908190206040805160038602909201805460026001821615610100026000190190911604601f8101859004909402830160809081019092526060830184815292939092849290918491840182828015613c005780601f10613bd557610100808354040283529160200191613c00565b820191906000526020600020905b815481529060010190602001808311613be357829003601f168201915b505050505081526020016001820154815260200160028201548152505081526020019060010190613b57565b505050908252506009820154602080830191909152600a8301546040830152600b830154606080840191909152600c9093015460ff161515608090920191909152828101518652908201519192508401906001811115613c8857fe5b90816001811115613c9557fe5b905250608081015160408401906005811115613cad57fe5b90816005811115613cba57fe5b90525061014081015161012084015260e0810151151560a0840152600083602001516001811115613ce757fe5b1415613d9557806101200151600081518110613cff57fe5b602002602001015160400151836060018181525050806101200151600181518110613d2657fe5b602002602001015160400151836080018181525050613d43613e71565b836101200151108015613d5757508260a001515b15613d88578061016001518360800151620186a00281613d7357fe5b610100830151919004101560c0840152613d90565b600060c08401525b613e6a565b613d9d613e71565b836101200151108015613db157508260a001515b15613e62576000805b82610120015151811015613e3d57613dd0614c24565b8361012001518281518110613de157fe5b602002602001015190508281604001511115613e1f5760e08601829052604081015161010087015190935015613e1a5760006101008701525b613e34565b8281604001511415613e345760016101008701525b50600101613dba565b50836101000151158015613e55575060008460e00151115b151560c085015250613e6a565b600060c08401525b5050919050565b4290565b6000828152600160205260409020613e93908263ffffffff61482716565b15610b5757613ea0613885565b6001600160a01b0316816001600160a01b0316837f2f8788117e7eff1d82e926ec794901d17c78024a50270940304540a733656f0d60405160405180910390a45050565b613eec614a1c565b81600081118015613eff5750600b548111155b613f1b5760405162461bcd60e51b815260040161089b906153f5565b613f23614b9d565b60008481526006602090815260409182902082516101c08101845281546001600160a01b03168152600180830180548651600261010094831615949094026000190190911692909204601f8101869004860283018601909652858252919492938581019391929190830182828015613fdc5780601f10613fb157610100808354040283529160200191613fdc565b820191906000526020600020905b815481529060010190602001808311613fbf57829003601f168201915b5050509183525050600282810180546040805160206001841615610100026000190190931694909404601f8101839004830285018301909152808452938101939083018282801561406e5780601f106140435761010080835404028352916020019161406e565b820191906000526020600020905b81548152906001019060200180831161405157829003601f168201915b5050509183525050600382015460209091019060ff16600181111561408f57fe5b600181111561409a57fe5b81526020016003820160019054906101000a900460ff1660058111156140bc57fe5b60058111156140c757fe5b815260048201805460408051602060026001851615610100026000190190941693909304601f81018490048402820184019092528181529382019392918301828280156141555780601f1061412a57610100808354040283529160200191614155565b820191906000526020600020905b81548152906001019060200180831161413857829003601f168201915b50505050508152602001600582015481526020016006820160009054906101000a900460ff161515151581526020016007820154815260200160088201805480602002602001604051908101604052809291908181526020016000905b828210156142875760008481526020908190206040805160038602909201805460026001821615610100026000190190911604601f810185900490940283016080908101909252606083018481529293909284929091849184018282801561425b5780601f106142305761010080835404028352916020019161425b565b820191906000526020600020905b81548152906001019060200180831161423e57829003601f168201915b5050505050815260200160018201548152602001600282015481525050815260200190600101906141b2565b505050908252506009820154602080830191909152600a830154604080840191909152600b840154606080850191909152600c9094015460ff16151560809384015284516001600160a01b0316885260c085015191880191909152610100840151908701526101808301519186019190915260a080830151918601919091526101a090910151151590840152509092915050565b6000828152600160205260409020614339908263ffffffff61483c16565b15610b5757614346613885565b6001600160a01b0316816001600160a01b0316837ff6391f5c32d9c69d2a47ea670b442974b53935d1edc7fd64eb21e047a839171b60405160405180910390a45050565b60008260008111801561439f5750600b548111155b6143bb5760405162461bcd60e51b815260040161089b906153f5565b60008481526006602052604090206143d1613e71565b816009015410156143e6576000925050610bff565b600254604051632c9aab9b60e11b815233916000916001600160a01b039091169063593557369061441b908590600401615143565b60206040518083038186803b15801561443357600080fd5b505afa158015614447573d6000803e3d6000fd5b505050506040513d601f19601f8201168201806040525061446b9190810190615057565b90506000811161448d5760405162461bcd60e51b815260040161089b9061551f565b6001600160a01b03821660009081526009602090815260408083208a8452909152902060010154156144d15760405162461bcd60e51b815260040161089b906154e8565b60408051808201825287815260208082018481526001600160a01b0386166000908152600983528481208c8252909252929020905181559051600191820155600b840180549091019055600a83018054820190556008830180548790811061453557fe5b9060005260206000209060030201600101600081548092919060010191905055508083600801878154811061456657fe5b6000918252602090912060026003909202010180549091019055600683015460ff1661463a576002546040805163ca5c7b9160e01b815290516000926001600160a01b03169163ca5c7b91916004808301926020929190829003018186803b1580156145d157600080fd5b505afa1580156145e5573d6000803e3d6000fd5b505050506040513d601f19601f820116820180604052506146099190810190615057565b84600a0154620186a0028161461a57fe5b049050836005015481106146385760068401805460ff191660011790555b505b336000908152600a60209081526040808320805460018101825590845291909220018890555186906001600160a01b0384169089907f8eea3a81425aea5e440ed6b6289a8aea0db8025c75fdeb1434bd8165017703409061469c9086906151d3565b60405180910390a45060019695505050505050565b6146c0604051610f1190615116565b806146d557506146d5604051610f119061512d565b156146df57610af8565b600354336000818152600860209081526040808320868452909152908190208390556002549051631131011960e21b81526001600160a01b03909116926344c4046492610ac592909190600401615157565b60006125878383614851565b6000612587836001600160a01b038416614896565b614761604051610f1190615116565b806147765750614776604051610f119061512d565b1561478057610af8565b60025433600081815260086020908152604080832086845290915290819020549051633ba71a1560e01b81526001600160a01b0390931692633ba71a15926147cc929091600401615157565b600060405180830381600087803b1580156147e657600080fd5b505af11580156147fa573d6000803e3d6000fd5b5050336000908152600860209081526040808320868452909152812055505050565b600061084d826148ae565b6000612587836001600160a01b0384166148b2565b6000612587836001600160a01b0384166148fc565b815460009082106148745760405162461bcd60e51b815260040161089b90615292565b82600001828154811061488357fe5b9060005260206000200154905092915050565b60009081526001919091016020526040902054151590565b5490565b60006148be8383614896565b6148f45750815460018181018455600084815260208082209093018490558454848252828601909352604090209190915561084d565b50600061084d565b600081815260018301602052604081205480156149b8578354600019808301919081019060009087908390811061492f57fe5b906000526020600020015490508087600001848154811061494c57fe5b60009182526020808320909101929092558281526001898101909252604090209084019055865487908061497c57fe5b6001900381819060005260206000200160009055905586600101600087815260200190815260200160002060009055600194505050505061084d565b600091505061084d565b60408051610140810190915260608152602081016000815260200160008152602001600081526020016000815260200160001515815260200160001515815260200160008152602001600015158152602001600081525090565b6040518060c0016040528060006001600160a01b03168152602001600081526020016000815260200160008152602001606081526020016000151581525090565b604051806040016040528060008152602001600081525090565b828054600181600116156101000203166002900490600052602060002090601f016020900481019282601f10614ab85782800160ff19823516178555614ae5565b82800160010185558215614ae5579182015b82811115614ae5578235825591602001919060010190614aca565b50614af1929150614c45565b5090565b828054600181600116156101000203166002900490600052602060002090601f016020900481019282601f10614b3657805160ff1916838001178555614ae5565b82800160010185558215614ae5579182015b82811115614ae5578251825591602001919060010190614b48565b828054828255906000526020600020908101928215614ae55791602002820182811115614ae5578251825591602001919060010190614b48565b604051806101c0016040528060006001600160a01b03168152602001606081526020016060815260200160006001811115614bd457fe5b815260200160008152602001606081526020016000815260200160001515815260200160008152602001606081526020016000815260200160008152602001600081526020016000151581525090565b60405180606001604052806060815260200160008152602001600081525090565b610cdb91905b80821115614af15760008155600101614c4b565b80356001600160a01b038116811461084d57600080fd5b80356006811061084d57600080fd5b60008083601f840112614c96578182fd5b50813567ffffffffffffffff811115614cad578182fd5b602083019150836020828501011115614cc557600080fd5b9250929050565b600082601f830112614cdc578081fd5b813567ffffffffffffffff80821115614cf3578283fd5b604051601f8301601f191681016020018281118282101715614d13578485fd5b604052828152925082848301602001861015614d2e57600080fd5b8260208601602083013760006020848301015250505092915050565b600060208284031215614d5b578081fd5b6125878383614c5f565b60008060408385031215614d77578081fd5b614d818484614c5f565b946020939093013593505050565b60008060408385031215614da1578182fd5b82358015158114614d81578283fd5b600060208284031215614dc1578081fd5b5035919050565b60008060408385031215614dda578182fd5b8235915060208301356001600160a01b0381168114614df7578182fd5b809150509250929050565b60008060408385031215614e14578182fd5b50508035926020909101359150565b600060208284031215614e34578081fd5b6125878383614c76565b60008060408385031215614e50578182fd5b614e5a8484614c76565b9150602083013567ffffffffffffffff811115614e75578182fd5b614e8185828601614ccc565b9150509250929050565b60008060008060008060008060a0898b031215614ea6578384fd5b883567ffffffffffffffff80821115614ebd578586fd5b614ec98c838d01614c85565b909a50985060208b0135915080821115614ee1578586fd5b614eed8c838d01614c85565b909850965060408b0135955060608b0135915080821115614f0c578485fd5b818b018c601f820112614f1d578586fd5b8035925081831115614f2d578586fd5b8c60208085028301011115614f40578586fd5b6020019450909250614f5790508a60808b01614c76565b90509295985092959890939650565b60008060008060008060008060a0898b031215614f81578384fd5b883567ffffffffffffffff80821115614f98578586fd5b614fa48c838d01614c85565b909a50985060208b0135915080821115614fbc578586fd5b614fc88c838d01614c85565b909850965060408b0135955060608b0135915080821115614fe7578485fd5b50614ff48b828c01614c85565b90945092505060808901356006811061500b578182fd5b809150509295985092959890939650565b60006020828403121561502d578081fd5b813567ffffffffffffffff811115615043578182fd5b61504f84828501614ccc565b949350505050565b600060208284031215615068578081fd5b5051919050565b60008060408385031215615081578182fd5b823591506150928460208501614c5f565b90509250929050565b600080604083850312156150ad578182fd5b8235915060208301356001600160e01b031981168114614df7578182fd5b60008151808452815b818110156150f0576020818501810151868301820152016150d4565b818111156151015782602083870101525b50601f01601f19169290920160200192915050565b6a564f54494e475f524f4c4560a81b8152600b0190565b6941444d494e5f524f4c4560b01b8152600a0190565b6001600160a01b0391909116815260200190565b6001600160a01b03929092168252602082015260400190565b600060018060a01b038816825286602083015285604083015284606083015260c060808301526151a360c08301856150cb565b905082151560a0830152979650505050505050565b901515815260200190565b9115158252602082015260400190565b90815260200190565b60208101600683106151ea57fe5b91905290565b60006020825261258760208301846150cb565b60006101208083526152178184018d6150cb565b9150506152238a6158fc565b89602083015261523289615906565b60408201989098526060810196909652608086019490945260a0850192909252151560c0840152151560e08301526101009091015292915050565b60006060825261528060608301866150cb565b60208301949094525060400152919050565b60208082526022908201527f456e756d657261626c655365743a20696e646578206f7574206f6620626f756e604082015261647360f01b606082015260800190565b6020808252602f908201527f416363657373436f6e74726f6c3a2073656e646572206d75737420626520616e60408201526e0818591b5a5b881d1bc819dc985b9d608a1b606082015260800190565b60208082526028908201527f566f74696e673a2074696d65206d75737420626520626967676572207468616e6040820152670818dd5c9c995b9d60c21b606082015260800190565b60208082526026908201527f4f776e61626c653a206e6577206f776e657220697320746865207a65726f206160408201526564647265737360d01b606082015260800190565b60208082526024908201527f566f74696e673a206d757374206265206174206c656173742074776f206f7074604082015263696f6e7360e01b606082015260800190565b6020808252601f908201527f566f74696e673a2070726f706f73616c20646f6573206e6f7420657869737400604082015260600190565b602080825260159082015274159bdd1a5b99ce88195b5c1d1e4819195c1bdcda5d605a1b604082015260600190565b60208082526025908201527f566f74696e673a20746869732070726f706f73616c206974206e6f7420616363604082015264195c1d195960da1b606082015260800190565b60208082526028908201527f566f74696e673a20706c656173652063686f6f736520616e206f7074696f6e206040820152670c4f240d2dcc8caf60c31b606082015260800190565b6020808252601e908201527f566f74696e673a20796f75206861766520616c726561647920766f7465640000604082015260600190565b6020808252602b908201527f566f74696e673a20796f75206861766520746f206c6f636b20796f757220746f60408201526a6b656e73206265666f726560a81b606082015260800190565b6020808252601f908201527f566f74696e673a20696e636f7272656374207570646174696e67206461746100604082015260600190565b602080825260169082015275566f74696e673a206f7574206f6620696e646578657360501b604082015260600190565b60208082526030908201527f416363657373436f6e74726f6c3a2073656e646572206d75737420626520616e60408201526f2061646d696e20746f207265766f6b6560801b606082015260800190565b60208082526018908201527f566f74696e673a20616c72656164792065786563757465640000000000000000604082015260600190565b6020808252818101527f4f776e61626c653a2063616c6c6572206973206e6f7420746865206f776e6572604082015260600190565b6020808252602f908201527f566f74696e673a2064656e69656420746f20657865637574652074686520726560408201526e1c1b1858d959081c1c9bdc1bdcd85b608a1b606082015260800190565b60208082526029908201527f566f74696e673a20766f74696e6720706572696f64206973206e6f742066696e6040820152681a5cda1959081e595d60ba1b606082015260800190565b60208082526021908201527f566f74696e673a20657865637574696f6e2074696d65206973206578706972656040820152601960fa1b606082015260800190565b60208082526022908201527f566f74696e673a20796f7520646f206e6f742068617665207065726d6973736960408201526137b760f11b606082015260800190565b602080825260139082015272566f74696e673a20656d707479207469746c6560681b604082015260600190565b60208082526027908201527f566f74696e673a20746869732070726f706f73616c206973206e6f742065786560408201526663757461626c6560c81b606082015260800190565b6020808252602f908201527f416363657373436f6e74726f6c3a2063616e206f6e6c792072656e6f756e636560408201526e103937b632b9903337b91039b2b63360891b606082015260800190565b60208082526021908201527f566f74696e673a20796f752073686f756c642073617920796561206f72206e616040820152607960f81b606082015260800190565b6000858252608060208301526158c560808301866150cb565b90506158d0846158fc565b8360408301526158df83615906565b82606083015295945050505050565b918252602082015260400190565b60028110610af857fe5b60068110610af857fefea2646970667358221220066f90db91eb06496b604cbbbc20f922524d85cdf246b258e557e8610681f3f064736f6c63430006020033a8a1fd55aad9bd98e45291d680690c619e60f7931ecaeb384ba0bfb225cd25fe",
  "source": "// SPDX-License-Identifier: GPL-3.0\npragma solidity 0.6.2;\npragma experimental ABIEncoderV2;\n\nimport \"./Managing.sol\";\n\n\ncontract Voting is Managing {\n\n    enum ProposalType {\n        Native,\n        Multi\n    }\n\n    enum ProposalUpdater {\n        Nothing,\n        Inflation,\n        Vesting,\n        CreateProposal,\n        UpdateConfig,\n        ExecutionTime\n    }\n\n    struct ProposalConfig {\n        uint quorumPct;\n        uint supportPct;\n    }\n\n    struct Proposal {\n        address creator;\n        string title;\n        string description;\n        ProposalType votingType;\n        ProposalUpdater votingUpdater;\n        string updateData;\n        uint quorumPct;\n        bool hasQuorum;\n        uint supportPct;\n        ProposalOption[] options;\n        uint expiryTime;\n        uint totalVotingPower;\n        uint voters;\n        bool executed;\n    }\n\n    struct ProposalInfo {\n        string title;\n        ProposalType votingType;\n        ProposalUpdater votingUpdater;\n        uint nay;\n        uint yea;\n        bool hasQuorum;\n        bool accepted;\n        uint maxIndex;\n        bool tie;\n        uint expiryTime;\n    }\n\n    struct ProposalInfoConfig {\n        address creator;\n        uint quorumPct;\n        uint supportPct;\n        uint voters;\n        string updateData;\n        bool executed;\n    }\n\n    struct ProposalOption {\n        string name;\n        uint256 count;\n        uint256 weight;\n    }\n\n    struct GotVote {\n        uint option;\n        uint amount;\n    }\n\n    bool private _everyoneCreateProposal;\n    uint private _minAmountToCreate = 10000e6;\n    uint private _executionTime = 30 days;\n    mapping (uint8 => ProposalConfig) private _proposalConfigs;\n\n    mapping (uint => Proposal) private _proposals;\n    mapping (uint8 => uint) private _executedProposal;\n    mapping (address => mapping (uint => uint)) private _deposited;\n    mapping (address => mapping(uint => GotVote)) private _voted;\n    mapping (address => uint[]) private _holderActiveVotes;\n    uint private _countProposals;\n\n    event SetProposalAvailability(bool isAvailable, uint minStaked);\n    event NewProposal(\n        uint indexed issueId,\n        address indexed creator,\n        ProposalType indexed votingType,\n        ProposalUpdater votingUpdater\n    );\n    event ExecProposal(uint indexed issueId, ProposalUpdater indexed category, address indexed initialized);\n    event OnVote(uint indexed issueId, address indexed from, uint indexed option, uint weight);\n    event UpdatedProposalConfig(ProposalUpdater indexed updater, uint quorumPct, uint supportPct);\n\n    modifier canCreateProposals() {\n        if (hasRole(VOTING_ROLE, msg.sender) || hasRole(ADMIN_ROLE, msg.sender)) {\n            _;\n            return;\n        }\n        if (_everyoneCreateProposal) {\n            uint balance = _Token.balanceOf(msg.sender);\n            if (balance >= _minAmountToCreate) {\n                _;\n                return;\n            }\n        }\n        revert(\"Voting: you do not have permission\");\n    }\n\n    modifier hasProposal(uint id) {\n        require(id > 0 && id <= _countProposals, \"Voting: proposal does not exist\");\n        _;\n    }\n\n    constructor () public {\n        uint quorumPct = 20 * 1000;\n        uint supportPct = 50 * 1000 + 1;\n        _proposalConfigs[uint8(ProposalUpdater.Nothing)] = ProposalConfig(quorumPct, supportPct);\n        emit UpdatedProposalConfig(ProposalUpdater.Nothing, quorumPct, supportPct);\n        _proposalConfigs[uint8(ProposalUpdater.Inflation)] = ProposalConfig(quorumPct, supportPct);\n        emit UpdatedProposalConfig(ProposalUpdater.Inflation, quorumPct, supportPct);\n        _proposalConfigs[uint8(ProposalUpdater.Vesting)] = ProposalConfig(quorumPct, supportPct);\n        emit UpdatedProposalConfig(ProposalUpdater.Vesting, quorumPct, supportPct);\n        _proposalConfigs[uint8(ProposalUpdater.CreateProposal)] = ProposalConfig(quorumPct, supportPct);\n        emit UpdatedProposalConfig(ProposalUpdater.CreateProposal, quorumPct, supportPct);\n        _proposalConfigs[uint8(ProposalUpdater.UpdateConfig)] = ProposalConfig(quorumPct, supportPct);\n        emit UpdatedProposalConfig(ProposalUpdater.UpdateConfig, quorumPct, supportPct);\n        _proposalConfigs[uint8(ProposalUpdater.ExecutionTime)] = ProposalConfig(quorumPct, supportPct);\n        emit UpdatedProposalConfig(ProposalUpdater.ExecutionTime, quorumPct, supportPct);\n    }\n\n    // VIEW\n\n    function isOpenProposals() external view returns (bool) {\n        return _everyoneCreateProposal;\n    }\n\n    function minAmountToCreate() external view returns (uint) {\n        return _minAmountToCreate;\n    }\n\n    function executionTime() external view returns (uint) {\n        return _executionTime;\n    }\n\n    function proposalConfigRates(ProposalUpdater conf) external view\n    returns (uint quorumPct, uint supportPct) {\n        quorumPct = _proposalConfigs[uint8(conf)].quorumPct;\n        supportPct = _proposalConfigs[uint8(conf)].supportPct;\n    }\n\n    function availableToCreateProposals(address account) external view returns (bool) {\n        if (hasRole(VOTING_ROLE, account) || hasRole(ADMIN_ROLE, account)) {\n            return true;\n        }\n        if (_everyoneCreateProposal) {\n            uint balance = _Token.balanceOf(account);\n            return balance >= _minAmountToCreate;\n        }\n        return false;\n    }\n\n    function depositedForProposal(address creator, uint issueId) external view\n    returns (uint)\n    {\n        return _deposited[creator][issueId];\n    }\n\n    function getNewestProposal() external view\n    returns (\n        uint issueId,\n        string memory title,\n        ProposalType votingType,\n        ProposalUpdater votingUpdater\n    ) {\n        issueId = _countProposals;\n        title = _proposals[issueId].title;\n        votingType = _proposals[issueId].votingType;\n        votingUpdater = _proposals[issueId].votingUpdater;\n    }\n\n    function countProposals() external view returns (uint) {\n        return _countProposals;\n    }\n\n    function issueDescription(uint256 issueId) external view\n    hasProposal(issueId)// override\n    returns (string memory) {\n        return _proposals[issueId].description;\n    }\n\n    function countOptions(uint issueId) external view\n    hasProposal(issueId)// override\n    returns (uint) {\n        return _proposals[issueId].options.length;\n    }\n\n    function optionName(uint issueId, uint option) external view\n    hasProposal(issueId)// override\n    returns (string memory) {\n        require(_proposals[issueId].options.length > option, \"Voting: out of indexes\");\n        return _proposals[issueId].options[option].name;\n    }\n\n    function optionInfo(uint issueId, uint option) external view\n    hasProposal(issueId)// override\n    returns (string memory name, uint256 count, uint256 weight) {\n        require(_proposals[issueId].options.length > option, \"Voting: out of indexes\");\n        ProposalOption storage opt = _proposals[issueId].options[option];\n        name = opt.name;\n        count = opt.count;\n        weight = opt.weight;\n    }\n\n    function ballotOf(uint issueId, address addr) external view\n    hasProposal(issueId)// override\n    returns (uint) {\n        return _voted[addr][issueId].option;\n    }\n\n    function weightOf(uint issueId, address addr) external view\n    hasProposal(issueId)// override\n    returns (uint) {\n        return _voted[addr][issueId].amount;\n    }\n\n    function weightedVoteCountsOf(uint issueId, uint option) external view\n    hasProposal(issueId)// override\n    returns (uint) {\n        return _proposals[issueId].options[option].count;\n    }\n\n    function proposalInfo(uint issueId) external view\n    returns (\n        string memory title,\n        ProposalType votingType,\n        ProposalUpdater votingUpdater,\n        uint nay,\n        uint yea,\n        uint totalVotingPower,\n        bool hasQuorum,\n        bool accepted,\n        uint expiryTime\n    ) {\n        ProposalInfo memory info = _proposalInfo(issueId);\n        title = info.title;\n        votingType = info.votingType;\n        votingUpdater = info.votingUpdater;\n        nay = info.nay;\n        yea = info.yea;\n        hasQuorum = info.hasQuorum;\n        accepted = info.accepted;\n        expiryTime = info.expiryTime;\n\n        Proposal memory proposal = _proposals[issueId];\n        totalVotingPower = proposal.totalVotingPower;\n    }\n\n    function proposalConfig(uint issueId) external view\n    returns (\n        address creator,\n        uint quorumPct,\n        uint supportPct,\n        uint voters,\n        string memory updateData,\n        bool executed\n    ) {\n        ProposalInfoConfig memory info = _proposalConfig(issueId);\n        creator = info.creator;\n        quorumPct = info.quorumPct;\n        supportPct = info.supportPct;\n        voters = info.voters;\n        updateData = info.updateData;\n        executed = info.executed;\n    }\n\n    // EXTERNAL\n\n    function createProposalAvailability(bool isAvailable, uint minStaked) external {\n        require(hasRole(VOTING_ROLE, msg.sender) || hasRole(ADMIN_ROLE, msg.sender), \"Voting: you do not have permission\");\n        _everyoneCreateProposal = isAvailable;\n        _minAmountToCreate = minStaked;\n        emit SetProposalAvailability(isAvailable, minStaked);\n    }\n\n    function newProposal(\n        string calldata title,\n        string calldata description,\n        uint expiryTime,\n        string calldata updateData,\n        ProposalUpdater votingUpdater\n    ) external canCreateProposals {\n        require(bytes(title).length > 0, \"Voting: empty title\");\n        require(expiryTime > _timestamp(), \"Voting: time must be bigger than current\");\n\n        _countProposals++;\n\n        _delegateTokens(_countProposals);\n\n        Proposal storage proposal = _proposals[_countProposals];\n        ProposalConfig memory conf = _proposalConfigs[uint8(votingUpdater)];\n\n        proposal.creator = msg.sender;\n        proposal.title = title;\n        proposal.description = description;\n        proposal.quorumPct = conf.quorumPct;\n        proposal.supportPct = conf.supportPct;\n        proposal.expiryTime = expiryTime;\n        proposal.votingType = ProposalType.Native;\n        proposal.votingUpdater = votingUpdater;\n\n        if (votingUpdater != ProposalUpdater.Nothing) {\n            require(updaterValidateData(votingUpdater, updateData), \"Voting: incorrect updating data\");\n            proposal.updateData = updateData;\n        }\n\n        proposal.options.push(ProposalOption('nay', 0, 0));\n        proposal.options.push(ProposalOption('yea', 0, 0));\n\n        emit NewProposal(_countProposals, msg.sender, ProposalType.Native, votingUpdater);\n    }\n\n    function newMultiProposal(\n        string calldata title,\n        string calldata description,\n        uint expiryTime,\n        string[] calldata options,\n        ProposalUpdater votingUpdater\n    ) external canCreateProposals {\n        require(bytes(title).length > 0, \"Voting: empty title\");\n        require(expiryTime > _timestamp(), \"Voting: time must be bigger than current\");\n        require(options.length > 1, \"Voting: must be at least two options\");\n\n        _countProposals++;\n\n        _delegateTokens(_countProposals);\n\n        Proposal storage proposal = _proposals[_countProposals];\n        ProposalConfig memory conf = _proposalConfigs[uint8(votingUpdater)];\n\n        proposal.creator = msg.sender;\n        proposal.title = title;\n        proposal.description = description;\n        proposal.quorumPct = conf.quorumPct;\n        proposal.supportPct = conf.supportPct;\n        proposal.expiryTime = expiryTime;\n        proposal.votingType = ProposalType.Multi;\n        proposal.votingUpdater = votingUpdater;\n\n        proposal.options.push(ProposalOption(\"Skip\", 0, 0));\n        for (uint i = 0; i < options.length; i++) {\n            if (votingUpdater != ProposalUpdater.Nothing) {\n                require(updaterValidateData(votingUpdater, options[i]), \"Voting: incorrect updating data\");\n            }\n            proposal.options.push(ProposalOption(options[i], 0, 0));\n        }\n\n        emit NewProposal(_countProposals, msg.sender, ProposalType.Multi, votingUpdater);\n    }\n\n    function vote(uint issueId, bytes4 option) external\n    hasProposal(issueId)// override\n    returns (bool) {\n        bytes4 yea = bytes4(\"yea\");\n        bytes4 nay = bytes4(\"nay\");\n        require(option == yea || option == nay, \"Voting: you should say yea or nay\");\n        require(_proposals[issueId].votingType == ProposalType.Native, \"Voting: please choose an option by index\");\n        uint optionId = 0;\n        if (option == yea) optionId = 1;\n        return _vote(issueId, optionId);\n    }\n\n    function vote(uint issueId, uint option) external\n    hasProposal(issueId)// override\n    returns (bool) {\n        Proposal memory proposal = _proposals[issueId];\n        require(proposal.options.length > option, \"Voting: out of indexes\");\n        return _vote(issueId, option);\n    }\n\n    function execProposal(uint issueId) external {\n        ProposalInfoConfig memory infoConfig = _proposalConfig(issueId);\n        require(infoConfig.creator == msg.sender || hasRole(VOTING_ROLE, msg.sender) || hasRole(ADMIN_ROLE, msg.sender), \"Voting: you do not have permission\");\n        require(!infoConfig.executed, \"Voting: already executed\");\n\n        ProposalInfo memory info = _proposalInfo(issueId);\n        require(info.votingUpdater != ProposalUpdater.Nothing, \"Voting: this proposal is not executable\");\n        require(info.expiryTime < _timestamp(), \"Voting: voting period is not finished yet\");\n        require(info.expiryTime + _executionTime > _timestamp(), \"Voting: execution time is expired\");\n        require(info.accepted, \"Voting: this proposal it not accepted\");\n        require(_executedProposal[uint8(info.votingUpdater)] <= issueId, \"Voting: denied to execute the replaced proposal\");\n\n        string memory updateData;\n        if (info.votingType == ProposalType.Multi) {\n            updateData = _proposals[issueId].options[info.maxIndex].name;\n        } else {\n            updateData = infoConfig.updateData;\n        }\n\n        if (info.votingUpdater == ProposalUpdater.Inflation) {\n            _Token.updateInflation(issueId, parseInt(updateData));\n        } else if (info.votingUpdater == ProposalUpdater.Vesting) {\n            _Token.updateVesting(issueId, parseInt(updateData));\n        } else if (info.votingUpdater == ProposalUpdater.CreateProposal) {\n            _minAmountToCreate = parseInt(updateData);\n        } else if (info.votingUpdater == ProposalUpdater.UpdateConfig) {\n            bytes memory _bytes = bytes(updateData);\n            bytes memory confId = new bytes(1);\n            bytes memory quorumPctBts = new bytes(6);\n            bytes memory supportPctBts = new bytes(6);\n            require(_bytes.length == 13);\n            for(uint i = 0; i < _bytes.length; i++){\n                if (i < 1) {\n                    confId[0] = _bytes[0];\n                } else if (i < 7) {\n                    quorumPctBts[i - 1] = _bytes[i];\n                } else {\n                    supportPctBts[i - 7] = _bytes[i];\n                }\n            }\n            uint256 quorumPct = parseInt(string(quorumPctBts));\n            uint256 supportPct = parseInt(string(supportPctBts));\n            _proposalConfigs[uint8(parseInt(string(confId)))] = ProposalConfig(quorumPct, supportPct);\n        } else if (info.votingUpdater == ProposalUpdater.ExecutionTime) {\n            _executionTime = parseInt(updateData);\n        }\n\n        _proposals[issueId].executed = true;\n        _executedProposal[uint8(info.votingUpdater)] = issueId;\n\n        emit ExecProposal(issueId, info.votingUpdater, msg.sender);\n    }\n\n    function redeemDepositFromProposal(uint issueId) external\n    hasProposal(issueId)\n    {\n        require(_proposals[issueId].creator == msg.sender, \"Voting: you do not have permission\");\n        require(_deposited[msg.sender][issueId] > 0, \"Voting: empty deposit\");\n\n        ProposalInfo memory info = _proposalInfo(issueId);\n        require(info.expiryTime < _timestamp(), \"Voting: voting period is not finished yet\");\n        require(info.accepted, \"Voting: this proposal it not accepted\");\n\n        _redeemTokens(issueId);\n    }\n\n    function burnLostTokens() external onlyOwner\n    {\n        uint total;\n        for (uint issueId = 1; issueId <= _countProposals; issueId++) {\n            address creator = _proposals[issueId].creator;\n            uint amount = _deposited[creator][issueId];\n            if (amount > 0) {\n                ProposalInfo memory info = _proposalInfo(issueId);\n                if (!info.accepted && info.expiryTime < _timestamp()) {\n                    total += amount;\n                    _deposited[creator][issueId] = 0;\n                }\n            }\n        }\n        if (total > 0) {\n            _Token.redeemFromDAO(address(this), total);\n            _Token.burn(total);\n        }\n    }\n\n    // TOKEN ONLY\n\n    function updatedStake(address holder) external {\n        require(msg.sender == address(_Token));\n        if (_holderActiveVotes[holder].length == 0) return;\n        \n        uint[] memory list = _holderActiveVotes[holder];\n        uint supply = _Token.lockedSupply();\n        uint tokens = _Token.lockedBalanceOf(holder);\n        uint skipNum;\n        for (uint i; i < list.length; i++) {\n            uint issueId = list[i];\n            Proposal storage proposal = _proposals[issueId];\n            if (proposal.expiryTime < _timestamp()) {\n                skipNum++;\n                list[i] = 0;\n                continue;\n            }\n            GotVote storage aVote = _voted[holder][issueId];\n            if (tokens == 0) {\n                proposal.voters--;\n                proposal.totalVotingPower -= aVote.amount;\n                proposal.options[aVote.option].weight -= aVote.amount;\n                proposal.options[aVote.option].count--;\n                aVote.amount = 0;\n                proposal.hasQuorum = proposal.totalVotingPower * 100000 / supply >= proposal.quorumPct;\n                \n                skipNum++;\n                list[i] = 0;\n                continue;\n            }\n            if (aVote.amount > tokens) {\n                proposal.options[aVote.option].weight -= aVote.amount - tokens;\n            } else {\n                proposal.options[aVote.option].weight += tokens - aVote.amount;\n            }\n            aVote.amount = tokens;\n            proposal.hasQuorum = proposal.totalVotingPower * 100000 / supply >= proposal.quorumPct;\n        }\n\n        if (skipNum > 0) {\n            if (skipNum == _holderActiveVotes[holder].length) {\n                _holderActiveVotes[holder] = new uint[](0);\n            } else {\n                uint[] memory resetList = new uint[](_holderActiveVotes[holder].length - skipNum);\n                uint newIndex;\n                for (uint i; i < list.length; i++) {\n                    uint issueId = list[i];\n                    if (issueId > 0) {\n                        resetList[newIndex] = issueId;\n                        newIndex++;\n                    }\n                }\n                _holderActiveVotes[holder] = resetList;\n            }\n        }\n    }\n\n    // PUBLIC UTILS\n\n    function parseInt(\n        string memory _value\n    ) public pure returns (uint _ret) {\n        bytes memory _bytesValue = bytes(_value);\n        uint j = 1;\n        for(uint i = _bytesValue.length-1; i >= 0 && i < _bytesValue.length; i--) {\n            assert(uint8(_bytesValue[i]) >= 48 && uint8(_bytesValue[i]) <= 57);\n            _ret += (uint8(_bytesValue[i]) - 48)*j;\n            j*=10;\n        }\n    }\n\n    function updaterValidateData(\n        ProposalUpdater votingUpdater,\n        string memory updateData\n    ) public pure returns (bool) {\n        if (votingUpdater == ProposalUpdater.Nothing) return true;\n        if (votingUpdater == ProposalUpdater.Inflation) {\n            uint value = parseInt(updateData);\n            return value >= 200 && value < 3000;\n        } else if (votingUpdater == ProposalUpdater.Vesting) {\n            uint value = parseInt(updateData);\n            return value >= 10 && value <= 90;\n        } else if (votingUpdater == ProposalUpdater.CreateProposal) {\n            uint value = parseInt(updateData);\n            return value > 0;\n        } else if (votingUpdater == ProposalUpdater.UpdateConfig) {\n            bytes memory _bytes = bytes(updateData);\n            require(_bytes.length == 13);\n            bytes memory confId = new bytes(1);\n            bytes memory quorumPctBts = new bytes(6);\n            bytes memory supportPctBts = new bytes(6);\n            for(uint i = 0; i < _bytes.length; i++){\n                if (i < 1) {\n                    confId[0] = _bytes[0];\n                } else if (i < 7) {\n                    quorumPctBts[i - 1] = _bytes[i];\n                } else {\n                    supportPctBts[i - 7] = _bytes[i];\n                }\n            }\n            uint quorumPct = parseInt(string(quorumPctBts));\n            uint supportPct = parseInt(string(supportPctBts));\n            bool res = quorumPct > 0 && quorumPct <= 100*1000;\n            res = res && supportPct > 0 && supportPct <= 100*1000;\n            res = res && uint8(parseInt(string(confId))) <= uint8(ProposalUpdater.UpdateConfig);\n            return res;\n        } else if (votingUpdater == ProposalUpdater.ExecutionTime) {\n            return parseInt(updateData) >= 1 days;\n        }\n        return false;\n    }\n\n    // INTERNAL\n\n    function _proposalInfo(uint issueId) internal view\n    hasProposal(issueId)\n    returns (\n        ProposalInfo memory info\n    ) {\n        Proposal memory proposal = _proposals[issueId];\n\n        info.title = proposal.title;\n        info.votingType = proposal.votingType;\n        info.votingUpdater = proposal.votingUpdater;\n        info.expiryTime = proposal.expiryTime;\n        info.hasQuorum = proposal.hasQuorum;\n\n        if(info.votingType == ProposalType.Native){\n            info.nay = proposal.options[0].weight;\n            info.yea = proposal.options[1].weight;\n            if (info.expiryTime < _timestamp() && info.hasQuorum) {\n                info.accepted = proposal.supportPct <= (info.yea * 100000 / proposal.totalVotingPower);\n            } else {\n                info.accepted = false;\n            }\n        } else {\n            if (info.expiryTime < _timestamp() && info.hasQuorum) {\n                uint maxWeight;\n                for (uint i = 0; i < proposal.options.length; i++) {\n                    ProposalOption memory option = proposal.options[i];\n                    if (option.weight > maxWeight) {\n                        info.maxIndex = i;\n                        maxWeight = option.weight;\n                        if (info.tie) info.tie = false;\n                    } else if (option.weight == maxWeight) {\n                        info.tie = true;\n                    }\n                }\n                info.accepted = !info.tie && info.maxIndex > 0;\n            } else {\n                info.accepted = false;\n            }\n        }\n    }\n\n    function _proposalConfig(uint issueId) internal view\n    hasProposal(issueId)\n    returns (\n        ProposalInfoConfig memory info\n    ) {\n        Proposal memory proposal = _proposals[issueId];\n\n        info.creator = proposal.creator;\n        info.quorumPct = proposal.quorumPct;\n        info.supportPct = proposal.supportPct;\n        info.voters = proposal.voters;\n        info.updateData = proposal.updateData;\n        info.executed = proposal.executed;\n    }\n\n    // PRIVATE\n\n    function _vote(uint issueId, uint option) private\n    hasProposal(issueId)\n    returns (bool)\n    {\n        Proposal storage proposal = _proposals[issueId];\n        if (proposal.expiryTime < _timestamp()) return false;\n        address sender = msg.sender;\n        uint256 tokens = _Token.lockedBalanceOf(sender);\n        require(tokens > 0, \"Voting: you have to lock your tokens before\");\n        require(_voted[sender][issueId].amount == 0, \"Voting: you have already voted\");\n\n        _voted[sender][issueId] = GotVote(option, tokens);\n\n        proposal.voters++;\n        proposal.totalVotingPower += tokens;\n        proposal.options[option].count++;\n        proposal.options[option].weight += tokens;\n\n        if (!proposal.hasQuorum) {\n            uint quorumRctNow = proposal.totalVotingPower * 100000 / _Token.lockedSupply();\n\n            if (quorumRctNow >= proposal.quorumPct) {\n                proposal.hasQuorum = true;\n            }\n        }\n\n        _holderActiveVotes[msg.sender].push(issueId);\n\n        emit OnVote(issueId, sender, option, tokens);\n\n        return true;\n    }\n\n    function _delegateTokens(uint issueId) private {\n        if (hasRole(VOTING_ROLE, msg.sender) || hasRole(ADMIN_ROLE, msg.sender)) return;\n        _deposited[msg.sender][issueId] = _minAmountToCreate;\n        _Token.delegateToDAO(msg.sender, _minAmountToCreate);\n    }\n\n    function _redeemTokens(uint issueId) private {\n        if (hasRole(VOTING_ROLE, msg.sender) || hasRole(ADMIN_ROLE, msg.sender)) return;\n        _Token.redeemFromDAO(msg.sender, _deposited[msg.sender][issueId]);\n        _deposited[msg.sender][issueId] = 0;\n    }\n\n}\n",
  "sourcePath": "/home/pirat/Desktop/DAO_update/fix_dao/contracts/DAO/Voting.sol",
  "compiler": {
    "name": "solc",
    "version": "0.6.2+commit.bacdbe57.Emscripten.clang"
  },
  "schemaVersion": "3.4.3",
  "updatedAt": "2022-06-28T15:23:34.849Z",
  "devdoc": {
    "methods": {
      "getRoleAdmin(bytes32)": {
        "details": "Returns the admin role that controls `role`. See {grantRole} and {revokeRole}.     * To change a role's admin, use {_setRoleAdmin}."
      },
      "getRoleMember(bytes32,uint256)": {
        "details": "Returns one of the accounts that have `role`. `index` must be a value between 0 and {getRoleMemberCount}, non-inclusive.     * Role bearers are not sorted in any particular way, and their ordering may change at any point.     * WARNING: When using {getRoleMember} and {getRoleMemberCount}, make sure you perform all queries on the same block. See the following https://forum.openzeppelin.com/t/iterating-over-elements-on-enumerableset-in-openzeppelin-contracts/2296[forum post] for more information."
      },
      "getRoleMemberCount(bytes32)": {
        "details": "Returns the number of accounts that have `role`. Can be used together with {getRoleMember} to enumerate all bearers of a role."
      },
      "grantRole(bytes32,address)": {
        "details": "Grants `role` to `account`.     * If `account` had not been already granted `role`, emits a {RoleGranted} event.     * Requirements:     * - the caller must have ``role``'s admin role."
      },
      "hasRole(bytes32,address)": {
        "details": "Returns `true` if `account` has been granted `role`."
      },
      "owner()": {
        "details": "Returns the address of the current owner."
      },
      "renounceOwnership()": {
        "details": "Leaves the contract without owner. It will not be possible to call `onlyOwner` functions anymore. Can only be called by the current owner.     * NOTE: Renouncing ownership will leave the contract without an owner, thereby removing any functionality that is only available to the owner."
      },
      "renounceRole(bytes32,address)": {
        "details": "Revokes `role` from the calling account.     * Roles are often managed via {grantRole} and {revokeRole}: this function's purpose is to provide a mechanism for accounts to lose their privileges if they are compromised (such as when a trusted device is misplaced).     * If the calling account had been granted `role`, emits a {RoleRevoked} event.     * Requirements:     * - the caller must be `account`."
      },
      "revokeRole(bytes32,address)": {
        "details": "Revokes `role` from `account`.     * If `account` had been granted `role`, emits a {RoleRevoked} event.     * Requirements:     * - the caller must have ``role``'s admin role."
      },
      "transferOwnership(address)": {
        "details": "Transfers ownership of the contract to a new account (`newOwner`). Can only be called by the current owner."
      }
    }
  },
  "userdoc": {
    "methods": {}
  }
}