{
  "contractName": "Voting",
  "abi": [
    {
      "inputs": [],
      "stateMutability": "nonpayable",
      "type": "constructor"
    },
    {
      "anonymous": false,
      "inputs": [
        {
          "indexed": true,
          "internalType": "uint256",
          "name": "issueId",
          "type": "uint256"
        },
        {
          "indexed": true,
          "internalType": "address",
          "name": "initialized",
          "type": "address"
        }
      ],
      "name": "ExecProposal",
      "type": "event"
    },
    {
      "anonymous": false,
      "inputs": [
        {
          "indexed": true,
          "internalType": "uint256",
          "name": "issueId",
          "type": "uint256"
        },
        {
          "indexed": true,
          "internalType": "address",
          "name": "creator",
          "type": "address"
        },
        {
          "indexed": false,
          "internalType": "string",
          "name": "title",
          "type": "string"
        },
        {
          "indexed": true,
          "internalType": "enum Voting.ProposalType",
          "name": "votingType",
          "type": "uint8"
        },
        {
          "indexed": false,
          "internalType": "enum Voting.ProposalUpdater",
          "name": "votingUpdater",
          "type": "uint8"
        },
        {
          "indexed": false,
          "internalType": "uint256",
          "name": "quorumPct",
          "type": "uint256"
        },
        {
          "indexed": false,
          "internalType": "uint256",
          "name": "supportPct",
          "type": "uint256"
        },
        {
          "indexed": false,
          "internalType": "uint256",
          "name": "expiryTime",
          "type": "uint256"
        }
      ],
      "name": "NewProposal",
      "type": "event"
    },
    {
      "anonymous": false,
      "inputs": [
        {
          "indexed": true,
          "internalType": "uint256",
          "name": "issueId",
          "type": "uint256"
        },
        {
          "indexed": true,
          "internalType": "address",
          "name": "from",
          "type": "address"
        },
        {
          "indexed": true,
          "internalType": "uint256",
          "name": "option",
          "type": "uint256"
        },
        {
          "indexed": false,
          "internalType": "uint256",
          "name": "weight",
          "type": "uint256"
        }
      ],
      "name": "OnVote",
      "type": "event"
    },
    {
      "anonymous": false,
      "inputs": [
        {
          "indexed": true,
          "internalType": "address",
          "name": "previousOwner",
          "type": "address"
        },
        {
          "indexed": true,
          "internalType": "address",
          "name": "newOwner",
          "type": "address"
        }
      ],
      "name": "OwnershipTransferred",
      "type": "event"
    },
    {
      "anonymous": false,
      "inputs": [
        {
          "indexed": true,
          "internalType": "bytes32",
          "name": "role",
          "type": "bytes32"
        },
        {
          "indexed": true,
          "internalType": "bytes32",
          "name": "previousAdminRole",
          "type": "bytes32"
        },
        {
          "indexed": true,
          "internalType": "bytes32",
          "name": "newAdminRole",
          "type": "bytes32"
        }
      ],
      "name": "RoleAdminChanged",
      "type": "event"
    },
    {
      "anonymous": false,
      "inputs": [
        {
          "indexed": true,
          "internalType": "bytes32",
          "name": "role",
          "type": "bytes32"
        },
        {
          "indexed": true,
          "internalType": "address",
          "name": "account",
          "type": "address"
        },
        {
          "indexed": true,
          "internalType": "address",
          "name": "sender",
          "type": "address"
        }
      ],
      "name": "RoleGranted",
      "type": "event"
    },
    {
      "anonymous": false,
      "inputs": [
        {
          "indexed": true,
          "internalType": "bytes32",
          "name": "role",
          "type": "bytes32"
        },
        {
          "indexed": true,
          "internalType": "address",
          "name": "account",
          "type": "address"
        },
        {
          "indexed": true,
          "internalType": "address",
          "name": "sender",
          "type": "address"
        }
      ],
      "name": "RoleRevoked",
      "type": "event"
    },
    {
      "anonymous": false,
      "inputs": [
        {
          "indexed": true,
          "internalType": "enum Voting.ProposalUpdater",
          "name": "updater",
          "type": "uint8"
        },
        {
          "indexed": false,
          "internalType": "uint256",
          "name": "quorumPct",
          "type": "uint256"
        },
        {
          "indexed": false,
          "internalType": "uint256",
          "name": "supportPct",
          "type": "uint256"
        }
      ],
      "name": "UpdatedProposalConfig",
      "type": "event"
    },
    {
      "inputs": [],
      "name": "ADMIN_ROLE",
      "outputs": [
        {
          "internalType": "bytes32",
          "name": "",
          "type": "bytes32"
        }
      ],
      "stateMutability": "view",
      "type": "function"
    },
    {
      "inputs": [],
      "name": "DEFAULT_ADMIN_ROLE",
      "outputs": [
        {
          "internalType": "bytes32",
          "name": "",
          "type": "bytes32"
        }
      ],
      "stateMutability": "view",
      "type": "function"
    },
    {
      "inputs": [],
      "name": "VOTING_ROLE",
      "outputs": [
        {
          "internalType": "bytes32",
          "name": "",
          "type": "bytes32"
        }
      ],
      "stateMutability": "view",
      "type": "function"
    },
    {
      "inputs": [
        {
          "internalType": "address",
          "name": "account",
          "type": "address"
        }
      ],
      "name": "addAdmin",
      "outputs": [],
      "stateMutability": "nonpayable",
      "type": "function"
    },
    {
      "inputs": [
        {
          "internalType": "bytes32",
          "name": "role",
          "type": "bytes32"
        }
      ],
      "name": "getRoleAdmin",
      "outputs": [
        {
          "internalType": "bytes32",
          "name": "",
          "type": "bytes32"
        }
      ],
      "stateMutability": "view",
      "type": "function"
    },
    {
      "inputs": [
        {
          "internalType": "bytes32",
          "name": "role",
          "type": "bytes32"
        },
        {
          "internalType": "uint256",
          "name": "index",
          "type": "uint256"
        }
      ],
      "name": "getRoleMember",
      "outputs": [
        {
          "internalType": "address",
          "name": "",
          "type": "address"
        }
      ],
      "stateMutability": "view",
      "type": "function"
    },
    {
      "inputs": [
        {
          "internalType": "bytes32",
          "name": "role",
          "type": "bytes32"
        }
      ],
      "name": "getRoleMemberCount",
      "outputs": [
        {
          "internalType": "uint256",
          "name": "",
          "type": "uint256"
        }
      ],
      "stateMutability": "view",
      "type": "function"
    },
    {
      "inputs": [
        {
          "internalType": "bytes32",
          "name": "role",
          "type": "bytes32"
        },
        {
          "internalType": "address",
          "name": "account",
          "type": "address"
        }
      ],
      "name": "grantRole",
      "outputs": [],
      "stateMutability": "nonpayable",
      "type": "function"
    },
    {
      "inputs": [
        {
          "internalType": "bytes32",
          "name": "role",
          "type": "bytes32"
        },
        {
          "internalType": "address",
          "name": "account",
          "type": "address"
        }
      ],
      "name": "hasRole",
      "outputs": [
        {
          "internalType": "bool",
          "name": "",
          "type": "bool"
        }
      ],
      "stateMutability": "view",
      "type": "function"
    },
    {
      "inputs": [],
      "name": "owner",
      "outputs": [
        {
          "internalType": "address",
          "name": "",
          "type": "address"
        }
      ],
      "stateMutability": "view",
      "type": "function"
    },
    {
      "inputs": [],
      "name": "renounceOwnership",
      "outputs": [],
      "stateMutability": "nonpayable",
      "type": "function"
    },
    {
      "inputs": [
        {
          "internalType": "bytes32",
          "name": "role",
          "type": "bytes32"
        },
        {
          "internalType": "address",
          "name": "account",
          "type": "address"
        }
      ],
      "name": "renounceRole",
      "outputs": [],
      "stateMutability": "nonpayable",
      "type": "function"
    },
    {
      "inputs": [
        {
          "internalType": "bytes32",
          "name": "role",
          "type": "bytes32"
        },
        {
          "internalType": "address",
          "name": "account",
          "type": "address"
        }
      ],
      "name": "revokeRole",
      "outputs": [],
      "stateMutability": "nonpayable",
      "type": "function"
    },
    {
      "inputs": [
        {
          "internalType": "address",
          "name": "newOwner",
          "type": "address"
        }
      ],
      "name": "transferOwnership",
      "outputs": [],
      "stateMutability": "nonpayable",
      "type": "function"
    },
    {
      "inputs": [],
      "name": "minAmountToCreate",
      "outputs": [
        {
          "internalType": "uint256",
          "name": "",
          "type": "uint256"
        }
      ],
      "stateMutability": "view",
      "type": "function"
    },
    {
      "inputs": [
        {
          "internalType": "enum Voting.ProposalUpdater",
          "name": "conf",
          "type": "uint8"
        }
      ],
      "name": "proposalConfigRates",
      "outputs": [
        {
          "internalType": "uint256",
          "name": "quorumPct",
          "type": "uint256"
        },
        {
          "internalType": "uint256",
          "name": "supportPct",
          "type": "uint256"
        }
      ],
      "stateMutability": "view",
      "type": "function"
    },
    {
      "inputs": [
        {
          "internalType": "bool",
          "name": "isAvailable",
          "type": "bool"
        },
        {
          "internalType": "uint256",
          "name": "minStaked",
          "type": "uint256"
        }
      ],
      "name": "createProposalAvailability",
      "outputs": [],
      "stateMutability": "nonpayable",
      "type": "function"
    },
    {
      "inputs": [],
      "name": "availableToCreateProposals",
      "outputs": [
        {
          "internalType": "bool",
          "name": "",
          "type": "bool"
        }
      ],
      "stateMutability": "view",
      "type": "function"
    },
    {
      "inputs": [
        {
          "internalType": "string",
          "name": "title",
          "type": "string"
        },
        {
          "internalType": "string",
          "name": "description",
          "type": "string"
        },
        {
          "internalType": "uint256",
          "name": "expiryTime",
          "type": "uint256"
        },
        {
          "internalType": "enum Voting.ProposalUpdater",
          "name": "votingUpdater",
          "type": "uint8"
        },
        {
          "internalType": "string",
          "name": "updateData",
          "type": "string"
        }
      ],
      "name": "newProposal",
      "outputs": [],
      "stateMutability": "nonpayable",
      "type": "function"
    },
    {
      "inputs": [
        {
          "internalType": "string",
          "name": "title",
          "type": "string"
        },
        {
          "internalType": "string",
          "name": "description",
          "type": "string"
        },
        {
          "internalType": "uint256",
          "name": "expiryTime",
          "type": "uint256"
        },
        {
          "internalType": "string[]",
          "name": "options",
          "type": "string[]"
        },
        {
          "internalType": "enum Voting.ProposalUpdater",
          "name": "votingUpdater",
          "type": "uint8"
        }
      ],
      "name": "newMultiProposal",
      "outputs": [],
      "stateMutability": "nonpayable",
      "type": "function"
    },
    {
      "inputs": [
        {
          "internalType": "uint256",
          "name": "issueId",
          "type": "uint256"
        }
      ],
      "name": "execProposal",
      "outputs": [],
      "stateMutability": "nonpayable",
      "type": "function"
    },
    {
      "inputs": [
        {
          "internalType": "string",
          "name": "_value",
          "type": "string"
        }
      ],
      "name": "parseInt",
      "outputs": [
        {
          "internalType": "uint256",
          "name": "_ret",
          "type": "uint256"
        }
      ],
      "stateMutability": "pure",
      "type": "function"
    },
    {
      "inputs": [],
      "name": "getNewestProposal",
      "outputs": [
        {
          "internalType": "uint256",
          "name": "issueId",
          "type": "uint256"
        },
        {
          "internalType": "string",
          "name": "title",
          "type": "string"
        },
        {
          "internalType": "enum Voting.ProposalType",
          "name": "votingType",
          "type": "uint8"
        },
        {
          "internalType": "enum Voting.ProposalUpdater",
          "name": "votingUpdater",
          "type": "uint8"
        }
      ],
      "stateMutability": "view",
      "type": "function"
    },
    {
      "inputs": [],
      "name": "countProposals",
      "outputs": [
        {
          "internalType": "uint256",
          "name": "",
          "type": "uint256"
        }
      ],
      "stateMutability": "view",
      "type": "function"
    },
    {
      "inputs": [
        {
          "internalType": "uint256",
          "name": "issueId",
          "type": "uint256"
        },
        {
          "internalType": "bytes4",
          "name": "option",
          "type": "bytes4"
        }
      ],
      "name": "vote",
      "outputs": [
        {
          "internalType": "bool",
          "name": "",
          "type": "bool"
        }
      ],
      "stateMutability": "nonpayable",
      "type": "function"
    },
    {
      "inputs": [
        {
          "internalType": "uint256",
          "name": "issueId",
          "type": "uint256"
        },
        {
          "internalType": "uint256",
          "name": "option",
          "type": "uint256"
        }
      ],
      "name": "vote",
      "outputs": [
        {
          "internalType": "bool",
          "name": "",
          "type": "bool"
        }
      ],
      "stateMutability": "nonpayable",
      "type": "function"
    },
    {
      "inputs": [
        {
          "internalType": "uint256",
          "name": "issueId",
          "type": "uint256"
        }
      ],
      "name": "issueDescription",
      "outputs": [
        {
          "internalType": "string",
          "name": "",
          "type": "string"
        }
      ],
      "stateMutability": "view",
      "type": "function"
    },
    {
      "inputs": [
        {
          "internalType": "uint256",
          "name": "issueId",
          "type": "uint256"
        }
      ],
      "name": "countOptions",
      "outputs": [
        {
          "internalType": "uint256",
          "name": "",
          "type": "uint256"
        }
      ],
      "stateMutability": "view",
      "type": "function"
    },
    {
      "inputs": [
        {
          "internalType": "uint256",
          "name": "issueId",
          "type": "uint256"
        },
        {
          "internalType": "uint256",
          "name": "option",
          "type": "uint256"
        }
      ],
      "name": "optionName",
      "outputs": [
        {
          "internalType": "string",
          "name": "",
          "type": "string"
        }
      ],
      "stateMutability": "view",
      "type": "function"
    },
    {
      "inputs": [
        {
          "internalType": "uint256",
          "name": "issueId",
          "type": "uint256"
        },
        {
          "internalType": "uint256",
          "name": "option",
          "type": "uint256"
        }
      ],
      "name": "optionInfo",
      "outputs": [
        {
          "internalType": "string",
          "name": "name",
          "type": "string"
        },
        {
          "internalType": "uint256",
          "name": "count",
          "type": "uint256"
        },
        {
          "internalType": "uint256",
          "name": "weight",
          "type": "uint256"
        }
      ],
      "stateMutability": "view",
      "type": "function"
    },
    {
      "inputs": [
        {
          "internalType": "uint256",
          "name": "issueId",
          "type": "uint256"
        },
        {
          "internalType": "address",
          "name": "addr",
          "type": "address"
        }
      ],
      "name": "ballotOf",
      "outputs": [
        {
          "internalType": "uint256",
          "name": "",
          "type": "uint256"
        }
      ],
      "stateMutability": "view",
      "type": "function"
    },
    {
      "inputs": [
        {
          "internalType": "uint256",
          "name": "issueId",
          "type": "uint256"
        },
        {
          "internalType": "address",
          "name": "addr",
          "type": "address"
        }
      ],
      "name": "weightOf",
      "outputs": [
        {
          "internalType": "uint256",
          "name": "",
          "type": "uint256"
        }
      ],
      "stateMutability": "view",
      "type": "function"
    },
    {
      "inputs": [
        {
          "internalType": "uint256",
          "name": "issueId",
          "type": "uint256"
        },
        {
          "internalType": "uint256",
          "name": "option",
          "type": "uint256"
        }
      ],
      "name": "weightedVoteCountsOf",
      "outputs": [
        {
          "internalType": "uint256",
          "name": "",
          "type": "uint256"
        }
      ],
      "stateMutability": "view",
      "type": "function"
    },
    {
      "inputs": [
        {
          "internalType": "uint256",
          "name": "issueId",
          "type": "uint256"
        }
      ],
      "name": "proposalInfo",
      "outputs": [
        {
          "internalType": "string",
          "name": "title",
          "type": "string"
        },
        {
          "internalType": "enum Voting.ProposalType",
          "name": "votingType",
          "type": "uint8"
        },
        {
          "internalType": "enum Voting.ProposalUpdater",
          "name": "votingUpdater",
          "type": "uint8"
        },
        {
          "internalType": "uint256",
          "name": "nay",
          "type": "uint256"
        },
        {
          "internalType": "uint256",
          "name": "yea",
          "type": "uint256"
        },
        {
          "internalType": "bool",
          "name": "hasQuorum",
          "type": "bool"
        },
        {
          "internalType": "bool",
          "name": "accepted",
          "type": "bool"
        },
        {
          "internalType": "uint256",
          "name": "expiryTime",
          "type": "uint256"
        }
      ],
      "stateMutability": "view",
      "type": "function"
    },
    {
      "inputs": [
        {
          "internalType": "uint256",
          "name": "issueId",
          "type": "uint256"
        }
      ],
      "name": "proposalConfig",
      "outputs": [
        {
          "internalType": "address",
          "name": "creator",
          "type": "address"
        },
        {
          "internalType": "uint256",
          "name": "quorumPct",
          "type": "uint256"
        },
        {
          "internalType": "uint256",
          "name": "supportPct",
          "type": "uint256"
        },
        {
          "internalType": "uint256",
          "name": "voters",
          "type": "uint256"
        },
        {
          "internalType": "string",
          "name": "updateData",
          "type": "string"
        }
      ],
      "stateMutability": "view",
      "type": "function"
    }
  ],
  "bytecode": "0x60806040523480156200001157600080fd5b506000620000276001600160e01b03620001d916565b600080546001600160a01b0319166001600160a01b0383169081178255604051929350917f8be0079c531659141344cd1fd0a4f28419497f9722a3daafe3b4186f6b6457e0908290a350620000b1604051620000839062000246565b6040518091039020604051620000999062000246565b6040519081900390206001600160e01b03620001dd16565b620000c360405162000083906200022f565b60408051808201825261c350808252614e2060208084018281526000808052600890925293517f5eff886ea0ce6ca488a3d6e336d6c0f75f46d19b42c06ce5ee98e42c96d256c75592517f5eff886ea0ce6ca488a3d6e336d6c0f75f46d19b42c06ce5ee98e42c96d256c8559251909291907fa8a1fd55aad9bd98e45291d680690c619e60f7931ecaeb384ba0bfb225cd25fe906200016690859085906200025c565b60405180910390a260408051808201909152918252602080830191825260016000526008905290517fad67d757c34507f157cacfa2e3153e9f260a2244f30428821be7be64587ac55f55517fad67d757c34507f157cacfa2e3153e9f260a2244f30428821be7be64587ac560556200026a565b3390565b600082815260016020526040808220600201549051839285917fbd79b86ffe0ab8e8776151514217cd7cacd52c909f66475c3af44e129f0b00ff9190a460009182526001602052604090912060020155565b6a564f54494e475f524f4c4560a81b8152600b0190565b6941444d494e5f524f4c4560b01b8152600a0190565b918252602082015260400190565b614722806200027a6000396000f3fe608060405234801561001057600080fd5b50600436106102115760003560e01c806375b238fc11610125578063b384abef116100ad578063e0136a791161007c578063e0136a791461046b578063eaac697a14610483578063f0464a2b14610496578063f2fde38b146104a9578063f6621dc3146104bc57610211565b8063b384abef1461042a578063ca15c8731461043d578063d547741f14610450578063d7eefea11461046357610211565b80639010d07c116100f45780639010d07c146103c257806391d14854146103d5578063933c1306146103e8578063a217fddf146103fb578063ae092e891461040357610211565b806375b238fc1461038a578063761bbd8a146103925780638935ced51461039a5780638da5cb5b146103ad57610211565b806346c6211e116101a857806353c2d4791161017757806353c2d47914610336578063637a2e36146103495780636e6a1dc31461035c578063704802751461036f578063715018a61461038257610211565b806346c6211e146102d95780634883a6a8146102e15780634ba241d8146103015780634c461f5a1461032357610211565b806331aab888116101e457806331aab8881461027c57806332ec991c146102a057806336568abe146102b357806342346c5e146102c657610211565b806312a70f0b146102165780631e01a17214610234578063248a9ca3146102545780632f2ff15d14610267575b600080fd5b61021e6104dd565b60405161022b919061400c565b60405180910390f35b610247610242366004613c13565b6104f4565b60405161022b919061406a565b61021e610262366004613c13565b6105d2565b61027a610275366004613c2b565b6105ea565b005b61028f61028a366004613c13565b610632565b60405161022b959493929190613fce565b61021e6102ae366004613ee6565b610674565b61027a6102c1366004613c2b565b6106d3565b61021e6102d4366004613e33565b610715565b61021e6107a4565b6102f46102ef366004613f12565b6107ab565b60405161022b9190614001565b61031461030f366004613c65565b610897565b60405161022b939291906140dc565b61027a610331366004613be4565b6109cf565b61027a610344366004613ca1565b610a34565b61027a610357366004613d7c565b61111c565b61021e61036a366004613c65565b61174a565b61027a61037d366004613bc9565b6117b3565b61027a611808565b61021e611887565b61021e611893565b61021e6103a8366004613ee6565b611899565b6103b56118f4565b60405161022b9190613fba565b6103b56103d0366004613c65565b611903565b6102f46103e3366004613c2b565b61192a565b61027a6103f6366004613c13565b611948565b61021e611f43565b610416610411366004613c13565b611f48565b60405161022b98979695949392919061407d565b6102f4610438366004613c65565b611fac565b61021e61044b366004613c13565b6123a9565b61027a61045e366004613c2b565b6123c0565b6102f46123fa565b6104736124d6565b60405161022b949392919061465c565b610247610491366004613c65565b6125a4565b61021e6104a4366004613c13565b6126c3565b61027a6104b7366004613bc9565b61270b565b6104cf6104ca366004613c86565b6127c1565b60405161022b92919061469c565b6040516104e990613f8d565b604051809103902081565b60608160008111801561050957506004548111155b61052e5760405162461bcd60e51b81526004016105259061429b565b60405180910390fd5b6000838152600360209081526040918290206002908101805484516001821615610100026000190190911692909204601f8101849004840283018401909452838252909290918301828280156105c55780601f1061059a576101008083540402835291602001916105c5565b820191906000526020600020905b8154815290600101906020018083116105a857829003601f168201915b5050505050915050919050565b6000818152600160205260409020600201545b919050565b600082815260016020526040902060020154610608906103e361281d565b6106245760405162461bcd60e51b815260040161052590614143565b61062e8282612821565b5050565b600080600080606061064261391b565b61064b87612890565b8051602082015160408301516060840151608090940151929b919a509850919650945092505050565b60008260008111801561068957506004548111155b6106a55760405162461bcd60e51b81526004016105259061429b565b6001600160a01b038316600090815260076020908152604080832087845290915290205491505b5092915050565b6106db61281d565b6001600160a01b0316816001600160a01b03161461070b5760405162461bcd60e51b8152600401610525906145cc565b61062e8282612ca0565b80516000908290600190600019015b825181101561079c57603083828151811061073b57fe5b016020015160f81c108015906107655750603983828151811061075a57fe5b016020015160f81c11155b61076b57fe5b81603084838151811061077a57fe5b016020015160f81c0360ff16029390930192600a919091029060001901610724565b505050919050565b6006545b90565b6000826000811180156107c057506004548111155b6107dc5760405162461bcd60e51b81526004016105259061429b565b6279656160e81b626e617960e81b6001600160e01b0319851682148061080e57506001600160e01b0319858116908216145b61082a5760405162461bcd60e51b81526004016105259061461b565b60008681526003602081905260408220015460ff16600181111561084a57fe5b146108675760405162461bcd60e51b815260040161052590614317565b60006001600160e01b03198681169084161415610882575060015b61088c8782612d0f565b979650505050505050565b6060600080846000811180156108af57506004548111155b6108cb5760405162461bcd60e51b81526004016105259061429b565b60008681526003602052604090206008015485106108fb5760405162461bcd60e51b815260040161052590614418565b600086815260036020526040812060080180548790811061091857fe5b60009182526020918290206003919091020180546040805160026001841615610100026000190190931692909204601f8101859004850283018501909152808252919350918391908301828280156109b15780601f10610986576101008083540402835291602001916109b1565b820191906000526020600020905b81548152906001019060200180831161099457829003601f168201915b50505050509450806001015493508060020154925050509250925092565b6109ec6040516109de90613f8d565b60405180910390203361192a565b80610a015750610a016040516109de90613fa4565b610a1d5760405162461bcd60e51b815260040161052590614516565b6005805460ff191692151592909217909155600655565b610a436040516109de90613f8d565b80610a585750610a586040516109de90613fa4565b15610da15786610a7a5760405162461bcd60e51b815260040161052590614558565b428411610a995760405162461bcd60e51b815260040161052590614192565b60018211610ab95760405162461bcd60e51b815260040161052590614257565b60048054600101908190556000908152600360205260409020610ada613953565b60086000846003811115610aea57fe5b60ff16815260208082019290925260409081016000208151808301909252805482526001908101549282019290925283546001600160a01b031916331784559150610b389083018b8b61396d565b50610b4760028301898961396d565b508051600583015560208101516007830155600982018690556003808301805460ff1916600117808255859261ff001990911690610100908490811115610b8a57fe5b021790555060005b84811015610d53576000846003811115610ba857fe5b14610c5e57610c4284878784818110610bbd57fe5b602002820190508035601e1936849003018112610bd957600080fd5b9091016020810191503567ffffffffffffffff811115610bf857600080fd5b36819003821315610c0857600080fd5b8080601f01602080910402602001604051908101604052809392919081815260200183838082843760009201919091525061301192505050565b610c5e5760405162461bcd60e51b8152600401610525906143e1565b826008016040518060600160405280888885818110610c7957fe5b602002820190508035601e1936849003018112610c9557600080fd5b9091016020810191503567ffffffffffffffff811115610cb457600080fd5b36819003821315610cc457600080fd5b8080601f016020809104026020016040519081016040528093929190818152602001838380828437600092018290525093855250505060208083018290526040909201819052835460018101855593815281902082518051939460030290910192610d3292849201906139eb565b50602082015160018083019190915560409092015160029091015501610b92565b506001336001600160a01b03166004546000805160206146cd8339815191528d8d88876000015188602001518e604051610d9296959493929190614015565b60405180910390a45050611112565b60055460ff16156110fa57600254604051632c9aab9b60e11b81526000916001600160a01b031690635935573690610ddd903390600401613fba565b60206040518083038186803b158015610df557600080fd5b505afa158015610e09573d6000803e3d6000fd5b505050506040513d601f19601f82011682018060405250610e2d9190810190613ece565b905060065481106110f85787610e555760405162461bcd60e51b815260040161052590614558565b428511610e745760405162461bcd60e51b815260040161052590614192565b60018311610e945760405162461bcd60e51b815260040161052590614257565b60048054600101908190556000908152600360205260409020610eb5613953565b60086000856003811115610ec557fe5b60ff16815260208082019290925260409081016000208151808301909252805482526001908101549282019290925283546001600160a01b031916331784559150610f139083018c8c61396d565b50610f22600283018a8a61396d565b508051600583015560208101516007830155600982018790556003808301805460ff1916600117808255869261ff001990911690610100908490811115610f6557fe5b021790555060005b858110156110a9576000856003811115610f8357fe5b14610fb457610f9885888884818110610bbd57fe5b610fb45760405162461bcd60e51b8152600401610525906143e1565b826008016040518060600160405280898985818110610fcf57fe5b602002820190508035601e1936849003018112610feb57600080fd5b9091016020810191503567ffffffffffffffff81111561100a57600080fd5b3681900382131561101a57600080fd5b8080601f01602080910402602001604051908101604052809392919081815260200183838082843760009201829052509385525050506020808301829052604090920181905283546001810185559381528190208251805193946003029091019261108892849201906139eb565b50602082015160018083019190915560409092015160029091015501610f6d565b506001336001600160a01b03166004546000805160206146cd8339815191528e8e89876000015188602001518f6040516110e896959493929190614015565b60405180910390a4505050611112565b505b60405162461bcd60e51b815260040161052590614516565b5050505050505050565b61112b6040516109de90613f8d565b8061114057506111406040516109de90613fa4565b156113fc57866111625760405162461bcd60e51b815260040161052590614558565b4284116111815760405162461bcd60e51b815260040161052590614192565b600480546001019081905560009081526003602052604090206111a2613953565b600860008660038111156111b257fe5b60ff16815260208082019290925260409081016000208151808301909252805482526001908101549282019290925283546001600160a01b0319163317845591506112009083018b8b61396d565b5061120f60028301898961396d565b508051600583015560208101516007830155600982018690556003808301805460ff1981168255879261ffff199091169061010090849081111561124f57fe5b0217905550600085600381111561126257fe5b146112d3576112a78585858080601f01602080910402602001604051908101604052809392919081815260200183838082843760009201919091525061301192505050565b6112c35760405162461bcd60e51b8152600401610525906143e1565b6112d160048301858561396d565b505b6040805160a081018252600360608201818152626e617960e81b60808401528252600060208084018290529383018190526008860180546001810182559082529084902083518051949592909302019261133092849201906139eb565b50602082810151600180840191909155604093840151600290930192909255825160a0810184526003606082018181526279656160e81b60808401528252600082840181905294820185905260088701805494850181558552938290208151805192959490940201926113a79284929101906139eb565b50602082015160018201556040909101516002909101556000336001600160a01b03166004546000805160206146cd8339815191528d8d8a876000015188602001518e604051610d9296959493929190614015565b60055460ff16156110fa57600254604051632c9aab9b60e11b81526000916001600160a01b031690635935573690611438903390600401613fba565b60206040518083038186803b15801561145057600080fd5b505afa158015611464573d6000803e3d6000fd5b505050506040513d601f19601f820116820180604052506114889190810190613ece565b905060065481106110f857876114b05760405162461bcd60e51b815260040161052590614558565b4285116114cf5760405162461bcd60e51b815260040161052590614192565b600480546001019081905560009081526003602052604090206114f0613953565b6008600087600381111561150057fe5b60ff16815260208082019290925260409081016000208151808301909252805482526001908101549282019290925283546001600160a01b03191633178455915061154e9083018c8c61396d565b5061155d600283018a8a61396d565b508051600583015560208101516007830155600982018790556003808301805460ff1981168255889261ffff199091169061010090849081111561159d57fe5b021790555060008660038111156115b057fe5b14611621576115f58686868080601f01602080910402602001604051908101604052809392919081815260200183838082843760009201919091525061301192505050565b6116115760405162461bcd60e51b8152600401610525906143e1565b61161f60048301868661396d565b505b6040805160a081018252600360608201818152626e617960e81b60808401528252600060208084018290529383018190526008860180546001810182559082529084902083518051949592909302019261167e92849201906139eb565b50602082810151600180840191909155604093840151600290930192909255825160a0810184526003606082018181526279656160e81b60808401528252600082840181905294820185905260088701805494850181558552938290208151805192959490940201926116f59284929101906139eb565b50602082015160018201556040909101516002909101556000336001600160a01b03166004546000805160206146cd8339815191528e8e8b876000015188602001518f6040516110e896959493929190614015565b60008260008111801561175f57506004548111155b61177b5760405162461bcd60e51b81526004016105259061429b565b600084815260036020526040902060080180548490811061179857fe5b90600052602060002090600302016001015491505092915050565b6117bb61281d565b6000546001600160a01b039081169116146117e85760405162461bcd60e51b815260040161052590614498565b6118056040516117f790613fa4565b604051809103902082610624565b50565b61181061281d565b6000546001600160a01b0390811691161461183d5760405162461bcd60e51b815260040161052590614498565b600080546040516001600160a01b03909116907f8be0079c531659141344cd1fd0a4f28419497f9722a3daafe3b4186f6b6457e0908390a3600080546001600160a01b0319169055565b6040516104e990613fa4565b60045490565b6000826000811180156118ae57506004548111155b6118ca5760405162461bcd60e51b81526004016105259061429b565b50506001600160a01b03166000908152600760209081526040808320938352929052206001015490565b6000546001600160a01b031690565b6000828152600160205260408120611921908363ffffffff61326416565b90505b92915050565b6000828152600160205260408120611921908363ffffffff61327016565b611950613a59565b61195982613285565b905061196361391b565b61196c83612890565b80519091506001600160a01b031633148061199157506119916040516109de90613f8d565b806119a657506119a66040516109de90613fa4565b6119c25760405162461bcd60e51b815260040161052590614516565b6000826040015160038111156119d457fe5b14156119f25760405162461bcd60e51b815260040161052590614585565b428260e0015110611a155760405162461bcd60e51b8152600401610525906144cd565b600082602001516001811115611a2757fe5b1415611a4e578160c00151611a4e5760405162461bcd60e51b8152600401610525906142d2565b6060600183602001516001811115611a6257fe5b1415611c855760008080805b600088815260036020526040902060080154811015611ba757611a8f613aa3565b6000898152600360205260409020600801805483908110611aac57fe5b600091825260209182902060408051600393909302909101805460026001821615610100026000190190911604601f8101859004909402830160809081019092526060830184815292939092849290918491840182828015611b4f5780601f10611b2457610100808354040283529160200191611b4f565b820191906000526020600020905b815481529060010190602001808311611b3257829003601f168201915b505050505081526020016001820154815260200160028201548152505090508381604001511115611b8d578194508060400151935060009250611b9e565b8381604001511415611b9e57600192505b50600101611a6e565b508015611bc65760405162461bcd60e51b815260040161052590614220565b6000878152600360205260409020600801805484908110611be357fe5b6000918252602091829020600390910201805460408051601f6002600019610100600187161502019094169390930492830185900485028101850190915281815292830182828015611c765780601f10611c4b57610100808354040283529160200191611c76565b820191906000526020600020905b815481529060010190602001808311611c5957829003601f168201915b50505050509350505050611c8c565b5060808101515b600183604001516003811115611c9e57fe5b1415611d29576000611caf82610715565b60025460405163aa6b3f1160e01b81529192506103e8808404929083028403916001600160a01b03169063aa6b3f1190611cef908590859060040161469c565b600060405180830381600087803b158015611d0957600080fd5b505af1158015611d1d573d6000803e3d6000fd5b50505050505050611f10565b600283604001516003811115611d3b57fe5b1415611d5257611d4a81610715565b600655611f10565b600383604001516003811115611d6457fe5b1415611f105760408051600180825281830190925282916060919060208201818038833950506040805160068082528183019092529293506060929150602082018180388339505060408051600680825281830190925292935060609291506020820181803883390190505090508351600d14611de057600080fd5b60005b8451811015611eab576001811015611e365784600081518110611e0257fe5b602001015160f81c60f81b84600081518110611e1a57fe5b60200101906001600160f81b031916908160001a905350611ea3565b6007811015611e6557848181518110611e4b57fe5b602001015160f81c60f81b836001830381518110611e1a57fe5b848181518110611e7157fe5b602001015160f81c60f81b826007830381518110611e8b57fe5b60200101906001600160f81b031916908160001a9053505b600101611de3565b506000611eb783610715565b90506000611ec483610715565b905060405180604001604052808381526020018281525060086000611ee888610715565b60ff168152602080820192909252604001600020825181559101516001909101555050505050505b604051339085907f3776071a1b606e078d8aec141249d4c30abe813f5e6752afe84d0c6a25f1388b90600090a350505050565b600081565b60606000806000806000806000611f5d613a59565b611f668a613285565b905080600001519850806020015197508060400151965080606001519550806080015194508060a0015193508060c0015192508060e00151915050919395975091939597565b600082600081118015611fc157506004548111155b611fdd5760405162461bcd60e51b81526004016105259061429b565b611fe5613ac4565b60008581526003602090815260409182902082516101a08101845281546001600160a01b03168152600180830180548651600261010094831615949094026000190190911692909204601f810186900486028301860190965285825291949293858101939192919083018282801561209e5780601f106120735761010080835404028352916020019161209e565b820191906000526020600020905b81548152906001019060200180831161208157829003601f168201915b5050509183525050600282810180546040805160206001841615610100026000190190931694909404601f810183900483028501830190915280845293810193908301828280156121305780601f1061210557610100808354040283529160200191612130565b820191906000526020600020905b81548152906001019060200180831161211357829003601f168201915b5050509183525050600382015460209091019060ff16600181111561215157fe5b600181111561215c57fe5b81526020016003820160019054906101000a900460ff16600381111561217e57fe5b600381111561218957fe5b815260048201805460408051602060026001851615610100026000190190941693909304601f81018490048402820184019092528181529382019392918301828280156122175780601f106121ec57610100808354040283529160200191612217565b820191906000526020600020905b8154815290600101906020018083116121fa57829003601f168201915b50505050508152602001600582015481526020016006820160009054906101000a900460ff161515151581526020016007820154815260200160088201805480602002602001604051908101604052809291908181526020016000905b828210156123495760008481526020908190206040805160038602909201805460026001821615610100026000190190911604601f810185900490940283016080908101909252606083018481529293909284929091849184018282801561231d5780601f106122f25761010080835404028352916020019161231d565b820191906000526020600020905b81548152906001019060200180831161230057829003601f168201915b505050505081526020016001820154815260200160028201548152505081526020019060010190612274565b50505050815260200160098201548152602001600a8201548152602001600b8201548152505090508381610120015151116123965760405162461bcd60e51b815260040161052590614418565b6123a08585612d0f565b95945050505050565b600081815260016020526040812061192490613775565b6000828152600160205260409020600201546123de906103e361281d565b61070b5760405162461bcd60e51b815260040161052590614448565b600061240b6040516109de90613f8d565b8061242057506124206040516109de90613fa4565b1561242d575060016107a8565b60055460ff16156124d057600254604051632c9aab9b60e11b81526000916001600160a01b031690635935573690612469903390600401613fba565b60206040518083038186803b15801561248157600080fd5b505afa158015612495573d6000803e3d6000fd5b505050506040513d601f19601f820116820180604052506124b99190810190613ece565b905060065481106124ce5760019150506107a8565b505b50600090565b6004546000818152600360209081526040808320600190810180548351600293821615610100026000190190911692909204601f8101859004850283018501909352828252606094938493908301828280156125735780601f1061254857610100808354040283529160200191612573565b820191906000526020600020905b81548152906001019060200180831161255657829003601f168201915b505050600087815260036020819052604090912001549697929660ff80821697506101009091041694509192505050565b6060826000811180156125b957506004548111155b6125d55760405162461bcd60e51b81526004016105259061429b565b60008481526003602052604090206008015483106126055760405162461bcd60e51b815260040161052590614418565b600084815260036020526040902060080180548490811061262257fe5b6000918252602091829020600390910201805460408051601f60026000196101006001871615020190941693909304928301859004850281018501909152818152928301828280156126b55780601f1061268a576101008083540402835291602001916126b5565b820191906000526020600020905b81548152906001019060200180831161269857829003601f168201915b505050505091505092915050565b6000816000811180156126d857506004548111155b6126f45760405162461bcd60e51b81526004016105259061429b565b505060009081526003602052604090206008015490565b61271361281d565b6000546001600160a01b039081169116146127405760405162461bcd60e51b815260040161052590614498565b6001600160a01b0381166127665760405162461bcd60e51b8152600401610525906141da565b600080546040516001600160a01b03808516939216917f8be0079c531659141344cd1fd0a4f28419497f9722a3daafe3b4186f6b6457e091a3600080546001600160a01b0319166001600160a01b0392909216919091179055565b600080600860008460038111156127d457fe5b60ff1660ff168152602001908152602001600020600001549150600860008460038111156127fe57fe5b60ff1660ff168152602001908152602001600020600101549050915091565b3390565b600082815260016020526040902061283f908263ffffffff61378016565b1561062e5761284c61281d565b6001600160a01b0316816001600160a01b0316837f2f8788117e7eff1d82e926ec794901d17c78024a50270940304540a733656f0d60405160405180910390a45050565b61289861391b565b816000811180156128ab57506004548111155b6128c75760405162461bcd60e51b81526004016105259061429b565b6128cf613ac4565b60008481526003602090815260409182902082516101a08101845281546001600160a01b03168152600180830180548651600261010094831615949094026000190190911692909204601f81018690048602830186019096528582529194929385810193919291908301828280156129885780601f1061295d57610100808354040283529160200191612988565b820191906000526020600020905b81548152906001019060200180831161296b57829003601f168201915b5050509183525050600282810180546040805160206001841615610100026000190190931694909404601f81018390048302850183019091528084529381019390830182828015612a1a5780601f106129ef57610100808354040283529160200191612a1a565b820191906000526020600020905b8154815290600101906020018083116129fd57829003601f168201915b5050509183525050600382015460209091019060ff166001811115612a3b57fe5b6001811115612a4657fe5b81526020016003820160019054906101000a900460ff166003811115612a6857fe5b6003811115612a7357fe5b815260048201805460408051602060026001851615610100026000190190941693909304601f8101849004840282018401909252818152938201939291830182828015612b015780601f10612ad657610100808354040283529160200191612b01565b820191906000526020600020905b815481529060010190602001808311612ae457829003601f168201915b50505050508152602001600582015481526020016006820160009054906101000a900460ff161515151581526020016007820154815260200160088201805480602002602001604051908101604052809291908181526020016000905b82821015612c335760008481526020908190206040805160038602909201805460026001821615610100026000190190911604601f8101859004909402830160809081019092526060830184815292939092849290918491840182828015612c075780601f10612bdc57610100808354040283529160200191612c07565b820191906000526020600020905b815481529060010190602001808311612bea57829003601f168201915b505050505081526020016001820154815260200160028201548152505081526020019060010190612b5e565b505050908252506009820154602080830191909152600a830154604080840191909152600b9093015460609283015283516001600160a01b0316875260c084015190870152610100830151918601919091526101808201519085015260a001516080840152509092915050565b6000828152600160205260409020612cbe908263ffffffff61379516565b1561062e57612ccb61281d565b6001600160a01b0316816001600160a01b0316837ff6391f5c32d9c69d2a47ea670b442974b53935d1edc7fd64eb21e047a839171b60405160405180910390a45050565b600082600081118015612d2457506004548111155b612d405760405162461bcd60e51b81526004016105259061429b565b60008481526003602052604090206009810154421115612d645760009250506106cc565b600254604051632c9aab9b60e11b815233916000916001600160a01b0390911690635935573690612d99908590600401613fba565b60206040518083038186803b158015612db157600080fd5b505afa158015612dc5573d6000803e3d6000fd5b505050506040513d601f19601f82011682018060405250612de99190810190613ece565b905060008111612e0b5760405162461bcd60e51b815260040161052590614396565b6001600160a01b03821660009081526007602090815260408083208a845290915290206001015415612e4f5760405162461bcd60e51b81526004016105259061435f565b60408051808201825287815260208082018481526001600160a01b0386166000908152600783528481208c8252909252929020905181559051600191820155600b840180549091019055600a830180548201905560088301805487908110612eb357fe5b90600052602060002090600302016001016000815480929190600101919050555080836008018781548110612ee457fe5b6000918252602090912060026003909202010180549091019055600683015460ff16612fc1576002546040805163ca5c7b9160e01b815290516000926001600160a01b03169163ca5c7b91916004808301926020929190829003018186803b158015612f4f57600080fd5b505afa158015612f63573d6000803e3d6000fd5b505050506040513d601f19601f82011682018060405250612f879190810190613ece565b600a850154909150620186a0026000828281612f9f57fe5b04905085600501548110612fbd5760068601805460ff191660011790555b5050505b85826001600160a01b0316887f8eea3a81425aea5e440ed6b6289a8aea0db8025c75fdeb1434bd81650177034084604051612ffc919061400c565b60405180910390a45060019695505050505050565b60008083600381111561302057fe5b141561302e57506001611924565b600183600381111561303c57fe5b141561306657600061304d83610715565b6103e88082049081029091030160641491506119249050565b600283600381111561307457fe5b141561309057600061308583610715565b151591506119249050565b600383600381111561309e57fe5b141561325b5781518290600d146130b457600080fd5b604080516001808252818301909252606091602082018180388339505060408051600680825281830190925292935060609291506020820181803883395050604080516006808252818301909252929350606092915060208201818038833901905050905060005b84518110156131e457600181101561316f578460008151811061313b57fe5b602001015160f81c60f81b8460008151811061315357fe5b60200101906001600160f81b031916908160001a9053506131dc565b600781101561319e5784818151811061318457fe5b602001015160f81c60f81b83600183038151811061315357fe5b8481815181106131aa57fe5b602001015160f81c60f81b8260078303815181106131c457fe5b60200101906001600160f81b031916908160001a9053505b60010161311c565b5060006131f083610715565b905060006131fd83610715565b9050600080831180156132135750620186a08311155b90508080156132225750600082115b80156132315750620186a08211155b905080801561324c5750600361324687610715565b60ff1611155b97506119249650505050505050565b50600092915050565b600061192183836137aa565b6000611921836001600160a01b0384166137ef565b61328d613a59565b816000811180156132a057506004548111155b6132bc5760405162461bcd60e51b81526004016105259061429b565b6132c4613ac4565b60008481526003602090815260409182902082516101a08101845281546001600160a01b03168152600180830180548651600261010094831615949094026000190190911692909204601f810186900486028301860190965285825291949293858101939192919083018282801561337d5780601f106133525761010080835404028352916020019161337d565b820191906000526020600020905b81548152906001019060200180831161336057829003601f168201915b5050509183525050600282810180546040805160206001841615610100026000190190931694909404601f8101839004830285018301909152808452938101939083018282801561340f5780601f106133e45761010080835404028352916020019161340f565b820191906000526020600020905b8154815290600101906020018083116133f257829003601f168201915b5050509183525050600382015460209091019060ff16600181111561343057fe5b600181111561343b57fe5b81526020016003820160019054906101000a900460ff16600381111561345d57fe5b600381111561346857fe5b815260048201805460408051602060026001851615610100026000190190941693909304601f81018490048402820184019092528181529382019392918301828280156134f65780601f106134cb576101008083540402835291602001916134f6565b820191906000526020600020905b8154815290600101906020018083116134d957829003601f168201915b50505050508152602001600582015481526020016006820160009054906101000a900460ff161515151581526020016007820154815260200160088201805480602002602001604051908101604052809291908181526020016000905b828210156136285760008481526020908190206040805160038602909201805460026001821615610100026000190190911604601f81018590049094028301608090810190925260608301848152929390928492909184918401828280156135fc5780601f106135d1576101008083540402835291602001916135fc565b820191906000526020600020905b8154815290600101906020018083116135df57829003601f168201915b505050505081526020016001820154815260200160028201548152505081526020019060010190613553565b505050908252506009820154602080830191909152600a8301546040830152600b90920154606091820152828201518652820151919250840190600181111561366d57fe5b9081600181111561367a57fe5b90525060808101516040840190600381111561369257fe5b9081600381111561369f57fe5b90525061014081015160e080850191909152810151151560a08401526000836020015160018111156136cd57fe5b141561376e578061012001516000815181106136e557fe5b60200260200101516040015183606001818152505080610120015160018151811061370c57fe5b602002602001015160400151836080018181525050428360e0015110801561373557508260a001515b15613766578061016001518360800151620186a0028161375157fe5b610100830151919004101560c084015261376e565b600060c08401525b5050919050565b600061192482613807565b6000611921836001600160a01b03841661380b565b6000611921836001600160a01b038416613855565b815460009082106137cd5760405162461bcd60e51b815260040161052590614101565b8260000182815481106137dc57fe5b9060005260206000200154905092915050565b60009081526001919091016020526040902054151590565b5490565b600061381783836137ef565b61384d57508154600181810184556000848152602080822090930184905584548482528286019093526040902091909155611924565b506000611924565b60008181526001830160205260408120548015613911578354600019808301919081019060009087908390811061388857fe5b90600052602060002001549050808760000184815481106138a557fe5b6000918252602080832090910192909255828152600189810190925260409020908401905586548790806138d557fe5b60019003818190600052602060002001600090559055866001016000878152602001908152602001600020600090556001945050505050611924565b6000915050611924565b6040518060a0016040528060006001600160a01b03168152602001600081526020016000815260200160008152602001606081525090565b604051806040016040528060008152602001600081525090565b828054600181600116156101000203166002900490600052602060002090601f016020900481019282601f106139ae5782800160ff198235161785556139db565b828001600101855582156139db579182015b828111156139db5782358255916020019190600101906139c0565b506139e7929150613b42565b5090565b828054600181600116156101000203166002900490600052602060002090601f016020900481019282601f10613a2c57805160ff19168380011785556139db565b828001600101855582156139db579182015b828111156139db578251825591602001919060010190613a3e565b604080516101008101909152606081526020810160008152602001600081526020016000815260200160008152602001600015158152602001600015158152602001600081525090565b60405180606001604052806060815260200160008152602001600081525090565b604051806101a0016040528060006001600160a01b03168152602001606081526020016060815260200160006001811115613afb57fe5b815260200160008152602001606081526020016000815260200160001515815260200160008152602001606081526020016000815260200160008152602001600081525090565b6107a891905b808211156139e75760008155600101613b48565b80356001600160a01b038116811461192457600080fd5b80356004811061192457600080fd5b60008083601f840112613b93578182fd5b50813567ffffffffffffffff811115613baa578182fd5b602083019150836020828501011115613bc257600080fd5b9250929050565b600060208284031215613bda578081fd5b6119218383613b5c565b60008060408385031215613bf6578081fd5b82358015158114613c05578182fd5b946020939093013593505050565b600060208284031215613c24578081fd5b5035919050565b60008060408385031215613c3d578182fd5b8235915060208301356001600160a01b0381168114613c5a578182fd5b809150509250929050565b60008060408385031215613c77578182fd5b50508035926020909101359150565b600060208284031215613c97578081fd5b6119218383613b73565b60008060008060008060008060a0898b031215613cbc578384fd5b883567ffffffffffffffff80821115613cd3578586fd5b613cdf8c838d01613b82565b909a50985060208b0135915080821115613cf7578586fd5b613d038c838d01613b82565b909850965060408b0135955060608b0135915080821115613d22578485fd5b818b018c601f820112613d33578586fd5b8035925081831115613d43578586fd5b8c60208085028301011115613d56578586fd5b6020019450909250613d6d90508a60808b01613b73565b90509295985092959890939650565b60008060008060008060008060a0898b031215613d97578384fd5b883567ffffffffffffffff80821115613dae578586fd5b613dba8c838d01613b82565b909a50985060208b0135915080821115613dd2578586fd5b613dde8c838d01613b82565b909850965060408b0135955060608b0135915060048210613dfd578485fd5b90935060808a01359080821115613e12578384fd5b50613e1f8b828c01613b82565b999c989b5096995094979396929594505050565b600060208284031215613e44578081fd5b813567ffffffffffffffff80821115613e5b578283fd5b81840185601f820112613e6c578384fd5b8035925081831115613e7c578384fd5b604051601f8401601f191681016020018381118282101715613e9c578586fd5b604052838152818401602001871015613eb3578485fd5b613ec48460208301602085016146c0565b9695505050505050565b600060208284031215613edf578081fd5b5051919050565b60008060408385031215613ef8578182fd5b82359150613f098460208501613b5c565b90509250929050565b60008060408385031215613f24578182fd5b8235915060208301356001600160e01b031981168114613c5a578182fd5b60008151808452815b81811015613f6757602081850181015186830182015201613f4b565b81811115613f785782602083870101525b50601f01601f19169290920160200192915050565b6a564f54494e475f524f4c4560a81b8152600b0190565b6941444d494e5f524f4c4560b01b8152600a0190565b6001600160a01b0391909116815260200190565b600060018060a01b038716825285602083015284604083015283606083015260a0608083015261088c60a0830184613f42565b901515815260200190565b90815260200190565b600060a082528660a0830152868860c08401378060c0888401015260c0601f19601f8901168301019050614048866146b5565b6020830152846040830152836060830152826080830152979650505050505050565b6000602082526119216020830184613f42565b60006101008083526140918184018c613f42565b91505061409d896146aa565b60208301526140ab886146b5565b60408301526060820196909652608081019490945291151560a0840152151560c083015260e0909101529392505050565b6000606082526140ef6060830186613f42565b60208301949094525060400152919050565b60208082526022908201527f456e756d657261626c655365743a20696e646578206f7574206f6620626f756e604082015261647360f01b606082015260800190565b6020808252602f908201527f416363657373436f6e74726f6c3a2073656e646572206d75737420626520616e60408201526e0818591b5a5b881d1bc819dc985b9d608a1b606082015260800190565b60208082526028908201527f566f74696e673a2074696d65206d75737420626520626967676572207468616e6040820152670818dd5c9c995b9d60c21b606082015260800190565b60208082526026908201527f4f776e61626c653a206e6577206f776e657220697320746865207a65726f206160408201526564647265737360d01b606082015260800190565b60208082526019908201527f566f74696e673a206e6f206c656164696e67206f7074696f6e00000000000000604082015260600190565b60208082526024908201527f566f74696e673a206d757374206265206174206c656173742074776f206f7074604082015263696f6e7360e01b606082015260800190565b6020808252601f908201527f566f74696e673a2070726f706f73616c20646f6573206e6f7420657869737400604082015260600190565b60208082526025908201527f566f74696e673a20746869732070726f706f73616c206974206e6f7420616363604082015264195c1d195960da1b606082015260800190565b60208082526028908201527f566f74696e673a20706c656173652063686f6f736520616e206f7074696f6e206040820152670c4f240d2dcc8caf60c31b606082015260800190565b6020808252601e908201527f566f74696e673a20796f75206861766520616c726561647920766f7465640000604082015260600190565b6020808252602b908201527f566f74696e673a20796f75206861766520746f206c6f636b20796f757220746f60408201526a6b656e73206265666f726560a81b606082015260800190565b6020808252601f908201527f566f74696e673a20696e636f7272656374207570646174696e67206461746100604082015260600190565b602080825260169082015275566f74696e673a206f7574206f6620696e646578657360501b604082015260600190565b60208082526030908201527f416363657373436f6e74726f6c3a2073656e646572206d75737420626520616e60408201526f2061646d696e20746f207265766f6b6560801b606082015260800190565b6020808252818101527f4f776e61626c653a2063616c6c6572206973206e6f7420746865206f776e6572604082015260600190565b60208082526029908201527f566f74696e673a20766f74696e6720706572696f64206973206e6f742066696e6040820152681a5cda1959081e595d60ba1b606082015260800190565b60208082526022908201527f566f74696e673a20796f7520646f206e6f742068617665207065726d6973736960408201526137b760f11b606082015260800190565b602080825260139082015272566f74696e673a20656d707479207469746c6560681b604082015260600190565b60208082526027908201527f566f74696e673a20746869732070726f706f73616c206973206e6f742065786560408201526663757461626c6560c81b606082015260800190565b6020808252602f908201527f416363657373436f6e74726f6c3a2063616e206f6e6c792072656e6f756e636560408201526e103937b632b9903337b91039b2b63360891b606082015260800190565b60208082526021908201527f566f74696e673a20796f752073686f756c642073617920796561206f72206e616040820152607960f81b606082015260800190565b6000858252608060208301526146756080830186613f42565b9050614680846146aa565b604083015261468e836146b5565b606083015295945050505050565b918252602082015260400190565b80600281106105e557fe5b80600481106105e557fe5b8281833750600091015256fea58917be9e97f10d8f5ce9fb9644dc60d5e17d8279c0f60c764344720d2fde7ea2646970667358221220865cb9d46cab811825121f0464b830241c2effaae0afce0b1f82f90a3355eae564736f6c63430006020033",
  "source": "// SPDX-License-Identifier: GPL-3.0\npragma solidity 0.6.2;\npragma experimental ABIEncoderV2;\n\nimport \"./Managing.sol\";\n\n\ncontract Voting is Managing {\n\n    mapping (uint256 => Proposal) private _proposals;\n    uint256 private _countProposals;\n\n    bool private _everyoneCreateProposal;\n    uint256 private _minAmountToCreate;\n\n    enum ProposalType {\n        Native,\n        Multi\n    }\n\n    enum ProposalUpdater {\n        Nothing,\n        Inflation,\n        CreateProposal,\n        UpdateConfig\n    }\n\n    struct ProposalConfig {\n        uint quorumPct;\n        uint supportPct;\n    }\n\n    struct Proposal {\n        address creator;\n        string title;\n        string description;\n        ProposalType votingType;\n        ProposalUpdater votingUpdater;\n        string updateData;\n        uint quorumPct;\n        bool hasQuorum;\n        uint supportPct;\n        ProposalOption[] options;\n        uint expiryTime;\n        uint totalVotingPower;\n        uint voters;\n    }\n\n    struct ProposalInfo {\n        string title;\n        ProposalType votingType;\n        ProposalUpdater votingUpdater;\n        uint nay;\n        uint yea;\n        bool hasQuorum;\n        bool accepted;\n        uint expiryTime;\n    }\n\n    struct ProposalInfoConfig {\n        address creator;\n        uint quorumPct;\n        uint supportPct;\n        uint voters;\n        string updateData;\n    }\n\n    struct ProposalOption {\n        string name;\n        uint256 count;\n        uint256 weight;\n    }\n\n    struct GotVote {\n        uint option;\n        uint256 amount;\n    }\n\n    mapping (address => mapping(uint => GotVote)) private _voted;\n    mapping (uint8 => ProposalConfig) private _proposalConfigs;\n\n    modifier canCreateProposals() {\n        if (hasRole(VOTING_ROLE, msg.sender) || hasRole(ADMIN_ROLE, msg.sender)) {\n            _;\n            return;\n        }\n        if (_everyoneCreateProposal) {\n            uint256 staked = _Token.lockedBalanceOf(msg.sender);\n            if (staked >= _minAmountToCreate) {\n                _;\n                return;\n            }\n        }\n        revert(\"Voting: you do not have permission\");\n    }\n\n    modifier hasProposal(uint id) {\n        require(id > 0 && id <= _countProposals, \"Voting: proposal does not exist\");\n        _;\n    }\n\n    event NewProposal(\n        uint indexed issueId,\n        address indexed creator,\n        string title,\n        ProposalType indexed votingType,\n        ProposalUpdater votingUpdater,\n        uint quorumPct,\n        uint supportPct,\n        uint expiryTime\n    );\n    event ExecProposal(uint indexed issueId, address indexed initialized);\n    event OnVote(uint indexed issueId, address indexed from, uint indexed option, uint256 weight);\n    event UpdatedProposalConfig(ProposalUpdater indexed updater, uint quorumPct, uint supportPct);\n\n    constructor () public {\n        uint quorumPct = 50 * 1000;\n        uint supportPct = 20 * 1000;\n        _proposalConfigs[uint8(ProposalUpdater.Nothing)] = ProposalConfig(quorumPct, supportPct);\n        emit UpdatedProposalConfig(ProposalUpdater.Nothing, quorumPct, supportPct);\n        _proposalConfigs[uint8(ProposalUpdater.Inflation)] = ProposalConfig(quorumPct, supportPct);\n    }\n\n    function minAmountToCreate() external view returns (uint256) {\n        return _minAmountToCreate;\n    }\n\n    function proposalConfigRates(ProposalUpdater conf) external view\n    returns (uint quorumPct, uint supportPct) {\n        quorumPct = _proposalConfigs[uint8(conf)].quorumPct;\n        supportPct = _proposalConfigs[uint8(conf)].supportPct;\n    }\n\n    function createProposalAvailability(bool isAvailable, uint256 minStaked) external {\n        require(hasRole(VOTING_ROLE, msg.sender) || hasRole(ADMIN_ROLE, msg.sender), \"Voting: you do not have permission\");\n        _everyoneCreateProposal = isAvailable;\n        _minAmountToCreate = minStaked;\n    }\n\n    function availableToCreateProposals() external view returns (bool) {\n        if (hasRole(VOTING_ROLE, msg.sender) || hasRole(ADMIN_ROLE, msg.sender)) {\n            return true;\n        }\n        if (_everyoneCreateProposal) {\n            uint256 staked = _Token.lockedBalanceOf(msg.sender);\n            if (staked >= _minAmountToCreate) {\n                return true;\n            }\n        }\n        return false;\n    }\n\n    function newProposal(\n        string calldata title,\n        string calldata description,\n        uint expiryTime,\n        ProposalUpdater votingUpdater,\n        string calldata updateData\n    ) external canCreateProposals {\n        //require(hasRole(VOTING_ROLE, msg.sender) || hasRole(ADMIN_ROLE, msg.sender), \"Voting: you do not have permission\");\n        require(bytes(title).length > 0, \"Voting: empty title\");\n        //require(quorumPct > 0 && quorumPct<=100000, \"Voting: quorum must be between 1 and 100000\");\n        //require(supportPct >= 20000 && supportPct<=100000, \"Voting: support must be between 20000 and 100000\");\n        require(expiryTime > block.timestamp, \"Voting: time must be bigger than current\");\n\n        _countProposals++;\n\n        Proposal storage proposal = _proposals[_countProposals];\n        ProposalConfig memory conf = _proposalConfigs[uint8(votingUpdater)];\n\n        proposal.creator = msg.sender;\n        proposal.title = title;\n        proposal.description = description;\n        proposal.quorumPct = conf.quorumPct;\n        proposal.supportPct = conf.supportPct;\n        proposal.expiryTime = expiryTime;\n        proposal.votingType = ProposalType.Native;\n        proposal.votingUpdater = votingUpdater;\n\n        if (votingUpdater != ProposalUpdater.Nothing) {\n            require(_updaterValidateData(votingUpdater, updateData), \"Voting: incorrect updating data\");\n            proposal.updateData = updateData;\n        }\n\n        proposal.options.push(ProposalOption('nay', 0, 0));\n        proposal.options.push(ProposalOption('yea', 0, 0));\n\n        emit NewProposal(_countProposals, msg.sender, title, ProposalType.Native, votingUpdater, conf.quorumPct, conf.supportPct, expiryTime);\n    }\n\n    function newMultiProposal(\n        string calldata title,\n        string calldata description,\n        uint expiryTime,\n        string[] calldata options,\n        ProposalUpdater votingUpdater\n    ) external canCreateProposals {\n        //require(hasRole(VOTING_ROLE, msg.sender) || hasRole(ADMIN_ROLE, msg.sender), \"Voting: you do not have permission\");\n        require(bytes(title).length > 0, \"Voting: empty title\");\n        //require(quorumPct > 0 && quorumPct<=100000, \"Voting: quorum must be between 1 and 100000\");\n        //require(supportPct >= 20000 && supportPct<=100000, \"Voting: support must be between 20000 and 100000\");\n        require(expiryTime > block.timestamp, \"Voting: time must be bigger than current\");\n        require(options.length > 1, \"Voting: must be at least two options\");\n\n        _countProposals++;\n\n        Proposal storage proposal = _proposals[_countProposals];\n        ProposalConfig memory conf = _proposalConfigs[uint8(votingUpdater)];\n\n        proposal.creator = msg.sender;\n        proposal.title = title;\n        proposal.description = description;\n        proposal.quorumPct = conf.quorumPct;\n        proposal.supportPct = conf.supportPct;\n        proposal.expiryTime = expiryTime;\n        proposal.votingType = ProposalType.Multi;\n        proposal.votingUpdater = votingUpdater;\n\n        for (uint i = 0; i < options.length; i++) {\n            if (votingUpdater != ProposalUpdater.Nothing) {\n                require(_updaterValidateData(votingUpdater, options[i]), \"Voting: incorrect updating data\");\n            }\n            proposal.options.push(ProposalOption(options[i], 0, 0));\n        }\n\n        emit NewProposal(_countProposals, msg.sender, title, ProposalType.Multi, votingUpdater, conf.quorumPct, conf.supportPct, expiryTime);\n    }\n\n    function execProposal(uint issueId) external {\n\n        ProposalInfo memory info = _proposalInfo(issueId);\n\n        ProposalInfoConfig memory infoConfig = _proposalConfig(issueId);\n\n        require(infoConfig.creator == msg.sender || hasRole(VOTING_ROLE, msg.sender) || hasRole(ADMIN_ROLE, msg.sender), \"Voting: you do not have permission\");\n        require(info.votingUpdater != ProposalUpdater.Nothing, \"Voting: this proposal is not executable\");\n        require(info.expiryTime < block.timestamp, \"Voting: voting period is not finished yet\");\n        if (info.votingType == ProposalType.Native){\n            require(info.accepted, \"Voting: this proposal it not accepted\");\n        }\n\n        string memory updateData;\n        if (info.votingType == ProposalType.Multi) {\n            uint maxIndex;\n            uint maxWeight;\n            bool tie;\n            for (uint i = 0; i < _proposals[issueId].options.length; i++) {\n                ProposalOption memory option = _proposals[issueId].options[i];\n                if (option.weight > maxWeight) {\n                    maxIndex = i;\n                    maxWeight = option.weight;\n                    tie = false;\n                } else if (option.weight == maxWeight) {\n                    tie = true;\n                }\n            }\n            require(!tie, \"Voting: no leading option\");\n            updateData = _proposals[issueId].options[maxIndex].name;\n        } else {\n            updateData = infoConfig.updateData;\n        }\n\n        if (info.votingUpdater == ProposalUpdater.Inflation) {\n            uint256 value = parseInt(updateData);\n            uint stakingPct = value / 1000;\n            uint vestingPct = value - stakingPct * 1000;\n            _Token.changeInflationRatio(stakingPct, vestingPct);\n        } else if (info.votingUpdater == ProposalUpdater.CreateProposal) {\n            _minAmountToCreate = parseInt(updateData);\n        } else if (info.votingUpdater == ProposalUpdater.UpdateConfig) {\n            bytes memory _bytes = bytes(updateData);\n            bytes memory confId = new bytes(1);\n            bytes memory quorumPctBts = new bytes(6);\n            bytes memory supportPctBts = new bytes(6);\n            require(_bytes.length == 13);\n            for(uint i = 0; i < _bytes.length; i++){\n                if (i < 1) {\n                    confId[0] = _bytes[0];\n                } else if (i < 7) {\n                    quorumPctBts[i - 1] = _bytes[i];\n                } else {\n                    supportPctBts[i - 7] = _bytes[i];\n                }\n            }\n            uint256 quorumPct = parseInt(string(quorumPctBts));\n            uint256 supportPct = parseInt(string(supportPctBts));\n            _proposalConfigs[uint8(parseInt(string(confId)))] = ProposalConfig(quorumPct, supportPct);\n        }\n\n        emit ExecProposal(issueId, msg.sender);\n    }\n\n    function _updaterValidateData(\n        ProposalUpdater votingUpdater,\n        string memory updateData\n    ) private pure returns (bool) {\n        if (votingUpdater == ProposalUpdater.Nothing) return true;\n        if (votingUpdater == ProposalUpdater.Inflation) {\n            uint256 value = parseInt(updateData);\n            uint stakingPct = value / 1000;\n            uint vestingPct = value - stakingPct * 1000;\n            return (stakingPct + vestingPct == 100);\n        } else if (votingUpdater == ProposalUpdater.CreateProposal) {\n            uint256 value = parseInt(updateData);\n            return value > 0;\n        } else if (votingUpdater == ProposalUpdater.UpdateConfig) {\n            bytes memory _bytes = bytes(updateData);\n            require(_bytes.length == 13);\n            bytes memory confId = new bytes(1);\n            bytes memory quorumPctBts = new bytes(6);\n            bytes memory supportPctBts = new bytes(6);\n            for(uint i = 0; i < _bytes.length; i++){\n                if (i < 1) {\n                    confId[0] = _bytes[0];\n                } else if (i < 7) {\n                    quorumPctBts[i - 1] = _bytes[i];\n                } else {\n                    supportPctBts[i - 7] = _bytes[i];\n                }\n            }\n            uint256 quorumPct = parseInt(string(quorumPctBts));\n            uint256 supportPct = parseInt(string(supportPctBts));\n            bool res = quorumPct > 0 && quorumPct <= 100*1000;\n            res = res && supportPct > 0 && supportPct <= 100*1000;\n            res = res && uint8(parseInt(string(confId))) <= uint8(ProposalUpdater.UpdateConfig);\n            return res;\n        }\n        return false;\n    }\n\n    function parseInt(string memory _value)\n        public\n        pure\n        returns (uint _ret) {\n        bytes memory _bytesValue = bytes(_value);\n        uint j = 1;\n        for(uint i = _bytesValue.length-1; i >= 0 && i < _bytesValue.length; i--) {\n            assert(uint8(_bytesValue[i]) >= 48 && uint8(_bytesValue[i]) <= 57);\n            _ret += (uint8(_bytesValue[i]) - 48)*j;\n            j*=10;\n        }\n    }\n\n    function getNewestProposal() external view\n    returns (\n        uint issueId,\n        string memory title,\n        ProposalType votingType,\n        ProposalUpdater votingUpdater\n    ) {\n        issueId = _countProposals;\n        title = _proposals[issueId].title;\n        votingType = _proposals[issueId].votingType;\n        votingUpdater = _proposals[issueId].votingUpdater;\n    }\n\n    function countProposals() external view returns (uint) {\n        return _countProposals;\n    }\n\n    function vote(uint issueId, bytes4 option) external\n    hasProposal(issueId)// override\n    returns (bool) {\n        bytes4 yea = bytes4(\"yea\");\n        bytes4 nay = bytes4(\"nay\");\n        require(option == yea || option == nay, \"Voting: you should say yea or nay\");\n        require(_proposals[issueId].votingType == ProposalType.Native, \"Voting: please choose an option by index\");\n        uint optionId = 0;\n        if (option == yea) optionId = 1;\n        return _vote(issueId, optionId);\n    }\n\n    function vote(uint issueId, uint option) external\n    hasProposal(issueId)// override\n    returns (bool) {\n        Proposal memory proposal = _proposals[issueId];\n        require(proposal.options.length > option, \"Voting: out of indexes\");\n        return _vote(issueId, option);\n    }\n\n    function issueDescription(uint256 issueId) external view\n    hasProposal(issueId)// override\n    returns (string memory) {\n        return _proposals[issueId].description;\n    }\n\n    function countOptions(uint issueId) external view\n    hasProposal(issueId)// override\n    returns (uint) {\n        return _proposals[issueId].options.length;\n    }\n\n    function optionName(uint issueId, uint option) external view\n    hasProposal(issueId)// override\n    returns (string memory) {\n        require(_proposals[issueId].options.length > option, \"Voting: out of indexes\");\n        return _proposals[issueId].options[option].name;\n    }\n\n    function optionInfo(uint issueId, uint option) external view\n    hasProposal(issueId)// override\n    returns (string memory name, uint256 count, uint256 weight) {\n        require(_proposals[issueId].options.length > option, \"Voting: out of indexes\");\n        ProposalOption storage opt = _proposals[issueId].options[option];\n        name = opt.name;\n        count = opt.count;\n        weight = opt.weight;\n    }\n\n    function ballotOf(uint issueId, address addr) external view\n    hasProposal(issueId)// override\n    returns (uint) {\n        return _voted[addr][issueId].option;\n    }\n\n    function weightOf(uint issueId, address addr) external view\n    hasProposal(issueId)// override\n    returns (uint) {\n        return _voted[addr][issueId].amount;\n    }\n\n    function weightedVoteCountsOf(uint issueId, uint option) external view\n    hasProposal(issueId)// override\n    returns (uint) {\n        return _proposals[issueId].options[option].count;\n    }\n\n    function proposalInfo(uint issueId) external view\n    returns (\n        string memory title,\n        ProposalType votingType,\n        ProposalUpdater votingUpdater,\n        uint nay,\n        uint yea,\n        bool hasQuorum,\n        bool accepted,\n        uint expiryTime\n    ) {\n        ProposalInfo memory info = _proposalInfo(issueId);\n        title = info.title;\n        votingType = info.votingType;\n        votingUpdater = info.votingUpdater;\n        nay = info.nay;\n        yea = info.yea;\n        hasQuorum = info.hasQuorum;\n        accepted = info.accepted;\n        expiryTime = info.expiryTime;\n    }\n\n    function _proposalInfo(uint issueId) internal view\n    hasProposal(issueId)\n    returns (\n        ProposalInfo memory info\n    ) {\n        Proposal memory proposal = _proposals[issueId];\n\n        info.title = proposal.title;\n        info.votingType = proposal.votingType;\n        info.votingUpdater = proposal.votingUpdater;\n        info.expiryTime = proposal.expiryTime;\n        info.hasQuorum = proposal.hasQuorum;\n\n        if(info.votingType == ProposalType.Native){\n            info.nay = proposal.options[0].weight;\n            info.yea = proposal.options[1].weight;\n            if (info.expiryTime < block.timestamp && info.hasQuorum) {\n                info.accepted = proposal.supportPct <= (info.yea * 100000 / proposal.totalVotingPower);\n            } else {\n                info.accepted = false;\n            }\n        }\n    }\n\n    function proposalConfig(uint issueId) external view\n    returns (\n        address creator,\n        uint quorumPct,\n        uint supportPct,\n        uint voters,\n        string memory updateData\n    ) {\n        ProposalInfoConfig memory info = _proposalConfig(issueId);\n        creator = info.creator;\n        quorumPct = info.quorumPct;\n        supportPct = info.supportPct;\n        voters = info.voters;\n        updateData = info.updateData;\n    }\n\n    function _proposalConfig(uint issueId) internal view\n    hasProposal(issueId)\n    returns (\n        ProposalInfoConfig memory info\n    ) {\n        Proposal memory proposal = _proposals[issueId];\n\n        info.creator = proposal.creator;\n        info.quorumPct = proposal.quorumPct;\n        info.supportPct = proposal.supportPct;\n        info.voters = proposal.voters;\n        info.updateData = proposal.updateData;\n    }\n\n    function _vote(uint issueId, uint option) private\n    hasProposal(issueId)\n    returns (bool)\n    {\n        Proposal storage proposal = _proposals[issueId];\n        if (proposal.expiryTime < block.timestamp) return false;\n        address sender = msg.sender;\n        uint256 tokens = _Token.lockedBalanceOf(sender);\n        require(tokens > 0, \"Voting: you have to lock your tokens before\");\n        require(_voted[sender][issueId].amount == 0, \"Voting: you have already voted\");\n\n        _voted[sender][issueId] = GotVote(option, tokens);\n\n        proposal.voters++;\n        proposal.totalVotingPower += tokens;\n        proposal.options[option].count++;\n        proposal.options[option].weight += tokens;\n\n        if (!proposal.hasQuorum) {\n            uint supply = _Token.lockedSupply();\n            uint hasQuorum = proposal.totalVotingPower * 100000;\n            uint quorumRctNow = hasQuorum / supply;\n\n            if (quorumRctNow >= proposal.quorumPct) {\n                proposal.hasQuorum = true;\n            }\n        }\n\n        emit OnVote(issueId, sender, option, tokens);\n\n        return true;\n    }\n\n}\n",
  "sourcePath": "/home/pirat/Desktop/DAO/contracts/DAO/Voting.sol",
  "compiler": {
    "name": "solc",
    "version": "0.6.2+commit.bacdbe57.Emscripten.clang"
  },
  "schemaVersion": "3.2.5",
  "updatedAt": "2020-12-28T08:47:24.958Z",
  "devdoc": {
    "methods": {
      "getRoleAdmin(bytes32)": {
        "details": "Returns the admin role that controls `role`. See {grantRole} and {revokeRole}.     * To change a role's admin, use {_setRoleAdmin}."
      },
      "getRoleMember(bytes32,uint256)": {
        "details": "Returns one of the accounts that have `role`. `index` must be a value between 0 and {getRoleMemberCount}, non-inclusive.     * Role bearers are not sorted in any particular way, and their ordering may change at any point.     * WARNING: When using {getRoleMember} and {getRoleMemberCount}, make sure you perform all queries on the same block. See the following https://forum.openzeppelin.com/t/iterating-over-elements-on-enumerableset-in-openzeppelin-contracts/2296[forum post] for more information."
      },
      "getRoleMemberCount(bytes32)": {
        "details": "Returns the number of accounts that have `role`. Can be used together with {getRoleMember} to enumerate all bearers of a role."
      },
      "grantRole(bytes32,address)": {
        "details": "Grants `role` to `account`.     * If `account` had not been already granted `role`, emits a {RoleGranted} event.     * Requirements:     * - the caller must have ``role``'s admin role."
      },
      "hasRole(bytes32,address)": {
        "details": "Returns `true` if `account` has been granted `role`."
      },
      "owner()": {
        "details": "Returns the address of the current owner."
      },
      "renounceOwnership()": {
        "details": "Leaves the contract without owner. It will not be possible to call `onlyOwner` functions anymore. Can only be called by the current owner.     * NOTE: Renouncing ownership will leave the contract without an owner, thereby removing any functionality that is only available to the owner."
      },
      "renounceRole(bytes32,address)": {
        "details": "Revokes `role` from the calling account.     * Roles are often managed via {grantRole} and {revokeRole}: this function's purpose is to provide a mechanism for accounts to lose their privileges if they are compromised (such as when a trusted device is misplaced).     * If the calling account had been granted `role`, emits a {RoleRevoked} event.     * Requirements:     * - the caller must be `account`."
      },
      "revokeRole(bytes32,address)": {
        "details": "Revokes `role` from `account`.     * If `account` had been granted `role`, emits a {RoleRevoked} event.     * Requirements:     * - the caller must have ``role``'s admin role."
      },
      "transferOwnership(address)": {
        "details": "Transfers ownership of the contract to a new account (`newOwner`). Can only be called by the current owner."
      }
    }
  },
  "userdoc": {
    "methods": {}
  }
}