{
  "contractName": "Voting",
  "abi": [
    {
      "inputs": [],
      "stateMutability": "nonpayable",
      "type": "constructor"
    },
    {
      "anonymous": false,
      "inputs": [
        {
          "indexed": true,
          "internalType": "uint256",
          "name": "issueId",
          "type": "uint256"
        },
        {
          "indexed": true,
          "internalType": "enum Voting.ProposalUpdater",
          "name": "category",
          "type": "uint8"
        },
        {
          "indexed": true,
          "internalType": "address",
          "name": "initialized",
          "type": "address"
        }
      ],
      "name": "ExecProposal",
      "type": "event"
    },
    {
      "anonymous": false,
      "inputs": [
        {
          "indexed": true,
          "internalType": "uint256",
          "name": "issueId",
          "type": "uint256"
        },
        {
          "indexed": true,
          "internalType": "address",
          "name": "creator",
          "type": "address"
        },
        {
          "indexed": true,
          "internalType": "enum Voting.ProposalType",
          "name": "votingType",
          "type": "uint8"
        },
        {
          "indexed": false,
          "internalType": "enum Voting.ProposalUpdater",
          "name": "votingUpdater",
          "type": "uint8"
        }
      ],
      "name": "NewProposal",
      "type": "event"
    },
    {
      "anonymous": false,
      "inputs": [
        {
          "indexed": true,
          "internalType": "uint256",
          "name": "issueId",
          "type": "uint256"
        },
        {
          "indexed": true,
          "internalType": "address",
          "name": "from",
          "type": "address"
        },
        {
          "indexed": true,
          "internalType": "uint256",
          "name": "option",
          "type": "uint256"
        },
        {
          "indexed": false,
          "internalType": "uint256",
          "name": "weight",
          "type": "uint256"
        }
      ],
      "name": "OnVote",
      "type": "event"
    },
    {
      "anonymous": false,
      "inputs": [
        {
          "indexed": true,
          "internalType": "address",
          "name": "previousOwner",
          "type": "address"
        },
        {
          "indexed": true,
          "internalType": "address",
          "name": "newOwner",
          "type": "address"
        }
      ],
      "name": "OwnershipTransferred",
      "type": "event"
    },
    {
      "anonymous": false,
      "inputs": [
        {
          "indexed": true,
          "internalType": "bytes32",
          "name": "role",
          "type": "bytes32"
        },
        {
          "indexed": true,
          "internalType": "bytes32",
          "name": "previousAdminRole",
          "type": "bytes32"
        },
        {
          "indexed": true,
          "internalType": "bytes32",
          "name": "newAdminRole",
          "type": "bytes32"
        }
      ],
      "name": "RoleAdminChanged",
      "type": "event"
    },
    {
      "anonymous": false,
      "inputs": [
        {
          "indexed": true,
          "internalType": "bytes32",
          "name": "role",
          "type": "bytes32"
        },
        {
          "indexed": true,
          "internalType": "address",
          "name": "account",
          "type": "address"
        },
        {
          "indexed": true,
          "internalType": "address",
          "name": "sender",
          "type": "address"
        }
      ],
      "name": "RoleGranted",
      "type": "event"
    },
    {
      "anonymous": false,
      "inputs": [
        {
          "indexed": true,
          "internalType": "bytes32",
          "name": "role",
          "type": "bytes32"
        },
        {
          "indexed": true,
          "internalType": "address",
          "name": "account",
          "type": "address"
        },
        {
          "indexed": true,
          "internalType": "address",
          "name": "sender",
          "type": "address"
        }
      ],
      "name": "RoleRevoked",
      "type": "event"
    },
    {
      "anonymous": false,
      "inputs": [
        {
          "indexed": false,
          "internalType": "bool",
          "name": "isAvailable",
          "type": "bool"
        },
        {
          "indexed": false,
          "internalType": "uint256",
          "name": "minStaked",
          "type": "uint256"
        }
      ],
      "name": "SetProposalAvailability",
      "type": "event"
    },
    {
      "anonymous": false,
      "inputs": [
        {
          "indexed": true,
          "internalType": "enum Voting.ProposalUpdater",
          "name": "updater",
          "type": "uint8"
        },
        {
          "indexed": false,
          "internalType": "uint256",
          "name": "quorumPct",
          "type": "uint256"
        },
        {
          "indexed": false,
          "internalType": "uint256",
          "name": "supportPct",
          "type": "uint256"
        }
      ],
      "name": "UpdatedProposalConfig",
      "type": "event"
    },
    {
      "inputs": [],
      "name": "ADMIN_ROLE",
      "outputs": [
        {
          "internalType": "bytes32",
          "name": "",
          "type": "bytes32"
        }
      ],
      "stateMutability": "view",
      "type": "function"
    },
    {
      "inputs": [],
      "name": "DEFAULT_ADMIN_ROLE",
      "outputs": [
        {
          "internalType": "bytes32",
          "name": "",
          "type": "bytes32"
        }
      ],
      "stateMutability": "view",
      "type": "function"
    },
    {
      "inputs": [],
      "name": "VOTING_ROLE",
      "outputs": [
        {
          "internalType": "bytes32",
          "name": "",
          "type": "bytes32"
        }
      ],
      "stateMutability": "view",
      "type": "function"
    },
    {
      "inputs": [
        {
          "internalType": "address",
          "name": "account",
          "type": "address"
        }
      ],
      "name": "addAdmin",
      "outputs": [],
      "stateMutability": "nonpayable",
      "type": "function"
    },
    {
      "inputs": [
        {
          "internalType": "bytes32",
          "name": "role",
          "type": "bytes32"
        }
      ],
      "name": "getRoleAdmin",
      "outputs": [
        {
          "internalType": "bytes32",
          "name": "",
          "type": "bytes32"
        }
      ],
      "stateMutability": "view",
      "type": "function"
    },
    {
      "inputs": [
        {
          "internalType": "bytes32",
          "name": "role",
          "type": "bytes32"
        },
        {
          "internalType": "uint256",
          "name": "index",
          "type": "uint256"
        }
      ],
      "name": "getRoleMember",
      "outputs": [
        {
          "internalType": "address",
          "name": "",
          "type": "address"
        }
      ],
      "stateMutability": "view",
      "type": "function"
    },
    {
      "inputs": [
        {
          "internalType": "bytes32",
          "name": "role",
          "type": "bytes32"
        }
      ],
      "name": "getRoleMemberCount",
      "outputs": [
        {
          "internalType": "uint256",
          "name": "",
          "type": "uint256"
        }
      ],
      "stateMutability": "view",
      "type": "function"
    },
    {
      "inputs": [
        {
          "internalType": "bytes32",
          "name": "role",
          "type": "bytes32"
        },
        {
          "internalType": "address",
          "name": "account",
          "type": "address"
        }
      ],
      "name": "grantRole",
      "outputs": [],
      "stateMutability": "nonpayable",
      "type": "function"
    },
    {
      "inputs": [
        {
          "internalType": "bytes32",
          "name": "role",
          "type": "bytes32"
        },
        {
          "internalType": "address",
          "name": "account",
          "type": "address"
        }
      ],
      "name": "hasRole",
      "outputs": [
        {
          "internalType": "bool",
          "name": "",
          "type": "bool"
        }
      ],
      "stateMutability": "view",
      "type": "function"
    },
    {
      "inputs": [],
      "name": "owner",
      "outputs": [
        {
          "internalType": "address",
          "name": "",
          "type": "address"
        }
      ],
      "stateMutability": "view",
      "type": "function"
    },
    {
      "inputs": [],
      "name": "renounceOwnership",
      "outputs": [],
      "stateMutability": "nonpayable",
      "type": "function"
    },
    {
      "inputs": [
        {
          "internalType": "bytes32",
          "name": "role",
          "type": "bytes32"
        },
        {
          "internalType": "address",
          "name": "account",
          "type": "address"
        }
      ],
      "name": "renounceRole",
      "outputs": [],
      "stateMutability": "nonpayable",
      "type": "function"
    },
    {
      "inputs": [
        {
          "internalType": "bytes32",
          "name": "role",
          "type": "bytes32"
        },
        {
          "internalType": "address",
          "name": "account",
          "type": "address"
        }
      ],
      "name": "revokeRole",
      "outputs": [],
      "stateMutability": "nonpayable",
      "type": "function"
    },
    {
      "inputs": [
        {
          "internalType": "address",
          "name": "newOwner",
          "type": "address"
        }
      ],
      "name": "transferOwnership",
      "outputs": [],
      "stateMutability": "nonpayable",
      "type": "function"
    },
    {
      "inputs": [],
      "name": "isOpenProposals",
      "outputs": [
        {
          "internalType": "bool",
          "name": "",
          "type": "bool"
        }
      ],
      "stateMutability": "view",
      "type": "function"
    },
    {
      "inputs": [],
      "name": "minAmountToCreate",
      "outputs": [
        {
          "internalType": "uint256",
          "name": "",
          "type": "uint256"
        }
      ],
      "stateMutability": "view",
      "type": "function"
    },
    {
      "inputs": [],
      "name": "executionTime",
      "outputs": [
        {
          "internalType": "uint256",
          "name": "",
          "type": "uint256"
        }
      ],
      "stateMutability": "view",
      "type": "function"
    },
    {
      "inputs": [
        {
          "internalType": "enum Voting.ProposalUpdater",
          "name": "conf",
          "type": "uint8"
        }
      ],
      "name": "proposalConfigRates",
      "outputs": [
        {
          "internalType": "uint256",
          "name": "quorumPct",
          "type": "uint256"
        },
        {
          "internalType": "uint256",
          "name": "supportPct",
          "type": "uint256"
        }
      ],
      "stateMutability": "view",
      "type": "function"
    },
    {
      "inputs": [
        {
          "internalType": "address",
          "name": "account",
          "type": "address"
        }
      ],
      "name": "availableToCreateProposals",
      "outputs": [
        {
          "internalType": "bool",
          "name": "",
          "type": "bool"
        }
      ],
      "stateMutability": "view",
      "type": "function"
    },
    {
      "inputs": [
        {
          "internalType": "address",
          "name": "creator",
          "type": "address"
        },
        {
          "internalType": "uint256",
          "name": "issueId",
          "type": "uint256"
        }
      ],
      "name": "depositedForProposal",
      "outputs": [
        {
          "internalType": "uint256",
          "name": "",
          "type": "uint256"
        }
      ],
      "stateMutability": "view",
      "type": "function"
    },
    {
      "inputs": [],
      "name": "getNewestProposal",
      "outputs": [
        {
          "internalType": "uint256",
          "name": "issueId",
          "type": "uint256"
        },
        {
          "internalType": "string",
          "name": "title",
          "type": "string"
        },
        {
          "internalType": "enum Voting.ProposalType",
          "name": "votingType",
          "type": "uint8"
        },
        {
          "internalType": "enum Voting.ProposalUpdater",
          "name": "votingUpdater",
          "type": "uint8"
        }
      ],
      "stateMutability": "view",
      "type": "function"
    },
    {
      "inputs": [],
      "name": "countProposals",
      "outputs": [
        {
          "internalType": "uint256",
          "name": "",
          "type": "uint256"
        }
      ],
      "stateMutability": "view",
      "type": "function"
    },
    {
      "inputs": [
        {
          "internalType": "uint256",
          "name": "issueId",
          "type": "uint256"
        }
      ],
      "name": "issueDescription",
      "outputs": [
        {
          "internalType": "string",
          "name": "",
          "type": "string"
        }
      ],
      "stateMutability": "view",
      "type": "function"
    },
    {
      "inputs": [
        {
          "internalType": "uint256",
          "name": "issueId",
          "type": "uint256"
        }
      ],
      "name": "countOptions",
      "outputs": [
        {
          "internalType": "uint256",
          "name": "",
          "type": "uint256"
        }
      ],
      "stateMutability": "view",
      "type": "function"
    },
    {
      "inputs": [
        {
          "internalType": "uint256",
          "name": "issueId",
          "type": "uint256"
        },
        {
          "internalType": "uint256",
          "name": "option",
          "type": "uint256"
        }
      ],
      "name": "optionName",
      "outputs": [
        {
          "internalType": "string",
          "name": "",
          "type": "string"
        }
      ],
      "stateMutability": "view",
      "type": "function"
    },
    {
      "inputs": [
        {
          "internalType": "uint256",
          "name": "issueId",
          "type": "uint256"
        },
        {
          "internalType": "uint256",
          "name": "option",
          "type": "uint256"
        }
      ],
      "name": "optionInfo",
      "outputs": [
        {
          "internalType": "string",
          "name": "name",
          "type": "string"
        },
        {
          "internalType": "uint256",
          "name": "count",
          "type": "uint256"
        },
        {
          "internalType": "uint256",
          "name": "weight",
          "type": "uint256"
        }
      ],
      "stateMutability": "view",
      "type": "function"
    },
    {
      "inputs": [
        {
          "internalType": "uint256",
          "name": "issueId",
          "type": "uint256"
        },
        {
          "internalType": "address",
          "name": "addr",
          "type": "address"
        }
      ],
      "name": "ballotOf",
      "outputs": [
        {
          "internalType": "uint256",
          "name": "",
          "type": "uint256"
        }
      ],
      "stateMutability": "view",
      "type": "function"
    },
    {
      "inputs": [
        {
          "internalType": "uint256",
          "name": "issueId",
          "type": "uint256"
        },
        {
          "internalType": "address",
          "name": "addr",
          "type": "address"
        }
      ],
      "name": "weightOf",
      "outputs": [
        {
          "internalType": "uint256",
          "name": "",
          "type": "uint256"
        }
      ],
      "stateMutability": "view",
      "type": "function"
    },
    {
      "inputs": [
        {
          "internalType": "uint256",
          "name": "issueId",
          "type": "uint256"
        },
        {
          "internalType": "uint256",
          "name": "option",
          "type": "uint256"
        }
      ],
      "name": "weightedVoteCountsOf",
      "outputs": [
        {
          "internalType": "uint256",
          "name": "",
          "type": "uint256"
        }
      ],
      "stateMutability": "view",
      "type": "function"
    },
    {
      "inputs": [
        {
          "internalType": "uint256",
          "name": "issueId",
          "type": "uint256"
        }
      ],
      "name": "proposalInfo",
      "outputs": [
        {
          "internalType": "string",
          "name": "title",
          "type": "string"
        },
        {
          "internalType": "enum Voting.ProposalType",
          "name": "votingType",
          "type": "uint8"
        },
        {
          "internalType": "enum Voting.ProposalUpdater",
          "name": "votingUpdater",
          "type": "uint8"
        },
        {
          "internalType": "uint256",
          "name": "nay",
          "type": "uint256"
        },
        {
          "internalType": "uint256",
          "name": "yea",
          "type": "uint256"
        },
        {
          "internalType": "bool",
          "name": "hasQuorum",
          "type": "bool"
        },
        {
          "internalType": "bool",
          "name": "accepted",
          "type": "bool"
        },
        {
          "internalType": "uint256",
          "name": "expiryTime",
          "type": "uint256"
        }
      ],
      "stateMutability": "view",
      "type": "function"
    },
    {
      "inputs": [
        {
          "internalType": "uint256",
          "name": "issueId",
          "type": "uint256"
        }
      ],
      "name": "proposalConfig",
      "outputs": [
        {
          "internalType": "address",
          "name": "creator",
          "type": "address"
        },
        {
          "internalType": "uint256",
          "name": "quorumPct",
          "type": "uint256"
        },
        {
          "internalType": "uint256",
          "name": "supportPct",
          "type": "uint256"
        },
        {
          "internalType": "uint256",
          "name": "voters",
          "type": "uint256"
        },
        {
          "internalType": "string",
          "name": "updateData",
          "type": "string"
        },
        {
          "internalType": "bool",
          "name": "executed",
          "type": "bool"
        }
      ],
      "stateMutability": "view",
      "type": "function"
    },
    {
      "inputs": [
        {
          "internalType": "bool",
          "name": "isAvailable",
          "type": "bool"
        },
        {
          "internalType": "uint256",
          "name": "minStaked",
          "type": "uint256"
        }
      ],
      "name": "createProposalAvailability",
      "outputs": [],
      "stateMutability": "nonpayable",
      "type": "function"
    },
    {
      "inputs": [
        {
          "internalType": "string",
          "name": "title",
          "type": "string"
        },
        {
          "internalType": "string",
          "name": "description",
          "type": "string"
        },
        {
          "internalType": "uint256",
          "name": "expiryTime",
          "type": "uint256"
        },
        {
          "internalType": "string",
          "name": "updateData",
          "type": "string"
        },
        {
          "internalType": "enum Voting.ProposalUpdater",
          "name": "votingUpdater",
          "type": "uint8"
        }
      ],
      "name": "newProposal",
      "outputs": [],
      "stateMutability": "nonpayable",
      "type": "function"
    },
    {
      "inputs": [
        {
          "internalType": "string",
          "name": "title",
          "type": "string"
        },
        {
          "internalType": "string",
          "name": "description",
          "type": "string"
        },
        {
          "internalType": "uint256",
          "name": "expiryTime",
          "type": "uint256"
        },
        {
          "internalType": "string[]",
          "name": "options",
          "type": "string[]"
        },
        {
          "internalType": "enum Voting.ProposalUpdater",
          "name": "votingUpdater",
          "type": "uint8"
        }
      ],
      "name": "newMultiProposal",
      "outputs": [],
      "stateMutability": "nonpayable",
      "type": "function"
    },
    {
      "inputs": [
        {
          "internalType": "uint256",
          "name": "issueId",
          "type": "uint256"
        },
        {
          "internalType": "bytes4",
          "name": "option",
          "type": "bytes4"
        }
      ],
      "name": "vote",
      "outputs": [
        {
          "internalType": "bool",
          "name": "",
          "type": "bool"
        }
      ],
      "stateMutability": "nonpayable",
      "type": "function"
    },
    {
      "inputs": [
        {
          "internalType": "uint256",
          "name": "issueId",
          "type": "uint256"
        },
        {
          "internalType": "uint256",
          "name": "option",
          "type": "uint256"
        }
      ],
      "name": "vote",
      "outputs": [
        {
          "internalType": "bool",
          "name": "",
          "type": "bool"
        }
      ],
      "stateMutability": "nonpayable",
      "type": "function"
    },
    {
      "inputs": [
        {
          "internalType": "uint256",
          "name": "issueId",
          "type": "uint256"
        }
      ],
      "name": "execProposal",
      "outputs": [],
      "stateMutability": "nonpayable",
      "type": "function"
    },
    {
      "inputs": [
        {
          "internalType": "uint256",
          "name": "issueId",
          "type": "uint256"
        }
      ],
      "name": "redeemDepositFromProposal",
      "outputs": [],
      "stateMutability": "nonpayable",
      "type": "function"
    },
    {
      "inputs": [
        {
          "internalType": "address",
          "name": "holder",
          "type": "address"
        }
      ],
      "name": "updatedStake",
      "outputs": [],
      "stateMutability": "nonpayable",
      "type": "function"
    },
    {
      "inputs": [
        {
          "internalType": "string",
          "name": "_value",
          "type": "string"
        }
      ],
      "name": "parseInt",
      "outputs": [
        {
          "internalType": "uint256",
          "name": "_ret",
          "type": "uint256"
        }
      ],
      "stateMutability": "pure",
      "type": "function"
    },
    {
      "inputs": [
        {
          "internalType": "enum Voting.ProposalUpdater",
          "name": "votingUpdater",
          "type": "uint8"
        },
        {
          "internalType": "string",
          "name": "updateData",
          "type": "string"
        }
      ],
      "name": "updaterValidateData",
      "outputs": [
        {
          "internalType": "bool",
          "name": "",
          "type": "bool"
        }
      ],
      "stateMutability": "pure",
      "type": "function"
    }
  ],
  "bytecode": "0x60806040526402540be40060035562278d006004553480156200002157600080fd5b506000620000376001600160e01b036200044e16565b600080546001600160a01b0319166001600160a01b0383169081178255604051929350917f8be0079c531659141344cd1fd0a4f28419497f9722a3daafe3b4186f6b6457e0908290a350620000c16040516200009390620004bb565b6040518091039020604051620000a990620004bb565b6040519081900390206001600160e01b036200045216565b620000d36040516200009390620004a4565b604080518082018252614e2080825261c35160208084018281526000808052600590925293517f05b8ccbb9d4d8fb16ea74ce3c29a41f1b461fbdaff4714a0d9a8eb05499746bc5592517f05b8ccbb9d4d8fb16ea74ce3c29a41f1b461fbdaff4714a0d9a8eb05499746bd55925190929190600080516020620057b383398151915290620001659085908590620004d1565b60405180910390a2604080518082018252838152602080820184815260016000819052600590925291517f1471eb6eb2c5e789fc3de43f8ce62938c7d1836ec861730447e2ada8fd81017b5590517f1471eb6eb2c5e789fc3de43f8ce62938c7d1836ec861730447e2ada8fd81017c559051600080516020620057b383398151915290620001f79085908590620004d1565b60405180910390a2604080518082018252838152602080820184815260026000819052600590925291517f89832631fb3c3307a103ba2c84ab569c64d6182a18893dcd163f0f1c2090733a5590517f89832631fb3c3307a103ba2c84ab569c64d6182a18893dcd163f0f1c2090733b559051600080516020620057b383398151915290620002899085908590620004d1565b60405180910390a2604080518082018252838152602080820184815260036000819052600590925291517fa9bc9a3a348c357ba16b37005d7e6b3236198c0e939f4af8c5f19b8deeb8ebc05590517fa9bc9a3a348c357ba16b37005d7e6b3236198c0e939f4af8c5f19b8deeb8ebc1559051600080516020620057b3833981519152906200031b9085908590620004d1565b60405180910390a2604080518082018252838152602080820184815260046000819052600590925291517f3eec716f11ba9e820c81ca75eb978ffb45831ef8b7a53e5e422c26008e1ca6d55590517f3eec716f11ba9e820c81ca75eb978ffb45831ef8b7a53e5e422c26008e1ca6d6559051600080516020620057b383398151915290620003ad9085908590620004d1565b60405180910390a26040805180820182528381526020808201848152600560008190529182905291517f458b30c2d72bfd2c6317304a4594ecbafe5f729d3111b65fdc3a33bd48e5432d5590517f458b30c2d72bfd2c6317304a4594ecbafe5f729d3111b65fdc3a33bd48e5432e559051600080516020620057b3833981519152906200043e9085908590620004d1565b60405180910390a25050620004df565b3390565b600082815260016020526040808220600201549051839285917fbd79b86ffe0ab8e8776151514217cd7cacd52c909f66475c3af44e129f0b00ff9190a460009182526001602052604090912060020155565b6a564f54494e475f524f4c4560a81b8152600b0190565b6941444d494e5f524f4c4560b01b8152600a0190565b918252602082015260400190565b6152c480620004ef6000396000f3fe608060405234801561001057600080fd5b50600436106102525760003560e01c806375b238fc11610146578063ae092e89116100c3578063e0136a7911610087578063e0136a791461050c578063eaac697a14610524578063f0464a2b14610537578063f2fde38b1461054a578063f3da049e1461055d578063f6621dc31461056557610252565b8063ae092e89146104a4578063b384abef146104cb578063c9c3d42e146104de578063ca15c873146104e6578063d547741f146104f957610252565b806391d148541161010a57806391d1485414610450578063933c1306146104635780639d91cf9a14610476578063a1629f9214610489578063a217fddf1461049c57610252565b806375b238fc14610405578063761bbd8a1461040d5780638935ced5146104155780638da5cb5b146104285780639010d07c1461043d57610252565b80634883a6a8116101d45780636e6a1dc3116101985780636e6a1dc3146103b15780636f963fa1146103c457806370480275146103d757806370c88f30146103ea578063715018a6146103fd57610252565b80634883a6a8146103435780634ba241d8146103565780634c461f5a14610378578063503814511461038b57806353c2d4791461039e57610252565b806331aab8881161021b57806331aab888146102dd57806332ec991c1461030257806336568abe1461031557806342346c5e1461032857806346c6211e1461033b57610252565b8062fe1bff1461025757806312a70f0b146102805780631e01a17214610295578063248a9ca3146102b55780632f2ff15d146102c8575b600080fd5b61026a6102653660046147c4565b610586565b6040516102779190614b3e565b60405180910390f35b61028861083f565b6040516102779190614b59565b6102a86102a3366004614736565b610856565b6040516102779190614b77565b6102886102c3366004614736565b610934565b6102db6102d636600461474e565b61094c565b005b6102f06102eb366004614736565b610994565b60405161027796959493929190614af6565b6102886103103660046149f5565b6109e0565b6102db61032336600461474e565b610a3f565b6102886103363660046149a2565b610a81565b610288610b10565b61026a610351366004614a21565b610b17565b610369610364366004614788565b610c03565b60405161027793929190614be9565b6102db610386366004614715565b610d3b565b6102db6103993660046148ec565b610de3565b6102db6103ac366004614811565b611489565b6102886103bf366004614788565b611be3565b61026a6103d23660046146d0565b611c4c565b6102db6103e53660046146d0565b611d3f565b6102db6103f83660046146d0565b611d94565b6102db612170565b6102886121ef565b6102886121fb565b6102886104233660046149f5565b612201565b61043061225c565b6040516102779190614ac9565b61043061044b366004614788565b61226b565b61026a61045e36600461474e565b612290565b6102db610471366004614736565b6122ae565b6102886104843660046146eb565b612880565b6102db610497366004614736565b6128a8565b6102886129b1565b6104b76104b2366004614736565b6129b6565b604051610277989796959493929190614b8a565b61026a6104d9366004614788565b612a1b565b610288612e29565b6102886104f4366004614736565b612e2f565b6102db61050736600461474e565b612e46565b610514612e80565b6040516102779493929190615228565b6102a8610532366004614788565b612f4d565b610288610545366004614736565b61306c565b6102db6105583660046146d0565b6130b4565b61026a61316a565b6105786105733660046147a9565b61317a565b60405161027792919061526a565b60008083600581111561059557fe5b14156105a357506001610839565b60018360058111156105b157fe5b14156105de5760006105c283610a81565b905060c881101580156105d65750610bb881105b915050610839565b60028360058111156105ec57fe5b14156106165760006105fd83610a81565b9050600a81101580156105d65750605a10159050610839565b600383600581111561062457fe5b141561064057600061063583610a81565b151591506108399050565b600483600581111561064e57fe5b141561080b5781518290600d1461066457600080fd5b604080516001808252818301909252606091602082018180388339505060408051600680825281830190925292935060609291506020820181803883395050604080516006808252818301909252929350606092915060208201818038833901905050905060005b845181101561079457600181101561071f57846000815181106106eb57fe5b602001015160f81c60f81b8460008151811061070357fe5b60200101906001600160f81b031916908160001a90535061078c565b600781101561074e5784818151811061073457fe5b602001015160f81c60f81b83600183038151811061070357fe5b84818151811061075a57fe5b602001015160f81c60f81b82600783038151811061077457fe5b60200101906001600160f81b031916908160001a9053505b6001016106cc565b5060006107a083610a81565b905060006107ad83610a81565b9050600080831180156107c35750620186a08311155b90508080156107d25750600082115b80156107e15750620186a08211155b90508080156107fc575060046107f687610a81565b60ff1611155b97506108399650505050505050565b600583600581111561081957fe5b1415610835576201518061082c83610a81565b10159050610839565b5060005b92915050565b60405161084b90614a9c565b604051809103902081565b60608160008111801561086b5750600b548111155b6108905760405162461bcd60e51b815260040161088790614d71565b60405180910390fd5b6000838152600660209081526040918290206002908101805484516001821615610100026000190190911692909204601f8101849004840283018401909452838252909290918301828280156109275780601f106108fc57610100808354040283529160200191610927565b820191906000526020600020905b81548152906001019060200180831161090a57829003601f168201915b5050505050915050919050565b6000818152600160205260409020600201545b919050565b60008281526001602052604090206002015461096a9061045e6131d6565b6109865760405162461bcd60e51b815260040161088790614c50565b61099082826131da565b5050565b600080600080606060006109a6614348565b6109af88613249565b8051602082015160408301516060840151608085015160a090950151939d929c50909a509850919650945092505050565b6000826000811180156109f55750600b548111155b610a115760405162461bcd60e51b815260040161088790614d71565b6001600160a01b038316600090815260096020908152604080832087845290915290205491505b5092915050565b610a476131d6565b6001600160a01b0316816001600160a01b031614610a775760405162461bcd60e51b815260040161088790615198565b6109908282613680565b80516000908290600190600019015b8251811015610b08576030838281518110610aa757fe5b016020015160f81c10801590610ad157506039838281518110610ac657fe5b016020015160f81c11155b610ad757fe5b816030848381518110610ae657fe5b016020015160f81c0360ff16029390930192600a919091029060001901610a90565b505050919050565b6003545b90565b600082600081118015610b2c5750600b548111155b610b485760405162461bcd60e51b815260040161088790614d71565b6279656160e81b626e617960e81b6001600160e01b03198516821480610b7a57506001600160e01b0319858116908216145b610b965760405162461bcd60e51b8152600401610887906151e7565b60008681526006602052604081206003015460ff166001811115610bb657fe5b14610bd35760405162461bcd60e51b815260040161088790614e1c565b60006001600160e01b03198681169084161415610bee575060015b610bf887826136ef565b979650505050505050565b606060008084600081118015610c1b5750600b548111155b610c375760405162461bcd60e51b815260040161088790614d71565b6000868152600660205260409020600801548510610c675760405162461bcd60e51b815260040161088790614f1d565b6000868152600660205260408120600801805487908110610c8457fe5b60009182526020918290206003919091020180546040805160026001841615610100026000190190931692909204601f810185900485028301850190915280825291935091839190830182828015610d1d5780601f10610cf257610100808354040283529160200191610d1d565b820191906000526020600020905b815481529060010190602001808311610d0057829003601f168201915b50505050509450806001015493508060020154925050509250925092565b610d58604051610d4a90614a9c565b604051809103902033612290565b80610d6d5750610d6d604051610d4a90614ab3565b610d895760405162461bcd60e51b8152600401610887906150e2565b6002805460ff60a01b1916600160a01b8415150217905560038190556040517f07b2940585ef57a3c794dd4c4e539be91c190416b66127b5a590330c140aac0290610dd79084908490614b49565b60405180910390a15050565b610df2604051610d4a90614a9c565b80610e075750610e07604051610d4a90614ab3565b156110e95786610e295760405162461bcd60e51b815260040161088790615124565b610e31613a16565b8411610e4f5760405162461bcd60e51b815260040161088790614c9f565b600b805460010190819055610e6390613a1a565b600b546000908152600660205260409020610e7c614389565b60056000846005811115610e8c57fe5b60ff16815260208082019290925260409081016000208151808301909252805482526001908101549282019290925283546001600160a01b031916331784559150610eda9083018b8b6143a3565b50610ee96002830189896143a3565b508051600583810191909155602082015160078401556009830187905560038301805460ff1981168255859261ffff1990911690610100908490811115610f2c57fe5b02179055506000836005811115610f3f57fe5b14610fb057610f848386868080601f01602080910402602001604051908101604052809392919081815260200183838082843760009201919091525061058692505050565b610fa05760405162461bcd60e51b815260040161088790614ee6565b610fae6004830186866143a3565b505b6040805160a081018252600360608201818152626e617960e81b60808401528252600060208084018290529383018190526008860180546001810182559082529084902083518051949592909302019261100d9284920190614421565b50602082810151600180840191909155604093840151600290930192909255825160a0810184526003606082018181526279656160e81b6080840152825260008284018190529482018590526008870180549485018155855293829020815180519295949094020192611084928492910190614421565b506020820151600182015560409091015160029091015560005b336001600160a01b0316600b547f22910aa3d36b7721f45dfd4a366dd228fb8e9f8b0752b5cf6557acba94d2edd9866040516110da9190614b62565b60405180910390a4505061147f565b600254600160a01b900460ff1615611467576002546040516370a0823160e01b81526000916001600160a01b0316906370a082319061112c903390600401614ac9565b60206040518083038186803b15801561114457600080fd5b505afa158015611158573d6000803e3d6000fd5b505050506040513d601f19601f8201168201806040525061117c91908101906149dd565b9050600354811061146557876111a45760405162461bcd60e51b815260040161088790615124565b6111ac613a16565b85116111ca5760405162461bcd60e51b815260040161088790614c9f565b600b8054600101908190556111de90613a1a565b600b5460009081526006602052604090206111f7614389565b6005600085600581111561120757fe5b60ff16815260208082019290925260409081016000208151808301909252805482526001908101549282019290925283546001600160a01b0319163317845591506112559083018c8c6143a3565b50611264600283018a8a6143a3565b508051600583810191909155602082015160078401556009830188905560038301805460ff1981168255869261ffff19909116906101009084908111156112a757fe5b021790555060008460058111156112ba57fe5b1461132b576112ff8487878080601f01602080910402602001604051908101604052809392919081815260200183838082843760009201919091525061058692505050565b61131b5760405162461bcd60e51b815260040161088790614ee6565b6113296004830187876143a3565b505b6040805160a081018252600360608201818152626e617960e81b6080840152825260006020808401829052938301819052600886018054600181018255908252908490208351805194959290930201926113889284920190614421565b50602082810151600180840191909155604093840151600290930192909255825160a0810184526003606082018181526279656160e81b60808401528252600082840181905294820185905260088701805494850181558552938290208151805192959490940201926113ff928492910190614421565b506020820151600182015560409091015160029091015560005b336001600160a01b0316600b547f22910aa3d36b7721f45dfd4a366dd228fb8e9f8b0752b5cf6557acba94d2edd9876040516114559190614b62565b60405180910390a450505061147f565b505b60405162461bcd60e51b8152600401610887906150e2565b5050505050505050565b611498604051610d4a90614a9c565b806114ad57506114ad604051610d4a90614ab3565b1561183e57866114cf5760405162461bcd60e51b815260040161088790615124565b6114d7613a16565b84116114f55760405162461bcd60e51b815260040161088790614c9f565b600182116115155760405162461bcd60e51b815260040161088790614d2d565b600b80546001019081905561152990613a1a565b600b546000908152600660205260409020611542614389565b6005600084600581111561155257fe5b60ff16815260208082019290925260409081016000208151808301909252805482526001908101549282019290925283546001600160a01b0319163317845591506115a09083018b8b6143a3565b506115af6002830189896143a3565b508051600583810191909155602082015160078401556009830187905560038301805460ff1916600117808255859261ff0019909116906101009084908111156115f557fe5b02179055506040805160a081018252600460608201908152630536b69760e41b60808301528152600060208083018290529282018190526008850180546001810182559082529083902082518051939460039093029091019261165b9284920190614421565b506020820151600182015560409091015160029091015560005b8481101561183657600084600581111561168b57fe5b1461174157611725848787848181106116a057fe5b602002820190508035601e19368490030181126116bc57600080fd5b9091016020810191503567ffffffffffffffff8111156116db57600080fd5b368190038213156116eb57600080fd5b8080601f01602080910402602001604051908101604052809392919081815260200183838082843760009201919091525061058692505050565b6117415760405162461bcd60e51b815260040161088790614ee6565b82600801604051806060016040528088888581811061175c57fe5b602002820190508035601e193684900301811261177857600080fd5b9091016020810191503567ffffffffffffffff81111561179757600080fd5b368190038213156117a757600080fd5b8080601f0160208091040260200160405190810160405280939291908181526020018383808284376000920182905250938552505050602080830182905260409092018190528354600181018555938152819020825180519394600302909101926118159284920190614421565b50602082015160018083019190915560409092015160029091015501611675565b50600161109e565b600254600160a01b900460ff1615611467576002546040516370a0823160e01b81526000916001600160a01b0316906370a0823190611881903390600401614ac9565b60206040518083038186803b15801561189957600080fd5b505afa1580156118ad573d6000803e3d6000fd5b505050506040513d601f19601f820116820180604052506118d191908101906149dd565b9050600354811061146557876118f95760405162461bcd60e51b815260040161088790615124565b611901613a16565b851161191f5760405162461bcd60e51b815260040161088790614c9f565b6001831161193f5760405162461bcd60e51b815260040161088790614d2d565b600b80546001019081905561195390613a1a565b600b54600090815260066020526040902061196c614389565b6005600085600581111561197c57fe5b60ff16815260208082019290925260409081016000208151808301909252805482526001908101549282019290925283546001600160a01b0319163317845591506119ca9083018c8c6143a3565b506119d9600283018a8a6143a3565b508051600583810191909155602082015160078401556009830188905560038301805460ff1916600117808255869261ff001990911690610100908490811115611a1f57fe5b02179055506040805160a081018252600460608201908152630536b69760e41b608083015281526000602080830182905292820181905260088501805460018101825590825290839020825180519394600390930290910192611a859284920190614421565b506020820151600182015560409091015160029091015560005b85811015611bdb576000856005811115611ab557fe5b14611ae657611aca858888848181106116a057fe5b611ae65760405162461bcd60e51b815260040161088790614ee6565b826008016040518060600160405280898985818110611b0157fe5b602002820190508035601e1936849003018112611b1d57600080fd5b9091016020810191503567ffffffffffffffff811115611b3c57600080fd5b36819003821315611b4c57600080fd5b8080601f016020809104026020016040519081016040528093929190818152602001838380828437600092018290525093855250505060208083018290526040909201819052835460018101855593815281902082518051939460030290910192611bba9284920190614421565b50602082015160018083019190915560409092015160029091015501611a9f565b506001611419565b600082600081118015611bf85750600b548111155b611c145760405162461bcd60e51b815260040161088790614d71565b6000848152600660205260409020600801805484908110611c3157fe5b90600052602060002090600302016001015491505092915050565b6000611c6b604051611c5d90614a9c565b604051809103902083612290565b80611c805750611c80604051611c5d90614ab3565b15611c8d57506001610947565b600254600160a01b900460ff1615611d3757600254604051632c9aab9b60e11b81526000916001600160a01b031690635935573690611cd0908690600401614ac9565b60206040518083038186803b158015611ce857600080fd5b505afa158015611cfc573d6000803e3d6000fd5b505050506040513d601f19601f82011682018060405250611d2091908101906149dd565b90506003548110611d35576001915050610947565b505b506000919050565b611d476131d6565b6000546001600160a01b03908116911614611d745760405162461bcd60e51b815260040161088790614fd4565b611d91604051611d8390614ab3565b604051809103902082610986565b50565b6002546001600160a01b03163314611dab57600080fd5b6001600160a01b0381166000908152600a6020908152604091829020805483518184028101840190945280845260609392830182828015611e0b57602002820191906000526020600020905b815481526020019060010190808311611df7575b50505050509050805160001415611e225750611d91565b6002546040805163ca5c7b9160e01b815290516000926001600160a01b03169163ca5c7b91916004808301926020929190829003018186803b158015611e6757600080fd5b505afa158015611e7b573d6000803e3d6000fd5b505050506040513d601f19601f82011682018060405250611e9f91908101906149dd565b600254604051632c9aab9b60e11b81529192506000916001600160a01b0390911690635935573690611ed5908790600401614ac9565b60206040518083038186803b158015611eed57600080fd5b505afa158015611f01573d6000803e3d6000fd5b505050506040513d601f19601f82011682018060405250611f2591908101906149dd565b905060606000805b855181101561213d576000868281518110611f4457fe5b602002602001015190506000600660008381526020019081526020016000209050611f6d613a16565b81600901541015611f7f575050612135565b6001600160a01b038916600090815260096020908152604080832085845290915290208661206057600b82018054600019019055600181018054600a840180549190910390555481546008840180549091908110611fd957fe5b9060005260206000209060030201600201600082825403925050819055508160080181600001548154811061200a57fe5b6000918252602082206001600390920201810180546000190190558201556005820154600a8301548990620186a0028161204057fe5b6006909401805460ff191691909404919091101517909155506121359050565b86816001015411156120a657868160010154038260080182600001548154811061208657fe5b6000918252602090912060026003909202010180549190910390556120db565b80600101548703826008018260000154815481106120c057fe5b60009182526020909120600260039092020101805490910190555b600181018790556005820154600a8301548990620186a002816120fa57fe5b60068501805460ff19169290910492909210151790558551839087908790811061212057fe5b60209081029190910101525050600190920191505b600101611f2d565b506001600160a01b0386166000908152600a6020908152604090912083516121679285019061448f565b50505050505050565b6121786131d6565b6000546001600160a01b039081169116146121a55760405162461bcd60e51b815260040161088790614fd4565b600080546040516001600160a01b03909116907f8be0079c531659141344cd1fd0a4f28419497f9722a3daafe3b4186f6b6457e0908390a3600080546001600160a01b0319169055565b60405161084b90614ab3565b600b5490565b6000826000811180156122165750600b548111155b6122325760405162461bcd60e51b815260040161088790614d71565b50506001600160a01b03166000908152600960209081526040808320938352929052206001015490565b6000546001600160a01b031690565b6000828152600160205260408120612289908363ffffffff613acf16565b9392505050565b6000828152600160205260408120612289908363ffffffff613adb16565b6122b6614348565b6122bf82613249565b80519091506001600160a01b03163314806122e457506122e4604051610d4a90614a9c565b806122f957506122f9604051610d4a90614ab3565b6123155760405162461bcd60e51b8152600401610887906150e2565b8060a00151156123375760405162461bcd60e51b815260040161088790614f9d565b61233f6144c9565b61234883613af0565b905060008160400151600581111561235c57fe5b141561237a5760405162461bcd60e51b815260040161088790615151565b612382613a16565b816101200151106123a55760405162461bcd60e51b815260040161088790615058565b6123ad613a16565b60045482610120015101116123d45760405162461bcd60e51b8152600401610887906150a1565b8060c001516123f55760405162461bcd60e51b815260040161088790614dd7565b82600760008360400151600581111561240a57fe5b60ff1660ff16815260200190815260200160002054111561243d5760405162461bcd60e51b815260040161088790615009565b606060018260200151600181111561245157fe5b141561251b57600660008581526020019081526020016000206008018260e001518154811061247c57fe5b6000918252602091829020600390910201805460408051601f600260001961010060018716150201909416939093049283018590048502810185019091528181529283018282801561250f5780601f106124e45761010080835404028352916020019161250f565b820191906000526020600020905b8154815290600101906020018083116124f257829003601f168201915b50505050509050612522565b5060808201515b60018260400151600581111561253457fe5b14156125a9576002546001600160a01b031663c108a4028561255584610a81565b6040518363ffffffff1660e01b815260040161257292919061526a565b600060405180830381600087803b15801561258c57600080fd5b505af11580156125a0573d6000803e3d6000fd5b505050506127ed565b6002826040015160058111156125bb57fe5b14156125dc576002546001600160a01b031663ac3cd7c68561255584610a81565b6003826040015160058111156125ee57fe5b1415612605576125fd81610a81565b6003556127ed565b60048260400151600581111561261757fe5b14156127c85760408051600180825281830190925282916060919060208201818038833950506040805160068082528183019092529293506060929150602082018180388339505060408051600680825281830190925292935060609291506020820181803883390190505090508351600d1461269357600080fd5b60005b845181101561275e5760018110156126e957846000815181106126b557fe5b602001015160f81c60f81b846000815181106126cd57fe5b60200101906001600160f81b031916908160001a905350612756565b6007811015612718578481815181106126fe57fe5b602001015160f81c60f81b8360018303815181106126cd57fe5b84818151811061272457fe5b602001015160f81c60f81b82600783038151811061273e57fe5b60200101906001600160f81b031916908160001a9053505b600101612696565b50600061276a83610a81565b9050600061277783610a81565b90506040518060400160405280838152602001828152506005600061279b88610a81565b60ff16815260208082019290925260400160002082518155910151600190910155506127ed945050505050565b6005826040015160058111156127da57fe5b14156127ed576127e981610a81565b6004555b600084815260066020526040808220600c01805460ff191660011790558301518591600791600581111561281d57fe5b60ff1660ff16815260200190815260200160002081905550336001600160a01b03168260400151600581111561284f57fe5b60405186907f76ddf1c56562a7f2299089b84bd25caab82ee275576eb7984361159f17d63eac90600090a450505050565b6001600160a01b03919091166000908152600860209081526040808320938352929052205490565b806000811180156128bb5750600b548111155b6128d75760405162461bcd60e51b815260040161088790614d71565b6000828152600660205260409020546001600160a01b0316331461290d5760405162461bcd60e51b8152600401610887906150e2565b3360009081526008602090815260408083208584529091529020546129445760405162461bcd60e51b815260040161088790614da8565b61294c6144c9565b61295583613af0565b905061295f613a16565b816101200151106129825760405162461bcd60e51b815260040161088790615058565b8060c001516129a35760405162461bcd60e51b815260040161088790614dd7565b6129ac836140d8565b505050565b600081565b606060008060008060008060006129cb6144c9565b6129d48a613af0565b905080600001519850806020015197508060400151965080606001519550806080015194508060a0015193508060c001519250806101200151915050919395975091939597565b600082600081118015612a305750600b548111155b612a4c5760405162461bcd60e51b815260040161088790614d71565b612a54614523565b60008581526006602090815260409182902082516101c08101845281546001600160a01b03168152600180830180548651600261010094831615949094026000190190911692909204601f8101869004860283018601909652858252919492938581019391929190830182828015612b0d5780601f10612ae257610100808354040283529160200191612b0d565b820191906000526020600020905b815481529060010190602001808311612af057829003601f168201915b5050509183525050600282810180546040805160206001841615610100026000190190931694909404601f81018390048302850183019091528084529381019390830182828015612b9f5780601f10612b7457610100808354040283529160200191612b9f565b820191906000526020600020905b815481529060010190602001808311612b8257829003601f168201915b5050509183525050600382015460209091019060ff166001811115612bc057fe5b6001811115612bcb57fe5b81526020016003820160019054906101000a900460ff166005811115612bed57fe5b6005811115612bf857fe5b815260048201805460408051602060026001851615610100026000190190941693909304601f8101849004840282018401909252818152938201939291830182828015612c865780601f10612c5b57610100808354040283529160200191612c86565b820191906000526020600020905b815481529060010190602001808311612c6957829003601f168201915b50505050508152602001600582015481526020016006820160009054906101000a900460ff161515151581526020016007820154815260200160088201805480602002602001604051908101604052809291908181526020016000905b82821015612db85760008481526020908190206040805160038602909201805460026001821615610100026000190190911604601f8101859004909402830160809081019092526060830184815292939092849290918491840182828015612d8c5780601f10612d6157610100808354040283529160200191612d8c565b820191906000526020600020905b815481529060010190602001808311612d6f57829003601f168201915b505050505081526020016001820154815260200160028201548152505081526020019060010190612ce3565b5050509082525060098201546020820152600a8201546040820152600b8201546060820152600c9091015460ff161515608090910152610120810151519091508410612e165760405162461bcd60e51b815260040161088790614f1d565b612e2085856136ef565b95945050505050565b60045490565b6000818152600160205260408120610839906141a2565b600082815260016020526040902060020154612e649061045e6131d6565b610a775760405162461bcd60e51b815260040161088790614f4d565b600b546000818152600660209081526040808320600190810180548351600293821615610100026000190190911692909204601f810185900485028301850190935282825260609493849390830182828015612f1d5780601f10612ef257610100808354040283529160200191612f1d565b820191906000526020600020905b815481529060010190602001808311612f0057829003601f168201915b5050506000878152600660205260409020600301549697929660ff80821697506101009091041694509192505050565b606082600081118015612f625750600b548111155b612f7e5760405162461bcd60e51b815260040161088790614d71565b6000848152600660205260409020600801548310612fae5760405162461bcd60e51b815260040161088790614f1d565b6000848152600660205260409020600801805484908110612fcb57fe5b6000918252602091829020600390910201805460408051601f600260001961010060018716150201909416939093049283018590048502810185019091528181529283018282801561305e5780601f106130335761010080835404028352916020019161305e565b820191906000526020600020905b81548152906001019060200180831161304157829003601f168201915b505050505091505092915050565b6000816000811180156130815750600b548111155b61309d5760405162461bcd60e51b815260040161088790614d71565b505060009081526006602052604090206008015490565b6130bc6131d6565b6000546001600160a01b039081169116146130e95760405162461bcd60e51b815260040161088790614fd4565b6001600160a01b03811661310f5760405162461bcd60e51b815260040161088790614ce7565b600080546040516001600160a01b03808516939216917f8be0079c531659141344cd1fd0a4f28419497f9722a3daafe3b4186f6b6457e091a3600080546001600160a01b0319166001600160a01b0392909216919091179055565b600254600160a01b900460ff1690565b6000806005600084600581111561318d57fe5b60ff1660ff168152602001908152602001600020600001549150600560008460058111156131b757fe5b60ff1660ff168152602001908152602001600020600101549050915091565b3390565b60008281526001602052604090206131f8908263ffffffff6141ad16565b15610990576132056131d6565b6001600160a01b0316816001600160a01b0316837f2f8788117e7eff1d82e926ec794901d17c78024a50270940304540a733656f0d60405160405180910390a45050565b613251614348565b816000811180156132645750600b548111155b6132805760405162461bcd60e51b815260040161088790614d71565b613288614523565b60008481526006602090815260409182902082516101c08101845281546001600160a01b03168152600180830180548651600261010094831615949094026000190190911692909204601f81018690048602830186019096528582529194929385810193919291908301828280156133415780601f1061331657610100808354040283529160200191613341565b820191906000526020600020905b81548152906001019060200180831161332457829003601f168201915b5050509183525050600282810180546040805160206001841615610100026000190190931694909404601f810183900483028501830190915280845293810193908301828280156133d35780601f106133a8576101008083540402835291602001916133d3565b820191906000526020600020905b8154815290600101906020018083116133b657829003601f168201915b5050509183525050600382015460209091019060ff1660018111156133f457fe5b60018111156133ff57fe5b81526020016003820160019054906101000a900460ff16600581111561342157fe5b600581111561342c57fe5b815260048201805460408051602060026001851615610100026000190190941693909304601f81018490048402820184019092528181529382019392918301828280156134ba5780601f1061348f576101008083540402835291602001916134ba565b820191906000526020600020905b81548152906001019060200180831161349d57829003601f168201915b50505050508152602001600582015481526020016006820160009054906101000a900460ff161515151581526020016007820154815260200160088201805480602002602001604051908101604052809291908181526020016000905b828210156135ec5760008481526020908190206040805160038602909201805460026001821615610100026000190190911604601f81018590049094028301608090810190925260608301848152929390928492909184918401828280156135c05780601f10613595576101008083540402835291602001916135c0565b820191906000526020600020905b8154815290600101906020018083116135a357829003601f168201915b505050505081526020016001820154815260200160028201548152505081526020019060010190613517565b505050908252506009820154602080830191909152600a830154604080840191909152600b840154606080850191909152600c9094015460ff16151560809384015284516001600160a01b0316885260c085015191880191909152610100840151908701526101808301519186019190915260a080830151918601919091526101a090910151151590840152509092915050565b600082815260016020526040902061369e908263ffffffff6141c216565b15610990576136ab6131d6565b6001600160a01b0316816001600160a01b0316837ff6391f5c32d9c69d2a47ea670b442974b53935d1edc7fd64eb21e047a839171b60405160405180910390a45050565b6000826000811180156137045750600b548111155b6137205760405162461bcd60e51b815260040161088790614d71565b6000848152600660205260409020613736613a16565b8160090154101561374b576000925050610a38565b600254604051632c9aab9b60e11b815233916000916001600160a01b0390911690635935573690613780908590600401614ac9565b60206040518083038186803b15801561379857600080fd5b505afa1580156137ac573d6000803e3d6000fd5b505050506040513d601f19601f820116820180604052506137d091908101906149dd565b9050600081116137f25760405162461bcd60e51b815260040161088790614e9b565b6001600160a01b03821660009081526009602090815260408083208a8452909152902060010154156138365760405162461bcd60e51b815260040161088790614e64565b60408051808201825287815260208082018481526001600160a01b0386166000908152600983528481208c8252909252929020905181559051600191820155600b840180549091019055600a83018054820190556008830180548790811061389a57fe5b906000526020600020906003020160010160008154809291906001019190505550808360080187815481106138cb57fe5b6000918252602090912060026003909202010180549091019055600683015460ff1661399f576002546040805163ca5c7b9160e01b815290516000926001600160a01b03169163ca5c7b91916004808301926020929190829003018186803b15801561393657600080fd5b505afa15801561394a573d6000803e3d6000fd5b505050506040513d601f19601f8201168201806040525061396e91908101906149dd565b84600a0154620186a0028161397f57fe5b0490508360050154811061399d5760068401805460ff191660011790555b505b336000908152600a60209081526040808320805460018101825590845291909220018890555186906001600160a01b0384169089907f8eea3a81425aea5e440ed6b6289a8aea0db8025c75fdeb1434bd81650177034090613a01908690614b59565b60405180910390a45060019695505050505050565b4290565b613a29604051610d4a90614a9c565b80613a3e5750613a3e604051610d4a90614ab3565b15613a4857611d91565b600354336000818152600860209081526040808320868452909152908190208390556002549051631131011960e21b81526001600160a01b03909116926344c4046492613a9a92909190600401614add565b600060405180830381600087803b158015613ab457600080fd5b505af1158015613ac8573d6000803e3d6000fd5b5050505050565b600061228983836141d7565b6000612289836001600160a01b03841661421c565b613af86144c9565b81600081118015613b0b5750600b548111155b613b275760405162461bcd60e51b815260040161088790614d71565b613b2f614523565b60008481526006602090815260409182902082516101c08101845281546001600160a01b03168152600180830180548651600261010094831615949094026000190190911692909204601f8101869004860283018601909652858252919492938581019391929190830182828015613be85780601f10613bbd57610100808354040283529160200191613be8565b820191906000526020600020905b815481529060010190602001808311613bcb57829003601f168201915b5050509183525050600282810180546040805160206001841615610100026000190190931694909404601f81018390048302850183019091528084529381019390830182828015613c7a5780601f10613c4f57610100808354040283529160200191613c7a565b820191906000526020600020905b815481529060010190602001808311613c5d57829003601f168201915b5050509183525050600382015460209091019060ff166001811115613c9b57fe5b6001811115613ca657fe5b81526020016003820160019054906101000a900460ff166005811115613cc857fe5b6005811115613cd357fe5b815260048201805460408051602060026001851615610100026000190190941693909304601f8101849004840282018401909252818152938201939291830182828015613d615780601f10613d3657610100808354040283529160200191613d61565b820191906000526020600020905b815481529060010190602001808311613d4457829003601f168201915b50505050508152602001600582015481526020016006820160009054906101000a900460ff161515151581526020016007820154815260200160088201805480602002602001604051908101604052809291908181526020016000905b82821015613e935760008481526020908190206040805160038602909201805460026001821615610100026000190190911604601f8101859004909402830160809081019092526060830184815292939092849290918491840182828015613e675780601f10613e3c57610100808354040283529160200191613e67565b820191906000526020600020905b815481529060010190602001808311613e4a57829003601f168201915b505050505081526020016001820154815260200160028201548152505081526020019060010190613dbe565b505050908252506009820154602080830191909152600a8301546040830152600b830154606080840191909152600c9093015460ff161515608090920191909152828101518652908201519192508401906001811115613eef57fe5b90816001811115613efc57fe5b905250608081015160408401906005811115613f1457fe5b90816005811115613f2157fe5b90525061014081015161012084015260e0810151151560a0840152600083602001516001811115613f4e57fe5b1415613ffc57806101200151600081518110613f6657fe5b602002602001015160400151836060018181525050806101200151600181518110613f8d57fe5b602002602001015160400151836080018181525050613faa613a16565b836101200151108015613fbe57508260a001515b15613fef578061016001518360800151620186a00281613fda57fe5b610100830151919004101560c0840152613ff7565b600060c08401525b6140d1565b614004613a16565b83610120015110801561401857508260a001515b156140c9576000805b826101200151518110156140a4576140376145aa565b836101200151828151811061404857fe5b6020026020010151905082816040015111156140865760e086018290526040810151610100870151909350156140815760006101008701525b61409b565b828160400151141561409b5760016101008701525b50600101614021565b508361010001511580156140bc575060008460e00151115b151560c0850152506140d1565b600060c08401525b5050919050565b6140e7604051610d4a90614a9c565b806140fc57506140fc604051610d4a90614ab3565b1561410657611d91565b60025433600081815260086020908152604080832086845290915290819020549051633ba71a1560e01b81526001600160a01b0390931692633ba71a1592614152929091600401614add565b600060405180830381600087803b15801561416c57600080fd5b505af1158015614180573d6000803e3d6000fd5b5050336000908152600860209081526040808320868452909152812055505050565b600061083982614234565b6000612289836001600160a01b038416614238565b6000612289836001600160a01b038416614282565b815460009082106141fa5760405162461bcd60e51b815260040161088790614c0e565b82600001828154811061420957fe5b9060005260206000200154905092915050565b60009081526001919091016020526040902054151590565b5490565b6000614244838361421c565b61427a57508154600181810184556000848152602080822090930184905584548482528286019093526040902091909155610839565b506000610839565b6000818152600183016020526040812054801561433e57835460001980830191908101906000908790839081106142b557fe5b90600052602060002001549050808760000184815481106142d257fe5b60009182526020808320909101929092558281526001898101909252604090209084019055865487908061430257fe5b60019003818190600052602060002001600090559055866001016000878152602001908152602001600020600090556001945050505050610839565b6000915050610839565b6040518060c0016040528060006001600160a01b03168152602001600081526020016000815260200160008152602001606081526020016000151581525090565b604051806040016040528060008152602001600081525090565b828054600181600116156101000203166002900490600052602060002090601f016020900481019282601f106143e45782800160ff19823516178555614411565b82800160010185558215614411579182015b828111156144115782358255916020019190600101906143f6565b5061441d9291506145cb565b5090565b828054600181600116156101000203166002900490600052602060002090601f016020900481019282601f1061446257805160ff1916838001178555614411565b82800160010185558215614411579182015b82811115614411578251825591602001919060010190614474565b8280548282559060005260206000209081019282156144115791602002820182811115614411578251825591602001919060010190614474565b60408051610140810190915260608152602081016000815260200160008152602001600081526020016000815260200160001515815260200160001515815260200160008152602001600015158152602001600081525090565b604051806101c0016040528060006001600160a01b0316815260200160608152602001606081526020016000600181111561455a57fe5b815260200160008152602001606081526020016000815260200160001515815260200160008152602001606081526020016000815260200160008152602001600081526020016000151581525090565b60405180606001604052806060815260200160008152602001600081525090565b610b1491905b8082111561441d57600081556001016145d1565b80356001600160a01b038116811461083957600080fd5b80356006811061083957600080fd5b60008083601f84011261461c578182fd5b50813567ffffffffffffffff811115614633578182fd5b60208301915083602082850101111561464b57600080fd5b9250929050565b600082601f830112614662578081fd5b813567ffffffffffffffff80821115614679578283fd5b604051601f8301601f191681016020018281118282101715614699578485fd5b6040528281529250828483016020018610156146b457600080fd5b8260208601602083013760006020848301015250505092915050565b6000602082840312156146e1578081fd5b61228983836145e5565b600080604083850312156146fd578081fd5b61470784846145e5565b946020939093013593505050565b60008060408385031215614727578182fd5b82358015158114614707578283fd5b600060208284031215614747578081fd5b5035919050565b60008060408385031215614760578182fd5b8235915060208301356001600160a01b038116811461477d578182fd5b809150509250929050565b6000806040838503121561479a578182fd5b50508035926020909101359150565b6000602082840312156147ba578081fd5b61228983836145fc565b600080604083850312156147d6578182fd5b6147e084846145fc565b9150602083013567ffffffffffffffff8111156147fb578182fd5b61480785828601614652565b9150509250929050565b60008060008060008060008060a0898b03121561482c578384fd5b883567ffffffffffffffff80821115614843578586fd5b61484f8c838d0161460b565b909a50985060208b0135915080821115614867578586fd5b6148738c838d0161460b565b909850965060408b0135955060608b0135915080821115614892578485fd5b818b018c601f8201126148a3578586fd5b80359250818311156148b3578586fd5b8c602080850283010111156148c6578586fd5b60200194509092506148dd90508a60808b016145fc565b90509295985092959890939650565b60008060008060008060008060a0898b031215614907578384fd5b883567ffffffffffffffff8082111561491e578586fd5b61492a8c838d0161460b565b909a50985060208b0135915080821115614942578586fd5b61494e8c838d0161460b565b909850965060408b0135955060608b013591508082111561496d578485fd5b5061497a8b828c0161460b565b909450925050608089013560068110614991578182fd5b809150509295985092959890939650565b6000602082840312156149b3578081fd5b813567ffffffffffffffff8111156149c9578182fd5b6149d584828501614652565b949350505050565b6000602082840312156149ee578081fd5b5051919050565b60008060408385031215614a07578182fd5b82359150614a1884602085016145e5565b90509250929050565b60008060408385031215614a33578182fd5b8235915060208301356001600160e01b03198116811461477d578182fd5b60008151808452815b81811015614a7657602081850181015186830182015201614a5a565b81811115614a875782602083870101525b50601f01601f19169290920160200192915050565b6a564f54494e475f524f4c4560a81b8152600b0190565b6941444d494e5f524f4c4560b01b8152600a0190565b6001600160a01b0391909116815260200190565b6001600160a01b03929092168252602082015260400190565b600060018060a01b038816825286602083015285604083015284606083015260c06080830152614b2960c0830185614a51565b905082151560a0830152979650505050505050565b901515815260200190565b9115158252602082015260400190565b90815260200190565b60208101614b6f83615283565b825292915050565b6000602082526122896020830184614a51565b6000610100808352614b9e8184018c614a51565b915050614baa89615278565b6020830152614bb888615283565b60408301526060820196909652608081019490945291151560a0840152151560c083015260e0909101529392505050565b600060608252614bfc6060830186614a51565b60208301949094525060400152919050565b60208082526022908201527f456e756d657261626c655365743a20696e646578206f7574206f6620626f756e604082015261647360f01b606082015260800190565b6020808252602f908201527f416363657373436f6e74726f6c3a2073656e646572206d75737420626520616e60408201526e0818591b5a5b881d1bc819dc985b9d608a1b606082015260800190565b60208082526028908201527f566f74696e673a2074696d65206d75737420626520626967676572207468616e6040820152670818dd5c9c995b9d60c21b606082015260800190565b60208082526026908201527f4f776e61626c653a206e6577206f776e657220697320746865207a65726f206160408201526564647265737360d01b606082015260800190565b60208082526024908201527f566f74696e673a206d757374206265206174206c656173742074776f206f7074604082015263696f6e7360e01b606082015260800190565b6020808252601f908201527f566f74696e673a2070726f706f73616c20646f6573206e6f7420657869737400604082015260600190565b602080825260159082015274159bdd1a5b99ce88195b5c1d1e4819195c1bdcda5d605a1b604082015260600190565b60208082526025908201527f566f74696e673a20746869732070726f706f73616c206974206e6f7420616363604082015264195c1d195960da1b606082015260800190565b60208082526028908201527f566f74696e673a20706c656173652063686f6f736520616e206f7074696f6e206040820152670c4f240d2dcc8caf60c31b606082015260800190565b6020808252601e908201527f566f74696e673a20796f75206861766520616c726561647920766f7465640000604082015260600190565b6020808252602b908201527f566f74696e673a20796f75206861766520746f206c6f636b20796f757220746f60408201526a6b656e73206265666f726560a81b606082015260800190565b6020808252601f908201527f566f74696e673a20696e636f7272656374207570646174696e67206461746100604082015260600190565b602080825260169082015275566f74696e673a206f7574206f6620696e646578657360501b604082015260600190565b60208082526030908201527f416363657373436f6e74726f6c3a2073656e646572206d75737420626520616e60408201526f2061646d696e20746f207265766f6b6560801b606082015260800190565b60208082526018908201527f566f74696e673a20616c72656164792065786563757465640000000000000000604082015260600190565b6020808252818101527f4f776e61626c653a2063616c6c6572206973206e6f7420746865206f776e6572604082015260600190565b6020808252602f908201527f566f74696e673a2064656e69656420746f20657865637574652074686520726560408201526e1c1b1858d959081c1c9bdc1bdcd85b608a1b606082015260800190565b60208082526029908201527f566f74696e673a20766f74696e6720706572696f64206973206e6f742066696e6040820152681a5cda1959081e595d60ba1b606082015260800190565b60208082526021908201527f566f74696e673a20657865637574696f6e2074696d65206973206578706972656040820152601960fa1b606082015260800190565b60208082526022908201527f566f74696e673a20796f7520646f206e6f742068617665207065726d6973736960408201526137b760f11b606082015260800190565b602080825260139082015272566f74696e673a20656d707479207469746c6560681b604082015260600190565b60208082526027908201527f566f74696e673a20746869732070726f706f73616c206973206e6f742065786560408201526663757461626c6560c81b606082015260800190565b6020808252602f908201527f416363657373436f6e74726f6c3a2063616e206f6e6c792072656e6f756e636560408201526e103937b632b9903337b91039b2b63360891b606082015260800190565b60208082526021908201527f566f74696e673a20796f752073686f756c642073617920796561206f72206e616040820152607960f81b606082015260800190565b6000858252608060208301526152416080830186614a51565b905061524c84615278565b60408301526006831061525b57fe5b82606083015295945050505050565b918252602082015260400190565b806002811061094757fe5b806006811061094757fefea2646970667358221220872ca2300014724620d724d1abf7672eb188985e94562d516e1b0b1488bcf0e964736f6c63430006020033a8a1fd55aad9bd98e45291d680690c619e60f7931ecaeb384ba0bfb225cd25fe",
  "source": "// SPDX-License-Identifier: GPL-3.0\npragma solidity 0.6.2;\npragma experimental ABIEncoderV2;\n\nimport \"./Managing.sol\";\n\n\ncontract Voting is Managing {\n\n    enum ProposalType {\n        Native,\n        Multi\n    }\n\n    enum ProposalUpdater {\n        Nothing,\n        Inflation,\n        Vesting,\n        CreateProposal,\n        UpdateConfig,\n        ExecutionTime\n    }\n\n    struct ProposalConfig {\n        uint quorumPct;\n        uint supportPct;\n    }\n\n    struct Proposal {\n        address creator;\n        string title;\n        string description;\n        ProposalType votingType;\n        ProposalUpdater votingUpdater;\n        string updateData;\n        uint quorumPct;\n        bool hasQuorum;\n        uint supportPct;\n        ProposalOption[] options;\n        uint expiryTime;\n        uint totalVotingPower;\n        uint voters;\n        bool executed;\n    }\n\n    struct ProposalInfo {\n        string title;\n        ProposalType votingType;\n        ProposalUpdater votingUpdater;\n        uint nay;\n        uint yea;\n        bool hasQuorum;\n        bool accepted;\n        uint maxIndex;\n        bool tie;\n        uint expiryTime;\n    }\n\n    struct ProposalInfoConfig {\n        address creator;\n        uint quorumPct;\n        uint supportPct;\n        uint voters;\n        string updateData;\n        bool executed;\n    }\n\n    struct ProposalOption {\n        string name;\n        uint256 count;\n        uint256 weight;\n    }\n\n    struct GotVote {\n        uint option;\n        uint amount;\n    }\n\n    bool private _everyoneCreateProposal;\n    uint private _minAmountToCreate = 10000e6;\n    uint private _executionTime = 30 days;\n    mapping (uint8 => ProposalConfig) private _proposalConfigs;\n\n    mapping (uint => Proposal) private _proposals;\n    mapping (uint8 => uint) private _executedProposal;\n    mapping (address => mapping (uint => uint)) private _deposited;\n    mapping (address => mapping(uint => GotVote)) private _voted;\n    mapping (address => uint[]) private _holderActiveVotes;\n    uint private _countProposals;\n\n    event SetProposalAvailability(bool isAvailable, uint minStaked);\n    event NewProposal(\n        uint indexed issueId,\n        address indexed creator,\n        ProposalType indexed votingType,\n        ProposalUpdater votingUpdater\n    );\n    event ExecProposal(uint indexed issueId, ProposalUpdater indexed category, address indexed initialized);\n    event OnVote(uint indexed issueId, address indexed from, uint indexed option, uint weight);\n    event UpdatedProposalConfig(ProposalUpdater indexed updater, uint quorumPct, uint supportPct);\n\n    modifier canCreateProposals() {\n        if (hasRole(VOTING_ROLE, msg.sender) || hasRole(ADMIN_ROLE, msg.sender)) {\n            _;\n            return;\n        }\n        if (_everyoneCreateProposal) {\n            uint balance = _Token.balanceOf(msg.sender);\n            if (balance >= _minAmountToCreate) {\n                _;\n                return;\n            }\n        }\n        revert(\"Voting: you do not have permission\");\n    }\n\n    modifier hasProposal(uint id) {\n        require(id > 0 && id <= _countProposals, \"Voting: proposal does not exist\");\n        _;\n    }\n\n    constructor () public {\n        uint quorumPct = 20 * 1000;\n        uint supportPct = 50 * 1000 + 1;\n        _proposalConfigs[uint8(ProposalUpdater.Nothing)] = ProposalConfig(quorumPct, supportPct);\n        emit UpdatedProposalConfig(ProposalUpdater.Nothing, quorumPct, supportPct);\n        _proposalConfigs[uint8(ProposalUpdater.Inflation)] = ProposalConfig(quorumPct, supportPct);\n        emit UpdatedProposalConfig(ProposalUpdater.Inflation, quorumPct, supportPct);\n        _proposalConfigs[uint8(ProposalUpdater.Vesting)] = ProposalConfig(quorumPct, supportPct);\n        emit UpdatedProposalConfig(ProposalUpdater.Vesting, quorumPct, supportPct);\n        _proposalConfigs[uint8(ProposalUpdater.CreateProposal)] = ProposalConfig(quorumPct, supportPct);\n        emit UpdatedProposalConfig(ProposalUpdater.CreateProposal, quorumPct, supportPct);\n        _proposalConfigs[uint8(ProposalUpdater.UpdateConfig)] = ProposalConfig(quorumPct, supportPct);\n        emit UpdatedProposalConfig(ProposalUpdater.UpdateConfig, quorumPct, supportPct);\n        _proposalConfigs[uint8(ProposalUpdater.ExecutionTime)] = ProposalConfig(quorumPct, supportPct);\n        emit UpdatedProposalConfig(ProposalUpdater.ExecutionTime, quorumPct, supportPct);\n    }\n\n    // VIEW\n\n    function isOpenProposals() external view returns (bool) {\n        return _everyoneCreateProposal;\n    }\n\n    function minAmountToCreate() external view returns (uint) {\n        return _minAmountToCreate;\n    }\n\n    function executionTime() external view returns (uint) {\n        return _executionTime;\n    }\n\n    function proposalConfigRates(ProposalUpdater conf) external view\n    returns (uint quorumPct, uint supportPct) {\n        quorumPct = _proposalConfigs[uint8(conf)].quorumPct;\n        supportPct = _proposalConfigs[uint8(conf)].supportPct;\n    }\n\n    function availableToCreateProposals(address account) external view returns (bool) {\n        if (hasRole(VOTING_ROLE, account) || hasRole(ADMIN_ROLE, account)) {\n            return true;\n        }\n        if (_everyoneCreateProposal) {\n            uint staked = _Token.lockedBalanceOf(account);\n            if (staked >= _minAmountToCreate) {\n                return true;\n            }\n        }\n        return false;\n    }\n\n    function depositedForProposal(address creator, uint issueId) external view\n    returns (uint)\n    {\n        return _deposited[creator][issueId];\n    }\n\n    function getNewestProposal() external view\n    returns (\n        uint issueId,\n        string memory title,\n        ProposalType votingType,\n        ProposalUpdater votingUpdater\n    ) {\n        issueId = _countProposals;\n        title = _proposals[issueId].title;\n        votingType = _proposals[issueId].votingType;\n        votingUpdater = _proposals[issueId].votingUpdater;\n    }\n\n    function countProposals() external view returns (uint) {\n        return _countProposals;\n    }\n\n    function issueDescription(uint256 issueId) external view\n    hasProposal(issueId)// override\n    returns (string memory) {\n        return _proposals[issueId].description;\n    }\n\n    function countOptions(uint issueId) external view\n    hasProposal(issueId)// override\n    returns (uint) {\n        return _proposals[issueId].options.length;\n    }\n\n    function optionName(uint issueId, uint option) external view\n    hasProposal(issueId)// override\n    returns (string memory) {\n        require(_proposals[issueId].options.length > option, \"Voting: out of indexes\");\n        return _proposals[issueId].options[option].name;\n    }\n\n    function optionInfo(uint issueId, uint option) external view\n    hasProposal(issueId)// override\n    returns (string memory name, uint256 count, uint256 weight) {\n        require(_proposals[issueId].options.length > option, \"Voting: out of indexes\");\n        ProposalOption storage opt = _proposals[issueId].options[option];\n        name = opt.name;\n        count = opt.count;\n        weight = opt.weight;\n    }\n\n    function ballotOf(uint issueId, address addr) external view\n    hasProposal(issueId)// override\n    returns (uint) {\n        return _voted[addr][issueId].option;\n    }\n\n    function weightOf(uint issueId, address addr) external view\n    hasProposal(issueId)// override\n    returns (uint) {\n        return _voted[addr][issueId].amount;\n    }\n\n    function weightedVoteCountsOf(uint issueId, uint option) external view\n    hasProposal(issueId)// override\n    returns (uint) {\n        return _proposals[issueId].options[option].count;\n    }\n\n    function proposalInfo(uint issueId) external view\n    returns (\n        string memory title,\n        ProposalType votingType,\n        ProposalUpdater votingUpdater,\n        uint nay,\n        uint yea,\n        bool hasQuorum,\n        bool accepted,\n        uint expiryTime\n    ) {\n        ProposalInfo memory info = _proposalInfo(issueId);\n        title = info.title;\n        votingType = info.votingType;\n        votingUpdater = info.votingUpdater;\n        nay = info.nay;\n        yea = info.yea;\n        hasQuorum = info.hasQuorum;\n        accepted = info.accepted;\n        expiryTime = info.expiryTime;\n    }\n\n    function proposalConfig(uint issueId) external view\n    returns (\n        address creator,\n        uint quorumPct,\n        uint supportPct,\n        uint voters,\n        string memory updateData,\n        bool executed\n    ) {\n        ProposalInfoConfig memory info = _proposalConfig(issueId);\n        creator = info.creator;\n        quorumPct = info.quorumPct;\n        supportPct = info.supportPct;\n        voters = info.voters;\n        updateData = info.updateData;\n        executed = info.executed;\n    }\n\n    // EXTERNAL\n\n    function createProposalAvailability(bool isAvailable, uint minStaked) external {\n        require(hasRole(VOTING_ROLE, msg.sender) || hasRole(ADMIN_ROLE, msg.sender), \"Voting: you do not have permission\");\n        _everyoneCreateProposal = isAvailable;\n        _minAmountToCreate = minStaked;\n        emit SetProposalAvailability(isAvailable, minStaked);\n    }\n\n    function newProposal(\n        string calldata title,\n        string calldata description,\n        uint expiryTime,\n        string calldata updateData,\n        ProposalUpdater votingUpdater\n    ) external canCreateProposals {\n        require(bytes(title).length > 0, \"Voting: empty title\");\n        require(expiryTime > _timestamp(), \"Voting: time must be bigger than current\");\n\n        _countProposals++;\n\n        _delegateTokens(_countProposals);\n\n        Proposal storage proposal = _proposals[_countProposals];\n        ProposalConfig memory conf = _proposalConfigs[uint8(votingUpdater)];\n\n        proposal.creator = msg.sender;\n        proposal.title = title;\n        proposal.description = description;\n        proposal.quorumPct = conf.quorumPct;\n        proposal.supportPct = conf.supportPct;\n        proposal.expiryTime = expiryTime;\n        proposal.votingType = ProposalType.Native;\n        proposal.votingUpdater = votingUpdater;\n\n        if (votingUpdater != ProposalUpdater.Nothing) {\n            require(updaterValidateData(votingUpdater, updateData), \"Voting: incorrect updating data\");\n            proposal.updateData = updateData;\n        }\n\n        proposal.options.push(ProposalOption('nay', 0, 0));\n        proposal.options.push(ProposalOption('yea', 0, 0));\n\n        emit NewProposal(_countProposals, msg.sender, ProposalType.Native, votingUpdater);\n    }\n\n    function newMultiProposal(\n        string calldata title,\n        string calldata description,\n        uint expiryTime,\n        string[] calldata options,\n        ProposalUpdater votingUpdater\n    ) external canCreateProposals {\n        require(bytes(title).length > 0, \"Voting: empty title\");\n        require(expiryTime > _timestamp(), \"Voting: time must be bigger than current\");\n        require(options.length > 1, \"Voting: must be at least two options\");\n\n        _countProposals++;\n\n        _delegateTokens(_countProposals);\n\n        Proposal storage proposal = _proposals[_countProposals];\n        ProposalConfig memory conf = _proposalConfigs[uint8(votingUpdater)];\n\n        proposal.creator = msg.sender;\n        proposal.title = title;\n        proposal.description = description;\n        proposal.quorumPct = conf.quorumPct;\n        proposal.supportPct = conf.supportPct;\n        proposal.expiryTime = expiryTime;\n        proposal.votingType = ProposalType.Multi;\n        proposal.votingUpdater = votingUpdater;\n\n        proposal.options.push(ProposalOption(\"Skip\", 0, 0));\n        for (uint i = 0; i < options.length; i++) {\n            if (votingUpdater != ProposalUpdater.Nothing) {\n                require(updaterValidateData(votingUpdater, options[i]), \"Voting: incorrect updating data\");\n            }\n            proposal.options.push(ProposalOption(options[i], 0, 0));\n        }\n\n        emit NewProposal(_countProposals, msg.sender, ProposalType.Multi, votingUpdater);\n    }\n\n    function vote(uint issueId, bytes4 option) external\n    hasProposal(issueId)// override\n    returns (bool) {\n        bytes4 yea = bytes4(\"yea\");\n        bytes4 nay = bytes4(\"nay\");\n        require(option == yea || option == nay, \"Voting: you should say yea or nay\");\n        require(_proposals[issueId].votingType == ProposalType.Native, \"Voting: please choose an option by index\");\n        uint optionId = 0;\n        if (option == yea) optionId = 1;\n        return _vote(issueId, optionId);\n    }\n\n    function vote(uint issueId, uint option) external\n    hasProposal(issueId)// override\n    returns (bool) {\n        Proposal memory proposal = _proposals[issueId];\n        require(proposal.options.length > option, \"Voting: out of indexes\");\n        return _vote(issueId, option);\n    }\n\n    function execProposal(uint issueId) external {\n        ProposalInfoConfig memory infoConfig = _proposalConfig(issueId);\n        require(infoConfig.creator == msg.sender || hasRole(VOTING_ROLE, msg.sender) || hasRole(ADMIN_ROLE, msg.sender), \"Voting: you do not have permission\");\n        require(!infoConfig.executed, \"Voting: already executed\");\n\n        ProposalInfo memory info = _proposalInfo(issueId);\n        require(info.votingUpdater != ProposalUpdater.Nothing, \"Voting: this proposal is not executable\");\n        require(info.expiryTime < _timestamp(), \"Voting: voting period is not finished yet\");\n        require(info.expiryTime + _executionTime > _timestamp(), \"Voting: execution time is expired\");\n        require(info.accepted, \"Voting: this proposal it not accepted\");\n        require(_executedProposal[uint8(info.votingUpdater)] <= issueId, \"Voting: denied to execute the replaced proposal\");\n\n        string memory updateData;\n        if (info.votingType == ProposalType.Multi) {\n            updateData = _proposals[issueId].options[info.maxIndex].name;\n        } else {\n            updateData = infoConfig.updateData;\n        }\n\n        if (info.votingUpdater == ProposalUpdater.Inflation) {\n            _Token.updateInflation(issueId, parseInt(updateData));\n        } else if (info.votingUpdater == ProposalUpdater.Vesting) {\n            _Token.updateVesting(issueId, parseInt(updateData));\n        } else if (info.votingUpdater == ProposalUpdater.CreateProposal) {\n            _minAmountToCreate = parseInt(updateData);\n        } else if (info.votingUpdater == ProposalUpdater.UpdateConfig) {\n            bytes memory _bytes = bytes(updateData);\n            bytes memory confId = new bytes(1);\n            bytes memory quorumPctBts = new bytes(6);\n            bytes memory supportPctBts = new bytes(6);\n            require(_bytes.length == 13);\n            for(uint i = 0; i < _bytes.length; i++){\n                if (i < 1) {\n                    confId[0] = _bytes[0];\n                } else if (i < 7) {\n                    quorumPctBts[i - 1] = _bytes[i];\n                } else {\n                    supportPctBts[i - 7] = _bytes[i];\n                }\n            }\n            uint256 quorumPct = parseInt(string(quorumPctBts));\n            uint256 supportPct = parseInt(string(supportPctBts));\n            _proposalConfigs[uint8(parseInt(string(confId)))] = ProposalConfig(quorumPct, supportPct);\n        } else if (info.votingUpdater == ProposalUpdater.ExecutionTime) {\n            _executionTime = parseInt(updateData);\n        }\n\n        _proposals[issueId].executed = true;\n        _executedProposal[uint8(info.votingUpdater)] = issueId;\n\n        emit ExecProposal(issueId, info.votingUpdater, msg.sender);\n    }\n\n    function redeemDepositFromProposal(uint issueId) external\n    hasProposal(issueId)\n    {\n        require(_proposals[issueId].creator == msg.sender, \"Voting: you do not have permission\");\n        require(_deposited[msg.sender][issueId] > 0, \"Voting: empty deposit\");\n\n        ProposalInfo memory info = _proposalInfo(issueId);\n        require(info.expiryTime < _timestamp(), \"Voting: voting period is not finished yet\");\n        require(info.accepted, \"Voting: this proposal it not accepted\");\n\n        _redeemTokens(issueId);\n    }\n\n    // TOKEN ONLY\n\n    function updatedStake(address holder) external {\n        require(msg.sender == address(_Token));\n        uint[] memory list = _holderActiveVotes[holder];\n        if (list.length == 0) return;\n        uint supply = _Token.lockedSupply();\n        uint tokens = _Token.lockedBalanceOf(holder);\n        uint[] memory resetList;\n        uint newIndex;\n        for (uint i; i < list.length; i++) {\n            uint issueId = list[i];\n            Proposal storage proposal = _proposals[issueId];\n            if (proposal.expiryTime < _timestamp()) continue;\n            GotVote storage aVote = _voted[holder][issueId];\n            if (tokens == 0) {\n                proposal.voters--;\n                proposal.totalVotingPower -= aVote.amount;\n                proposal.options[aVote.option].weight -= aVote.amount;\n                proposal.options[aVote.option].count--;\n                aVote.amount = 0;\n                proposal.hasQuorum = proposal.totalVotingPower * 100000 / supply >= proposal.quorumPct;\n                continue;\n            }\n            if (aVote.amount > tokens) {\n                proposal.options[aVote.option].weight -= aVote.amount - tokens;\n            } else {\n                proposal.options[aVote.option].weight += tokens - aVote.amount;\n            }\n            aVote.amount = tokens;\n            proposal.hasQuorum = proposal.totalVotingPower * 100000 / supply >= proposal.quorumPct;\n            resetList[newIndex] = issueId;\n            newIndex++;\n        }\n        _holderActiveVotes[holder] = resetList;\n    }\n\n    // PUBLIC UTILS\n\n    function parseInt(\n        string memory _value\n    ) public pure returns (uint _ret) {\n        bytes memory _bytesValue = bytes(_value);\n        uint j = 1;\n        for(uint i = _bytesValue.length-1; i >= 0 && i < _bytesValue.length; i--) {\n            assert(uint8(_bytesValue[i]) >= 48 && uint8(_bytesValue[i]) <= 57);\n            _ret += (uint8(_bytesValue[i]) - 48)*j;\n            j*=10;\n        }\n    }\n\n    function updaterValidateData(\n        ProposalUpdater votingUpdater,\n        string memory updateData\n    ) public pure returns (bool) {\n        if (votingUpdater == ProposalUpdater.Nothing) return true;\n        if (votingUpdater == ProposalUpdater.Inflation) {\n            uint value = parseInt(updateData);\n            return value >= 200 && value < 3000;\n        } else if (votingUpdater == ProposalUpdater.Vesting) {\n            uint value = parseInt(updateData);\n            return value >= 10 && value <= 90;\n        } else if (votingUpdater == ProposalUpdater.CreateProposal) {\n            uint value = parseInt(updateData);\n            return value > 0;\n        } else if (votingUpdater == ProposalUpdater.UpdateConfig) {\n            bytes memory _bytes = bytes(updateData);\n            require(_bytes.length == 13);\n            bytes memory confId = new bytes(1);\n            bytes memory quorumPctBts = new bytes(6);\n            bytes memory supportPctBts = new bytes(6);\n            for(uint i = 0; i < _bytes.length; i++){\n                if (i < 1) {\n                    confId[0] = _bytes[0];\n                } else if (i < 7) {\n                    quorumPctBts[i - 1] = _bytes[i];\n                } else {\n                    supportPctBts[i - 7] = _bytes[i];\n                }\n            }\n            uint quorumPct = parseInt(string(quorumPctBts));\n            uint supportPct = parseInt(string(supportPctBts));\n            bool res = quorumPct > 0 && quorumPct <= 100*1000;\n            res = res && supportPct > 0 && supportPct <= 100*1000;\n            res = res && uint8(parseInt(string(confId))) <= uint8(ProposalUpdater.UpdateConfig);\n            return res;\n        } else if (votingUpdater == ProposalUpdater.ExecutionTime) {\n            return parseInt(updateData) >= 1 days;\n        }\n        return false;\n    }\n\n    // INTERNAL\n\n    function _proposalInfo(uint issueId) internal view\n    hasProposal(issueId)\n    returns (\n        ProposalInfo memory info\n    ) {\n        Proposal memory proposal = _proposals[issueId];\n\n        info.title = proposal.title;\n        info.votingType = proposal.votingType;\n        info.votingUpdater = proposal.votingUpdater;\n        info.expiryTime = proposal.expiryTime;\n        info.hasQuorum = proposal.hasQuorum;\n\n        if(info.votingType == ProposalType.Native){\n            info.nay = proposal.options[0].weight;\n            info.yea = proposal.options[1].weight;\n            if (info.expiryTime < _timestamp() && info.hasQuorum) {\n                info.accepted = proposal.supportPct <= (info.yea * 100000 / proposal.totalVotingPower);\n            } else {\n                info.accepted = false;\n            }\n        } else {\n            if (info.expiryTime < _timestamp() && info.hasQuorum) {\n                uint maxWeight;\n                for (uint i = 0; i < proposal.options.length; i++) {\n                    ProposalOption memory option = proposal.options[i];\n                    if (option.weight > maxWeight) {\n                        info.maxIndex = i;\n                        maxWeight = option.weight;\n                        if (info.tie) info.tie = false;\n                    } else if (option.weight == maxWeight) {\n                        info.tie = true;\n                    }\n                }\n                info.accepted = !info.tie && info.maxIndex > 0;\n            } else {\n                info.accepted = false;\n            }\n        }\n    }\n\n    function _proposalConfig(uint issueId) internal view\n    hasProposal(issueId)\n    returns (\n        ProposalInfoConfig memory info\n    ) {\n        Proposal memory proposal = _proposals[issueId];\n\n        info.creator = proposal.creator;\n        info.quorumPct = proposal.quorumPct;\n        info.supportPct = proposal.supportPct;\n        info.voters = proposal.voters;\n        info.updateData = proposal.updateData;\n        info.executed = proposal.executed;\n    }\n\n    // PRIVATE\n\n    function _vote(uint issueId, uint option) private\n    hasProposal(issueId)\n    returns (bool)\n    {\n        Proposal storage proposal = _proposals[issueId];\n        if (proposal.expiryTime < _timestamp()) return false;\n        address sender = msg.sender;\n        uint256 tokens = _Token.lockedBalanceOf(sender);\n        require(tokens > 0, \"Voting: you have to lock your tokens before\");\n        require(_voted[sender][issueId].amount == 0, \"Voting: you have already voted\");\n\n        _voted[sender][issueId] = GotVote(option, tokens);\n\n        proposal.voters++;\n        proposal.totalVotingPower += tokens;\n        proposal.options[option].count++;\n        proposal.options[option].weight += tokens;\n\n        if (!proposal.hasQuorum) {\n            uint quorumRctNow = proposal.totalVotingPower * 100000 / _Token.lockedSupply();\n\n            if (quorumRctNow >= proposal.quorumPct) {\n                proposal.hasQuorum = true;\n            }\n        }\n\n        _holderActiveVotes[msg.sender].push(issueId);\n\n        emit OnVote(issueId, sender, option, tokens);\n\n        return true;\n    }\n\n    function _delegateTokens(uint issueId) private {\n        if (hasRole(VOTING_ROLE, msg.sender) || hasRole(ADMIN_ROLE, msg.sender)) return;\n        _deposited[msg.sender][issueId] = _minAmountToCreate;\n        _Token.delegateToDAO(msg.sender, _minAmountToCreate);\n    }\n\n    function _redeemTokens(uint issueId) private {\n        if (hasRole(VOTING_ROLE, msg.sender) || hasRole(ADMIN_ROLE, msg.sender)) return;\n        _Token.redeemFromDAO(msg.sender, _deposited[msg.sender][issueId]);\n        _deposited[msg.sender][issueId] = 0;\n    }\n\n}\n",
  "sourcePath": "/home/pirat/Desktop/DAO_update/DAO/contracts/DAO/Voting.sol",
  "compiler": {
    "name": "solc",
    "version": "0.6.2+commit.bacdbe57.Emscripten.clang"
  },
  "schemaVersion": "3.2.5",
  "updatedAt": "2021-08-16T15:52:52.610Z",
  "devdoc": {
    "methods": {
      "getRoleAdmin(bytes32)": {
        "details": "Returns the admin role that controls `role`. See {grantRole} and {revokeRole}.     * To change a role's admin, use {_setRoleAdmin}."
      },
      "getRoleMember(bytes32,uint256)": {
        "details": "Returns one of the accounts that have `role`. `index` must be a value between 0 and {getRoleMemberCount}, non-inclusive.     * Role bearers are not sorted in any particular way, and their ordering may change at any point.     * WARNING: When using {getRoleMember} and {getRoleMemberCount}, make sure you perform all queries on the same block. See the following https://forum.openzeppelin.com/t/iterating-over-elements-on-enumerableset-in-openzeppelin-contracts/2296[forum post] for more information."
      },
      "getRoleMemberCount(bytes32)": {
        "details": "Returns the number of accounts that have `role`. Can be used together with {getRoleMember} to enumerate all bearers of a role."
      },
      "grantRole(bytes32,address)": {
        "details": "Grants `role` to `account`.     * If `account` had not been already granted `role`, emits a {RoleGranted} event.     * Requirements:     * - the caller must have ``role``'s admin role."
      },
      "hasRole(bytes32,address)": {
        "details": "Returns `true` if `account` has been granted `role`."
      },
      "owner()": {
        "details": "Returns the address of the current owner."
      },
      "renounceOwnership()": {
        "details": "Leaves the contract without owner. It will not be possible to call `onlyOwner` functions anymore. Can only be called by the current owner.     * NOTE: Renouncing ownership will leave the contract without an owner, thereby removing any functionality that is only available to the owner."
      },
      "renounceRole(bytes32,address)": {
        "details": "Revokes `role` from the calling account.     * Roles are often managed via {grantRole} and {revokeRole}: this function's purpose is to provide a mechanism for accounts to lose their privileges if they are compromised (such as when a trusted device is misplaced).     * If the calling account had been granted `role`, emits a {RoleRevoked} event.     * Requirements:     * - the caller must be `account`."
      },
      "revokeRole(bytes32,address)": {
        "details": "Revokes `role` from `account`.     * If `account` had been granted `role`, emits a {RoleRevoked} event.     * Requirements:     * - the caller must have ``role``'s admin role."
      },
      "transferOwnership(address)": {
        "details": "Transfers ownership of the contract to a new account (`newOwner`). Can only be called by the current owner."
      }
    }
  },
  "userdoc": {
    "methods": {}
  }
}